{
	"lesson3/testExtends.sol": {
		"Child": {
			"abi": [
				{
					"inputs": [],
					"name": "a",
					"outputs": [
						{
							"internalType": "uint256",
							"name": "",
							"type": "uint256"
						}
					],
					"stateMutability": "view",
					"type": "function"
				},
				{
					"inputs": [
						{
							"internalType": "uint256",
							"name": "_amount",
							"type": "uint256"
						}
					],
					"name": "addAmount",
					"outputs": [],
					"stateMutability": "nonpayable",
					"type": "function"
				},
				{
					"inputs": [],
					"name": "addOne",
					"outputs": [],
					"stateMutability": "nonpayable",
					"type": "function"
				},
				{
					"inputs": [],
					"name": "addThree",
					"outputs": [],
					"stateMutability": "nonpayable",
					"type": "function"
				},
				{
					"inputs": [],
					"name": "addTwo",
					"outputs": [],
					"stateMutability": "nonpayable",
					"type": "function"
				}
			],
			"devdoc": {
				"kind": "dev",
				"methods": {},
				"version": 1
			},
			"evm": {
				"assembly": "    /* \"lesson3/testExtends.sol\":347:593  contract Child is Parent, Parent2 {... */\n  mstore(0x40, 0x80)\n    /* \"lesson3/testExtends.sol\":122:124  10 */\n  0x0a\n    /* \"lesson3/testExtends.sol\":102:124  uint256 private b = 10 */\n  0x01\n  sstore\n    /* \"lesson3/testExtends.sol\":347:593  contract Child is Parent, Parent2 {... */\n  callvalue\n  dup1\n  iszero\n  tag_1\n  jumpi\n  0x00\n  dup1\n  revert\ntag_1:\n  pop\n  dataSize(sub_0)\n  dup1\n  dataOffset(sub_0)\n  0x00\n  codecopy\n  0x00\n  return\nstop\n\nsub_0: assembly {\n        /* \"lesson3/testExtends.sol\":347:593  contract Child is Parent, Parent2 {... */\n      mstore(0x40, 0x80)\n      callvalue\n      dup1\n      iszero\n      tag_1\n      jumpi\n      0x00\n      dup1\n      revert\n    tag_1:\n      pop\n      jumpi(tag_2, lt(calldatasize, 0x04))\n      shr(0xe0, calldataload(0x00))\n      dup1\n      0x0912f232\n      eq\n      tag_3\n      jumpi\n      dup1\n      0x0dbe671f\n      eq\n      tag_4\n      jumpi\n      dup1\n      0x4d47524e\n      eq\n      tag_5\n      jumpi\n      dup1\n      0x6057d3ee\n      eq\n      tag_6\n      jumpi\n      dup1\n      0xe2fbc880\n      eq\n      tag_7\n      jumpi\n    tag_2:\n      0x00\n      dup1\n      revert\n        /* \"lesson3/testExtends.sol\":506:591  function addAmount(uint256 _amount) public override {... */\n    tag_3:\n      tag_8\n      0x04\n      dup1\n      calldatasize\n      sub\n      dup2\n      add\n      swap1\n      tag_9\n      swap2\n      swap1\n      tag_10\n      jump\t// in\n    tag_9:\n      tag_11\n      jump\t// in\n    tag_8:\n      stop\n        /* \"lesson3/testExtends.sol\":80:96  uint256 public a */\n    tag_4:\n      tag_12\n      tag_13\n      jump\t// in\n    tag_12:\n      mload(0x40)\n      tag_14\n      swap2\n      swap1\n      tag_15\n      jump\t// in\n    tag_14:\n      mload(0x40)\n      dup1\n      swap2\n      sub\n      swap1\n      return\n        /* \"lesson3/testExtends.sol\":387:435  function addTwo() public {... */\n    tag_5:\n      tag_16\n      tag_17\n      jump\t// in\n    tag_16:\n      stop\n        /* \"lesson3/testExtends.sol\":131:176  function addOne() public {... */\n    tag_6:\n      tag_18\n      tag_19\n      jump\t// in\n    tag_18:\n      stop\n        /* \"lesson3/testExtends.sol\":441:500  function addThree() public override {... */\n    tag_7:\n      tag_20\n      tag_21\n      jump\t// in\n    tag_20:\n      stop\n        /* \"lesson3/testExtends.sol\":506:591  function addAmount(uint256 _amount) public override {... */\n    tag_11:\n        /* \"lesson3/testExtends.sol\":583:584  2 */\n      0x02\n        /* \"lesson3/testExtends.sol\":573:580  _amount */\n      dup2\n        /* \"lesson3/testExtends.sol\":573:584  _amount * 2 */\n      tag_23\n      swap2\n      swap1\n      tag_24\n      jump\t// in\n    tag_23:\n        /* \"lesson3/testExtends.sol\":568:569  a */\n      0x00\n      dup1\n        /* \"lesson3/testExtends.sol\":568:584  a += _amount * 2 */\n      dup3\n      dup3\n      sload\n      tag_25\n      swap2\n      swap1\n      tag_26\n      jump\t// in\n    tag_25:\n      swap3\n      pop\n      pop\n      dup2\n      swap1\n      sstore\n      pop\n        /* \"lesson3/testExtends.sol\":506:591  function addAmount(uint256 _amount) public override {... */\n      pop\n      jump\t// out\n        /* \"lesson3/testExtends.sol\":80:96  uint256 public a */\n    tag_13:\n      sload(0x00)\n      dup2\n      jump\t// out\n        /* \"lesson3/testExtends.sol\":387:435  function addTwo() public {... */\n    tag_17:\n        /* \"lesson3/testExtends.sol\":427:428  2 */\n      0x02\n        /* \"lesson3/testExtends.sol\":422:423  a */\n      0x00\n      dup1\n        /* \"lesson3/testExtends.sol\":422:428  a += 2 */\n      dup3\n      dup3\n      sload\n      tag_28\n      swap2\n      swap1\n      tag_26\n      jump\t// in\n    tag_28:\n      swap3\n      pop\n      pop\n      dup2\n      swap1\n      sstore\n      pop\n        /* \"lesson3/testExtends.sol\":387:435  function addTwo() public {... */\n      jump\t// out\n        /* \"lesson3/testExtends.sol\":131:176  function addOne() public {... */\n    tag_19:\n        /* \"lesson3/testExtends.sol\":166:167  a */\n      0x00\n      dup1\n        /* \"lesson3/testExtends.sol\":166:169  a++ */\n      dup2\n      sload\n      dup1\n      swap3\n      swap2\n      swap1\n      tag_30\n      swap1\n      tag_31\n      jump\t// in\n    tag_30:\n      swap2\n      swap1\n      pop\n      sstore\n      pop\n        /* \"lesson3/testExtends.sol\":131:176  function addOne() public {... */\n      jump\t// out\n        /* \"lesson3/testExtends.sol\":441:500  function addThree() public override {... */\n    tag_21:\n        /* \"lesson3/testExtends.sol\":492:493  3 */\n      0x03\n        /* \"lesson3/testExtends.sol\":487:488  a */\n      0x00\n      dup1\n        /* \"lesson3/testExtends.sol\":487:493  a += 3 */\n      dup3\n      dup3\n      sload\n      tag_33\n      swap2\n      swap1\n      tag_26\n      jump\t// in\n    tag_33:\n      swap3\n      pop\n      pop\n      dup2\n      swap1\n      sstore\n      pop\n        /* \"lesson3/testExtends.sol\":441:500  function addThree() public override {... */\n      jump\t// out\n        /* \"#utility.yul\":88:205   */\n    tag_35:\n        /* \"#utility.yul\":197:198   */\n      0x00\n        /* \"#utility.yul\":194:195   */\n      dup1\n        /* \"#utility.yul\":187:199   */\n      revert\n        /* \"#utility.yul\":334:411   */\n    tag_37:\n        /* \"#utility.yul\":371:378   */\n      0x00\n        /* \"#utility.yul\":400:405   */\n      dup2\n        /* \"#utility.yul\":389:405   */\n      swap1\n      pop\n        /* \"#utility.yul\":334:411   */\n      swap2\n      swap1\n      pop\n      jump\t// out\n        /* \"#utility.yul\":417:539   */\n    tag_38:\n        /* \"#utility.yul\":490:514   */\n      tag_48\n        /* \"#utility.yul\":508:513   */\n      dup2\n        /* \"#utility.yul\":490:514   */\n      tag_37\n      jump\t// in\n    tag_48:\n        /* \"#utility.yul\":483:488   */\n      dup2\n        /* \"#utility.yul\":480:515   */\n      eq\n        /* \"#utility.yul\":470:533   */\n      tag_49\n      jumpi\n        /* \"#utility.yul\":529:530   */\n      0x00\n        /* \"#utility.yul\":526:527   */\n      dup1\n        /* \"#utility.yul\":519:531   */\n      revert\n        /* \"#utility.yul\":470:533   */\n    tag_49:\n        /* \"#utility.yul\":417:539   */\n      pop\n      jump\t// out\n        /* \"#utility.yul\":545:684   */\n    tag_39:\n        /* \"#utility.yul\":591:596   */\n      0x00\n        /* \"#utility.yul\":629:635   */\n      dup2\n        /* \"#utility.yul\":616:636   */\n      calldataload\n        /* \"#utility.yul\":607:636   */\n      swap1\n      pop\n        /* \"#utility.yul\":645:678   */\n      tag_51\n        /* \"#utility.yul\":672:677   */\n      dup2\n        /* \"#utility.yul\":645:678   */\n      tag_38\n      jump\t// in\n    tag_51:\n        /* \"#utility.yul\":545:684   */\n      swap3\n      swap2\n      pop\n      pop\n      jump\t// out\n        /* \"#utility.yul\":690:1019   */\n    tag_10:\n        /* \"#utility.yul\":749:755   */\n      0x00\n        /* \"#utility.yul\":798:800   */\n      0x20\n        /* \"#utility.yul\":786:795   */\n      dup3\n        /* \"#utility.yul\":777:784   */\n      dup5\n        /* \"#utility.yul\":773:796   */\n      sub\n        /* \"#utility.yul\":769:801   */\n      slt\n        /* \"#utility.yul\":766:885   */\n      iszero\n      tag_53\n      jumpi\n        /* \"#utility.yul\":804:883   */\n      tag_54\n      tag_35\n      jump\t// in\n    tag_54:\n        /* \"#utility.yul\":766:885   */\n    tag_53:\n        /* \"#utility.yul\":924:925   */\n      0x00\n        /* \"#utility.yul\":949:1002   */\n      tag_55\n        /* \"#utility.yul\":994:1001   */\n      dup5\n        /* \"#utility.yul\":985:991   */\n      dup3\n        /* \"#utility.yul\":974:983   */\n      dup6\n        /* \"#utility.yul\":970:992   */\n      add\n        /* \"#utility.yul\":949:1002   */\n      tag_39\n      jump\t// in\n    tag_55:\n        /* \"#utility.yul\":939:1002   */\n      swap2\n      pop\n        /* \"#utility.yul\":895:1012   */\n      pop\n        /* \"#utility.yul\":690:1019   */\n      swap3\n      swap2\n      pop\n      pop\n      jump\t// out\n        /* \"#utility.yul\":1025:1143   */\n    tag_40:\n        /* \"#utility.yul\":1112:1136   */\n      tag_57\n        /* \"#utility.yul\":1130:1135   */\n      dup2\n        /* \"#utility.yul\":1112:1136   */\n      tag_37\n      jump\t// in\n    tag_57:\n        /* \"#utility.yul\":1107:1110   */\n      dup3\n        /* \"#utility.yul\":1100:1137   */\n      mstore\n        /* \"#utility.yul\":1025:1143   */\n      pop\n      pop\n      jump\t// out\n        /* \"#utility.yul\":1149:1371   */\n    tag_15:\n        /* \"#utility.yul\":1242:1246   */\n      0x00\n        /* \"#utility.yul\":1280:1282   */\n      0x20\n        /* \"#utility.yul\":1269:1278   */\n      dup3\n        /* \"#utility.yul\":1265:1283   */\n      add\n        /* \"#utility.yul\":1257:1283   */\n      swap1\n      pop\n        /* \"#utility.yul\":1293:1364   */\n      tag_59\n        /* \"#utility.yul\":1361:1362   */\n      0x00\n        /* \"#utility.yul\":1350:1359   */\n      dup4\n        /* \"#utility.yul\":1346:1363   */\n      add\n        /* \"#utility.yul\":1337:1343   */\n      dup5\n        /* \"#utility.yul\":1293:1364   */\n      tag_40\n      jump\t// in\n    tag_59:\n        /* \"#utility.yul\":1149:1371   */\n      swap3\n      swap2\n      pop\n      pop\n      jump\t// out\n        /* \"#utility.yul\":1377:1557   */\n    tag_41:\n        /* \"#utility.yul\":1425:1502   */\n      0x4e487b7100000000000000000000000000000000000000000000000000000000\n        /* \"#utility.yul\":1422:1423   */\n      0x00\n        /* \"#utility.yul\":1415:1503   */\n      mstore\n        /* \"#utility.yul\":1522:1526   */\n      0x11\n        /* \"#utility.yul\":1519:1520   */\n      0x04\n        /* \"#utility.yul\":1512:1527   */\n      mstore\n        /* \"#utility.yul\":1546:1550   */\n      0x24\n        /* \"#utility.yul\":1543:1544   */\n      0x00\n        /* \"#utility.yul\":1536:1551   */\n      revert\n        /* \"#utility.yul\":1563:1973   */\n    tag_24:\n        /* \"#utility.yul\":1603:1610   */\n      0x00\n        /* \"#utility.yul\":1626:1646   */\n      tag_62\n        /* \"#utility.yul\":1644:1645   */\n      dup3\n        /* \"#utility.yul\":1626:1646   */\n      tag_37\n      jump\t// in\n    tag_62:\n        /* \"#utility.yul\":1621:1646   */\n      swap2\n      pop\n        /* \"#utility.yul\":1660:1680   */\n      tag_63\n        /* \"#utility.yul\":1678:1679   */\n      dup4\n        /* \"#utility.yul\":1660:1680   */\n      tag_37\n      jump\t// in\n    tag_63:\n        /* \"#utility.yul\":1655:1680   */\n      swap3\n      pop\n        /* \"#utility.yul\":1715:1716   */\n      dup3\n        /* \"#utility.yul\":1712:1713   */\n      dup3\n        /* \"#utility.yul\":1708:1717   */\n      mul\n        /* \"#utility.yul\":1737:1767   */\n      tag_64\n        /* \"#utility.yul\":1755:1766   */\n      dup2\n        /* \"#utility.yul\":1737:1767   */\n      tag_37\n      jump\t// in\n    tag_64:\n        /* \"#utility.yul\":1726:1767   */\n      swap2\n      pop\n        /* \"#utility.yul\":1916:1917   */\n      dup3\n        /* \"#utility.yul\":1907:1914   */\n      dup3\n        /* \"#utility.yul\":1903:1918   */\n      div\n        /* \"#utility.yul\":1900:1901   */\n      dup5\n        /* \"#utility.yul\":1897:1919   */\n      eq\n        /* \"#utility.yul\":1877:1878   */\n      dup4\n        /* \"#utility.yul\":1870:1879   */\n      iszero\n        /* \"#utility.yul\":1850:1933   */\n      or\n        /* \"#utility.yul\":1827:1966   */\n      tag_65\n      jumpi\n        /* \"#utility.yul\":1946:1964   */\n      tag_66\n      tag_41\n      jump\t// in\n    tag_66:\n        /* \"#utility.yul\":1827:1966   */\n    tag_65:\n        /* \"#utility.yul\":1611:1973   */\n      pop\n        /* \"#utility.yul\":1563:1973   */\n      swap3\n      swap2\n      pop\n      pop\n      jump\t// out\n        /* \"#utility.yul\":1979:2170   */\n    tag_26:\n        /* \"#utility.yul\":2019:2022   */\n      0x00\n        /* \"#utility.yul\":2038:2058   */\n      tag_68\n        /* \"#utility.yul\":2056:2057   */\n      dup3\n        /* \"#utility.yul\":2038:2058   */\n      tag_37\n      jump\t// in\n    tag_68:\n        /* \"#utility.yul\":2033:2058   */\n      swap2\n      pop\n        /* \"#utility.yul\":2072:2092   */\n      tag_69\n        /* \"#utility.yul\":2090:2091   */\n      dup4\n        /* \"#utility.yul\":2072:2092   */\n      tag_37\n      jump\t// in\n    tag_69:\n        /* \"#utility.yul\":2067:2092   */\n      swap3\n      pop\n        /* \"#utility.yul\":2115:2116   */\n      dup3\n        /* \"#utility.yul\":2112:2113   */\n      dup3\n        /* \"#utility.yul\":2108:2117   */\n      add\n        /* \"#utility.yul\":2101:2117   */\n      swap1\n      pop\n        /* \"#utility.yul\":2136:2139   */\n      dup1\n        /* \"#utility.yul\":2133:2134   */\n      dup3\n        /* \"#utility.yul\":2130:2140   */\n      gt\n        /* \"#utility.yul\":2127:2163   */\n      iszero\n      tag_70\n      jumpi\n        /* \"#utility.yul\":2143:2161   */\n      tag_71\n      tag_41\n      jump\t// in\n    tag_71:\n        /* \"#utility.yul\":2127:2163   */\n    tag_70:\n        /* \"#utility.yul\":1979:2170   */\n      swap3\n      swap2\n      pop\n      pop\n      jump\t// out\n        /* \"#utility.yul\":2176:2409   */\n    tag_31:\n        /* \"#utility.yul\":2215:2218   */\n      0x00\n        /* \"#utility.yul\":2238:2262   */\n      tag_73\n        /* \"#utility.yul\":2256:2261   */\n      dup3\n        /* \"#utility.yul\":2238:2262   */\n      tag_37\n      jump\t// in\n    tag_73:\n        /* \"#utility.yul\":2229:2262   */\n      swap2\n      pop\n        /* \"#utility.yul\":2284:2350   */\n      0xffffffffffffffffffffffffffffffffffffffffffffffffffffffffffffffff\n        /* \"#utility.yul\":2277:2282   */\n      dup3\n        /* \"#utility.yul\":2274:2351   */\n      sub\n        /* \"#utility.yul\":2271:2374   */\n      tag_74\n      jumpi\n        /* \"#utility.yul\":2354:2372   */\n      tag_75\n      tag_41\n      jump\t// in\n    tag_75:\n        /* \"#utility.yul\":2271:2374   */\n    tag_74:\n        /* \"#utility.yul\":2401:2402   */\n      0x01\n        /* \"#utility.yul\":2394:2399   */\n      dup3\n        /* \"#utility.yul\":2390:2403   */\n      add\n        /* \"#utility.yul\":2383:2403   */\n      swap1\n      pop\n        /* \"#utility.yul\":2176:2409   */\n      swap2\n      swap1\n      pop\n      jump\t// out\n\n    auxdata: 0xa2646970667358221220cd2932b9b7943b5505fe0073ed0a4b6996af6a0dc30a29bcc9de9b3a51d8b17864736f6c634300081a0033\n}\n",
				"bytecode": {
					"linkReferences": {},
					"object": "6080604052600a6001553480156013575f80fd5b506102d0806100215f395ff3fe608060405234801561000f575f80fd5b5060043610610055575f3560e01c80630912f232146100595780630dbe671f146100755780634d47524e146100935780636057d3ee1461009d578063e2fbc880146100a7575b5f80fd5b610073600480360381019061006e919061015f565b6100b1565b005b61007d6100d7565b60405161008a9190610199565b60405180910390f35b61009b6100dc565b005b6100a56100f6565b005b6100af61010e565b005b6002816100be91906101df565b5f808282546100cd9190610220565b9250508190555050565b5f5481565b60025f808282546100ed9190610220565b92505081905550565b5f8081548092919061010790610253565b9190505550565b60035f8082825461011f9190610220565b92505081905550565b5f80fd5b5f819050919050565b61013e8161012c565b8114610148575f80fd5b50565b5f8135905061015981610135565b92915050565b5f6020828403121561017457610173610128565b5b5f6101818482850161014b565b91505092915050565b6101938161012c565b82525050565b5f6020820190506101ac5f83018461018a565b92915050565b7f4e487b71000000000000000000000000000000000000000000000000000000005f52601160045260245ffd5b5f6101e98261012c565b91506101f48361012c565b92508282026102028161012c565b91508282048414831517610219576102186101b2565b5b5092915050565b5f61022a8261012c565b91506102358361012c565b925082820190508082111561024d5761024c6101b2565b5b92915050565b5f61025d8261012c565b91507fffffffffffffffffffffffffffffffffffffffffffffffffffffffffffffffff820361028f5761028e6101b2565b5b60018201905091905056fea2646970667358221220cd2932b9b7943b5505fe0073ed0a4b6996af6a0dc30a29bcc9de9b3a51d8b17864736f6c634300081a0033",
					"opcodes": "PUSH1 0x80 PUSH1 0x40 MSTORE PUSH1 0xA PUSH1 0x1 SSTORE CALLVALUE DUP1 ISZERO PUSH1 0x13 JUMPI PUSH0 DUP1 REVERT JUMPDEST POP PUSH2 0x2D0 DUP1 PUSH2 0x21 PUSH0 CODECOPY PUSH0 RETURN INVALID PUSH1 0x80 PUSH1 0x40 MSTORE CALLVALUE DUP1 ISZERO PUSH2 0xF JUMPI PUSH0 DUP1 REVERT JUMPDEST POP PUSH1 0x4 CALLDATASIZE LT PUSH2 0x55 JUMPI PUSH0 CALLDATALOAD PUSH1 0xE0 SHR DUP1 PUSH4 0x912F232 EQ PUSH2 0x59 JUMPI DUP1 PUSH4 0xDBE671F EQ PUSH2 0x75 JUMPI DUP1 PUSH4 0x4D47524E EQ PUSH2 0x93 JUMPI DUP1 PUSH4 0x6057D3EE EQ PUSH2 0x9D JUMPI DUP1 PUSH4 0xE2FBC880 EQ PUSH2 0xA7 JUMPI JUMPDEST PUSH0 DUP1 REVERT JUMPDEST PUSH2 0x73 PUSH1 0x4 DUP1 CALLDATASIZE SUB DUP2 ADD SWAP1 PUSH2 0x6E SWAP2 SWAP1 PUSH2 0x15F JUMP JUMPDEST PUSH2 0xB1 JUMP JUMPDEST STOP JUMPDEST PUSH2 0x7D PUSH2 0xD7 JUMP JUMPDEST PUSH1 0x40 MLOAD PUSH2 0x8A SWAP2 SWAP1 PUSH2 0x199 JUMP JUMPDEST PUSH1 0x40 MLOAD DUP1 SWAP2 SUB SWAP1 RETURN JUMPDEST PUSH2 0x9B PUSH2 0xDC JUMP JUMPDEST STOP JUMPDEST PUSH2 0xA5 PUSH2 0xF6 JUMP JUMPDEST STOP JUMPDEST PUSH2 0xAF PUSH2 0x10E JUMP JUMPDEST STOP JUMPDEST PUSH1 0x2 DUP2 PUSH2 0xBE SWAP2 SWAP1 PUSH2 0x1DF JUMP JUMPDEST PUSH0 DUP1 DUP3 DUP3 SLOAD PUSH2 0xCD SWAP2 SWAP1 PUSH2 0x220 JUMP JUMPDEST SWAP3 POP POP DUP2 SWAP1 SSTORE POP POP JUMP JUMPDEST PUSH0 SLOAD DUP2 JUMP JUMPDEST PUSH1 0x2 PUSH0 DUP1 DUP3 DUP3 SLOAD PUSH2 0xED SWAP2 SWAP1 PUSH2 0x220 JUMP JUMPDEST SWAP3 POP POP DUP2 SWAP1 SSTORE POP JUMP JUMPDEST PUSH0 DUP1 DUP2 SLOAD DUP1 SWAP3 SWAP2 SWAP1 PUSH2 0x107 SWAP1 PUSH2 0x253 JUMP JUMPDEST SWAP2 SWAP1 POP SSTORE POP JUMP JUMPDEST PUSH1 0x3 PUSH0 DUP1 DUP3 DUP3 SLOAD PUSH2 0x11F SWAP2 SWAP1 PUSH2 0x220 JUMP JUMPDEST SWAP3 POP POP DUP2 SWAP1 SSTORE POP JUMP JUMPDEST PUSH0 DUP1 REVERT JUMPDEST PUSH0 DUP2 SWAP1 POP SWAP2 SWAP1 POP JUMP JUMPDEST PUSH2 0x13E DUP2 PUSH2 0x12C JUMP JUMPDEST DUP2 EQ PUSH2 0x148 JUMPI PUSH0 DUP1 REVERT JUMPDEST POP JUMP JUMPDEST PUSH0 DUP2 CALLDATALOAD SWAP1 POP PUSH2 0x159 DUP2 PUSH2 0x135 JUMP JUMPDEST SWAP3 SWAP2 POP POP JUMP JUMPDEST PUSH0 PUSH1 0x20 DUP3 DUP5 SUB SLT ISZERO PUSH2 0x174 JUMPI PUSH2 0x173 PUSH2 0x128 JUMP JUMPDEST JUMPDEST PUSH0 PUSH2 0x181 DUP5 DUP3 DUP6 ADD PUSH2 0x14B JUMP JUMPDEST SWAP2 POP POP SWAP3 SWAP2 POP POP JUMP JUMPDEST PUSH2 0x193 DUP2 PUSH2 0x12C JUMP JUMPDEST DUP3 MSTORE POP POP JUMP JUMPDEST PUSH0 PUSH1 0x20 DUP3 ADD SWAP1 POP PUSH2 0x1AC PUSH0 DUP4 ADD DUP5 PUSH2 0x18A JUMP JUMPDEST SWAP3 SWAP2 POP POP JUMP JUMPDEST PUSH32 0x4E487B7100000000000000000000000000000000000000000000000000000000 PUSH0 MSTORE PUSH1 0x11 PUSH1 0x4 MSTORE PUSH1 0x24 PUSH0 REVERT JUMPDEST PUSH0 PUSH2 0x1E9 DUP3 PUSH2 0x12C JUMP JUMPDEST SWAP2 POP PUSH2 0x1F4 DUP4 PUSH2 0x12C JUMP JUMPDEST SWAP3 POP DUP3 DUP3 MUL PUSH2 0x202 DUP2 PUSH2 0x12C JUMP JUMPDEST SWAP2 POP DUP3 DUP3 DIV DUP5 EQ DUP4 ISZERO OR PUSH2 0x219 JUMPI PUSH2 0x218 PUSH2 0x1B2 JUMP JUMPDEST JUMPDEST POP SWAP3 SWAP2 POP POP JUMP JUMPDEST PUSH0 PUSH2 0x22A DUP3 PUSH2 0x12C JUMP JUMPDEST SWAP2 POP PUSH2 0x235 DUP4 PUSH2 0x12C JUMP JUMPDEST SWAP3 POP DUP3 DUP3 ADD SWAP1 POP DUP1 DUP3 GT ISZERO PUSH2 0x24D JUMPI PUSH2 0x24C PUSH2 0x1B2 JUMP JUMPDEST JUMPDEST SWAP3 SWAP2 POP POP JUMP JUMPDEST PUSH0 PUSH2 0x25D DUP3 PUSH2 0x12C JUMP JUMPDEST SWAP2 POP PUSH32 0xFFFFFFFFFFFFFFFFFFFFFFFFFFFFFFFFFFFFFFFFFFFFFFFFFFFFFFFFFFFFFFFF DUP3 SUB PUSH2 0x28F JUMPI PUSH2 0x28E PUSH2 0x1B2 JUMP JUMPDEST JUMPDEST PUSH1 0x1 DUP3 ADD SWAP1 POP SWAP2 SWAP1 POP JUMP INVALID LOG2 PUSH5 0x6970667358 0x22 SLT KECCAK256 0xCD 0x29 ORIGIN 0xB9 0xB7 SWAP5 EXTCODESIZE SSTORE SDIV INVALID STOP PUSH20 0xED0A4B6996AF6A0DC30A29BCC9DE9B3A51D8B178 PUSH5 0x736F6C6343 STOP ADDMOD BYTE STOP CALLER "
				},
				"gasEstimates": {
					"creation": {
						"codeDepositCost": "144000",
						"executionCost": "22294",
						"totalCost": "166294"
					},
					"external": {
						"a()": "2424",
						"addAmount(uint256)": "infinite",
						"addOne()": "24541",
						"addThree()": "infinite",
						"addTwo()": "infinite"
					}
				},
				"methodIdentifiers": {
					"a()": "0dbe671f",
					"addAmount(uint256)": "0912f232",
					"addOne()": "6057d3ee",
					"addThree()": "e2fbc880",
					"addTwo()": "4d47524e"
				}
			},
			"storageLayout": {
				"storage": [
					{
						"astId": 3,
						"contract": "lesson3/testExtends.sol:Child",
						"label": "a",
						"offset": 0,
						"slot": "0",
						"type": "t_uint256"
					},
					{
						"astId": 6,
						"contract": "lesson3/testExtends.sol:Child",
						"label": "b",
						"offset": 0,
						"slot": "1",
						"type": "t_uint256"
					}
				],
				"types": {
					"t_uint256": {
						"encoding": "inplace",
						"label": "uint256",
						"numberOfBytes": "32"
					}
				}
			},
			"userdoc": {
				"kind": "user",
				"methods": {},
				"version": 1
			}
		}
	}
}