{
	"lesson3/FundTokenERC20_flattened.sol": {
		"FundTokenERC20": {
			"abi": [
				{
					"inputs": [
						{
							"internalType": "address",
							"name": "fundMeAddr",
							"type": "address"
						}
					],
					"stateMutability": "nonpayable",
					"type": "constructor"
				},
				{
					"inputs": [
						{
							"internalType": "address",
							"name": "spender",
							"type": "address"
						},
						{
							"internalType": "uint256",
							"name": "allowance",
							"type": "uint256"
						},
						{
							"internalType": "uint256",
							"name": "needed",
							"type": "uint256"
						}
					],
					"name": "ERC20InsufficientAllowance",
					"type": "error"
				},
				{
					"inputs": [
						{
							"internalType": "address",
							"name": "sender",
							"type": "address"
						},
						{
							"internalType": "uint256",
							"name": "balance",
							"type": "uint256"
						},
						{
							"internalType": "uint256",
							"name": "needed",
							"type": "uint256"
						}
					],
					"name": "ERC20InsufficientBalance",
					"type": "error"
				},
				{
					"inputs": [
						{
							"internalType": "address",
							"name": "approver",
							"type": "address"
						}
					],
					"name": "ERC20InvalidApprover",
					"type": "error"
				},
				{
					"inputs": [
						{
							"internalType": "address",
							"name": "receiver",
							"type": "address"
						}
					],
					"name": "ERC20InvalidReceiver",
					"type": "error"
				},
				{
					"inputs": [
						{
							"internalType": "address",
							"name": "sender",
							"type": "address"
						}
					],
					"name": "ERC20InvalidSender",
					"type": "error"
				},
				{
					"inputs": [
						{
							"internalType": "address",
							"name": "spender",
							"type": "address"
						}
					],
					"name": "ERC20InvalidSpender",
					"type": "error"
				},
				{
					"anonymous": false,
					"inputs": [
						{
							"indexed": true,
							"internalType": "address",
							"name": "owner",
							"type": "address"
						},
						{
							"indexed": true,
							"internalType": "address",
							"name": "spender",
							"type": "address"
						},
						{
							"indexed": false,
							"internalType": "uint256",
							"name": "value",
							"type": "uint256"
						}
					],
					"name": "Approval",
					"type": "event"
				},
				{
					"anonymous": false,
					"inputs": [
						{
							"indexed": true,
							"internalType": "address",
							"name": "from",
							"type": "address"
						},
						{
							"indexed": true,
							"internalType": "address",
							"name": "to",
							"type": "address"
						},
						{
							"indexed": false,
							"internalType": "uint256",
							"name": "value",
							"type": "uint256"
						}
					],
					"name": "Transfer",
					"type": "event"
				},
				{
					"inputs": [
						{
							"internalType": "address",
							"name": "owner",
							"type": "address"
						},
						{
							"internalType": "address",
							"name": "spender",
							"type": "address"
						}
					],
					"name": "allowance",
					"outputs": [
						{
							"internalType": "uint256",
							"name": "",
							"type": "uint256"
						}
					],
					"stateMutability": "view",
					"type": "function"
				},
				{
					"inputs": [
						{
							"internalType": "address",
							"name": "spender",
							"type": "address"
						},
						{
							"internalType": "uint256",
							"name": "value",
							"type": "uint256"
						}
					],
					"name": "approve",
					"outputs": [
						{
							"internalType": "bool",
							"name": "",
							"type": "bool"
						}
					],
					"stateMutability": "nonpayable",
					"type": "function"
				},
				{
					"inputs": [
						{
							"internalType": "address",
							"name": "account",
							"type": "address"
						}
					],
					"name": "balanceOf",
					"outputs": [
						{
							"internalType": "uint256",
							"name": "",
							"type": "uint256"
						}
					],
					"stateMutability": "view",
					"type": "function"
				},
				{
					"inputs": [
						{
							"internalType": "uint256",
							"name": "amountToClaim",
							"type": "uint256"
						}
					],
					"name": "claim",
					"outputs": [],
					"stateMutability": "nonpayable",
					"type": "function"
				},
				{
					"inputs": [],
					"name": "decimals",
					"outputs": [
						{
							"internalType": "uint8",
							"name": "",
							"type": "uint8"
						}
					],
					"stateMutability": "view",
					"type": "function"
				},
				{
					"inputs": [
						{
							"internalType": "uint256",
							"name": "amountToMint",
							"type": "uint256"
						}
					],
					"name": "mint",
					"outputs": [],
					"stateMutability": "nonpayable",
					"type": "function"
				},
				{
					"inputs": [],
					"name": "name",
					"outputs": [
						{
							"internalType": "string",
							"name": "",
							"type": "string"
						}
					],
					"stateMutability": "view",
					"type": "function"
				},
				{
					"inputs": [],
					"name": "symbol",
					"outputs": [
						{
							"internalType": "string",
							"name": "",
							"type": "string"
						}
					],
					"stateMutability": "view",
					"type": "function"
				},
				{
					"inputs": [],
					"name": "totalSupply",
					"outputs": [
						{
							"internalType": "uint256",
							"name": "",
							"type": "uint256"
						}
					],
					"stateMutability": "view",
					"type": "function"
				},
				{
					"inputs": [
						{
							"internalType": "address",
							"name": "to",
							"type": "address"
						},
						{
							"internalType": "uint256",
							"name": "value",
							"type": "uint256"
						}
					],
					"name": "transfer",
					"outputs": [
						{
							"internalType": "bool",
							"name": "",
							"type": "bool"
						}
					],
					"stateMutability": "nonpayable",
					"type": "function"
				},
				{
					"inputs": [
						{
							"internalType": "address",
							"name": "from",
							"type": "address"
						},
						{
							"internalType": "address",
							"name": "to",
							"type": "address"
						},
						{
							"internalType": "uint256",
							"name": "value",
							"type": "uint256"
						}
					],
					"name": "transferFrom",
					"outputs": [
						{
							"internalType": "bool",
							"name": "",
							"type": "bool"
						}
					],
					"stateMutability": "nonpayable",
					"type": "function"
				}
			],
			"devdoc": {
				"errors": {
					"ERC20InsufficientAllowance(address,uint256,uint256)": [
						{
							"details": "Indicates a failure with the `spender`’s `allowance`. Used in transfers.",
							"params": {
								"allowance": "Amount of tokens a `spender` is allowed to operate with.",
								"needed": "Minimum amount required to perform a transfer.",
								"spender": "Address that may be allowed to operate on tokens without being their owner."
							}
						}
					],
					"ERC20InsufficientBalance(address,uint256,uint256)": [
						{
							"details": "Indicates an error related to the current `balance` of a `sender`. Used in transfers.",
							"params": {
								"balance": "Current balance for the interacting account.",
								"needed": "Minimum amount required to perform a transfer.",
								"sender": "Address whose tokens are being transferred."
							}
						}
					],
					"ERC20InvalidApprover(address)": [
						{
							"details": "Indicates a failure with the `approver` of a token to be approved. Used in approvals.",
							"params": {
								"approver": "Address initiating an approval operation."
							}
						}
					],
					"ERC20InvalidReceiver(address)": [
						{
							"details": "Indicates a failure with the token `receiver`. Used in transfers.",
							"params": {
								"receiver": "Address to which tokens are being transferred."
							}
						}
					],
					"ERC20InvalidSender(address)": [
						{
							"details": "Indicates a failure with the token `sender`. Used in transfers.",
							"params": {
								"sender": "Address whose tokens are being transferred."
							}
						}
					],
					"ERC20InvalidSpender(address)": [
						{
							"details": "Indicates a failure with the `spender` to be approved. Used in approvals.",
							"params": {
								"spender": "Address that may be allowed to operate on tokens without being their owner."
							}
						}
					]
				},
				"events": {
					"Approval(address,address,uint256)": {
						"details": "Emitted when the allowance of a `spender` for an `owner` is set by a call to {approve}. `value` is the new allowance."
					},
					"Transfer(address,address,uint256)": {
						"details": "Emitted when `value` tokens are moved from one account (`from`) to another (`to`). Note that `value` may be zero."
					}
				},
				"kind": "dev",
				"methods": {
					"allowance(address,address)": {
						"details": "Returns the remaining number of tokens that `spender` will be allowed to spend on behalf of `owner` through {transferFrom}. This is zero by default. This value changes when {approve} or {transferFrom} are called."
					},
					"approve(address,uint256)": {
						"details": "See {IERC20-approve}. NOTE: If `value` is the maximum `uint256`, the allowance is not updated on `transferFrom`. This is semantically equivalent to an infinite approval. Requirements: - `spender` cannot be the zero address."
					},
					"balanceOf(address)": {
						"details": "Returns the value of tokens owned by `account`."
					},
					"decimals()": {
						"details": "Returns the number of decimals used to get its user representation. For example, if `decimals` equals `2`, a balance of `505` tokens should be displayed to a user as `5.05` (`505 / 10 ** 2`). Tokens usually opt for a value of 18, imitating the relationship between Ether and Wei. This is the default value returned by this function, unless it's overridden. NOTE: This information is only used for _display_ purposes: it in no way affects any of the arithmetic of the contract, including {IERC20-balanceOf} and {IERC20-transfer}."
					},
					"name()": {
						"details": "Returns the name of the token."
					},
					"symbol()": {
						"details": "Returns the symbol of the token, usually a shorter version of the name."
					},
					"totalSupply()": {
						"details": "Returns the value of tokens in existence."
					},
					"transfer(address,uint256)": {
						"details": "See {IERC20-transfer}. Requirements: - `to` cannot be the zero address. - the caller must have a balance of at least `value`."
					},
					"transferFrom(address,address,uint256)": {
						"details": "See {IERC20-transferFrom}. Skips emitting an {Approval} event indicating an allowance update. This is not required by the ERC. See {xref-ERC20-_approve-address-address-uint256-bool-}[_approve]. NOTE: Does not update the allowance if the current allowance is the maximum `uint256`. Requirements: - `from` and `to` cannot be the zero address. - `from` must have a balance of at least `value`. - the caller must have allowance for ``from``'s tokens of at least `value`."
					}
				},
				"version": 1
			},
			"evm": {
				"assembly": "    /* \"lesson3/FundTokenERC20_flattened.sol\":26951:27978  contract FundTokenERC20 is ERC20 {... */\n  mstore(0x40, 0x80)\n    /* \"lesson3/FundTokenERC20_flattened.sol\":27009:27115  constructor(address fundMeAddr) ERC20(\"FundTokenERC20\", \"FT\") {... */\n  callvalue\n  dup1\n  iszero\n  tag_1\n  jumpi\n  0x00\n  dup1\n  revert\ntag_1:\n  pop\n  mload(0x40)\n  sub(codesize, bytecodeSize)\n  dup1\n  bytecodeSize\n  dup4\n  codecopy\n  dup2\n  dup2\n  add\n  0x40\n  mstore\n  dup2\n  add\n  swap1\n  tag_2\n  swap2\n  swap1\n  tag_3\n  jump\t// in\ntag_2:\n    /* \"lesson3/FundTokenERC20_flattened.sol\":12484:12597  constructor(string memory name_, string memory symbol_) {... */\n  mload(0x40)\n  dup1\n  0x40\n  add\n  0x40\n  mstore\n  dup1\n  0x0e\n  dup2\n  mstore\n  0x20\n  add\n  0x46756e64546f6b656e4552433230000000000000000000000000000000000000\n  dup2\n  mstore\n  pop\n  mload(0x40)\n  dup1\n  0x40\n  add\n  0x40\n  mstore\n  dup1\n  0x02\n  dup2\n  mstore\n  0x20\n  add\n  0x4654000000000000000000000000000000000000000000000000000000000000\n  dup2\n  mstore\n  pop\n    /* \"lesson3/FundTokenERC20_flattened.sol\":12558:12563  name_ */\n  dup2\n    /* \"lesson3/FundTokenERC20_flattened.sol\":12550:12555  _name */\n  0x03\n    /* \"lesson3/FundTokenERC20_flattened.sol\":12550:12563  _name = name_ */\n  swap1\n  dup2\n  tag_7\n  swap2\n  swap1\n  tag_8\n  jump\t// in\ntag_7:\n  pop\n    /* \"lesson3/FundTokenERC20_flattened.sol\":12583:12590  symbol_ */\n  dup1\n    /* \"lesson3/FundTokenERC20_flattened.sol\":12573:12580  _symbol */\n  0x04\n    /* \"lesson3/FundTokenERC20_flattened.sol\":12573:12590  _symbol = symbol_ */\n  swap1\n  dup2\n  tag_9\n  swap2\n  swap1\n  tag_8\n  jump\t// in\ntag_9:\n  pop\n    /* \"lesson3/FundTokenERC20_flattened.sol\":12484:12597  constructor(string memory name_, string memory symbol_) {... */\n  pop\n  pop\n    /* \"lesson3/FundTokenERC20_flattened.sol\":27097:27107  fundMeAddr */\n  dup1\n    /* \"lesson3/FundTokenERC20_flattened.sol\":27081:27087  fundMe */\n  0x05\n  0x00\n    /* \"lesson3/FundTokenERC20_flattened.sol\":27081:27108  fundMe = FundMe(fundMeAddr) */\n  0x0100\n  exp\n  dup2\n  sload\n  dup2\n  0xffffffffffffffffffffffffffffffffffffffff\n  mul\n  not\n  and\n  swap1\n  dup4\n  0xffffffffffffffffffffffffffffffffffffffff\n  and\n  mul\n  or\n  swap1\n  sstore\n  pop\n    /* \"lesson3/FundTokenERC20_flattened.sol\":27009:27115  constructor(address fundMeAddr) ERC20(\"FundTokenERC20\", \"FT\") {... */\n  pop\n    /* \"lesson3/FundTokenERC20_flattened.sol\":26951:27978  contract FundTokenERC20 is ERC20 {... */\n  jump(tag_11)\n    /* \"#utility.yul\":88:205   */\ntag_13:\n    /* \"#utility.yul\":197:198   */\n  0x00\n    /* \"#utility.yul\":194:195   */\n  dup1\n    /* \"#utility.yul\":187:199   */\n  revert\n    /* \"#utility.yul\":334:460   */\ntag_15:\n    /* \"#utility.yul\":371:378   */\n  0x00\n    /* \"#utility.yul\":411:453   */\n  0xffffffffffffffffffffffffffffffffffffffff\n    /* \"#utility.yul\":404:409   */\n  dup3\n    /* \"#utility.yul\":400:454   */\n  and\n    /* \"#utility.yul\":389:454   */\n  swap1\n  pop\n    /* \"#utility.yul\":334:460   */\n  swap2\n  swap1\n  pop\n  jump\t// out\n    /* \"#utility.yul\":466:562   */\ntag_16:\n    /* \"#utility.yul\":503:510   */\n  0x00\n    /* \"#utility.yul\":532:556   */\n  tag_45\n    /* \"#utility.yul\":550:555   */\n  dup3\n    /* \"#utility.yul\":532:556   */\n  tag_15\n  jump\t// in\ntag_45:\n    /* \"#utility.yul\":521:556   */\n  swap1\n  pop\n    /* \"#utility.yul\":466:562   */\n  swap2\n  swap1\n  pop\n  jump\t// out\n    /* \"#utility.yul\":568:690   */\ntag_17:\n    /* \"#utility.yul\":641:665   */\n  tag_47\n    /* \"#utility.yul\":659:664   */\n  dup2\n    /* \"#utility.yul\":641:665   */\n  tag_16\n  jump\t// in\ntag_47:\n    /* \"#utility.yul\":634:639   */\n  dup2\n    /* \"#utility.yul\":631:666   */\n  eq\n    /* \"#utility.yul\":621:684   */\n  tag_48\n  jumpi\n    /* \"#utility.yul\":680:681   */\n  0x00\n    /* \"#utility.yul\":677:678   */\n  dup1\n    /* \"#utility.yul\":670:682   */\n  revert\n    /* \"#utility.yul\":621:684   */\ntag_48:\n    /* \"#utility.yul\":568:690   */\n  pop\n  jump\t// out\n    /* \"#utility.yul\":696:839   */\ntag_18:\n    /* \"#utility.yul\":753:758   */\n  0x00\n    /* \"#utility.yul\":784:790   */\n  dup2\n    /* \"#utility.yul\":778:791   */\n  mload\n    /* \"#utility.yul\":769:791   */\n  swap1\n  pop\n    /* \"#utility.yul\":800:833   */\n  tag_50\n    /* \"#utility.yul\":827:832   */\n  dup2\n    /* \"#utility.yul\":800:833   */\n  tag_17\n  jump\t// in\ntag_50:\n    /* \"#utility.yul\":696:839   */\n  swap3\n  swap2\n  pop\n  pop\n  jump\t// out\n    /* \"#utility.yul\":845:1196   */\ntag_3:\n    /* \"#utility.yul\":915:921   */\n  0x00\n    /* \"#utility.yul\":964:966   */\n  0x20\n    /* \"#utility.yul\":952:961   */\n  dup3\n    /* \"#utility.yul\":943:950   */\n  dup5\n    /* \"#utility.yul\":939:962   */\n  sub\n    /* \"#utility.yul\":935:967   */\n  slt\n    /* \"#utility.yul\":932:1051   */\n  iszero\n  tag_52\n  jumpi\n    /* \"#utility.yul\":970:1049   */\n  tag_53\n  tag_13\n  jump\t// in\ntag_53:\n    /* \"#utility.yul\":932:1051   */\ntag_52:\n    /* \"#utility.yul\":1090:1091   */\n  0x00\n    /* \"#utility.yul\":1115:1179   */\n  tag_54\n    /* \"#utility.yul\":1171:1178   */\n  dup5\n    /* \"#utility.yul\":1162:1168   */\n  dup3\n    /* \"#utility.yul\":1151:1160   */\n  dup6\n    /* \"#utility.yul\":1147:1169   */\n  add\n    /* \"#utility.yul\":1115:1179   */\n  tag_18\n  jump\t// in\ntag_54:\n    /* \"#utility.yul\":1105:1179   */\n  swap2\n  pop\n    /* \"#utility.yul\":1061:1189   */\n  pop\n    /* \"#utility.yul\":845:1196   */\n  swap3\n  swap2\n  pop\n  pop\n  jump\t// out\n    /* \"#utility.yul\":1202:1301   */\ntag_19:\n    /* \"#utility.yul\":1254:1260   */\n  0x00\n    /* \"#utility.yul\":1288:1293   */\n  dup2\n    /* \"#utility.yul\":1282:1294   */\n  mload\n    /* \"#utility.yul\":1272:1294   */\n  swap1\n  pop\n    /* \"#utility.yul\":1202:1301   */\n  swap2\n  swap1\n  pop\n  jump\t// out\n    /* \"#utility.yul\":1307:1487   */\ntag_20:\n    /* \"#utility.yul\":1355:1432   */\n  0x4e487b7100000000000000000000000000000000000000000000000000000000\n    /* \"#utility.yul\":1352:1353   */\n  0x00\n    /* \"#utility.yul\":1345:1433   */\n  mstore\n    /* \"#utility.yul\":1452:1456   */\n  0x41\n    /* \"#utility.yul\":1449:1450   */\n  0x04\n    /* \"#utility.yul\":1442:1457   */\n  mstore\n    /* \"#utility.yul\":1476:1480   */\n  0x24\n    /* \"#utility.yul\":1473:1474   */\n  0x00\n    /* \"#utility.yul\":1466:1481   */\n  revert\n    /* \"#utility.yul\":1493:1673   */\ntag_21:\n    /* \"#utility.yul\":1541:1618   */\n  0x4e487b7100000000000000000000000000000000000000000000000000000000\n    /* \"#utility.yul\":1538:1539   */\n  0x00\n    /* \"#utility.yul\":1531:1619   */\n  mstore\n    /* \"#utility.yul\":1638:1642   */\n  0x22\n    /* \"#utility.yul\":1635:1636   */\n  0x04\n    /* \"#utility.yul\":1628:1643   */\n  mstore\n    /* \"#utility.yul\":1662:1666   */\n  0x24\n    /* \"#utility.yul\":1659:1660   */\n  0x00\n    /* \"#utility.yul\":1652:1667   */\n  revert\n    /* \"#utility.yul\":1679:1999   */\ntag_22:\n    /* \"#utility.yul\":1723:1729   */\n  0x00\n    /* \"#utility.yul\":1760:1761   */\n  0x02\n    /* \"#utility.yul\":1754:1758   */\n  dup3\n    /* \"#utility.yul\":1750:1762   */\n  div\n    /* \"#utility.yul\":1740:1762   */\n  swap1\n  pop\n    /* \"#utility.yul\":1807:1808   */\n  0x01\n    /* \"#utility.yul\":1801:1805   */\n  dup3\n    /* \"#utility.yul\":1797:1809   */\n  and\n    /* \"#utility.yul\":1828:1846   */\n  dup1\n    /* \"#utility.yul\":1818:1899   */\n  tag_59\n  jumpi\n    /* \"#utility.yul\":1884:1888   */\n  0x7f\n    /* \"#utility.yul\":1876:1882   */\n  dup3\n    /* \"#utility.yul\":1872:1889   */\n  and\n    /* \"#utility.yul\":1862:1889   */\n  swap2\n  pop\n    /* \"#utility.yul\":1818:1899   */\ntag_59:\n    /* \"#utility.yul\":1946:1948   */\n  0x20\n    /* \"#utility.yul\":1938:1944   */\n  dup3\n    /* \"#utility.yul\":1935:1949   */\n  lt\n    /* \"#utility.yul\":1915:1933   */\n  dup2\n    /* \"#utility.yul\":1912:1950   */\n  sub\n    /* \"#utility.yul\":1909:1993   */\n  tag_60\n  jumpi\n    /* \"#utility.yul\":1965:1983   */\n  tag_61\n  tag_21\n  jump\t// in\ntag_61:\n    /* \"#utility.yul\":1909:1993   */\ntag_60:\n    /* \"#utility.yul\":1730:1999   */\n  pop\n    /* \"#utility.yul\":1679:1999   */\n  swap2\n  swap1\n  pop\n  jump\t// out\n    /* \"#utility.yul\":2005:2146   */\ntag_23:\n    /* \"#utility.yul\":2054:2058   */\n  0x00\n    /* \"#utility.yul\":2077:2080   */\n  dup2\n    /* \"#utility.yul\":2069:2080   */\n  swap1\n  pop\n    /* \"#utility.yul\":2100:2103   */\n  dup2\n    /* \"#utility.yul\":2097:2098   */\n  0x00\n    /* \"#utility.yul\":2090:2104   */\n  mstore\n    /* \"#utility.yul\":2134:2138   */\n  0x20\n    /* \"#utility.yul\":2131:2132   */\n  0x00\n    /* \"#utility.yul\":2121:2139   */\n  keccak256\n    /* \"#utility.yul\":2113:2139   */\n  swap1\n  pop\n    /* \"#utility.yul\":2005:2146   */\n  swap2\n  swap1\n  pop\n  jump\t// out\n    /* \"#utility.yul\":2152:2245   */\ntag_24:\n    /* \"#utility.yul\":2189:2195   */\n  0x00\n    /* \"#utility.yul\":2236:2238   */\n  0x20\n    /* \"#utility.yul\":2231:2233   */\n  0x1f\n    /* \"#utility.yul\":2224:2229   */\n  dup4\n    /* \"#utility.yul\":2220:2234   */\n  add\n    /* \"#utility.yul\":2216:2239   */\n  div\n    /* \"#utility.yul\":2206:2239   */\n  swap1\n  pop\n    /* \"#utility.yul\":2152:2245   */\n  swap2\n  swap1\n  pop\n  jump\t// out\n    /* \"#utility.yul\":2251:2358   */\ntag_25:\n    /* \"#utility.yul\":2295:2303   */\n  0x00\n    /* \"#utility.yul\":2345:2350   */\n  dup3\n    /* \"#utility.yul\":2339:2343   */\n  dup3\n    /* \"#utility.yul\":2335:2351   */\n  shl\n    /* \"#utility.yul\":2314:2351   */\n  swap1\n  pop\n    /* \"#utility.yul\":2251:2358   */\n  swap3\n  swap2\n  pop\n  pop\n  jump\t// out\n    /* \"#utility.yul\":2364:2757   */\ntag_26:\n    /* \"#utility.yul\":2433:2439   */\n  0x00\n    /* \"#utility.yul\":2483:2484   */\n  0x08\n    /* \"#utility.yul\":2471:2481   */\n  dup4\n    /* \"#utility.yul\":2467:2485   */\n  mul\n    /* \"#utility.yul\":2506:2603   */\n  tag_66\n    /* \"#utility.yul\":2536:2602   */\n  0xffffffffffffffffffffffffffffffffffffffffffffffffffffffffffffffff\n    /* \"#utility.yul\":2525:2534   */\n  dup3\n    /* \"#utility.yul\":2506:2603   */\n  tag_25\n  jump\t// in\ntag_66:\n    /* \"#utility.yul\":2624:2663   */\n  tag_67\n    /* \"#utility.yul\":2654:2662   */\n  dup7\n    /* \"#utility.yul\":2643:2652   */\n  dup4\n    /* \"#utility.yul\":2624:2663   */\n  tag_25\n  jump\t// in\ntag_67:\n    /* \"#utility.yul\":2612:2663   */\n  swap6\n  pop\n    /* \"#utility.yul\":2696:2700   */\n  dup1\n    /* \"#utility.yul\":2692:2701   */\n  not\n    /* \"#utility.yul\":2685:2690   */\n  dup5\n    /* \"#utility.yul\":2681:2702   */\n  and\n    /* \"#utility.yul\":2672:2702   */\n  swap4\n  pop\n    /* \"#utility.yul\":2745:2749   */\n  dup1\n    /* \"#utility.yul\":2735:2743   */\n  dup7\n    /* \"#utility.yul\":2731:2750   */\n  and\n    /* \"#utility.yul\":2724:2729   */\n  dup5\n    /* \"#utility.yul\":2721:2751   */\n  or\n    /* \"#utility.yul\":2711:2751   */\n  swap3\n  pop\n    /* \"#utility.yul\":2440:2757   */\n  pop\n  pop\n    /* \"#utility.yul\":2364:2757   */\n  swap4\n  swap3\n  pop\n  pop\n  pop\n  jump\t// out\n    /* \"#utility.yul\":2763:2840   */\ntag_27:\n    /* \"#utility.yul\":2800:2807   */\n  0x00\n    /* \"#utility.yul\":2829:2834   */\n  dup2\n    /* \"#utility.yul\":2818:2834   */\n  swap1\n  pop\n    /* \"#utility.yul\":2763:2840   */\n  swap2\n  swap1\n  pop\n  jump\t// out\n    /* \"#utility.yul\":2846:2906   */\ntag_28:\n    /* \"#utility.yul\":2874:2877   */\n  0x00\n    /* \"#utility.yul\":2895:2900   */\n  dup2\n    /* \"#utility.yul\":2888:2900   */\n  swap1\n  pop\n    /* \"#utility.yul\":2846:2906   */\n  swap2\n  swap1\n  pop\n  jump\t// out\n    /* \"#utility.yul\":2912:3054   */\ntag_29:\n    /* \"#utility.yul\":2962:2971   */\n  0x00\n    /* \"#utility.yul\":2995:3048   */\n  tag_71\n    /* \"#utility.yul\":3013:3047   */\n  tag_72\n    /* \"#utility.yul\":3022:3046   */\n  tag_73\n    /* \"#utility.yul\":3040:3045   */\n  dup5\n    /* \"#utility.yul\":3022:3046   */\n  tag_27\n  jump\t// in\ntag_73:\n    /* \"#utility.yul\":3013:3047   */\n  tag_28\n  jump\t// in\ntag_72:\n    /* \"#utility.yul\":2995:3048   */\n  tag_27\n  jump\t// in\ntag_71:\n    /* \"#utility.yul\":2982:3048   */\n  swap1\n  pop\n    /* \"#utility.yul\":2912:3054   */\n  swap2\n  swap1\n  pop\n  jump\t// out\n    /* \"#utility.yul\":3060:3135   */\ntag_30:\n    /* \"#utility.yul\":3103:3106   */\n  0x00\n    /* \"#utility.yul\":3124:3129   */\n  dup2\n    /* \"#utility.yul\":3117:3129   */\n  swap1\n  pop\n    /* \"#utility.yul\":3060:3135   */\n  swap2\n  swap1\n  pop\n  jump\t// out\n    /* \"#utility.yul\":3141:3410   */\ntag_31:\n    /* \"#utility.yul\":3251:3290   */\n  tag_76\n    /* \"#utility.yul\":3282:3289   */\n  dup4\n    /* \"#utility.yul\":3251:3290   */\n  tag_29\n  jump\t// in\ntag_76:\n    /* \"#utility.yul\":3312:3403   */\n  tag_77\n    /* \"#utility.yul\":3361:3402   */\n  tag_78\n    /* \"#utility.yul\":3385:3401   */\n  dup3\n    /* \"#utility.yul\":3361:3402   */\n  tag_30\n  jump\t// in\ntag_78:\n    /* \"#utility.yul\":3353:3359   */\n  dup5\n    /* \"#utility.yul\":3346:3350   */\n  dup5\n    /* \"#utility.yul\":3340:3351   */\n  sload\n    /* \"#utility.yul\":3312:3403   */\n  tag_26\n  jump\t// in\ntag_77:\n    /* \"#utility.yul\":3306:3310   */\n  dup3\n    /* \"#utility.yul\":3299:3404   */\n  sstore\n    /* \"#utility.yul\":3217:3410   */\n  pop\n    /* \"#utility.yul\":3141:3410   */\n  pop\n  pop\n  pop\n  jump\t// out\n    /* \"#utility.yul\":3416:3489   */\ntag_32:\n    /* \"#utility.yul\":3461:3464   */\n  0x00\n    /* \"#utility.yul\":3416:3489   */\n  swap1\n  jump\t// out\n    /* \"#utility.yul\":3495:3684   */\ntag_33:\n    /* \"#utility.yul\":3572:3604   */\n  tag_81\n  tag_32\n  jump\t// in\ntag_81:\n    /* \"#utility.yul\":3613:3678   */\n  tag_82\n    /* \"#utility.yul\":3671:3677   */\n  dup2\n    /* \"#utility.yul\":3663:3669   */\n  dup5\n    /* \"#utility.yul\":3657:3661   */\n  dup5\n    /* \"#utility.yul\":3613:3678   */\n  tag_31\n  jump\t// in\ntag_82:\n    /* \"#utility.yul\":3548:3684   */\n  pop\n    /* \"#utility.yul\":3495:3684   */\n  pop\n  pop\n  jump\t// out\n    /* \"#utility.yul\":3690:3876   */\ntag_34:\n    /* \"#utility.yul\":3750:3870   */\ntag_84:\n    /* \"#utility.yul\":3767:3770   */\n  dup2\n    /* \"#utility.yul\":3760:3765   */\n  dup2\n    /* \"#utility.yul\":3757:3771   */\n  lt\n    /* \"#utility.yul\":3750:3870   */\n  iszero\n  tag_86\n  jumpi\n    /* \"#utility.yul\":3821:3860   */\n  tag_87\n    /* \"#utility.yul\":3858:3859   */\n  0x00\n    /* \"#utility.yul\":3851:3856   */\n  dup3\n    /* \"#utility.yul\":3821:3860   */\n  tag_33\n  jump\t// in\ntag_87:\n    /* \"#utility.yul\":3794:3795   */\n  0x01\n    /* \"#utility.yul\":3787:3792   */\n  dup2\n    /* \"#utility.yul\":3783:3796   */\n  add\n    /* \"#utility.yul\":3774:3796   */\n  swap1\n  pop\n    /* \"#utility.yul\":3750:3870   */\n  jump(tag_84)\ntag_86:\n    /* \"#utility.yul\":3690:3876   */\n  pop\n  pop\n  jump\t// out\n    /* \"#utility.yul\":3882:4425   */\ntag_35:\n    /* \"#utility.yul\":3983:3985   */\n  0x1f\n    /* \"#utility.yul\":3978:3981   */\n  dup3\n    /* \"#utility.yul\":3975:3986   */\n  gt\n    /* \"#utility.yul\":3972:4418   */\n  iszero\n  tag_89\n  jumpi\n    /* \"#utility.yul\":4017:4055   */\n  tag_90\n    /* \"#utility.yul\":4049:4054   */\n  dup2\n    /* \"#utility.yul\":4017:4055   */\n  tag_23\n  jump\t// in\ntag_90:\n    /* \"#utility.yul\":4101:4130   */\n  tag_91\n    /* \"#utility.yul\":4119:4129   */\n  dup5\n    /* \"#utility.yul\":4101:4130   */\n  tag_24\n  jump\t// in\ntag_91:\n    /* \"#utility.yul\":4091:4099   */\n  dup2\n    /* \"#utility.yul\":4087:4131   */\n  add\n    /* \"#utility.yul\":4284:4286   */\n  0x20\n    /* \"#utility.yul\":4272:4282   */\n  dup6\n    /* \"#utility.yul\":4269:4287   */\n  lt\n    /* \"#utility.yul\":4266:4315   */\n  iszero\n  tag_92\n  jumpi\n    /* \"#utility.yul\":4305:4313   */\n  dup2\n    /* \"#utility.yul\":4290:4313   */\n  swap1\n  pop\n    /* \"#utility.yul\":4266:4315   */\ntag_92:\n    /* \"#utility.yul\":4328:4408   */\n  tag_93\n    /* \"#utility.yul\":4384:4406   */\n  tag_94\n    /* \"#utility.yul\":4402:4405   */\n  dup6\n    /* \"#utility.yul\":4384:4406   */\n  tag_24\n  jump\t// in\ntag_94:\n    /* \"#utility.yul\":4374:4382   */\n  dup4\n    /* \"#utility.yul\":4370:4407   */\n  add\n    /* \"#utility.yul\":4357:4368   */\n  dup3\n    /* \"#utility.yul\":4328:4408   */\n  tag_34\n  jump\t// in\ntag_93:\n    /* \"#utility.yul\":3987:4418   */\n  pop\n  pop\n    /* \"#utility.yul\":3972:4418   */\ntag_89:\n    /* \"#utility.yul\":3882:4425   */\n  pop\n  pop\n  pop\n  jump\t// out\n    /* \"#utility.yul\":4431:4548   */\ntag_36:\n    /* \"#utility.yul\":4485:4493   */\n  0x00\n    /* \"#utility.yul\":4535:4540   */\n  dup3\n    /* \"#utility.yul\":4529:4533   */\n  dup3\n    /* \"#utility.yul\":4525:4541   */\n  shr\n    /* \"#utility.yul\":4504:4541   */\n  swap1\n  pop\n    /* \"#utility.yul\":4431:4548   */\n  swap3\n  swap2\n  pop\n  pop\n  jump\t// out\n    /* \"#utility.yul\":4554:4723   */\ntag_37:\n    /* \"#utility.yul\":4598:4604   */\n  0x00\n    /* \"#utility.yul\":4631:4682   */\n  tag_97\n    /* \"#utility.yul\":4679:4680   */\n  0x00\n    /* \"#utility.yul\":4675:4681   */\n  not\n    /* \"#utility.yul\":4667:4672   */\n  dup5\n    /* \"#utility.yul\":4664:4665   */\n  0x08\n    /* \"#utility.yul\":4660:4673   */\n  mul\n    /* \"#utility.yul\":4631:4682   */\n  tag_36\n  jump\t// in\ntag_97:\n    /* \"#utility.yul\":4627:4683   */\n  not\n    /* \"#utility.yul\":4712:4716   */\n  dup1\n    /* \"#utility.yul\":4706:4710   */\n  dup4\n    /* \"#utility.yul\":4702:4717   */\n  and\n    /* \"#utility.yul\":4692:4717   */\n  swap2\n  pop\n    /* \"#utility.yul\":4605:4723   */\n  pop\n    /* \"#utility.yul\":4554:4723   */\n  swap3\n  swap2\n  pop\n  pop\n  jump\t// out\n    /* \"#utility.yul\":4728:5023   */\ntag_38:\n    /* \"#utility.yul\":4804:4808   */\n  0x00\n    /* \"#utility.yul\":4950:4979   */\n  tag_99\n    /* \"#utility.yul\":4975:4978   */\n  dup4\n    /* \"#utility.yul\":4969:4973   */\n  dup4\n    /* \"#utility.yul\":4950:4979   */\n  tag_37\n  jump\t// in\ntag_99:\n    /* \"#utility.yul\":4942:4979   */\n  swap2\n  pop\n    /* \"#utility.yul\":5012:5015   */\n  dup3\n    /* \"#utility.yul\":5009:5010   */\n  0x02\n    /* \"#utility.yul\":5005:5016   */\n  mul\n    /* \"#utility.yul\":4999:5003   */\n  dup3\n    /* \"#utility.yul\":4996:5017   */\n  or\n    /* \"#utility.yul\":4988:5017   */\n  swap1\n  pop\n    /* \"#utility.yul\":4728:5023   */\n  swap3\n  swap2\n  pop\n  pop\n  jump\t// out\n    /* \"#utility.yul\":5028:6423   */\ntag_8:\n    /* \"#utility.yul\":5145:5182   */\n  tag_101\n    /* \"#utility.yul\":5178:5181   */\n  dup3\n    /* \"#utility.yul\":5145:5182   */\n  tag_19\n  jump\t// in\ntag_101:\n    /* \"#utility.yul\":5247:5265   */\n  0xffffffffffffffff\n    /* \"#utility.yul\":5239:5245   */\n  dup2\n    /* \"#utility.yul\":5236:5266   */\n  gt\n    /* \"#utility.yul\":5233:5289   */\n  iszero\n  tag_102\n  jumpi\n    /* \"#utility.yul\":5269:5287   */\n  tag_103\n  tag_20\n  jump\t// in\ntag_103:\n    /* \"#utility.yul\":5233:5289   */\ntag_102:\n    /* \"#utility.yul\":5313:5351   */\n  tag_104\n    /* \"#utility.yul\":5345:5349   */\n  dup3\n    /* \"#utility.yul\":5339:5350   */\n  sload\n    /* \"#utility.yul\":5313:5351   */\n  tag_22\n  jump\t// in\ntag_104:\n    /* \"#utility.yul\":5398:5465   */\n  tag_105\n    /* \"#utility.yul\":5458:5464   */\n  dup3\n    /* \"#utility.yul\":5450:5456   */\n  dup3\n    /* \"#utility.yul\":5444:5448   */\n  dup6\n    /* \"#utility.yul\":5398:5465   */\n  tag_35\n  jump\t// in\ntag_105:\n    /* \"#utility.yul\":5492:5493   */\n  0x00\n    /* \"#utility.yul\":5516:5520   */\n  0x20\n    /* \"#utility.yul\":5503:5520   */\n  swap1\n  pop\n    /* \"#utility.yul\":5548:5550   */\n  0x1f\n    /* \"#utility.yul\":5540:5546   */\n  dup4\n    /* \"#utility.yul\":5537:5551   */\n  gt\n    /* \"#utility.yul\":5565:5566   */\n  0x01\n    /* \"#utility.yul\":5560:6178   */\n  dup2\n  eq\n  tag_107\n  jumpi\n    /* \"#utility.yul\":6222:6223   */\n  0x00\n    /* \"#utility.yul\":6239:6245   */\n  dup5\n    /* \"#utility.yul\":6236:6313   */\n  iszero\n  tag_108\n  jumpi\n    /* \"#utility.yul\":6288:6297   */\n  dup3\n    /* \"#utility.yul\":6283:6286   */\n  dup8\n    /* \"#utility.yul\":6279:6298   */\n  add\n    /* \"#utility.yul\":6273:6299   */\n  mload\n    /* \"#utility.yul\":6264:6299   */\n  swap1\n  pop\n    /* \"#utility.yul\":6236:6313   */\ntag_108:\n    /* \"#utility.yul\":6339:6406   */\n  tag_109\n    /* \"#utility.yul\":6399:6405   */\n  dup6\n    /* \"#utility.yul\":6392:6397   */\n  dup3\n    /* \"#utility.yul\":6339:6406   */\n  tag_38\n  jump\t// in\ntag_109:\n    /* \"#utility.yul\":6333:6337   */\n  dup7\n    /* \"#utility.yul\":6326:6407   */\n  sstore\n    /* \"#utility.yul\":6195:6417   */\n  pop\n    /* \"#utility.yul\":5530:6417   */\n  jump(tag_106)\n    /* \"#utility.yul\":5560:6178   */\ntag_107:\n    /* \"#utility.yul\":5612:5616   */\n  0x1f\n    /* \"#utility.yul\":5608:5617   */\n  not\n    /* \"#utility.yul\":5600:5606   */\n  dup5\n    /* \"#utility.yul\":5596:5618   */\n  and\n    /* \"#utility.yul\":5646:5683   */\n  tag_110\n    /* \"#utility.yul\":5678:5682   */\n  dup7\n    /* \"#utility.yul\":5646:5683   */\n  tag_23\n  jump\t// in\ntag_110:\n    /* \"#utility.yul\":5705:5706   */\n  0x00\n    /* \"#utility.yul\":5719:5927   */\ntag_111:\n    /* \"#utility.yul\":5733:5740   */\n  dup3\n    /* \"#utility.yul\":5730:5731   */\n  dup2\n    /* \"#utility.yul\":5727:5741   */\n  lt\n    /* \"#utility.yul\":5719:5927   */\n  iszero\n  tag_113\n  jumpi\n    /* \"#utility.yul\":5812:5821   */\n  dup5\n    /* \"#utility.yul\":5807:5810   */\n  dup10\n    /* \"#utility.yul\":5803:5822   */\n  add\n    /* \"#utility.yul\":5797:5823   */\n  mload\n    /* \"#utility.yul\":5789:5795   */\n  dup3\n    /* \"#utility.yul\":5782:5824   */\n  sstore\n    /* \"#utility.yul\":5863:5864   */\n  0x01\n    /* \"#utility.yul\":5855:5861   */\n  dup3\n    /* \"#utility.yul\":5851:5865   */\n  add\n    /* \"#utility.yul\":5841:5865   */\n  swap2\n  pop\n    /* \"#utility.yul\":5910:5912   */\n  0x20\n    /* \"#utility.yul\":5899:5908   */\n  dup6\n    /* \"#utility.yul\":5895:5913   */\n  add\n    /* \"#utility.yul\":5882:5913   */\n  swap5\n  pop\n    /* \"#utility.yul\":5756:5760   */\n  0x20\n    /* \"#utility.yul\":5753:5754   */\n  dup2\n    /* \"#utility.yul\":5749:5761   */\n  add\n    /* \"#utility.yul\":5744:5761   */\n  swap1\n  pop\n    /* \"#utility.yul\":5719:5927   */\n  jump(tag_111)\ntag_113:\n    /* \"#utility.yul\":5955:5961   */\n  dup7\n    /* \"#utility.yul\":5946:5953   */\n  dup4\n    /* \"#utility.yul\":5943:5962   */\n  lt\n    /* \"#utility.yul\":5940:6119   */\n  iszero\n  tag_114\n  jumpi\n    /* \"#utility.yul\":6013:6022   */\n  dup5\n    /* \"#utility.yul\":6008:6011   */\n  dup10\n    /* \"#utility.yul\":6004:6023   */\n  add\n    /* \"#utility.yul\":5998:6024   */\n  mload\n    /* \"#utility.yul\":6056:6104   */\n  tag_115\n    /* \"#utility.yul\":6098:6102   */\n  0x1f\n    /* \"#utility.yul\":6090:6096   */\n  dup10\n    /* \"#utility.yul\":6086:6103   */\n  and\n    /* \"#utility.yul\":6075:6084   */\n  dup3\n    /* \"#utility.yul\":6056:6104   */\n  tag_37\n  jump\t// in\ntag_115:\n    /* \"#utility.yul\":6048:6054   */\n  dup4\n    /* \"#utility.yul\":6041:6105   */\n  sstore\n    /* \"#utility.yul\":5963:6119   */\n  pop\n    /* \"#utility.yul\":5940:6119   */\ntag_114:\n    /* \"#utility.yul\":6165:6166   */\n  0x01\n    /* \"#utility.yul\":6161:6162   */\n  0x02\n    /* \"#utility.yul\":6153:6159   */\n  dup9\n    /* \"#utility.yul\":6149:6163   */\n  mul\n    /* \"#utility.yul\":6145:6167   */\n  add\n    /* \"#utility.yul\":6139:6143   */\n  dup9\n    /* \"#utility.yul\":6132:6168   */\n  sstore\n    /* \"#utility.yul\":5567:6178   */\n  pop\n  pop\n  pop\n    /* \"#utility.yul\":5530:6417   */\ntag_106:\n  pop\n    /* \"#utility.yul\":5120:6423   */\n  pop\n  pop\n  pop\n    /* \"#utility.yul\":5028:6423   */\n  pop\n  pop\n  jump\t// out\n    /* \"lesson3/FundTokenERC20_flattened.sol\":26951:27978  contract FundTokenERC20 is ERC20 {... */\ntag_11:\n  dataSize(sub_0)\n  dup1\n  dataOffset(sub_0)\n  0x00\n  codecopy\n  0x00\n  return\nstop\n\nsub_0: assembly {\n        /* \"lesson3/FundTokenERC20_flattened.sol\":26951:27978  contract FundTokenERC20 is ERC20 {... */\n      mstore(0x40, 0x80)\n      callvalue\n      dup1\n      iszero\n      tag_1\n      jumpi\n      0x00\n      dup1\n      revert\n    tag_1:\n      pop\n      jumpi(tag_2, lt(calldatasize, 0x04))\n      shr(0xe0, calldataload(0x00))\n      dup1\n      0x379607f5\n      gt\n      tag_14\n      jumpi\n      dup1\n      0x379607f5\n      eq\n      tag_8\n      jumpi\n      dup1\n      0x70a08231\n      eq\n      tag_9\n      jumpi\n      dup1\n      0x95d89b41\n      eq\n      tag_10\n      jumpi\n      dup1\n      0xa0712d68\n      eq\n      tag_11\n      jumpi\n      dup1\n      0xa9059cbb\n      eq\n      tag_12\n      jumpi\n      dup1\n      0xdd62ed3e\n      eq\n      tag_13\n      jumpi\n      jump(tag_2)\n    tag_14:\n      dup1\n      0x06fdde03\n      eq\n      tag_3\n      jumpi\n      dup1\n      0x095ea7b3\n      eq\n      tag_4\n      jumpi\n      dup1\n      0x18160ddd\n      eq\n      tag_5\n      jumpi\n      dup1\n      0x23b872dd\n      eq\n      tag_6\n      jumpi\n      dup1\n      0x313ce567\n      eq\n      tag_7\n      jumpi\n    tag_2:\n      0x00\n      dup1\n      revert\n        /* \"lesson3/FundTokenERC20_flattened.sol\":12662:12751  function name() public view virtual returns (string memory) {... */\n    tag_3:\n      tag_15\n      tag_16\n      jump\t// in\n    tag_15:\n      mload(0x40)\n      tag_17\n      swap2\n      swap1\n      tag_18\n      jump\t// in\n    tag_17:\n      mload(0x40)\n      dup1\n      swap2\n      sub\n      swap1\n      return\n        /* \"lesson3/FundTokenERC20_flattened.sol\":14804:14990  function approve(address spender, uint256 value) public virtual returns (bool) {... */\n    tag_4:\n      tag_19\n      0x04\n      dup1\n      calldatasize\n      sub\n      dup2\n      add\n      swap1\n      tag_20\n      swap2\n      swap1\n      tag_21\n      jump\t// in\n    tag_20:\n      tag_22\n      jump\t// in\n    tag_19:\n      mload(0x40)\n      tag_23\n      swap2\n      swap1\n      tag_24\n      jump\t// in\n    tag_23:\n      mload(0x40)\n      dup1\n      swap2\n      sub\n      swap1\n      return\n        /* \"lesson3/FundTokenERC20_flattened.sol\":13705:13802  function totalSupply() public view virtual returns (uint256) {... */\n    tag_5:\n      tag_25\n      tag_26\n      jump\t// in\n    tag_25:\n      mload(0x40)\n      tag_27\n      swap2\n      swap1\n      tag_28\n      jump\t// in\n    tag_27:\n      mload(0x40)\n      dup1\n      swap2\n      sub\n      swap1\n      return\n        /* \"lesson3/FundTokenERC20_flattened.sol\":15582:15826  function transferFrom(address from, address to, uint256 value) public virtual returns (bool) {... */\n    tag_6:\n      tag_29\n      0x04\n      dup1\n      calldatasize\n      sub\n      dup2\n      add\n      swap1\n      tag_30\n      swap2\n      swap1\n      tag_31\n      jump\t// in\n    tag_30:\n      tag_32\n      jump\t// in\n    tag_29:\n      mload(0x40)\n      tag_33\n      swap2\n      swap1\n      tag_24\n      jump\t// in\n    tag_33:\n      mload(0x40)\n      dup1\n      swap2\n      sub\n      swap1\n      return\n        /* \"lesson3/FundTokenERC20_flattened.sol\":13590:13672  function decimals() public view virtual returns (uint8) {... */\n    tag_7:\n      tag_34\n      tag_35\n      jump\t// in\n    tag_34:\n      mload(0x40)\n      tag_36\n      swap2\n      swap1\n      tag_37\n      jump\t// in\n    tag_36:\n      mload(0x40)\n      dup1\n      swap2\n      sub\n      swap1\n      return\n        /* \"lesson3/FundTokenERC20_flattened.sol\":27525:27848  function claim(uint amountToClaim) public completedFundMe {... */\n    tag_8:\n      tag_38\n      0x04\n      dup1\n      calldatasize\n      sub\n      dup2\n      add\n      swap1\n      tag_39\n      swap2\n      swap1\n      tag_40\n      jump\t// in\n    tag_39:\n      tag_41\n      jump\t// in\n    tag_38:\n      stop\n        /* \"lesson3/FundTokenERC20_flattened.sol\":13835:13951  function balanceOf(address account) public view virtual returns (uint256) {... */\n    tag_9:\n      tag_42\n      0x04\n      dup1\n      calldatasize\n      sub\n      dup2\n      add\n      swap1\n      tag_43\n      swap2\n      swap1\n      tag_44\n      jump\t// in\n    tag_43:\n      tag_45\n      jump\t// in\n    tag_42:\n      mload(0x40)\n      tag_46\n      swap2\n      swap1\n      tag_28\n      jump\t// in\n    tag_46:\n      mload(0x40)\n      dup1\n      swap2\n      sub\n      swap1\n      return\n        /* \"lesson3/FundTokenERC20_flattened.sol\":12864:12957  function symbol() public view virtual returns (string memory) {... */\n    tag_10:\n      tag_47\n      tag_48\n      jump\t// in\n    tag_47:\n      mload(0x40)\n      tag_49\n      swap2\n      swap1\n      tag_18\n      jump\t// in\n    tag_49:\n      mload(0x40)\n      dup1\n      swap2\n      sub\n      swap1\n      return\n        /* \"lesson3/FundTokenERC20_flattened.sol\":27121:27519  function mint(uint256 amountToMint) public completedFundMe {... */\n    tag_11:\n      tag_50\n      0x04\n      dup1\n      calldatasize\n      sub\n      dup2\n      add\n      swap1\n      tag_51\n      swap2\n      swap1\n      tag_40\n      jump\t// in\n    tag_51:\n      tag_52\n      jump\t// in\n    tag_50:\n      stop\n        /* \"lesson3/FundTokenERC20_flattened.sol\":14146:14324  function transfer(address to, uint256 value) public virtual returns (bool) {... */\n    tag_12:\n      tag_53\n      0x04\n      dup1\n      calldatasize\n      sub\n      dup2\n      add\n      swap1\n      tag_54\n      swap2\n      swap1\n      tag_21\n      jump\t// in\n    tag_54:\n      tag_55\n      jump\t// in\n    tag_53:\n      mload(0x40)\n      tag_56\n      swap2\n      swap1\n      tag_24\n      jump\t// in\n    tag_56:\n      mload(0x40)\n      dup1\n      swap2\n      sub\n      swap1\n      return\n        /* \"lesson3/FundTokenERC20_flattened.sol\":14357:14497  function allowance(address owner, address spender) public view virtual returns (uint256) {... */\n    tag_13:\n      tag_57\n      0x04\n      dup1\n      calldatasize\n      sub\n      dup2\n      add\n      swap1\n      tag_58\n      swap2\n      swap1\n      tag_59\n      jump\t// in\n    tag_58:\n      tag_60\n      jump\t// in\n    tag_57:\n      mload(0x40)\n      tag_61\n      swap2\n      swap1\n      tag_28\n      jump\t// in\n    tag_61:\n      mload(0x40)\n      dup1\n      swap2\n      sub\n      swap1\n      return\n        /* \"lesson3/FundTokenERC20_flattened.sol\":12662:12751  function name() public view virtual returns (string memory) {... */\n    tag_16:\n        /* \"lesson3/FundTokenERC20_flattened.sol\":12707:12720  string memory */\n      0x60\n        /* \"lesson3/FundTokenERC20_flattened.sol\":12739:12744  _name */\n      0x03\n        /* \"lesson3/FundTokenERC20_flattened.sol\":12732:12744  return _name */\n      dup1\n      sload\n      tag_63\n      swap1\n      tag_64\n      jump\t// in\n    tag_63:\n      dup1\n      0x1f\n      add\n      0x20\n      dup1\n      swap2\n      div\n      mul\n      0x20\n      add\n      mload(0x40)\n      swap1\n      dup2\n      add\n      0x40\n      mstore\n      dup1\n      swap3\n      swap2\n      swap1\n      dup2\n      dup2\n      mstore\n      0x20\n      add\n      dup3\n      dup1\n      sload\n      tag_65\n      swap1\n      tag_64\n      jump\t// in\n    tag_65:\n      dup1\n      iszero\n      tag_66\n      jumpi\n      dup1\n      0x1f\n      lt\n      tag_67\n      jumpi\n      0x0100\n      dup1\n      dup4\n      sload\n      div\n      mul\n      dup4\n      mstore\n      swap2\n      0x20\n      add\n      swap2\n      jump(tag_66)\n    tag_67:\n      dup3\n      add\n      swap2\n      swap1\n      0x00\n      mstore\n      keccak256(0x00, 0x20)\n      swap1\n    tag_68:\n      dup2\n      sload\n      dup2\n      mstore\n      swap1\n      0x01\n      add\n      swap1\n      0x20\n      add\n      dup1\n      dup4\n      gt\n      tag_68\n      jumpi\n      dup3\n      swap1\n      sub\n      0x1f\n      and\n      dup3\n      add\n      swap2\n    tag_66:\n      pop\n      pop\n      pop\n      pop\n      pop\n      swap1\n      pop\n        /* \"lesson3/FundTokenERC20_flattened.sol\":12662:12751  function name() public view virtual returns (string memory) {... */\n      swap1\n      jump\t// out\n        /* \"lesson3/FundTokenERC20_flattened.sol\":14804:14990  function approve(address spender, uint256 value) public virtual returns (bool) {... */\n    tag_22:\n        /* \"lesson3/FundTokenERC20_flattened.sol\":14877:14881  bool */\n      0x00\n        /* \"lesson3/FundTokenERC20_flattened.sol\":14893:14906  address owner */\n      dup1\n        /* \"lesson3/FundTokenERC20_flattened.sol\":14909:14921  _msgSender() */\n      tag_70\n        /* \"lesson3/FundTokenERC20_flattened.sol\":14909:14919  _msgSender */\n      tag_71\n        /* \"lesson3/FundTokenERC20_flattened.sol\":14909:14921  _msgSender() */\n      jump\t// in\n    tag_70:\n        /* \"lesson3/FundTokenERC20_flattened.sol\":14893:14921  address owner = _msgSender() */\n      swap1\n      pop\n        /* \"lesson3/FundTokenERC20_flattened.sol\":14931:14962  _approve(owner, spender, value) */\n      tag_72\n        /* \"lesson3/FundTokenERC20_flattened.sol\":14940:14945  owner */\n      dup2\n        /* \"lesson3/FundTokenERC20_flattened.sol\":14947:14954  spender */\n      dup6\n        /* \"lesson3/FundTokenERC20_flattened.sol\":14956:14961  value */\n      dup6\n        /* \"lesson3/FundTokenERC20_flattened.sol\":14931:14939  _approve */\n      tag_73\n        /* \"lesson3/FundTokenERC20_flattened.sol\":14931:14962  _approve(owner, spender, value) */\n      jump\t// in\n    tag_72:\n        /* \"lesson3/FundTokenERC20_flattened.sol\":14979:14983  true */\n      0x01\n        /* \"lesson3/FundTokenERC20_flattened.sol\":14972:14983  return true */\n      swap2\n      pop\n      pop\n        /* \"lesson3/FundTokenERC20_flattened.sol\":14804:14990  function approve(address spender, uint256 value) public virtual returns (bool) {... */\n      swap3\n      swap2\n      pop\n      pop\n      jump\t// out\n        /* \"lesson3/FundTokenERC20_flattened.sol\":13705:13802  function totalSupply() public view virtual returns (uint256) {... */\n    tag_26:\n        /* \"lesson3/FundTokenERC20_flattened.sol\":13757:13764  uint256 */\n      0x00\n        /* \"lesson3/FundTokenERC20_flattened.sol\":13783:13795  _totalSupply */\n      sload(0x02)\n        /* \"lesson3/FundTokenERC20_flattened.sol\":13776:13795  return _totalSupply */\n      swap1\n      pop\n        /* \"lesson3/FundTokenERC20_flattened.sol\":13705:13802  function totalSupply() public view virtual returns (uint256) {... */\n      swap1\n      jump\t// out\n        /* \"lesson3/FundTokenERC20_flattened.sol\":15582:15826  function transferFrom(address from, address to, uint256 value) public virtual returns (bool) {... */\n    tag_32:\n        /* \"lesson3/FundTokenERC20_flattened.sol\":15669:15673  bool */\n      0x00\n        /* \"lesson3/FundTokenERC20_flattened.sol\":15685:15700  address spender */\n      dup1\n        /* \"lesson3/FundTokenERC20_flattened.sol\":15703:15715  _msgSender() */\n      tag_76\n        /* \"lesson3/FundTokenERC20_flattened.sol\":15703:15713  _msgSender */\n      tag_71\n        /* \"lesson3/FundTokenERC20_flattened.sol\":15703:15715  _msgSender() */\n      jump\t// in\n    tag_76:\n        /* \"lesson3/FundTokenERC20_flattened.sol\":15685:15715  address spender = _msgSender() */\n      swap1\n      pop\n        /* \"lesson3/FundTokenERC20_flattened.sol\":15725:15762  _spendAllowance(from, spender, value) */\n      tag_77\n        /* \"lesson3/FundTokenERC20_flattened.sol\":15741:15745  from */\n      dup6\n        /* \"lesson3/FundTokenERC20_flattened.sol\":15747:15754  spender */\n      dup3\n        /* \"lesson3/FundTokenERC20_flattened.sol\":15756:15761  value */\n      dup6\n        /* \"lesson3/FundTokenERC20_flattened.sol\":15725:15740  _spendAllowance */\n      tag_78\n        /* \"lesson3/FundTokenERC20_flattened.sol\":15725:15762  _spendAllowance(from, spender, value) */\n      jump\t// in\n    tag_77:\n        /* \"lesson3/FundTokenERC20_flattened.sol\":15772:15798  _transfer(from, to, value) */\n      tag_79\n        /* \"lesson3/FundTokenERC20_flattened.sol\":15782:15786  from */\n      dup6\n        /* \"lesson3/FundTokenERC20_flattened.sol\":15788:15790  to */\n      dup6\n        /* \"lesson3/FundTokenERC20_flattened.sol\":15792:15797  value */\n      dup6\n        /* \"lesson3/FundTokenERC20_flattened.sol\":15772:15781  _transfer */\n      tag_80\n        /* \"lesson3/FundTokenERC20_flattened.sol\":15772:15798  _transfer(from, to, value) */\n      jump\t// in\n    tag_79:\n        /* \"lesson3/FundTokenERC20_flattened.sol\":15815:15819  true */\n      0x01\n        /* \"lesson3/FundTokenERC20_flattened.sol\":15808:15819  return true */\n      swap2\n      pop\n      pop\n        /* \"lesson3/FundTokenERC20_flattened.sol\":15582:15826  function transferFrom(address from, address to, uint256 value) public virtual returns (bool) {... */\n      swap4\n      swap3\n      pop\n      pop\n      pop\n      jump\t// out\n        /* \"lesson3/FundTokenERC20_flattened.sol\":13590:13672  function decimals() public view virtual returns (uint8) {... */\n    tag_35:\n        /* \"lesson3/FundTokenERC20_flattened.sol\":13639:13644  uint8 */\n      0x00\n        /* \"lesson3/FundTokenERC20_flattened.sol\":13663:13665  18 */\n      0x12\n        /* \"lesson3/FundTokenERC20_flattened.sol\":13656:13665  return 18 */\n      swap1\n      pop\n        /* \"lesson3/FundTokenERC20_flattened.sol\":13590:13672  function decimals() public view virtual returns (uint8) {... */\n      swap1\n      jump\t// out\n        /* \"lesson3/FundTokenERC20_flattened.sol\":27525:27848  function claim(uint amountToClaim) public completedFundMe {... */\n    tag_41:\n        /* \"lesson3/FundTokenERC20_flattened.sol\":27899:27905  fundMe */\n      0x05\n      0x00\n      swap1\n      sload\n      swap1\n      0x0100\n      exp\n      swap1\n      div\n      0xffffffffffffffffffffffffffffffffffffffff\n      and\n        /* \"lesson3/FundTokenERC20_flattened.sol\":27899:27920  fundMe.getFundSuccess */\n      0xffffffffffffffffffffffffffffffffffffffff\n      and\n      0xda4658e0\n        /* \"lesson3/FundTokenERC20_flattened.sol\":27899:27922  fundMe.getFundSuccess() */\n      mload(0x40)\n      dup2\n      0xffffffff\n      and\n      0xe0\n      shl\n      dup2\n      mstore\n      0x04\n      add\n      0x20\n      mload(0x40)\n      dup1\n      dup4\n      sub\n      dup2\n      dup7\n      gas\n      staticcall\n      iszero\n      dup1\n      iszero\n      tag_84\n      jumpi\n      returndatasize\n      0x00\n      dup1\n      returndatacopy\n      revert(0x00, returndatasize)\n    tag_84:\n      pop\n      pop\n      pop\n      pop\n      mload(0x40)\n      returndatasize\n      not(0x1f)\n      0x1f\n      dup3\n      add\n      and\n      dup3\n      add\n      dup1\n      0x40\n      mstore\n      pop\n      dup2\n      add\n      swap1\n      tag_85\n      swap2\n      swap1\n      tag_86\n      jump\t// in\n    tag_85:\n        /* \"lesson3/FundTokenERC20_flattened.sol\":27891:27958  require(fundMe.getFundSuccess(), \"The FundMe is no completed yet.\") */\n      tag_87\n      jumpi\n      mload(0x40)\n      0x08c379a000000000000000000000000000000000000000000000000000000000\n      dup2\n      mstore\n      0x04\n      add\n      tag_88\n      swap1\n      tag_89\n      jump\t// in\n    tag_88:\n      mload(0x40)\n      dup1\n      swap2\n      sub\n      swap1\n      revert\n    tag_87:\n        /* \"lesson3/FundTokenERC20_flattened.sol\":27665:27678  amountToClaim */\n      dup1\n        /* \"lesson3/FundTokenERC20_flattened.sol\":27640:27661  balanceOf(msg.sender) */\n      tag_91\n        /* \"lesson3/FundTokenERC20_flattened.sol\":27650:27660  msg.sender */\n      caller\n        /* \"lesson3/FundTokenERC20_flattened.sol\":27640:27649  balanceOf */\n      tag_45\n        /* \"lesson3/FundTokenERC20_flattened.sol\":27640:27661  balanceOf(msg.sender) */\n      jump\t// in\n    tag_91:\n        /* \"lesson3/FundTokenERC20_flattened.sol\":27640:27678  balanceOf(msg.sender) >= amountToClaim */\n      lt\n      iszero\n        /* \"lesson3/FundTokenERC20_flattened.sol\":27619:27739  require(... */\n      tag_92\n      jumpi\n      mload(0x40)\n      0x08c379a000000000000000000000000000000000000000000000000000000000\n      dup2\n      mstore\n      0x04\n      add\n      tag_93\n      swap1\n      tag_94\n      jump\t// in\n    tag_93:\n      mload(0x40)\n      dup1\n      swap2\n      sub\n      swap1\n      revert\n    tag_92:\n        /* \"lesson3/FundTokenERC20_flattened.sol\":27809:27841  _burn(msg.sender, amountToClaim) */\n      tag_95\n        /* \"lesson3/FundTokenERC20_flattened.sol\":27815:27825  msg.sender */\n      caller\n        /* \"lesson3/FundTokenERC20_flattened.sol\":27827:27840  amountToClaim */\n      dup3\n        /* \"lesson3/FundTokenERC20_flattened.sol\":27809:27814  _burn */\n      tag_96\n        /* \"lesson3/FundTokenERC20_flattened.sol\":27809:27841  _burn(msg.sender, amountToClaim) */\n      jump\t// in\n    tag_95:\n        /* \"lesson3/FundTokenERC20_flattened.sol\":27525:27848  function claim(uint amountToClaim) public completedFundMe {... */\n      pop\n      jump\t// out\n        /* \"lesson3/FundTokenERC20_flattened.sol\":13835:13951  function balanceOf(address account) public view virtual returns (uint256) {... */\n    tag_45:\n        /* \"lesson3/FundTokenERC20_flattened.sol\":13900:13907  uint256 */\n      0x00\n        /* \"lesson3/FundTokenERC20_flattened.sol\":13926:13935  _balances */\n      dup1\n        /* \"lesson3/FundTokenERC20_flattened.sol\":13926:13944  _balances[account] */\n      0x00\n        /* \"lesson3/FundTokenERC20_flattened.sol\":13936:13943  account */\n      dup4\n        /* \"lesson3/FundTokenERC20_flattened.sol\":13926:13944  _balances[account] */\n      0xffffffffffffffffffffffffffffffffffffffff\n      and\n      0xffffffffffffffffffffffffffffffffffffffff\n      and\n      dup2\n      mstore\n      0x20\n      add\n      swap1\n      dup2\n      mstore\n      0x20\n      add\n      0x00\n      keccak256\n      sload\n        /* \"lesson3/FundTokenERC20_flattened.sol\":13919:13944  return _balances[account] */\n      swap1\n      pop\n        /* \"lesson3/FundTokenERC20_flattened.sol\":13835:13951  function balanceOf(address account) public view virtual returns (uint256) {... */\n      swap2\n      swap1\n      pop\n      jump\t// out\n        /* \"lesson3/FundTokenERC20_flattened.sol\":12864:12957  function symbol() public view virtual returns (string memory) {... */\n    tag_48:\n        /* \"lesson3/FundTokenERC20_flattened.sol\":12911:12924  string memory */\n      0x60\n        /* \"lesson3/FundTokenERC20_flattened.sol\":12943:12950  _symbol */\n      0x04\n        /* \"lesson3/FundTokenERC20_flattened.sol\":12936:12950  return _symbol */\n      dup1\n      sload\n      tag_99\n      swap1\n      tag_64\n      jump\t// in\n    tag_99:\n      dup1\n      0x1f\n      add\n      0x20\n      dup1\n      swap2\n      div\n      mul\n      0x20\n      add\n      mload(0x40)\n      swap1\n      dup2\n      add\n      0x40\n      mstore\n      dup1\n      swap3\n      swap2\n      swap1\n      dup2\n      dup2\n      mstore\n      0x20\n      add\n      dup3\n      dup1\n      sload\n      tag_100\n      swap1\n      tag_64\n      jump\t// in\n    tag_100:\n      dup1\n      iszero\n      tag_101\n      jumpi\n      dup1\n      0x1f\n      lt\n      tag_102\n      jumpi\n      0x0100\n      dup1\n      dup4\n      sload\n      div\n      mul\n      dup4\n      mstore\n      swap2\n      0x20\n      add\n      swap2\n      jump(tag_101)\n    tag_102:\n      dup3\n      add\n      swap2\n      swap1\n      0x00\n      mstore\n      keccak256(0x00, 0x20)\n      swap1\n    tag_103:\n      dup2\n      sload\n      dup2\n      mstore\n      swap1\n      0x01\n      add\n      swap1\n      0x20\n      add\n      dup1\n      dup4\n      gt\n      tag_103\n      jumpi\n      dup3\n      swap1\n      sub\n      0x1f\n      and\n      dup3\n      add\n      swap2\n    tag_101:\n      pop\n      pop\n      pop\n      pop\n      pop\n      swap1\n      pop\n        /* \"lesson3/FundTokenERC20_flattened.sol\":12864:12957  function symbol() public view virtual returns (string memory) {... */\n      swap1\n      jump\t// out\n        /* \"lesson3/FundTokenERC20_flattened.sol\":27121:27519  function mint(uint256 amountToMint) public completedFundMe {... */\n    tag_52:\n        /* \"lesson3/FundTokenERC20_flattened.sol\":27899:27905  fundMe */\n      0x05\n      0x00\n      swap1\n      sload\n      swap1\n      0x0100\n      exp\n      swap1\n      div\n      0xffffffffffffffffffffffffffffffffffffffff\n      and\n        /* \"lesson3/FundTokenERC20_flattened.sol\":27899:27920  fundMe.getFundSuccess */\n      0xffffffffffffffffffffffffffffffffffffffff\n      and\n      0xda4658e0\n        /* \"lesson3/FundTokenERC20_flattened.sol\":27899:27922  fundMe.getFundSuccess() */\n      mload(0x40)\n      dup2\n      0xffffffff\n      and\n      0xe0\n      shl\n      dup2\n      mstore\n      0x04\n      add\n      0x20\n      mload(0x40)\n      dup1\n      dup4\n      sub\n      dup2\n      dup7\n      gas\n      staticcall\n      iszero\n      dup1\n      iszero\n      tag_106\n      jumpi\n      returndatasize\n      0x00\n      dup1\n      returndatacopy\n      revert(0x00, returndatasize)\n    tag_106:\n      pop\n      pop\n      pop\n      pop\n      mload(0x40)\n      returndatasize\n      not(0x1f)\n      0x1f\n      dup3\n      add\n      and\n      dup3\n      add\n      dup1\n      0x40\n      mstore\n      pop\n      dup2\n      add\n      swap1\n      tag_107\n      swap2\n      swap1\n      tag_86\n      jump\t// in\n    tag_107:\n        /* \"lesson3/FundTokenERC20_flattened.sol\":27891:27958  require(fundMe.getFundSuccess(), \"The FundMe is no completed yet.\") */\n      tag_108\n      jumpi\n      mload(0x40)\n      0x08c379a000000000000000000000000000000000000000000000000000000000\n      dup2\n      mstore\n      0x04\n      add\n      tag_109\n      swap1\n      tag_89\n      jump\t// in\n    tag_109:\n      mload(0x40)\n      dup1\n      swap2\n      sub\n      swap1\n      revert\n    tag_108:\n        /* \"lesson3/FundTokenERC20_flattened.sol\":27249:27261  amountToMint */\n      dup1\n        /* \"lesson3/FundTokenERC20_flattened.sol\":27211:27217  fundMe */\n      0x05\n      0x00\n      swap1\n      sload\n      swap1\n      0x0100\n      exp\n      swap1\n      div\n      0xffffffffffffffffffffffffffffffffffffffff\n      and\n        /* \"lesson3/FundTokenERC20_flattened.sol\":27211:27233  fundMe.fundersToAmount */\n      0xffffffffffffffffffffffffffffffffffffffff\n      and\n      0x9f883a05\n        /* \"lesson3/FundTokenERC20_flattened.sol\":27234:27244  msg.sender */\n      caller\n        /* \"lesson3/FundTokenERC20_flattened.sol\":27211:27245  fundMe.fundersToAmount(msg.sender) */\n      mload(0x40)\n      dup3\n      0xffffffff\n      and\n      0xe0\n      shl\n      dup2\n      mstore\n      0x04\n      add\n      tag_111\n      swap2\n      swap1\n      tag_112\n      jump\t// in\n    tag_111:\n      0x20\n      mload(0x40)\n      dup1\n      dup4\n      sub\n      dup2\n      dup7\n      gas\n      staticcall\n      iszero\n      dup1\n      iszero\n      tag_114\n      jumpi\n      returndatasize\n      0x00\n      dup1\n      returndatacopy\n      revert(0x00, returndatasize)\n    tag_114:\n      pop\n      pop\n      pop\n      pop\n      mload(0x40)\n      returndatasize\n      not(0x1f)\n      0x1f\n      dup3\n      add\n      and\n      dup3\n      add\n      dup1\n      0x40\n      mstore\n      pop\n      dup2\n      add\n      swap1\n      tag_115\n      swap2\n      swap1\n      tag_116\n      jump\t// in\n    tag_115:\n        /* \"lesson3/FundTokenERC20_flattened.sol\":27211:27261  fundMe.fundersToAmount(msg.sender) >= amountToMint */\n      lt\n      iszero\n        /* \"lesson3/FundTokenERC20_flattened.sol\":27190:27338  require(... */\n      tag_117\n      jumpi\n      mload(0x40)\n      0x08c379a000000000000000000000000000000000000000000000000000000000\n      dup2\n      mstore\n      0x04\n      add\n      tag_118\n      swap1\n      tag_119\n      jump\t// in\n    tag_118:\n      mload(0x40)\n      dup1\n      swap2\n      sub\n      swap1\n      revert\n    tag_117:\n        /* \"lesson3/FundTokenERC20_flattened.sol\":27349:27380  _mint(msg.sender, amountToMint) */\n      tag_120\n        /* \"lesson3/FundTokenERC20_flattened.sol\":27355:27365  msg.sender */\n      caller\n        /* \"lesson3/FundTokenERC20_flattened.sol\":27367:27379  amountToMint */\n      dup3\n        /* \"lesson3/FundTokenERC20_flattened.sol\":27349:27354  _mint */\n      tag_121\n        /* \"lesson3/FundTokenERC20_flattened.sol\":27349:27380  _mint(msg.sender, amountToMint) */\n      jump\t// in\n    tag_120:\n        /* \"lesson3/FundTokenERC20_flattened.sol\":27391:27397  fundMe */\n      0x05\n      0x00\n      swap1\n      sload\n      swap1\n      0x0100\n      exp\n      swap1\n      div\n      0xffffffffffffffffffffffffffffffffffffffff\n      and\n        /* \"lesson3/FundTokenERC20_flattened.sol\":27391:27415  fundMe.setFunderToAmount */\n      0xffffffffffffffffffffffffffffffffffffffff\n      and\n      0xd39cf006\n        /* \"lesson3/FundTokenERC20_flattened.sol\":27429:27439  msg.sender */\n      caller\n        /* \"lesson3/FundTokenERC20_flattened.sol\":27490:27502  amountToMint */\n      dup4\n        /* \"lesson3/FundTokenERC20_flattened.sol\":27453:27459  fundMe */\n      0x05\n      0x00\n      swap1\n      sload\n      swap1\n      0x0100\n      exp\n      swap1\n      div\n      0xffffffffffffffffffffffffffffffffffffffff\n      and\n        /* \"lesson3/FundTokenERC20_flattened.sol\":27453:27475  fundMe.fundersToAmount */\n      0xffffffffffffffffffffffffffffffffffffffff\n      and\n      0x9f883a05\n        /* \"lesson3/FundTokenERC20_flattened.sol\":27476:27486  msg.sender */\n      caller\n        /* \"lesson3/FundTokenERC20_flattened.sol\":27453:27487  fundMe.fundersToAmount(msg.sender) */\n      mload(0x40)\n      dup3\n      0xffffffff\n      and\n      0xe0\n      shl\n      dup2\n      mstore\n      0x04\n      add\n      tag_122\n      swap2\n      swap1\n      tag_112\n      jump\t// in\n    tag_122:\n      0x20\n      mload(0x40)\n      dup1\n      dup4\n      sub\n      dup2\n      dup7\n      gas\n      staticcall\n      iszero\n      dup1\n      iszero\n      tag_124\n      jumpi\n      returndatasize\n      0x00\n      dup1\n      returndatacopy\n      revert(0x00, returndatasize)\n    tag_124:\n      pop\n      pop\n      pop\n      pop\n      mload(0x40)\n      returndatasize\n      not(0x1f)\n      0x1f\n      dup3\n      add\n      and\n      dup3\n      add\n      dup1\n      0x40\n      mstore\n      pop\n      dup2\n      add\n      swap1\n      tag_125\n      swap2\n      swap1\n      tag_116\n      jump\t// in\n    tag_125:\n        /* \"lesson3/FundTokenERC20_flattened.sol\":27453:27502  fundMe.fundersToAmount(msg.sender) - amountToMint */\n      tag_126\n      swap2\n      swap1\n      tag_127\n      jump\t// in\n    tag_126:\n        /* \"lesson3/FundTokenERC20_flattened.sol\":27391:27512  fundMe.setFunderToAmount(... */\n      mload(0x40)\n      dup4\n      0xffffffff\n      and\n      0xe0\n      shl\n      dup2\n      mstore\n      0x04\n      add\n      tag_128\n      swap3\n      swap2\n      swap1\n      tag_129\n      jump\t// in\n    tag_128:\n      0x00\n      mload(0x40)\n      dup1\n      dup4\n      sub\n      dup2\n      0x00\n      dup8\n      dup1\n      extcodesize\n      iszero\n      dup1\n      iszero\n      tag_130\n      jumpi\n      0x00\n      dup1\n      revert\n    tag_130:\n      pop\n      gas\n      call\n      iszero\n      dup1\n      iszero\n      tag_132\n      jumpi\n      returndatasize\n      0x00\n      dup1\n      returndatacopy\n      revert(0x00, returndatasize)\n    tag_132:\n      pop\n      pop\n      pop\n      pop\n        /* \"lesson3/FundTokenERC20_flattened.sol\":27121:27519  function mint(uint256 amountToMint) public completedFundMe {... */\n      pop\n      jump\t// out\n        /* \"lesson3/FundTokenERC20_flattened.sol\":14146:14324  function transfer(address to, uint256 value) public virtual returns (bool) {... */\n    tag_55:\n        /* \"lesson3/FundTokenERC20_flattened.sol\":14215:14219  bool */\n      0x00\n        /* \"lesson3/FundTokenERC20_flattened.sol\":14231:14244  address owner */\n      dup1\n        /* \"lesson3/FundTokenERC20_flattened.sol\":14247:14259  _msgSender() */\n      tag_134\n        /* \"lesson3/FundTokenERC20_flattened.sol\":14247:14257  _msgSender */\n      tag_71\n        /* \"lesson3/FundTokenERC20_flattened.sol\":14247:14259  _msgSender() */\n      jump\t// in\n    tag_134:\n        /* \"lesson3/FundTokenERC20_flattened.sol\":14231:14259  address owner = _msgSender() */\n      swap1\n      pop\n        /* \"lesson3/FundTokenERC20_flattened.sol\":14269:14296  _transfer(owner, to, value) */\n      tag_135\n        /* \"lesson3/FundTokenERC20_flattened.sol\":14279:14284  owner */\n      dup2\n        /* \"lesson3/FundTokenERC20_flattened.sol\":14286:14288  to */\n      dup6\n        /* \"lesson3/FundTokenERC20_flattened.sol\":14290:14295  value */\n      dup6\n        /* \"lesson3/FundTokenERC20_flattened.sol\":14269:14278  _transfer */\n      tag_80\n        /* \"lesson3/FundTokenERC20_flattened.sol\":14269:14296  _transfer(owner, to, value) */\n      jump\t// in\n    tag_135:\n        /* \"lesson3/FundTokenERC20_flattened.sol\":14313:14317  true */\n      0x01\n        /* \"lesson3/FundTokenERC20_flattened.sol\":14306:14317  return true */\n      swap2\n      pop\n      pop\n        /* \"lesson3/FundTokenERC20_flattened.sol\":14146:14324  function transfer(address to, uint256 value) public virtual returns (bool) {... */\n      swap3\n      swap2\n      pop\n      pop\n      jump\t// out\n        /* \"lesson3/FundTokenERC20_flattened.sol\":14357:14497  function allowance(address owner, address spender) public view virtual returns (uint256) {... */\n    tag_60:\n        /* \"lesson3/FundTokenERC20_flattened.sol\":14437:14444  uint256 */\n      0x00\n        /* \"lesson3/FundTokenERC20_flattened.sol\":14463:14474  _allowances */\n      0x01\n        /* \"lesson3/FundTokenERC20_flattened.sol\":14463:14481  _allowances[owner] */\n      0x00\n        /* \"lesson3/FundTokenERC20_flattened.sol\":14475:14480  owner */\n      dup5\n        /* \"lesson3/FundTokenERC20_flattened.sol\":14463:14481  _allowances[owner] */\n      0xffffffffffffffffffffffffffffffffffffffff\n      and\n      0xffffffffffffffffffffffffffffffffffffffff\n      and\n      dup2\n      mstore\n      0x20\n      add\n      swap1\n      dup2\n      mstore\n      0x20\n      add\n      0x00\n      keccak256\n        /* \"lesson3/FundTokenERC20_flattened.sol\":14463:14490  _allowances[owner][spender] */\n      0x00\n        /* \"lesson3/FundTokenERC20_flattened.sol\":14482:14489  spender */\n      dup4\n        /* \"lesson3/FundTokenERC20_flattened.sol\":14463:14490  _allowances[owner][spender] */\n      0xffffffffffffffffffffffffffffffffffffffff\n      and\n      0xffffffffffffffffffffffffffffffffffffffff\n      and\n      dup2\n      mstore\n      0x20\n      add\n      swap1\n      dup2\n      mstore\n      0x20\n      add\n      0x00\n      keccak256\n      sload\n        /* \"lesson3/FundTokenERC20_flattened.sol\":14456:14490  return _allowances[owner][spender] */\n      swap1\n      pop\n        /* \"lesson3/FundTokenERC20_flattened.sol\":14357:14497  function allowance(address owner, address spender) public view virtual returns (uint256) {... */\n      swap3\n      swap2\n      pop\n      pop\n      jump\t// out\n        /* \"lesson3/FundTokenERC20_flattened.sol\":4210:4306  function _msgSender() internal view virtual returns (address) {... */\n    tag_71:\n        /* \"lesson3/FundTokenERC20_flattened.sol\":4263:4270  address */\n      0x00\n        /* \"lesson3/FundTokenERC20_flattened.sol\":4289:4299  msg.sender */\n      caller\n        /* \"lesson3/FundTokenERC20_flattened.sol\":4282:4299  return msg.sender */\n      swap1\n      pop\n        /* \"lesson3/FundTokenERC20_flattened.sol\":4210:4306  function _msgSender() internal view virtual returns (address) {... */\n      swap1\n      jump\t// out\n        /* \"lesson3/FundTokenERC20_flattened.sol\":19532:19660  function _approve(address owner, address spender, uint256 value) internal {... */\n    tag_73:\n        /* \"lesson3/FundTokenERC20_flattened.sol\":19616:19653  _approve(owner, spender, value, true) */\n      tag_139\n        /* \"lesson3/FundTokenERC20_flattened.sol\":19625:19630  owner */\n      dup4\n        /* \"lesson3/FundTokenERC20_flattened.sol\":19632:19639  spender */\n      dup4\n        /* \"lesson3/FundTokenERC20_flattened.sol\":19641:19646  value */\n      dup4\n        /* \"lesson3/FundTokenERC20_flattened.sol\":19648:19652  true */\n      0x01\n        /* \"lesson3/FundTokenERC20_flattened.sol\":19616:19624  _approve */\n      tag_140\n        /* \"lesson3/FundTokenERC20_flattened.sol\":19616:19653  _approve(owner, spender, value, true) */\n      jump\t// in\n    tag_139:\n        /* \"lesson3/FundTokenERC20_flattened.sol\":19532:19660  function _approve(address owner, address spender, uint256 value) internal {... */\n      pop\n      pop\n      pop\n      jump\t// out\n        /* \"lesson3/FundTokenERC20_flattened.sol\":21221:21697  function _spendAllowance(address owner, address spender, uint256 value) internal virtual {... */\n    tag_78:\n        /* \"lesson3/FundTokenERC20_flattened.sol\":21320:21344  uint256 currentAllowance */\n      0x00\n        /* \"lesson3/FundTokenERC20_flattened.sol\":21347:21372  allowance(owner, spender) */\n      tag_142\n        /* \"lesson3/FundTokenERC20_flattened.sol\":21357:21362  owner */\n      dup5\n        /* \"lesson3/FundTokenERC20_flattened.sol\":21364:21371  spender */\n      dup5\n        /* \"lesson3/FundTokenERC20_flattened.sol\":21347:21356  allowance */\n      tag_60\n        /* \"lesson3/FundTokenERC20_flattened.sol\":21347:21372  allowance(owner, spender) */\n      jump\t// in\n    tag_142:\n        /* \"lesson3/FundTokenERC20_flattened.sol\":21320:21372  uint256 currentAllowance = allowance(owner, spender) */\n      swap1\n      pop\n        /* \"lesson3/FundTokenERC20_flattened.sol\":21405:21422  type(uint256).max */\n      0xffffffffffffffffffffffffffffffffffffffffffffffffffffffffffffffff\n        /* \"lesson3/FundTokenERC20_flattened.sol\":21386:21402  currentAllowance */\n      dup2\n        /* \"lesson3/FundTokenERC20_flattened.sol\":21386:21422  currentAllowance < type(uint256).max */\n      lt\n        /* \"lesson3/FundTokenERC20_flattened.sol\":21382:21691  if (currentAllowance < type(uint256).max) {... */\n      iszero\n      tag_143\n      jumpi\n        /* \"lesson3/FundTokenERC20_flattened.sol\":21461:21466  value */\n      dup2\n        /* \"lesson3/FundTokenERC20_flattened.sol\":21442:21458  currentAllowance */\n      dup2\n        /* \"lesson3/FundTokenERC20_flattened.sol\":21442:21466  currentAllowance < value */\n      lt\n        /* \"lesson3/FundTokenERC20_flattened.sol\":21438:21568  if (currentAllowance < value) {... */\n      iszero\n      tag_144\n      jumpi\n        /* \"lesson3/FundTokenERC20_flattened.sol\":21520:21527  spender */\n      dup3\n        /* \"lesson3/FundTokenERC20_flattened.sol\":21529:21545  currentAllowance */\n      dup2\n        /* \"lesson3/FundTokenERC20_flattened.sol\":21547:21552  value */\n      dup4\n        /* \"lesson3/FundTokenERC20_flattened.sol\":21493:21553  ERC20InsufficientAllowance(spender, currentAllowance, value) */\n      mload(0x40)\n      0xfb8f41b200000000000000000000000000000000000000000000000000000000\n      dup2\n      mstore\n      0x04\n      add\n      tag_145\n      swap4\n      swap3\n      swap2\n      swap1\n      tag_146\n      jump\t// in\n    tag_145:\n      mload(0x40)\n      dup1\n      swap2\n      sub\n      swap1\n      revert\n        /* \"lesson3/FundTokenERC20_flattened.sol\":21438:21568  if (currentAllowance < value) {... */\n    tag_144:\n        /* \"lesson3/FundTokenERC20_flattened.sol\":21609:21666  _approve(owner, spender, currentAllowance - value, false) */\n      tag_147\n        /* \"lesson3/FundTokenERC20_flattened.sol\":21618:21623  owner */\n      dup5\n        /* \"lesson3/FundTokenERC20_flattened.sol\":21625:21632  spender */\n      dup5\n        /* \"lesson3/FundTokenERC20_flattened.sol\":21653:21658  value */\n      dup5\n        /* \"lesson3/FundTokenERC20_flattened.sol\":21634:21650  currentAllowance */\n      dup5\n        /* \"lesson3/FundTokenERC20_flattened.sol\":21634:21658  currentAllowance - value */\n      sub\n        /* \"lesson3/FundTokenERC20_flattened.sol\":21660:21665  false */\n      0x00\n        /* \"lesson3/FundTokenERC20_flattened.sol\":21609:21617  _approve */\n      tag_140\n        /* \"lesson3/FundTokenERC20_flattened.sol\":21609:21666  _approve(owner, spender, currentAllowance - value, false) */\n      jump\t// in\n    tag_147:\n        /* \"lesson3/FundTokenERC20_flattened.sol\":21382:21691  if (currentAllowance < type(uint256).max) {... */\n    tag_143:\n        /* \"lesson3/FundTokenERC20_flattened.sol\":21310:21697  {... */\n      pop\n        /* \"lesson3/FundTokenERC20_flattened.sol\":21221:21697  function _spendAllowance(address owner, address spender, uint256 value) internal virtual {... */\n      pop\n      pop\n      pop\n      jump\t// out\n        /* \"lesson3/FundTokenERC20_flattened.sol\":16199:16499  function _transfer(address from, address to, uint256 value) internal {... */\n    tag_80:\n        /* \"lesson3/FundTokenERC20_flattened.sol\":16298:16299  0 */\n      0x00\n        /* \"lesson3/FundTokenERC20_flattened.sol\":16282:16300  from == address(0) */\n      0xffffffffffffffffffffffffffffffffffffffff\n      and\n        /* \"lesson3/FundTokenERC20_flattened.sol\":16282:16286  from */\n      dup4\n        /* \"lesson3/FundTokenERC20_flattened.sol\":16282:16300  from == address(0) */\n      0xffffffffffffffffffffffffffffffffffffffff\n      and\n      sub\n        /* \"lesson3/FundTokenERC20_flattened.sol\":16278:16364  if (from == address(0)) {... */\n      tag_149\n      jumpi\n        /* \"lesson3/FundTokenERC20_flattened.sol\":16350:16351  0 */\n      0x00\n        /* \"lesson3/FundTokenERC20_flattened.sol\":16323:16353  ERC20InvalidSender(address(0)) */\n      mload(0x40)\n      0x96c6fd1e00000000000000000000000000000000000000000000000000000000\n      dup2\n      mstore\n      0x04\n      add\n      tag_150\n      swap2\n      swap1\n      tag_112\n      jump\t// in\n    tag_150:\n      mload(0x40)\n      dup1\n      swap2\n      sub\n      swap1\n      revert\n        /* \"lesson3/FundTokenERC20_flattened.sol\":16278:16364  if (from == address(0)) {... */\n    tag_149:\n        /* \"lesson3/FundTokenERC20_flattened.sol\":16391:16392  0 */\n      0x00\n        /* \"lesson3/FundTokenERC20_flattened.sol\":16377:16393  to == address(0) */\n      0xffffffffffffffffffffffffffffffffffffffff\n      and\n        /* \"lesson3/FundTokenERC20_flattened.sol\":16377:16379  to */\n      dup3\n        /* \"lesson3/FundTokenERC20_flattened.sol\":16377:16393  to == address(0) */\n      0xffffffffffffffffffffffffffffffffffffffff\n      and\n      sub\n        /* \"lesson3/FundTokenERC20_flattened.sol\":16373:16459  if (to == address(0)) {... */\n      tag_151\n      jumpi\n        /* \"lesson3/FundTokenERC20_flattened.sol\":16445:16446  0 */\n      0x00\n        /* \"lesson3/FundTokenERC20_flattened.sol\":16416:16448  ERC20InvalidReceiver(address(0)) */\n      mload(0x40)\n      0xec442f0500000000000000000000000000000000000000000000000000000000\n      dup2\n      mstore\n      0x04\n      add\n      tag_152\n      swap2\n      swap1\n      tag_112\n      jump\t// in\n    tag_152:\n      mload(0x40)\n      dup1\n      swap2\n      sub\n      swap1\n      revert\n        /* \"lesson3/FundTokenERC20_flattened.sol\":16373:16459  if (to == address(0)) {... */\n    tag_151:\n        /* \"lesson3/FundTokenERC20_flattened.sol\":16468:16492  _update(from, to, value) */\n      tag_153\n        /* \"lesson3/FundTokenERC20_flattened.sol\":16476:16480  from */\n      dup4\n        /* \"lesson3/FundTokenERC20_flattened.sol\":16482:16484  to */\n      dup4\n        /* \"lesson3/FundTokenERC20_flattened.sol\":16486:16491  value */\n      dup4\n        /* \"lesson3/FundTokenERC20_flattened.sol\":16468:16475  _update */\n      tag_154\n        /* \"lesson3/FundTokenERC20_flattened.sol\":16468:16492  _update(from, to, value) */\n      jump\t// in\n    tag_153:\n        /* \"lesson3/FundTokenERC20_flattened.sol\":16199:16499  function _transfer(address from, address to, uint256 value) internal {... */\n      pop\n      pop\n      pop\n      jump\t// out\n        /* \"lesson3/FundTokenERC20_flattened.sol\":18790:18996  function _burn(address account, uint256 value) internal {... */\n    tag_96:\n        /* \"lesson3/FundTokenERC20_flattened.sol\":18879:18880  0 */\n      0x00\n        /* \"lesson3/FundTokenERC20_flattened.sol\":18860:18881  account == address(0) */\n      0xffffffffffffffffffffffffffffffffffffffff\n      and\n        /* \"lesson3/FundTokenERC20_flattened.sol\":18860:18867  account */\n      dup3\n        /* \"lesson3/FundTokenERC20_flattened.sol\":18860:18881  account == address(0) */\n      0xffffffffffffffffffffffffffffffffffffffff\n      and\n      sub\n        /* \"lesson3/FundTokenERC20_flattened.sol\":18856:18945  if (account == address(0)) {... */\n      tag_156\n      jumpi\n        /* \"lesson3/FundTokenERC20_flattened.sol\":18931:18932  0 */\n      0x00\n        /* \"lesson3/FundTokenERC20_flattened.sol\":18904:18934  ERC20InvalidSender(address(0)) */\n      mload(0x40)\n      0x96c6fd1e00000000000000000000000000000000000000000000000000000000\n      dup2\n      mstore\n      0x04\n      add\n      tag_157\n      swap2\n      swap1\n      tag_112\n      jump\t// in\n    tag_157:\n      mload(0x40)\n      dup1\n      swap2\n      sub\n      swap1\n      revert\n        /* \"lesson3/FundTokenERC20_flattened.sol\":18856:18945  if (account == address(0)) {... */\n    tag_156:\n        /* \"lesson3/FundTokenERC20_flattened.sol\":18954:18989  _update(account, address(0), value) */\n      tag_158\n        /* \"lesson3/FundTokenERC20_flattened.sol\":18962:18969  account */\n      dup3\n        /* \"lesson3/FundTokenERC20_flattened.sol\":18979:18980  0 */\n      0x00\n        /* \"lesson3/FundTokenERC20_flattened.sol\":18983:18988  value */\n      dup4\n        /* \"lesson3/FundTokenERC20_flattened.sol\":18954:18961  _update */\n      tag_154\n        /* \"lesson3/FundTokenERC20_flattened.sol\":18954:18989  _update(account, address(0), value) */\n      jump\t// in\n    tag_158:\n        /* \"lesson3/FundTokenERC20_flattened.sol\":18790:18996  function _burn(address account, uint256 value) internal {... */\n      pop\n      pop\n      jump\t// out\n        /* \"lesson3/FundTokenERC20_flattened.sol\":18264:18472  function _mint(address account, uint256 value) internal {... */\n    tag_121:\n        /* \"lesson3/FundTokenERC20_flattened.sol\":18353:18354  0 */\n      0x00\n        /* \"lesson3/FundTokenERC20_flattened.sol\":18334:18355  account == address(0) */\n      0xffffffffffffffffffffffffffffffffffffffff\n      and\n        /* \"lesson3/FundTokenERC20_flattened.sol\":18334:18341  account */\n      dup3\n        /* \"lesson3/FundTokenERC20_flattened.sol\":18334:18355  account == address(0) */\n      0xffffffffffffffffffffffffffffffffffffffff\n      and\n      sub\n        /* \"lesson3/FundTokenERC20_flattened.sol\":18330:18421  if (account == address(0)) {... */\n      tag_160\n      jumpi\n        /* \"lesson3/FundTokenERC20_flattened.sol\":18407:18408  0 */\n      0x00\n        /* \"lesson3/FundTokenERC20_flattened.sol\":18378:18410  ERC20InvalidReceiver(address(0)) */\n      mload(0x40)\n      0xec442f0500000000000000000000000000000000000000000000000000000000\n      dup2\n      mstore\n      0x04\n      add\n      tag_161\n      swap2\n      swap1\n      tag_112\n      jump\t// in\n    tag_161:\n      mload(0x40)\n      dup1\n      swap2\n      sub\n      swap1\n      revert\n        /* \"lesson3/FundTokenERC20_flattened.sol\":18330:18421  if (account == address(0)) {... */\n    tag_160:\n        /* \"lesson3/FundTokenERC20_flattened.sol\":18430:18465  _update(address(0), account, value) */\n      tag_162\n        /* \"lesson3/FundTokenERC20_flattened.sol\":18446:18447  0 */\n      0x00\n        /* \"lesson3/FundTokenERC20_flattened.sol\":18450:18457  account */\n      dup4\n        /* \"lesson3/FundTokenERC20_flattened.sol\":18459:18464  value */\n      dup4\n        /* \"lesson3/FundTokenERC20_flattened.sol\":18430:18437  _update */\n      tag_154\n        /* \"lesson3/FundTokenERC20_flattened.sol\":18430:18465  _update(address(0), account, value) */\n      jump\t// in\n    tag_162:\n        /* \"lesson3/FundTokenERC20_flattened.sol\":18264:18472  function _mint(address account, uint256 value) internal {... */\n      pop\n      pop\n      jump\t// out\n        /* \"lesson3/FundTokenERC20_flattened.sol\":20507:20939  function _approve(address owner, address spender, uint256 value, bool emitEvent) internal virtual {... */\n    tag_140:\n        /* \"lesson3/FundTokenERC20_flattened.sol\":20636:20637  0 */\n      0x00\n        /* \"lesson3/FundTokenERC20_flattened.sol\":20619:20638  owner == address(0) */\n      0xffffffffffffffffffffffffffffffffffffffff\n      and\n        /* \"lesson3/FundTokenERC20_flattened.sol\":20619:20624  owner */\n      dup5\n        /* \"lesson3/FundTokenERC20_flattened.sol\":20619:20638  owner == address(0) */\n      0xffffffffffffffffffffffffffffffffffffffff\n      and\n      sub\n        /* \"lesson3/FundTokenERC20_flattened.sol\":20615:20704  if (owner == address(0)) {... */\n      tag_164\n      jumpi\n        /* \"lesson3/FundTokenERC20_flattened.sol\":20690:20691  0 */\n      0x00\n        /* \"lesson3/FundTokenERC20_flattened.sol\":20661:20693  ERC20InvalidApprover(address(0)) */\n      mload(0x40)\n      0xe602df0500000000000000000000000000000000000000000000000000000000\n      dup2\n      mstore\n      0x04\n      add\n      tag_165\n      swap2\n      swap1\n      tag_112\n      jump\t// in\n    tag_165:\n      mload(0x40)\n      dup1\n      swap2\n      sub\n      swap1\n      revert\n        /* \"lesson3/FundTokenERC20_flattened.sol\":20615:20704  if (owner == address(0)) {... */\n    tag_164:\n        /* \"lesson3/FundTokenERC20_flattened.sol\":20736:20737  0 */\n      0x00\n        /* \"lesson3/FundTokenERC20_flattened.sol\":20717:20738  spender == address(0) */\n      0xffffffffffffffffffffffffffffffffffffffff\n      and\n        /* \"lesson3/FundTokenERC20_flattened.sol\":20717:20724  spender */\n      dup4\n        /* \"lesson3/FundTokenERC20_flattened.sol\":20717:20738  spender == address(0) */\n      0xffffffffffffffffffffffffffffffffffffffff\n      and\n      sub\n        /* \"lesson3/FundTokenERC20_flattened.sol\":20713:20803  if (spender == address(0)) {... */\n      tag_166\n      jumpi\n        /* \"lesson3/FundTokenERC20_flattened.sol\":20789:20790  0 */\n      0x00\n        /* \"lesson3/FundTokenERC20_flattened.sol\":20761:20792  ERC20InvalidSpender(address(0)) */\n      mload(0x40)\n      0x94280d6200000000000000000000000000000000000000000000000000000000\n      dup2\n      mstore\n      0x04\n      add\n      tag_167\n      swap2\n      swap1\n      tag_112\n      jump\t// in\n    tag_167:\n      mload(0x40)\n      dup1\n      swap2\n      sub\n      swap1\n      revert\n        /* \"lesson3/FundTokenERC20_flattened.sol\":20713:20803  if (spender == address(0)) {... */\n    tag_166:\n        /* \"lesson3/FundTokenERC20_flattened.sol\":20842:20847  value */\n      dup2\n        /* \"lesson3/FundTokenERC20_flattened.sol\":20812:20823  _allowances */\n      0x01\n        /* \"lesson3/FundTokenERC20_flattened.sol\":20812:20830  _allowances[owner] */\n      0x00\n        /* \"lesson3/FundTokenERC20_flattened.sol\":20824:20829  owner */\n      dup7\n        /* \"lesson3/FundTokenERC20_flattened.sol\":20812:20830  _allowances[owner] */\n      0xffffffffffffffffffffffffffffffffffffffff\n      and\n      0xffffffffffffffffffffffffffffffffffffffff\n      and\n      dup2\n      mstore\n      0x20\n      add\n      swap1\n      dup2\n      mstore\n      0x20\n      add\n      0x00\n      keccak256\n        /* \"lesson3/FundTokenERC20_flattened.sol\":20812:20839  _allowances[owner][spender] */\n      0x00\n        /* \"lesson3/FundTokenERC20_flattened.sol\":20831:20838  spender */\n      dup6\n        /* \"lesson3/FundTokenERC20_flattened.sol\":20812:20839  _allowances[owner][spender] */\n      0xffffffffffffffffffffffffffffffffffffffff\n      and\n      0xffffffffffffffffffffffffffffffffffffffff\n      and\n      dup2\n      mstore\n      0x20\n      add\n      swap1\n      dup2\n      mstore\n      0x20\n      add\n      0x00\n      keccak256\n        /* \"lesson3/FundTokenERC20_flattened.sol\":20812:20847  _allowances[owner][spender] = value */\n      dup2\n      swap1\n      sstore\n      pop\n        /* \"lesson3/FundTokenERC20_flattened.sol\":20861:20870  emitEvent */\n      dup1\n        /* \"lesson3/FundTokenERC20_flattened.sol\":20857:20933  if (emitEvent) {... */\n      iszero\n      tag_168\n      jumpi\n        /* \"lesson3/FundTokenERC20_flattened.sol\":20907:20914  spender */\n      dup3\n        /* \"lesson3/FundTokenERC20_flattened.sol\":20891:20922  Approval(owner, spender, value) */\n      0xffffffffffffffffffffffffffffffffffffffff\n      and\n        /* \"lesson3/FundTokenERC20_flattened.sol\":20900:20905  owner */\n      dup5\n        /* \"lesson3/FundTokenERC20_flattened.sol\":20891:20922  Approval(owner, spender, value) */\n      0xffffffffffffffffffffffffffffffffffffffff\n      and\n      0x8c5be1e5ebec7d5bd14f71427d1e84f3dd0314c0f7b2291e5b200ac8c7c3b925\n        /* \"lesson3/FundTokenERC20_flattened.sol\":20916:20921  value */\n      dup5\n        /* \"lesson3/FundTokenERC20_flattened.sol\":20891:20922  Approval(owner, spender, value) */\n      mload(0x40)\n      tag_169\n      swap2\n      swap1\n      tag_28\n      jump\t// in\n    tag_169:\n      mload(0x40)\n      dup1\n      swap2\n      sub\n      swap1\n      log3\n        /* \"lesson3/FundTokenERC20_flattened.sol\":20857:20933  if (emitEvent) {... */\n    tag_168:\n        /* \"lesson3/FundTokenERC20_flattened.sol\":20507:20939  function _approve(address owner, address spender, uint256 value, bool emitEvent) internal virtual {... */\n      pop\n      pop\n      pop\n      pop\n      jump\t// out\n        /* \"lesson3/FundTokenERC20_flattened.sol\":16814:17921  function _update(address from, address to, uint256 value) internal virtual {... */\n    tag_154:\n        /* \"lesson3/FundTokenERC20_flattened.sol\":16919:16920  0 */\n      0x00\n        /* \"lesson3/FundTokenERC20_flattened.sol\":16903:16921  from == address(0) */\n      0xffffffffffffffffffffffffffffffffffffffff\n      and\n        /* \"lesson3/FundTokenERC20_flattened.sol\":16903:16907  from */\n      dup4\n        /* \"lesson3/FundTokenERC20_flattened.sol\":16903:16921  from == address(0) */\n      0xffffffffffffffffffffffffffffffffffffffff\n      and\n      sub\n        /* \"lesson3/FundTokenERC20_flattened.sol\":16899:17439  if (from == address(0)) {... */\n      tag_171\n      jumpi\n        /* \"lesson3/FundTokenERC20_flattened.sol\":17055:17060  value */\n      dup1\n        /* \"lesson3/FundTokenERC20_flattened.sol\":17039:17051  _totalSupply */\n      0x02\n      0x00\n        /* \"lesson3/FundTokenERC20_flattened.sol\":17039:17060  _totalSupply += value */\n      dup3\n      dup3\n      sload\n      tag_172\n      swap2\n      swap1\n      tag_173\n      jump\t// in\n    tag_172:\n      swap3\n      pop\n      pop\n      dup2\n      swap1\n      sstore\n      pop\n        /* \"lesson3/FundTokenERC20_flattened.sol\":16899:17439  if (from == address(0)) {... */\n      jump(tag_174)\n    tag_171:\n        /* \"lesson3/FundTokenERC20_flattened.sol\":17091:17110  uint256 fromBalance */\n      0x00\n        /* \"lesson3/FundTokenERC20_flattened.sol\":17113:17122  _balances */\n      dup1\n        /* \"lesson3/FundTokenERC20_flattened.sol\":17113:17128  _balances[from] */\n      0x00\n        /* \"lesson3/FundTokenERC20_flattened.sol\":17123:17127  from */\n      dup6\n        /* \"lesson3/FundTokenERC20_flattened.sol\":17113:17128  _balances[from] */\n      0xffffffffffffffffffffffffffffffffffffffff\n      and\n      0xffffffffffffffffffffffffffffffffffffffff\n      and\n      dup2\n      mstore\n      0x20\n      add\n      swap1\n      dup2\n      mstore\n      0x20\n      add\n      0x00\n      keccak256\n      sload\n        /* \"lesson3/FundTokenERC20_flattened.sol\":17091:17128  uint256 fromBalance = _balances[from] */\n      swap1\n      pop\n        /* \"lesson3/FundTokenERC20_flattened.sol\":17160:17165  value */\n      dup2\n        /* \"lesson3/FundTokenERC20_flattened.sol\":17146:17157  fromBalance */\n      dup2\n        /* \"lesson3/FundTokenERC20_flattened.sol\":17146:17165  fromBalance < value */\n      lt\n        /* \"lesson3/FundTokenERC20_flattened.sol\":17142:17257  if (fromBalance < value) {... */\n      iszero\n      tag_175\n      jumpi\n        /* \"lesson3/FundTokenERC20_flattened.sol\":17217:17221  from */\n      dup4\n        /* \"lesson3/FundTokenERC20_flattened.sol\":17223:17234  fromBalance */\n      dup2\n        /* \"lesson3/FundTokenERC20_flattened.sol\":17236:17241  value */\n      dup4\n        /* \"lesson3/FundTokenERC20_flattened.sol\":17192:17242  ERC20InsufficientBalance(from, fromBalance, value) */\n      mload(0x40)\n      0xe450d38c00000000000000000000000000000000000000000000000000000000\n      dup2\n      mstore\n      0x04\n      add\n      tag_176\n      swap4\n      swap3\n      swap2\n      swap1\n      tag_146\n      jump\t// in\n    tag_176:\n      mload(0x40)\n      dup1\n      swap2\n      sub\n      swap1\n      revert\n        /* \"lesson3/FundTokenERC20_flattened.sol\":17142:17257  if (fromBalance < value) {... */\n    tag_175:\n        /* \"lesson3/FundTokenERC20_flattened.sol\":17409:17414  value */\n      dup2\n        /* \"lesson3/FundTokenERC20_flattened.sol\":17395:17406  fromBalance */\n      dup2\n        /* \"lesson3/FundTokenERC20_flattened.sol\":17395:17414  fromBalance - value */\n      sub\n        /* \"lesson3/FundTokenERC20_flattened.sol\":17377:17386  _balances */\n      0x00\n        /* \"lesson3/FundTokenERC20_flattened.sol\":17377:17392  _balances[from] */\n      dup1\n        /* \"lesson3/FundTokenERC20_flattened.sol\":17387:17391  from */\n      dup7\n        /* \"lesson3/FundTokenERC20_flattened.sol\":17377:17392  _balances[from] */\n      0xffffffffffffffffffffffffffffffffffffffff\n      and\n      0xffffffffffffffffffffffffffffffffffffffff\n      and\n      dup2\n      mstore\n      0x20\n      add\n      swap1\n      dup2\n      mstore\n      0x20\n      add\n      0x00\n      keccak256\n        /* \"lesson3/FundTokenERC20_flattened.sol\":17377:17414  _balances[from] = fromBalance - value */\n      dup2\n      swap1\n      sstore\n      pop\n        /* \"lesson3/FundTokenERC20_flattened.sol\":17077:17439  {... */\n      pop\n        /* \"lesson3/FundTokenERC20_flattened.sol\":16899:17439  if (from == address(0)) {... */\n    tag_174:\n        /* \"lesson3/FundTokenERC20_flattened.sol\":17467:17468  0 */\n      0x00\n        /* \"lesson3/FundTokenERC20_flattened.sol\":17453:17469  to == address(0) */\n      0xffffffffffffffffffffffffffffffffffffffff\n      and\n        /* \"lesson3/FundTokenERC20_flattened.sol\":17453:17455  to */\n      dup3\n        /* \"lesson3/FundTokenERC20_flattened.sol\":17453:17469  to == address(0) */\n      0xffffffffffffffffffffffffffffffffffffffff\n      and\n      sub\n        /* \"lesson3/FundTokenERC20_flattened.sol\":17449:17874  if (to == address(0)) {... */\n      tag_177\n      jumpi\n        /* \"lesson3/FundTokenERC20_flattened.sol\":17632:17637  value */\n      dup1\n        /* \"lesson3/FundTokenERC20_flattened.sol\":17616:17628  _totalSupply */\n      0x02\n      0x00\n        /* \"lesson3/FundTokenERC20_flattened.sol\":17616:17637  _totalSupply -= value */\n      dup3\n      dup3\n      sload\n      sub\n      swap3\n      pop\n      pop\n      dup2\n      swap1\n      sstore\n      pop\n        /* \"lesson3/FundTokenERC20_flattened.sol\":17449:17874  if (to == address(0)) {... */\n      jump(tag_178)\n    tag_177:\n        /* \"lesson3/FundTokenERC20_flattened.sol\":17844:17849  value */\n      dup1\n        /* \"lesson3/FundTokenERC20_flattened.sol\":17827:17836  _balances */\n      0x00\n        /* \"lesson3/FundTokenERC20_flattened.sol\":17827:17840  _balances[to] */\n      dup1\n        /* \"lesson3/FundTokenERC20_flattened.sol\":17837:17839  to */\n      dup5\n        /* \"lesson3/FundTokenERC20_flattened.sol\":17827:17840  _balances[to] */\n      0xffffffffffffffffffffffffffffffffffffffff\n      and\n      0xffffffffffffffffffffffffffffffffffffffff\n      and\n      dup2\n      mstore\n      0x20\n      add\n      swap1\n      dup2\n      mstore\n      0x20\n      add\n      0x00\n      keccak256\n      0x00\n        /* \"lesson3/FundTokenERC20_flattened.sol\":17827:17849  _balances[to] += value */\n      dup3\n      dup3\n      sload\n      add\n      swap3\n      pop\n      pop\n      dup2\n      swap1\n      sstore\n      pop\n        /* \"lesson3/FundTokenERC20_flattened.sol\":17449:17874  if (to == address(0)) {... */\n    tag_178:\n        /* \"lesson3/FundTokenERC20_flattened.sol\":17904:17906  to */\n      dup2\n        /* \"lesson3/FundTokenERC20_flattened.sol\":17889:17914  Transfer(from, to, value) */\n      0xffffffffffffffffffffffffffffffffffffffff\n      and\n        /* \"lesson3/FundTokenERC20_flattened.sol\":17898:17902  from */\n      dup4\n        /* \"lesson3/FundTokenERC20_flattened.sol\":17889:17914  Transfer(from, to, value) */\n      0xffffffffffffffffffffffffffffffffffffffff\n      and\n      0xddf252ad1be2c89b69c2b068fc378daa952ba7f163c4a11628f55a4df523b3ef\n        /* \"lesson3/FundTokenERC20_flattened.sol\":17908:17913  value */\n      dup4\n        /* \"lesson3/FundTokenERC20_flattened.sol\":17889:17914  Transfer(from, to, value) */\n      mload(0x40)\n      tag_179\n      swap2\n      swap1\n      tag_28\n      jump\t// in\n    tag_179:\n      mload(0x40)\n      dup1\n      swap2\n      sub\n      swap1\n      log3\n        /* \"lesson3/FundTokenERC20_flattened.sol\":16814:17921  function _update(address from, address to, uint256 value) internal virtual {... */\n      pop\n      pop\n      pop\n      jump\t// out\n        /* \"#utility.yul\":7:106   */\n    tag_180:\n        /* \"#utility.yul\":59:65   */\n      0x00\n        /* \"#utility.yul\":93:98   */\n      dup2\n        /* \"#utility.yul\":87:99   */\n      mload\n        /* \"#utility.yul\":77:99   */\n      swap1\n      pop\n        /* \"#utility.yul\":7:106   */\n      swap2\n      swap1\n      pop\n      jump\t// out\n        /* \"#utility.yul\":112:281   */\n    tag_181:\n        /* \"#utility.yul\":196:207   */\n      0x00\n        /* \"#utility.yul\":230:236   */\n      dup3\n        /* \"#utility.yul\":225:228   */\n      dup3\n        /* \"#utility.yul\":218:237   */\n      mstore\n        /* \"#utility.yul\":270:274   */\n      0x20\n        /* \"#utility.yul\":265:268   */\n      dup3\n        /* \"#utility.yul\":261:275   */\n      add\n        /* \"#utility.yul\":246:275   */\n      swap1\n      pop\n        /* \"#utility.yul\":112:281   */\n      swap3\n      swap2\n      pop\n      pop\n      jump\t// out\n        /* \"#utility.yul\":287:533   */\n    tag_182:\n        /* \"#utility.yul\":368:369   */\n      0x00\n        /* \"#utility.yul\":378:491   */\n    tag_216:\n        /* \"#utility.yul\":392:398   */\n      dup4\n        /* \"#utility.yul\":389:390   */\n      dup2\n        /* \"#utility.yul\":386:399   */\n      lt\n        /* \"#utility.yul\":378:491   */\n      iszero\n      tag_218\n      jumpi\n        /* \"#utility.yul\":477:478   */\n      dup1\n        /* \"#utility.yul\":472:475   */\n      dup3\n        /* \"#utility.yul\":468:479   */\n      add\n        /* \"#utility.yul\":462:480   */\n      mload\n        /* \"#utility.yul\":458:459   */\n      dup2\n        /* \"#utility.yul\":453:456   */\n      dup5\n        /* \"#utility.yul\":449:460   */\n      add\n        /* \"#utility.yul\":442:481   */\n      mstore\n        /* \"#utility.yul\":414:416   */\n      0x20\n        /* \"#utility.yul\":411:412   */\n      dup2\n        /* \"#utility.yul\":407:417   */\n      add\n        /* \"#utility.yul\":402:417   */\n      swap1\n      pop\n        /* \"#utility.yul\":378:491   */\n      jump(tag_216)\n    tag_218:\n        /* \"#utility.yul\":525:526   */\n      0x00\n        /* \"#utility.yul\":516:522   */\n      dup5\n        /* \"#utility.yul\":511:514   */\n      dup5\n        /* \"#utility.yul\":507:523   */\n      add\n        /* \"#utility.yul\":500:527   */\n      mstore\n        /* \"#utility.yul\":349:533   */\n      pop\n        /* \"#utility.yul\":287:533   */\n      pop\n      pop\n      pop\n      jump\t// out\n        /* \"#utility.yul\":539:641   */\n    tag_183:\n        /* \"#utility.yul\":580:586   */\n      0x00\n        /* \"#utility.yul\":631:633   */\n      0x1f\n        /* \"#utility.yul\":627:634   */\n      not\n        /* \"#utility.yul\":622:624   */\n      0x1f\n        /* \"#utility.yul\":615:620   */\n      dup4\n        /* \"#utility.yul\":611:625   */\n      add\n        /* \"#utility.yul\":607:635   */\n      and\n        /* \"#utility.yul\":597:635   */\n      swap1\n      pop\n        /* \"#utility.yul\":539:641   */\n      swap2\n      swap1\n      pop\n      jump\t// out\n        /* \"#utility.yul\":647:1024   */\n    tag_184:\n        /* \"#utility.yul\":735:738   */\n      0x00\n        /* \"#utility.yul\":763:802   */\n      tag_221\n        /* \"#utility.yul\":796:801   */\n      dup3\n        /* \"#utility.yul\":763:802   */\n      tag_180\n      jump\t// in\n    tag_221:\n        /* \"#utility.yul\":818:889   */\n      tag_222\n        /* \"#utility.yul\":882:888   */\n      dup2\n        /* \"#utility.yul\":877:880   */\n      dup6\n        /* \"#utility.yul\":818:889   */\n      tag_181\n      jump\t// in\n    tag_222:\n        /* \"#utility.yul\":811:889   */\n      swap4\n      pop\n        /* \"#utility.yul\":898:963   */\n      tag_223\n        /* \"#utility.yul\":956:962   */\n      dup2\n        /* \"#utility.yul\":951:954   */\n      dup6\n        /* \"#utility.yul\":944:948   */\n      0x20\n        /* \"#utility.yul\":937:942   */\n      dup7\n        /* \"#utility.yul\":933:949   */\n      add\n        /* \"#utility.yul\":898:963   */\n      tag_182\n      jump\t// in\n    tag_223:\n        /* \"#utility.yul\":988:1017   */\n      tag_224\n        /* \"#utility.yul\":1010:1016   */\n      dup2\n        /* \"#utility.yul\":988:1017   */\n      tag_183\n      jump\t// in\n    tag_224:\n        /* \"#utility.yul\":983:986   */\n      dup5\n        /* \"#utility.yul\":979:1018   */\n      add\n        /* \"#utility.yul\":972:1018   */\n      swap2\n      pop\n        /* \"#utility.yul\":739:1024   */\n      pop\n        /* \"#utility.yul\":647:1024   */\n      swap3\n      swap2\n      pop\n      pop\n      jump\t// out\n        /* \"#utility.yul\":1030:1343   */\n    tag_18:\n        /* \"#utility.yul\":1143:1147   */\n      0x00\n        /* \"#utility.yul\":1181:1183   */\n      0x20\n        /* \"#utility.yul\":1170:1179   */\n      dup3\n        /* \"#utility.yul\":1166:1184   */\n      add\n        /* \"#utility.yul\":1158:1184   */\n      swap1\n      pop\n        /* \"#utility.yul\":1230:1239   */\n      dup2\n        /* \"#utility.yul\":1224:1228   */\n      dup2\n        /* \"#utility.yul\":1220:1240   */\n      sub\n        /* \"#utility.yul\":1216:1217   */\n      0x00\n        /* \"#utility.yul\":1205:1214   */\n      dup4\n        /* \"#utility.yul\":1201:1218   */\n      add\n        /* \"#utility.yul\":1194:1241   */\n      mstore\n        /* \"#utility.yul\":1258:1336   */\n      tag_226\n        /* \"#utility.yul\":1331:1335   */\n      dup2\n        /* \"#utility.yul\":1322:1328   */\n      dup5\n        /* \"#utility.yul\":1258:1336   */\n      tag_184\n      jump\t// in\n    tag_226:\n        /* \"#utility.yul\":1250:1336   */\n      swap1\n      pop\n        /* \"#utility.yul\":1030:1343   */\n      swap3\n      swap2\n      pop\n      pop\n      jump\t// out\n        /* \"#utility.yul\":1430:1547   */\n    tag_186:\n        /* \"#utility.yul\":1539:1540   */\n      0x00\n        /* \"#utility.yul\":1536:1537   */\n      dup1\n        /* \"#utility.yul\":1529:1541   */\n      revert\n        /* \"#utility.yul\":1676:1802   */\n    tag_188:\n        /* \"#utility.yul\":1713:1720   */\n      0x00\n        /* \"#utility.yul\":1753:1795   */\n      0xffffffffffffffffffffffffffffffffffffffff\n        /* \"#utility.yul\":1746:1751   */\n      dup3\n        /* \"#utility.yul\":1742:1796   */\n      and\n        /* \"#utility.yul\":1731:1796   */\n      swap1\n      pop\n        /* \"#utility.yul\":1676:1802   */\n      swap2\n      swap1\n      pop\n      jump\t// out\n        /* \"#utility.yul\":1808:1904   */\n    tag_189:\n        /* \"#utility.yul\":1845:1852   */\n      0x00\n        /* \"#utility.yul\":1874:1898   */\n      tag_232\n        /* \"#utility.yul\":1892:1897   */\n      dup3\n        /* \"#utility.yul\":1874:1898   */\n      tag_188\n      jump\t// in\n    tag_232:\n        /* \"#utility.yul\":1863:1898   */\n      swap1\n      pop\n        /* \"#utility.yul\":1808:1904   */\n      swap2\n      swap1\n      pop\n      jump\t// out\n        /* \"#utility.yul\":1910:2032   */\n    tag_190:\n        /* \"#utility.yul\":1983:2007   */\n      tag_234\n        /* \"#utility.yul\":2001:2006   */\n      dup2\n        /* \"#utility.yul\":1983:2007   */\n      tag_189\n      jump\t// in\n    tag_234:\n        /* \"#utility.yul\":1976:1981   */\n      dup2\n        /* \"#utility.yul\":1973:2008   */\n      eq\n        /* \"#utility.yul\":1963:2026   */\n      tag_235\n      jumpi\n        /* \"#utility.yul\":2022:2023   */\n      0x00\n        /* \"#utility.yul\":2019:2020   */\n      dup1\n        /* \"#utility.yul\":2012:2024   */\n      revert\n        /* \"#utility.yul\":1963:2026   */\n    tag_235:\n        /* \"#utility.yul\":1910:2032   */\n      pop\n      jump\t// out\n        /* \"#utility.yul\":2038:2177   */\n    tag_191:\n        /* \"#utility.yul\":2084:2089   */\n      0x00\n        /* \"#utility.yul\":2122:2128   */\n      dup2\n        /* \"#utility.yul\":2109:2129   */\n      calldataload\n        /* \"#utility.yul\":2100:2129   */\n      swap1\n      pop\n        /* \"#utility.yul\":2138:2171   */\n      tag_237\n        /* \"#utility.yul\":2165:2170   */\n      dup2\n        /* \"#utility.yul\":2138:2171   */\n      tag_190\n      jump\t// in\n    tag_237:\n        /* \"#utility.yul\":2038:2177   */\n      swap3\n      swap2\n      pop\n      pop\n      jump\t// out\n        /* \"#utility.yul\":2183:2260   */\n    tag_192:\n        /* \"#utility.yul\":2220:2227   */\n      0x00\n        /* \"#utility.yul\":2249:2254   */\n      dup2\n        /* \"#utility.yul\":2238:2254   */\n      swap1\n      pop\n        /* \"#utility.yul\":2183:2260   */\n      swap2\n      swap1\n      pop\n      jump\t// out\n        /* \"#utility.yul\":2266:2388   */\n    tag_193:\n        /* \"#utility.yul\":2339:2363   */\n      tag_240\n        /* \"#utility.yul\":2357:2362   */\n      dup2\n        /* \"#utility.yul\":2339:2363   */\n      tag_192\n      jump\t// in\n    tag_240:\n        /* \"#utility.yul\":2332:2337   */\n      dup2\n        /* \"#utility.yul\":2329:2364   */\n      eq\n        /* \"#utility.yul\":2319:2382   */\n      tag_241\n      jumpi\n        /* \"#utility.yul\":2378:2379   */\n      0x00\n        /* \"#utility.yul\":2375:2376   */\n      dup1\n        /* \"#utility.yul\":2368:2380   */\n      revert\n        /* \"#utility.yul\":2319:2382   */\n    tag_241:\n        /* \"#utility.yul\":2266:2388   */\n      pop\n      jump\t// out\n        /* \"#utility.yul\":2394:2533   */\n    tag_194:\n        /* \"#utility.yul\":2440:2445   */\n      0x00\n        /* \"#utility.yul\":2478:2484   */\n      dup2\n        /* \"#utility.yul\":2465:2485   */\n      calldataload\n        /* \"#utility.yul\":2456:2485   */\n      swap1\n      pop\n        /* \"#utility.yul\":2494:2527   */\n      tag_243\n        /* \"#utility.yul\":2521:2526   */\n      dup2\n        /* \"#utility.yul\":2494:2527   */\n      tag_193\n      jump\t// in\n    tag_243:\n        /* \"#utility.yul\":2394:2533   */\n      swap3\n      swap2\n      pop\n      pop\n      jump\t// out\n        /* \"#utility.yul\":2539:3013   */\n    tag_21:\n        /* \"#utility.yul\":2607:2613   */\n      0x00\n        /* \"#utility.yul\":2615:2621   */\n      dup1\n        /* \"#utility.yul\":2664:2666   */\n      0x40\n        /* \"#utility.yul\":2652:2661   */\n      dup4\n        /* \"#utility.yul\":2643:2650   */\n      dup6\n        /* \"#utility.yul\":2639:2662   */\n      sub\n        /* \"#utility.yul\":2635:2667   */\n      slt\n        /* \"#utility.yul\":2632:2751   */\n      iszero\n      tag_245\n      jumpi\n        /* \"#utility.yul\":2670:2749   */\n      tag_246\n      tag_186\n      jump\t// in\n    tag_246:\n        /* \"#utility.yul\":2632:2751   */\n    tag_245:\n        /* \"#utility.yul\":2790:2791   */\n      0x00\n        /* \"#utility.yul\":2815:2868   */\n      tag_247\n        /* \"#utility.yul\":2860:2867   */\n      dup6\n        /* \"#utility.yul\":2851:2857   */\n      dup3\n        /* \"#utility.yul\":2840:2849   */\n      dup7\n        /* \"#utility.yul\":2836:2858   */\n      add\n        /* \"#utility.yul\":2815:2868   */\n      tag_191\n      jump\t// in\n    tag_247:\n        /* \"#utility.yul\":2805:2868   */\n      swap3\n      pop\n        /* \"#utility.yul\":2761:2878   */\n      pop\n        /* \"#utility.yul\":2917:2919   */\n      0x20\n        /* \"#utility.yul\":2943:2996   */\n      tag_248\n        /* \"#utility.yul\":2988:2995   */\n      dup6\n        /* \"#utility.yul\":2979:2985   */\n      dup3\n        /* \"#utility.yul\":2968:2977   */\n      dup7\n        /* \"#utility.yul\":2964:2986   */\n      add\n        /* \"#utility.yul\":2943:2996   */\n      tag_194\n      jump\t// in\n    tag_248:\n        /* \"#utility.yul\":2933:2996   */\n      swap2\n      pop\n        /* \"#utility.yul\":2888:3006   */\n      pop\n        /* \"#utility.yul\":2539:3013   */\n      swap3\n      pop\n      swap3\n      swap1\n      pop\n      jump\t// out\n        /* \"#utility.yul\":3019:3109   */\n    tag_195:\n        /* \"#utility.yul\":3053:3060   */\n      0x00\n        /* \"#utility.yul\":3096:3101   */\n      dup2\n        /* \"#utility.yul\":3089:3102   */\n      iszero\n        /* \"#utility.yul\":3082:3103   */\n      iszero\n        /* \"#utility.yul\":3071:3103   */\n      swap1\n      pop\n        /* \"#utility.yul\":3019:3109   */\n      swap2\n      swap1\n      pop\n      jump\t// out\n        /* \"#utility.yul\":3115:3224   */\n    tag_196:\n        /* \"#utility.yul\":3196:3217   */\n      tag_251\n        /* \"#utility.yul\":3211:3216   */\n      dup2\n        /* \"#utility.yul\":3196:3217   */\n      tag_195\n      jump\t// in\n    tag_251:\n        /* \"#utility.yul\":3191:3194   */\n      dup3\n        /* \"#utility.yul\":3184:3218   */\n      mstore\n        /* \"#utility.yul\":3115:3224   */\n      pop\n      pop\n      jump\t// out\n        /* \"#utility.yul\":3230:3440   */\n    tag_24:\n        /* \"#utility.yul\":3317:3321   */\n      0x00\n        /* \"#utility.yul\":3355:3357   */\n      0x20\n        /* \"#utility.yul\":3344:3353   */\n      dup3\n        /* \"#utility.yul\":3340:3358   */\n      add\n        /* \"#utility.yul\":3332:3358   */\n      swap1\n      pop\n        /* \"#utility.yul\":3368:3433   */\n      tag_253\n        /* \"#utility.yul\":3430:3431   */\n      0x00\n        /* \"#utility.yul\":3419:3428   */\n      dup4\n        /* \"#utility.yul\":3415:3432   */\n      add\n        /* \"#utility.yul\":3406:3412   */\n      dup5\n        /* \"#utility.yul\":3368:3433   */\n      tag_196\n      jump\t// in\n    tag_253:\n        /* \"#utility.yul\":3230:3440   */\n      swap3\n      swap2\n      pop\n      pop\n      jump\t// out\n        /* \"#utility.yul\":3446:3564   */\n    tag_197:\n        /* \"#utility.yul\":3533:3557   */\n      tag_255\n        /* \"#utility.yul\":3551:3556   */\n      dup2\n        /* \"#utility.yul\":3533:3557   */\n      tag_192\n      jump\t// in\n    tag_255:\n        /* \"#utility.yul\":3528:3531   */\n      dup3\n        /* \"#utility.yul\":3521:3558   */\n      mstore\n        /* \"#utility.yul\":3446:3564   */\n      pop\n      pop\n      jump\t// out\n        /* \"#utility.yul\":3570:3792   */\n    tag_28:\n        /* \"#utility.yul\":3663:3667   */\n      0x00\n        /* \"#utility.yul\":3701:3703   */\n      0x20\n        /* \"#utility.yul\":3690:3699   */\n      dup3\n        /* \"#utility.yul\":3686:3704   */\n      add\n        /* \"#utility.yul\":3678:3704   */\n      swap1\n      pop\n        /* \"#utility.yul\":3714:3785   */\n      tag_257\n        /* \"#utility.yul\":3782:3783   */\n      0x00\n        /* \"#utility.yul\":3771:3780   */\n      dup4\n        /* \"#utility.yul\":3767:3784   */\n      add\n        /* \"#utility.yul\":3758:3764   */\n      dup5\n        /* \"#utility.yul\":3714:3785   */\n      tag_197\n      jump\t// in\n    tag_257:\n        /* \"#utility.yul\":3570:3792   */\n      swap3\n      swap2\n      pop\n      pop\n      jump\t// out\n        /* \"#utility.yul\":3798:4417   */\n    tag_31:\n        /* \"#utility.yul\":3875:3881   */\n      0x00\n        /* \"#utility.yul\":3883:3889   */\n      dup1\n        /* \"#utility.yul\":3891:3897   */\n      0x00\n        /* \"#utility.yul\":3940:3942   */\n      0x60\n        /* \"#utility.yul\":3928:3937   */\n      dup5\n        /* \"#utility.yul\":3919:3926   */\n      dup7\n        /* \"#utility.yul\":3915:3938   */\n      sub\n        /* \"#utility.yul\":3911:3943   */\n      slt\n        /* \"#utility.yul\":3908:4027   */\n      iszero\n      tag_259\n      jumpi\n        /* \"#utility.yul\":3946:4025   */\n      tag_260\n      tag_186\n      jump\t// in\n    tag_260:\n        /* \"#utility.yul\":3908:4027   */\n    tag_259:\n        /* \"#utility.yul\":4066:4067   */\n      0x00\n        /* \"#utility.yul\":4091:4144   */\n      tag_261\n        /* \"#utility.yul\":4136:4143   */\n      dup7\n        /* \"#utility.yul\":4127:4133   */\n      dup3\n        /* \"#utility.yul\":4116:4125   */\n      dup8\n        /* \"#utility.yul\":4112:4134   */\n      add\n        /* \"#utility.yul\":4091:4144   */\n      tag_191\n      jump\t// in\n    tag_261:\n        /* \"#utility.yul\":4081:4144   */\n      swap4\n      pop\n        /* \"#utility.yul\":4037:4154   */\n      pop\n        /* \"#utility.yul\":4193:4195   */\n      0x20\n        /* \"#utility.yul\":4219:4272   */\n      tag_262\n        /* \"#utility.yul\":4264:4271   */\n      dup7\n        /* \"#utility.yul\":4255:4261   */\n      dup3\n        /* \"#utility.yul\":4244:4253   */\n      dup8\n        /* \"#utility.yul\":4240:4262   */\n      add\n        /* \"#utility.yul\":4219:4272   */\n      tag_191\n      jump\t// in\n    tag_262:\n        /* \"#utility.yul\":4209:4272   */\n      swap3\n      pop\n        /* \"#utility.yul\":4164:4282   */\n      pop\n        /* \"#utility.yul\":4321:4323   */\n      0x40\n        /* \"#utility.yul\":4347:4400   */\n      tag_263\n        /* \"#utility.yul\":4392:4399   */\n      dup7\n        /* \"#utility.yul\":4383:4389   */\n      dup3\n        /* \"#utility.yul\":4372:4381   */\n      dup8\n        /* \"#utility.yul\":4368:4390   */\n      add\n        /* \"#utility.yul\":4347:4400   */\n      tag_194\n      jump\t// in\n    tag_263:\n        /* \"#utility.yul\":4337:4400   */\n      swap2\n      pop\n        /* \"#utility.yul\":4292:4410   */\n      pop\n        /* \"#utility.yul\":3798:4417   */\n      swap3\n      pop\n      swap3\n      pop\n      swap3\n      jump\t// out\n        /* \"#utility.yul\":4423:4509   */\n    tag_198:\n        /* \"#utility.yul\":4458:4465   */\n      0x00\n        /* \"#utility.yul\":4498:4502   */\n      0xff\n        /* \"#utility.yul\":4491:4496   */\n      dup3\n        /* \"#utility.yul\":4487:4503   */\n      and\n        /* \"#utility.yul\":4476:4503   */\n      swap1\n      pop\n        /* \"#utility.yul\":4423:4509   */\n      swap2\n      swap1\n      pop\n      jump\t// out\n        /* \"#utility.yul\":4515:4627   */\n    tag_199:\n        /* \"#utility.yul\":4598:4620   */\n      tag_266\n        /* \"#utility.yul\":4614:4619   */\n      dup2\n        /* \"#utility.yul\":4598:4620   */\n      tag_198\n      jump\t// in\n    tag_266:\n        /* \"#utility.yul\":4593:4596   */\n      dup3\n        /* \"#utility.yul\":4586:4621   */\n      mstore\n        /* \"#utility.yul\":4515:4627   */\n      pop\n      pop\n      jump\t// out\n        /* \"#utility.yul\":4633:4847   */\n    tag_37:\n        /* \"#utility.yul\":4722:4726   */\n      0x00\n        /* \"#utility.yul\":4760:4762   */\n      0x20\n        /* \"#utility.yul\":4749:4758   */\n      dup3\n        /* \"#utility.yul\":4745:4763   */\n      add\n        /* \"#utility.yul\":4737:4763   */\n      swap1\n      pop\n        /* \"#utility.yul\":4773:4840   */\n      tag_268\n        /* \"#utility.yul\":4837:4838   */\n      0x00\n        /* \"#utility.yul\":4826:4835   */\n      dup4\n        /* \"#utility.yul\":4822:4839   */\n      add\n        /* \"#utility.yul\":4813:4819   */\n      dup5\n        /* \"#utility.yul\":4773:4840   */\n      tag_199\n      jump\t// in\n    tag_268:\n        /* \"#utility.yul\":4633:4847   */\n      swap3\n      swap2\n      pop\n      pop\n      jump\t// out\n        /* \"#utility.yul\":4853:5182   */\n    tag_40:\n        /* \"#utility.yul\":4912:4918   */\n      0x00\n        /* \"#utility.yul\":4961:4963   */\n      0x20\n        /* \"#utility.yul\":4949:4958   */\n      dup3\n        /* \"#utility.yul\":4940:4947   */\n      dup5\n        /* \"#utility.yul\":4936:4959   */\n      sub\n        /* \"#utility.yul\":4932:4964   */\n      slt\n        /* \"#utility.yul\":4929:5048   */\n      iszero\n      tag_270\n      jumpi\n        /* \"#utility.yul\":4967:5046   */\n      tag_271\n      tag_186\n      jump\t// in\n    tag_271:\n        /* \"#utility.yul\":4929:5048   */\n    tag_270:\n        /* \"#utility.yul\":5087:5088   */\n      0x00\n        /* \"#utility.yul\":5112:5165   */\n      tag_272\n        /* \"#utility.yul\":5157:5164   */\n      dup5\n        /* \"#utility.yul\":5148:5154   */\n      dup3\n        /* \"#utility.yul\":5137:5146   */\n      dup6\n        /* \"#utility.yul\":5133:5155   */\n      add\n        /* \"#utility.yul\":5112:5165   */\n      tag_194\n      jump\t// in\n    tag_272:\n        /* \"#utility.yul\":5102:5165   */\n      swap2\n      pop\n        /* \"#utility.yul\":5058:5175   */\n      pop\n        /* \"#utility.yul\":4853:5182   */\n      swap3\n      swap2\n      pop\n      pop\n      jump\t// out\n        /* \"#utility.yul\":5188:5517   */\n    tag_44:\n        /* \"#utility.yul\":5247:5253   */\n      0x00\n        /* \"#utility.yul\":5296:5298   */\n      0x20\n        /* \"#utility.yul\":5284:5293   */\n      dup3\n        /* \"#utility.yul\":5275:5282   */\n      dup5\n        /* \"#utility.yul\":5271:5294   */\n      sub\n        /* \"#utility.yul\":5267:5299   */\n      slt\n        /* \"#utility.yul\":5264:5383   */\n      iszero\n      tag_274\n      jumpi\n        /* \"#utility.yul\":5302:5381   */\n      tag_275\n      tag_186\n      jump\t// in\n    tag_275:\n        /* \"#utility.yul\":5264:5383   */\n    tag_274:\n        /* \"#utility.yul\":5422:5423   */\n      0x00\n        /* \"#utility.yul\":5447:5500   */\n      tag_276\n        /* \"#utility.yul\":5492:5499   */\n      dup5\n        /* \"#utility.yul\":5483:5489   */\n      dup3\n        /* \"#utility.yul\":5472:5481   */\n      dup6\n        /* \"#utility.yul\":5468:5490   */\n      add\n        /* \"#utility.yul\":5447:5500   */\n      tag_191\n      jump\t// in\n    tag_276:\n        /* \"#utility.yul\":5437:5500   */\n      swap2\n      pop\n        /* \"#utility.yul\":5393:5510   */\n      pop\n        /* \"#utility.yul\":5188:5517   */\n      swap3\n      swap2\n      pop\n      pop\n      jump\t// out\n        /* \"#utility.yul\":5523:5997   */\n    tag_59:\n        /* \"#utility.yul\":5591:5597   */\n      0x00\n        /* \"#utility.yul\":5599:5605   */\n      dup1\n        /* \"#utility.yul\":5648:5650   */\n      0x40\n        /* \"#utility.yul\":5636:5645   */\n      dup4\n        /* \"#utility.yul\":5627:5634   */\n      dup6\n        /* \"#utility.yul\":5623:5646   */\n      sub\n        /* \"#utility.yul\":5619:5651   */\n      slt\n        /* \"#utility.yul\":5616:5735   */\n      iszero\n      tag_278\n      jumpi\n        /* \"#utility.yul\":5654:5733   */\n      tag_279\n      tag_186\n      jump\t// in\n    tag_279:\n        /* \"#utility.yul\":5616:5735   */\n    tag_278:\n        /* \"#utility.yul\":5774:5775   */\n      0x00\n        /* \"#utility.yul\":5799:5852   */\n      tag_280\n        /* \"#utility.yul\":5844:5851   */\n      dup6\n        /* \"#utility.yul\":5835:5841   */\n      dup3\n        /* \"#utility.yul\":5824:5833   */\n      dup7\n        /* \"#utility.yul\":5820:5842   */\n      add\n        /* \"#utility.yul\":5799:5852   */\n      tag_191\n      jump\t// in\n    tag_280:\n        /* \"#utility.yul\":5789:5852   */\n      swap3\n      pop\n        /* \"#utility.yul\":5745:5862   */\n      pop\n        /* \"#utility.yul\":5901:5903   */\n      0x20\n        /* \"#utility.yul\":5927:5980   */\n      tag_281\n        /* \"#utility.yul\":5972:5979   */\n      dup6\n        /* \"#utility.yul\":5963:5969   */\n      dup3\n        /* \"#utility.yul\":5952:5961   */\n      dup7\n        /* \"#utility.yul\":5948:5970   */\n      add\n        /* \"#utility.yul\":5927:5980   */\n      tag_191\n      jump\t// in\n    tag_281:\n        /* \"#utility.yul\":5917:5980   */\n      swap2\n      pop\n        /* \"#utility.yul\":5872:5990   */\n      pop\n        /* \"#utility.yul\":5523:5997   */\n      swap3\n      pop\n      swap3\n      swap1\n      pop\n      jump\t// out\n        /* \"#utility.yul\":6003:6183   */\n    tag_200:\n        /* \"#utility.yul\":6051:6128   */\n      0x4e487b7100000000000000000000000000000000000000000000000000000000\n        /* \"#utility.yul\":6048:6049   */\n      0x00\n        /* \"#utility.yul\":6041:6129   */\n      mstore\n        /* \"#utility.yul\":6148:6152   */\n      0x22\n        /* \"#utility.yul\":6145:6146   */\n      0x04\n        /* \"#utility.yul\":6138:6153   */\n      mstore\n        /* \"#utility.yul\":6172:6176   */\n      0x24\n        /* \"#utility.yul\":6169:6170   */\n      0x00\n        /* \"#utility.yul\":6162:6177   */\n      revert\n        /* \"#utility.yul\":6189:6509   */\n    tag_64:\n        /* \"#utility.yul\":6233:6239   */\n      0x00\n        /* \"#utility.yul\":6270:6271   */\n      0x02\n        /* \"#utility.yul\":6264:6268   */\n      dup3\n        /* \"#utility.yul\":6260:6272   */\n      div\n        /* \"#utility.yul\":6250:6272   */\n      swap1\n      pop\n        /* \"#utility.yul\":6317:6318   */\n      0x01\n        /* \"#utility.yul\":6311:6315   */\n      dup3\n        /* \"#utility.yul\":6307:6319   */\n      and\n        /* \"#utility.yul\":6338:6356   */\n      dup1\n        /* \"#utility.yul\":6328:6409   */\n      tag_284\n      jumpi\n        /* \"#utility.yul\":6394:6398   */\n      0x7f\n        /* \"#utility.yul\":6386:6392   */\n      dup3\n        /* \"#utility.yul\":6382:6399   */\n      and\n        /* \"#utility.yul\":6372:6399   */\n      swap2\n      pop\n        /* \"#utility.yul\":6328:6409   */\n    tag_284:\n        /* \"#utility.yul\":6456:6458   */\n      0x20\n        /* \"#utility.yul\":6448:6454   */\n      dup3\n        /* \"#utility.yul\":6445:6459   */\n      lt\n        /* \"#utility.yul\":6425:6443   */\n      dup2\n        /* \"#utility.yul\":6422:6460   */\n      sub\n        /* \"#utility.yul\":6419:6503   */\n      tag_285\n      jumpi\n        /* \"#utility.yul\":6475:6493   */\n      tag_286\n      tag_200\n      jump\t// in\n    tag_286:\n        /* \"#utility.yul\":6419:6503   */\n    tag_285:\n        /* \"#utility.yul\":6240:6509   */\n      pop\n        /* \"#utility.yul\":6189:6509   */\n      swap2\n      swap1\n      pop\n      jump\t// out\n        /* \"#utility.yul\":6515:6631   */\n    tag_201:\n        /* \"#utility.yul\":6585:6606   */\n      tag_288\n        /* \"#utility.yul\":6600:6605   */\n      dup2\n        /* \"#utility.yul\":6585:6606   */\n      tag_195\n      jump\t// in\n    tag_288:\n        /* \"#utility.yul\":6578:6583   */\n      dup2\n        /* \"#utility.yul\":6575:6607   */\n      eq\n        /* \"#utility.yul\":6565:6625   */\n      tag_289\n      jumpi\n        /* \"#utility.yul\":6621:6622   */\n      0x00\n        /* \"#utility.yul\":6618:6619   */\n      dup1\n        /* \"#utility.yul\":6611:6623   */\n      revert\n        /* \"#utility.yul\":6565:6625   */\n    tag_289:\n        /* \"#utility.yul\":6515:6631   */\n      pop\n      jump\t// out\n        /* \"#utility.yul\":6637:6774   */\n    tag_202:\n        /* \"#utility.yul\":6691:6696   */\n      0x00\n        /* \"#utility.yul\":6722:6728   */\n      dup2\n        /* \"#utility.yul\":6716:6729   */\n      mload\n        /* \"#utility.yul\":6707:6729   */\n      swap1\n      pop\n        /* \"#utility.yul\":6738:6768   */\n      tag_291\n        /* \"#utility.yul\":6762:6767   */\n      dup2\n        /* \"#utility.yul\":6738:6768   */\n      tag_201\n      jump\t// in\n    tag_291:\n        /* \"#utility.yul\":6637:6774   */\n      swap3\n      swap2\n      pop\n      pop\n      jump\t// out\n        /* \"#utility.yul\":6780:7125   */\n    tag_86:\n        /* \"#utility.yul\":6847:6853   */\n      0x00\n        /* \"#utility.yul\":6896:6898   */\n      0x20\n        /* \"#utility.yul\":6884:6893   */\n      dup3\n        /* \"#utility.yul\":6875:6882   */\n      dup5\n        /* \"#utility.yul\":6871:6894   */\n      sub\n        /* \"#utility.yul\":6867:6899   */\n      slt\n        /* \"#utility.yul\":6864:6983   */\n      iszero\n      tag_293\n      jumpi\n        /* \"#utility.yul\":6902:6981   */\n      tag_294\n      tag_186\n      jump\t// in\n    tag_294:\n        /* \"#utility.yul\":6864:6983   */\n    tag_293:\n        /* \"#utility.yul\":7022:7023   */\n      0x00\n        /* \"#utility.yul\":7047:7108   */\n      tag_295\n        /* \"#utility.yul\":7100:7107   */\n      dup5\n        /* \"#utility.yul\":7091:7097   */\n      dup3\n        /* \"#utility.yul\":7080:7089   */\n      dup6\n        /* \"#utility.yul\":7076:7098   */\n      add\n        /* \"#utility.yul\":7047:7108   */\n      tag_202\n      jump\t// in\n    tag_295:\n        /* \"#utility.yul\":7037:7108   */\n      swap2\n      pop\n        /* \"#utility.yul\":6993:7118   */\n      pop\n        /* \"#utility.yul\":6780:7125   */\n      swap3\n      swap2\n      pop\n      pop\n      jump\t// out\n        /* \"#utility.yul\":7131:7312   */\n    tag_203:\n        /* \"#utility.yul\":7271:7304   */\n      0x5468652046756e644d65206973206e6f20636f6d706c65746564207965742e00\n        /* \"#utility.yul\":7267:7268   */\n      0x00\n        /* \"#utility.yul\":7259:7265   */\n      dup3\n        /* \"#utility.yul\":7255:7269   */\n      add\n        /* \"#utility.yul\":7248:7305   */\n      mstore\n        /* \"#utility.yul\":7131:7312   */\n      pop\n      jump\t// out\n        /* \"#utility.yul\":7318:7684   */\n    tag_204:\n        /* \"#utility.yul\":7460:7463   */\n      0x00\n        /* \"#utility.yul\":7481:7548   */\n      tag_298\n        /* \"#utility.yul\":7545:7547   */\n      0x1f\n        /* \"#utility.yul\":7540:7543   */\n      dup4\n        /* \"#utility.yul\":7481:7548   */\n      tag_181\n      jump\t// in\n    tag_298:\n        /* \"#utility.yul\":7474:7548   */\n      swap2\n      pop\n        /* \"#utility.yul\":7557:7650   */\n      tag_299\n        /* \"#utility.yul\":7646:7649   */\n      dup3\n        /* \"#utility.yul\":7557:7650   */\n      tag_203\n      jump\t// in\n    tag_299:\n        /* \"#utility.yul\":7675:7677   */\n      0x20\n        /* \"#utility.yul\":7670:7673   */\n      dup3\n        /* \"#utility.yul\":7666:7678   */\n      add\n        /* \"#utility.yul\":7659:7678   */\n      swap1\n      pop\n        /* \"#utility.yul\":7318:7684   */\n      swap2\n      swap1\n      pop\n      jump\t// out\n        /* \"#utility.yul\":7690:8109   */\n    tag_89:\n        /* \"#utility.yul\":7856:7860   */\n      0x00\n        /* \"#utility.yul\":7894:7896   */\n      0x20\n        /* \"#utility.yul\":7883:7892   */\n      dup3\n        /* \"#utility.yul\":7879:7897   */\n      add\n        /* \"#utility.yul\":7871:7897   */\n      swap1\n      pop\n        /* \"#utility.yul\":7943:7952   */\n      dup2\n        /* \"#utility.yul\":7937:7941   */\n      dup2\n        /* \"#utility.yul\":7933:7953   */\n      sub\n        /* \"#utility.yul\":7929:7930   */\n      0x00\n        /* \"#utility.yul\":7918:7927   */\n      dup4\n        /* \"#utility.yul\":7914:7931   */\n      add\n        /* \"#utility.yul\":7907:7954   */\n      mstore\n        /* \"#utility.yul\":7971:8102   */\n      tag_301\n        /* \"#utility.yul\":8097:8101   */\n      dup2\n        /* \"#utility.yul\":7971:8102   */\n      tag_204\n      jump\t// in\n    tag_301:\n        /* \"#utility.yul\":7963:8102   */\n      swap1\n      pop\n        /* \"#utility.yul\":7690:8109   */\n      swap2\n      swap1\n      pop\n      jump\t// out\n        /* \"#utility.yul\":8115:8337   */\n    tag_205:\n        /* \"#utility.yul\":8255:8289   */\n      0x596f7520646f6e2774206861766520656e6f75676820455243323020546f6b65\n        /* \"#utility.yul\":8251:8252   */\n      0x00\n        /* \"#utility.yul\":8243:8249   */\n      dup3\n        /* \"#utility.yul\":8239:8253   */\n      add\n        /* \"#utility.yul\":8232:8290   */\n      mstore\n        /* \"#utility.yul\":8324:8329   */\n      0x6e732e0000000000000000000000000000000000000000000000000000000000\n        /* \"#utility.yul\":8319:8321   */\n      0x20\n        /* \"#utility.yul\":8311:8317   */\n      dup3\n        /* \"#utility.yul\":8307:8322   */\n      add\n        /* \"#utility.yul\":8300:8330   */\n      mstore\n        /* \"#utility.yul\":8115:8337   */\n      pop\n      jump\t// out\n        /* \"#utility.yul\":8343:8709   */\n    tag_206:\n        /* \"#utility.yul\":8485:8488   */\n      0x00\n        /* \"#utility.yul\":8506:8573   */\n      tag_304\n        /* \"#utility.yul\":8570:8572   */\n      0x23\n        /* \"#utility.yul\":8565:8568   */\n      dup4\n        /* \"#utility.yul\":8506:8573   */\n      tag_181\n      jump\t// in\n    tag_304:\n        /* \"#utility.yul\":8499:8573   */\n      swap2\n      pop\n        /* \"#utility.yul\":8582:8675   */\n      tag_305\n        /* \"#utility.yul\":8671:8674   */\n      dup3\n        /* \"#utility.yul\":8582:8675   */\n      tag_205\n      jump\t// in\n    tag_305:\n        /* \"#utility.yul\":8700:8702   */\n      0x40\n        /* \"#utility.yul\":8695:8698   */\n      dup3\n        /* \"#utility.yul\":8691:8703   */\n      add\n        /* \"#utility.yul\":8684:8703   */\n      swap1\n      pop\n        /* \"#utility.yul\":8343:8709   */\n      swap2\n      swap1\n      pop\n      jump\t// out\n        /* \"#utility.yul\":8715:9134   */\n    tag_94:\n        /* \"#utility.yul\":8881:8885   */\n      0x00\n        /* \"#utility.yul\":8919:8921   */\n      0x20\n        /* \"#utility.yul\":8908:8917   */\n      dup3\n        /* \"#utility.yul\":8904:8922   */\n      add\n        /* \"#utility.yul\":8896:8922   */\n      swap1\n      pop\n        /* \"#utility.yul\":8968:8977   */\n      dup2\n        /* \"#utility.yul\":8962:8966   */\n      dup2\n        /* \"#utility.yul\":8958:8978   */\n      sub\n        /* \"#utility.yul\":8954:8955   */\n      0x00\n        /* \"#utility.yul\":8943:8952   */\n      dup4\n        /* \"#utility.yul\":8939:8956   */\n      add\n        /* \"#utility.yul\":8932:8979   */\n      mstore\n        /* \"#utility.yul\":8996:9127   */\n      tag_307\n        /* \"#utility.yul\":9122:9126   */\n      dup2\n        /* \"#utility.yul\":8996:9127   */\n      tag_206\n      jump\t// in\n    tag_307:\n        /* \"#utility.yul\":8988:9127   */\n      swap1\n      pop\n        /* \"#utility.yul\":8715:9134   */\n      swap2\n      swap1\n      pop\n      jump\t// out\n        /* \"#utility.yul\":9140:9258   */\n    tag_207:\n        /* \"#utility.yul\":9227:9251   */\n      tag_309\n        /* \"#utility.yul\":9245:9250   */\n      dup2\n        /* \"#utility.yul\":9227:9251   */\n      tag_189\n      jump\t// in\n    tag_309:\n        /* \"#utility.yul\":9222:9225   */\n      dup3\n        /* \"#utility.yul\":9215:9252   */\n      mstore\n        /* \"#utility.yul\":9140:9258   */\n      pop\n      pop\n      jump\t// out\n        /* \"#utility.yul\":9264:9486   */\n    tag_112:\n        /* \"#utility.yul\":9357:9361   */\n      0x00\n        /* \"#utility.yul\":9395:9397   */\n      0x20\n        /* \"#utility.yul\":9384:9393   */\n      dup3\n        /* \"#utility.yul\":9380:9398   */\n      add\n        /* \"#utility.yul\":9372:9398   */\n      swap1\n      pop\n        /* \"#utility.yul\":9408:9479   */\n      tag_311\n        /* \"#utility.yul\":9476:9477   */\n      0x00\n        /* \"#utility.yul\":9465:9474   */\n      dup4\n        /* \"#utility.yul\":9461:9478   */\n      add\n        /* \"#utility.yul\":9452:9458   */\n      dup5\n        /* \"#utility.yul\":9408:9479   */\n      tag_207\n      jump\t// in\n    tag_311:\n        /* \"#utility.yul\":9264:9486   */\n      swap3\n      swap2\n      pop\n      pop\n      jump\t// out\n        /* \"#utility.yul\":9492:9635   */\n    tag_208:\n        /* \"#utility.yul\":9549:9554   */\n      0x00\n        /* \"#utility.yul\":9580:9586   */\n      dup2\n        /* \"#utility.yul\":9574:9587   */\n      mload\n        /* \"#utility.yul\":9565:9587   */\n      swap1\n      pop\n        /* \"#utility.yul\":9596:9629   */\n      tag_313\n        /* \"#utility.yul\":9623:9628   */\n      dup2\n        /* \"#utility.yul\":9596:9629   */\n      tag_193\n      jump\t// in\n    tag_313:\n        /* \"#utility.yul\":9492:9635   */\n      swap3\n      swap2\n      pop\n      pop\n      jump\t// out\n        /* \"#utility.yul\":9641:9992   */\n    tag_116:\n        /* \"#utility.yul\":9711:9717   */\n      0x00\n        /* \"#utility.yul\":9760:9762   */\n      0x20\n        /* \"#utility.yul\":9748:9757   */\n      dup3\n        /* \"#utility.yul\":9739:9746   */\n      dup5\n        /* \"#utility.yul\":9735:9758   */\n      sub\n        /* \"#utility.yul\":9731:9763   */\n      slt\n        /* \"#utility.yul\":9728:9847   */\n      iszero\n      tag_315\n      jumpi\n        /* \"#utility.yul\":9766:9845   */\n      tag_316\n      tag_186\n      jump\t// in\n    tag_316:\n        /* \"#utility.yul\":9728:9847   */\n    tag_315:\n        /* \"#utility.yul\":9886:9887   */\n      0x00\n        /* \"#utility.yul\":9911:9975   */\n      tag_317\n        /* \"#utility.yul\":9967:9974   */\n      dup5\n        /* \"#utility.yul\":9958:9964   */\n      dup3\n        /* \"#utility.yul\":9947:9956   */\n      dup6\n        /* \"#utility.yul\":9943:9965   */\n      add\n        /* \"#utility.yul\":9911:9975   */\n      tag_208\n      jump\t// in\n    tag_317:\n        /* \"#utility.yul\":9901:9975   */\n      swap2\n      pop\n        /* \"#utility.yul\":9857:9985   */\n      pop\n        /* \"#utility.yul\":9641:9992   */\n      swap3\n      swap2\n      pop\n      pop\n      jump\t// out\n        /* \"#utility.yul\":9998:10236   */\n    tag_209:\n        /* \"#utility.yul\":10138:10172   */\n      0x596f752063616e2774206d696e7420746f6b656e73206d6f7265207468616e20\n        /* \"#utility.yul\":10134:10135   */\n      0x00\n        /* \"#utility.yul\":10126:10132   */\n      dup3\n        /* \"#utility.yul\":10122:10136   */\n      add\n        /* \"#utility.yul\":10115:10173   */\n      mstore\n        /* \"#utility.yul\":10207:10228   */\n      0x796f75722066756e64656420616d6f756e742e00000000000000000000000000\n        /* \"#utility.yul\":10202:10204   */\n      0x20\n        /* \"#utility.yul\":10194:10200   */\n      dup3\n        /* \"#utility.yul\":10190:10205   */\n      add\n        /* \"#utility.yul\":10183:10229   */\n      mstore\n        /* \"#utility.yul\":9998:10236   */\n      pop\n      jump\t// out\n        /* \"#utility.yul\":10242:10608   */\n    tag_210:\n        /* \"#utility.yul\":10384:10387   */\n      0x00\n        /* \"#utility.yul\":10405:10472   */\n      tag_320\n        /* \"#utility.yul\":10469:10471   */\n      0x33\n        /* \"#utility.yul\":10464:10467   */\n      dup4\n        /* \"#utility.yul\":10405:10472   */\n      tag_181\n      jump\t// in\n    tag_320:\n        /* \"#utility.yul\":10398:10472   */\n      swap2\n      pop\n        /* \"#utility.yul\":10481:10574   */\n      tag_321\n        /* \"#utility.yul\":10570:10573   */\n      dup3\n        /* \"#utility.yul\":10481:10574   */\n      tag_209\n      jump\t// in\n    tag_321:\n        /* \"#utility.yul\":10599:10601   */\n      0x40\n        /* \"#utility.yul\":10594:10597   */\n      dup3\n        /* \"#utility.yul\":10590:10602   */\n      add\n        /* \"#utility.yul\":10583:10602   */\n      swap1\n      pop\n        /* \"#utility.yul\":10242:10608   */\n      swap2\n      swap1\n      pop\n      jump\t// out\n        /* \"#utility.yul\":10614:11033   */\n    tag_119:\n        /* \"#utility.yul\":10780:10784   */\n      0x00\n        /* \"#utility.yul\":10818:10820   */\n      0x20\n        /* \"#utility.yul\":10807:10816   */\n      dup3\n        /* \"#utility.yul\":10803:10821   */\n      add\n        /* \"#utility.yul\":10795:10821   */\n      swap1\n      pop\n        /* \"#utility.yul\":10867:10876   */\n      dup2\n        /* \"#utility.yul\":10861:10865   */\n      dup2\n        /* \"#utility.yul\":10857:10877   */\n      sub\n        /* \"#utility.yul\":10853:10854   */\n      0x00\n        /* \"#utility.yul\":10842:10851   */\n      dup4\n        /* \"#utility.yul\":10838:10855   */\n      add\n        /* \"#utility.yul\":10831:10878   */\n      mstore\n        /* \"#utility.yul\":10895:11026   */\n      tag_323\n        /* \"#utility.yul\":11021:11025   */\n      dup2\n        /* \"#utility.yul\":10895:11026   */\n      tag_210\n      jump\t// in\n    tag_323:\n        /* \"#utility.yul\":10887:11026   */\n      swap1\n      pop\n        /* \"#utility.yul\":10614:11033   */\n      swap2\n      swap1\n      pop\n      jump\t// out\n        /* \"#utility.yul\":11039:11219   */\n    tag_211:\n        /* \"#utility.yul\":11087:11164   */\n      0x4e487b7100000000000000000000000000000000000000000000000000000000\n        /* \"#utility.yul\":11084:11085   */\n      0x00\n        /* \"#utility.yul\":11077:11165   */\n      mstore\n        /* \"#utility.yul\":11184:11188   */\n      0x11\n        /* \"#utility.yul\":11181:11182   */\n      0x04\n        /* \"#utility.yul\":11174:11189   */\n      mstore\n        /* \"#utility.yul\":11208:11212   */\n      0x24\n        /* \"#utility.yul\":11205:11206   */\n      0x00\n        /* \"#utility.yul\":11198:11213   */\n      revert\n        /* \"#utility.yul\":11225:11419   */\n    tag_127:\n        /* \"#utility.yul\":11265:11269   */\n      0x00\n        /* \"#utility.yul\":11285:11305   */\n      tag_326\n        /* \"#utility.yul\":11303:11304   */\n      dup3\n        /* \"#utility.yul\":11285:11305   */\n      tag_192\n      jump\t// in\n    tag_326:\n        /* \"#utility.yul\":11280:11305   */\n      swap2\n      pop\n        /* \"#utility.yul\":11319:11339   */\n      tag_327\n        /* \"#utility.yul\":11337:11338   */\n      dup4\n        /* \"#utility.yul\":11319:11339   */\n      tag_192\n      jump\t// in\n    tag_327:\n        /* \"#utility.yul\":11314:11339   */\n      swap3\n      pop\n        /* \"#utility.yul\":11363:11364   */\n      dup3\n        /* \"#utility.yul\":11360:11361   */\n      dup3\n        /* \"#utility.yul\":11356:11365   */\n      sub\n        /* \"#utility.yul\":11348:11365   */\n      swap1\n      pop\n        /* \"#utility.yul\":11387:11388   */\n      dup2\n        /* \"#utility.yul\":11381:11385   */\n      dup2\n        /* \"#utility.yul\":11378:11389   */\n      gt\n        /* \"#utility.yul\":11375:11412   */\n      iszero\n      tag_328\n      jumpi\n        /* \"#utility.yul\":11392:11410   */\n      tag_329\n      tag_211\n      jump\t// in\n    tag_329:\n        /* \"#utility.yul\":11375:11412   */\n    tag_328:\n        /* \"#utility.yul\":11225:11419   */\n      swap3\n      swap2\n      pop\n      pop\n      jump\t// out\n        /* \"#utility.yul\":11425:11757   */\n    tag_129:\n        /* \"#utility.yul\":11546:11550   */\n      0x00\n        /* \"#utility.yul\":11584:11586   */\n      0x40\n        /* \"#utility.yul\":11573:11582   */\n      dup3\n        /* \"#utility.yul\":11569:11587   */\n      add\n        /* \"#utility.yul\":11561:11587   */\n      swap1\n      pop\n        /* \"#utility.yul\":11597:11668   */\n      tag_331\n        /* \"#utility.yul\":11665:11666   */\n      0x00\n        /* \"#utility.yul\":11654:11663   */\n      dup4\n        /* \"#utility.yul\":11650:11667   */\n      add\n        /* \"#utility.yul\":11641:11647   */\n      dup6\n        /* \"#utility.yul\":11597:11668   */\n      tag_207\n      jump\t// in\n    tag_331:\n        /* \"#utility.yul\":11678:11750   */\n      tag_332\n        /* \"#utility.yul\":11746:11748   */\n      0x20\n        /* \"#utility.yul\":11735:11744   */\n      dup4\n        /* \"#utility.yul\":11731:11749   */\n      add\n        /* \"#utility.yul\":11722:11728   */\n      dup5\n        /* \"#utility.yul\":11678:11750   */\n      tag_197\n      jump\t// in\n    tag_332:\n        /* \"#utility.yul\":11425:11757   */\n      swap4\n      swap3\n      pop\n      pop\n      pop\n      jump\t// out\n        /* \"#utility.yul\":11763:12205   */\n    tag_146:\n        /* \"#utility.yul\":11912:11916   */\n      0x00\n        /* \"#utility.yul\":11950:11952   */\n      0x60\n        /* \"#utility.yul\":11939:11948   */\n      dup3\n        /* \"#utility.yul\":11935:11953   */\n      add\n        /* \"#utility.yul\":11927:11953   */\n      swap1\n      pop\n        /* \"#utility.yul\":11963:12034   */\n      tag_334\n        /* \"#utility.yul\":12031:12032   */\n      0x00\n        /* \"#utility.yul\":12020:12029   */\n      dup4\n        /* \"#utility.yul\":12016:12033   */\n      add\n        /* \"#utility.yul\":12007:12013   */\n      dup7\n        /* \"#utility.yul\":11963:12034   */\n      tag_207\n      jump\t// in\n    tag_334:\n        /* \"#utility.yul\":12044:12116   */\n      tag_335\n        /* \"#utility.yul\":12112:12114   */\n      0x20\n        /* \"#utility.yul\":12101:12110   */\n      dup4\n        /* \"#utility.yul\":12097:12115   */\n      add\n        /* \"#utility.yul\":12088:12094   */\n      dup6\n        /* \"#utility.yul\":12044:12116   */\n      tag_197\n      jump\t// in\n    tag_335:\n        /* \"#utility.yul\":12126:12198   */\n      tag_336\n        /* \"#utility.yul\":12194:12196   */\n      0x40\n        /* \"#utility.yul\":12183:12192   */\n      dup4\n        /* \"#utility.yul\":12179:12197   */\n      add\n        /* \"#utility.yul\":12170:12176   */\n      dup5\n        /* \"#utility.yul\":12126:12198   */\n      tag_197\n      jump\t// in\n    tag_336:\n        /* \"#utility.yul\":11763:12205   */\n      swap5\n      swap4\n      pop\n      pop\n      pop\n      pop\n      jump\t// out\n        /* \"#utility.yul\":12211:12402   */\n    tag_173:\n        /* \"#utility.yul\":12251:12254   */\n      0x00\n        /* \"#utility.yul\":12270:12290   */\n      tag_338\n        /* \"#utility.yul\":12288:12289   */\n      dup3\n        /* \"#utility.yul\":12270:12290   */\n      tag_192\n      jump\t// in\n    tag_338:\n        /* \"#utility.yul\":12265:12290   */\n      swap2\n      pop\n        /* \"#utility.yul\":12304:12324   */\n      tag_339\n        /* \"#utility.yul\":12322:12323   */\n      dup4\n        /* \"#utility.yul\":12304:12324   */\n      tag_192\n      jump\t// in\n    tag_339:\n        /* \"#utility.yul\":12299:12324   */\n      swap3\n      pop\n        /* \"#utility.yul\":12347:12348   */\n      dup3\n        /* \"#utility.yul\":12344:12345   */\n      dup3\n        /* \"#utility.yul\":12340:12349   */\n      add\n        /* \"#utility.yul\":12333:12349   */\n      swap1\n      pop\n        /* \"#utility.yul\":12368:12371   */\n      dup1\n        /* \"#utility.yul\":12365:12366   */\n      dup3\n        /* \"#utility.yul\":12362:12372   */\n      gt\n        /* \"#utility.yul\":12359:12395   */\n      iszero\n      tag_340\n      jumpi\n        /* \"#utility.yul\":12375:12393   */\n      tag_341\n      tag_211\n      jump\t// in\n    tag_341:\n        /* \"#utility.yul\":12359:12395   */\n    tag_340:\n        /* \"#utility.yul\":12211:12402   */\n      swap3\n      swap2\n      pop\n      pop\n      jump\t// out\n\n    auxdata: 0xa2646970667358221220a4812a4730478e43f863e993be160fb3d95e875ea04bc0ea896891c4b820dfcc64736f6c63430008140033\n}\n",
				"bytecode": {
					"linkReferences": {},
					"object": "608060405234801562000010575f80fd5b5060405162001ae538038062001ae5833981810160405281019062000036919062000174565b6040518060400160405280600e81526020017f46756e64546f6b656e45524332300000000000000000000000000000000000008152506040518060400160405280600281526020017f46540000000000000000000000000000000000000000000000000000000000008152508160039081620000b3919062000408565b508060049081620000c5919062000408565b5050508060055f6101000a81548173ffffffffffffffffffffffffffffffffffffffff021916908373ffffffffffffffffffffffffffffffffffffffff16021790555050620004ec565b5f80fd5b5f73ffffffffffffffffffffffffffffffffffffffff82169050919050565b5f6200013e8262000113565b9050919050565b620001508162000132565b81146200015b575f80fd5b50565b5f815190506200016e8162000145565b92915050565b5f602082840312156200018c576200018b6200010f565b5b5f6200019b848285016200015e565b91505092915050565b5f81519050919050565b7f4e487b71000000000000000000000000000000000000000000000000000000005f52604160045260245ffd5b7f4e487b71000000000000000000000000000000000000000000000000000000005f52602260045260245ffd5b5f60028204905060018216806200022057607f821691505b602082108103620002365762000235620001db565b5b50919050565b5f819050815f5260205f209050919050565b5f6020601f8301049050919050565b5f82821b905092915050565b5f600883026200029a7fffffffffffffffffffffffffffffffffffffffffffffffffffffffffffffffff826200025d565b620002a686836200025d565b95508019841693508086168417925050509392505050565b5f819050919050565b5f819050919050565b5f620002f0620002ea620002e484620002be565b620002c7565b620002be565b9050919050565b5f819050919050565b6200030b83620002d0565b620003236200031a82620002f7565b84845462000269565b825550505050565b5f90565b620003396200032b565b6200034681848462000300565b505050565b5b818110156200036d57620003615f826200032f565b6001810190506200034c565b5050565b601f821115620003bc5762000386816200023c565b62000391846200024e565b81016020851015620003a1578190505b620003b9620003b0856200024e565b8301826200034b565b50505b505050565b5f82821c905092915050565b5f620003de5f1984600802620003c1565b1980831691505092915050565b5f620003f88383620003cd565b9150826002028217905092915050565b6200041382620001a4565b67ffffffffffffffff8111156200042f576200042e620001ae565b5b6200043b825462000208565b6200044882828562000371565b5f60209050601f8311600181146200047e575f841562000469578287015190505b620004758582620003eb565b865550620004e4565b601f1984166200048e866200023c565b5f5b82811015620004b75784890151825560018201915060208501945060208101905062000490565b86831015620004d75784890151620004d3601f891682620003cd565b8355505b6001600288020188555050505b505050505050565b6115eb80620004fa5f395ff3fe608060405234801561000f575f80fd5b50600436106100a7575f3560e01c8063379607f51161006f578063379607f51461016557806370a082311461018157806395d89b41146101b1578063a0712d68146101cf578063a9059cbb146101eb578063dd62ed3e1461021b576100a7565b806306fdde03146100ab578063095ea7b3146100c957806318160ddd146100f957806323b872dd14610117578063313ce56714610147575b5f80fd5b6100b361024b565b6040516100c09190610fc7565b60405180910390f35b6100e360048036038101906100de9190611078565b6102db565b6040516100f091906110d0565b60405180910390f35b6101016102fd565b60405161010e91906110f8565b60405180910390f35b610131600480360381019061012c9190611111565b610306565b60405161013e91906110d0565b60405180910390f35b61014f610334565b60405161015c919061117c565b60405180910390f35b61017f600480360381019061017a9190611195565b61033c565b005b61019b600480360381019061019691906111c0565b610461565b6040516101a891906110f8565b60405180910390f35b6101b96104a6565b6040516101c69190610fc7565b60405180910390f35b6101e960048036038101906101e49190611195565b610536565b005b61020560048036038101906102009190611078565b610817565b60405161021291906110d0565b60405180910390f35b610235600480360381019061023091906111eb565b610839565b60405161024291906110f8565b60405180910390f35b60606003805461025a90611256565b80601f016020809104026020016040519081016040528092919081815260200182805461028690611256565b80156102d15780601f106102a8576101008083540402835291602001916102d1565b820191905f5260205f20905b8154815290600101906020018083116102b457829003601f168201915b5050505050905090565b5f806102e56108bb565b90506102f28185856108c2565b600191505092915050565b5f600254905090565b5f806103106108bb565b905061031d8582856108d4565b610328858585610967565b60019150509392505050565b5f6012905090565b60055f9054906101000a900473ffffffffffffffffffffffffffffffffffffffff1673ffffffffffffffffffffffffffffffffffffffff1663da4658e06040518163ffffffff1660e01b8152600401602060405180830381865afa1580156103a6573d5f803e3d5ffd5b505050506040513d601f19601f820116820180604052508101906103ca91906112b0565b610409576040517f08c379a000000000000000000000000000000000000000000000000000000000815260040161040090611325565b60405180910390fd5b8061041333610461565b1015610454576040517f08c379a000000000000000000000000000000000000000000000000000000000815260040161044b906113b3565b60405180910390fd5b61045e3382610a57565b50565b5f805f8373ffffffffffffffffffffffffffffffffffffffff1673ffffffffffffffffffffffffffffffffffffffff1681526020019081526020015f20549050919050565b6060600480546104b590611256565b80601f01602080910402602001604051908101604052809291908181526020018280546104e190611256565b801561052c5780601f106105035761010080835404028352916020019161052c565b820191905f5260205f20905b81548152906001019060200180831161050f57829003601f168201915b5050505050905090565b60055f9054906101000a900473ffffffffffffffffffffffffffffffffffffffff1673ffffffffffffffffffffffffffffffffffffffff1663da4658e06040518163ffffffff1660e01b8152600401602060405180830381865afa1580156105a0573d5f803e3d5ffd5b505050506040513d601f19601f820116820180604052508101906105c491906112b0565b610603576040517f08c379a00000000000000000000000000000000000000000000000000000000081526004016105fa90611325565b60405180910390fd5b8060055f9054906101000a900473ffffffffffffffffffffffffffffffffffffffff1673ffffffffffffffffffffffffffffffffffffffff16639f883a05336040518263ffffffff1660e01b815260040161065e91906113e0565b602060405180830381865afa158015610679573d5f803e3d5ffd5b505050506040513d601f19601f8201168201806040525081019061069d919061140d565b10156106de576040517f08c379a00000000000000000000000000000000000000000000000000000000081526004016106d5906114a8565b60405180910390fd5b6106e83382610ad6565b60055f9054906101000a900473ffffffffffffffffffffffffffffffffffffffff1673ffffffffffffffffffffffffffffffffffffffff1663d39cf006338360055f9054906101000a900473ffffffffffffffffffffffffffffffffffffffff1673ffffffffffffffffffffffffffffffffffffffff16639f883a05336040518263ffffffff1660e01b815260040161078191906113e0565b602060405180830381865afa15801561079c573d5f803e3d5ffd5b505050506040513d601f19601f820116820180604052508101906107c0919061140d565b6107ca91906114f3565b6040518363ffffffff1660e01b81526004016107e7929190611526565b5f604051808303815f87803b1580156107fe575f80fd5b505af1158015610810573d5f803e3d5ffd5b5050505050565b5f806108216108bb565b905061082e818585610967565b600191505092915050565b5f60015f8473ffffffffffffffffffffffffffffffffffffffff1673ffffffffffffffffffffffffffffffffffffffff1681526020019081526020015f205f8373ffffffffffffffffffffffffffffffffffffffff1673ffffffffffffffffffffffffffffffffffffffff1681526020019081526020015f2054905092915050565b5f33905090565b6108cf8383836001610b55565b505050565b5f6108df8484610839565b90507fffffffffffffffffffffffffffffffffffffffffffffffffffffffffffffffff8110156109615781811015610952578281836040517ffb8f41b20000000000000000000000000000000000000000000000000000000081526004016109499392919061154d565b60405180910390fd5b61096084848484035f610b55565b5b50505050565b5f73ffffffffffffffffffffffffffffffffffffffff168373ffffffffffffffffffffffffffffffffffffffff16036109d7575f6040517f96c6fd1e0000000000000000000000000000000000000000000000000000000081526004016109ce91906113e0565b60405180910390fd5b5f73ffffffffffffffffffffffffffffffffffffffff168273ffffffffffffffffffffffffffffffffffffffff1603610a47575f6040517fec442f05000000000000000000000000000000000000000000000000000000008152600401610a3e91906113e0565b60405180910390fd5b610a52838383610d24565b505050565b5f73ffffffffffffffffffffffffffffffffffffffff168273ffffffffffffffffffffffffffffffffffffffff1603610ac7575f6040517f96c6fd1e000000000000000000000000000000000000000000000000000000008152600401610abe91906113e0565b60405180910390fd5b610ad2825f83610d24565b5050565b5f73ffffffffffffffffffffffffffffffffffffffff168273ffffffffffffffffffffffffffffffffffffffff1603610b46575f6040517fec442f05000000000000000000000000000000000000000000000000000000008152600401610b3d91906113e0565b60405180910390fd5b610b515f8383610d24565b5050565b5f73ffffffffffffffffffffffffffffffffffffffff168473ffffffffffffffffffffffffffffffffffffffff1603610bc5575f6040517fe602df05000000000000000000000000000000000000000000000000000000008152600401610bbc91906113e0565b60405180910390fd5b5f73ffffffffffffffffffffffffffffffffffffffff168373ffffffffffffffffffffffffffffffffffffffff1603610c35575f6040517f94280d62000000000000000000000000000000000000000000000000000000008152600401610c2c91906113e0565b60405180910390fd5b8160015f8673ffffffffffffffffffffffffffffffffffffffff1673ffffffffffffffffffffffffffffffffffffffff1681526020019081526020015f205f8573ffffffffffffffffffffffffffffffffffffffff1673ffffffffffffffffffffffffffffffffffffffff1681526020019081526020015f20819055508015610d1e578273ffffffffffffffffffffffffffffffffffffffff168473ffffffffffffffffffffffffffffffffffffffff167f8c5be1e5ebec7d5bd14f71427d1e84f3dd0314c0f7b2291e5b200ac8c7c3b92584604051610d1591906110f8565b60405180910390a35b50505050565b5f73ffffffffffffffffffffffffffffffffffffffff168373ffffffffffffffffffffffffffffffffffffffff1603610d74578060025f828254610d689190611582565b92505081905550610e42565b5f805f8573ffffffffffffffffffffffffffffffffffffffff1673ffffffffffffffffffffffffffffffffffffffff1681526020019081526020015f2054905081811015610dfd578381836040517fe450d38c000000000000000000000000000000000000000000000000000000008152600401610df49392919061154d565b60405180910390fd5b8181035f808673ffffffffffffffffffffffffffffffffffffffff1673ffffffffffffffffffffffffffffffffffffffff1681526020019081526020015f2081905550505b5f73ffffffffffffffffffffffffffffffffffffffff168273ffffffffffffffffffffffffffffffffffffffff1603610e89578060025f8282540392505081905550610ed3565b805f808473ffffffffffffffffffffffffffffffffffffffff1673ffffffffffffffffffffffffffffffffffffffff1681526020019081526020015f205f82825401925050819055505b8173ffffffffffffffffffffffffffffffffffffffff168373ffffffffffffffffffffffffffffffffffffffff167fddf252ad1be2c89b69c2b068fc378daa952ba7f163c4a11628f55a4df523b3ef83604051610f3091906110f8565b60405180910390a3505050565b5f81519050919050565b5f82825260208201905092915050565b5f5b83811015610f74578082015181840152602081019050610f59565b5f8484015250505050565b5f601f19601f8301169050919050565b5f610f9982610f3d565b610fa38185610f47565b9350610fb3818560208601610f57565b610fbc81610f7f565b840191505092915050565b5f6020820190508181035f830152610fdf8184610f8f565b905092915050565b5f80fd5b5f73ffffffffffffffffffffffffffffffffffffffff82169050919050565b5f61101482610feb565b9050919050565b6110248161100a565b811461102e575f80fd5b50565b5f8135905061103f8161101b565b92915050565b5f819050919050565b61105781611045565b8114611061575f80fd5b50565b5f813590506110728161104e565b92915050565b5f806040838503121561108e5761108d610fe7565b5b5f61109b85828601611031565b92505060206110ac85828601611064565b9150509250929050565b5f8115159050919050565b6110ca816110b6565b82525050565b5f6020820190506110e35f8301846110c1565b92915050565b6110f281611045565b82525050565b5f60208201905061110b5f8301846110e9565b92915050565b5f805f6060848603121561112857611127610fe7565b5b5f61113586828701611031565b935050602061114686828701611031565b925050604061115786828701611064565b9150509250925092565b5f60ff82169050919050565b61117681611161565b82525050565b5f60208201905061118f5f83018461116d565b92915050565b5f602082840312156111aa576111a9610fe7565b5b5f6111b784828501611064565b91505092915050565b5f602082840312156111d5576111d4610fe7565b5b5f6111e284828501611031565b91505092915050565b5f806040838503121561120157611200610fe7565b5b5f61120e85828601611031565b925050602061121f85828601611031565b9150509250929050565b7f4e487b71000000000000000000000000000000000000000000000000000000005f52602260045260245ffd5b5f600282049050600182168061126d57607f821691505b6020821081036112805761127f611229565b5b50919050565b61128f816110b6565b8114611299575f80fd5b50565b5f815190506112aa81611286565b92915050565b5f602082840312156112c5576112c4610fe7565b5b5f6112d28482850161129c565b91505092915050565b7f5468652046756e644d65206973206e6f20636f6d706c65746564207965742e005f82015250565b5f61130f601f83610f47565b915061131a826112db565b602082019050919050565b5f6020820190508181035f83015261133c81611303565b9050919050565b7f596f7520646f6e2774206861766520656e6f75676820455243323020546f6b655f8201527f6e732e0000000000000000000000000000000000000000000000000000000000602082015250565b5f61139d602383610f47565b91506113a882611343565b604082019050919050565b5f6020820190508181035f8301526113ca81611391565b9050919050565b6113da8161100a565b82525050565b5f6020820190506113f35f8301846113d1565b92915050565b5f815190506114078161104e565b92915050565b5f6020828403121561142257611421610fe7565b5b5f61142f848285016113f9565b91505092915050565b7f596f752063616e2774206d696e7420746f6b656e73206d6f7265207468616e205f8201527f796f75722066756e64656420616d6f756e742e00000000000000000000000000602082015250565b5f611492603383610f47565b915061149d82611438565b604082019050919050565b5f6020820190508181035f8301526114bf81611486565b9050919050565b7f4e487b71000000000000000000000000000000000000000000000000000000005f52601160045260245ffd5b5f6114fd82611045565b915061150883611045565b92508282039050818111156115205761151f6114c6565b5b92915050565b5f6040820190506115395f8301856113d1565b61154660208301846110e9565b9392505050565b5f6060820190506115605f8301866113d1565b61156d60208301856110e9565b61157a60408301846110e9565b949350505050565b5f61158c82611045565b915061159783611045565b92508282019050808211156115af576115ae6114c6565b5b9291505056fea2646970667358221220a4812a4730478e43f863e993be160fb3d95e875ea04bc0ea896891c4b820dfcc64736f6c63430008140033",
					"opcodes": "PUSH1 0x80 PUSH1 0x40 MSTORE CALLVALUE DUP1 ISZERO PUSH3 0x10 JUMPI PUSH0 DUP1 REVERT JUMPDEST POP PUSH1 0x40 MLOAD PUSH3 0x1AE5 CODESIZE SUB DUP1 PUSH3 0x1AE5 DUP4 CODECOPY DUP2 DUP2 ADD PUSH1 0x40 MSTORE DUP2 ADD SWAP1 PUSH3 0x36 SWAP2 SWAP1 PUSH3 0x174 JUMP JUMPDEST PUSH1 0x40 MLOAD DUP1 PUSH1 0x40 ADD PUSH1 0x40 MSTORE DUP1 PUSH1 0xE DUP2 MSTORE PUSH1 0x20 ADD PUSH32 0x46756E64546F6B656E4552433230000000000000000000000000000000000000 DUP2 MSTORE POP PUSH1 0x40 MLOAD DUP1 PUSH1 0x40 ADD PUSH1 0x40 MSTORE DUP1 PUSH1 0x2 DUP2 MSTORE PUSH1 0x20 ADD PUSH32 0x4654000000000000000000000000000000000000000000000000000000000000 DUP2 MSTORE POP DUP2 PUSH1 0x3 SWAP1 DUP2 PUSH3 0xB3 SWAP2 SWAP1 PUSH3 0x408 JUMP JUMPDEST POP DUP1 PUSH1 0x4 SWAP1 DUP2 PUSH3 0xC5 SWAP2 SWAP1 PUSH3 0x408 JUMP JUMPDEST POP POP POP DUP1 PUSH1 0x5 PUSH0 PUSH2 0x100 EXP DUP2 SLOAD DUP2 PUSH20 0xFFFFFFFFFFFFFFFFFFFFFFFFFFFFFFFFFFFFFFFF MUL NOT AND SWAP1 DUP4 PUSH20 0xFFFFFFFFFFFFFFFFFFFFFFFFFFFFFFFFFFFFFFFF AND MUL OR SWAP1 SSTORE POP POP PUSH3 0x4EC JUMP JUMPDEST PUSH0 DUP1 REVERT JUMPDEST PUSH0 PUSH20 0xFFFFFFFFFFFFFFFFFFFFFFFFFFFFFFFFFFFFFFFF DUP3 AND SWAP1 POP SWAP2 SWAP1 POP JUMP JUMPDEST PUSH0 PUSH3 0x13E DUP3 PUSH3 0x113 JUMP JUMPDEST SWAP1 POP SWAP2 SWAP1 POP JUMP JUMPDEST PUSH3 0x150 DUP2 PUSH3 0x132 JUMP JUMPDEST DUP2 EQ PUSH3 0x15B JUMPI PUSH0 DUP1 REVERT JUMPDEST POP JUMP JUMPDEST PUSH0 DUP2 MLOAD SWAP1 POP PUSH3 0x16E DUP2 PUSH3 0x145 JUMP JUMPDEST SWAP3 SWAP2 POP POP JUMP JUMPDEST PUSH0 PUSH1 0x20 DUP3 DUP5 SUB SLT ISZERO PUSH3 0x18C JUMPI PUSH3 0x18B PUSH3 0x10F JUMP JUMPDEST JUMPDEST PUSH0 PUSH3 0x19B DUP5 DUP3 DUP6 ADD PUSH3 0x15E JUMP JUMPDEST SWAP2 POP POP SWAP3 SWAP2 POP POP JUMP JUMPDEST PUSH0 DUP2 MLOAD SWAP1 POP SWAP2 SWAP1 POP JUMP JUMPDEST PUSH32 0x4E487B7100000000000000000000000000000000000000000000000000000000 PUSH0 MSTORE PUSH1 0x41 PUSH1 0x4 MSTORE PUSH1 0x24 PUSH0 REVERT JUMPDEST PUSH32 0x4E487B7100000000000000000000000000000000000000000000000000000000 PUSH0 MSTORE PUSH1 0x22 PUSH1 0x4 MSTORE PUSH1 0x24 PUSH0 REVERT JUMPDEST PUSH0 PUSH1 0x2 DUP3 DIV SWAP1 POP PUSH1 0x1 DUP3 AND DUP1 PUSH3 0x220 JUMPI PUSH1 0x7F DUP3 AND SWAP2 POP JUMPDEST PUSH1 0x20 DUP3 LT DUP2 SUB PUSH3 0x236 JUMPI PUSH3 0x235 PUSH3 0x1DB JUMP JUMPDEST JUMPDEST POP SWAP2 SWAP1 POP JUMP JUMPDEST PUSH0 DUP2 SWAP1 POP DUP2 PUSH0 MSTORE PUSH1 0x20 PUSH0 KECCAK256 SWAP1 POP SWAP2 SWAP1 POP JUMP JUMPDEST PUSH0 PUSH1 0x20 PUSH1 0x1F DUP4 ADD DIV SWAP1 POP SWAP2 SWAP1 POP JUMP JUMPDEST PUSH0 DUP3 DUP3 SHL SWAP1 POP SWAP3 SWAP2 POP POP JUMP JUMPDEST PUSH0 PUSH1 0x8 DUP4 MUL PUSH3 0x29A PUSH32 0xFFFFFFFFFFFFFFFFFFFFFFFFFFFFFFFFFFFFFFFFFFFFFFFFFFFFFFFFFFFFFFFF DUP3 PUSH3 0x25D JUMP JUMPDEST PUSH3 0x2A6 DUP7 DUP4 PUSH3 0x25D JUMP JUMPDEST SWAP6 POP DUP1 NOT DUP5 AND SWAP4 POP DUP1 DUP7 AND DUP5 OR SWAP3 POP POP POP SWAP4 SWAP3 POP POP POP JUMP JUMPDEST PUSH0 DUP2 SWAP1 POP SWAP2 SWAP1 POP JUMP JUMPDEST PUSH0 DUP2 SWAP1 POP SWAP2 SWAP1 POP JUMP JUMPDEST PUSH0 PUSH3 0x2F0 PUSH3 0x2EA PUSH3 0x2E4 DUP5 PUSH3 0x2BE JUMP JUMPDEST PUSH3 0x2C7 JUMP JUMPDEST PUSH3 0x2BE JUMP JUMPDEST SWAP1 POP SWAP2 SWAP1 POP JUMP JUMPDEST PUSH0 DUP2 SWAP1 POP SWAP2 SWAP1 POP JUMP JUMPDEST PUSH3 0x30B DUP4 PUSH3 0x2D0 JUMP JUMPDEST PUSH3 0x323 PUSH3 0x31A DUP3 PUSH3 0x2F7 JUMP JUMPDEST DUP5 DUP5 SLOAD PUSH3 0x269 JUMP JUMPDEST DUP3 SSTORE POP POP POP POP JUMP JUMPDEST PUSH0 SWAP1 JUMP JUMPDEST PUSH3 0x339 PUSH3 0x32B JUMP JUMPDEST PUSH3 0x346 DUP2 DUP5 DUP5 PUSH3 0x300 JUMP JUMPDEST POP POP POP JUMP JUMPDEST JUMPDEST DUP2 DUP2 LT ISZERO PUSH3 0x36D JUMPI PUSH3 0x361 PUSH0 DUP3 PUSH3 0x32F JUMP JUMPDEST PUSH1 0x1 DUP2 ADD SWAP1 POP PUSH3 0x34C JUMP JUMPDEST POP POP JUMP JUMPDEST PUSH1 0x1F DUP3 GT ISZERO PUSH3 0x3BC JUMPI PUSH3 0x386 DUP2 PUSH3 0x23C JUMP JUMPDEST PUSH3 0x391 DUP5 PUSH3 0x24E JUMP JUMPDEST DUP2 ADD PUSH1 0x20 DUP6 LT ISZERO PUSH3 0x3A1 JUMPI DUP2 SWAP1 POP JUMPDEST PUSH3 0x3B9 PUSH3 0x3B0 DUP6 PUSH3 0x24E JUMP JUMPDEST DUP4 ADD DUP3 PUSH3 0x34B JUMP JUMPDEST POP POP JUMPDEST POP POP POP JUMP JUMPDEST PUSH0 DUP3 DUP3 SHR SWAP1 POP SWAP3 SWAP2 POP POP JUMP JUMPDEST PUSH0 PUSH3 0x3DE PUSH0 NOT DUP5 PUSH1 0x8 MUL PUSH3 0x3C1 JUMP JUMPDEST NOT DUP1 DUP4 AND SWAP2 POP POP SWAP3 SWAP2 POP POP JUMP JUMPDEST PUSH0 PUSH3 0x3F8 DUP4 DUP4 PUSH3 0x3CD JUMP JUMPDEST SWAP2 POP DUP3 PUSH1 0x2 MUL DUP3 OR SWAP1 POP SWAP3 SWAP2 POP POP JUMP JUMPDEST PUSH3 0x413 DUP3 PUSH3 0x1A4 JUMP JUMPDEST PUSH8 0xFFFFFFFFFFFFFFFF DUP2 GT ISZERO PUSH3 0x42F JUMPI PUSH3 0x42E PUSH3 0x1AE JUMP JUMPDEST JUMPDEST PUSH3 0x43B DUP3 SLOAD PUSH3 0x208 JUMP JUMPDEST PUSH3 0x448 DUP3 DUP3 DUP6 PUSH3 0x371 JUMP JUMPDEST PUSH0 PUSH1 0x20 SWAP1 POP PUSH1 0x1F DUP4 GT PUSH1 0x1 DUP2 EQ PUSH3 0x47E JUMPI PUSH0 DUP5 ISZERO PUSH3 0x469 JUMPI DUP3 DUP8 ADD MLOAD SWAP1 POP JUMPDEST PUSH3 0x475 DUP6 DUP3 PUSH3 0x3EB JUMP JUMPDEST DUP7 SSTORE POP PUSH3 0x4E4 JUMP JUMPDEST PUSH1 0x1F NOT DUP5 AND PUSH3 0x48E DUP7 PUSH3 0x23C JUMP JUMPDEST PUSH0 JUMPDEST DUP3 DUP2 LT ISZERO PUSH3 0x4B7 JUMPI DUP5 DUP10 ADD MLOAD DUP3 SSTORE PUSH1 0x1 DUP3 ADD SWAP2 POP PUSH1 0x20 DUP6 ADD SWAP5 POP PUSH1 0x20 DUP2 ADD SWAP1 POP PUSH3 0x490 JUMP JUMPDEST DUP7 DUP4 LT ISZERO PUSH3 0x4D7 JUMPI DUP5 DUP10 ADD MLOAD PUSH3 0x4D3 PUSH1 0x1F DUP10 AND DUP3 PUSH3 0x3CD JUMP JUMPDEST DUP4 SSTORE POP JUMPDEST PUSH1 0x1 PUSH1 0x2 DUP9 MUL ADD DUP9 SSTORE POP POP POP JUMPDEST POP POP POP POP POP POP JUMP JUMPDEST PUSH2 0x15EB DUP1 PUSH3 0x4FA PUSH0 CODECOPY PUSH0 RETURN INVALID PUSH1 0x80 PUSH1 0x40 MSTORE CALLVALUE DUP1 ISZERO PUSH2 0xF JUMPI PUSH0 DUP1 REVERT JUMPDEST POP PUSH1 0x4 CALLDATASIZE LT PUSH2 0xA7 JUMPI PUSH0 CALLDATALOAD PUSH1 0xE0 SHR DUP1 PUSH4 0x379607F5 GT PUSH2 0x6F JUMPI DUP1 PUSH4 0x379607F5 EQ PUSH2 0x165 JUMPI DUP1 PUSH4 0x70A08231 EQ PUSH2 0x181 JUMPI DUP1 PUSH4 0x95D89B41 EQ PUSH2 0x1B1 JUMPI DUP1 PUSH4 0xA0712D68 EQ PUSH2 0x1CF JUMPI DUP1 PUSH4 0xA9059CBB EQ PUSH2 0x1EB JUMPI DUP1 PUSH4 0xDD62ED3E EQ PUSH2 0x21B JUMPI PUSH2 0xA7 JUMP JUMPDEST DUP1 PUSH4 0x6FDDE03 EQ PUSH2 0xAB JUMPI DUP1 PUSH4 0x95EA7B3 EQ PUSH2 0xC9 JUMPI DUP1 PUSH4 0x18160DDD EQ PUSH2 0xF9 JUMPI DUP1 PUSH4 0x23B872DD EQ PUSH2 0x117 JUMPI DUP1 PUSH4 0x313CE567 EQ PUSH2 0x147 JUMPI JUMPDEST PUSH0 DUP1 REVERT JUMPDEST PUSH2 0xB3 PUSH2 0x24B JUMP JUMPDEST PUSH1 0x40 MLOAD PUSH2 0xC0 SWAP2 SWAP1 PUSH2 0xFC7 JUMP JUMPDEST PUSH1 0x40 MLOAD DUP1 SWAP2 SUB SWAP1 RETURN JUMPDEST PUSH2 0xE3 PUSH1 0x4 DUP1 CALLDATASIZE SUB DUP2 ADD SWAP1 PUSH2 0xDE SWAP2 SWAP1 PUSH2 0x1078 JUMP JUMPDEST PUSH2 0x2DB JUMP JUMPDEST PUSH1 0x40 MLOAD PUSH2 0xF0 SWAP2 SWAP1 PUSH2 0x10D0 JUMP JUMPDEST PUSH1 0x40 MLOAD DUP1 SWAP2 SUB SWAP1 RETURN JUMPDEST PUSH2 0x101 PUSH2 0x2FD JUMP JUMPDEST PUSH1 0x40 MLOAD PUSH2 0x10E SWAP2 SWAP1 PUSH2 0x10F8 JUMP JUMPDEST PUSH1 0x40 MLOAD DUP1 SWAP2 SUB SWAP1 RETURN JUMPDEST PUSH2 0x131 PUSH1 0x4 DUP1 CALLDATASIZE SUB DUP2 ADD SWAP1 PUSH2 0x12C SWAP2 SWAP1 PUSH2 0x1111 JUMP JUMPDEST PUSH2 0x306 JUMP JUMPDEST PUSH1 0x40 MLOAD PUSH2 0x13E SWAP2 SWAP1 PUSH2 0x10D0 JUMP JUMPDEST PUSH1 0x40 MLOAD DUP1 SWAP2 SUB SWAP1 RETURN JUMPDEST PUSH2 0x14F PUSH2 0x334 JUMP JUMPDEST PUSH1 0x40 MLOAD PUSH2 0x15C SWAP2 SWAP1 PUSH2 0x117C JUMP JUMPDEST PUSH1 0x40 MLOAD DUP1 SWAP2 SUB SWAP1 RETURN JUMPDEST PUSH2 0x17F PUSH1 0x4 DUP1 CALLDATASIZE SUB DUP2 ADD SWAP1 PUSH2 0x17A SWAP2 SWAP1 PUSH2 0x1195 JUMP JUMPDEST PUSH2 0x33C JUMP JUMPDEST STOP JUMPDEST PUSH2 0x19B PUSH1 0x4 DUP1 CALLDATASIZE SUB DUP2 ADD SWAP1 PUSH2 0x196 SWAP2 SWAP1 PUSH2 0x11C0 JUMP JUMPDEST PUSH2 0x461 JUMP JUMPDEST PUSH1 0x40 MLOAD PUSH2 0x1A8 SWAP2 SWAP1 PUSH2 0x10F8 JUMP JUMPDEST PUSH1 0x40 MLOAD DUP1 SWAP2 SUB SWAP1 RETURN JUMPDEST PUSH2 0x1B9 PUSH2 0x4A6 JUMP JUMPDEST PUSH1 0x40 MLOAD PUSH2 0x1C6 SWAP2 SWAP1 PUSH2 0xFC7 JUMP JUMPDEST PUSH1 0x40 MLOAD DUP1 SWAP2 SUB SWAP1 RETURN JUMPDEST PUSH2 0x1E9 PUSH1 0x4 DUP1 CALLDATASIZE SUB DUP2 ADD SWAP1 PUSH2 0x1E4 SWAP2 SWAP1 PUSH2 0x1195 JUMP JUMPDEST PUSH2 0x536 JUMP JUMPDEST STOP JUMPDEST PUSH2 0x205 PUSH1 0x4 DUP1 CALLDATASIZE SUB DUP2 ADD SWAP1 PUSH2 0x200 SWAP2 SWAP1 PUSH2 0x1078 JUMP JUMPDEST PUSH2 0x817 JUMP JUMPDEST PUSH1 0x40 MLOAD PUSH2 0x212 SWAP2 SWAP1 PUSH2 0x10D0 JUMP JUMPDEST PUSH1 0x40 MLOAD DUP1 SWAP2 SUB SWAP1 RETURN JUMPDEST PUSH2 0x235 PUSH1 0x4 DUP1 CALLDATASIZE SUB DUP2 ADD SWAP1 PUSH2 0x230 SWAP2 SWAP1 PUSH2 0x11EB JUMP JUMPDEST PUSH2 0x839 JUMP JUMPDEST PUSH1 0x40 MLOAD PUSH2 0x242 SWAP2 SWAP1 PUSH2 0x10F8 JUMP JUMPDEST PUSH1 0x40 MLOAD DUP1 SWAP2 SUB SWAP1 RETURN JUMPDEST PUSH1 0x60 PUSH1 0x3 DUP1 SLOAD PUSH2 0x25A SWAP1 PUSH2 0x1256 JUMP JUMPDEST DUP1 PUSH1 0x1F ADD PUSH1 0x20 DUP1 SWAP2 DIV MUL PUSH1 0x20 ADD PUSH1 0x40 MLOAD SWAP1 DUP2 ADD PUSH1 0x40 MSTORE DUP1 SWAP3 SWAP2 SWAP1 DUP2 DUP2 MSTORE PUSH1 0x20 ADD DUP3 DUP1 SLOAD PUSH2 0x286 SWAP1 PUSH2 0x1256 JUMP JUMPDEST DUP1 ISZERO PUSH2 0x2D1 JUMPI DUP1 PUSH1 0x1F LT PUSH2 0x2A8 JUMPI PUSH2 0x100 DUP1 DUP4 SLOAD DIV MUL DUP4 MSTORE SWAP2 PUSH1 0x20 ADD SWAP2 PUSH2 0x2D1 JUMP JUMPDEST DUP3 ADD SWAP2 SWAP1 PUSH0 MSTORE PUSH1 0x20 PUSH0 KECCAK256 SWAP1 JUMPDEST DUP2 SLOAD DUP2 MSTORE SWAP1 PUSH1 0x1 ADD SWAP1 PUSH1 0x20 ADD DUP1 DUP4 GT PUSH2 0x2B4 JUMPI DUP3 SWAP1 SUB PUSH1 0x1F AND DUP3 ADD SWAP2 JUMPDEST POP POP POP POP POP SWAP1 POP SWAP1 JUMP JUMPDEST PUSH0 DUP1 PUSH2 0x2E5 PUSH2 0x8BB JUMP JUMPDEST SWAP1 POP PUSH2 0x2F2 DUP2 DUP6 DUP6 PUSH2 0x8C2 JUMP JUMPDEST PUSH1 0x1 SWAP2 POP POP SWAP3 SWAP2 POP POP JUMP JUMPDEST PUSH0 PUSH1 0x2 SLOAD SWAP1 POP SWAP1 JUMP JUMPDEST PUSH0 DUP1 PUSH2 0x310 PUSH2 0x8BB JUMP JUMPDEST SWAP1 POP PUSH2 0x31D DUP6 DUP3 DUP6 PUSH2 0x8D4 JUMP JUMPDEST PUSH2 0x328 DUP6 DUP6 DUP6 PUSH2 0x967 JUMP JUMPDEST PUSH1 0x1 SWAP2 POP POP SWAP4 SWAP3 POP POP POP JUMP JUMPDEST PUSH0 PUSH1 0x12 SWAP1 POP SWAP1 JUMP JUMPDEST PUSH1 0x5 PUSH0 SWAP1 SLOAD SWAP1 PUSH2 0x100 EXP SWAP1 DIV PUSH20 0xFFFFFFFFFFFFFFFFFFFFFFFFFFFFFFFFFFFFFFFF AND PUSH20 0xFFFFFFFFFFFFFFFFFFFFFFFFFFFFFFFFFFFFFFFF AND PUSH4 0xDA4658E0 PUSH1 0x40 MLOAD DUP2 PUSH4 0xFFFFFFFF AND PUSH1 0xE0 SHL DUP2 MSTORE PUSH1 0x4 ADD PUSH1 0x20 PUSH1 0x40 MLOAD DUP1 DUP4 SUB DUP2 DUP7 GAS STATICCALL ISZERO DUP1 ISZERO PUSH2 0x3A6 JUMPI RETURNDATASIZE PUSH0 DUP1 RETURNDATACOPY RETURNDATASIZE PUSH0 REVERT JUMPDEST POP POP POP POP PUSH1 0x40 MLOAD RETURNDATASIZE PUSH1 0x1F NOT PUSH1 0x1F DUP3 ADD AND DUP3 ADD DUP1 PUSH1 0x40 MSTORE POP DUP2 ADD SWAP1 PUSH2 0x3CA SWAP2 SWAP1 PUSH2 0x12B0 JUMP JUMPDEST PUSH2 0x409 JUMPI PUSH1 0x40 MLOAD PUSH32 0x8C379A000000000000000000000000000000000000000000000000000000000 DUP2 MSTORE PUSH1 0x4 ADD PUSH2 0x400 SWAP1 PUSH2 0x1325 JUMP JUMPDEST PUSH1 0x40 MLOAD DUP1 SWAP2 SUB SWAP1 REVERT JUMPDEST DUP1 PUSH2 0x413 CALLER PUSH2 0x461 JUMP JUMPDEST LT ISZERO PUSH2 0x454 JUMPI PUSH1 0x40 MLOAD PUSH32 0x8C379A000000000000000000000000000000000000000000000000000000000 DUP2 MSTORE PUSH1 0x4 ADD PUSH2 0x44B SWAP1 PUSH2 0x13B3 JUMP JUMPDEST PUSH1 0x40 MLOAD DUP1 SWAP2 SUB SWAP1 REVERT JUMPDEST PUSH2 0x45E CALLER DUP3 PUSH2 0xA57 JUMP JUMPDEST POP JUMP JUMPDEST PUSH0 DUP1 PUSH0 DUP4 PUSH20 0xFFFFFFFFFFFFFFFFFFFFFFFFFFFFFFFFFFFFFFFF AND PUSH20 0xFFFFFFFFFFFFFFFFFFFFFFFFFFFFFFFFFFFFFFFF AND DUP2 MSTORE PUSH1 0x20 ADD SWAP1 DUP2 MSTORE PUSH1 0x20 ADD PUSH0 KECCAK256 SLOAD SWAP1 POP SWAP2 SWAP1 POP JUMP JUMPDEST PUSH1 0x60 PUSH1 0x4 DUP1 SLOAD PUSH2 0x4B5 SWAP1 PUSH2 0x1256 JUMP JUMPDEST DUP1 PUSH1 0x1F ADD PUSH1 0x20 DUP1 SWAP2 DIV MUL PUSH1 0x20 ADD PUSH1 0x40 MLOAD SWAP1 DUP2 ADD PUSH1 0x40 MSTORE DUP1 SWAP3 SWAP2 SWAP1 DUP2 DUP2 MSTORE PUSH1 0x20 ADD DUP3 DUP1 SLOAD PUSH2 0x4E1 SWAP1 PUSH2 0x1256 JUMP JUMPDEST DUP1 ISZERO PUSH2 0x52C JUMPI DUP1 PUSH1 0x1F LT PUSH2 0x503 JUMPI PUSH2 0x100 DUP1 DUP4 SLOAD DIV MUL DUP4 MSTORE SWAP2 PUSH1 0x20 ADD SWAP2 PUSH2 0x52C JUMP JUMPDEST DUP3 ADD SWAP2 SWAP1 PUSH0 MSTORE PUSH1 0x20 PUSH0 KECCAK256 SWAP1 JUMPDEST DUP2 SLOAD DUP2 MSTORE SWAP1 PUSH1 0x1 ADD SWAP1 PUSH1 0x20 ADD DUP1 DUP4 GT PUSH2 0x50F JUMPI DUP3 SWAP1 SUB PUSH1 0x1F AND DUP3 ADD SWAP2 JUMPDEST POP POP POP POP POP SWAP1 POP SWAP1 JUMP JUMPDEST PUSH1 0x5 PUSH0 SWAP1 SLOAD SWAP1 PUSH2 0x100 EXP SWAP1 DIV PUSH20 0xFFFFFFFFFFFFFFFFFFFFFFFFFFFFFFFFFFFFFFFF AND PUSH20 0xFFFFFFFFFFFFFFFFFFFFFFFFFFFFFFFFFFFFFFFF AND PUSH4 0xDA4658E0 PUSH1 0x40 MLOAD DUP2 PUSH4 0xFFFFFFFF AND PUSH1 0xE0 SHL DUP2 MSTORE PUSH1 0x4 ADD PUSH1 0x20 PUSH1 0x40 MLOAD DUP1 DUP4 SUB DUP2 DUP7 GAS STATICCALL ISZERO DUP1 ISZERO PUSH2 0x5A0 JUMPI RETURNDATASIZE PUSH0 DUP1 RETURNDATACOPY RETURNDATASIZE PUSH0 REVERT JUMPDEST POP POP POP POP PUSH1 0x40 MLOAD RETURNDATASIZE PUSH1 0x1F NOT PUSH1 0x1F DUP3 ADD AND DUP3 ADD DUP1 PUSH1 0x40 MSTORE POP DUP2 ADD SWAP1 PUSH2 0x5C4 SWAP2 SWAP1 PUSH2 0x12B0 JUMP JUMPDEST PUSH2 0x603 JUMPI PUSH1 0x40 MLOAD PUSH32 0x8C379A000000000000000000000000000000000000000000000000000000000 DUP2 MSTORE PUSH1 0x4 ADD PUSH2 0x5FA SWAP1 PUSH2 0x1325 JUMP JUMPDEST PUSH1 0x40 MLOAD DUP1 SWAP2 SUB SWAP1 REVERT JUMPDEST DUP1 PUSH1 0x5 PUSH0 SWAP1 SLOAD SWAP1 PUSH2 0x100 EXP SWAP1 DIV PUSH20 0xFFFFFFFFFFFFFFFFFFFFFFFFFFFFFFFFFFFFFFFF AND PUSH20 0xFFFFFFFFFFFFFFFFFFFFFFFFFFFFFFFFFFFFFFFF AND PUSH4 0x9F883A05 CALLER PUSH1 0x40 MLOAD DUP3 PUSH4 0xFFFFFFFF AND PUSH1 0xE0 SHL DUP2 MSTORE PUSH1 0x4 ADD PUSH2 0x65E SWAP2 SWAP1 PUSH2 0x13E0 JUMP JUMPDEST PUSH1 0x20 PUSH1 0x40 MLOAD DUP1 DUP4 SUB DUP2 DUP7 GAS STATICCALL ISZERO DUP1 ISZERO PUSH2 0x679 JUMPI RETURNDATASIZE PUSH0 DUP1 RETURNDATACOPY RETURNDATASIZE PUSH0 REVERT JUMPDEST POP POP POP POP PUSH1 0x40 MLOAD RETURNDATASIZE PUSH1 0x1F NOT PUSH1 0x1F DUP3 ADD AND DUP3 ADD DUP1 PUSH1 0x40 MSTORE POP DUP2 ADD SWAP1 PUSH2 0x69D SWAP2 SWAP1 PUSH2 0x140D JUMP JUMPDEST LT ISZERO PUSH2 0x6DE JUMPI PUSH1 0x40 MLOAD PUSH32 0x8C379A000000000000000000000000000000000000000000000000000000000 DUP2 MSTORE PUSH1 0x4 ADD PUSH2 0x6D5 SWAP1 PUSH2 0x14A8 JUMP JUMPDEST PUSH1 0x40 MLOAD DUP1 SWAP2 SUB SWAP1 REVERT JUMPDEST PUSH2 0x6E8 CALLER DUP3 PUSH2 0xAD6 JUMP JUMPDEST PUSH1 0x5 PUSH0 SWAP1 SLOAD SWAP1 PUSH2 0x100 EXP SWAP1 DIV PUSH20 0xFFFFFFFFFFFFFFFFFFFFFFFFFFFFFFFFFFFFFFFF AND PUSH20 0xFFFFFFFFFFFFFFFFFFFFFFFFFFFFFFFFFFFFFFFF AND PUSH4 0xD39CF006 CALLER DUP4 PUSH1 0x5 PUSH0 SWAP1 SLOAD SWAP1 PUSH2 0x100 EXP SWAP1 DIV PUSH20 0xFFFFFFFFFFFFFFFFFFFFFFFFFFFFFFFFFFFFFFFF AND PUSH20 0xFFFFFFFFFFFFFFFFFFFFFFFFFFFFFFFFFFFFFFFF AND PUSH4 0x9F883A05 CALLER PUSH1 0x40 MLOAD DUP3 PUSH4 0xFFFFFFFF AND PUSH1 0xE0 SHL DUP2 MSTORE PUSH1 0x4 ADD PUSH2 0x781 SWAP2 SWAP1 PUSH2 0x13E0 JUMP JUMPDEST PUSH1 0x20 PUSH1 0x40 MLOAD DUP1 DUP4 SUB DUP2 DUP7 GAS STATICCALL ISZERO DUP1 ISZERO PUSH2 0x79C JUMPI RETURNDATASIZE PUSH0 DUP1 RETURNDATACOPY RETURNDATASIZE PUSH0 REVERT JUMPDEST POP POP POP POP PUSH1 0x40 MLOAD RETURNDATASIZE PUSH1 0x1F NOT PUSH1 0x1F DUP3 ADD AND DUP3 ADD DUP1 PUSH1 0x40 MSTORE POP DUP2 ADD SWAP1 PUSH2 0x7C0 SWAP2 SWAP1 PUSH2 0x140D JUMP JUMPDEST PUSH2 0x7CA SWAP2 SWAP1 PUSH2 0x14F3 JUMP JUMPDEST PUSH1 0x40 MLOAD DUP4 PUSH4 0xFFFFFFFF AND PUSH1 0xE0 SHL DUP2 MSTORE PUSH1 0x4 ADD PUSH2 0x7E7 SWAP3 SWAP2 SWAP1 PUSH2 0x1526 JUMP JUMPDEST PUSH0 PUSH1 0x40 MLOAD DUP1 DUP4 SUB DUP2 PUSH0 DUP8 DUP1 EXTCODESIZE ISZERO DUP1 ISZERO PUSH2 0x7FE JUMPI PUSH0 DUP1 REVERT JUMPDEST POP GAS CALL ISZERO DUP1 ISZERO PUSH2 0x810 JUMPI RETURNDATASIZE PUSH0 DUP1 RETURNDATACOPY RETURNDATASIZE PUSH0 REVERT JUMPDEST POP POP POP POP POP JUMP JUMPDEST PUSH0 DUP1 PUSH2 0x821 PUSH2 0x8BB JUMP JUMPDEST SWAP1 POP PUSH2 0x82E DUP2 DUP6 DUP6 PUSH2 0x967 JUMP JUMPDEST PUSH1 0x1 SWAP2 POP POP SWAP3 SWAP2 POP POP JUMP JUMPDEST PUSH0 PUSH1 0x1 PUSH0 DUP5 PUSH20 0xFFFFFFFFFFFFFFFFFFFFFFFFFFFFFFFFFFFFFFFF AND PUSH20 0xFFFFFFFFFFFFFFFFFFFFFFFFFFFFFFFFFFFFFFFF AND DUP2 MSTORE PUSH1 0x20 ADD SWAP1 DUP2 MSTORE PUSH1 0x20 ADD PUSH0 KECCAK256 PUSH0 DUP4 PUSH20 0xFFFFFFFFFFFFFFFFFFFFFFFFFFFFFFFFFFFFFFFF AND PUSH20 0xFFFFFFFFFFFFFFFFFFFFFFFFFFFFFFFFFFFFFFFF AND DUP2 MSTORE PUSH1 0x20 ADD SWAP1 DUP2 MSTORE PUSH1 0x20 ADD PUSH0 KECCAK256 SLOAD SWAP1 POP SWAP3 SWAP2 POP POP JUMP JUMPDEST PUSH0 CALLER SWAP1 POP SWAP1 JUMP JUMPDEST PUSH2 0x8CF DUP4 DUP4 DUP4 PUSH1 0x1 PUSH2 0xB55 JUMP JUMPDEST POP POP POP JUMP JUMPDEST PUSH0 PUSH2 0x8DF DUP5 DUP5 PUSH2 0x839 JUMP JUMPDEST SWAP1 POP PUSH32 0xFFFFFFFFFFFFFFFFFFFFFFFFFFFFFFFFFFFFFFFFFFFFFFFFFFFFFFFFFFFFFFFF DUP2 LT ISZERO PUSH2 0x961 JUMPI DUP2 DUP2 LT ISZERO PUSH2 0x952 JUMPI DUP3 DUP2 DUP4 PUSH1 0x40 MLOAD PUSH32 0xFB8F41B200000000000000000000000000000000000000000000000000000000 DUP2 MSTORE PUSH1 0x4 ADD PUSH2 0x949 SWAP4 SWAP3 SWAP2 SWAP1 PUSH2 0x154D JUMP JUMPDEST PUSH1 0x40 MLOAD DUP1 SWAP2 SUB SWAP1 REVERT JUMPDEST PUSH2 0x960 DUP5 DUP5 DUP5 DUP5 SUB PUSH0 PUSH2 0xB55 JUMP JUMPDEST JUMPDEST POP POP POP POP JUMP JUMPDEST PUSH0 PUSH20 0xFFFFFFFFFFFFFFFFFFFFFFFFFFFFFFFFFFFFFFFF AND DUP4 PUSH20 0xFFFFFFFFFFFFFFFFFFFFFFFFFFFFFFFFFFFFFFFF AND SUB PUSH2 0x9D7 JUMPI PUSH0 PUSH1 0x40 MLOAD PUSH32 0x96C6FD1E00000000000000000000000000000000000000000000000000000000 DUP2 MSTORE PUSH1 0x4 ADD PUSH2 0x9CE SWAP2 SWAP1 PUSH2 0x13E0 JUMP JUMPDEST PUSH1 0x40 MLOAD DUP1 SWAP2 SUB SWAP1 REVERT JUMPDEST PUSH0 PUSH20 0xFFFFFFFFFFFFFFFFFFFFFFFFFFFFFFFFFFFFFFFF AND DUP3 PUSH20 0xFFFFFFFFFFFFFFFFFFFFFFFFFFFFFFFFFFFFFFFF AND SUB PUSH2 0xA47 JUMPI PUSH0 PUSH1 0x40 MLOAD PUSH32 0xEC442F0500000000000000000000000000000000000000000000000000000000 DUP2 MSTORE PUSH1 0x4 ADD PUSH2 0xA3E SWAP2 SWAP1 PUSH2 0x13E0 JUMP JUMPDEST PUSH1 0x40 MLOAD DUP1 SWAP2 SUB SWAP1 REVERT JUMPDEST PUSH2 0xA52 DUP4 DUP4 DUP4 PUSH2 0xD24 JUMP JUMPDEST POP POP POP JUMP JUMPDEST PUSH0 PUSH20 0xFFFFFFFFFFFFFFFFFFFFFFFFFFFFFFFFFFFFFFFF AND DUP3 PUSH20 0xFFFFFFFFFFFFFFFFFFFFFFFFFFFFFFFFFFFFFFFF AND SUB PUSH2 0xAC7 JUMPI PUSH0 PUSH1 0x40 MLOAD PUSH32 0x96C6FD1E00000000000000000000000000000000000000000000000000000000 DUP2 MSTORE PUSH1 0x4 ADD PUSH2 0xABE SWAP2 SWAP1 PUSH2 0x13E0 JUMP JUMPDEST PUSH1 0x40 MLOAD DUP1 SWAP2 SUB SWAP1 REVERT JUMPDEST PUSH2 0xAD2 DUP3 PUSH0 DUP4 PUSH2 0xD24 JUMP JUMPDEST POP POP JUMP JUMPDEST PUSH0 PUSH20 0xFFFFFFFFFFFFFFFFFFFFFFFFFFFFFFFFFFFFFFFF AND DUP3 PUSH20 0xFFFFFFFFFFFFFFFFFFFFFFFFFFFFFFFFFFFFFFFF AND SUB PUSH2 0xB46 JUMPI PUSH0 PUSH1 0x40 MLOAD PUSH32 0xEC442F0500000000000000000000000000000000000000000000000000000000 DUP2 MSTORE PUSH1 0x4 ADD PUSH2 0xB3D SWAP2 SWAP1 PUSH2 0x13E0 JUMP JUMPDEST PUSH1 0x40 MLOAD DUP1 SWAP2 SUB SWAP1 REVERT JUMPDEST PUSH2 0xB51 PUSH0 DUP4 DUP4 PUSH2 0xD24 JUMP JUMPDEST POP POP JUMP JUMPDEST PUSH0 PUSH20 0xFFFFFFFFFFFFFFFFFFFFFFFFFFFFFFFFFFFFFFFF AND DUP5 PUSH20 0xFFFFFFFFFFFFFFFFFFFFFFFFFFFFFFFFFFFFFFFF AND SUB PUSH2 0xBC5 JUMPI PUSH0 PUSH1 0x40 MLOAD PUSH32 0xE602DF0500000000000000000000000000000000000000000000000000000000 DUP2 MSTORE PUSH1 0x4 ADD PUSH2 0xBBC SWAP2 SWAP1 PUSH2 0x13E0 JUMP JUMPDEST PUSH1 0x40 MLOAD DUP1 SWAP2 SUB SWAP1 REVERT JUMPDEST PUSH0 PUSH20 0xFFFFFFFFFFFFFFFFFFFFFFFFFFFFFFFFFFFFFFFF AND DUP4 PUSH20 0xFFFFFFFFFFFFFFFFFFFFFFFFFFFFFFFFFFFFFFFF AND SUB PUSH2 0xC35 JUMPI PUSH0 PUSH1 0x40 MLOAD PUSH32 0x94280D6200000000000000000000000000000000000000000000000000000000 DUP2 MSTORE PUSH1 0x4 ADD PUSH2 0xC2C SWAP2 SWAP1 PUSH2 0x13E0 JUMP JUMPDEST PUSH1 0x40 MLOAD DUP1 SWAP2 SUB SWAP1 REVERT JUMPDEST DUP2 PUSH1 0x1 PUSH0 DUP7 PUSH20 0xFFFFFFFFFFFFFFFFFFFFFFFFFFFFFFFFFFFFFFFF AND PUSH20 0xFFFFFFFFFFFFFFFFFFFFFFFFFFFFFFFFFFFFFFFF AND DUP2 MSTORE PUSH1 0x20 ADD SWAP1 DUP2 MSTORE PUSH1 0x20 ADD PUSH0 KECCAK256 PUSH0 DUP6 PUSH20 0xFFFFFFFFFFFFFFFFFFFFFFFFFFFFFFFFFFFFFFFF AND PUSH20 0xFFFFFFFFFFFFFFFFFFFFFFFFFFFFFFFFFFFFFFFF AND DUP2 MSTORE PUSH1 0x20 ADD SWAP1 DUP2 MSTORE PUSH1 0x20 ADD PUSH0 KECCAK256 DUP2 SWAP1 SSTORE POP DUP1 ISZERO PUSH2 0xD1E JUMPI DUP3 PUSH20 0xFFFFFFFFFFFFFFFFFFFFFFFFFFFFFFFFFFFFFFFF AND DUP5 PUSH20 0xFFFFFFFFFFFFFFFFFFFFFFFFFFFFFFFFFFFFFFFF AND PUSH32 0x8C5BE1E5EBEC7D5BD14F71427D1E84F3DD0314C0F7B2291E5B200AC8C7C3B925 DUP5 PUSH1 0x40 MLOAD PUSH2 0xD15 SWAP2 SWAP1 PUSH2 0x10F8 JUMP JUMPDEST PUSH1 0x40 MLOAD DUP1 SWAP2 SUB SWAP1 LOG3 JUMPDEST POP POP POP POP JUMP JUMPDEST PUSH0 PUSH20 0xFFFFFFFFFFFFFFFFFFFFFFFFFFFFFFFFFFFFFFFF AND DUP4 PUSH20 0xFFFFFFFFFFFFFFFFFFFFFFFFFFFFFFFFFFFFFFFF AND SUB PUSH2 0xD74 JUMPI DUP1 PUSH1 0x2 PUSH0 DUP3 DUP3 SLOAD PUSH2 0xD68 SWAP2 SWAP1 PUSH2 0x1582 JUMP JUMPDEST SWAP3 POP POP DUP2 SWAP1 SSTORE POP PUSH2 0xE42 JUMP JUMPDEST PUSH0 DUP1 PUSH0 DUP6 PUSH20 0xFFFFFFFFFFFFFFFFFFFFFFFFFFFFFFFFFFFFFFFF AND PUSH20 0xFFFFFFFFFFFFFFFFFFFFFFFFFFFFFFFFFFFFFFFF AND DUP2 MSTORE PUSH1 0x20 ADD SWAP1 DUP2 MSTORE PUSH1 0x20 ADD PUSH0 KECCAK256 SLOAD SWAP1 POP DUP2 DUP2 LT ISZERO PUSH2 0xDFD JUMPI DUP4 DUP2 DUP4 PUSH1 0x40 MLOAD PUSH32 0xE450D38C00000000000000000000000000000000000000000000000000000000 DUP2 MSTORE PUSH1 0x4 ADD PUSH2 0xDF4 SWAP4 SWAP3 SWAP2 SWAP1 PUSH2 0x154D JUMP JUMPDEST PUSH1 0x40 MLOAD DUP1 SWAP2 SUB SWAP1 REVERT JUMPDEST DUP2 DUP2 SUB PUSH0 DUP1 DUP7 PUSH20 0xFFFFFFFFFFFFFFFFFFFFFFFFFFFFFFFFFFFFFFFF AND PUSH20 0xFFFFFFFFFFFFFFFFFFFFFFFFFFFFFFFFFFFFFFFF AND DUP2 MSTORE PUSH1 0x20 ADD SWAP1 DUP2 MSTORE PUSH1 0x20 ADD PUSH0 KECCAK256 DUP2 SWAP1 SSTORE POP POP JUMPDEST PUSH0 PUSH20 0xFFFFFFFFFFFFFFFFFFFFFFFFFFFFFFFFFFFFFFFF AND DUP3 PUSH20 0xFFFFFFFFFFFFFFFFFFFFFFFFFFFFFFFFFFFFFFFF AND SUB PUSH2 0xE89 JUMPI DUP1 PUSH1 0x2 PUSH0 DUP3 DUP3 SLOAD SUB SWAP3 POP POP DUP2 SWAP1 SSTORE POP PUSH2 0xED3 JUMP JUMPDEST DUP1 PUSH0 DUP1 DUP5 PUSH20 0xFFFFFFFFFFFFFFFFFFFFFFFFFFFFFFFFFFFFFFFF AND PUSH20 0xFFFFFFFFFFFFFFFFFFFFFFFFFFFFFFFFFFFFFFFF AND DUP2 MSTORE PUSH1 0x20 ADD SWAP1 DUP2 MSTORE PUSH1 0x20 ADD PUSH0 KECCAK256 PUSH0 DUP3 DUP3 SLOAD ADD SWAP3 POP POP DUP2 SWAP1 SSTORE POP JUMPDEST DUP2 PUSH20 0xFFFFFFFFFFFFFFFFFFFFFFFFFFFFFFFFFFFFFFFF AND DUP4 PUSH20 0xFFFFFFFFFFFFFFFFFFFFFFFFFFFFFFFFFFFFFFFF AND PUSH32 0xDDF252AD1BE2C89B69C2B068FC378DAA952BA7F163C4A11628F55A4DF523B3EF DUP4 PUSH1 0x40 MLOAD PUSH2 0xF30 SWAP2 SWAP1 PUSH2 0x10F8 JUMP JUMPDEST PUSH1 0x40 MLOAD DUP1 SWAP2 SUB SWAP1 LOG3 POP POP POP JUMP JUMPDEST PUSH0 DUP2 MLOAD SWAP1 POP SWAP2 SWAP1 POP JUMP JUMPDEST PUSH0 DUP3 DUP3 MSTORE PUSH1 0x20 DUP3 ADD SWAP1 POP SWAP3 SWAP2 POP POP JUMP JUMPDEST PUSH0 JUMPDEST DUP4 DUP2 LT ISZERO PUSH2 0xF74 JUMPI DUP1 DUP3 ADD MLOAD DUP2 DUP5 ADD MSTORE PUSH1 0x20 DUP2 ADD SWAP1 POP PUSH2 0xF59 JUMP JUMPDEST PUSH0 DUP5 DUP5 ADD MSTORE POP POP POP POP JUMP JUMPDEST PUSH0 PUSH1 0x1F NOT PUSH1 0x1F DUP4 ADD AND SWAP1 POP SWAP2 SWAP1 POP JUMP JUMPDEST PUSH0 PUSH2 0xF99 DUP3 PUSH2 0xF3D JUMP JUMPDEST PUSH2 0xFA3 DUP2 DUP6 PUSH2 0xF47 JUMP JUMPDEST SWAP4 POP PUSH2 0xFB3 DUP2 DUP6 PUSH1 0x20 DUP7 ADD PUSH2 0xF57 JUMP JUMPDEST PUSH2 0xFBC DUP2 PUSH2 0xF7F JUMP JUMPDEST DUP5 ADD SWAP2 POP POP SWAP3 SWAP2 POP POP JUMP JUMPDEST PUSH0 PUSH1 0x20 DUP3 ADD SWAP1 POP DUP2 DUP2 SUB PUSH0 DUP4 ADD MSTORE PUSH2 0xFDF DUP2 DUP5 PUSH2 0xF8F JUMP JUMPDEST SWAP1 POP SWAP3 SWAP2 POP POP JUMP JUMPDEST PUSH0 DUP1 REVERT JUMPDEST PUSH0 PUSH20 0xFFFFFFFFFFFFFFFFFFFFFFFFFFFFFFFFFFFFFFFF DUP3 AND SWAP1 POP SWAP2 SWAP1 POP JUMP JUMPDEST PUSH0 PUSH2 0x1014 DUP3 PUSH2 0xFEB JUMP JUMPDEST SWAP1 POP SWAP2 SWAP1 POP JUMP JUMPDEST PUSH2 0x1024 DUP2 PUSH2 0x100A JUMP JUMPDEST DUP2 EQ PUSH2 0x102E JUMPI PUSH0 DUP1 REVERT JUMPDEST POP JUMP JUMPDEST PUSH0 DUP2 CALLDATALOAD SWAP1 POP PUSH2 0x103F DUP2 PUSH2 0x101B JUMP JUMPDEST SWAP3 SWAP2 POP POP JUMP JUMPDEST PUSH0 DUP2 SWAP1 POP SWAP2 SWAP1 POP JUMP JUMPDEST PUSH2 0x1057 DUP2 PUSH2 0x1045 JUMP JUMPDEST DUP2 EQ PUSH2 0x1061 JUMPI PUSH0 DUP1 REVERT JUMPDEST POP JUMP JUMPDEST PUSH0 DUP2 CALLDATALOAD SWAP1 POP PUSH2 0x1072 DUP2 PUSH2 0x104E JUMP JUMPDEST SWAP3 SWAP2 POP POP JUMP JUMPDEST PUSH0 DUP1 PUSH1 0x40 DUP4 DUP6 SUB SLT ISZERO PUSH2 0x108E JUMPI PUSH2 0x108D PUSH2 0xFE7 JUMP JUMPDEST JUMPDEST PUSH0 PUSH2 0x109B DUP6 DUP3 DUP7 ADD PUSH2 0x1031 JUMP JUMPDEST SWAP3 POP POP PUSH1 0x20 PUSH2 0x10AC DUP6 DUP3 DUP7 ADD PUSH2 0x1064 JUMP JUMPDEST SWAP2 POP POP SWAP3 POP SWAP3 SWAP1 POP JUMP JUMPDEST PUSH0 DUP2 ISZERO ISZERO SWAP1 POP SWAP2 SWAP1 POP JUMP JUMPDEST PUSH2 0x10CA DUP2 PUSH2 0x10B6 JUMP JUMPDEST DUP3 MSTORE POP POP JUMP JUMPDEST PUSH0 PUSH1 0x20 DUP3 ADD SWAP1 POP PUSH2 0x10E3 PUSH0 DUP4 ADD DUP5 PUSH2 0x10C1 JUMP JUMPDEST SWAP3 SWAP2 POP POP JUMP JUMPDEST PUSH2 0x10F2 DUP2 PUSH2 0x1045 JUMP JUMPDEST DUP3 MSTORE POP POP JUMP JUMPDEST PUSH0 PUSH1 0x20 DUP3 ADD SWAP1 POP PUSH2 0x110B PUSH0 DUP4 ADD DUP5 PUSH2 0x10E9 JUMP JUMPDEST SWAP3 SWAP2 POP POP JUMP JUMPDEST PUSH0 DUP1 PUSH0 PUSH1 0x60 DUP5 DUP7 SUB SLT ISZERO PUSH2 0x1128 JUMPI PUSH2 0x1127 PUSH2 0xFE7 JUMP JUMPDEST JUMPDEST PUSH0 PUSH2 0x1135 DUP7 DUP3 DUP8 ADD PUSH2 0x1031 JUMP JUMPDEST SWAP4 POP POP PUSH1 0x20 PUSH2 0x1146 DUP7 DUP3 DUP8 ADD PUSH2 0x1031 JUMP JUMPDEST SWAP3 POP POP PUSH1 0x40 PUSH2 0x1157 DUP7 DUP3 DUP8 ADD PUSH2 0x1064 JUMP JUMPDEST SWAP2 POP POP SWAP3 POP SWAP3 POP SWAP3 JUMP JUMPDEST PUSH0 PUSH1 0xFF DUP3 AND SWAP1 POP SWAP2 SWAP1 POP JUMP JUMPDEST PUSH2 0x1176 DUP2 PUSH2 0x1161 JUMP JUMPDEST DUP3 MSTORE POP POP JUMP JUMPDEST PUSH0 PUSH1 0x20 DUP3 ADD SWAP1 POP PUSH2 0x118F PUSH0 DUP4 ADD DUP5 PUSH2 0x116D JUMP JUMPDEST SWAP3 SWAP2 POP POP JUMP JUMPDEST PUSH0 PUSH1 0x20 DUP3 DUP5 SUB SLT ISZERO PUSH2 0x11AA JUMPI PUSH2 0x11A9 PUSH2 0xFE7 JUMP JUMPDEST JUMPDEST PUSH0 PUSH2 0x11B7 DUP5 DUP3 DUP6 ADD PUSH2 0x1064 JUMP JUMPDEST SWAP2 POP POP SWAP3 SWAP2 POP POP JUMP JUMPDEST PUSH0 PUSH1 0x20 DUP3 DUP5 SUB SLT ISZERO PUSH2 0x11D5 JUMPI PUSH2 0x11D4 PUSH2 0xFE7 JUMP JUMPDEST JUMPDEST PUSH0 PUSH2 0x11E2 DUP5 DUP3 DUP6 ADD PUSH2 0x1031 JUMP JUMPDEST SWAP2 POP POP SWAP3 SWAP2 POP POP JUMP JUMPDEST PUSH0 DUP1 PUSH1 0x40 DUP4 DUP6 SUB SLT ISZERO PUSH2 0x1201 JUMPI PUSH2 0x1200 PUSH2 0xFE7 JUMP JUMPDEST JUMPDEST PUSH0 PUSH2 0x120E DUP6 DUP3 DUP7 ADD PUSH2 0x1031 JUMP JUMPDEST SWAP3 POP POP PUSH1 0x20 PUSH2 0x121F DUP6 DUP3 DUP7 ADD PUSH2 0x1031 JUMP JUMPDEST SWAP2 POP POP SWAP3 POP SWAP3 SWAP1 POP JUMP JUMPDEST PUSH32 0x4E487B7100000000000000000000000000000000000000000000000000000000 PUSH0 MSTORE PUSH1 0x22 PUSH1 0x4 MSTORE PUSH1 0x24 PUSH0 REVERT JUMPDEST PUSH0 PUSH1 0x2 DUP3 DIV SWAP1 POP PUSH1 0x1 DUP3 AND DUP1 PUSH2 0x126D JUMPI PUSH1 0x7F DUP3 AND SWAP2 POP JUMPDEST PUSH1 0x20 DUP3 LT DUP2 SUB PUSH2 0x1280 JUMPI PUSH2 0x127F PUSH2 0x1229 JUMP JUMPDEST JUMPDEST POP SWAP2 SWAP1 POP JUMP JUMPDEST PUSH2 0x128F DUP2 PUSH2 0x10B6 JUMP JUMPDEST DUP2 EQ PUSH2 0x1299 JUMPI PUSH0 DUP1 REVERT JUMPDEST POP JUMP JUMPDEST PUSH0 DUP2 MLOAD SWAP1 POP PUSH2 0x12AA DUP2 PUSH2 0x1286 JUMP JUMPDEST SWAP3 SWAP2 POP POP JUMP JUMPDEST PUSH0 PUSH1 0x20 DUP3 DUP5 SUB SLT ISZERO PUSH2 0x12C5 JUMPI PUSH2 0x12C4 PUSH2 0xFE7 JUMP JUMPDEST JUMPDEST PUSH0 PUSH2 0x12D2 DUP5 DUP3 DUP6 ADD PUSH2 0x129C JUMP JUMPDEST SWAP2 POP POP SWAP3 SWAP2 POP POP JUMP JUMPDEST PUSH32 0x5468652046756E644D65206973206E6F20636F6D706C65746564207965742E00 PUSH0 DUP3 ADD MSTORE POP JUMP JUMPDEST PUSH0 PUSH2 0x130F PUSH1 0x1F DUP4 PUSH2 0xF47 JUMP JUMPDEST SWAP2 POP PUSH2 0x131A DUP3 PUSH2 0x12DB JUMP JUMPDEST PUSH1 0x20 DUP3 ADD SWAP1 POP SWAP2 SWAP1 POP JUMP JUMPDEST PUSH0 PUSH1 0x20 DUP3 ADD SWAP1 POP DUP2 DUP2 SUB PUSH0 DUP4 ADD MSTORE PUSH2 0x133C DUP2 PUSH2 0x1303 JUMP JUMPDEST SWAP1 POP SWAP2 SWAP1 POP JUMP JUMPDEST PUSH32 0x596F7520646F6E2774206861766520656E6F75676820455243323020546F6B65 PUSH0 DUP3 ADD MSTORE PUSH32 0x6E732E0000000000000000000000000000000000000000000000000000000000 PUSH1 0x20 DUP3 ADD MSTORE POP JUMP JUMPDEST PUSH0 PUSH2 0x139D PUSH1 0x23 DUP4 PUSH2 0xF47 JUMP JUMPDEST SWAP2 POP PUSH2 0x13A8 DUP3 PUSH2 0x1343 JUMP JUMPDEST PUSH1 0x40 DUP3 ADD SWAP1 POP SWAP2 SWAP1 POP JUMP JUMPDEST PUSH0 PUSH1 0x20 DUP3 ADD SWAP1 POP DUP2 DUP2 SUB PUSH0 DUP4 ADD MSTORE PUSH2 0x13CA DUP2 PUSH2 0x1391 JUMP JUMPDEST SWAP1 POP SWAP2 SWAP1 POP JUMP JUMPDEST PUSH2 0x13DA DUP2 PUSH2 0x100A JUMP JUMPDEST DUP3 MSTORE POP POP JUMP JUMPDEST PUSH0 PUSH1 0x20 DUP3 ADD SWAP1 POP PUSH2 0x13F3 PUSH0 DUP4 ADD DUP5 PUSH2 0x13D1 JUMP JUMPDEST SWAP3 SWAP2 POP POP JUMP JUMPDEST PUSH0 DUP2 MLOAD SWAP1 POP PUSH2 0x1407 DUP2 PUSH2 0x104E JUMP JUMPDEST SWAP3 SWAP2 POP POP JUMP JUMPDEST PUSH0 PUSH1 0x20 DUP3 DUP5 SUB SLT ISZERO PUSH2 0x1422 JUMPI PUSH2 0x1421 PUSH2 0xFE7 JUMP JUMPDEST JUMPDEST PUSH0 PUSH2 0x142F DUP5 DUP3 DUP6 ADD PUSH2 0x13F9 JUMP JUMPDEST SWAP2 POP POP SWAP3 SWAP2 POP POP JUMP JUMPDEST PUSH32 0x596F752063616E2774206D696E7420746F6B656E73206D6F7265207468616E20 PUSH0 DUP3 ADD MSTORE PUSH32 0x796F75722066756E64656420616D6F756E742E00000000000000000000000000 PUSH1 0x20 DUP3 ADD MSTORE POP JUMP JUMPDEST PUSH0 PUSH2 0x1492 PUSH1 0x33 DUP4 PUSH2 0xF47 JUMP JUMPDEST SWAP2 POP PUSH2 0x149D DUP3 PUSH2 0x1438 JUMP JUMPDEST PUSH1 0x40 DUP3 ADD SWAP1 POP SWAP2 SWAP1 POP JUMP JUMPDEST PUSH0 PUSH1 0x20 DUP3 ADD SWAP1 POP DUP2 DUP2 SUB PUSH0 DUP4 ADD MSTORE PUSH2 0x14BF DUP2 PUSH2 0x1486 JUMP JUMPDEST SWAP1 POP SWAP2 SWAP1 POP JUMP JUMPDEST PUSH32 0x4E487B7100000000000000000000000000000000000000000000000000000000 PUSH0 MSTORE PUSH1 0x11 PUSH1 0x4 MSTORE PUSH1 0x24 PUSH0 REVERT JUMPDEST PUSH0 PUSH2 0x14FD DUP3 PUSH2 0x1045 JUMP JUMPDEST SWAP2 POP PUSH2 0x1508 DUP4 PUSH2 0x1045 JUMP JUMPDEST SWAP3 POP DUP3 DUP3 SUB SWAP1 POP DUP2 DUP2 GT ISZERO PUSH2 0x1520 JUMPI PUSH2 0x151F PUSH2 0x14C6 JUMP JUMPDEST JUMPDEST SWAP3 SWAP2 POP POP JUMP JUMPDEST PUSH0 PUSH1 0x40 DUP3 ADD SWAP1 POP PUSH2 0x1539 PUSH0 DUP4 ADD DUP6 PUSH2 0x13D1 JUMP JUMPDEST PUSH2 0x1546 PUSH1 0x20 DUP4 ADD DUP5 PUSH2 0x10E9 JUMP JUMPDEST SWAP4 SWAP3 POP POP POP JUMP JUMPDEST PUSH0 PUSH1 0x60 DUP3 ADD SWAP1 POP PUSH2 0x1560 PUSH0 DUP4 ADD DUP7 PUSH2 0x13D1 JUMP JUMPDEST PUSH2 0x156D PUSH1 0x20 DUP4 ADD DUP6 PUSH2 0x10E9 JUMP JUMPDEST PUSH2 0x157A PUSH1 0x40 DUP4 ADD DUP5 PUSH2 0x10E9 JUMP JUMPDEST SWAP5 SWAP4 POP POP POP POP JUMP JUMPDEST PUSH0 PUSH2 0x158C DUP3 PUSH2 0x1045 JUMP JUMPDEST SWAP2 POP PUSH2 0x1597 DUP4 PUSH2 0x1045 JUMP JUMPDEST SWAP3 POP DUP3 DUP3 ADD SWAP1 POP DUP1 DUP3 GT ISZERO PUSH2 0x15AF JUMPI PUSH2 0x15AE PUSH2 0x14C6 JUMP JUMPDEST JUMPDEST SWAP3 SWAP2 POP POP JUMP INVALID LOG2 PUSH5 0x6970667358 0x22 SLT KECCAK256 LOG4 DUP2 0x2A SELFBALANCE ADDRESS SELFBALANCE DUP15 NUMBER 0xF8 PUSH4 0xE993BE16 0xF 0xB3 0xD9 0x5E DUP8 0x5E LOG0 0x4B 0xC0 0xEA DUP10 PUSH9 0x91C4B820DFCC64736F PUSH13 0x63430008140033000000000000 "
				},
				"gasEstimates": {
					"creation": {
						"codeDepositCost": "1122200",
						"executionCost": "infinite",
						"totalCost": "infinite"
					},
					"external": {
						"allowance(address,address)": "infinite",
						"approve(address,uint256)": "infinite",
						"balanceOf(address)": "2851",
						"claim(uint256)": "infinite",
						"decimals()": "427",
						"mint(uint256)": "infinite",
						"name()": "infinite",
						"symbol()": "infinite",
						"totalSupply()": "2477",
						"transfer(address,uint256)": "infinite",
						"transferFrom(address,address,uint256)": "infinite"
					}
				},
				"methodIdentifiers": {
					"allowance(address,address)": "dd62ed3e",
					"approve(address,uint256)": "095ea7b3",
					"balanceOf(address)": "70a08231",
					"claim(uint256)": "379607f5",
					"decimals()": "313ce567",
					"mint(uint256)": "a0712d68",
					"name()": "06fdde03",
					"symbol()": "95d89b41",
					"totalSupply()": "18160ddd",
					"transfer(address,uint256)": "a9059cbb",
					"transferFrom(address,address,uint256)": "23b872dd"
				}
			},
			"storageLayout": {
				"storage": [
					{
						"astId": 279,
						"contract": "lesson3/FundTokenERC20_flattened.sol:FundTokenERC20",
						"label": "_balances",
						"offset": 0,
						"slot": "0",
						"type": "t_mapping(t_address,t_uint256)"
					},
					{
						"astId": 285,
						"contract": "lesson3/FundTokenERC20_flattened.sol:FundTokenERC20",
						"label": "_allowances",
						"offset": 0,
						"slot": "1",
						"type": "t_mapping(t_address,t_mapping(t_address,t_uint256))"
					},
					{
						"astId": 287,
						"contract": "lesson3/FundTokenERC20_flattened.sol:FundTokenERC20",
						"label": "_totalSupply",
						"offset": 0,
						"slot": "2",
						"type": "t_uint256"
					},
					{
						"astId": 289,
						"contract": "lesson3/FundTokenERC20_flattened.sol:FundTokenERC20",
						"label": "_name",
						"offset": 0,
						"slot": "3",
						"type": "t_string_storage"
					},
					{
						"astId": 291,
						"contract": "lesson3/FundTokenERC20_flattened.sol:FundTokenERC20",
						"label": "_symbol",
						"offset": 0,
						"slot": "4",
						"type": "t_string_storage"
					},
					{
						"astId": 1145,
						"contract": "lesson3/FundTokenERC20_flattened.sol:FundTokenERC20",
						"label": "fundMe",
						"offset": 0,
						"slot": "5",
						"type": "t_contract(FundMe)1139"
					}
				],
				"types": {
					"t_address": {
						"encoding": "inplace",
						"label": "address",
						"numberOfBytes": "20"
					},
					"t_contract(FundMe)1139": {
						"encoding": "inplace",
						"label": "contract FundMe",
						"numberOfBytes": "20"
					},
					"t_mapping(t_address,t_mapping(t_address,t_uint256))": {
						"encoding": "mapping",
						"key": "t_address",
						"label": "mapping(address => mapping(address => uint256))",
						"numberOfBytes": "32",
						"value": "t_mapping(t_address,t_uint256)"
					},
					"t_mapping(t_address,t_uint256)": {
						"encoding": "mapping",
						"key": "t_address",
						"label": "mapping(address => uint256)",
						"numberOfBytes": "32",
						"value": "t_uint256"
					},
					"t_string_storage": {
						"encoding": "bytes",
						"label": "string",
						"numberOfBytes": "32"
					},
					"t_uint256": {
						"encoding": "inplace",
						"label": "uint256",
						"numberOfBytes": "32"
					}
				}
			},
			"userdoc": {
				"kind": "user",
				"methods": {},
				"version": 1
			}
		}
	}
}