{
	"lesson3/FundTokenERC20_flattened.sol": {
		"FundMe": {
			"abi": [
				{
					"inputs": [
						{
							"internalType": "uint256",
							"name": "_lockTime",
							"type": "uint256"
						}
					],
					"stateMutability": "nonpayable",
					"type": "constructor"
				},
				{
					"inputs": [],
					"name": "fund",
					"outputs": [],
					"stateMutability": "payable",
					"type": "function"
				},
				{
					"inputs": [
						{
							"internalType": "address",
							"name": "",
							"type": "address"
						}
					],
					"name": "fundersToAmount",
					"outputs": [
						{
							"internalType": "uint256",
							"name": "",
							"type": "uint256"
						}
					],
					"stateMutability": "view",
					"type": "function"
				},
				{
					"inputs": [],
					"name": "getChainlinkDataFeedLatestAnswer",
					"outputs": [
						{
							"internalType": "int256",
							"name": "",
							"type": "int256"
						}
					],
					"stateMutability": "view",
					"type": "function"
				},
				{
					"inputs": [],
					"name": "getFund",
					"outputs": [],
					"stateMutability": "nonpayable",
					"type": "function"
				},
				{
					"inputs": [],
					"name": "getFundSuccess",
					"outputs": [
						{
							"internalType": "bool",
							"name": "",
							"type": "bool"
						}
					],
					"stateMutability": "view",
					"type": "function"
				},
				{
					"inputs": [],
					"name": "owner",
					"outputs": [
						{
							"internalType": "address",
							"name": "",
							"type": "address"
						}
					],
					"stateMutability": "view",
					"type": "function"
				},
				{
					"inputs": [],
					"name": "refund",
					"outputs": [],
					"stateMutability": "nonpayable",
					"type": "function"
				},
				{
					"inputs": [
						{
							"internalType": "address",
							"name": "_erc20Addr",
							"type": "address"
						}
					],
					"name": "setErc20Addr",
					"outputs": [],
					"stateMutability": "nonpayable",
					"type": "function"
				},
				{
					"inputs": [
						{
							"internalType": "address",
							"name": "_funder",
							"type": "address"
						},
						{
							"internalType": "uint256",
							"name": "_amountToUpdate",
							"type": "uint256"
						}
					],
					"name": "setFunderToAmount",
					"outputs": [],
					"stateMutability": "nonpayable",
					"type": "function"
				},
				{
					"inputs": [
						{
							"internalType": "address",
							"name": "_newOwner",
							"type": "address"
						}
					],
					"name": "trasferOwnership",
					"outputs": [],
					"stateMutability": "nonpayable",
					"type": "function"
				}
			],
			"devdoc": {
				"kind": "dev",
				"methods": {},
				"version": 1
			},
			"evm": {
				"assembly": "    /* \"lesson3/FundTokenERC20_flattened.sol\":22669:26718  contract FundMe {... */\n  mstore(0x40, 0x80)\n    /* \"lesson3/FundTokenERC20_flattened.sol\":23060:23065  false */\n  0x00\n    /* \"lesson3/FundTokenERC20_flattened.sol\":23031:23065  bool public getFundSuccess = false */\n  0x05\n  exp(0x0100, 0x14)\n  dup2\n  sload\n  dup2\n  0xff\n  mul\n  not\n  and\n  swap1\n  dup4\n  iszero\n  iszero\n  mul\n  or\n  swap1\n  sstore\n  pop\n    /* \"lesson3/FundTokenERC20_flattened.sol\":23072:23326  constructor(uint256 _lockTime) {... */\n  callvalue\n  dup1\n  iszero\n  tag_1\n  jumpi\n  0x00\n  dup1\n  revert\ntag_1:\n  pop\n  mload(0x40)\n  sub(codesize, bytecodeSize)\n  dup1\n  bytecodeSize\n  dup4\n  codecopy\n  dup2\n  dup2\n  add\n  0x40\n  mstore\n  dup2\n  add\n  swap1\n  tag_2\n  swap2\n  swap1\n  tag_3\n  jump\t// in\ntag_2:\n    /* \"lesson3/FundTokenERC20_flattened.sol\":23159:23201  0x694AA1769357215DE4FAC081bf1f309aDC325306 */\n  0x694aa1769357215de4fac081bf1f309adc325306\n    /* \"lesson3/FundTokenERC20_flattened.sol\":23113:23121  dataFeed */\n  0x01\n  0x00\n    /* \"lesson3/FundTokenERC20_flattened.sol\":23113:23211  dataFeed = AggregatorV3Interface(... */\n  0x0100\n  exp\n  dup2\n  sload\n  dup2\n  0xffffffffffffffffffffffffffffffffffffffff\n  mul\n  not\n  and\n  swap1\n  dup4\n  0xffffffffffffffffffffffffffffffffffffffff\n  and\n  mul\n  or\n  swap1\n  sstore\n  pop\n    /* \"lesson3/FundTokenERC20_flattened.sol\":23230:23240  msg.sender */\n  caller\n    /* \"lesson3/FundTokenERC20_flattened.sol\":23222:23227  owner */\n  0x02\n  0x00\n    /* \"lesson3/FundTokenERC20_flattened.sol\":23222:23240  owner = msg.sender */\n  0x0100\n  exp\n  dup2\n  sload\n  dup2\n  0xffffffffffffffffffffffffffffffffffffffff\n  mul\n  not\n  and\n  swap1\n  dup4\n  0xffffffffffffffffffffffffffffffffffffffff\n  and\n  mul\n  or\n  swap1\n  sstore\n  pop\n    /* \"lesson3/FundTokenERC20_flattened.sol\":23273:23288  block.timestamp */\n  timestamp\n    /* \"lesson3/FundTokenERC20_flattened.sol\":23251:23270  deploymentTimestamp */\n  0x03\n    /* \"lesson3/FundTokenERC20_flattened.sol\":23251:23288  deploymentTimestamp = block.timestamp */\n  dup2\n  swap1\n  sstore\n  pop\n    /* \"lesson3/FundTokenERC20_flattened.sol\":23310:23319  _lockTime */\n  dup1\n    /* \"lesson3/FundTokenERC20_flattened.sol\":23299:23307  lockTime */\n  0x04\n    /* \"lesson3/FundTokenERC20_flattened.sol\":23299:23319  lockTime = _lockTime */\n  dup2\n  swap1\n  sstore\n  pop\n    /* \"lesson3/FundTokenERC20_flattened.sol\":23072:23326  constructor(uint256 _lockTime) {... */\n  pop\n    /* \"lesson3/FundTokenERC20_flattened.sol\":22669:26718  contract FundMe {... */\n  jump(tag_6)\n    /* \"#utility.yul\":88:205   */\ntag_8:\n    /* \"#utility.yul\":197:198   */\n  0x00\n    /* \"#utility.yul\":194:195   */\n  dup1\n    /* \"#utility.yul\":187:199   */\n  revert\n    /* \"#utility.yul\":334:411   */\ntag_10:\n    /* \"#utility.yul\":371:378   */\n  0x00\n    /* \"#utility.yul\":400:405   */\n  dup2\n    /* \"#utility.yul\":389:405   */\n  swap1\n  pop\n    /* \"#utility.yul\":334:411   */\n  swap2\n  swap1\n  pop\n  jump\t// out\n    /* \"#utility.yul\":417:539   */\ntag_11:\n    /* \"#utility.yul\":490:514   */\n  tag_19\n    /* \"#utility.yul\":508:513   */\n  dup2\n    /* \"#utility.yul\":490:514   */\n  tag_10\n  jump\t// in\ntag_19:\n    /* \"#utility.yul\":483:488   */\n  dup2\n    /* \"#utility.yul\":480:515   */\n  eq\n    /* \"#utility.yul\":470:533   */\n  tag_20\n  jumpi\n    /* \"#utility.yul\":529:530   */\n  0x00\n    /* \"#utility.yul\":526:527   */\n  dup1\n    /* \"#utility.yul\":519:531   */\n  revert\n    /* \"#utility.yul\":470:533   */\ntag_20:\n    /* \"#utility.yul\":417:539   */\n  pop\n  jump\t// out\n    /* \"#utility.yul\":545:688   */\ntag_12:\n    /* \"#utility.yul\":602:607   */\n  0x00\n    /* \"#utility.yul\":633:639   */\n  dup2\n    /* \"#utility.yul\":627:640   */\n  mload\n    /* \"#utility.yul\":618:640   */\n  swap1\n  pop\n    /* \"#utility.yul\":649:682   */\n  tag_22\n    /* \"#utility.yul\":676:681   */\n  dup2\n    /* \"#utility.yul\":649:682   */\n  tag_11\n  jump\t// in\ntag_22:\n    /* \"#utility.yul\":545:688   */\n  swap3\n  swap2\n  pop\n  pop\n  jump\t// out\n    /* \"#utility.yul\":694:1045   */\ntag_3:\n    /* \"#utility.yul\":764:770   */\n  0x00\n    /* \"#utility.yul\":813:815   */\n  0x20\n    /* \"#utility.yul\":801:810   */\n  dup3\n    /* \"#utility.yul\":792:799   */\n  dup5\n    /* \"#utility.yul\":788:811   */\n  sub\n    /* \"#utility.yul\":784:816   */\n  slt\n    /* \"#utility.yul\":781:900   */\n  iszero\n  tag_24\n  jumpi\n    /* \"#utility.yul\":819:898   */\n  tag_25\n  tag_8\n  jump\t// in\ntag_25:\n    /* \"#utility.yul\":781:900   */\ntag_24:\n    /* \"#utility.yul\":939:940   */\n  0x00\n    /* \"#utility.yul\":964:1028   */\n  tag_26\n    /* \"#utility.yul\":1020:1027   */\n  dup5\n    /* \"#utility.yul\":1011:1017   */\n  dup3\n    /* \"#utility.yul\":1000:1009   */\n  dup6\n    /* \"#utility.yul\":996:1018   */\n  add\n    /* \"#utility.yul\":964:1028   */\n  tag_12\n  jump\t// in\ntag_26:\n    /* \"#utility.yul\":954:1028   */\n  swap2\n  pop\n    /* \"#utility.yul\":910:1038   */\n  pop\n    /* \"#utility.yul\":694:1045   */\n  swap3\n  swap2\n  pop\n  pop\n  jump\t// out\n    /* \"lesson3/FundTokenERC20_flattened.sol\":22669:26718  contract FundMe {... */\ntag_6:\n  dataSize(sub_0)\n  dup1\n  dataOffset(sub_0)\n  0x00\n  codecopy\n  0x00\n  return\nstop\n\nsub_0: assembly {\n        /* \"lesson3/FundTokenERC20_flattened.sol\":22669:26718  contract FundMe {... */\n      mstore(0x40, 0x80)\n      jumpi(tag_1, lt(calldatasize, 0x04))\n      shr(0xe0, calldataload(0x00))\n      dup1\n      0x9f883a05\n      gt\n      tag_12\n      jumpi\n      dup1\n      0x9f883a05\n      eq\n      tag_7\n      jumpi\n      dup1\n      0xb60d4288\n      eq\n      tag_8\n      jumpi\n      dup1\n      0xbea4dfb5\n      eq\n      tag_9\n      jumpi\n      dup1\n      0xd39cf006\n      eq\n      tag_10\n      jumpi\n      dup1\n      0xda4658e0\n      eq\n      tag_11\n      jumpi\n      jump(tag_1)\n    tag_12:\n      dup1\n      0x13ffff01\n      eq\n      tag_2\n      jumpi\n      dup1\n      0x590e1ae3\n      eq\n      tag_3\n      jumpi\n      dup1\n      0x6be6c88f\n      eq\n      tag_4\n      jumpi\n      dup1\n      0x8da5cb5b\n      eq\n      tag_5\n      jumpi\n      dup1\n      0x8edd6eb6\n      eq\n      tag_6\n      jumpi\n    tag_1:\n      0x00\n      dup1\n      revert\n        /* \"lesson3/FundTokenERC20_flattened.sol\":26280:26378  function setErc20Addr(address _erc20Addr) public onlyOwner {... */\n    tag_2:\n      callvalue\n      dup1\n      iszero\n      tag_13\n      jumpi\n      0x00\n      dup1\n      revert\n    tag_13:\n      pop\n      tag_14\n      0x04\n      dup1\n      calldatasize\n      sub\n      dup2\n      add\n      swap1\n      tag_15\n      swap2\n      swap1\n      tag_16\n      jump\t// in\n    tag_15:\n      tag_17\n      jump\t// in\n    tag_14:\n      stop\n        /* \"lesson3/FundTokenERC20_flattened.sol\":25512:25977  function refund() external windowClosed {... */\n    tag_3:\n      callvalue\n      dup1\n      iszero\n      tag_18\n      jumpi\n      0x00\n      dup1\n      revert\n    tag_18:\n      pop\n      tag_19\n      tag_20\n      jump\t// in\n    tag_19:\n      stop\n        /* \"lesson3/FundTokenERC20_flattened.sol\":24525:24621  function trasferOwnership(address _newOwner) public onlyOwner {... */\n    tag_4:\n      callvalue\n      dup1\n      iszero\n      tag_21\n      jumpi\n      0x00\n      dup1\n      revert\n    tag_21:\n      pop\n      tag_22\n      0x04\n      dup1\n      calldatasize\n      sub\n      dup2\n      add\n      swap1\n      tag_23\n      swap2\n      swap1\n      tag_16\n      jump\t// in\n    tag_23:\n      tag_24\n      jump\t// in\n    tag_22:\n      stop\n        /* \"lesson3/FundTokenERC20_flattened.sol\":22923:22943  address public owner */\n    tag_5:\n      callvalue\n      dup1\n      iszero\n      tag_25\n      jumpi\n      0x00\n      dup1\n      revert\n    tag_25:\n      pop\n      tag_26\n      tag_27\n      jump\t// in\n    tag_26:\n      mload(0x40)\n      tag_28\n      swap2\n      swap1\n      tag_29\n      jump\t// in\n    tag_28:\n      mload(0x40)\n      dup1\n      swap2\n      sub\n      swap1\n      return\n        /* \"lesson3/FundTokenERC20_flattened.sol\":24627:25506  function getFund() external windowClosed onlyOwner {... */\n    tag_6:\n      callvalue\n      dup1\n      iszero\n      tag_30\n      jumpi\n      0x00\n      dup1\n      revert\n    tag_30:\n      pop\n      tag_31\n      tag_32\n      jump\t// in\n    tag_31:\n      stop\n        /* \"lesson3/FundTokenERC20_flattened.sol\":22691:22741  mapping(address => uint256) public fundersToAmount */\n    tag_7:\n      callvalue\n      dup1\n      iszero\n      tag_33\n      jumpi\n      0x00\n      dup1\n      revert\n    tag_33:\n      pop\n      tag_34\n      0x04\n      dup1\n      calldatasize\n      sub\n      dup2\n      add\n      swap1\n      tag_35\n      swap2\n      swap1\n      tag_16\n      jump\t// in\n    tag_35:\n      tag_36\n      jump\t// in\n    tag_34:\n      mload(0x40)\n      tag_37\n      swap2\n      swap1\n      tag_38\n      jump\t// in\n    tag_37:\n      mload(0x40)\n      dup1\n      swap2\n      sub\n      swap1\n      return\n        /* \"lesson3/FundTokenERC20_flattened.sol\":23332:23675  function fund() external payable {... */\n    tag_8:\n      tag_39\n      tag_40\n      jump\t// in\n    tag_39:\n      stop\n        /* \"lesson3/FundTokenERC20_flattened.sol\":23681:24032  function getChainlinkDataFeedLatestAnswer() public view returns (int256) {... */\n    tag_9:\n      callvalue\n      dup1\n      iszero\n      tag_41\n      jumpi\n      0x00\n      dup1\n      revert\n    tag_41:\n      pop\n      tag_42\n      tag_43\n      jump\t// in\n    tag_42:\n      mload(0x40)\n      tag_44\n      swap2\n      swap1\n      tag_45\n      jump\t// in\n    tag_44:\n      mload(0x40)\n      dup1\n      swap2\n      sub\n      swap1\n      return\n        /* \"lesson3/FundTokenERC20_flattened.sol\":25983:26274  function setFunderToAmount(... */\n    tag_10:\n      callvalue\n      dup1\n      iszero\n      tag_46\n      jumpi\n      0x00\n      dup1\n      revert\n    tag_46:\n      pop\n      tag_47\n      0x04\n      dup1\n      calldatasize\n      sub\n      dup2\n      add\n      swap1\n      tag_48\n      swap2\n      swap1\n      tag_49\n      jump\t// in\n    tag_48:\n      tag_50\n      jump\t// in\n    tag_47:\n      stop\n        /* \"lesson3/FundTokenERC20_flattened.sol\":23031:23065  bool public getFundSuccess = false */\n    tag_11:\n      callvalue\n      dup1\n      iszero\n      tag_51\n      jumpi\n      0x00\n      dup1\n      revert\n    tag_51:\n      pop\n      tag_52\n      tag_53\n      jump\t// in\n    tag_52:\n      mload(0x40)\n      tag_54\n      swap2\n      swap1\n      tag_55\n      jump\t// in\n    tag_54:\n      mload(0x40)\n      dup1\n      swap2\n      sub\n      swap1\n      return\n        /* \"lesson3/FundTokenERC20_flattened.sol\":26280:26378  function setErc20Addr(address _erc20Addr) public onlyOwner {... */\n    tag_17:\n        /* \"lesson3/FundTokenERC20_flattened.sol\":26625:26630  owner */\n      0x02\n      0x00\n      swap1\n      sload\n      swap1\n      0x0100\n      exp\n      swap1\n      div\n      0xffffffffffffffffffffffffffffffffffffffff\n      and\n        /* \"lesson3/FundTokenERC20_flattened.sol\":26611:26630  msg.sender == owner */\n      0xffffffffffffffffffffffffffffffffffffffff\n      and\n        /* \"lesson3/FundTokenERC20_flattened.sol\":26611:26621  msg.sender */\n      caller\n        /* \"lesson3/FundTokenERC20_flattened.sol\":26611:26630  msg.sender == owner */\n      0xffffffffffffffffffffffffffffffffffffffff\n      and\n      eq\n        /* \"lesson3/FundTokenERC20_flattened.sol\":26590:26698  require(... */\n      tag_57\n      jumpi\n      mload(0x40)\n      0x08c379a000000000000000000000000000000000000000000000000000000000\n      dup2\n      mstore\n      0x04\n      add\n      tag_58\n      swap1\n      tag_59\n      jump\t// in\n    tag_58:\n      mload(0x40)\n      dup1\n      swap2\n      sub\n      swap1\n      revert\n    tag_57:\n        /* \"lesson3/FundTokenERC20_flattened.sol\":26361:26371  _erc20Addr */\n      dup1\n        /* \"lesson3/FundTokenERC20_flattened.sol\":26349:26358  erc20Addr */\n      0x05\n      0x00\n        /* \"lesson3/FundTokenERC20_flattened.sol\":26349:26371  erc20Addr = _erc20Addr */\n      0x0100\n      exp\n      dup2\n      sload\n      dup2\n      0xffffffffffffffffffffffffffffffffffffffff\n      mul\n      not\n      and\n      swap1\n      dup4\n      0xffffffffffffffffffffffffffffffffffffffff\n      and\n      mul\n      or\n      swap1\n      sstore\n      pop\n        /* \"lesson3/FundTokenERC20_flattened.sol\":26280:26378  function setErc20Addr(address _erc20Addr) public onlyOwner {... */\n      pop\n      jump\t// out\n        /* \"lesson3/FundTokenERC20_flattened.sol\":25512:25977  function refund() external windowClosed {... */\n    tag_20:\n        /* \"lesson3/FundTokenERC20_flattened.sol\":26480:26488  lockTime */\n      sload(0x04)\n        /* \"lesson3/FundTokenERC20_flattened.sol\":26458:26477  deploymentTimestamp */\n      sload(0x03)\n        /* \"lesson3/FundTokenERC20_flattened.sol\":26458:26488  deploymentTimestamp + lockTime */\n      tag_62\n      swap2\n      swap1\n      tag_63\n      jump\t// in\n    tag_62:\n        /* \"lesson3/FundTokenERC20_flattened.sol\":26439:26454  block.timestamp */\n      timestamp\n        /* \"lesson3/FundTokenERC20_flattened.sol\":26439:26488  block.timestamp >= deploymentTimestamp + lockTime */\n      lt\n      iszero\n        /* \"lesson3/FundTokenERC20_flattened.sol\":26418:26535  require(... */\n      tag_64\n      jumpi\n      mload(0x40)\n      0x08c379a000000000000000000000000000000000000000000000000000000000\n      dup2\n      mstore\n      0x04\n      add\n      tag_65\n      swap1\n      tag_66\n      jump\t// in\n    tag_65:\n      mload(0x40)\n      dup1\n      swap2\n      sub\n      swap1\n      revert\n    tag_64:\n        /* \"lesson3/FundTokenERC20_flattened.sol\":22901:22916  1000 * 10 ** 18 */\n      0x3635c9adc5dea00000\n        /* \"lesson3/FundTokenERC20_flattened.sol\":25583:25621  convertEthToUsd(address(this).balance) */\n      tag_68\n        /* \"lesson3/FundTokenERC20_flattened.sol\":25599:25620  address(this).balance */\n      selfbalance\n        /* \"lesson3/FundTokenERC20_flattened.sol\":25583:25598  convertEthToUsd */\n      tag_69\n        /* \"lesson3/FundTokenERC20_flattened.sol\":25583:25621  convertEthToUsd(address(this).balance) */\n      jump\t// in\n    tag_68:\n        /* \"lesson3/FundTokenERC20_flattened.sol\":25583:25630  convertEthToUsd(address(this).balance) < TARGET */\n      lt\n        /* \"lesson3/FundTokenERC20_flattened.sol\":25562:25674  require(... */\n      tag_70\n      jumpi\n      mload(0x40)\n      0x08c379a000000000000000000000000000000000000000000000000000000000\n      dup2\n      mstore\n      0x04\n      add\n      tag_71\n      swap1\n      tag_72\n      jump\t// in\n    tag_71:\n      mload(0x40)\n      dup1\n      swap2\n      sub\n      swap1\n      revert\n    tag_70:\n        /* \"lesson3/FundTokenERC20_flattened.sol\":25724:25725  0 */\n      0x00\n        /* \"lesson3/FundTokenERC20_flattened.sol\":25693:25708  fundersToAmount */\n      dup1\n        /* \"lesson3/FundTokenERC20_flattened.sol\":25693:25720  fundersToAmount[msg.sender] */\n      0x00\n        /* \"lesson3/FundTokenERC20_flattened.sol\":25709:25719  msg.sender */\n      caller\n        /* \"lesson3/FundTokenERC20_flattened.sol\":25693:25720  fundersToAmount[msg.sender] */\n      0xffffffffffffffffffffffffffffffffffffffff\n      and\n      0xffffffffffffffffffffffffffffffffffffffff\n      and\n      dup2\n      mstore\n      0x20\n      add\n      swap1\n      dup2\n      mstore\n      0x20\n      add\n      0x00\n      keccak256\n      sload\n        /* \"lesson3/FundTokenERC20_flattened.sol\":25693:25725  fundersToAmount[msg.sender] != 0 */\n      sub\n        /* \"lesson3/FundTokenERC20_flattened.sol\":25685:25754  require(fundersToAmount[msg.sender] != 0, \"There is no fund for you\") */\n      tag_73\n      jumpi\n      mload(0x40)\n      0x08c379a000000000000000000000000000000000000000000000000000000000\n      dup2\n      mstore\n      0x04\n      add\n      tag_74\n      swap1\n      tag_75\n      jump\t// in\n    tag_74:\n      mload(0x40)\n      dup1\n      swap2\n      sub\n      swap1\n      revert\n    tag_73:\n        /* \"lesson3/FundTokenERC20_flattened.sol\":25765:25777  bool success */\n      0x00\n        /* \"lesson3/FundTokenERC20_flattened.sol\":25809:25819  msg.sender */\n      caller\n        /* \"lesson3/FundTokenERC20_flattened.sol\":25801:25825  payable(msg.sender).call */\n      0xffffffffffffffffffffffffffffffffffffffff\n      and\n        /* \"lesson3/FundTokenERC20_flattened.sol\":25846:25861  fundersToAmount */\n      0x00\n        /* \"lesson3/FundTokenERC20_flattened.sol\":25846:25873  fundersToAmount[msg.sender] */\n      dup1\n        /* \"lesson3/FundTokenERC20_flattened.sol\":25862:25872  msg.sender */\n      caller\n        /* \"lesson3/FundTokenERC20_flattened.sol\":25846:25873  fundersToAmount[msg.sender] */\n      0xffffffffffffffffffffffffffffffffffffffff\n      and\n      0xffffffffffffffffffffffffffffffffffffffff\n      and\n      dup2\n      mstore\n      0x20\n      add\n      swap1\n      dup2\n      mstore\n      0x20\n      add\n      0x00\n      keccak256\n      sload\n        /* \"lesson3/FundTokenERC20_flattened.sol\":25801:25887  payable(msg.sender).call{... */\n      mload(0x40)\n      tag_76\n      swap1\n      tag_77\n      jump\t// in\n    tag_76:\n      0x00\n      mload(0x40)\n      dup1\n      dup4\n      sub\n      dup2\n      dup6\n      dup8\n      gas\n      call\n      swap3\n      pop\n      pop\n      pop\n      returndatasize\n      dup1\n      0x00\n      dup2\n      eq\n      tag_80\n      jumpi\n      mload(0x40)\n      swap2\n      pop\n      and(add(returndatasize, 0x3f), not(0x1f))\n      dup3\n      add\n      0x40\n      mstore\n      returndatasize\n      dup3\n      mstore\n      returndatasize\n      0x00\n      0x20\n      dup5\n      add\n      returndatacopy\n      jump(tag_79)\n    tag_80:\n      0x60\n      swap2\n      pop\n    tag_79:\n      pop\n        /* \"lesson3/FundTokenERC20_flattened.sol\":25787:25887  (success, ) = payable(msg.sender).call{... */\n      pop\n      dup1\n      swap2\n      pop\n      pop\n        /* \"lesson3/FundTokenERC20_flattened.sol\":25906:25913  success */\n      dup1\n        /* \"lesson3/FundTokenERC20_flattened.sol\":25898:25928  require(success, \"tx failed.\") */\n      tag_81\n      jumpi\n      mload(0x40)\n      0x08c379a000000000000000000000000000000000000000000000000000000000\n      dup2\n      mstore\n      0x04\n      add\n      tag_82\n      swap1\n      tag_83\n      jump\t// in\n    tag_82:\n      mload(0x40)\n      dup1\n      swap2\n      sub\n      swap1\n      revert\n    tag_81:\n        /* \"lesson3/FundTokenERC20_flattened.sol\":25969:25970  0 */\n      0x00\n        /* \"lesson3/FundTokenERC20_flattened.sol\":25939:25954  fundersToAmount */\n      dup1\n        /* \"lesson3/FundTokenERC20_flattened.sol\":25939:25966  fundersToAmount[msg.sender] */\n      0x00\n        /* \"lesson3/FundTokenERC20_flattened.sol\":25955:25965  msg.sender */\n      caller\n        /* \"lesson3/FundTokenERC20_flattened.sol\":25939:25966  fundersToAmount[msg.sender] */\n      0xffffffffffffffffffffffffffffffffffffffff\n      and\n      0xffffffffffffffffffffffffffffffffffffffff\n      and\n      dup2\n      mstore\n      0x20\n      add\n      swap1\n      dup2\n      mstore\n      0x20\n      add\n      0x00\n      keccak256\n        /* \"lesson3/FundTokenERC20_flattened.sol\":25939:25970  fundersToAmount[msg.sender] = 0 */\n      dup2\n      swap1\n      sstore\n      pop\n        /* \"lesson3/FundTokenERC20_flattened.sol\":25552:25977  {... */\n      pop\n        /* \"lesson3/FundTokenERC20_flattened.sol\":25512:25977  function refund() external windowClosed {... */\n      jump\t// out\n        /* \"lesson3/FundTokenERC20_flattened.sol\":24525:24621  function trasferOwnership(address _newOwner) public onlyOwner {... */\n    tag_24:\n        /* \"lesson3/FundTokenERC20_flattened.sol\":26625:26630  owner */\n      0x02\n      0x00\n      swap1\n      sload\n      swap1\n      0x0100\n      exp\n      swap1\n      div\n      0xffffffffffffffffffffffffffffffffffffffff\n      and\n        /* \"lesson3/FundTokenERC20_flattened.sol\":26611:26630  msg.sender == owner */\n      0xffffffffffffffffffffffffffffffffffffffff\n      and\n        /* \"lesson3/FundTokenERC20_flattened.sol\":26611:26621  msg.sender */\n      caller\n        /* \"lesson3/FundTokenERC20_flattened.sol\":26611:26630  msg.sender == owner */\n      0xffffffffffffffffffffffffffffffffffffffff\n      and\n      eq\n        /* \"lesson3/FundTokenERC20_flattened.sol\":26590:26698  require(... */\n      tag_85\n      jumpi\n      mload(0x40)\n      0x08c379a000000000000000000000000000000000000000000000000000000000\n      dup2\n      mstore\n      0x04\n      add\n      tag_86\n      swap1\n      tag_59\n      jump\t// in\n    tag_86:\n      mload(0x40)\n      dup1\n      swap2\n      sub\n      swap1\n      revert\n    tag_85:\n        /* \"lesson3/FundTokenERC20_flattened.sol\":24605:24614  _newOwner */\n      dup1\n        /* \"lesson3/FundTokenERC20_flattened.sol\":24597:24602  owner */\n      0x02\n      0x00\n        /* \"lesson3/FundTokenERC20_flattened.sol\":24597:24614  owner = _newOwner */\n      0x0100\n      exp\n      dup2\n      sload\n      dup2\n      0xffffffffffffffffffffffffffffffffffffffff\n      mul\n      not\n      and\n      swap1\n      dup4\n      0xffffffffffffffffffffffffffffffffffffffff\n      and\n      mul\n      or\n      swap1\n      sstore\n      pop\n        /* \"lesson3/FundTokenERC20_flattened.sol\":24525:24621  function trasferOwnership(address _newOwner) public onlyOwner {... */\n      pop\n      jump\t// out\n        /* \"lesson3/FundTokenERC20_flattened.sol\":22923:22943  address public owner */\n    tag_27:\n      0x02\n      0x00\n      swap1\n      sload\n      swap1\n      0x0100\n      exp\n      swap1\n      div\n      0xffffffffffffffffffffffffffffffffffffffff\n      and\n      dup2\n      jump\t// out\n        /* \"lesson3/FundTokenERC20_flattened.sol\":24627:25506  function getFund() external windowClosed onlyOwner {... */\n    tag_32:\n        /* \"lesson3/FundTokenERC20_flattened.sol\":26480:26488  lockTime */\n      sload(0x04)\n        /* \"lesson3/FundTokenERC20_flattened.sol\":26458:26477  deploymentTimestamp */\n      sload(0x03)\n        /* \"lesson3/FundTokenERC20_flattened.sol\":26458:26488  deploymentTimestamp + lockTime */\n      tag_89\n      swap2\n      swap1\n      tag_63\n      jump\t// in\n    tag_89:\n        /* \"lesson3/FundTokenERC20_flattened.sol\":26439:26454  block.timestamp */\n      timestamp\n        /* \"lesson3/FundTokenERC20_flattened.sol\":26439:26488  block.timestamp >= deploymentTimestamp + lockTime */\n      lt\n      iszero\n        /* \"lesson3/FundTokenERC20_flattened.sol\":26418:26535  require(... */\n      tag_90\n      jumpi\n      mload(0x40)\n      0x08c379a000000000000000000000000000000000000000000000000000000000\n      dup2\n      mstore\n      0x04\n      add\n      tag_91\n      swap1\n      tag_66\n      jump\t// in\n    tag_91:\n      mload(0x40)\n      dup1\n      swap2\n      sub\n      swap1\n      revert\n    tag_90:\n        /* \"lesson3/FundTokenERC20_flattened.sol\":26625:26630  owner */\n      0x02\n      0x00\n      swap1\n      sload\n      swap1\n      0x0100\n      exp\n      swap1\n      div\n      0xffffffffffffffffffffffffffffffffffffffff\n      and\n        /* \"lesson3/FundTokenERC20_flattened.sol\":26611:26630  msg.sender == owner */\n      0xffffffffffffffffffffffffffffffffffffffff\n      and\n        /* \"lesson3/FundTokenERC20_flattened.sol\":26611:26621  msg.sender */\n      caller\n        /* \"lesson3/FundTokenERC20_flattened.sol\":26611:26630  msg.sender == owner */\n      0xffffffffffffffffffffffffffffffffffffffff\n      and\n      eq\n        /* \"lesson3/FundTokenERC20_flattened.sol\":26590:26698  require(... */\n      tag_93\n      jumpi\n      mload(0x40)\n      0x08c379a000000000000000000000000000000000000000000000000000000000\n      dup2\n      mstore\n      0x04\n      add\n      tag_94\n      swap1\n      tag_59\n      jump\t// in\n    tag_94:\n      mload(0x40)\n      dup1\n      swap2\n      sub\n      swap1\n      revert\n    tag_93:\n        /* \"lesson3/FundTokenERC20_flattened.sol\":22901:22916  1000 * 10 ** 18 */\n      0x3635c9adc5dea00000\n        /* \"lesson3/FundTokenERC20_flattened.sol\":24709:24747  convertEthToUsd(address(this).balance) */\n      tag_96\n        /* \"lesson3/FundTokenERC20_flattened.sol\":24725:24746  address(this).balance */\n      selfbalance\n        /* \"lesson3/FundTokenERC20_flattened.sol\":24709:24724  convertEthToUsd */\n      tag_69\n        /* \"lesson3/FundTokenERC20_flattened.sol\":24709:24747  convertEthToUsd(address(this).balance) */\n      jump\t// in\n    tag_96:\n        /* \"lesson3/FundTokenERC20_flattened.sol\":24709:24757  convertEthToUsd(address(this).balance) >= TARGET */\n      lt\n      iszero\n        /* \"lesson3/FundTokenERC20_flattened.sol\":24688:24805  require(... */\n      tag_97\n      jumpi\n      mload(0x40)\n      0x08c379a000000000000000000000000000000000000000000000000000000000\n      dup2\n      mstore\n      0x04\n      add\n      tag_98\n      swap1\n      tag_99\n      jump\t// in\n    tag_98:\n      mload(0x40)\n      dup1\n      swap2\n      sub\n      swap1\n      revert\n    tag_97:\n        /* \"lesson3/FundTokenERC20_flattened.sol\":25268:25280  bool success */\n      0x00\n        /* \"lesson3/FundTokenERC20_flattened.sol\":25312:25322  msg.sender */\n      caller\n        /* \"lesson3/FundTokenERC20_flattened.sol\":25304:25328  payable(msg.sender).call */\n      0xffffffffffffffffffffffffffffffffffffffff\n      and\n        /* \"lesson3/FundTokenERC20_flattened.sol\":25336:25357  address(this).balance */\n      selfbalance\n        /* \"lesson3/FundTokenERC20_flattened.sol\":25304:25384  payable(msg.sender).call{value: address(this).balance}(... */\n      mload(0x40)\n      tag_100\n      swap1\n      tag_77\n      jump\t// in\n    tag_100:\n      0x00\n      mload(0x40)\n      dup1\n      dup4\n      sub\n      dup2\n      dup6\n      dup8\n      gas\n      call\n      swap3\n      pop\n      pop\n      pop\n      returndatasize\n      dup1\n      0x00\n      dup2\n      eq\n      tag_103\n      jumpi\n      mload(0x40)\n      swap2\n      pop\n      and(add(returndatasize, 0x3f), not(0x1f))\n      dup3\n      add\n      0x40\n      mstore\n      returndatasize\n      dup3\n      mstore\n      returndatasize\n      0x00\n      0x20\n      dup5\n      add\n      returndatacopy\n      jump(tag_102)\n    tag_103:\n      0x60\n      swap2\n      pop\n    tag_102:\n      pop\n        /* \"lesson3/FundTokenERC20_flattened.sol\":25290:25384  (success, ) = payable(msg.sender).call{value: address(this).balance}(... */\n      pop\n      dup1\n      swap2\n      pop\n      pop\n        /* \"lesson3/FundTokenERC20_flattened.sol\":25403:25410  success */\n      dup1\n        /* \"lesson3/FundTokenERC20_flattened.sol\":25395:25425  require(success, \"tx failed.\") */\n      tag_104\n      jumpi\n      mload(0x40)\n      0x08c379a000000000000000000000000000000000000000000000000000000000\n      dup2\n      mstore\n      0x04\n      add\n      tag_105\n      swap1\n      tag_83\n      jump\t// in\n    tag_105:\n      mload(0x40)\n      dup1\n      swap2\n      sub\n      swap1\n      revert\n    tag_104:\n        /* \"lesson3/FundTokenERC20_flattened.sol\":25466:25467  0 */\n      0x00\n        /* \"lesson3/FundTokenERC20_flattened.sol\":25436:25451  fundersToAmount */\n      dup1\n        /* \"lesson3/FundTokenERC20_flattened.sol\":25436:25463  fundersToAmount[msg.sender] */\n      0x00\n        /* \"lesson3/FundTokenERC20_flattened.sol\":25452:25462  msg.sender */\n      caller\n        /* \"lesson3/FundTokenERC20_flattened.sol\":25436:25463  fundersToAmount[msg.sender] */\n      0xffffffffffffffffffffffffffffffffffffffff\n      and\n      0xffffffffffffffffffffffffffffffffffffffff\n      and\n      dup2\n      mstore\n      0x20\n      add\n      swap1\n      dup2\n      mstore\n      0x20\n      add\n      0x00\n      keccak256\n        /* \"lesson3/FundTokenERC20_flattened.sol\":25436:25467  fundersToAmount[msg.sender] = 0 */\n      dup2\n      swap1\n      sstore\n      pop\n        /* \"lesson3/FundTokenERC20_flattened.sol\":25495:25499  true */\n      0x01\n        /* \"lesson3/FundTokenERC20_flattened.sol\":25478:25492  getFundSuccess */\n      0x05\n      0x14\n        /* \"lesson3/FundTokenERC20_flattened.sol\":25478:25499  getFundSuccess = true */\n      0x0100\n      exp\n      dup2\n      sload\n      dup2\n      0xff\n      mul\n      not\n      and\n      swap1\n      dup4\n      iszero\n      iszero\n      mul\n      or\n      swap1\n      sstore\n      pop\n        /* \"lesson3/FundTokenERC20_flattened.sol\":24678:25506  {... */\n      pop\n        /* \"lesson3/FundTokenERC20_flattened.sol\":24627:25506  function getFund() external windowClosed onlyOwner {... */\n      jump\t// out\n        /* \"lesson3/FundTokenERC20_flattened.sol\":22691:22741  mapping(address => uint256) public fundersToAmount */\n    tag_36:\n      mstore(0x20, 0x00)\n      dup1\n      0x00\n      mstore\n      keccak256(0x00, 0x40)\n      0x00\n      swap2\n      pop\n      swap1\n      pop\n      sload\n      dup2\n      jump\t// out\n        /* \"lesson3/FundTokenERC20_flattened.sol\":23332:23675  function fund() external payable {... */\n    tag_40:\n        /* \"lesson3/FundTokenERC20_flattened.sol\":22788:22802  100 * 10 ** 18 */\n      0x056bc75e2d63100000\n        /* \"lesson3/FundTokenERC20_flattened.sol\":23396:23422  convertEthToUsd(msg.value) */\n      tag_107\n        /* \"lesson3/FundTokenERC20_flattened.sol\":23412:23421  msg.value */\n      callvalue\n        /* \"lesson3/FundTokenERC20_flattened.sol\":23396:23411  convertEthToUsd */\n      tag_69\n        /* \"lesson3/FundTokenERC20_flattened.sol\":23396:23422  convertEthToUsd(msg.value) */\n      jump\t// in\n    tag_107:\n        /* \"lesson3/FundTokenERC20_flattened.sol\":23396:23446  convertEthToUsd(msg.value) >= MINIMUM_VALUE_100USD */\n      lt\n      iszero\n        /* \"lesson3/FundTokenERC20_flattened.sol\":23375:23485  require(... */\n      tag_108\n      jumpi\n      mload(0x40)\n      0x08c379a000000000000000000000000000000000000000000000000000000000\n      dup2\n      mstore\n      0x04\n      add\n      tag_109\n      swap1\n      tag_110\n      jump\t// in\n    tag_109:\n      mload(0x40)\n      dup1\n      swap2\n      sub\n      swap1\n      revert\n    tag_108:\n        /* \"lesson3/FundTokenERC20_flattened.sol\":23567:23575  lockTime */\n      sload(0x04)\n        /* \"lesson3/FundTokenERC20_flattened.sol\":23545:23564  deploymentTimestamp */\n      sload(0x03)\n        /* \"lesson3/FundTokenERC20_flattened.sol\":23545:23575  deploymentTimestamp + lockTime */\n      tag_111\n      swap2\n      swap1\n      tag_63\n      jump\t// in\n    tag_111:\n        /* \"lesson3/FundTokenERC20_flattened.sol\":23527:23542  block.timestamp */\n      timestamp\n        /* \"lesson3/FundTokenERC20_flattened.sol\":23527:23575  block.timestamp < deploymentTimestamp + lockTime */\n      lt\n        /* \"lesson3/FundTokenERC20_flattened.sol\":23506:23618  require(... */\n      tag_112\n      jumpi\n      mload(0x40)\n      0x08c379a000000000000000000000000000000000000000000000000000000000\n      dup2\n      mstore\n      0x04\n      add\n      tag_113\n      swap1\n      tag_114\n      jump\t// in\n    tag_113:\n      mload(0x40)\n      dup1\n      swap2\n      sub\n      swap1\n      revert\n    tag_112:\n        /* \"lesson3/FundTokenERC20_flattened.sol\":23659:23668  msg.value */\n      callvalue\n        /* \"lesson3/FundTokenERC20_flattened.sol\":23629:23644  fundersToAmount */\n      0x00\n        /* \"lesson3/FundTokenERC20_flattened.sol\":23629:23656  fundersToAmount[msg.sender] */\n      dup1\n        /* \"lesson3/FundTokenERC20_flattened.sol\":23645:23655  msg.sender */\n      caller\n        /* \"lesson3/FundTokenERC20_flattened.sol\":23629:23656  fundersToAmount[msg.sender] */\n      0xffffffffffffffffffffffffffffffffffffffff\n      and\n      0xffffffffffffffffffffffffffffffffffffffff\n      and\n      dup2\n      mstore\n      0x20\n      add\n      swap1\n      dup2\n      mstore\n      0x20\n      add\n      0x00\n      keccak256\n        /* \"lesson3/FundTokenERC20_flattened.sol\":23629:23668  fundersToAmount[msg.sender] = msg.value */\n      dup2\n      swap1\n      sstore\n      pop\n        /* \"lesson3/FundTokenERC20_flattened.sol\":23332:23675  function fund() external payable {... */\n      jump\t// out\n        /* \"lesson3/FundTokenERC20_flattened.sol\":23681:24032  function getChainlinkDataFeedLatestAnswer() public view returns (int256) {... */\n    tag_43:\n        /* \"lesson3/FundTokenERC20_flattened.sol\":23746:23752  int256 */\n      0x00\n        /* \"lesson3/FundTokenERC20_flattened.sol\":23839:23852  int256 answer */\n      dup1\n        /* \"lesson3/FundTokenERC20_flattened.sol\":23975:23983  dataFeed */\n      0x01\n      0x00\n      swap1\n      sload\n      swap1\n      0x0100\n      exp\n      swap1\n      div\n      0xffffffffffffffffffffffffffffffffffffffff\n      and\n        /* \"lesson3/FundTokenERC20_flattened.sol\":23975:23999  dataFeed.latestRoundData */\n      0xffffffffffffffffffffffffffffffffffffffff\n      and\n      0xfeaf968c\n        /* \"lesson3/FundTokenERC20_flattened.sol\":23975:24001  dataFeed.latestRoundData() */\n      mload(0x40)\n      dup2\n      0xffffffff\n      and\n      0xe0\n      shl\n      dup2\n      mstore\n      0x04\n      add\n      0xa0\n      mload(0x40)\n      dup1\n      dup4\n      sub\n      dup2\n      dup7\n      gas\n      staticcall\n      iszero\n      dup1\n      iszero\n      tag_117\n      jumpi\n      returndatasize\n      0x00\n      dup1\n      returndatacopy\n      revert(0x00, returndatasize)\n    tag_117:\n      pop\n      pop\n      pop\n      pop\n      mload(0x40)\n      returndatasize\n      not(0x1f)\n      0x1f\n      dup3\n      add\n      and\n      dup3\n      add\n      dup1\n      0x40\n      mstore\n      pop\n      dup2\n      add\n      swap1\n      tag_118\n      swap2\n      swap1\n      tag_119\n      jump\t// in\n    tag_118:\n        /* \"lesson3/FundTokenERC20_flattened.sol\":23791:24001  (... */\n      pop\n      pop\n      pop\n      swap2\n      pop\n      pop\n        /* \"lesson3/FundTokenERC20_flattened.sol\":24019:24025  answer */\n      dup1\n        /* \"lesson3/FundTokenERC20_flattened.sol\":24012:24025  return answer */\n      swap2\n      pop\n      pop\n        /* \"lesson3/FundTokenERC20_flattened.sol\":23681:24032  function getChainlinkDataFeedLatestAnswer() public view returns (int256) {... */\n      swap1\n      jump\t// out\n        /* \"lesson3/FundTokenERC20_flattened.sol\":25983:26274  function setFunderToAmount(... */\n    tag_50:\n        /* \"lesson3/FundTokenERC20_flattened.sol\":26128:26137  erc20Addr */\n      0x05\n      0x00\n      swap1\n      sload\n      swap1\n      0x0100\n      exp\n      swap1\n      div\n      0xffffffffffffffffffffffffffffffffffffffff\n      and\n        /* \"lesson3/FundTokenERC20_flattened.sol\":26114:26137  msg.sender == erc20Addr */\n      0xffffffffffffffffffffffffffffffffffffffff\n      and\n        /* \"lesson3/FundTokenERC20_flattened.sol\":26114:26124  msg.sender */\n      caller\n        /* \"lesson3/FundTokenERC20_flattened.sol\":26114:26137  msg.sender == erc20Addr */\n      0xffffffffffffffffffffffffffffffffffffffff\n      and\n      eq\n        /* \"lesson3/FundTokenERC20_flattened.sol\":26093:26214  require(... */\n      tag_121\n      jumpi\n      mload(0x40)\n      0x08c379a000000000000000000000000000000000000000000000000000000000\n      dup2\n      mstore\n      0x04\n      add\n      tag_122\n      swap1\n      tag_123\n      jump\t// in\n    tag_122:\n      mload(0x40)\n      dup1\n      swap2\n      sub\n      swap1\n      revert\n    tag_121:\n        /* \"lesson3/FundTokenERC20_flattened.sol\":26252:26267  _amountToUpdate */\n      dup1\n        /* \"lesson3/FundTokenERC20_flattened.sol\":26225:26240  fundersToAmount */\n      0x00\n        /* \"lesson3/FundTokenERC20_flattened.sol\":26225:26249  fundersToAmount[_funder] */\n      dup1\n        /* \"lesson3/FundTokenERC20_flattened.sol\":26241:26248  _funder */\n      dup5\n        /* \"lesson3/FundTokenERC20_flattened.sol\":26225:26249  fundersToAmount[_funder] */\n      0xffffffffffffffffffffffffffffffffffffffff\n      and\n      0xffffffffffffffffffffffffffffffffffffffff\n      and\n      dup2\n      mstore\n      0x20\n      add\n      swap1\n      dup2\n      mstore\n      0x20\n      add\n      0x00\n      keccak256\n        /* \"lesson3/FundTokenERC20_flattened.sol\":26225:26267  fundersToAmount[_funder] = _amountToUpdate */\n      dup2\n      swap1\n      sstore\n      pop\n        /* \"lesson3/FundTokenERC20_flattened.sol\":25983:26274  function setFunderToAmount(... */\n      pop\n      pop\n      jump\t// out\n        /* \"lesson3/FundTokenERC20_flattened.sol\":23031:23065  bool public getFundSuccess = false */\n    tag_53:\n      0x05\n      0x14\n      swap1\n      sload\n      swap1\n      0x0100\n      exp\n      swap1\n      div\n      0xff\n      and\n      dup2\n      jump\t// out\n        /* \"lesson3/FundTokenERC20_flattened.sol\":24038:24519  function convertEthToUsd(... */\n    tag_69:\n        /* \"lesson3/FundTokenERC20_flattened.sol\":24120:24127  uint256 */\n      0x00\n        /* \"lesson3/FundTokenERC20_flattened.sol\":24139:24155  uint256 ethPrice */\n      dup1\n        /* \"lesson3/FundTokenERC20_flattened.sol\":24166:24200  getChainlinkDataFeedLatestAnswer() */\n      tag_125\n        /* \"lesson3/FundTokenERC20_flattened.sol\":24166:24198  getChainlinkDataFeedLatestAnswer */\n      tag_43\n        /* \"lesson3/FundTokenERC20_flattened.sol\":24166:24200  getChainlinkDataFeedLatestAnswer() */\n      jump\t// in\n    tag_125:\n        /* \"lesson3/FundTokenERC20_flattened.sol\":24139:24201  uint256 ethPrice = uint256(getChainlinkDataFeedLatestAnswer()) */\n      swap1\n      pop\n        /* \"lesson3/FundTokenERC20_flattened.sol\":24245:24252  10 ** 8 */\n      0x05f5e100\n        /* \"lesson3/FundTokenERC20_flattened.sol\":24232:24240  ethPrice */\n      dup2\n        /* \"lesson3/FundTokenERC20_flattened.sol\":24219:24229  _ethAmount */\n      dup5\n        /* \"lesson3/FundTokenERC20_flattened.sol\":24219:24240  _ethAmount * ethPrice */\n      tag_126\n      swap2\n      swap1\n      tag_127\n      jump\t// in\n    tag_126:\n        /* \"lesson3/FundTokenERC20_flattened.sol\":24218:24253  (_ethAmount * ethPrice) / (10 ** 8) */\n      tag_128\n      swap2\n      swap1\n      tag_129\n      jump\t// in\n    tag_128:\n        /* \"lesson3/FundTokenERC20_flattened.sol\":24211:24253  return (_ethAmount * ethPrice) / (10 ** 8) */\n      swap2\n      pop\n      pop\n        /* \"lesson3/FundTokenERC20_flattened.sol\":24038:24519  function convertEthToUsd(... */\n      swap2\n      swap1\n      pop\n      jump\t// out\n        /* \"#utility.yul\":88:205   */\n    tag_131:\n        /* \"#utility.yul\":197:198   */\n      0x00\n        /* \"#utility.yul\":194:195   */\n      dup1\n        /* \"#utility.yul\":187:199   */\n      revert\n        /* \"#utility.yul\":334:460   */\n    tag_133:\n        /* \"#utility.yul\":371:378   */\n      0x00\n        /* \"#utility.yul\":411:453   */\n      0xffffffffffffffffffffffffffffffffffffffff\n        /* \"#utility.yul\":404:409   */\n      dup3\n        /* \"#utility.yul\":400:454   */\n      and\n        /* \"#utility.yul\":389:454   */\n      swap1\n      pop\n        /* \"#utility.yul\":334:460   */\n      swap2\n      swap1\n      pop\n      jump\t// out\n        /* \"#utility.yul\":466:562   */\n    tag_134:\n        /* \"#utility.yul\":503:510   */\n      0x00\n        /* \"#utility.yul\":532:556   */\n      tag_182\n        /* \"#utility.yul\":550:555   */\n      dup3\n        /* \"#utility.yul\":532:556   */\n      tag_133\n      jump\t// in\n    tag_182:\n        /* \"#utility.yul\":521:556   */\n      swap1\n      pop\n        /* \"#utility.yul\":466:562   */\n      swap2\n      swap1\n      pop\n      jump\t// out\n        /* \"#utility.yul\":568:690   */\n    tag_135:\n        /* \"#utility.yul\":641:665   */\n      tag_184\n        /* \"#utility.yul\":659:664   */\n      dup2\n        /* \"#utility.yul\":641:665   */\n      tag_134\n      jump\t// in\n    tag_184:\n        /* \"#utility.yul\":634:639   */\n      dup2\n        /* \"#utility.yul\":631:666   */\n      eq\n        /* \"#utility.yul\":621:684   */\n      tag_185\n      jumpi\n        /* \"#utility.yul\":680:681   */\n      0x00\n        /* \"#utility.yul\":677:678   */\n      dup1\n        /* \"#utility.yul\":670:682   */\n      revert\n        /* \"#utility.yul\":621:684   */\n    tag_185:\n        /* \"#utility.yul\":568:690   */\n      pop\n      jump\t// out\n        /* \"#utility.yul\":696:835   */\n    tag_136:\n        /* \"#utility.yul\":742:747   */\n      0x00\n        /* \"#utility.yul\":780:786   */\n      dup2\n        /* \"#utility.yul\":767:787   */\n      calldataload\n        /* \"#utility.yul\":758:787   */\n      swap1\n      pop\n        /* \"#utility.yul\":796:829   */\n      tag_187\n        /* \"#utility.yul\":823:828   */\n      dup2\n        /* \"#utility.yul\":796:829   */\n      tag_135\n      jump\t// in\n    tag_187:\n        /* \"#utility.yul\":696:835   */\n      swap3\n      swap2\n      pop\n      pop\n      jump\t// out\n        /* \"#utility.yul\":841:1170   */\n    tag_16:\n        /* \"#utility.yul\":900:906   */\n      0x00\n        /* \"#utility.yul\":949:951   */\n      0x20\n        /* \"#utility.yul\":937:946   */\n      dup3\n        /* \"#utility.yul\":928:935   */\n      dup5\n        /* \"#utility.yul\":924:947   */\n      sub\n        /* \"#utility.yul\":920:952   */\n      slt\n        /* \"#utility.yul\":917:1036   */\n      iszero\n      tag_189\n      jumpi\n        /* \"#utility.yul\":955:1034   */\n      tag_190\n      tag_131\n      jump\t// in\n    tag_190:\n        /* \"#utility.yul\":917:1036   */\n    tag_189:\n        /* \"#utility.yul\":1075:1076   */\n      0x00\n        /* \"#utility.yul\":1100:1153   */\n      tag_191\n        /* \"#utility.yul\":1145:1152   */\n      dup5\n        /* \"#utility.yul\":1136:1142   */\n      dup3\n        /* \"#utility.yul\":1125:1134   */\n      dup6\n        /* \"#utility.yul\":1121:1143   */\n      add\n        /* \"#utility.yul\":1100:1153   */\n      tag_136\n      jump\t// in\n    tag_191:\n        /* \"#utility.yul\":1090:1153   */\n      swap2\n      pop\n        /* \"#utility.yul\":1046:1163   */\n      pop\n        /* \"#utility.yul\":841:1170   */\n      swap3\n      swap2\n      pop\n      pop\n      jump\t// out\n        /* \"#utility.yul\":1176:1294   */\n    tag_137:\n        /* \"#utility.yul\":1263:1287   */\n      tag_193\n        /* \"#utility.yul\":1281:1286   */\n      dup2\n        /* \"#utility.yul\":1263:1287   */\n      tag_134\n      jump\t// in\n    tag_193:\n        /* \"#utility.yul\":1258:1261   */\n      dup3\n        /* \"#utility.yul\":1251:1288   */\n      mstore\n        /* \"#utility.yul\":1176:1294   */\n      pop\n      pop\n      jump\t// out\n        /* \"#utility.yul\":1300:1522   */\n    tag_29:\n        /* \"#utility.yul\":1393:1397   */\n      0x00\n        /* \"#utility.yul\":1431:1433   */\n      0x20\n        /* \"#utility.yul\":1420:1429   */\n      dup3\n        /* \"#utility.yul\":1416:1434   */\n      add\n        /* \"#utility.yul\":1408:1434   */\n      swap1\n      pop\n        /* \"#utility.yul\":1444:1515   */\n      tag_195\n        /* \"#utility.yul\":1512:1513   */\n      0x00\n        /* \"#utility.yul\":1501:1510   */\n      dup4\n        /* \"#utility.yul\":1497:1514   */\n      add\n        /* \"#utility.yul\":1488:1494   */\n      dup5\n        /* \"#utility.yul\":1444:1515   */\n      tag_137\n      jump\t// in\n    tag_195:\n        /* \"#utility.yul\":1300:1522   */\n      swap3\n      swap2\n      pop\n      pop\n      jump\t// out\n        /* \"#utility.yul\":1528:1605   */\n    tag_138:\n        /* \"#utility.yul\":1565:1572   */\n      0x00\n        /* \"#utility.yul\":1594:1599   */\n      dup2\n        /* \"#utility.yul\":1583:1599   */\n      swap1\n      pop\n        /* \"#utility.yul\":1528:1605   */\n      swap2\n      swap1\n      pop\n      jump\t// out\n        /* \"#utility.yul\":1611:1729   */\n    tag_139:\n        /* \"#utility.yul\":1698:1722   */\n      tag_198\n        /* \"#utility.yul\":1716:1721   */\n      dup2\n        /* \"#utility.yul\":1698:1722   */\n      tag_138\n      jump\t// in\n    tag_198:\n        /* \"#utility.yul\":1693:1696   */\n      dup3\n        /* \"#utility.yul\":1686:1723   */\n      mstore\n        /* \"#utility.yul\":1611:1729   */\n      pop\n      pop\n      jump\t// out\n        /* \"#utility.yul\":1735:1957   */\n    tag_38:\n        /* \"#utility.yul\":1828:1832   */\n      0x00\n        /* \"#utility.yul\":1866:1868   */\n      0x20\n        /* \"#utility.yul\":1855:1864   */\n      dup3\n        /* \"#utility.yul\":1851:1869   */\n      add\n        /* \"#utility.yul\":1843:1869   */\n      swap1\n      pop\n        /* \"#utility.yul\":1879:1950   */\n      tag_200\n        /* \"#utility.yul\":1947:1948   */\n      0x00\n        /* \"#utility.yul\":1936:1945   */\n      dup4\n        /* \"#utility.yul\":1932:1949   */\n      add\n        /* \"#utility.yul\":1923:1929   */\n      dup5\n        /* \"#utility.yul\":1879:1950   */\n      tag_139\n      jump\t// in\n    tag_200:\n        /* \"#utility.yul\":1735:1957   */\n      swap3\n      swap2\n      pop\n      pop\n      jump\t// out\n        /* \"#utility.yul\":1963:2039   */\n    tag_140:\n        /* \"#utility.yul\":1999:2006   */\n      0x00\n        /* \"#utility.yul\":2028:2033   */\n      dup2\n        /* \"#utility.yul\":2017:2033   */\n      swap1\n      pop\n        /* \"#utility.yul\":1963:2039   */\n      swap2\n      swap1\n      pop\n      jump\t// out\n        /* \"#utility.yul\":2045:2160   */\n    tag_141:\n        /* \"#utility.yul\":2130:2153   */\n      tag_203\n        /* \"#utility.yul\":2147:2152   */\n      dup2\n        /* \"#utility.yul\":2130:2153   */\n      tag_140\n      jump\t// in\n    tag_203:\n        /* \"#utility.yul\":2125:2128   */\n      dup3\n        /* \"#utility.yul\":2118:2154   */\n      mstore\n        /* \"#utility.yul\":2045:2160   */\n      pop\n      pop\n      jump\t// out\n        /* \"#utility.yul\":2166:2384   */\n    tag_45:\n        /* \"#utility.yul\":2257:2261   */\n      0x00\n        /* \"#utility.yul\":2295:2297   */\n      0x20\n        /* \"#utility.yul\":2284:2293   */\n      dup3\n        /* \"#utility.yul\":2280:2298   */\n      add\n        /* \"#utility.yul\":2272:2298   */\n      swap1\n      pop\n        /* \"#utility.yul\":2308:2377   */\n      tag_205\n        /* \"#utility.yul\":2374:2375   */\n      0x00\n        /* \"#utility.yul\":2363:2372   */\n      dup4\n        /* \"#utility.yul\":2359:2376   */\n      add\n        /* \"#utility.yul\":2350:2356   */\n      dup5\n        /* \"#utility.yul\":2308:2377   */\n      tag_141\n      jump\t// in\n    tag_205:\n        /* \"#utility.yul\":2166:2384   */\n      swap3\n      swap2\n      pop\n      pop\n      jump\t// out\n        /* \"#utility.yul\":2390:2512   */\n    tag_142:\n        /* \"#utility.yul\":2463:2487   */\n      tag_207\n        /* \"#utility.yul\":2481:2486   */\n      dup2\n        /* \"#utility.yul\":2463:2487   */\n      tag_138\n      jump\t// in\n    tag_207:\n        /* \"#utility.yul\":2456:2461   */\n      dup2\n        /* \"#utility.yul\":2453:2488   */\n      eq\n        /* \"#utility.yul\":2443:2506   */\n      tag_208\n      jumpi\n        /* \"#utility.yul\":2502:2503   */\n      0x00\n        /* \"#utility.yul\":2499:2500   */\n      dup1\n        /* \"#utility.yul\":2492:2504   */\n      revert\n        /* \"#utility.yul\":2443:2506   */\n    tag_208:\n        /* \"#utility.yul\":2390:2512   */\n      pop\n      jump\t// out\n        /* \"#utility.yul\":2518:2657   */\n    tag_143:\n        /* \"#utility.yul\":2564:2569   */\n      0x00\n        /* \"#utility.yul\":2602:2608   */\n      dup2\n        /* \"#utility.yul\":2589:2609   */\n      calldataload\n        /* \"#utility.yul\":2580:2609   */\n      swap1\n      pop\n        /* \"#utility.yul\":2618:2651   */\n      tag_210\n        /* \"#utility.yul\":2645:2650   */\n      dup2\n        /* \"#utility.yul\":2618:2651   */\n      tag_142\n      jump\t// in\n    tag_210:\n        /* \"#utility.yul\":2518:2657   */\n      swap3\n      swap2\n      pop\n      pop\n      jump\t// out\n        /* \"#utility.yul\":2663:3137   */\n    tag_49:\n        /* \"#utility.yul\":2731:2737   */\n      0x00\n        /* \"#utility.yul\":2739:2745   */\n      dup1\n        /* \"#utility.yul\":2788:2790   */\n      0x40\n        /* \"#utility.yul\":2776:2785   */\n      dup4\n        /* \"#utility.yul\":2767:2774   */\n      dup6\n        /* \"#utility.yul\":2763:2786   */\n      sub\n        /* \"#utility.yul\":2759:2791   */\n      slt\n        /* \"#utility.yul\":2756:2875   */\n      iszero\n      tag_212\n      jumpi\n        /* \"#utility.yul\":2794:2873   */\n      tag_213\n      tag_131\n      jump\t// in\n    tag_213:\n        /* \"#utility.yul\":2756:2875   */\n    tag_212:\n        /* \"#utility.yul\":2914:2915   */\n      0x00\n        /* \"#utility.yul\":2939:2992   */\n      tag_214\n        /* \"#utility.yul\":2984:2991   */\n      dup6\n        /* \"#utility.yul\":2975:2981   */\n      dup3\n        /* \"#utility.yul\":2964:2973   */\n      dup7\n        /* \"#utility.yul\":2960:2982   */\n      add\n        /* \"#utility.yul\":2939:2992   */\n      tag_136\n      jump\t// in\n    tag_214:\n        /* \"#utility.yul\":2929:2992   */\n      swap3\n      pop\n        /* \"#utility.yul\":2885:3002   */\n      pop\n        /* \"#utility.yul\":3041:3043   */\n      0x20\n        /* \"#utility.yul\":3067:3120   */\n      tag_215\n        /* \"#utility.yul\":3112:3119   */\n      dup6\n        /* \"#utility.yul\":3103:3109   */\n      dup3\n        /* \"#utility.yul\":3092:3101   */\n      dup7\n        /* \"#utility.yul\":3088:3110   */\n      add\n        /* \"#utility.yul\":3067:3120   */\n      tag_143\n      jump\t// in\n    tag_215:\n        /* \"#utility.yul\":3057:3120   */\n      swap2\n      pop\n        /* \"#utility.yul\":3012:3130   */\n      pop\n        /* \"#utility.yul\":2663:3137   */\n      swap3\n      pop\n      swap3\n      swap1\n      pop\n      jump\t// out\n        /* \"#utility.yul\":3143:3233   */\n    tag_144:\n        /* \"#utility.yul\":3177:3184   */\n      0x00\n        /* \"#utility.yul\":3220:3225   */\n      dup2\n        /* \"#utility.yul\":3213:3226   */\n      iszero\n        /* \"#utility.yul\":3206:3227   */\n      iszero\n        /* \"#utility.yul\":3195:3227   */\n      swap1\n      pop\n        /* \"#utility.yul\":3143:3233   */\n      swap2\n      swap1\n      pop\n      jump\t// out\n        /* \"#utility.yul\":3239:3348   */\n    tag_145:\n        /* \"#utility.yul\":3320:3341   */\n      tag_218\n        /* \"#utility.yul\":3335:3340   */\n      dup2\n        /* \"#utility.yul\":3320:3341   */\n      tag_144\n      jump\t// in\n    tag_218:\n        /* \"#utility.yul\":3315:3318   */\n      dup3\n        /* \"#utility.yul\":3308:3342   */\n      mstore\n        /* \"#utility.yul\":3239:3348   */\n      pop\n      pop\n      jump\t// out\n        /* \"#utility.yul\":3354:3564   */\n    tag_55:\n        /* \"#utility.yul\":3441:3445   */\n      0x00\n        /* \"#utility.yul\":3479:3481   */\n      0x20\n        /* \"#utility.yul\":3468:3477   */\n      dup3\n        /* \"#utility.yul\":3464:3482   */\n      add\n        /* \"#utility.yul\":3456:3482   */\n      swap1\n      pop\n        /* \"#utility.yul\":3492:3557   */\n      tag_220\n        /* \"#utility.yul\":3554:3555   */\n      0x00\n        /* \"#utility.yul\":3543:3552   */\n      dup4\n        /* \"#utility.yul\":3539:3556   */\n      add\n        /* \"#utility.yul\":3530:3536   */\n      dup5\n        /* \"#utility.yul\":3492:3557   */\n      tag_145\n      jump\t// in\n    tag_220:\n        /* \"#utility.yul\":3354:3564   */\n      swap3\n      swap2\n      pop\n      pop\n      jump\t// out\n        /* \"#utility.yul\":3570:3739   */\n    tag_146:\n        /* \"#utility.yul\":3654:3665   */\n      0x00\n        /* \"#utility.yul\":3688:3694   */\n      dup3\n        /* \"#utility.yul\":3683:3686   */\n      dup3\n        /* \"#utility.yul\":3676:3695   */\n      mstore\n        /* \"#utility.yul\":3728:3732   */\n      0x20\n        /* \"#utility.yul\":3723:3726   */\n      dup3\n        /* \"#utility.yul\":3719:3733   */\n      add\n        /* \"#utility.yul\":3704:3733   */\n      swap1\n      pop\n        /* \"#utility.yul\":3570:3739   */\n      swap3\n      swap2\n      pop\n      pop\n      jump\t// out\n        /* \"#utility.yul\":3745:3974   */\n    tag_147:\n        /* \"#utility.yul\":3885:3919   */\n      0x546869732066756e6374696f6e2063616e206f6e6c792062652063616c6c6564\n        /* \"#utility.yul\":3881:3882   */\n      0x00\n        /* \"#utility.yul\":3873:3879   */\n      dup3\n        /* \"#utility.yul\":3869:3883   */\n      add\n        /* \"#utility.yul\":3862:3920   */\n      mstore\n        /* \"#utility.yul\":3954:3966   */\n      0x206279206f776e65722e00000000000000000000000000000000000000000000\n        /* \"#utility.yul\":3949:3951   */\n      0x20\n        /* \"#utility.yul\":3941:3947   */\n      dup3\n        /* \"#utility.yul\":3937:3952   */\n      add\n        /* \"#utility.yul\":3930:3967   */\n      mstore\n        /* \"#utility.yul\":3745:3974   */\n      pop\n      jump\t// out\n        /* \"#utility.yul\":3980:4346   */\n    tag_148:\n        /* \"#utility.yul\":4122:4125   */\n      0x00\n        /* \"#utility.yul\":4143:4210   */\n      tag_224\n        /* \"#utility.yul\":4207:4209   */\n      0x2a\n        /* \"#utility.yul\":4202:4205   */\n      dup4\n        /* \"#utility.yul\":4143:4210   */\n      tag_146\n      jump\t// in\n    tag_224:\n        /* \"#utility.yul\":4136:4210   */\n      swap2\n      pop\n        /* \"#utility.yul\":4219:4312   */\n      tag_225\n        /* \"#utility.yul\":4308:4311   */\n      dup3\n        /* \"#utility.yul\":4219:4312   */\n      tag_147\n      jump\t// in\n    tag_225:\n        /* \"#utility.yul\":4337:4339   */\n      0x40\n        /* \"#utility.yul\":4332:4335   */\n      dup3\n        /* \"#utility.yul\":4328:4340   */\n      add\n        /* \"#utility.yul\":4321:4340   */\n      swap1\n      pop\n        /* \"#utility.yul\":3980:4346   */\n      swap2\n      swap1\n      pop\n      jump\t// out\n        /* \"#utility.yul\":4352:4771   */\n    tag_59:\n        /* \"#utility.yul\":4518:4522   */\n      0x00\n        /* \"#utility.yul\":4556:4558   */\n      0x20\n        /* \"#utility.yul\":4545:4554   */\n      dup3\n        /* \"#utility.yul\":4541:4559   */\n      add\n        /* \"#utility.yul\":4533:4559   */\n      swap1\n      pop\n        /* \"#utility.yul\":4605:4614   */\n      dup2\n        /* \"#utility.yul\":4599:4603   */\n      dup2\n        /* \"#utility.yul\":4595:4615   */\n      sub\n        /* \"#utility.yul\":4591:4592   */\n      0x00\n        /* \"#utility.yul\":4580:4589   */\n      dup4\n        /* \"#utility.yul\":4576:4593   */\n      add\n        /* \"#utility.yul\":4569:4616   */\n      mstore\n        /* \"#utility.yul\":4633:4764   */\n      tag_227\n        /* \"#utility.yul\":4759:4763   */\n      dup2\n        /* \"#utility.yul\":4633:4764   */\n      tag_148\n      jump\t// in\n    tag_227:\n        /* \"#utility.yul\":4625:4764   */\n      swap1\n      pop\n        /* \"#utility.yul\":4352:4771   */\n      swap2\n      swap1\n      pop\n      jump\t// out\n        /* \"#utility.yul\":4777:4957   */\n    tag_149:\n        /* \"#utility.yul\":4825:4902   */\n      0x4e487b7100000000000000000000000000000000000000000000000000000000\n        /* \"#utility.yul\":4822:4823   */\n      0x00\n        /* \"#utility.yul\":4815:4903   */\n      mstore\n        /* \"#utility.yul\":4922:4926   */\n      0x11\n        /* \"#utility.yul\":4919:4920   */\n      0x04\n        /* \"#utility.yul\":4912:4927   */\n      mstore\n        /* \"#utility.yul\":4946:4950   */\n      0x24\n        /* \"#utility.yul\":4943:4944   */\n      0x00\n        /* \"#utility.yul\":4936:4951   */\n      revert\n        /* \"#utility.yul\":4963:5154   */\n    tag_63:\n        /* \"#utility.yul\":5003:5006   */\n      0x00\n        /* \"#utility.yul\":5022:5042   */\n      tag_230\n        /* \"#utility.yul\":5040:5041   */\n      dup3\n        /* \"#utility.yul\":5022:5042   */\n      tag_138\n      jump\t// in\n    tag_230:\n        /* \"#utility.yul\":5017:5042   */\n      swap2\n      pop\n        /* \"#utility.yul\":5056:5076   */\n      tag_231\n        /* \"#utility.yul\":5074:5075   */\n      dup4\n        /* \"#utility.yul\":5056:5076   */\n      tag_138\n      jump\t// in\n    tag_231:\n        /* \"#utility.yul\":5051:5076   */\n      swap3\n      pop\n        /* \"#utility.yul\":5099:5100   */\n      dup3\n        /* \"#utility.yul\":5096:5097   */\n      dup3\n        /* \"#utility.yul\":5092:5101   */\n      add\n        /* \"#utility.yul\":5085:5101   */\n      swap1\n      pop\n        /* \"#utility.yul\":5120:5123   */\n      dup1\n        /* \"#utility.yul\":5117:5118   */\n      dup3\n        /* \"#utility.yul\":5114:5124   */\n      gt\n        /* \"#utility.yul\":5111:5147   */\n      iszero\n      tag_232\n      jumpi\n        /* \"#utility.yul\":5127:5145   */\n      tag_233\n      tag_149\n      jump\t// in\n    tag_233:\n        /* \"#utility.yul\":5111:5147   */\n    tag_232:\n        /* \"#utility.yul\":4963:5154   */\n      swap3\n      swap2\n      pop\n      pop\n      jump\t// out\n        /* \"#utility.yul\":5160:5331   */\n    tag_150:\n        /* \"#utility.yul\":5300:5323   */\n      0x57696e646f77206973206e6f7420636c6f7365642e0000000000000000000000\n        /* \"#utility.yul\":5296:5297   */\n      0x00\n        /* \"#utility.yul\":5288:5294   */\n      dup3\n        /* \"#utility.yul\":5284:5298   */\n      add\n        /* \"#utility.yul\":5277:5324   */\n      mstore\n        /* \"#utility.yul\":5160:5331   */\n      pop\n      jump\t// out\n        /* \"#utility.yul\":5337:5703   */\n    tag_151:\n        /* \"#utility.yul\":5479:5482   */\n      0x00\n        /* \"#utility.yul\":5500:5567   */\n      tag_236\n        /* \"#utility.yul\":5564:5566   */\n      0x15\n        /* \"#utility.yul\":5559:5562   */\n      dup4\n        /* \"#utility.yul\":5500:5567   */\n      tag_146\n      jump\t// in\n    tag_236:\n        /* \"#utility.yul\":5493:5567   */\n      swap2\n      pop\n        /* \"#utility.yul\":5576:5669   */\n      tag_237\n        /* \"#utility.yul\":5665:5668   */\n      dup3\n        /* \"#utility.yul\":5576:5669   */\n      tag_150\n      jump\t// in\n    tag_237:\n        /* \"#utility.yul\":5694:5696   */\n      0x20\n        /* \"#utility.yul\":5689:5692   */\n      dup3\n        /* \"#utility.yul\":5685:5697   */\n      add\n        /* \"#utility.yul\":5678:5697   */\n      swap1\n      pop\n        /* \"#utility.yul\":5337:5703   */\n      swap2\n      swap1\n      pop\n      jump\t// out\n        /* \"#utility.yul\":5709:6128   */\n    tag_66:\n        /* \"#utility.yul\":5875:5879   */\n      0x00\n        /* \"#utility.yul\":5913:5915   */\n      0x20\n        /* \"#utility.yul\":5902:5911   */\n      dup3\n        /* \"#utility.yul\":5898:5916   */\n      add\n        /* \"#utility.yul\":5890:5916   */\n      swap1\n      pop\n        /* \"#utility.yul\":5962:5971   */\n      dup2\n        /* \"#utility.yul\":5956:5960   */\n      dup2\n        /* \"#utility.yul\":5952:5972   */\n      sub\n        /* \"#utility.yul\":5948:5949   */\n      0x00\n        /* \"#utility.yul\":5937:5946   */\n      dup4\n        /* \"#utility.yul\":5933:5950   */\n      add\n        /* \"#utility.yul\":5926:5973   */\n      mstore\n        /* \"#utility.yul\":5990:6121   */\n      tag_239\n        /* \"#utility.yul\":6116:6120   */\n      dup2\n        /* \"#utility.yul\":5990:6121   */\n      tag_151\n      jump\t// in\n    tag_239:\n        /* \"#utility.yul\":5982:6121   */\n      swap1\n      pop\n        /* \"#utility.yul\":5709:6128   */\n      swap2\n      swap1\n      pop\n      jump\t// out\n        /* \"#utility.yul\":6134:6302   */\n    tag_152:\n        /* \"#utility.yul\":6274:6294   */\n      0x54617267657420697320726561636865642e0000000000000000000000000000\n        /* \"#utility.yul\":6270:6271   */\n      0x00\n        /* \"#utility.yul\":6262:6268   */\n      dup3\n        /* \"#utility.yul\":6258:6272   */\n      add\n        /* \"#utility.yul\":6251:6295   */\n      mstore\n        /* \"#utility.yul\":6134:6302   */\n      pop\n      jump\t// out\n        /* \"#utility.yul\":6308:6674   */\n    tag_153:\n        /* \"#utility.yul\":6450:6453   */\n      0x00\n        /* \"#utility.yul\":6471:6538   */\n      tag_242\n        /* \"#utility.yul\":6535:6537   */\n      0x12\n        /* \"#utility.yul\":6530:6533   */\n      dup4\n        /* \"#utility.yul\":6471:6538   */\n      tag_146\n      jump\t// in\n    tag_242:\n        /* \"#utility.yul\":6464:6538   */\n      swap2\n      pop\n        /* \"#utility.yul\":6547:6640   */\n      tag_243\n        /* \"#utility.yul\":6636:6639   */\n      dup3\n        /* \"#utility.yul\":6547:6640   */\n      tag_152\n      jump\t// in\n    tag_243:\n        /* \"#utility.yul\":6665:6667   */\n      0x20\n        /* \"#utility.yul\":6660:6663   */\n      dup3\n        /* \"#utility.yul\":6656:6668   */\n      add\n        /* \"#utility.yul\":6649:6668   */\n      swap1\n      pop\n        /* \"#utility.yul\":6308:6674   */\n      swap2\n      swap1\n      pop\n      jump\t// out\n        /* \"#utility.yul\":6680:7099   */\n    tag_72:\n        /* \"#utility.yul\":6846:6850   */\n      0x00\n        /* \"#utility.yul\":6884:6886   */\n      0x20\n        /* \"#utility.yul\":6873:6882   */\n      dup3\n        /* \"#utility.yul\":6869:6887   */\n      add\n        /* \"#utility.yul\":6861:6887   */\n      swap1\n      pop\n        /* \"#utility.yul\":6933:6942   */\n      dup2\n        /* \"#utility.yul\":6927:6931   */\n      dup2\n        /* \"#utility.yul\":6923:6943   */\n      sub\n        /* \"#utility.yul\":6919:6920   */\n      0x00\n        /* \"#utility.yul\":6908:6917   */\n      dup4\n        /* \"#utility.yul\":6904:6921   */\n      add\n        /* \"#utility.yul\":6897:6944   */\n      mstore\n        /* \"#utility.yul\":6961:7092   */\n      tag_245\n        /* \"#utility.yul\":7087:7091   */\n      dup2\n        /* \"#utility.yul\":6961:7092   */\n      tag_153\n      jump\t// in\n    tag_245:\n        /* \"#utility.yul\":6953:7092   */\n      swap1\n      pop\n        /* \"#utility.yul\":6680:7099   */\n      swap2\n      swap1\n      pop\n      jump\t// out\n        /* \"#utility.yul\":7105:7279   */\n    tag_154:\n        /* \"#utility.yul\":7245:7271   */\n      0x5468657265206973206e6f2066756e6420666f7220796f750000000000000000\n        /* \"#utility.yul\":7241:7242   */\n      0x00\n        /* \"#utility.yul\":7233:7239   */\n      dup3\n        /* \"#utility.yul\":7229:7243   */\n      add\n        /* \"#utility.yul\":7222:7272   */\n      mstore\n        /* \"#utility.yul\":7105:7279   */\n      pop\n      jump\t// out\n        /* \"#utility.yul\":7285:7651   */\n    tag_155:\n        /* \"#utility.yul\":7427:7430   */\n      0x00\n        /* \"#utility.yul\":7448:7515   */\n      tag_248\n        /* \"#utility.yul\":7512:7514   */\n      0x18\n        /* \"#utility.yul\":7507:7510   */\n      dup4\n        /* \"#utility.yul\":7448:7515   */\n      tag_146\n      jump\t// in\n    tag_248:\n        /* \"#utility.yul\":7441:7515   */\n      swap2\n      pop\n        /* \"#utility.yul\":7524:7617   */\n      tag_249\n        /* \"#utility.yul\":7613:7616   */\n      dup3\n        /* \"#utility.yul\":7524:7617   */\n      tag_154\n      jump\t// in\n    tag_249:\n        /* \"#utility.yul\":7642:7644   */\n      0x20\n        /* \"#utility.yul\":7637:7640   */\n      dup3\n        /* \"#utility.yul\":7633:7645   */\n      add\n        /* \"#utility.yul\":7626:7645   */\n      swap1\n      pop\n        /* \"#utility.yul\":7285:7651   */\n      swap2\n      swap1\n      pop\n      jump\t// out\n        /* \"#utility.yul\":7657:8076   */\n    tag_75:\n        /* \"#utility.yul\":7823:7827   */\n      0x00\n        /* \"#utility.yul\":7861:7863   */\n      0x20\n        /* \"#utility.yul\":7850:7859   */\n      dup3\n        /* \"#utility.yul\":7846:7864   */\n      add\n        /* \"#utility.yul\":7838:7864   */\n      swap1\n      pop\n        /* \"#utility.yul\":7910:7919   */\n      dup2\n        /* \"#utility.yul\":7904:7908   */\n      dup2\n        /* \"#utility.yul\":7900:7920   */\n      sub\n        /* \"#utility.yul\":7896:7897   */\n      0x00\n        /* \"#utility.yul\":7885:7894   */\n      dup4\n        /* \"#utility.yul\":7881:7898   */\n      add\n        /* \"#utility.yul\":7874:7921   */\n      mstore\n        /* \"#utility.yul\":7938:8069   */\n      tag_251\n        /* \"#utility.yul\":8064:8068   */\n      dup2\n        /* \"#utility.yul\":7938:8069   */\n      tag_155\n      jump\t// in\n    tag_251:\n        /* \"#utility.yul\":7930:8069   */\n      swap1\n      pop\n        /* \"#utility.yul\":7657:8076   */\n      swap2\n      swap1\n      pop\n      jump\t// out\n        /* \"#utility.yul\":8082:8229   */\n    tag_156:\n        /* \"#utility.yul\":8183:8194   */\n      0x00\n        /* \"#utility.yul\":8220:8223   */\n      dup2\n        /* \"#utility.yul\":8205:8223   */\n      swap1\n      pop\n        /* \"#utility.yul\":8082:8229   */\n      swap3\n      swap2\n      pop\n      pop\n      jump\t// out\n        /* \"#utility.yul\":8235:8349   */\n    tag_157:\n      pop\n      jump\t// out\n        /* \"#utility.yul\":8355:8753   */\n    tag_158:\n        /* \"#utility.yul\":8514:8517   */\n      0x00\n        /* \"#utility.yul\":8535:8618   */\n      tag_255\n        /* \"#utility.yul\":8616:8617   */\n      0x00\n        /* \"#utility.yul\":8611:8614   */\n      dup4\n        /* \"#utility.yul\":8535:8618   */\n      tag_156\n      jump\t// in\n    tag_255:\n        /* \"#utility.yul\":8528:8618   */\n      swap2\n      pop\n        /* \"#utility.yul\":8627:8720   */\n      tag_256\n        /* \"#utility.yul\":8716:8719   */\n      dup3\n        /* \"#utility.yul\":8627:8720   */\n      tag_157\n      jump\t// in\n    tag_256:\n        /* \"#utility.yul\":8745:8746   */\n      0x00\n        /* \"#utility.yul\":8740:8743   */\n      dup3\n        /* \"#utility.yul\":8736:8747   */\n      add\n        /* \"#utility.yul\":8729:8747   */\n      swap1\n      pop\n        /* \"#utility.yul\":8355:8753   */\n      swap2\n      swap1\n      pop\n      jump\t// out\n        /* \"#utility.yul\":8759:9138   */\n    tag_77:\n        /* \"#utility.yul\":8943:8946   */\n      0x00\n        /* \"#utility.yul\":8965:9112   */\n      tag_258\n        /* \"#utility.yul\":9108:9111   */\n      dup3\n        /* \"#utility.yul\":8965:9112   */\n      tag_158\n      jump\t// in\n    tag_258:\n        /* \"#utility.yul\":8958:9112   */\n      swap2\n      pop\n        /* \"#utility.yul\":9129:9132   */\n      dup2\n        /* \"#utility.yul\":9122:9132   */\n      swap1\n      pop\n        /* \"#utility.yul\":8759:9138   */\n      swap2\n      swap1\n      pop\n      jump\t// out\n        /* \"#utility.yul\":9144:9304   */\n    tag_159:\n        /* \"#utility.yul\":9284:9296   */\n      0x7478206661696c65642e00000000000000000000000000000000000000000000\n        /* \"#utility.yul\":9280:9281   */\n      0x00\n        /* \"#utility.yul\":9272:9278   */\n      dup3\n        /* \"#utility.yul\":9268:9282   */\n      add\n        /* \"#utility.yul\":9261:9297   */\n      mstore\n        /* \"#utility.yul\":9144:9304   */\n      pop\n      jump\t// out\n        /* \"#utility.yul\":9310:9676   */\n    tag_160:\n        /* \"#utility.yul\":9452:9455   */\n      0x00\n        /* \"#utility.yul\":9473:9540   */\n      tag_261\n        /* \"#utility.yul\":9537:9539   */\n      0x0a\n        /* \"#utility.yul\":9532:9535   */\n      dup4\n        /* \"#utility.yul\":9473:9540   */\n      tag_146\n      jump\t// in\n    tag_261:\n        /* \"#utility.yul\":9466:9540   */\n      swap2\n      pop\n        /* \"#utility.yul\":9549:9642   */\n      tag_262\n        /* \"#utility.yul\":9638:9641   */\n      dup3\n        /* \"#utility.yul\":9549:9642   */\n      tag_159\n      jump\t// in\n    tag_262:\n        /* \"#utility.yul\":9667:9669   */\n      0x20\n        /* \"#utility.yul\":9662:9665   */\n      dup3\n        /* \"#utility.yul\":9658:9670   */\n      add\n        /* \"#utility.yul\":9651:9670   */\n      swap1\n      pop\n        /* \"#utility.yul\":9310:9676   */\n      swap2\n      swap1\n      pop\n      jump\t// out\n        /* \"#utility.yul\":9682:10101   */\n    tag_83:\n        /* \"#utility.yul\":9848:9852   */\n      0x00\n        /* \"#utility.yul\":9886:9888   */\n      0x20\n        /* \"#utility.yul\":9875:9884   */\n      dup3\n        /* \"#utility.yul\":9871:9889   */\n      add\n        /* \"#utility.yul\":9863:9889   */\n      swap1\n      pop\n        /* \"#utility.yul\":9935:9944   */\n      dup2\n        /* \"#utility.yul\":9929:9933   */\n      dup2\n        /* \"#utility.yul\":9925:9945   */\n      sub\n        /* \"#utility.yul\":9921:9922   */\n      0x00\n        /* \"#utility.yul\":9910:9919   */\n      dup4\n        /* \"#utility.yul\":9906:9923   */\n      add\n        /* \"#utility.yul\":9899:9946   */\n      mstore\n        /* \"#utility.yul\":9963:10094   */\n      tag_264\n        /* \"#utility.yul\":10089:10093   */\n      dup2\n        /* \"#utility.yul\":9963:10094   */\n      tag_160\n      jump\t// in\n    tag_264:\n        /* \"#utility.yul\":9955:10094   */\n      swap1\n      pop\n        /* \"#utility.yul\":9682:10101   */\n      swap2\n      swap1\n      pop\n      jump\t// out\n        /* \"#utility.yul\":10107:10279   */\n    tag_161:\n        /* \"#utility.yul\":10247:10271   */\n      0x546172676574206973206e6f7420726561636865642e00000000000000000000\n        /* \"#utility.yul\":10243:10244   */\n      0x00\n        /* \"#utility.yul\":10235:10241   */\n      dup3\n        /* \"#utility.yul\":10231:10245   */\n      add\n        /* \"#utility.yul\":10224:10272   */\n      mstore\n        /* \"#utility.yul\":10107:10279   */\n      pop\n      jump\t// out\n        /* \"#utility.yul\":10285:10651   */\n    tag_162:\n        /* \"#utility.yul\":10427:10430   */\n      0x00\n        /* \"#utility.yul\":10448:10515   */\n      tag_267\n        /* \"#utility.yul\":10512:10514   */\n      0x16\n        /* \"#utility.yul\":10507:10510   */\n      dup4\n        /* \"#utility.yul\":10448:10515   */\n      tag_146\n      jump\t// in\n    tag_267:\n        /* \"#utility.yul\":10441:10515   */\n      swap2\n      pop\n        /* \"#utility.yul\":10524:10617   */\n      tag_268\n        /* \"#utility.yul\":10613:10616   */\n      dup3\n        /* \"#utility.yul\":10524:10617   */\n      tag_161\n      jump\t// in\n    tag_268:\n        /* \"#utility.yul\":10642:10644   */\n      0x20\n        /* \"#utility.yul\":10637:10640   */\n      dup3\n        /* \"#utility.yul\":10633:10645   */\n      add\n        /* \"#utility.yul\":10626:10645   */\n      swap1\n      pop\n        /* \"#utility.yul\":10285:10651   */\n      swap2\n      swap1\n      pop\n      jump\t// out\n        /* \"#utility.yul\":10657:11076   */\n    tag_99:\n        /* \"#utility.yul\":10823:10827   */\n      0x00\n        /* \"#utility.yul\":10861:10863   */\n      0x20\n        /* \"#utility.yul\":10850:10859   */\n      dup3\n        /* \"#utility.yul\":10846:10864   */\n      add\n        /* \"#utility.yul\":10838:10864   */\n      swap1\n      pop\n        /* \"#utility.yul\":10910:10919   */\n      dup2\n        /* \"#utility.yul\":10904:10908   */\n      dup2\n        /* \"#utility.yul\":10900:10920   */\n      sub\n        /* \"#utility.yul\":10896:10897   */\n      0x00\n        /* \"#utility.yul\":10885:10894   */\n      dup4\n        /* \"#utility.yul\":10881:10898   */\n      add\n        /* \"#utility.yul\":10874:10921   */\n      mstore\n        /* \"#utility.yul\":10938:11069   */\n      tag_270\n        /* \"#utility.yul\":11064:11068   */\n      dup2\n        /* \"#utility.yul\":10938:11069   */\n      tag_162\n      jump\t// in\n    tag_270:\n        /* \"#utility.yul\":10930:11069   */\n      swap1\n      pop\n        /* \"#utility.yul\":10657:11076   */\n      swap2\n      swap1\n      pop\n      jump\t// out\n        /* \"#utility.yul\":11082:11245   */\n    tag_163:\n        /* \"#utility.yul\":11222:11237   */\n      0x53656e64206d6f72652045544800000000000000000000000000000000000000\n        /* \"#utility.yul\":11218:11219   */\n      0x00\n        /* \"#utility.yul\":11210:11216   */\n      dup3\n        /* \"#utility.yul\":11206:11220   */\n      add\n        /* \"#utility.yul\":11199:11238   */\n      mstore\n        /* \"#utility.yul\":11082:11245   */\n      pop\n      jump\t// out\n        /* \"#utility.yul\":11251:11617   */\n    tag_164:\n        /* \"#utility.yul\":11393:11396   */\n      0x00\n        /* \"#utility.yul\":11414:11481   */\n      tag_273\n        /* \"#utility.yul\":11478:11480   */\n      0x0d\n        /* \"#utility.yul\":11473:11476   */\n      dup4\n        /* \"#utility.yul\":11414:11481   */\n      tag_146\n      jump\t// in\n    tag_273:\n        /* \"#utility.yul\":11407:11481   */\n      swap2\n      pop\n        /* \"#utility.yul\":11490:11583   */\n      tag_274\n        /* \"#utility.yul\":11579:11582   */\n      dup3\n        /* \"#utility.yul\":11490:11583   */\n      tag_163\n      jump\t// in\n    tag_274:\n        /* \"#utility.yul\":11608:11610   */\n      0x20\n        /* \"#utility.yul\":11603:11606   */\n      dup3\n        /* \"#utility.yul\":11599:11611   */\n      add\n        /* \"#utility.yul\":11592:11611   */\n      swap1\n      pop\n        /* \"#utility.yul\":11251:11617   */\n      swap2\n      swap1\n      pop\n      jump\t// out\n        /* \"#utility.yul\":11623:12042   */\n    tag_110:\n        /* \"#utility.yul\":11789:11793   */\n      0x00\n        /* \"#utility.yul\":11827:11829   */\n      0x20\n        /* \"#utility.yul\":11816:11825   */\n      dup3\n        /* \"#utility.yul\":11812:11830   */\n      add\n        /* \"#utility.yul\":11804:11830   */\n      swap1\n      pop\n        /* \"#utility.yul\":11876:11885   */\n      dup2\n        /* \"#utility.yul\":11870:11874   */\n      dup2\n        /* \"#utility.yul\":11866:11886   */\n      sub\n        /* \"#utility.yul\":11862:11863   */\n      0x00\n        /* \"#utility.yul\":11851:11860   */\n      dup4\n        /* \"#utility.yul\":11847:11864   */\n      add\n        /* \"#utility.yul\":11840:11887   */\n      mstore\n        /* \"#utility.yul\":11904:12035   */\n      tag_276\n        /* \"#utility.yul\":12030:12034   */\n      dup2\n        /* \"#utility.yul\":11904:12035   */\n      tag_164\n      jump\t// in\n    tag_276:\n        /* \"#utility.yul\":11896:12035   */\n      swap1\n      pop\n        /* \"#utility.yul\":11623:12042   */\n      swap2\n      swap1\n      pop\n      jump\t// out\n        /* \"#utility.yul\":12048:12215   */\n    tag_165:\n        /* \"#utility.yul\":12188:12207   */\n      0x57696e646f7720697320636c6f7365642e000000000000000000000000000000\n        /* \"#utility.yul\":12184:12185   */\n      0x00\n        /* \"#utility.yul\":12176:12182   */\n      dup3\n        /* \"#utility.yul\":12172:12186   */\n      add\n        /* \"#utility.yul\":12165:12208   */\n      mstore\n        /* \"#utility.yul\":12048:12215   */\n      pop\n      jump\t// out\n        /* \"#utility.yul\":12221:12587   */\n    tag_166:\n        /* \"#utility.yul\":12363:12366   */\n      0x00\n        /* \"#utility.yul\":12384:12451   */\n      tag_279\n        /* \"#utility.yul\":12448:12450   */\n      0x11\n        /* \"#utility.yul\":12443:12446   */\n      dup4\n        /* \"#utility.yul\":12384:12451   */\n      tag_146\n      jump\t// in\n    tag_279:\n        /* \"#utility.yul\":12377:12451   */\n      swap2\n      pop\n        /* \"#utility.yul\":12460:12553   */\n      tag_280\n        /* \"#utility.yul\":12549:12552   */\n      dup3\n        /* \"#utility.yul\":12460:12553   */\n      tag_165\n      jump\t// in\n    tag_280:\n        /* \"#utility.yul\":12578:12580   */\n      0x20\n        /* \"#utility.yul\":12573:12576   */\n      dup3\n        /* \"#utility.yul\":12569:12581   */\n      add\n        /* \"#utility.yul\":12562:12581   */\n      swap1\n      pop\n        /* \"#utility.yul\":12221:12587   */\n      swap2\n      swap1\n      pop\n      jump\t// out\n        /* \"#utility.yul\":12593:13012   */\n    tag_114:\n        /* \"#utility.yul\":12759:12763   */\n      0x00\n        /* \"#utility.yul\":12797:12799   */\n      0x20\n        /* \"#utility.yul\":12786:12795   */\n      dup3\n        /* \"#utility.yul\":12782:12800   */\n      add\n        /* \"#utility.yul\":12774:12800   */\n      swap1\n      pop\n        /* \"#utility.yul\":12846:12855   */\n      dup2\n        /* \"#utility.yul\":12840:12844   */\n      dup2\n        /* \"#utility.yul\":12836:12856   */\n      sub\n        /* \"#utility.yul\":12832:12833   */\n      0x00\n        /* \"#utility.yul\":12821:12830   */\n      dup4\n        /* \"#utility.yul\":12817:12834   */\n      add\n        /* \"#utility.yul\":12810:12857   */\n      mstore\n        /* \"#utility.yul\":12874:13005   */\n      tag_282\n        /* \"#utility.yul\":13000:13004   */\n      dup2\n        /* \"#utility.yul\":12874:13005   */\n      tag_166\n      jump\t// in\n    tag_282:\n        /* \"#utility.yul\":12866:13005   */\n      swap1\n      pop\n        /* \"#utility.yul\":12593:13012   */\n      swap2\n      swap1\n      pop\n      jump\t// out\n        /* \"#utility.yul\":13018:13123   */\n    tag_167:\n        /* \"#utility.yul\":13054:13061   */\n      0x00\n        /* \"#utility.yul\":13094:13116   */\n      0xffffffffffffffffffff\n        /* \"#utility.yul\":13087:13092   */\n      dup3\n        /* \"#utility.yul\":13083:13117   */\n      and\n        /* \"#utility.yul\":13072:13117   */\n      swap1\n      pop\n        /* \"#utility.yul\":13018:13123   */\n      swap2\n      swap1\n      pop\n      jump\t// out\n        /* \"#utility.yul\":13129:13249   */\n    tag_168:\n        /* \"#utility.yul\":13201:13224   */\n      tag_285\n        /* \"#utility.yul\":13218:13223   */\n      dup2\n        /* \"#utility.yul\":13201:13224   */\n      tag_167\n      jump\t// in\n    tag_285:\n        /* \"#utility.yul\":13194:13199   */\n      dup2\n        /* \"#utility.yul\":13191:13225   */\n      eq\n        /* \"#utility.yul\":13181:13243   */\n      tag_286\n      jumpi\n        /* \"#utility.yul\":13239:13240   */\n      0x00\n        /* \"#utility.yul\":13236:13237   */\n      dup1\n        /* \"#utility.yul\":13229:13241   */\n      revert\n        /* \"#utility.yul\":13181:13243   */\n    tag_286:\n        /* \"#utility.yul\":13129:13249   */\n      pop\n      jump\t// out\n        /* \"#utility.yul\":13255:13396   */\n    tag_169:\n        /* \"#utility.yul\":13311:13316   */\n      0x00\n        /* \"#utility.yul\":13342:13348   */\n      dup2\n        /* \"#utility.yul\":13336:13349   */\n      mload\n        /* \"#utility.yul\":13327:13349   */\n      swap1\n      pop\n        /* \"#utility.yul\":13358:13390   */\n      tag_288\n        /* \"#utility.yul\":13384:13389   */\n      dup2\n        /* \"#utility.yul\":13358:13390   */\n      tag_168\n      jump\t// in\n    tag_288:\n        /* \"#utility.yul\":13255:13396   */\n      swap3\n      swap2\n      pop\n      pop\n      jump\t// out\n        /* \"#utility.yul\":13402:13522   */\n    tag_170:\n        /* \"#utility.yul\":13474:13497   */\n      tag_290\n        /* \"#utility.yul\":13491:13496   */\n      dup2\n        /* \"#utility.yul\":13474:13497   */\n      tag_140\n      jump\t// in\n    tag_290:\n        /* \"#utility.yul\":13467:13472   */\n      dup2\n        /* \"#utility.yul\":13464:13498   */\n      eq\n        /* \"#utility.yul\":13454:13516   */\n      tag_291\n      jumpi\n        /* \"#utility.yul\":13512:13513   */\n      0x00\n        /* \"#utility.yul\":13509:13510   */\n      dup1\n        /* \"#utility.yul\":13502:13514   */\n      revert\n        /* \"#utility.yul\":13454:13516   */\n    tag_291:\n        /* \"#utility.yul\":13402:13522   */\n      pop\n      jump\t// out\n        /* \"#utility.yul\":13528:13669   */\n    tag_171:\n        /* \"#utility.yul\":13584:13589   */\n      0x00\n        /* \"#utility.yul\":13615:13621   */\n      dup2\n        /* \"#utility.yul\":13609:13622   */\n      mload\n        /* \"#utility.yul\":13600:13622   */\n      swap1\n      pop\n        /* \"#utility.yul\":13631:13663   */\n      tag_293\n        /* \"#utility.yul\":13657:13662   */\n      dup2\n        /* \"#utility.yul\":13631:13663   */\n      tag_170\n      jump\t// in\n    tag_293:\n        /* \"#utility.yul\":13528:13669   */\n      swap3\n      swap2\n      pop\n      pop\n      jump\t// out\n        /* \"#utility.yul\":13675:13818   */\n    tag_172:\n        /* \"#utility.yul\":13732:13737   */\n      0x00\n        /* \"#utility.yul\":13763:13769   */\n      dup2\n        /* \"#utility.yul\":13757:13770   */\n      mload\n        /* \"#utility.yul\":13748:13770   */\n      swap1\n      pop\n        /* \"#utility.yul\":13779:13812   */\n      tag_295\n        /* \"#utility.yul\":13806:13811   */\n      dup2\n        /* \"#utility.yul\":13779:13812   */\n      tag_142\n      jump\t// in\n    tag_295:\n        /* \"#utility.yul\":13675:13818   */\n      swap3\n      swap2\n      pop\n      pop\n      jump\t// out\n        /* \"#utility.yul\":13824:14795   */\n    tag_119:\n        /* \"#utility.yul\":13927:13933   */\n      0x00\n        /* \"#utility.yul\":13935:13941   */\n      dup1\n        /* \"#utility.yul\":13943:13949   */\n      0x00\n        /* \"#utility.yul\":13951:13957   */\n      dup1\n        /* \"#utility.yul\":13959:13965   */\n      0x00\n        /* \"#utility.yul\":14008:14011   */\n      0xa0\n        /* \"#utility.yul\":13996:14005   */\n      dup7\n        /* \"#utility.yul\":13987:13994   */\n      dup9\n        /* \"#utility.yul\":13983:14006   */\n      sub\n        /* \"#utility.yul\":13979:14012   */\n      slt\n        /* \"#utility.yul\":13976:14096   */\n      iszero\n      tag_297\n      jumpi\n        /* \"#utility.yul\":14015:14094   */\n      tag_298\n      tag_131\n      jump\t// in\n    tag_298:\n        /* \"#utility.yul\":13976:14096   */\n    tag_297:\n        /* \"#utility.yul\":14135:14136   */\n      0x00\n        /* \"#utility.yul\":14160:14223   */\n      tag_299\n        /* \"#utility.yul\":14215:14222   */\n      dup9\n        /* \"#utility.yul\":14206:14212   */\n      dup3\n        /* \"#utility.yul\":14195:14204   */\n      dup10\n        /* \"#utility.yul\":14191:14213   */\n      add\n        /* \"#utility.yul\":14160:14223   */\n      tag_169\n      jump\t// in\n    tag_299:\n        /* \"#utility.yul\":14150:14223   */\n      swap6\n      pop\n        /* \"#utility.yul\":14106:14233   */\n      pop\n        /* \"#utility.yul\":14272:14274   */\n      0x20\n        /* \"#utility.yul\":14298:14361   */\n      tag_300\n        /* \"#utility.yul\":14353:14360   */\n      dup9\n        /* \"#utility.yul\":14344:14350   */\n      dup3\n        /* \"#utility.yul\":14333:14342   */\n      dup10\n        /* \"#utility.yul\":14329:14351   */\n      add\n        /* \"#utility.yul\":14298:14361   */\n      tag_171\n      jump\t// in\n    tag_300:\n        /* \"#utility.yul\":14288:14361   */\n      swap5\n      pop\n        /* \"#utility.yul\":14243:14371   */\n      pop\n        /* \"#utility.yul\":14410:14412   */\n      0x40\n        /* \"#utility.yul\":14436:14500   */\n      tag_301\n        /* \"#utility.yul\":14492:14499   */\n      dup9\n        /* \"#utility.yul\":14483:14489   */\n      dup3\n        /* \"#utility.yul\":14472:14481   */\n      dup10\n        /* \"#utility.yul\":14468:14490   */\n      add\n        /* \"#utility.yul\":14436:14500   */\n      tag_172\n      jump\t// in\n    tag_301:\n        /* \"#utility.yul\":14426:14500   */\n      swap4\n      pop\n        /* \"#utility.yul\":14381:14510   */\n      pop\n        /* \"#utility.yul\":14549:14551   */\n      0x60\n        /* \"#utility.yul\":14575:14639   */\n      tag_302\n        /* \"#utility.yul\":14631:14638   */\n      dup9\n        /* \"#utility.yul\":14622:14628   */\n      dup3\n        /* \"#utility.yul\":14611:14620   */\n      dup10\n        /* \"#utility.yul\":14607:14629   */\n      add\n        /* \"#utility.yul\":14575:14639   */\n      tag_172\n      jump\t// in\n    tag_302:\n        /* \"#utility.yul\":14565:14639   */\n      swap3\n      pop\n        /* \"#utility.yul\":14520:14649   */\n      pop\n        /* \"#utility.yul\":14688:14691   */\n      0x80\n        /* \"#utility.yul\":14715:14778   */\n      tag_303\n        /* \"#utility.yul\":14770:14777   */\n      dup9\n        /* \"#utility.yul\":14761:14767   */\n      dup3\n        /* \"#utility.yul\":14750:14759   */\n      dup10\n        /* \"#utility.yul\":14746:14768   */\n      add\n        /* \"#utility.yul\":14715:14778   */\n      tag_169\n      jump\t// in\n    tag_303:\n        /* \"#utility.yul\":14705:14778   */\n      swap2\n      pop\n        /* \"#utility.yul\":14659:14788   */\n      pop\n        /* \"#utility.yul\":13824:14795   */\n      swap3\n      swap6\n      pop\n      swap3\n      swap6\n      swap1\n      swap4\n      pop\n      jump\t// out\n        /* \"#utility.yul\":14801:15039   */\n    tag_173:\n        /* \"#utility.yul\":14941:14975   */\n      0x596f7520646f206e6f7420686176652061207065726d697373696f6e20746f20\n        /* \"#utility.yul\":14937:14938   */\n      0x00\n        /* \"#utility.yul\":14929:14935   */\n      dup3\n        /* \"#utility.yul\":14925:14939   */\n      add\n        /* \"#utility.yul\":14918:14976   */\n      mstore\n        /* \"#utility.yul\":15010:15031   */\n      0x63616c6c20746869732066756e6374696f6e2e00000000000000000000000000\n        /* \"#utility.yul\":15005:15007   */\n      0x20\n        /* \"#utility.yul\":14997:15003   */\n      dup3\n        /* \"#utility.yul\":14993:15008   */\n      add\n        /* \"#utility.yul\":14986:15032   */\n      mstore\n        /* \"#utility.yul\":14801:15039   */\n      pop\n      jump\t// out\n        /* \"#utility.yul\":15045:15411   */\n    tag_174:\n        /* \"#utility.yul\":15187:15190   */\n      0x00\n        /* \"#utility.yul\":15208:15275   */\n      tag_306\n        /* \"#utility.yul\":15272:15274   */\n      0x33\n        /* \"#utility.yul\":15267:15270   */\n      dup4\n        /* \"#utility.yul\":15208:15275   */\n      tag_146\n      jump\t// in\n    tag_306:\n        /* \"#utility.yul\":15201:15275   */\n      swap2\n      pop\n        /* \"#utility.yul\":15284:15377   */\n      tag_307\n        /* \"#utility.yul\":15373:15376   */\n      dup3\n        /* \"#utility.yul\":15284:15377   */\n      tag_173\n      jump\t// in\n    tag_307:\n        /* \"#utility.yul\":15402:15404   */\n      0x40\n        /* \"#utility.yul\":15397:15400   */\n      dup3\n        /* \"#utility.yul\":15393:15405   */\n      add\n        /* \"#utility.yul\":15386:15405   */\n      swap1\n      pop\n        /* \"#utility.yul\":15045:15411   */\n      swap2\n      swap1\n      pop\n      jump\t// out\n        /* \"#utility.yul\":15417:15836   */\n    tag_123:\n        /* \"#utility.yul\":15583:15587   */\n      0x00\n        /* \"#utility.yul\":15621:15623   */\n      0x20\n        /* \"#utility.yul\":15610:15619   */\n      dup3\n        /* \"#utility.yul\":15606:15624   */\n      add\n        /* \"#utility.yul\":15598:15624   */\n      swap1\n      pop\n        /* \"#utility.yul\":15670:15679   */\n      dup2\n        /* \"#utility.yul\":15664:15668   */\n      dup2\n        /* \"#utility.yul\":15660:15680   */\n      sub\n        /* \"#utility.yul\":15656:15657   */\n      0x00\n        /* \"#utility.yul\":15645:15654   */\n      dup4\n        /* \"#utility.yul\":15641:15658   */\n      add\n        /* \"#utility.yul\":15634:15681   */\n      mstore\n        /* \"#utility.yul\":15698:15829   */\n      tag_309\n        /* \"#utility.yul\":15824:15828   */\n      dup2\n        /* \"#utility.yul\":15698:15829   */\n      tag_174\n      jump\t// in\n    tag_309:\n        /* \"#utility.yul\":15690:15829   */\n      swap1\n      pop\n        /* \"#utility.yul\":15417:15836   */\n      swap2\n      swap1\n      pop\n      jump\t// out\n        /* \"#utility.yul\":15842:16252   */\n    tag_127:\n        /* \"#utility.yul\":15882:15889   */\n      0x00\n        /* \"#utility.yul\":15905:15925   */\n      tag_311\n        /* \"#utility.yul\":15923:15924   */\n      dup3\n        /* \"#utility.yul\":15905:15925   */\n      tag_138\n      jump\t// in\n    tag_311:\n        /* \"#utility.yul\":15900:15925   */\n      swap2\n      pop\n        /* \"#utility.yul\":15939:15959   */\n      tag_312\n        /* \"#utility.yul\":15957:15958   */\n      dup4\n        /* \"#utility.yul\":15939:15959   */\n      tag_138\n      jump\t// in\n    tag_312:\n        /* \"#utility.yul\":15934:15959   */\n      swap3\n      pop\n        /* \"#utility.yul\":15994:15995   */\n      dup3\n        /* \"#utility.yul\":15991:15992   */\n      dup3\n        /* \"#utility.yul\":15987:15996   */\n      mul\n        /* \"#utility.yul\":16016:16046   */\n      tag_313\n        /* \"#utility.yul\":16034:16045   */\n      dup2\n        /* \"#utility.yul\":16016:16046   */\n      tag_138\n      jump\t// in\n    tag_313:\n        /* \"#utility.yul\":16005:16046   */\n      swap2\n      pop\n        /* \"#utility.yul\":16195:16196   */\n      dup3\n        /* \"#utility.yul\":16186:16193   */\n      dup3\n        /* \"#utility.yul\":16182:16197   */\n      div\n        /* \"#utility.yul\":16179:16180   */\n      dup5\n        /* \"#utility.yul\":16176:16198   */\n      eq\n        /* \"#utility.yul\":16156:16157   */\n      dup4\n        /* \"#utility.yul\":16149:16158   */\n      iszero\n        /* \"#utility.yul\":16129:16212   */\n      or\n        /* \"#utility.yul\":16106:16245   */\n      tag_314\n      jumpi\n        /* \"#utility.yul\":16225:16243   */\n      tag_315\n      tag_149\n      jump\t// in\n    tag_315:\n        /* \"#utility.yul\":16106:16245   */\n    tag_314:\n        /* \"#utility.yul\":15890:16252   */\n      pop\n        /* \"#utility.yul\":15842:16252   */\n      swap3\n      swap2\n      pop\n      pop\n      jump\t// out\n        /* \"#utility.yul\":16258:16438   */\n    tag_175:\n        /* \"#utility.yul\":16306:16383   */\n      0x4e487b7100000000000000000000000000000000000000000000000000000000\n        /* \"#utility.yul\":16303:16304   */\n      0x00\n        /* \"#utility.yul\":16296:16384   */\n      mstore\n        /* \"#utility.yul\":16403:16407   */\n      0x12\n        /* \"#utility.yul\":16400:16401   */\n      0x04\n        /* \"#utility.yul\":16393:16408   */\n      mstore\n        /* \"#utility.yul\":16427:16431   */\n      0x24\n        /* \"#utility.yul\":16424:16425   */\n      0x00\n        /* \"#utility.yul\":16417:16432   */\n      revert\n        /* \"#utility.yul\":16444:16629   */\n    tag_129:\n        /* \"#utility.yul\":16484:16485   */\n      0x00\n        /* \"#utility.yul\":16501:16521   */\n      tag_318\n        /* \"#utility.yul\":16519:16520   */\n      dup3\n        /* \"#utility.yul\":16501:16521   */\n      tag_138\n      jump\t// in\n    tag_318:\n        /* \"#utility.yul\":16496:16521   */\n      swap2\n      pop\n        /* \"#utility.yul\":16535:16555   */\n      tag_319\n        /* \"#utility.yul\":16553:16554   */\n      dup4\n        /* \"#utility.yul\":16535:16555   */\n      tag_138\n      jump\t// in\n    tag_319:\n        /* \"#utility.yul\":16530:16555   */\n      swap3\n      pop\n        /* \"#utility.yul\":16574:16575   */\n      dup3\n        /* \"#utility.yul\":16564:16599   */\n      tag_320\n      jumpi\n        /* \"#utility.yul\":16579:16597   */\n      tag_321\n      tag_175\n      jump\t// in\n    tag_321:\n        /* \"#utility.yul\":16564:16599   */\n    tag_320:\n        /* \"#utility.yul\":16621:16622   */\n      dup3\n        /* \"#utility.yul\":16618:16619   */\n      dup3\n        /* \"#utility.yul\":16614:16623   */\n      div\n        /* \"#utility.yul\":16609:16623   */\n      swap1\n      pop\n        /* \"#utility.yul\":16444:16629   */\n      swap3\n      swap2\n      pop\n      pop\n      jump\t// out\n\n    auxdata: 0xa26469706673582212208bfd8dad6a234f0e410c634025c416c338f86db13c93620c7024e22f1f2809ef64736f6c63430008140033\n}\n",
				"bytecode": {
					"linkReferences": {},
					"object": "60806040525f600560146101000a81548160ff0219169083151502179055503480156200002a575f80fd5b506040516200148d3803806200148d833981810160405281019062000050919062000135565b73694aa1769357215de4fac081bf1f309adc32530660015f6101000a81548173ffffffffffffffffffffffffffffffffffffffff021916908373ffffffffffffffffffffffffffffffffffffffff1602179055503360025f6101000a81548173ffffffffffffffffffffffffffffffffffffffff021916908373ffffffffffffffffffffffffffffffffffffffff16021790555042600381905550806004819055505062000165565b5f80fd5b5f819050919050565b6200011181620000fd565b81146200011c575f80fd5b50565b5f815190506200012f8162000106565b92915050565b5f602082840312156200014d576200014c620000f9565b5b5f6200015c848285016200011f565b91505092915050565b61131a80620001735f395ff3fe608060405260043610610090575f3560e01c80639f883a05116100585780639f883a051461013a578063b60d428814610176578063bea4dfb514610180578063d39cf006146101aa578063da4658e0146101d257610090565b806313ffff0114610094578063590e1ae3146100bc5780636be6c88f146100d25780638da5cb5b146100fa5780638edd6eb614610124575b5f80fd5b34801561009f575f80fd5b506100ba60048036038101906100b59190610b5d565b6101fc565b005b3480156100c7575f80fd5b506100d06102ce565b005b3480156100dd575f80fd5b506100f860048036038101906100f39190610b5d565b61051b565b005b348015610105575f80fd5b5061010e6105ed565b60405161011b9190610b97565b60405180910390f35b34801561012f575f80fd5b50610138610612565b005b348015610145575f80fd5b50610160600480360381019061015b9190610b5d565b610850565b60405161016d9190610bc8565b60405180910390f35b61017e610864565b005b34801561018b575f80fd5b5061019461094c565b6040516101a19190610bf9565b60405180910390f35b3480156101b5575f80fd5b506101d060048036038101906101cb9190610c3c565b6109e9565b005b3480156101dd575f80fd5b506101e6610abd565b6040516101f39190610c94565b60405180910390f35b60025f9054906101000a900473ffffffffffffffffffffffffffffffffffffffff1673ffffffffffffffffffffffffffffffffffffffff163373ffffffffffffffffffffffffffffffffffffffff161461028b576040517f08c379a000000000000000000000000000000000000000000000000000000000815260040161028290610d2d565b60405180910390fd5b8060055f6101000a81548173ffffffffffffffffffffffffffffffffffffffff021916908373ffffffffffffffffffffffffffffffffffffffff16021790555050565b6004546003546102de9190610d78565b421015610320576040517f08c379a000000000000000000000000000000000000000000000000000000000815260040161031790610df5565b60405180910390fd5b683635c9adc5dea0000061033347610ad0565b10610373576040517f08c379a000000000000000000000000000000000000000000000000000000000815260040161036a90610e5d565b60405180910390fd5b5f805f3373ffffffffffffffffffffffffffffffffffffffff1673ffffffffffffffffffffffffffffffffffffffff1681526020019081526020015f2054036103f1576040517f08c379a00000000000000000000000000000000000000000000000000000000081526004016103e890610ec5565b60405180910390fd5b5f3373ffffffffffffffffffffffffffffffffffffffff165f803373ffffffffffffffffffffffffffffffffffffffff1673ffffffffffffffffffffffffffffffffffffffff1681526020019081526020015f205460405161045290610f10565b5f6040518083038185875af1925050503d805f811461048c576040519150601f19603f3d011682016040523d82523d5f602084013e610491565b606091505b505080915050806104d7576040517f08c379a00000000000000000000000000000000000000000000000000000000081526004016104ce90610f6e565b60405180910390fd5b5f805f3373ffffffffffffffffffffffffffffffffffffffff1673ffffffffffffffffffffffffffffffffffffffff1681526020019081526020015f208190555050565b60025f9054906101000a900473ffffffffffffffffffffffffffffffffffffffff1673ffffffffffffffffffffffffffffffffffffffff163373ffffffffffffffffffffffffffffffffffffffff16146105aa576040517f08c379a00000000000000000000000000000000000000000000000000000000081526004016105a190610d2d565b60405180910390fd5b8060025f6101000a81548173ffffffffffffffffffffffffffffffffffffffff021916908373ffffffffffffffffffffffffffffffffffffffff16021790555050565b60025f9054906101000a900473ffffffffffffffffffffffffffffffffffffffff1681565b6004546003546106229190610d78565b421015610664576040517f08c379a000000000000000000000000000000000000000000000000000000000815260040161065b90610df5565b60405180910390fd5b60025f9054906101000a900473ffffffffffffffffffffffffffffffffffffffff1673ffffffffffffffffffffffffffffffffffffffff163373ffffffffffffffffffffffffffffffffffffffff16146106f3576040517f08c379a00000000000000000000000000000000000000000000000000000000081526004016106ea90610d2d565b60405180910390fd5b683635c9adc5dea0000061070647610ad0565b1015610747576040517f08c379a000000000000000000000000000000000000000000000000000000000815260040161073e90610fd6565b60405180910390fd5b5f3373ffffffffffffffffffffffffffffffffffffffff164760405161076c90610f10565b5f6040518083038185875af1925050503d805f81146107a6576040519150601f19603f3d011682016040523d82523d5f602084013e6107ab565b606091505b505080915050806107f1576040517f08c379a00000000000000000000000000000000000000000000000000000000081526004016107e890610f6e565b60405180910390fd5b5f805f3373ffffffffffffffffffffffffffffffffffffffff1673ffffffffffffffffffffffffffffffffffffffff1681526020019081526020015f20819055506001600560146101000a81548160ff02191690831515021790555050565b5f602052805f5260405f205f915090505481565b68056bc75e2d6310000061087734610ad0565b10156108b8576040517f08c379a00000000000000000000000000000000000000000000000000000000081526004016108af9061103e565b60405180910390fd5b6004546003546108c89190610d78565b4210610909576040517f08c379a0000000000000000000000000000000000000000000000000000000008152600401610900906110a6565b60405180910390fd5b345f803373ffffffffffffffffffffffffffffffffffffffff1673ffffffffffffffffffffffffffffffffffffffff1681526020019081526020015f2081905550565b5f8060015f9054906101000a900473ffffffffffffffffffffffffffffffffffffffff1673ffffffffffffffffffffffffffffffffffffffff1663feaf968c6040518163ffffffff1660e01b815260040160a060405180830381865afa1580156109b8573d5f803e3d5ffd5b505050506040513d601f19601f820116820180604052508101906109dc9190611141565b5050509150508091505090565b60055f9054906101000a900473ffffffffffffffffffffffffffffffffffffffff1673ffffffffffffffffffffffffffffffffffffffff163373ffffffffffffffffffffffffffffffffffffffff1614610a78576040517f08c379a0000000000000000000000000000000000000000000000000000000008152600401610a6f90611228565b60405180910390fd5b805f808473ffffffffffffffffffffffffffffffffffffffff1673ffffffffffffffffffffffffffffffffffffffff1681526020019081526020015f20819055505050565b600560149054906101000a900460ff1681565b5f80610ada61094c565b90506305f5e1008184610aed9190611246565b610af791906112b4565b915050919050565b5f80fd5b5f73ffffffffffffffffffffffffffffffffffffffff82169050919050565b5f610b2c82610b03565b9050919050565b610b3c81610b22565b8114610b46575f80fd5b50565b5f81359050610b5781610b33565b92915050565b5f60208284031215610b7257610b71610aff565b5b5f610b7f84828501610b49565b91505092915050565b610b9181610b22565b82525050565b5f602082019050610baa5f830184610b88565b92915050565b5f819050919050565b610bc281610bb0565b82525050565b5f602082019050610bdb5f830184610bb9565b92915050565b5f819050919050565b610bf381610be1565b82525050565b5f602082019050610c0c5f830184610bea565b92915050565b610c1b81610bb0565b8114610c25575f80fd5b50565b5f81359050610c3681610c12565b92915050565b5f8060408385031215610c5257610c51610aff565b5b5f610c5f85828601610b49565b9250506020610c7085828601610c28565b9150509250929050565b5f8115159050919050565b610c8e81610c7a565b82525050565b5f602082019050610ca75f830184610c85565b92915050565b5f82825260208201905092915050565b7f546869732066756e6374696f6e2063616e206f6e6c792062652063616c6c65645f8201527f206279206f776e65722e00000000000000000000000000000000000000000000602082015250565b5f610d17602a83610cad565b9150610d2282610cbd565b604082019050919050565b5f6020820190508181035f830152610d4481610d0b565b9050919050565b7f4e487b71000000000000000000000000000000000000000000000000000000005f52601160045260245ffd5b5f610d8282610bb0565b9150610d8d83610bb0565b9250828201905080821115610da557610da4610d4b565b5b92915050565b7f57696e646f77206973206e6f7420636c6f7365642e00000000000000000000005f82015250565b5f610ddf601583610cad565b9150610dea82610dab565b602082019050919050565b5f6020820190508181035f830152610e0c81610dd3565b9050919050565b7f54617267657420697320726561636865642e00000000000000000000000000005f82015250565b5f610e47601283610cad565b9150610e5282610e13565b602082019050919050565b5f6020820190508181035f830152610e7481610e3b565b9050919050565b7f5468657265206973206e6f2066756e6420666f7220796f7500000000000000005f82015250565b5f610eaf601883610cad565b9150610eba82610e7b565b602082019050919050565b5f6020820190508181035f830152610edc81610ea3565b9050919050565b5f81905092915050565b50565b5f610efb5f83610ee3565b9150610f0682610eed565b5f82019050919050565b5f610f1a82610ef0565b9150819050919050565b7f7478206661696c65642e000000000000000000000000000000000000000000005f82015250565b5f610f58600a83610cad565b9150610f6382610f24565b602082019050919050565b5f6020820190508181035f830152610f8581610f4c565b9050919050565b7f546172676574206973206e6f7420726561636865642e000000000000000000005f82015250565b5f610fc0601683610cad565b9150610fcb82610f8c565b602082019050919050565b5f6020820190508181035f830152610fed81610fb4565b9050919050565b7f53656e64206d6f726520455448000000000000000000000000000000000000005f82015250565b5f611028600d83610cad565b915061103382610ff4565b602082019050919050565b5f6020820190508181035f8301526110558161101c565b9050919050565b7f57696e646f7720697320636c6f7365642e0000000000000000000000000000005f82015250565b5f611090601183610cad565b915061109b8261105c565b602082019050919050565b5f6020820190508181035f8301526110bd81611084565b9050919050565b5f69ffffffffffffffffffff82169050919050565b6110e2816110c4565b81146110ec575f80fd5b50565b5f815190506110fd816110d9565b92915050565b61110c81610be1565b8114611116575f80fd5b50565b5f8151905061112781611103565b92915050565b5f8151905061113b81610c12565b92915050565b5f805f805f60a0868803121561115a57611159610aff565b5b5f611167888289016110ef565b955050602061117888828901611119565b94505060406111898882890161112d565b935050606061119a8882890161112d565b92505060806111ab888289016110ef565b9150509295509295909350565b7f596f7520646f206e6f7420686176652061207065726d697373696f6e20746f205f8201527f63616c6c20746869732066756e6374696f6e2e00000000000000000000000000602082015250565b5f611212603383610cad565b915061121d826111b8565b604082019050919050565b5f6020820190508181035f83015261123f81611206565b9050919050565b5f61125082610bb0565b915061125b83610bb0565b925082820261126981610bb0565b915082820484148315176112805761127f610d4b565b5b5092915050565b7f4e487b71000000000000000000000000000000000000000000000000000000005f52601260045260245ffd5b5f6112be82610bb0565b91506112c983610bb0565b9250826112d9576112d8611287565b5b82820490509291505056fea26469706673582212208bfd8dad6a234f0e410c634025c416c338f86db13c93620c7024e22f1f2809ef64736f6c63430008140033",
					"opcodes": "PUSH1 0x80 PUSH1 0x40 MSTORE PUSH0 PUSH1 0x5 PUSH1 0x14 PUSH2 0x100 EXP DUP2 SLOAD DUP2 PUSH1 0xFF MUL NOT AND SWAP1 DUP4 ISZERO ISZERO MUL OR SWAP1 SSTORE POP CALLVALUE DUP1 ISZERO PUSH3 0x2A JUMPI PUSH0 DUP1 REVERT JUMPDEST POP PUSH1 0x40 MLOAD PUSH3 0x148D CODESIZE SUB DUP1 PUSH3 0x148D DUP4 CODECOPY DUP2 DUP2 ADD PUSH1 0x40 MSTORE DUP2 ADD SWAP1 PUSH3 0x50 SWAP2 SWAP1 PUSH3 0x135 JUMP JUMPDEST PUSH20 0x694AA1769357215DE4FAC081BF1F309ADC325306 PUSH1 0x1 PUSH0 PUSH2 0x100 EXP DUP2 SLOAD DUP2 PUSH20 0xFFFFFFFFFFFFFFFFFFFFFFFFFFFFFFFFFFFFFFFF MUL NOT AND SWAP1 DUP4 PUSH20 0xFFFFFFFFFFFFFFFFFFFFFFFFFFFFFFFFFFFFFFFF AND MUL OR SWAP1 SSTORE POP CALLER PUSH1 0x2 PUSH0 PUSH2 0x100 EXP DUP2 SLOAD DUP2 PUSH20 0xFFFFFFFFFFFFFFFFFFFFFFFFFFFFFFFFFFFFFFFF MUL NOT AND SWAP1 DUP4 PUSH20 0xFFFFFFFFFFFFFFFFFFFFFFFFFFFFFFFFFFFFFFFF AND MUL OR SWAP1 SSTORE POP TIMESTAMP PUSH1 0x3 DUP2 SWAP1 SSTORE POP DUP1 PUSH1 0x4 DUP2 SWAP1 SSTORE POP POP PUSH3 0x165 JUMP JUMPDEST PUSH0 DUP1 REVERT JUMPDEST PUSH0 DUP2 SWAP1 POP SWAP2 SWAP1 POP JUMP JUMPDEST PUSH3 0x111 DUP2 PUSH3 0xFD JUMP JUMPDEST DUP2 EQ PUSH3 0x11C JUMPI PUSH0 DUP1 REVERT JUMPDEST POP JUMP JUMPDEST PUSH0 DUP2 MLOAD SWAP1 POP PUSH3 0x12F DUP2 PUSH3 0x106 JUMP JUMPDEST SWAP3 SWAP2 POP POP JUMP JUMPDEST PUSH0 PUSH1 0x20 DUP3 DUP5 SUB SLT ISZERO PUSH3 0x14D JUMPI PUSH3 0x14C PUSH3 0xF9 JUMP JUMPDEST JUMPDEST PUSH0 PUSH3 0x15C DUP5 DUP3 DUP6 ADD PUSH3 0x11F JUMP JUMPDEST SWAP2 POP POP SWAP3 SWAP2 POP POP JUMP JUMPDEST PUSH2 0x131A DUP1 PUSH3 0x173 PUSH0 CODECOPY PUSH0 RETURN INVALID PUSH1 0x80 PUSH1 0x40 MSTORE PUSH1 0x4 CALLDATASIZE LT PUSH2 0x90 JUMPI PUSH0 CALLDATALOAD PUSH1 0xE0 SHR DUP1 PUSH4 0x9F883A05 GT PUSH2 0x58 JUMPI DUP1 PUSH4 0x9F883A05 EQ PUSH2 0x13A JUMPI DUP1 PUSH4 0xB60D4288 EQ PUSH2 0x176 JUMPI DUP1 PUSH4 0xBEA4DFB5 EQ PUSH2 0x180 JUMPI DUP1 PUSH4 0xD39CF006 EQ PUSH2 0x1AA JUMPI DUP1 PUSH4 0xDA4658E0 EQ PUSH2 0x1D2 JUMPI PUSH2 0x90 JUMP JUMPDEST DUP1 PUSH4 0x13FFFF01 EQ PUSH2 0x94 JUMPI DUP1 PUSH4 0x590E1AE3 EQ PUSH2 0xBC JUMPI DUP1 PUSH4 0x6BE6C88F EQ PUSH2 0xD2 JUMPI DUP1 PUSH4 0x8DA5CB5B EQ PUSH2 0xFA JUMPI DUP1 PUSH4 0x8EDD6EB6 EQ PUSH2 0x124 JUMPI JUMPDEST PUSH0 DUP1 REVERT JUMPDEST CALLVALUE DUP1 ISZERO PUSH2 0x9F JUMPI PUSH0 DUP1 REVERT JUMPDEST POP PUSH2 0xBA PUSH1 0x4 DUP1 CALLDATASIZE SUB DUP2 ADD SWAP1 PUSH2 0xB5 SWAP2 SWAP1 PUSH2 0xB5D JUMP JUMPDEST PUSH2 0x1FC JUMP JUMPDEST STOP JUMPDEST CALLVALUE DUP1 ISZERO PUSH2 0xC7 JUMPI PUSH0 DUP1 REVERT JUMPDEST POP PUSH2 0xD0 PUSH2 0x2CE JUMP JUMPDEST STOP JUMPDEST CALLVALUE DUP1 ISZERO PUSH2 0xDD JUMPI PUSH0 DUP1 REVERT JUMPDEST POP PUSH2 0xF8 PUSH1 0x4 DUP1 CALLDATASIZE SUB DUP2 ADD SWAP1 PUSH2 0xF3 SWAP2 SWAP1 PUSH2 0xB5D JUMP JUMPDEST PUSH2 0x51B JUMP JUMPDEST STOP JUMPDEST CALLVALUE DUP1 ISZERO PUSH2 0x105 JUMPI PUSH0 DUP1 REVERT JUMPDEST POP PUSH2 0x10E PUSH2 0x5ED JUMP JUMPDEST PUSH1 0x40 MLOAD PUSH2 0x11B SWAP2 SWAP1 PUSH2 0xB97 JUMP JUMPDEST PUSH1 0x40 MLOAD DUP1 SWAP2 SUB SWAP1 RETURN JUMPDEST CALLVALUE DUP1 ISZERO PUSH2 0x12F JUMPI PUSH0 DUP1 REVERT JUMPDEST POP PUSH2 0x138 PUSH2 0x612 JUMP JUMPDEST STOP JUMPDEST CALLVALUE DUP1 ISZERO PUSH2 0x145 JUMPI PUSH0 DUP1 REVERT JUMPDEST POP PUSH2 0x160 PUSH1 0x4 DUP1 CALLDATASIZE SUB DUP2 ADD SWAP1 PUSH2 0x15B SWAP2 SWAP1 PUSH2 0xB5D JUMP JUMPDEST PUSH2 0x850 JUMP JUMPDEST PUSH1 0x40 MLOAD PUSH2 0x16D SWAP2 SWAP1 PUSH2 0xBC8 JUMP JUMPDEST PUSH1 0x40 MLOAD DUP1 SWAP2 SUB SWAP1 RETURN JUMPDEST PUSH2 0x17E PUSH2 0x864 JUMP JUMPDEST STOP JUMPDEST CALLVALUE DUP1 ISZERO PUSH2 0x18B JUMPI PUSH0 DUP1 REVERT JUMPDEST POP PUSH2 0x194 PUSH2 0x94C JUMP JUMPDEST PUSH1 0x40 MLOAD PUSH2 0x1A1 SWAP2 SWAP1 PUSH2 0xBF9 JUMP JUMPDEST PUSH1 0x40 MLOAD DUP1 SWAP2 SUB SWAP1 RETURN JUMPDEST CALLVALUE DUP1 ISZERO PUSH2 0x1B5 JUMPI PUSH0 DUP1 REVERT JUMPDEST POP PUSH2 0x1D0 PUSH1 0x4 DUP1 CALLDATASIZE SUB DUP2 ADD SWAP1 PUSH2 0x1CB SWAP2 SWAP1 PUSH2 0xC3C JUMP JUMPDEST PUSH2 0x9E9 JUMP JUMPDEST STOP JUMPDEST CALLVALUE DUP1 ISZERO PUSH2 0x1DD JUMPI PUSH0 DUP1 REVERT JUMPDEST POP PUSH2 0x1E6 PUSH2 0xABD JUMP JUMPDEST PUSH1 0x40 MLOAD PUSH2 0x1F3 SWAP2 SWAP1 PUSH2 0xC94 JUMP JUMPDEST PUSH1 0x40 MLOAD DUP1 SWAP2 SUB SWAP1 RETURN JUMPDEST PUSH1 0x2 PUSH0 SWAP1 SLOAD SWAP1 PUSH2 0x100 EXP SWAP1 DIV PUSH20 0xFFFFFFFFFFFFFFFFFFFFFFFFFFFFFFFFFFFFFFFF AND PUSH20 0xFFFFFFFFFFFFFFFFFFFFFFFFFFFFFFFFFFFFFFFF AND CALLER PUSH20 0xFFFFFFFFFFFFFFFFFFFFFFFFFFFFFFFFFFFFFFFF AND EQ PUSH2 0x28B JUMPI PUSH1 0x40 MLOAD PUSH32 0x8C379A000000000000000000000000000000000000000000000000000000000 DUP2 MSTORE PUSH1 0x4 ADD PUSH2 0x282 SWAP1 PUSH2 0xD2D JUMP JUMPDEST PUSH1 0x40 MLOAD DUP1 SWAP2 SUB SWAP1 REVERT JUMPDEST DUP1 PUSH1 0x5 PUSH0 PUSH2 0x100 EXP DUP2 SLOAD DUP2 PUSH20 0xFFFFFFFFFFFFFFFFFFFFFFFFFFFFFFFFFFFFFFFF MUL NOT AND SWAP1 DUP4 PUSH20 0xFFFFFFFFFFFFFFFFFFFFFFFFFFFFFFFFFFFFFFFF AND MUL OR SWAP1 SSTORE POP POP JUMP JUMPDEST PUSH1 0x4 SLOAD PUSH1 0x3 SLOAD PUSH2 0x2DE SWAP2 SWAP1 PUSH2 0xD78 JUMP JUMPDEST TIMESTAMP LT ISZERO PUSH2 0x320 JUMPI PUSH1 0x40 MLOAD PUSH32 0x8C379A000000000000000000000000000000000000000000000000000000000 DUP2 MSTORE PUSH1 0x4 ADD PUSH2 0x317 SWAP1 PUSH2 0xDF5 JUMP JUMPDEST PUSH1 0x40 MLOAD DUP1 SWAP2 SUB SWAP1 REVERT JUMPDEST PUSH9 0x3635C9ADC5DEA00000 PUSH2 0x333 SELFBALANCE PUSH2 0xAD0 JUMP JUMPDEST LT PUSH2 0x373 JUMPI PUSH1 0x40 MLOAD PUSH32 0x8C379A000000000000000000000000000000000000000000000000000000000 DUP2 MSTORE PUSH1 0x4 ADD PUSH2 0x36A SWAP1 PUSH2 0xE5D JUMP JUMPDEST PUSH1 0x40 MLOAD DUP1 SWAP2 SUB SWAP1 REVERT JUMPDEST PUSH0 DUP1 PUSH0 CALLER PUSH20 0xFFFFFFFFFFFFFFFFFFFFFFFFFFFFFFFFFFFFFFFF AND PUSH20 0xFFFFFFFFFFFFFFFFFFFFFFFFFFFFFFFFFFFFFFFF AND DUP2 MSTORE PUSH1 0x20 ADD SWAP1 DUP2 MSTORE PUSH1 0x20 ADD PUSH0 KECCAK256 SLOAD SUB PUSH2 0x3F1 JUMPI PUSH1 0x40 MLOAD PUSH32 0x8C379A000000000000000000000000000000000000000000000000000000000 DUP2 MSTORE PUSH1 0x4 ADD PUSH2 0x3E8 SWAP1 PUSH2 0xEC5 JUMP JUMPDEST PUSH1 0x40 MLOAD DUP1 SWAP2 SUB SWAP1 REVERT JUMPDEST PUSH0 CALLER PUSH20 0xFFFFFFFFFFFFFFFFFFFFFFFFFFFFFFFFFFFFFFFF AND PUSH0 DUP1 CALLER PUSH20 0xFFFFFFFFFFFFFFFFFFFFFFFFFFFFFFFFFFFFFFFF AND PUSH20 0xFFFFFFFFFFFFFFFFFFFFFFFFFFFFFFFFFFFFFFFF AND DUP2 MSTORE PUSH1 0x20 ADD SWAP1 DUP2 MSTORE PUSH1 0x20 ADD PUSH0 KECCAK256 SLOAD PUSH1 0x40 MLOAD PUSH2 0x452 SWAP1 PUSH2 0xF10 JUMP JUMPDEST PUSH0 PUSH1 0x40 MLOAD DUP1 DUP4 SUB DUP2 DUP6 DUP8 GAS CALL SWAP3 POP POP POP RETURNDATASIZE DUP1 PUSH0 DUP2 EQ PUSH2 0x48C JUMPI PUSH1 0x40 MLOAD SWAP2 POP PUSH1 0x1F NOT PUSH1 0x3F RETURNDATASIZE ADD AND DUP3 ADD PUSH1 0x40 MSTORE RETURNDATASIZE DUP3 MSTORE RETURNDATASIZE PUSH0 PUSH1 0x20 DUP5 ADD RETURNDATACOPY PUSH2 0x491 JUMP JUMPDEST PUSH1 0x60 SWAP2 POP JUMPDEST POP POP DUP1 SWAP2 POP POP DUP1 PUSH2 0x4D7 JUMPI PUSH1 0x40 MLOAD PUSH32 0x8C379A000000000000000000000000000000000000000000000000000000000 DUP2 MSTORE PUSH1 0x4 ADD PUSH2 0x4CE SWAP1 PUSH2 0xF6E JUMP JUMPDEST PUSH1 0x40 MLOAD DUP1 SWAP2 SUB SWAP1 REVERT JUMPDEST PUSH0 DUP1 PUSH0 CALLER PUSH20 0xFFFFFFFFFFFFFFFFFFFFFFFFFFFFFFFFFFFFFFFF AND PUSH20 0xFFFFFFFFFFFFFFFFFFFFFFFFFFFFFFFFFFFFFFFF AND DUP2 MSTORE PUSH1 0x20 ADD SWAP1 DUP2 MSTORE PUSH1 0x20 ADD PUSH0 KECCAK256 DUP2 SWAP1 SSTORE POP POP JUMP JUMPDEST PUSH1 0x2 PUSH0 SWAP1 SLOAD SWAP1 PUSH2 0x100 EXP SWAP1 DIV PUSH20 0xFFFFFFFFFFFFFFFFFFFFFFFFFFFFFFFFFFFFFFFF AND PUSH20 0xFFFFFFFFFFFFFFFFFFFFFFFFFFFFFFFFFFFFFFFF AND CALLER PUSH20 0xFFFFFFFFFFFFFFFFFFFFFFFFFFFFFFFFFFFFFFFF AND EQ PUSH2 0x5AA JUMPI PUSH1 0x40 MLOAD PUSH32 0x8C379A000000000000000000000000000000000000000000000000000000000 DUP2 MSTORE PUSH1 0x4 ADD PUSH2 0x5A1 SWAP1 PUSH2 0xD2D JUMP JUMPDEST PUSH1 0x40 MLOAD DUP1 SWAP2 SUB SWAP1 REVERT JUMPDEST DUP1 PUSH1 0x2 PUSH0 PUSH2 0x100 EXP DUP2 SLOAD DUP2 PUSH20 0xFFFFFFFFFFFFFFFFFFFFFFFFFFFFFFFFFFFFFFFF MUL NOT AND SWAP1 DUP4 PUSH20 0xFFFFFFFFFFFFFFFFFFFFFFFFFFFFFFFFFFFFFFFF AND MUL OR SWAP1 SSTORE POP POP JUMP JUMPDEST PUSH1 0x2 PUSH0 SWAP1 SLOAD SWAP1 PUSH2 0x100 EXP SWAP1 DIV PUSH20 0xFFFFFFFFFFFFFFFFFFFFFFFFFFFFFFFFFFFFFFFF AND DUP2 JUMP JUMPDEST PUSH1 0x4 SLOAD PUSH1 0x3 SLOAD PUSH2 0x622 SWAP2 SWAP1 PUSH2 0xD78 JUMP JUMPDEST TIMESTAMP LT ISZERO PUSH2 0x664 JUMPI PUSH1 0x40 MLOAD PUSH32 0x8C379A000000000000000000000000000000000000000000000000000000000 DUP2 MSTORE PUSH1 0x4 ADD PUSH2 0x65B SWAP1 PUSH2 0xDF5 JUMP JUMPDEST PUSH1 0x40 MLOAD DUP1 SWAP2 SUB SWAP1 REVERT JUMPDEST PUSH1 0x2 PUSH0 SWAP1 SLOAD SWAP1 PUSH2 0x100 EXP SWAP1 DIV PUSH20 0xFFFFFFFFFFFFFFFFFFFFFFFFFFFFFFFFFFFFFFFF AND PUSH20 0xFFFFFFFFFFFFFFFFFFFFFFFFFFFFFFFFFFFFFFFF AND CALLER PUSH20 0xFFFFFFFFFFFFFFFFFFFFFFFFFFFFFFFFFFFFFFFF AND EQ PUSH2 0x6F3 JUMPI PUSH1 0x40 MLOAD PUSH32 0x8C379A000000000000000000000000000000000000000000000000000000000 DUP2 MSTORE PUSH1 0x4 ADD PUSH2 0x6EA SWAP1 PUSH2 0xD2D JUMP JUMPDEST PUSH1 0x40 MLOAD DUP1 SWAP2 SUB SWAP1 REVERT JUMPDEST PUSH9 0x3635C9ADC5DEA00000 PUSH2 0x706 SELFBALANCE PUSH2 0xAD0 JUMP JUMPDEST LT ISZERO PUSH2 0x747 JUMPI PUSH1 0x40 MLOAD PUSH32 0x8C379A000000000000000000000000000000000000000000000000000000000 DUP2 MSTORE PUSH1 0x4 ADD PUSH2 0x73E SWAP1 PUSH2 0xFD6 JUMP JUMPDEST PUSH1 0x40 MLOAD DUP1 SWAP2 SUB SWAP1 REVERT JUMPDEST PUSH0 CALLER PUSH20 0xFFFFFFFFFFFFFFFFFFFFFFFFFFFFFFFFFFFFFFFF AND SELFBALANCE PUSH1 0x40 MLOAD PUSH2 0x76C SWAP1 PUSH2 0xF10 JUMP JUMPDEST PUSH0 PUSH1 0x40 MLOAD DUP1 DUP4 SUB DUP2 DUP6 DUP8 GAS CALL SWAP3 POP POP POP RETURNDATASIZE DUP1 PUSH0 DUP2 EQ PUSH2 0x7A6 JUMPI PUSH1 0x40 MLOAD SWAP2 POP PUSH1 0x1F NOT PUSH1 0x3F RETURNDATASIZE ADD AND DUP3 ADD PUSH1 0x40 MSTORE RETURNDATASIZE DUP3 MSTORE RETURNDATASIZE PUSH0 PUSH1 0x20 DUP5 ADD RETURNDATACOPY PUSH2 0x7AB JUMP JUMPDEST PUSH1 0x60 SWAP2 POP JUMPDEST POP POP DUP1 SWAP2 POP POP DUP1 PUSH2 0x7F1 JUMPI PUSH1 0x40 MLOAD PUSH32 0x8C379A000000000000000000000000000000000000000000000000000000000 DUP2 MSTORE PUSH1 0x4 ADD PUSH2 0x7E8 SWAP1 PUSH2 0xF6E JUMP JUMPDEST PUSH1 0x40 MLOAD DUP1 SWAP2 SUB SWAP1 REVERT JUMPDEST PUSH0 DUP1 PUSH0 CALLER PUSH20 0xFFFFFFFFFFFFFFFFFFFFFFFFFFFFFFFFFFFFFFFF AND PUSH20 0xFFFFFFFFFFFFFFFFFFFFFFFFFFFFFFFFFFFFFFFF AND DUP2 MSTORE PUSH1 0x20 ADD SWAP1 DUP2 MSTORE PUSH1 0x20 ADD PUSH0 KECCAK256 DUP2 SWAP1 SSTORE POP PUSH1 0x1 PUSH1 0x5 PUSH1 0x14 PUSH2 0x100 EXP DUP2 SLOAD DUP2 PUSH1 0xFF MUL NOT AND SWAP1 DUP4 ISZERO ISZERO MUL OR SWAP1 SSTORE POP POP JUMP JUMPDEST PUSH0 PUSH1 0x20 MSTORE DUP1 PUSH0 MSTORE PUSH1 0x40 PUSH0 KECCAK256 PUSH0 SWAP2 POP SWAP1 POP SLOAD DUP2 JUMP JUMPDEST PUSH9 0x56BC75E2D63100000 PUSH2 0x877 CALLVALUE PUSH2 0xAD0 JUMP JUMPDEST LT ISZERO PUSH2 0x8B8 JUMPI PUSH1 0x40 MLOAD PUSH32 0x8C379A000000000000000000000000000000000000000000000000000000000 DUP2 MSTORE PUSH1 0x4 ADD PUSH2 0x8AF SWAP1 PUSH2 0x103E JUMP JUMPDEST PUSH1 0x40 MLOAD DUP1 SWAP2 SUB SWAP1 REVERT JUMPDEST PUSH1 0x4 SLOAD PUSH1 0x3 SLOAD PUSH2 0x8C8 SWAP2 SWAP1 PUSH2 0xD78 JUMP JUMPDEST TIMESTAMP LT PUSH2 0x909 JUMPI PUSH1 0x40 MLOAD PUSH32 0x8C379A000000000000000000000000000000000000000000000000000000000 DUP2 MSTORE PUSH1 0x4 ADD PUSH2 0x900 SWAP1 PUSH2 0x10A6 JUMP JUMPDEST PUSH1 0x40 MLOAD DUP1 SWAP2 SUB SWAP1 REVERT JUMPDEST CALLVALUE PUSH0 DUP1 CALLER PUSH20 0xFFFFFFFFFFFFFFFFFFFFFFFFFFFFFFFFFFFFFFFF AND PUSH20 0xFFFFFFFFFFFFFFFFFFFFFFFFFFFFFFFFFFFFFFFF AND DUP2 MSTORE PUSH1 0x20 ADD SWAP1 DUP2 MSTORE PUSH1 0x20 ADD PUSH0 KECCAK256 DUP2 SWAP1 SSTORE POP JUMP JUMPDEST PUSH0 DUP1 PUSH1 0x1 PUSH0 SWAP1 SLOAD SWAP1 PUSH2 0x100 EXP SWAP1 DIV PUSH20 0xFFFFFFFFFFFFFFFFFFFFFFFFFFFFFFFFFFFFFFFF AND PUSH20 0xFFFFFFFFFFFFFFFFFFFFFFFFFFFFFFFFFFFFFFFF AND PUSH4 0xFEAF968C PUSH1 0x40 MLOAD DUP2 PUSH4 0xFFFFFFFF AND PUSH1 0xE0 SHL DUP2 MSTORE PUSH1 0x4 ADD PUSH1 0xA0 PUSH1 0x40 MLOAD DUP1 DUP4 SUB DUP2 DUP7 GAS STATICCALL ISZERO DUP1 ISZERO PUSH2 0x9B8 JUMPI RETURNDATASIZE PUSH0 DUP1 RETURNDATACOPY RETURNDATASIZE PUSH0 REVERT JUMPDEST POP POP POP POP PUSH1 0x40 MLOAD RETURNDATASIZE PUSH1 0x1F NOT PUSH1 0x1F DUP3 ADD AND DUP3 ADD DUP1 PUSH1 0x40 MSTORE POP DUP2 ADD SWAP1 PUSH2 0x9DC SWAP2 SWAP1 PUSH2 0x1141 JUMP JUMPDEST POP POP POP SWAP2 POP POP DUP1 SWAP2 POP POP SWAP1 JUMP JUMPDEST PUSH1 0x5 PUSH0 SWAP1 SLOAD SWAP1 PUSH2 0x100 EXP SWAP1 DIV PUSH20 0xFFFFFFFFFFFFFFFFFFFFFFFFFFFFFFFFFFFFFFFF AND PUSH20 0xFFFFFFFFFFFFFFFFFFFFFFFFFFFFFFFFFFFFFFFF AND CALLER PUSH20 0xFFFFFFFFFFFFFFFFFFFFFFFFFFFFFFFFFFFFFFFF AND EQ PUSH2 0xA78 JUMPI PUSH1 0x40 MLOAD PUSH32 0x8C379A000000000000000000000000000000000000000000000000000000000 DUP2 MSTORE PUSH1 0x4 ADD PUSH2 0xA6F SWAP1 PUSH2 0x1228 JUMP JUMPDEST PUSH1 0x40 MLOAD DUP1 SWAP2 SUB SWAP1 REVERT JUMPDEST DUP1 PUSH0 DUP1 DUP5 PUSH20 0xFFFFFFFFFFFFFFFFFFFFFFFFFFFFFFFFFFFFFFFF AND PUSH20 0xFFFFFFFFFFFFFFFFFFFFFFFFFFFFFFFFFFFFFFFF AND DUP2 MSTORE PUSH1 0x20 ADD SWAP1 DUP2 MSTORE PUSH1 0x20 ADD PUSH0 KECCAK256 DUP2 SWAP1 SSTORE POP POP POP JUMP JUMPDEST PUSH1 0x5 PUSH1 0x14 SWAP1 SLOAD SWAP1 PUSH2 0x100 EXP SWAP1 DIV PUSH1 0xFF AND DUP2 JUMP JUMPDEST PUSH0 DUP1 PUSH2 0xADA PUSH2 0x94C JUMP JUMPDEST SWAP1 POP PUSH4 0x5F5E100 DUP2 DUP5 PUSH2 0xAED SWAP2 SWAP1 PUSH2 0x1246 JUMP JUMPDEST PUSH2 0xAF7 SWAP2 SWAP1 PUSH2 0x12B4 JUMP JUMPDEST SWAP2 POP POP SWAP2 SWAP1 POP JUMP JUMPDEST PUSH0 DUP1 REVERT JUMPDEST PUSH0 PUSH20 0xFFFFFFFFFFFFFFFFFFFFFFFFFFFFFFFFFFFFFFFF DUP3 AND SWAP1 POP SWAP2 SWAP1 POP JUMP JUMPDEST PUSH0 PUSH2 0xB2C DUP3 PUSH2 0xB03 JUMP JUMPDEST SWAP1 POP SWAP2 SWAP1 POP JUMP JUMPDEST PUSH2 0xB3C DUP2 PUSH2 0xB22 JUMP JUMPDEST DUP2 EQ PUSH2 0xB46 JUMPI PUSH0 DUP1 REVERT JUMPDEST POP JUMP JUMPDEST PUSH0 DUP2 CALLDATALOAD SWAP1 POP PUSH2 0xB57 DUP2 PUSH2 0xB33 JUMP JUMPDEST SWAP3 SWAP2 POP POP JUMP JUMPDEST PUSH0 PUSH1 0x20 DUP3 DUP5 SUB SLT ISZERO PUSH2 0xB72 JUMPI PUSH2 0xB71 PUSH2 0xAFF JUMP JUMPDEST JUMPDEST PUSH0 PUSH2 0xB7F DUP5 DUP3 DUP6 ADD PUSH2 0xB49 JUMP JUMPDEST SWAP2 POP POP SWAP3 SWAP2 POP POP JUMP JUMPDEST PUSH2 0xB91 DUP2 PUSH2 0xB22 JUMP JUMPDEST DUP3 MSTORE POP POP JUMP JUMPDEST PUSH0 PUSH1 0x20 DUP3 ADD SWAP1 POP PUSH2 0xBAA PUSH0 DUP4 ADD DUP5 PUSH2 0xB88 JUMP JUMPDEST SWAP3 SWAP2 POP POP JUMP JUMPDEST PUSH0 DUP2 SWAP1 POP SWAP2 SWAP1 POP JUMP JUMPDEST PUSH2 0xBC2 DUP2 PUSH2 0xBB0 JUMP JUMPDEST DUP3 MSTORE POP POP JUMP JUMPDEST PUSH0 PUSH1 0x20 DUP3 ADD SWAP1 POP PUSH2 0xBDB PUSH0 DUP4 ADD DUP5 PUSH2 0xBB9 JUMP JUMPDEST SWAP3 SWAP2 POP POP JUMP JUMPDEST PUSH0 DUP2 SWAP1 POP SWAP2 SWAP1 POP JUMP JUMPDEST PUSH2 0xBF3 DUP2 PUSH2 0xBE1 JUMP JUMPDEST DUP3 MSTORE POP POP JUMP JUMPDEST PUSH0 PUSH1 0x20 DUP3 ADD SWAP1 POP PUSH2 0xC0C PUSH0 DUP4 ADD DUP5 PUSH2 0xBEA JUMP JUMPDEST SWAP3 SWAP2 POP POP JUMP JUMPDEST PUSH2 0xC1B DUP2 PUSH2 0xBB0 JUMP JUMPDEST DUP2 EQ PUSH2 0xC25 JUMPI PUSH0 DUP1 REVERT JUMPDEST POP JUMP JUMPDEST PUSH0 DUP2 CALLDATALOAD SWAP1 POP PUSH2 0xC36 DUP2 PUSH2 0xC12 JUMP JUMPDEST SWAP3 SWAP2 POP POP JUMP JUMPDEST PUSH0 DUP1 PUSH1 0x40 DUP4 DUP6 SUB SLT ISZERO PUSH2 0xC52 JUMPI PUSH2 0xC51 PUSH2 0xAFF JUMP JUMPDEST JUMPDEST PUSH0 PUSH2 0xC5F DUP6 DUP3 DUP7 ADD PUSH2 0xB49 JUMP JUMPDEST SWAP3 POP POP PUSH1 0x20 PUSH2 0xC70 DUP6 DUP3 DUP7 ADD PUSH2 0xC28 JUMP JUMPDEST SWAP2 POP POP SWAP3 POP SWAP3 SWAP1 POP JUMP JUMPDEST PUSH0 DUP2 ISZERO ISZERO SWAP1 POP SWAP2 SWAP1 POP JUMP JUMPDEST PUSH2 0xC8E DUP2 PUSH2 0xC7A JUMP JUMPDEST DUP3 MSTORE POP POP JUMP JUMPDEST PUSH0 PUSH1 0x20 DUP3 ADD SWAP1 POP PUSH2 0xCA7 PUSH0 DUP4 ADD DUP5 PUSH2 0xC85 JUMP JUMPDEST SWAP3 SWAP2 POP POP JUMP JUMPDEST PUSH0 DUP3 DUP3 MSTORE PUSH1 0x20 DUP3 ADD SWAP1 POP SWAP3 SWAP2 POP POP JUMP JUMPDEST PUSH32 0x546869732066756E6374696F6E2063616E206F6E6C792062652063616C6C6564 PUSH0 DUP3 ADD MSTORE PUSH32 0x206279206F776E65722E00000000000000000000000000000000000000000000 PUSH1 0x20 DUP3 ADD MSTORE POP JUMP JUMPDEST PUSH0 PUSH2 0xD17 PUSH1 0x2A DUP4 PUSH2 0xCAD JUMP JUMPDEST SWAP2 POP PUSH2 0xD22 DUP3 PUSH2 0xCBD JUMP JUMPDEST PUSH1 0x40 DUP3 ADD SWAP1 POP SWAP2 SWAP1 POP JUMP JUMPDEST PUSH0 PUSH1 0x20 DUP3 ADD SWAP1 POP DUP2 DUP2 SUB PUSH0 DUP4 ADD MSTORE PUSH2 0xD44 DUP2 PUSH2 0xD0B JUMP JUMPDEST SWAP1 POP SWAP2 SWAP1 POP JUMP JUMPDEST PUSH32 0x4E487B7100000000000000000000000000000000000000000000000000000000 PUSH0 MSTORE PUSH1 0x11 PUSH1 0x4 MSTORE PUSH1 0x24 PUSH0 REVERT JUMPDEST PUSH0 PUSH2 0xD82 DUP3 PUSH2 0xBB0 JUMP JUMPDEST SWAP2 POP PUSH2 0xD8D DUP4 PUSH2 0xBB0 JUMP JUMPDEST SWAP3 POP DUP3 DUP3 ADD SWAP1 POP DUP1 DUP3 GT ISZERO PUSH2 0xDA5 JUMPI PUSH2 0xDA4 PUSH2 0xD4B JUMP JUMPDEST JUMPDEST SWAP3 SWAP2 POP POP JUMP JUMPDEST PUSH32 0x57696E646F77206973206E6F7420636C6F7365642E0000000000000000000000 PUSH0 DUP3 ADD MSTORE POP JUMP JUMPDEST PUSH0 PUSH2 0xDDF PUSH1 0x15 DUP4 PUSH2 0xCAD JUMP JUMPDEST SWAP2 POP PUSH2 0xDEA DUP3 PUSH2 0xDAB JUMP JUMPDEST PUSH1 0x20 DUP3 ADD SWAP1 POP SWAP2 SWAP1 POP JUMP JUMPDEST PUSH0 PUSH1 0x20 DUP3 ADD SWAP1 POP DUP2 DUP2 SUB PUSH0 DUP4 ADD MSTORE PUSH2 0xE0C DUP2 PUSH2 0xDD3 JUMP JUMPDEST SWAP1 POP SWAP2 SWAP1 POP JUMP JUMPDEST PUSH32 0x54617267657420697320726561636865642E0000000000000000000000000000 PUSH0 DUP3 ADD MSTORE POP JUMP JUMPDEST PUSH0 PUSH2 0xE47 PUSH1 0x12 DUP4 PUSH2 0xCAD JUMP JUMPDEST SWAP2 POP PUSH2 0xE52 DUP3 PUSH2 0xE13 JUMP JUMPDEST PUSH1 0x20 DUP3 ADD SWAP1 POP SWAP2 SWAP1 POP JUMP JUMPDEST PUSH0 PUSH1 0x20 DUP3 ADD SWAP1 POP DUP2 DUP2 SUB PUSH0 DUP4 ADD MSTORE PUSH2 0xE74 DUP2 PUSH2 0xE3B JUMP JUMPDEST SWAP1 POP SWAP2 SWAP1 POP JUMP JUMPDEST PUSH32 0x5468657265206973206E6F2066756E6420666F7220796F750000000000000000 PUSH0 DUP3 ADD MSTORE POP JUMP JUMPDEST PUSH0 PUSH2 0xEAF PUSH1 0x18 DUP4 PUSH2 0xCAD JUMP JUMPDEST SWAP2 POP PUSH2 0xEBA DUP3 PUSH2 0xE7B JUMP JUMPDEST PUSH1 0x20 DUP3 ADD SWAP1 POP SWAP2 SWAP1 POP JUMP JUMPDEST PUSH0 PUSH1 0x20 DUP3 ADD SWAP1 POP DUP2 DUP2 SUB PUSH0 DUP4 ADD MSTORE PUSH2 0xEDC DUP2 PUSH2 0xEA3 JUMP JUMPDEST SWAP1 POP SWAP2 SWAP1 POP JUMP JUMPDEST PUSH0 DUP2 SWAP1 POP SWAP3 SWAP2 POP POP JUMP JUMPDEST POP JUMP JUMPDEST PUSH0 PUSH2 0xEFB PUSH0 DUP4 PUSH2 0xEE3 JUMP JUMPDEST SWAP2 POP PUSH2 0xF06 DUP3 PUSH2 0xEED JUMP JUMPDEST PUSH0 DUP3 ADD SWAP1 POP SWAP2 SWAP1 POP JUMP JUMPDEST PUSH0 PUSH2 0xF1A DUP3 PUSH2 0xEF0 JUMP JUMPDEST SWAP2 POP DUP2 SWAP1 POP SWAP2 SWAP1 POP JUMP JUMPDEST PUSH32 0x7478206661696C65642E00000000000000000000000000000000000000000000 PUSH0 DUP3 ADD MSTORE POP JUMP JUMPDEST PUSH0 PUSH2 0xF58 PUSH1 0xA DUP4 PUSH2 0xCAD JUMP JUMPDEST SWAP2 POP PUSH2 0xF63 DUP3 PUSH2 0xF24 JUMP JUMPDEST PUSH1 0x20 DUP3 ADD SWAP1 POP SWAP2 SWAP1 POP JUMP JUMPDEST PUSH0 PUSH1 0x20 DUP3 ADD SWAP1 POP DUP2 DUP2 SUB PUSH0 DUP4 ADD MSTORE PUSH2 0xF85 DUP2 PUSH2 0xF4C JUMP JUMPDEST SWAP1 POP SWAP2 SWAP1 POP JUMP JUMPDEST PUSH32 0x546172676574206973206E6F7420726561636865642E00000000000000000000 PUSH0 DUP3 ADD MSTORE POP JUMP JUMPDEST PUSH0 PUSH2 0xFC0 PUSH1 0x16 DUP4 PUSH2 0xCAD JUMP JUMPDEST SWAP2 POP PUSH2 0xFCB DUP3 PUSH2 0xF8C JUMP JUMPDEST PUSH1 0x20 DUP3 ADD SWAP1 POP SWAP2 SWAP1 POP JUMP JUMPDEST PUSH0 PUSH1 0x20 DUP3 ADD SWAP1 POP DUP2 DUP2 SUB PUSH0 DUP4 ADD MSTORE PUSH2 0xFED DUP2 PUSH2 0xFB4 JUMP JUMPDEST SWAP1 POP SWAP2 SWAP1 POP JUMP JUMPDEST PUSH32 0x53656E64206D6F72652045544800000000000000000000000000000000000000 PUSH0 DUP3 ADD MSTORE POP JUMP JUMPDEST PUSH0 PUSH2 0x1028 PUSH1 0xD DUP4 PUSH2 0xCAD JUMP JUMPDEST SWAP2 POP PUSH2 0x1033 DUP3 PUSH2 0xFF4 JUMP JUMPDEST PUSH1 0x20 DUP3 ADD SWAP1 POP SWAP2 SWAP1 POP JUMP JUMPDEST PUSH0 PUSH1 0x20 DUP3 ADD SWAP1 POP DUP2 DUP2 SUB PUSH0 DUP4 ADD MSTORE PUSH2 0x1055 DUP2 PUSH2 0x101C JUMP JUMPDEST SWAP1 POP SWAP2 SWAP1 POP JUMP JUMPDEST PUSH32 0x57696E646F7720697320636C6F7365642E000000000000000000000000000000 PUSH0 DUP3 ADD MSTORE POP JUMP JUMPDEST PUSH0 PUSH2 0x1090 PUSH1 0x11 DUP4 PUSH2 0xCAD JUMP JUMPDEST SWAP2 POP PUSH2 0x109B DUP3 PUSH2 0x105C JUMP JUMPDEST PUSH1 0x20 DUP3 ADD SWAP1 POP SWAP2 SWAP1 POP JUMP JUMPDEST PUSH0 PUSH1 0x20 DUP3 ADD SWAP1 POP DUP2 DUP2 SUB PUSH0 DUP4 ADD MSTORE PUSH2 0x10BD DUP2 PUSH2 0x1084 JUMP JUMPDEST SWAP1 POP SWAP2 SWAP1 POP JUMP JUMPDEST PUSH0 PUSH10 0xFFFFFFFFFFFFFFFFFFFF DUP3 AND SWAP1 POP SWAP2 SWAP1 POP JUMP JUMPDEST PUSH2 0x10E2 DUP2 PUSH2 0x10C4 JUMP JUMPDEST DUP2 EQ PUSH2 0x10EC JUMPI PUSH0 DUP1 REVERT JUMPDEST POP JUMP JUMPDEST PUSH0 DUP2 MLOAD SWAP1 POP PUSH2 0x10FD DUP2 PUSH2 0x10D9 JUMP JUMPDEST SWAP3 SWAP2 POP POP JUMP JUMPDEST PUSH2 0x110C DUP2 PUSH2 0xBE1 JUMP JUMPDEST DUP2 EQ PUSH2 0x1116 JUMPI PUSH0 DUP1 REVERT JUMPDEST POP JUMP JUMPDEST PUSH0 DUP2 MLOAD SWAP1 POP PUSH2 0x1127 DUP2 PUSH2 0x1103 JUMP JUMPDEST SWAP3 SWAP2 POP POP JUMP JUMPDEST PUSH0 DUP2 MLOAD SWAP1 POP PUSH2 0x113B DUP2 PUSH2 0xC12 JUMP JUMPDEST SWAP3 SWAP2 POP POP JUMP JUMPDEST PUSH0 DUP1 PUSH0 DUP1 PUSH0 PUSH1 0xA0 DUP7 DUP9 SUB SLT ISZERO PUSH2 0x115A JUMPI PUSH2 0x1159 PUSH2 0xAFF JUMP JUMPDEST JUMPDEST PUSH0 PUSH2 0x1167 DUP9 DUP3 DUP10 ADD PUSH2 0x10EF JUMP JUMPDEST SWAP6 POP POP PUSH1 0x20 PUSH2 0x1178 DUP9 DUP3 DUP10 ADD PUSH2 0x1119 JUMP JUMPDEST SWAP5 POP POP PUSH1 0x40 PUSH2 0x1189 DUP9 DUP3 DUP10 ADD PUSH2 0x112D JUMP JUMPDEST SWAP4 POP POP PUSH1 0x60 PUSH2 0x119A DUP9 DUP3 DUP10 ADD PUSH2 0x112D JUMP JUMPDEST SWAP3 POP POP PUSH1 0x80 PUSH2 0x11AB DUP9 DUP3 DUP10 ADD PUSH2 0x10EF JUMP JUMPDEST SWAP2 POP POP SWAP3 SWAP6 POP SWAP3 SWAP6 SWAP1 SWAP4 POP JUMP JUMPDEST PUSH32 0x596F7520646F206E6F7420686176652061207065726D697373696F6E20746F20 PUSH0 DUP3 ADD MSTORE PUSH32 0x63616C6C20746869732066756E6374696F6E2E00000000000000000000000000 PUSH1 0x20 DUP3 ADD MSTORE POP JUMP JUMPDEST PUSH0 PUSH2 0x1212 PUSH1 0x33 DUP4 PUSH2 0xCAD JUMP JUMPDEST SWAP2 POP PUSH2 0x121D DUP3 PUSH2 0x11B8 JUMP JUMPDEST PUSH1 0x40 DUP3 ADD SWAP1 POP SWAP2 SWAP1 POP JUMP JUMPDEST PUSH0 PUSH1 0x20 DUP3 ADD SWAP1 POP DUP2 DUP2 SUB PUSH0 DUP4 ADD MSTORE PUSH2 0x123F DUP2 PUSH2 0x1206 JUMP JUMPDEST SWAP1 POP SWAP2 SWAP1 POP JUMP JUMPDEST PUSH0 PUSH2 0x1250 DUP3 PUSH2 0xBB0 JUMP JUMPDEST SWAP2 POP PUSH2 0x125B DUP4 PUSH2 0xBB0 JUMP JUMPDEST SWAP3 POP DUP3 DUP3 MUL PUSH2 0x1269 DUP2 PUSH2 0xBB0 JUMP JUMPDEST SWAP2 POP DUP3 DUP3 DIV DUP5 EQ DUP4 ISZERO OR PUSH2 0x1280 JUMPI PUSH2 0x127F PUSH2 0xD4B JUMP JUMPDEST JUMPDEST POP SWAP3 SWAP2 POP POP JUMP JUMPDEST PUSH32 0x4E487B7100000000000000000000000000000000000000000000000000000000 PUSH0 MSTORE PUSH1 0x12 PUSH1 0x4 MSTORE PUSH1 0x24 PUSH0 REVERT JUMPDEST PUSH0 PUSH2 0x12BE DUP3 PUSH2 0xBB0 JUMP JUMPDEST SWAP2 POP PUSH2 0x12C9 DUP4 PUSH2 0xBB0 JUMP JUMPDEST SWAP3 POP DUP3 PUSH2 0x12D9 JUMPI PUSH2 0x12D8 PUSH2 0x1287 JUMP JUMPDEST JUMPDEST DUP3 DUP3 DIV SWAP1 POP SWAP3 SWAP2 POP POP JUMP INVALID LOG2 PUSH5 0x6970667358 0x22 SLT KECCAK256 DUP12 REVERT DUP14 0xAD PUSH11 0x234F0E410C634025C416C3 CODESIZE 0xF8 PUSH14 0xB13C93620C7024E22F1F2809EF64 PUSH20 0x6F6C634300081400330000000000000000000000 "
				},
				"gasEstimates": {
					"creation": {
						"codeDepositCost": "978000",
						"executionCost": "infinite",
						"totalCost": "infinite"
					},
					"external": {
						"fund()": "infinite",
						"fundersToAmount(address)": "2801",
						"getChainlinkDataFeedLatestAnswer()": "infinite",
						"getFund()": "infinite",
						"getFundSuccess()": "2605",
						"owner()": "2575",
						"refund()": "infinite",
						"setErc20Addr(address)": "26885",
						"setFunderToAmount(address,uint256)": "25057",
						"trasferOwnership(address)": "26929"
					},
					"internal": {
						"convertEthToUsd(uint256)": "infinite"
					}
				},
				"methodIdentifiers": {
					"fund()": "b60d4288",
					"fundersToAmount(address)": "9f883a05",
					"getChainlinkDataFeedLatestAnswer()": "bea4dfb5",
					"getFund()": "8edd6eb6",
					"getFundSuccess()": "da4658e0",
					"owner()": "8da5cb5b",
					"refund()": "590e1ae3",
					"setErc20Addr(address)": "13ffff01",
					"setFunderToAmount(address,uint256)": "d39cf006",
					"trasferOwnership(address)": "6be6c88f"
				}
			},
			"storageLayout": {
				"storage": [
					{
						"astId": 821,
						"contract": "lesson3/FundTokenERC20_flattened.sol:FundMe",
						"label": "fundersToAmount",
						"offset": 0,
						"slot": "0",
						"type": "t_mapping(t_address,t_uint256)"
					},
					{
						"astId": 831,
						"contract": "lesson3/FundTokenERC20_flattened.sol:FundMe",
						"label": "dataFeed",
						"offset": 0,
						"slot": "1",
						"type": "t_contract(AggregatorV3Interface)816"
					},
					{
						"astId": 840,
						"contract": "lesson3/FundTokenERC20_flattened.sol:FundMe",
						"label": "owner",
						"offset": 0,
						"slot": "2",
						"type": "t_address"
					},
					{
						"astId": 842,
						"contract": "lesson3/FundTokenERC20_flattened.sol:FundMe",
						"label": "deploymentTimestamp",
						"offset": 0,
						"slot": "3",
						"type": "t_uint256"
					},
					{
						"astId": 844,
						"contract": "lesson3/FundTokenERC20_flattened.sol:FundMe",
						"label": "lockTime",
						"offset": 0,
						"slot": "4",
						"type": "t_uint256"
					},
					{
						"astId": 846,
						"contract": "lesson3/FundTokenERC20_flattened.sol:FundMe",
						"label": "erc20Addr",
						"offset": 0,
						"slot": "5",
						"type": "t_address"
					},
					{
						"astId": 849,
						"contract": "lesson3/FundTokenERC20_flattened.sol:FundMe",
						"label": "getFundSuccess",
						"offset": 20,
						"slot": "5",
						"type": "t_bool"
					}
				],
				"types": {
					"t_address": {
						"encoding": "inplace",
						"label": "address",
						"numberOfBytes": "20"
					},
					"t_bool": {
						"encoding": "inplace",
						"label": "bool",
						"numberOfBytes": "1"
					},
					"t_contract(AggregatorV3Interface)816": {
						"encoding": "inplace",
						"label": "contract AggregatorV3Interface",
						"numberOfBytes": "20"
					},
					"t_mapping(t_address,t_uint256)": {
						"encoding": "mapping",
						"key": "t_address",
						"label": "mapping(address => uint256)",
						"numberOfBytes": "32",
						"value": "t_uint256"
					},
					"t_uint256": {
						"encoding": "inplace",
						"label": "uint256",
						"numberOfBytes": "32"
					}
				}
			},
			"userdoc": {
				"kind": "user",
				"methods": {},
				"version": 1
			}
		}
	}
}