{
	"lesson3/FundMe.sol": {
		"FundMe": {
			"abi": [
				{
					"inputs": [
						{
							"internalType": "uint256",
							"name": "_lockTime",
							"type": "uint256"
						}
					],
					"stateMutability": "nonpayable",
					"type": "constructor"
				},
				{
					"inputs": [],
					"name": "fund",
					"outputs": [],
					"stateMutability": "payable",
					"type": "function"
				},
				{
					"inputs": [
						{
							"internalType": "address",
							"name": "",
							"type": "address"
						}
					],
					"name": "fundersToAmount",
					"outputs": [
						{
							"internalType": "uint256",
							"name": "",
							"type": "uint256"
						}
					],
					"stateMutability": "view",
					"type": "function"
				},
				{
					"inputs": [],
					"name": "getChainlinkDataFeedLatestAnswer",
					"outputs": [
						{
							"internalType": "int256",
							"name": "",
							"type": "int256"
						}
					],
					"stateMutability": "view",
					"type": "function"
				},
				{
					"inputs": [],
					"name": "getFund",
					"outputs": [],
					"stateMutability": "nonpayable",
					"type": "function"
				},
				{
					"inputs": [],
					"name": "owner",
					"outputs": [
						{
							"internalType": "address",
							"name": "",
							"type": "address"
						}
					],
					"stateMutability": "view",
					"type": "function"
				},
				{
					"inputs": [],
					"name": "refund",
					"outputs": [],
					"stateMutability": "nonpayable",
					"type": "function"
				},
				{
					"inputs": [
						{
							"internalType": "address",
							"name": "_newOwner",
							"type": "address"
						}
					],
					"name": "trasferOwnership",
					"outputs": [],
					"stateMutability": "nonpayable",
					"type": "function"
				}
			],
			"devdoc": {
				"kind": "dev",
				"methods": {},
				"version": 1
			},
			"evm": {
				"assembly": "    /* \"lesson3/FundMe.sol\":384:3943  contract FundMe {... */\n  mstore(0x40, 0x80)\n    /* \"lesson3/FundMe.sol\":718:972  constructor(uint256 _lockTime) {... */\n  callvalue\n  dup1\n  iszero\n  tag_1\n  jumpi\n  revert(0x00, 0x00)\ntag_1:\n  pop\n  mload(0x40)\n  sub(codesize, bytecodeSize)\n  dup1\n  bytecodeSize\n  dup4\n  codecopy\n  dup2\n  dup2\n  add\n  0x40\n  mstore\n  dup2\n  add\n  swap1\n  tag_2\n  swap2\n  swap1\n  tag_3\n  jump\t// in\ntag_2:\n    /* \"lesson3/FundMe.sol\":805:847  0x694AA1769357215DE4FAC081bf1f309aDC325306 */\n  0x694aa1769357215de4fac081bf1f309adc325306\n    /* \"lesson3/FundMe.sol\":759:767  dataFeed */\n  0x01\n  0x00\n    /* \"lesson3/FundMe.sol\":759:857  dataFeed = AggregatorV3Interface(... */\n  0x0100\n  exp\n  dup2\n  sload\n  dup2\n  0xffffffffffffffffffffffffffffffffffffffff\n  mul\n  not\n  and\n  swap1\n  dup4\n  0xffffffffffffffffffffffffffffffffffffffff\n  and\n  mul\n  or\n  swap1\n  sstore\n  pop\n    /* \"lesson3/FundMe.sol\":876:886  msg.sender */\n  caller\n    /* \"lesson3/FundMe.sol\":868:873  owner */\n  0x02\n  0x00\n    /* \"lesson3/FundMe.sol\":868:886  owner = msg.sender */\n  0x0100\n  exp\n  dup2\n  sload\n  dup2\n  0xffffffffffffffffffffffffffffffffffffffff\n  mul\n  not\n  and\n  swap1\n  dup4\n  0xffffffffffffffffffffffffffffffffffffffff\n  and\n  mul\n  or\n  swap1\n  sstore\n  pop\n    /* \"lesson3/FundMe.sol\":919:934  block.timestamp */\n  timestamp\n    /* \"lesson3/FundMe.sol\":897:916  deploymentTimestamp */\n  0x03\n    /* \"lesson3/FundMe.sol\":897:934  deploymentTimestamp = block.timestamp */\n  dup2\n  swap1\n  sstore\n  pop\n    /* \"lesson3/FundMe.sol\":956:965  _lockTime */\n  dup1\n    /* \"lesson3/FundMe.sol\":945:953  lockTime */\n  0x04\n    /* \"lesson3/FundMe.sol\":945:965  lockTime = _lockTime */\n  dup2\n  swap1\n  sstore\n  pop\n    /* \"lesson3/FundMe.sol\":718:972  constructor(uint256 _lockTime) {... */\n  pop\n    /* \"lesson3/FundMe.sol\":384:3943  contract FundMe {... */\n  jump(tag_6)\n    /* \"#utility.yul\":88:205   */\ntag_8:\n    /* \"#utility.yul\":197:198   */\n  0x00\n    /* \"#utility.yul\":194:195   */\n  0x00\n    /* \"#utility.yul\":187:199   */\n  revert\n    /* \"#utility.yul\":334:411   */\ntag_10:\n    /* \"#utility.yul\":371:378   */\n  0x00\n    /* \"#utility.yul\":400:405   */\n  dup2\n    /* \"#utility.yul\":389:405   */\n  swap1\n  pop\n    /* \"#utility.yul\":334:411   */\n  swap2\n  swap1\n  pop\n  jump\t// out\n    /* \"#utility.yul\":417:539   */\ntag_11:\n    /* \"#utility.yul\":490:514   */\n  tag_19\n    /* \"#utility.yul\":508:513   */\n  dup2\n    /* \"#utility.yul\":490:514   */\n  tag_10\n  jump\t// in\ntag_19:\n    /* \"#utility.yul\":483:488   */\n  dup2\n    /* \"#utility.yul\":480:515   */\n  eq\n    /* \"#utility.yul\":470:533   */\n  tag_20\n  jumpi\n    /* \"#utility.yul\":529:530   */\n  0x00\n    /* \"#utility.yul\":526:527   */\n  0x00\n    /* \"#utility.yul\":519:531   */\n  revert\n    /* \"#utility.yul\":470:533   */\ntag_20:\n    /* \"#utility.yul\":417:539   */\n  pop\n  jump\t// out\n    /* \"#utility.yul\":545:688   */\ntag_12:\n    /* \"#utility.yul\":602:607   */\n  0x00\n    /* \"#utility.yul\":633:639   */\n  dup2\n    /* \"#utility.yul\":627:640   */\n  mload\n    /* \"#utility.yul\":618:640   */\n  swap1\n  pop\n    /* \"#utility.yul\":649:682   */\n  tag_22\n    /* \"#utility.yul\":676:681   */\n  dup2\n    /* \"#utility.yul\":649:682   */\n  tag_11\n  jump\t// in\ntag_22:\n    /* \"#utility.yul\":545:688   */\n  swap3\n  swap2\n  pop\n  pop\n  jump\t// out\n    /* \"#utility.yul\":694:1045   */\ntag_3:\n    /* \"#utility.yul\":764:770   */\n  0x00\n    /* \"#utility.yul\":813:815   */\n  0x20\n    /* \"#utility.yul\":801:810   */\n  dup3\n    /* \"#utility.yul\":792:799   */\n  dup5\n    /* \"#utility.yul\":788:811   */\n  sub\n    /* \"#utility.yul\":784:816   */\n  slt\n    /* \"#utility.yul\":781:900   */\n  iszero\n  tag_24\n  jumpi\n    /* \"#utility.yul\":819:898   */\n  tag_25\n  tag_8\n  jump\t// in\ntag_25:\n    /* \"#utility.yul\":781:900   */\ntag_24:\n    /* \"#utility.yul\":939:940   */\n  0x00\n    /* \"#utility.yul\":964:1028   */\n  tag_26\n    /* \"#utility.yul\":1020:1027   */\n  dup5\n    /* \"#utility.yul\":1011:1017   */\n  dup3\n    /* \"#utility.yul\":1000:1009   */\n  dup6\n    /* \"#utility.yul\":996:1018   */\n  add\n    /* \"#utility.yul\":964:1028   */\n  tag_12\n  jump\t// in\ntag_26:\n    /* \"#utility.yul\":954:1028   */\n  swap2\n  pop\n    /* \"#utility.yul\":910:1038   */\n  pop\n    /* \"#utility.yul\":694:1045   */\n  swap3\n  swap2\n  pop\n  pop\n  jump\t// out\n    /* \"lesson3/FundMe.sol\":384:3943  contract FundMe {... */\ntag_6:\n  dataSize(sub_0)\n  dup1\n  dataOffset(sub_0)\n  0x00\n  codecopy\n  0x00\n  return\nstop\n\nsub_0: assembly {\n        /* \"lesson3/FundMe.sol\":384:3943  contract FundMe {... */\n      mstore(0x40, 0x80)\n      jumpi(tag_1, lt(calldatasize, 0x04))\n      shr(0xe0, calldataload(0x00))\n      dup1\n      0x8edd6eb6\n      gt\n      tag_9\n      jumpi\n      dup1\n      0x8edd6eb6\n      eq\n      tag_5\n      jumpi\n      dup1\n      0x9f883a05\n      eq\n      tag_6\n      jumpi\n      dup1\n      0xb60d4288\n      eq\n      tag_7\n      jumpi\n      dup1\n      0xbea4dfb5\n      eq\n      tag_8\n      jumpi\n      jump(tag_1)\n    tag_9:\n      dup1\n      0x590e1ae3\n      eq\n      tag_2\n      jumpi\n      dup1\n      0x6be6c88f\n      eq\n      tag_3\n      jumpi\n      dup1\n      0x8da5cb5b\n      eq\n      tag_4\n      jumpi\n    tag_1:\n      revert(0x00, 0x00)\n        /* \"lesson3/FundMe.sol\":3138:3603  function refund() external windowClosed {... */\n    tag_2:\n      callvalue\n      dup1\n      iszero\n      tag_10\n      jumpi\n      revert(0x00, 0x00)\n    tag_10:\n      pop\n      tag_11\n      tag_12\n      jump\t// in\n    tag_11:\n      stop\n        /* \"lesson3/FundMe.sol\":2183:2279  function trasferOwnership(address _newOwner) public onlyOwner {... */\n    tag_3:\n      callvalue\n      dup1\n      iszero\n      tag_13\n      jumpi\n      revert(0x00, 0x00)\n    tag_13:\n      pop\n      tag_14\n      0x04\n      dup1\n      calldatasize\n      sub\n      dup2\n      add\n      swap1\n      tag_15\n      swap2\n      swap1\n      tag_16\n      jump\t// in\n    tag_15:\n      tag_17\n      jump\t// in\n    tag_14:\n      stop\n        /* \"lesson3/FundMe.sol\":634:654  address public owner */\n    tag_4:\n      callvalue\n      dup1\n      iszero\n      tag_18\n      jumpi\n      revert(0x00, 0x00)\n    tag_18:\n      pop\n      tag_19\n      tag_20\n      jump\t// in\n    tag_19:\n      mload(0x40)\n      tag_21\n      swap2\n      swap1\n      tag_22\n      jump\t// in\n    tag_21:\n      mload(0x40)\n      dup1\n      swap2\n      sub\n      swap1\n      return\n        /* \"lesson3/FundMe.sol\":2285:3132  function getFund() external windowClosed onlyOwner {... */\n    tag_5:\n      callvalue\n      dup1\n      iszero\n      tag_23\n      jumpi\n      revert(0x00, 0x00)\n    tag_23:\n      pop\n      tag_24\n      tag_25\n      jump\t// in\n    tag_24:\n      stop\n        /* \"lesson3/FundMe.sol\":406:456  mapping(address => uint256) public fundersToAmount */\n    tag_6:\n      callvalue\n      dup1\n      iszero\n      tag_26\n      jumpi\n      revert(0x00, 0x00)\n    tag_26:\n      pop\n      tag_27\n      0x04\n      dup1\n      calldatasize\n      sub\n      dup2\n      add\n      swap1\n      tag_28\n      swap2\n      swap1\n      tag_16\n      jump\t// in\n    tag_28:\n      tag_29\n      jump\t// in\n    tag_27:\n      mload(0x40)\n      tag_30\n      swap2\n      swap1\n      tag_31\n      jump\t// in\n    tag_30:\n      mload(0x40)\n      dup1\n      swap2\n      sub\n      swap1\n      return\n        /* \"lesson3/FundMe.sol\":978:1321  function fund() external payable {... */\n    tag_7:\n      tag_32\n      tag_33\n      jump\t// in\n    tag_32:\n      stop\n        /* \"lesson3/FundMe.sol\":1327:1678  function getChainlinkDataFeedLatestAnswer() public view returns (int256) {... */\n    tag_8:\n      callvalue\n      dup1\n      iszero\n      tag_34\n      jumpi\n      revert(0x00, 0x00)\n    tag_34:\n      pop\n      tag_35\n      tag_36\n      jump\t// in\n    tag_35:\n      mload(0x40)\n      tag_37\n      swap2\n      swap1\n      tag_38\n      jump\t// in\n    tag_37:\n      mload(0x40)\n      dup1\n      swap2\n      sub\n      swap1\n      return\n        /* \"lesson3/FundMe.sol\":3138:3603  function refund() external windowClosed {... */\n    tag_12:\n        /* \"lesson3/FundMe.sol\":3705:3713  lockTime */\n      sload(0x04)\n        /* \"lesson3/FundMe.sol\":3683:3702  deploymentTimestamp */\n      sload(0x03)\n        /* \"lesson3/FundMe.sol\":3683:3713  deploymentTimestamp + lockTime */\n      tag_40\n      swap2\n      swap1\n      tag_41\n      jump\t// in\n    tag_40:\n        /* \"lesson3/FundMe.sol\":3664:3679  block.timestamp */\n      timestamp\n        /* \"lesson3/FundMe.sol\":3664:3713  block.timestamp >= deploymentTimestamp + lockTime */\n      lt\n      iszero\n        /* \"lesson3/FundMe.sol\":3643:3760  require(... */\n      tag_42\n      jumpi\n      mload(0x40)\n      0x08c379a000000000000000000000000000000000000000000000000000000000\n      dup2\n      mstore\n      0x04\n      add\n      tag_43\n      swap1\n      tag_44\n      jump\t// in\n    tag_43:\n      mload(0x40)\n      dup1\n      swap2\n      sub\n      swap1\n      revert\n    tag_42:\n        /* \"lesson3/FundMe.sol\":614:627  1000 * 10**18 */\n      0x3635c9adc5dea00000\n        /* \"lesson3/FundMe.sol\":3209:3247  convertEthToUsd(address(this).balance) */\n      tag_46\n        /* \"lesson3/FundMe.sol\":3225:3246  address(this).balance */\n      selfbalance\n        /* \"lesson3/FundMe.sol\":3209:3224  convertEthToUsd */\n      tag_47\n        /* \"lesson3/FundMe.sol\":3209:3247  convertEthToUsd(address(this).balance) */\n      jump\t// in\n    tag_46:\n        /* \"lesson3/FundMe.sol\":3209:3256  convertEthToUsd(address(this).balance) < TARGET */\n      lt\n        /* \"lesson3/FundMe.sol\":3188:3300  require(... */\n      tag_48\n      jumpi\n      mload(0x40)\n      0x08c379a000000000000000000000000000000000000000000000000000000000\n      dup2\n      mstore\n      0x04\n      add\n      tag_49\n      swap1\n      tag_50\n      jump\t// in\n    tag_49:\n      mload(0x40)\n      dup1\n      swap2\n      sub\n      swap1\n      revert\n    tag_48:\n        /* \"lesson3/FundMe.sol\":3350:3351  0 */\n      0x00\n        /* \"lesson3/FundMe.sol\":3319:3334  fundersToAmount */\n      0x00\n        /* \"lesson3/FundMe.sol\":3319:3346  fundersToAmount[msg.sender] */\n      0x00\n        /* \"lesson3/FundMe.sol\":3335:3345  msg.sender */\n      caller\n        /* \"lesson3/FundMe.sol\":3319:3346  fundersToAmount[msg.sender] */\n      0xffffffffffffffffffffffffffffffffffffffff\n      and\n      0xffffffffffffffffffffffffffffffffffffffff\n      and\n      dup2\n      mstore\n      0x20\n      add\n      swap1\n      dup2\n      mstore\n      0x20\n      add\n      0x00\n      keccak256\n      sload\n        /* \"lesson3/FundMe.sol\":3319:3351  fundersToAmount[msg.sender] != 0 */\n      sub\n        /* \"lesson3/FundMe.sol\":3311:3380  require(fundersToAmount[msg.sender] != 0, \"There is no fund for you\") */\n      tag_51\n      jumpi\n      mload(0x40)\n      0x08c379a000000000000000000000000000000000000000000000000000000000\n      dup2\n      mstore\n      0x04\n      add\n      tag_52\n      swap1\n      tag_53\n      jump\t// in\n    tag_52:\n      mload(0x40)\n      dup1\n      swap2\n      sub\n      swap1\n      revert\n    tag_51:\n        /* \"lesson3/FundMe.sol\":3391:3403  bool success */\n      0x00\n        /* \"lesson3/FundMe.sol\":3435:3445  msg.sender */\n      caller\n        /* \"lesson3/FundMe.sol\":3427:3451  payable(msg.sender).call */\n      0xffffffffffffffffffffffffffffffffffffffff\n      and\n        /* \"lesson3/FundMe.sol\":3472:3487  fundersToAmount */\n      0x00\n        /* \"lesson3/FundMe.sol\":3472:3499  fundersToAmount[msg.sender] */\n      0x00\n        /* \"lesson3/FundMe.sol\":3488:3498  msg.sender */\n      caller\n        /* \"lesson3/FundMe.sol\":3472:3499  fundersToAmount[msg.sender] */\n      0xffffffffffffffffffffffffffffffffffffffff\n      and\n      0xffffffffffffffffffffffffffffffffffffffff\n      and\n      dup2\n      mstore\n      0x20\n      add\n      swap1\n      dup2\n      mstore\n      0x20\n      add\n      0x00\n      keccak256\n      sload\n        /* \"lesson3/FundMe.sol\":3427:3513  payable(msg.sender).call{... */\n      mload(0x40)\n      tag_54\n      swap1\n      tag_55\n      jump\t// in\n    tag_54:\n      0x00\n      mload(0x40)\n      dup1\n      dup4\n      sub\n      dup2\n      dup6\n      dup8\n      gas\n      call\n      swap3\n      pop\n      pop\n      pop\n      returndatasize\n      dup1\n      0x00\n      dup2\n      eq\n      tag_58\n      jumpi\n      mload(0x40)\n      swap2\n      pop\n      and(add(returndatasize, 0x3f), not(0x1f))\n      dup3\n      add\n      0x40\n      mstore\n      returndatasize\n      dup3\n      mstore\n      returndatasize\n      0x00\n      0x20\n      dup5\n      add\n      returndatacopy\n      jump(tag_57)\n    tag_58:\n      0x60\n      swap2\n      pop\n    tag_57:\n      pop\n        /* \"lesson3/FundMe.sol\":3413:3513  (success, ) = payable(msg.sender).call{... */\n      pop\n      dup1\n      swap2\n      pop\n      pop\n        /* \"lesson3/FundMe.sol\":3532:3539  success */\n      dup1\n        /* \"lesson3/FundMe.sol\":3524:3554  require(success, \"tx failed.\") */\n      tag_59\n      jumpi\n      mload(0x40)\n      0x08c379a000000000000000000000000000000000000000000000000000000000\n      dup2\n      mstore\n      0x04\n      add\n      tag_60\n      swap1\n      tag_61\n      jump\t// in\n    tag_60:\n      mload(0x40)\n      dup1\n      swap2\n      sub\n      swap1\n      revert\n    tag_59:\n        /* \"lesson3/FundMe.sol\":3595:3596  0 */\n      0x00\n        /* \"lesson3/FundMe.sol\":3565:3580  fundersToAmount */\n      0x00\n        /* \"lesson3/FundMe.sol\":3565:3592  fundersToAmount[msg.sender] */\n      0x00\n        /* \"lesson3/FundMe.sol\":3581:3591  msg.sender */\n      caller\n        /* \"lesson3/FundMe.sol\":3565:3592  fundersToAmount[msg.sender] */\n      0xffffffffffffffffffffffffffffffffffffffff\n      and\n      0xffffffffffffffffffffffffffffffffffffffff\n      and\n      dup2\n      mstore\n      0x20\n      add\n      swap1\n      dup2\n      mstore\n      0x20\n      add\n      0x00\n      keccak256\n        /* \"lesson3/FundMe.sol\":3565:3596  fundersToAmount[msg.sender] = 0 */\n      dup2\n      swap1\n      sstore\n      pop\n        /* \"lesson3/FundMe.sol\":3178:3603  {... */\n      pop\n        /* \"lesson3/FundMe.sol\":3138:3603  function refund() external windowClosed {... */\n      jump\t// out\n        /* \"lesson3/FundMe.sol\":2183:2279  function trasferOwnership(address _newOwner) public onlyOwner {... */\n    tag_17:\n        /* \"lesson3/FundMe.sol\":3850:3855  owner */\n      0x02\n      0x00\n      swap1\n      sload\n      swap1\n      0x0100\n      exp\n      swap1\n      div\n      0xffffffffffffffffffffffffffffffffffffffff\n      and\n        /* \"lesson3/FundMe.sol\":3836:3855  msg.sender == owner */\n      0xffffffffffffffffffffffffffffffffffffffff\n      and\n        /* \"lesson3/FundMe.sol\":3836:3846  msg.sender */\n      caller\n        /* \"lesson3/FundMe.sol\":3836:3855  msg.sender == owner */\n      0xffffffffffffffffffffffffffffffffffffffff\n      and\n      eq\n        /* \"lesson3/FundMe.sol\":3815:3923  require(... */\n      tag_63\n      jumpi\n      mload(0x40)\n      0x08c379a000000000000000000000000000000000000000000000000000000000\n      dup2\n      mstore\n      0x04\n      add\n      tag_64\n      swap1\n      tag_65\n      jump\t// in\n    tag_64:\n      mload(0x40)\n      dup1\n      swap2\n      sub\n      swap1\n      revert\n    tag_63:\n        /* \"lesson3/FundMe.sol\":2263:2272  _newOwner */\n      dup1\n        /* \"lesson3/FundMe.sol\":2255:2260  owner */\n      0x02\n      0x00\n        /* \"lesson3/FundMe.sol\":2255:2272  owner = _newOwner */\n      0x0100\n      exp\n      dup2\n      sload\n      dup2\n      0xffffffffffffffffffffffffffffffffffffffff\n      mul\n      not\n      and\n      swap1\n      dup4\n      0xffffffffffffffffffffffffffffffffffffffff\n      and\n      mul\n      or\n      swap1\n      sstore\n      pop\n        /* \"lesson3/FundMe.sol\":2183:2279  function trasferOwnership(address _newOwner) public onlyOwner {... */\n      pop\n      jump\t// out\n        /* \"lesson3/FundMe.sol\":634:654  address public owner */\n    tag_20:\n      0x02\n      0x00\n      swap1\n      sload\n      swap1\n      0x0100\n      exp\n      swap1\n      div\n      0xffffffffffffffffffffffffffffffffffffffff\n      and\n      dup2\n      jump\t// out\n        /* \"lesson3/FundMe.sol\":2285:3132  function getFund() external windowClosed onlyOwner {... */\n    tag_25:\n        /* \"lesson3/FundMe.sol\":3705:3713  lockTime */\n      sload(0x04)\n        /* \"lesson3/FundMe.sol\":3683:3702  deploymentTimestamp */\n      sload(0x03)\n        /* \"lesson3/FundMe.sol\":3683:3713  deploymentTimestamp + lockTime */\n      tag_68\n      swap2\n      swap1\n      tag_41\n      jump\t// in\n    tag_68:\n        /* \"lesson3/FundMe.sol\":3664:3679  block.timestamp */\n      timestamp\n        /* \"lesson3/FundMe.sol\":3664:3713  block.timestamp >= deploymentTimestamp + lockTime */\n      lt\n      iszero\n        /* \"lesson3/FundMe.sol\":3643:3760  require(... */\n      tag_69\n      jumpi\n      mload(0x40)\n      0x08c379a000000000000000000000000000000000000000000000000000000000\n      dup2\n      mstore\n      0x04\n      add\n      tag_70\n      swap1\n      tag_44\n      jump\t// in\n    tag_70:\n      mload(0x40)\n      dup1\n      swap2\n      sub\n      swap1\n      revert\n    tag_69:\n        /* \"lesson3/FundMe.sol\":3850:3855  owner */\n      0x02\n      0x00\n      swap1\n      sload\n      swap1\n      0x0100\n      exp\n      swap1\n      div\n      0xffffffffffffffffffffffffffffffffffffffff\n      and\n        /* \"lesson3/FundMe.sol\":3836:3855  msg.sender == owner */\n      0xffffffffffffffffffffffffffffffffffffffff\n      and\n        /* \"lesson3/FundMe.sol\":3836:3846  msg.sender */\n      caller\n        /* \"lesson3/FundMe.sol\":3836:3855  msg.sender == owner */\n      0xffffffffffffffffffffffffffffffffffffffff\n      and\n      eq\n        /* \"lesson3/FundMe.sol\":3815:3923  require(... */\n      tag_72\n      jumpi\n      mload(0x40)\n      0x08c379a000000000000000000000000000000000000000000000000000000000\n      dup2\n      mstore\n      0x04\n      add\n      tag_73\n      swap1\n      tag_65\n      jump\t// in\n    tag_73:\n      mload(0x40)\n      dup1\n      swap2\n      sub\n      swap1\n      revert\n    tag_72:\n        /* \"lesson3/FundMe.sol\":614:627  1000 * 10**18 */\n      0x3635c9adc5dea00000\n        /* \"lesson3/FundMe.sol\":2367:2405  convertEthToUsd(address(this).balance) */\n      tag_75\n        /* \"lesson3/FundMe.sol\":2383:2404  address(this).balance */\n      selfbalance\n        /* \"lesson3/FundMe.sol\":2367:2382  convertEthToUsd */\n      tag_47\n        /* \"lesson3/FundMe.sol\":2367:2405  convertEthToUsd(address(this).balance) */\n      jump\t// in\n    tag_75:\n        /* \"lesson3/FundMe.sol\":2367:2415  convertEthToUsd(address(this).balance) >= TARGET */\n      lt\n      iszero\n        /* \"lesson3/FundMe.sol\":2346:2463  require(... */\n      tag_76\n      jumpi\n      mload(0x40)\n      0x08c379a000000000000000000000000000000000000000000000000000000000\n      dup2\n      mstore\n      0x04\n      add\n      tag_77\n      swap1\n      tag_78\n      jump\t// in\n    tag_77:\n      mload(0x40)\n      dup1\n      swap2\n      sub\n      swap1\n      revert\n    tag_76:\n        /* \"lesson3/FundMe.sol\":2926:2938  bool success */\n      0x00\n        /* \"lesson3/FundMe.sol\":2970:2980  msg.sender */\n      caller\n        /* \"lesson3/FundMe.sol\":2962:2986  payable(msg.sender).call */\n      0xffffffffffffffffffffffffffffffffffffffff\n      and\n        /* \"lesson3/FundMe.sol\":2994:3015  address(this).balance */\n      selfbalance\n        /* \"lesson3/FundMe.sol\":2962:3042  payable(msg.sender).call{value: address(this).balance}(... */\n      mload(0x40)\n      tag_79\n      swap1\n      tag_55\n      jump\t// in\n    tag_79:\n      0x00\n      mload(0x40)\n      dup1\n      dup4\n      sub\n      dup2\n      dup6\n      dup8\n      gas\n      call\n      swap3\n      pop\n      pop\n      pop\n      returndatasize\n      dup1\n      0x00\n      dup2\n      eq\n      tag_82\n      jumpi\n      mload(0x40)\n      swap2\n      pop\n      and(add(returndatasize, 0x3f), not(0x1f))\n      dup3\n      add\n      0x40\n      mstore\n      returndatasize\n      dup3\n      mstore\n      returndatasize\n      0x00\n      0x20\n      dup5\n      add\n      returndatacopy\n      jump(tag_81)\n    tag_82:\n      0x60\n      swap2\n      pop\n    tag_81:\n      pop\n        /* \"lesson3/FundMe.sol\":2948:3042  (success, ) = payable(msg.sender).call{value: address(this).balance}(... */\n      pop\n      dup1\n      swap2\n      pop\n      pop\n        /* \"lesson3/FundMe.sol\":3061:3068  success */\n      dup1\n        /* \"lesson3/FundMe.sol\":3053:3083  require(success, \"tx failed.\") */\n      tag_83\n      jumpi\n      mload(0x40)\n      0x08c379a000000000000000000000000000000000000000000000000000000000\n      dup2\n      mstore\n      0x04\n      add\n      tag_84\n      swap1\n      tag_61\n      jump\t// in\n    tag_84:\n      mload(0x40)\n      dup1\n      swap2\n      sub\n      swap1\n      revert\n    tag_83:\n        /* \"lesson3/FundMe.sol\":3124:3125  0 */\n      0x00\n        /* \"lesson3/FundMe.sol\":3094:3109  fundersToAmount */\n      0x00\n        /* \"lesson3/FundMe.sol\":3094:3121  fundersToAmount[msg.sender] */\n      0x00\n        /* \"lesson3/FundMe.sol\":3110:3120  msg.sender */\n      caller\n        /* \"lesson3/FundMe.sol\":3094:3121  fundersToAmount[msg.sender] */\n      0xffffffffffffffffffffffffffffffffffffffff\n      and\n      0xffffffffffffffffffffffffffffffffffffffff\n      and\n      dup2\n      mstore\n      0x20\n      add\n      swap1\n      dup2\n      mstore\n      0x20\n      add\n      0x00\n      keccak256\n        /* \"lesson3/FundMe.sol\":3094:3125  fundersToAmount[msg.sender] = 0 */\n      dup2\n      swap1\n      sstore\n      pop\n        /* \"lesson3/FundMe.sol\":2336:3132  {... */\n      pop\n        /* \"lesson3/FundMe.sol\":2285:3132  function getFund() external windowClosed onlyOwner {... */\n      jump\t// out\n        /* \"lesson3/FundMe.sol\":406:456  mapping(address => uint256) public fundersToAmount */\n    tag_29:\n      mstore(0x20, 0x00)\n      dup1\n      0x00\n      mstore\n      keccak256(0x00, 0x40)\n      0x00\n      swap2\n      pop\n      swap1\n      pop\n      sload\n      dup2\n      jump\t// out\n        /* \"lesson3/FundMe.sol\":978:1321  function fund() external payable {... */\n    tag_33:\n        /* \"lesson3/FundMe.sol\":503:515  100 * 10**18 */\n      0x056bc75e2d63100000\n        /* \"lesson3/FundMe.sol\":1042:1068  convertEthToUsd(msg.value) */\n      tag_86\n        /* \"lesson3/FundMe.sol\":1058:1067  msg.value */\n      callvalue\n        /* \"lesson3/FundMe.sol\":1042:1057  convertEthToUsd */\n      tag_47\n        /* \"lesson3/FundMe.sol\":1042:1068  convertEthToUsd(msg.value) */\n      jump\t// in\n    tag_86:\n        /* \"lesson3/FundMe.sol\":1042:1092  convertEthToUsd(msg.value) >= MINIMUM_VALUE_100USD */\n      lt\n      iszero\n        /* \"lesson3/FundMe.sol\":1021:1131  require(... */\n      tag_87\n      jumpi\n      mload(0x40)\n      0x08c379a000000000000000000000000000000000000000000000000000000000\n      dup2\n      mstore\n      0x04\n      add\n      tag_88\n      swap1\n      tag_89\n      jump\t// in\n    tag_88:\n      mload(0x40)\n      dup1\n      swap2\n      sub\n      swap1\n      revert\n    tag_87:\n        /* \"lesson3/FundMe.sol\":1213:1221  lockTime */\n      sload(0x04)\n        /* \"lesson3/FundMe.sol\":1191:1210  deploymentTimestamp */\n      sload(0x03)\n        /* \"lesson3/FundMe.sol\":1191:1221  deploymentTimestamp + lockTime */\n      tag_90\n      swap2\n      swap1\n      tag_41\n      jump\t// in\n    tag_90:\n        /* \"lesson3/FundMe.sol\":1173:1188  block.timestamp */\n      timestamp\n        /* \"lesson3/FundMe.sol\":1173:1221  block.timestamp < deploymentTimestamp + lockTime */\n      lt\n        /* \"lesson3/FundMe.sol\":1152:1264  require(... */\n      tag_91\n      jumpi\n      mload(0x40)\n      0x08c379a000000000000000000000000000000000000000000000000000000000\n      dup2\n      mstore\n      0x04\n      add\n      tag_92\n      swap1\n      tag_93\n      jump\t// in\n    tag_92:\n      mload(0x40)\n      dup1\n      swap2\n      sub\n      swap1\n      revert\n    tag_91:\n        /* \"lesson3/FundMe.sol\":1305:1314  msg.value */\n      callvalue\n        /* \"lesson3/FundMe.sol\":1275:1290  fundersToAmount */\n      0x00\n        /* \"lesson3/FundMe.sol\":1275:1302  fundersToAmount[msg.sender] */\n      0x00\n        /* \"lesson3/FundMe.sol\":1291:1301  msg.sender */\n      caller\n        /* \"lesson3/FundMe.sol\":1275:1302  fundersToAmount[msg.sender] */\n      0xffffffffffffffffffffffffffffffffffffffff\n      and\n      0xffffffffffffffffffffffffffffffffffffffff\n      and\n      dup2\n      mstore\n      0x20\n      add\n      swap1\n      dup2\n      mstore\n      0x20\n      add\n      0x00\n      keccak256\n        /* \"lesson3/FundMe.sol\":1275:1314  fundersToAmount[msg.sender] = msg.value */\n      dup2\n      swap1\n      sstore\n      pop\n        /* \"lesson3/FundMe.sol\":978:1321  function fund() external payable {... */\n      jump\t// out\n        /* \"lesson3/FundMe.sol\":1327:1678  function getChainlinkDataFeedLatestAnswer() public view returns (int256) {... */\n    tag_36:\n        /* \"lesson3/FundMe.sol\":1392:1398  int256 */\n      0x00\n        /* \"lesson3/FundMe.sol\":1485:1498  int256 answer */\n      0x00\n        /* \"lesson3/FundMe.sol\":1621:1629  dataFeed */\n      0x01\n      0x00\n      swap1\n      sload\n      swap1\n      0x0100\n      exp\n      swap1\n      div\n      0xffffffffffffffffffffffffffffffffffffffff\n      and\n        /* \"lesson3/FundMe.sol\":1621:1645  dataFeed.latestRoundData */\n      0xffffffffffffffffffffffffffffffffffffffff\n      and\n      0xfeaf968c\n        /* \"lesson3/FundMe.sol\":1621:1647  dataFeed.latestRoundData() */\n      mload(0x40)\n      dup2\n      0xffffffff\n      and\n      0xe0\n      shl\n      dup2\n      mstore\n      0x04\n      add\n      0xa0\n      mload(0x40)\n      dup1\n      dup4\n      sub\n      dup2\n      dup7\n      gas\n      staticcall\n      iszero\n      dup1\n      iszero\n      tag_96\n      jumpi\n      returndatacopy(0x00, 0x00, returndatasize)\n      revert(0x00, returndatasize)\n    tag_96:\n      pop\n      pop\n      pop\n      pop\n      mload(0x40)\n      returndatasize\n      not(0x1f)\n      0x1f\n      dup3\n      add\n      and\n      dup3\n      add\n      dup1\n      0x40\n      mstore\n      pop\n      dup2\n      add\n      swap1\n      tag_97\n      swap2\n      swap1\n      tag_98\n      jump\t// in\n    tag_97:\n        /* \"lesson3/FundMe.sol\":1437:1647  (... */\n      pop\n      pop\n      pop\n      swap2\n      pop\n      pop\n        /* \"lesson3/FundMe.sol\":1665:1671  answer */\n      dup1\n        /* \"lesson3/FundMe.sol\":1658:1671  return answer */\n      swap2\n      pop\n      pop\n        /* \"lesson3/FundMe.sol\":1327:1678  function getChainlinkDataFeedLatestAnswer() public view returns (int256) {... */\n      swap1\n      jump\t// out\n        /* \"lesson3/FundMe.sol\":1684:2177  function convertEthToUsd(uint256 _ethAmount)... */\n    tag_47:\n        /* \"lesson3/FundMe.sol\":1776:1783  uint256 */\n      0x00\n        /* \"lesson3/FundMe.sol\":1799:1815  uint256 ethPrice */\n      0x00\n        /* \"lesson3/FundMe.sol\":1826:1860  getChainlinkDataFeedLatestAnswer() */\n      tag_100\n        /* \"lesson3/FundMe.sol\":1826:1858  getChainlinkDataFeedLatestAnswer */\n      tag_36\n        /* \"lesson3/FundMe.sol\":1826:1860  getChainlinkDataFeedLatestAnswer() */\n      jump\t// in\n    tag_100:\n        /* \"lesson3/FundMe.sol\":1799:1861  uint256 ethPrice = uint256(getChainlinkDataFeedLatestAnswer()) */\n      swap1\n      pop\n        /* \"lesson3/FundMe.sol\":1905:1910  10**8 */\n      0x05f5e100\n        /* \"lesson3/FundMe.sol\":1892:1900  ethPrice */\n      dup2\n        /* \"lesson3/FundMe.sol\":1879:1889  _ethAmount */\n      dup5\n        /* \"lesson3/FundMe.sol\":1879:1900  _ethAmount * ethPrice */\n      tag_101\n      swap2\n      swap1\n      tag_102\n      jump\t// in\n    tag_101:\n        /* \"lesson3/FundMe.sol\":1878:1911  (_ethAmount * ethPrice) / (10**8) */\n      tag_103\n      swap2\n      swap1\n      tag_104\n      jump\t// in\n    tag_103:\n        /* \"lesson3/FundMe.sol\":1871:1911  return (_ethAmount * ethPrice) / (10**8) */\n      swap2\n      pop\n      pop\n        /* \"lesson3/FundMe.sol\":1684:2177  function convertEthToUsd(uint256 _ethAmount)... */\n      swap2\n      swap1\n      pop\n      jump\t// out\n        /* \"#utility.yul\":88:205   */\n    tag_106:\n        /* \"#utility.yul\":197:198   */\n      0x00\n        /* \"#utility.yul\":194:195   */\n      0x00\n        /* \"#utility.yul\":187:199   */\n      revert\n        /* \"#utility.yul\":334:460   */\n    tag_108:\n        /* \"#utility.yul\":371:378   */\n      0x00\n        /* \"#utility.yul\":411:453   */\n      0xffffffffffffffffffffffffffffffffffffffff\n        /* \"#utility.yul\":404:409   */\n      dup3\n        /* \"#utility.yul\":400:454   */\n      and\n        /* \"#utility.yul\":389:454   */\n      swap1\n      pop\n        /* \"#utility.yul\":334:460   */\n      swap2\n      swap1\n      pop\n      jump\t// out\n        /* \"#utility.yul\":466:562   */\n    tag_109:\n        /* \"#utility.yul\":503:510   */\n      0x00\n        /* \"#utility.yul\":532:556   */\n      tag_152\n        /* \"#utility.yul\":550:555   */\n      dup3\n        /* \"#utility.yul\":532:556   */\n      tag_108\n      jump\t// in\n    tag_152:\n        /* \"#utility.yul\":521:556   */\n      swap1\n      pop\n        /* \"#utility.yul\":466:562   */\n      swap2\n      swap1\n      pop\n      jump\t// out\n        /* \"#utility.yul\":568:690   */\n    tag_110:\n        /* \"#utility.yul\":641:665   */\n      tag_154\n        /* \"#utility.yul\":659:664   */\n      dup2\n        /* \"#utility.yul\":641:665   */\n      tag_109\n      jump\t// in\n    tag_154:\n        /* \"#utility.yul\":634:639   */\n      dup2\n        /* \"#utility.yul\":631:666   */\n      eq\n        /* \"#utility.yul\":621:684   */\n      tag_155\n      jumpi\n        /* \"#utility.yul\":680:681   */\n      0x00\n        /* \"#utility.yul\":677:678   */\n      0x00\n        /* \"#utility.yul\":670:682   */\n      revert\n        /* \"#utility.yul\":621:684   */\n    tag_155:\n        /* \"#utility.yul\":568:690   */\n      pop\n      jump\t// out\n        /* \"#utility.yul\":696:835   */\n    tag_111:\n        /* \"#utility.yul\":742:747   */\n      0x00\n        /* \"#utility.yul\":780:786   */\n      dup2\n        /* \"#utility.yul\":767:787   */\n      calldataload\n        /* \"#utility.yul\":758:787   */\n      swap1\n      pop\n        /* \"#utility.yul\":796:829   */\n      tag_157\n        /* \"#utility.yul\":823:828   */\n      dup2\n        /* \"#utility.yul\":796:829   */\n      tag_110\n      jump\t// in\n    tag_157:\n        /* \"#utility.yul\":696:835   */\n      swap3\n      swap2\n      pop\n      pop\n      jump\t// out\n        /* \"#utility.yul\":841:1170   */\n    tag_16:\n        /* \"#utility.yul\":900:906   */\n      0x00\n        /* \"#utility.yul\":949:951   */\n      0x20\n        /* \"#utility.yul\":937:946   */\n      dup3\n        /* \"#utility.yul\":928:935   */\n      dup5\n        /* \"#utility.yul\":924:947   */\n      sub\n        /* \"#utility.yul\":920:952   */\n      slt\n        /* \"#utility.yul\":917:1036   */\n      iszero\n      tag_159\n      jumpi\n        /* \"#utility.yul\":955:1034   */\n      tag_160\n      tag_106\n      jump\t// in\n    tag_160:\n        /* \"#utility.yul\":917:1036   */\n    tag_159:\n        /* \"#utility.yul\":1075:1076   */\n      0x00\n        /* \"#utility.yul\":1100:1153   */\n      tag_161\n        /* \"#utility.yul\":1145:1152   */\n      dup5\n        /* \"#utility.yul\":1136:1142   */\n      dup3\n        /* \"#utility.yul\":1125:1134   */\n      dup6\n        /* \"#utility.yul\":1121:1143   */\n      add\n        /* \"#utility.yul\":1100:1153   */\n      tag_111\n      jump\t// in\n    tag_161:\n        /* \"#utility.yul\":1090:1153   */\n      swap2\n      pop\n        /* \"#utility.yul\":1046:1163   */\n      pop\n        /* \"#utility.yul\":841:1170   */\n      swap3\n      swap2\n      pop\n      pop\n      jump\t// out\n        /* \"#utility.yul\":1176:1294   */\n    tag_112:\n        /* \"#utility.yul\":1263:1287   */\n      tag_163\n        /* \"#utility.yul\":1281:1286   */\n      dup2\n        /* \"#utility.yul\":1263:1287   */\n      tag_109\n      jump\t// in\n    tag_163:\n        /* \"#utility.yul\":1258:1261   */\n      dup3\n        /* \"#utility.yul\":1251:1288   */\n      mstore\n        /* \"#utility.yul\":1176:1294   */\n      pop\n      pop\n      jump\t// out\n        /* \"#utility.yul\":1300:1522   */\n    tag_22:\n        /* \"#utility.yul\":1393:1397   */\n      0x00\n        /* \"#utility.yul\":1431:1433   */\n      0x20\n        /* \"#utility.yul\":1420:1429   */\n      dup3\n        /* \"#utility.yul\":1416:1434   */\n      add\n        /* \"#utility.yul\":1408:1434   */\n      swap1\n      pop\n        /* \"#utility.yul\":1444:1515   */\n      tag_165\n        /* \"#utility.yul\":1512:1513   */\n      0x00\n        /* \"#utility.yul\":1501:1510   */\n      dup4\n        /* \"#utility.yul\":1497:1514   */\n      add\n        /* \"#utility.yul\":1488:1494   */\n      dup5\n        /* \"#utility.yul\":1444:1515   */\n      tag_112\n      jump\t// in\n    tag_165:\n        /* \"#utility.yul\":1300:1522   */\n      swap3\n      swap2\n      pop\n      pop\n      jump\t// out\n        /* \"#utility.yul\":1528:1605   */\n    tag_113:\n        /* \"#utility.yul\":1565:1572   */\n      0x00\n        /* \"#utility.yul\":1594:1599   */\n      dup2\n        /* \"#utility.yul\":1583:1599   */\n      swap1\n      pop\n        /* \"#utility.yul\":1528:1605   */\n      swap2\n      swap1\n      pop\n      jump\t// out\n        /* \"#utility.yul\":1611:1729   */\n    tag_114:\n        /* \"#utility.yul\":1698:1722   */\n      tag_168\n        /* \"#utility.yul\":1716:1721   */\n      dup2\n        /* \"#utility.yul\":1698:1722   */\n      tag_113\n      jump\t// in\n    tag_168:\n        /* \"#utility.yul\":1693:1696   */\n      dup3\n        /* \"#utility.yul\":1686:1723   */\n      mstore\n        /* \"#utility.yul\":1611:1729   */\n      pop\n      pop\n      jump\t// out\n        /* \"#utility.yul\":1735:1957   */\n    tag_31:\n        /* \"#utility.yul\":1828:1832   */\n      0x00\n        /* \"#utility.yul\":1866:1868   */\n      0x20\n        /* \"#utility.yul\":1855:1864   */\n      dup3\n        /* \"#utility.yul\":1851:1869   */\n      add\n        /* \"#utility.yul\":1843:1869   */\n      swap1\n      pop\n        /* \"#utility.yul\":1879:1950   */\n      tag_170\n        /* \"#utility.yul\":1947:1948   */\n      0x00\n        /* \"#utility.yul\":1936:1945   */\n      dup4\n        /* \"#utility.yul\":1932:1949   */\n      add\n        /* \"#utility.yul\":1923:1929   */\n      dup5\n        /* \"#utility.yul\":1879:1950   */\n      tag_114\n      jump\t// in\n    tag_170:\n        /* \"#utility.yul\":1735:1957   */\n      swap3\n      swap2\n      pop\n      pop\n      jump\t// out\n        /* \"#utility.yul\":1963:2039   */\n    tag_115:\n        /* \"#utility.yul\":1999:2006   */\n      0x00\n        /* \"#utility.yul\":2028:2033   */\n      dup2\n        /* \"#utility.yul\":2017:2033   */\n      swap1\n      pop\n        /* \"#utility.yul\":1963:2039   */\n      swap2\n      swap1\n      pop\n      jump\t// out\n        /* \"#utility.yul\":2045:2160   */\n    tag_116:\n        /* \"#utility.yul\":2130:2153   */\n      tag_173\n        /* \"#utility.yul\":2147:2152   */\n      dup2\n        /* \"#utility.yul\":2130:2153   */\n      tag_115\n      jump\t// in\n    tag_173:\n        /* \"#utility.yul\":2125:2128   */\n      dup3\n        /* \"#utility.yul\":2118:2154   */\n      mstore\n        /* \"#utility.yul\":2045:2160   */\n      pop\n      pop\n      jump\t// out\n        /* \"#utility.yul\":2166:2384   */\n    tag_38:\n        /* \"#utility.yul\":2257:2261   */\n      0x00\n        /* \"#utility.yul\":2295:2297   */\n      0x20\n        /* \"#utility.yul\":2284:2293   */\n      dup3\n        /* \"#utility.yul\":2280:2298   */\n      add\n        /* \"#utility.yul\":2272:2298   */\n      swap1\n      pop\n        /* \"#utility.yul\":2308:2377   */\n      tag_175\n        /* \"#utility.yul\":2374:2375   */\n      0x00\n        /* \"#utility.yul\":2363:2372   */\n      dup4\n        /* \"#utility.yul\":2359:2376   */\n      add\n        /* \"#utility.yul\":2350:2356   */\n      dup5\n        /* \"#utility.yul\":2308:2377   */\n      tag_116\n      jump\t// in\n    tag_175:\n        /* \"#utility.yul\":2166:2384   */\n      swap3\n      swap2\n      pop\n      pop\n      jump\t// out\n        /* \"#utility.yul\":2390:2570   */\n    tag_117:\n        /* \"#utility.yul\":2438:2515   */\n      0x4e487b7100000000000000000000000000000000000000000000000000000000\n        /* \"#utility.yul\":2435:2436   */\n      0x00\n        /* \"#utility.yul\":2428:2516   */\n      mstore\n        /* \"#utility.yul\":2535:2539   */\n      0x11\n        /* \"#utility.yul\":2532:2533   */\n      0x04\n        /* \"#utility.yul\":2525:2540   */\n      mstore\n        /* \"#utility.yul\":2559:2563   */\n      0x24\n        /* \"#utility.yul\":2556:2557   */\n      0x00\n        /* \"#utility.yul\":2549:2564   */\n      revert\n        /* \"#utility.yul\":2576:2767   */\n    tag_41:\n        /* \"#utility.yul\":2616:2619   */\n      0x00\n        /* \"#utility.yul\":2635:2655   */\n      tag_178\n        /* \"#utility.yul\":2653:2654   */\n      dup3\n        /* \"#utility.yul\":2635:2655   */\n      tag_113\n      jump\t// in\n    tag_178:\n        /* \"#utility.yul\":2630:2655   */\n      swap2\n      pop\n        /* \"#utility.yul\":2669:2689   */\n      tag_179\n        /* \"#utility.yul\":2687:2688   */\n      dup4\n        /* \"#utility.yul\":2669:2689   */\n      tag_113\n      jump\t// in\n    tag_179:\n        /* \"#utility.yul\":2664:2689   */\n      swap3\n      pop\n        /* \"#utility.yul\":2712:2713   */\n      dup3\n        /* \"#utility.yul\":2709:2710   */\n      dup3\n        /* \"#utility.yul\":2705:2714   */\n      add\n        /* \"#utility.yul\":2698:2714   */\n      swap1\n      pop\n        /* \"#utility.yul\":2733:2736   */\n      dup1\n        /* \"#utility.yul\":2730:2731   */\n      dup3\n        /* \"#utility.yul\":2727:2737   */\n      gt\n        /* \"#utility.yul\":2724:2760   */\n      iszero\n      tag_180\n      jumpi\n        /* \"#utility.yul\":2740:2758   */\n      tag_181\n      tag_117\n      jump\t// in\n    tag_181:\n        /* \"#utility.yul\":2724:2760   */\n    tag_180:\n        /* \"#utility.yul\":2576:2767   */\n      swap3\n      swap2\n      pop\n      pop\n      jump\t// out\n        /* \"#utility.yul\":2773:2942   */\n    tag_118:\n        /* \"#utility.yul\":2857:2868   */\n      0x00\n        /* \"#utility.yul\":2891:2897   */\n      dup3\n        /* \"#utility.yul\":2886:2889   */\n      dup3\n        /* \"#utility.yul\":2879:2898   */\n      mstore\n        /* \"#utility.yul\":2931:2935   */\n      0x20\n        /* \"#utility.yul\":2926:2929   */\n      dup3\n        /* \"#utility.yul\":2922:2936   */\n      add\n        /* \"#utility.yul\":2907:2936   */\n      swap1\n      pop\n        /* \"#utility.yul\":2773:2942   */\n      swap3\n      swap2\n      pop\n      pop\n      jump\t// out\n        /* \"#utility.yul\":2948:3119   */\n    tag_119:\n        /* \"#utility.yul\":3088:3111   */\n      0x57696e646f77206973206e6f7420636c6f7365642e0000000000000000000000\n        /* \"#utility.yul\":3084:3085   */\n      0x00\n        /* \"#utility.yul\":3076:3082   */\n      dup3\n        /* \"#utility.yul\":3072:3086   */\n      add\n        /* \"#utility.yul\":3065:3112   */\n      mstore\n        /* \"#utility.yul\":2948:3119   */\n      pop\n      jump\t// out\n        /* \"#utility.yul\":3125:3491   */\n    tag_120:\n        /* \"#utility.yul\":3267:3270   */\n      0x00\n        /* \"#utility.yul\":3288:3355   */\n      tag_185\n        /* \"#utility.yul\":3352:3354   */\n      0x15\n        /* \"#utility.yul\":3347:3350   */\n      dup4\n        /* \"#utility.yul\":3288:3355   */\n      tag_118\n      jump\t// in\n    tag_185:\n        /* \"#utility.yul\":3281:3355   */\n      swap2\n      pop\n        /* \"#utility.yul\":3364:3457   */\n      tag_186\n        /* \"#utility.yul\":3453:3456   */\n      dup3\n        /* \"#utility.yul\":3364:3457   */\n      tag_119\n      jump\t// in\n    tag_186:\n        /* \"#utility.yul\":3482:3484   */\n      0x20\n        /* \"#utility.yul\":3477:3480   */\n      dup3\n        /* \"#utility.yul\":3473:3485   */\n      add\n        /* \"#utility.yul\":3466:3485   */\n      swap1\n      pop\n        /* \"#utility.yul\":3125:3491   */\n      swap2\n      swap1\n      pop\n      jump\t// out\n        /* \"#utility.yul\":3497:3916   */\n    tag_44:\n        /* \"#utility.yul\":3663:3667   */\n      0x00\n        /* \"#utility.yul\":3701:3703   */\n      0x20\n        /* \"#utility.yul\":3690:3699   */\n      dup3\n        /* \"#utility.yul\":3686:3704   */\n      add\n        /* \"#utility.yul\":3678:3704   */\n      swap1\n      pop\n        /* \"#utility.yul\":3750:3759   */\n      dup2\n        /* \"#utility.yul\":3744:3748   */\n      dup2\n        /* \"#utility.yul\":3740:3760   */\n      sub\n        /* \"#utility.yul\":3736:3737   */\n      0x00\n        /* \"#utility.yul\":3725:3734   */\n      dup4\n        /* \"#utility.yul\":3721:3738   */\n      add\n        /* \"#utility.yul\":3714:3761   */\n      mstore\n        /* \"#utility.yul\":3778:3909   */\n      tag_188\n        /* \"#utility.yul\":3904:3908   */\n      dup2\n        /* \"#utility.yul\":3778:3909   */\n      tag_120\n      jump\t// in\n    tag_188:\n        /* \"#utility.yul\":3770:3909   */\n      swap1\n      pop\n        /* \"#utility.yul\":3497:3916   */\n      swap2\n      swap1\n      pop\n      jump\t// out\n        /* \"#utility.yul\":3922:4090   */\n    tag_121:\n        /* \"#utility.yul\":4062:4082   */\n      0x54617267657420697320726561636865642e0000000000000000000000000000\n        /* \"#utility.yul\":4058:4059   */\n      0x00\n        /* \"#utility.yul\":4050:4056   */\n      dup3\n        /* \"#utility.yul\":4046:4060   */\n      add\n        /* \"#utility.yul\":4039:4083   */\n      mstore\n        /* \"#utility.yul\":3922:4090   */\n      pop\n      jump\t// out\n        /* \"#utility.yul\":4096:4462   */\n    tag_122:\n        /* \"#utility.yul\":4238:4241   */\n      0x00\n        /* \"#utility.yul\":4259:4326   */\n      tag_191\n        /* \"#utility.yul\":4323:4325   */\n      0x12\n        /* \"#utility.yul\":4318:4321   */\n      dup4\n        /* \"#utility.yul\":4259:4326   */\n      tag_118\n      jump\t// in\n    tag_191:\n        /* \"#utility.yul\":4252:4326   */\n      swap2\n      pop\n        /* \"#utility.yul\":4335:4428   */\n      tag_192\n        /* \"#utility.yul\":4424:4427   */\n      dup3\n        /* \"#utility.yul\":4335:4428   */\n      tag_121\n      jump\t// in\n    tag_192:\n        /* \"#utility.yul\":4453:4455   */\n      0x20\n        /* \"#utility.yul\":4448:4451   */\n      dup3\n        /* \"#utility.yul\":4444:4456   */\n      add\n        /* \"#utility.yul\":4437:4456   */\n      swap1\n      pop\n        /* \"#utility.yul\":4096:4462   */\n      swap2\n      swap1\n      pop\n      jump\t// out\n        /* \"#utility.yul\":4468:4887   */\n    tag_50:\n        /* \"#utility.yul\":4634:4638   */\n      0x00\n        /* \"#utility.yul\":4672:4674   */\n      0x20\n        /* \"#utility.yul\":4661:4670   */\n      dup3\n        /* \"#utility.yul\":4657:4675   */\n      add\n        /* \"#utility.yul\":4649:4675   */\n      swap1\n      pop\n        /* \"#utility.yul\":4721:4730   */\n      dup2\n        /* \"#utility.yul\":4715:4719   */\n      dup2\n        /* \"#utility.yul\":4711:4731   */\n      sub\n        /* \"#utility.yul\":4707:4708   */\n      0x00\n        /* \"#utility.yul\":4696:4705   */\n      dup4\n        /* \"#utility.yul\":4692:4709   */\n      add\n        /* \"#utility.yul\":4685:4732   */\n      mstore\n        /* \"#utility.yul\":4749:4880   */\n      tag_194\n        /* \"#utility.yul\":4875:4879   */\n      dup2\n        /* \"#utility.yul\":4749:4880   */\n      tag_122\n      jump\t// in\n    tag_194:\n        /* \"#utility.yul\":4741:4880   */\n      swap1\n      pop\n        /* \"#utility.yul\":4468:4887   */\n      swap2\n      swap1\n      pop\n      jump\t// out\n        /* \"#utility.yul\":4893:5067   */\n    tag_123:\n        /* \"#utility.yul\":5033:5059   */\n      0x5468657265206973206e6f2066756e6420666f7220796f750000000000000000\n        /* \"#utility.yul\":5029:5030   */\n      0x00\n        /* \"#utility.yul\":5021:5027   */\n      dup3\n        /* \"#utility.yul\":5017:5031   */\n      add\n        /* \"#utility.yul\":5010:5060   */\n      mstore\n        /* \"#utility.yul\":4893:5067   */\n      pop\n      jump\t// out\n        /* \"#utility.yul\":5073:5439   */\n    tag_124:\n        /* \"#utility.yul\":5215:5218   */\n      0x00\n        /* \"#utility.yul\":5236:5303   */\n      tag_197\n        /* \"#utility.yul\":5300:5302   */\n      0x18\n        /* \"#utility.yul\":5295:5298   */\n      dup4\n        /* \"#utility.yul\":5236:5303   */\n      tag_118\n      jump\t// in\n    tag_197:\n        /* \"#utility.yul\":5229:5303   */\n      swap2\n      pop\n        /* \"#utility.yul\":5312:5405   */\n      tag_198\n        /* \"#utility.yul\":5401:5404   */\n      dup3\n        /* \"#utility.yul\":5312:5405   */\n      tag_123\n      jump\t// in\n    tag_198:\n        /* \"#utility.yul\":5430:5432   */\n      0x20\n        /* \"#utility.yul\":5425:5428   */\n      dup3\n        /* \"#utility.yul\":5421:5433   */\n      add\n        /* \"#utility.yul\":5414:5433   */\n      swap1\n      pop\n        /* \"#utility.yul\":5073:5439   */\n      swap2\n      swap1\n      pop\n      jump\t// out\n        /* \"#utility.yul\":5445:5864   */\n    tag_53:\n        /* \"#utility.yul\":5611:5615   */\n      0x00\n        /* \"#utility.yul\":5649:5651   */\n      0x20\n        /* \"#utility.yul\":5638:5647   */\n      dup3\n        /* \"#utility.yul\":5634:5652   */\n      add\n        /* \"#utility.yul\":5626:5652   */\n      swap1\n      pop\n        /* \"#utility.yul\":5698:5707   */\n      dup2\n        /* \"#utility.yul\":5692:5696   */\n      dup2\n        /* \"#utility.yul\":5688:5708   */\n      sub\n        /* \"#utility.yul\":5684:5685   */\n      0x00\n        /* \"#utility.yul\":5673:5682   */\n      dup4\n        /* \"#utility.yul\":5669:5686   */\n      add\n        /* \"#utility.yul\":5662:5709   */\n      mstore\n        /* \"#utility.yul\":5726:5857   */\n      tag_200\n        /* \"#utility.yul\":5852:5856   */\n      dup2\n        /* \"#utility.yul\":5726:5857   */\n      tag_124\n      jump\t// in\n    tag_200:\n        /* \"#utility.yul\":5718:5857   */\n      swap1\n      pop\n        /* \"#utility.yul\":5445:5864   */\n      swap2\n      swap1\n      pop\n      jump\t// out\n        /* \"#utility.yul\":5870:6017   */\n    tag_125:\n        /* \"#utility.yul\":5971:5982   */\n      0x00\n        /* \"#utility.yul\":6008:6011   */\n      dup2\n        /* \"#utility.yul\":5993:6011   */\n      swap1\n      pop\n        /* \"#utility.yul\":5870:6017   */\n      swap3\n      swap2\n      pop\n      pop\n      jump\t// out\n        /* \"#utility.yul\":6023:6137   */\n    tag_126:\n      pop\n      jump\t// out\n        /* \"#utility.yul\":6143:6541   */\n    tag_127:\n        /* \"#utility.yul\":6302:6305   */\n      0x00\n        /* \"#utility.yul\":6323:6406   */\n      tag_204\n        /* \"#utility.yul\":6404:6405   */\n      0x00\n        /* \"#utility.yul\":6399:6402   */\n      dup4\n        /* \"#utility.yul\":6323:6406   */\n      tag_125\n      jump\t// in\n    tag_204:\n        /* \"#utility.yul\":6316:6406   */\n      swap2\n      pop\n        /* \"#utility.yul\":6415:6508   */\n      tag_205\n        /* \"#utility.yul\":6504:6507   */\n      dup3\n        /* \"#utility.yul\":6415:6508   */\n      tag_126\n      jump\t// in\n    tag_205:\n        /* \"#utility.yul\":6533:6534   */\n      0x00\n        /* \"#utility.yul\":6528:6531   */\n      dup3\n        /* \"#utility.yul\":6524:6535   */\n      add\n        /* \"#utility.yul\":6517:6535   */\n      swap1\n      pop\n        /* \"#utility.yul\":6143:6541   */\n      swap2\n      swap1\n      pop\n      jump\t// out\n        /* \"#utility.yul\":6547:6926   */\n    tag_55:\n        /* \"#utility.yul\":6731:6734   */\n      0x00\n        /* \"#utility.yul\":6753:6900   */\n      tag_207\n        /* \"#utility.yul\":6896:6899   */\n      dup3\n        /* \"#utility.yul\":6753:6900   */\n      tag_127\n      jump\t// in\n    tag_207:\n        /* \"#utility.yul\":6746:6900   */\n      swap2\n      pop\n        /* \"#utility.yul\":6917:6920   */\n      dup2\n        /* \"#utility.yul\":6910:6920   */\n      swap1\n      pop\n        /* \"#utility.yul\":6547:6926   */\n      swap2\n      swap1\n      pop\n      jump\t// out\n        /* \"#utility.yul\":6932:7092   */\n    tag_128:\n        /* \"#utility.yul\":7072:7084   */\n      0x7478206661696c65642e00000000000000000000000000000000000000000000\n        /* \"#utility.yul\":7068:7069   */\n      0x00\n        /* \"#utility.yul\":7060:7066   */\n      dup3\n        /* \"#utility.yul\":7056:7070   */\n      add\n        /* \"#utility.yul\":7049:7085   */\n      mstore\n        /* \"#utility.yul\":6932:7092   */\n      pop\n      jump\t// out\n        /* \"#utility.yul\":7098:7464   */\n    tag_129:\n        /* \"#utility.yul\":7240:7243   */\n      0x00\n        /* \"#utility.yul\":7261:7328   */\n      tag_210\n        /* \"#utility.yul\":7325:7327   */\n      0x0a\n        /* \"#utility.yul\":7320:7323   */\n      dup4\n        /* \"#utility.yul\":7261:7328   */\n      tag_118\n      jump\t// in\n    tag_210:\n        /* \"#utility.yul\":7254:7328   */\n      swap2\n      pop\n        /* \"#utility.yul\":7337:7430   */\n      tag_211\n        /* \"#utility.yul\":7426:7429   */\n      dup3\n        /* \"#utility.yul\":7337:7430   */\n      tag_128\n      jump\t// in\n    tag_211:\n        /* \"#utility.yul\":7455:7457   */\n      0x20\n        /* \"#utility.yul\":7450:7453   */\n      dup3\n        /* \"#utility.yul\":7446:7458   */\n      add\n        /* \"#utility.yul\":7439:7458   */\n      swap1\n      pop\n        /* \"#utility.yul\":7098:7464   */\n      swap2\n      swap1\n      pop\n      jump\t// out\n        /* \"#utility.yul\":7470:7889   */\n    tag_61:\n        /* \"#utility.yul\":7636:7640   */\n      0x00\n        /* \"#utility.yul\":7674:7676   */\n      0x20\n        /* \"#utility.yul\":7663:7672   */\n      dup3\n        /* \"#utility.yul\":7659:7677   */\n      add\n        /* \"#utility.yul\":7651:7677   */\n      swap1\n      pop\n        /* \"#utility.yul\":7723:7732   */\n      dup2\n        /* \"#utility.yul\":7717:7721   */\n      dup2\n        /* \"#utility.yul\":7713:7733   */\n      sub\n        /* \"#utility.yul\":7709:7710   */\n      0x00\n        /* \"#utility.yul\":7698:7707   */\n      dup4\n        /* \"#utility.yul\":7694:7711   */\n      add\n        /* \"#utility.yul\":7687:7734   */\n      mstore\n        /* \"#utility.yul\":7751:7882   */\n      tag_213\n        /* \"#utility.yul\":7877:7881   */\n      dup2\n        /* \"#utility.yul\":7751:7882   */\n      tag_129\n      jump\t// in\n    tag_213:\n        /* \"#utility.yul\":7743:7882   */\n      swap1\n      pop\n        /* \"#utility.yul\":7470:7889   */\n      swap2\n      swap1\n      pop\n      jump\t// out\n        /* \"#utility.yul\":7895:8124   */\n    tag_130:\n        /* \"#utility.yul\":8035:8069   */\n      0x546869732066756e6374696f6e2063616e206f6e6c792062652063616c6c6564\n        /* \"#utility.yul\":8031:8032   */\n      0x00\n        /* \"#utility.yul\":8023:8029   */\n      dup3\n        /* \"#utility.yul\":8019:8033   */\n      add\n        /* \"#utility.yul\":8012:8070   */\n      mstore\n        /* \"#utility.yul\":8104:8116   */\n      0x206279206f776e65722e00000000000000000000000000000000000000000000\n        /* \"#utility.yul\":8099:8101   */\n      0x20\n        /* \"#utility.yul\":8091:8097   */\n      dup3\n        /* \"#utility.yul\":8087:8102   */\n      add\n        /* \"#utility.yul\":8080:8117   */\n      mstore\n        /* \"#utility.yul\":7895:8124   */\n      pop\n      jump\t// out\n        /* \"#utility.yul\":8130:8496   */\n    tag_131:\n        /* \"#utility.yul\":8272:8275   */\n      0x00\n        /* \"#utility.yul\":8293:8360   */\n      tag_216\n        /* \"#utility.yul\":8357:8359   */\n      0x2a\n        /* \"#utility.yul\":8352:8355   */\n      dup4\n        /* \"#utility.yul\":8293:8360   */\n      tag_118\n      jump\t// in\n    tag_216:\n        /* \"#utility.yul\":8286:8360   */\n      swap2\n      pop\n        /* \"#utility.yul\":8369:8462   */\n      tag_217\n        /* \"#utility.yul\":8458:8461   */\n      dup3\n        /* \"#utility.yul\":8369:8462   */\n      tag_130\n      jump\t// in\n    tag_217:\n        /* \"#utility.yul\":8487:8489   */\n      0x40\n        /* \"#utility.yul\":8482:8485   */\n      dup3\n        /* \"#utility.yul\":8478:8490   */\n      add\n        /* \"#utility.yul\":8471:8490   */\n      swap1\n      pop\n        /* \"#utility.yul\":8130:8496   */\n      swap2\n      swap1\n      pop\n      jump\t// out\n        /* \"#utility.yul\":8502:8921   */\n    tag_65:\n        /* \"#utility.yul\":8668:8672   */\n      0x00\n        /* \"#utility.yul\":8706:8708   */\n      0x20\n        /* \"#utility.yul\":8695:8704   */\n      dup3\n        /* \"#utility.yul\":8691:8709   */\n      add\n        /* \"#utility.yul\":8683:8709   */\n      swap1\n      pop\n        /* \"#utility.yul\":8755:8764   */\n      dup2\n        /* \"#utility.yul\":8749:8753   */\n      dup2\n        /* \"#utility.yul\":8745:8765   */\n      sub\n        /* \"#utility.yul\":8741:8742   */\n      0x00\n        /* \"#utility.yul\":8730:8739   */\n      dup4\n        /* \"#utility.yul\":8726:8743   */\n      add\n        /* \"#utility.yul\":8719:8766   */\n      mstore\n        /* \"#utility.yul\":8783:8914   */\n      tag_219\n        /* \"#utility.yul\":8909:8913   */\n      dup2\n        /* \"#utility.yul\":8783:8914   */\n      tag_131\n      jump\t// in\n    tag_219:\n        /* \"#utility.yul\":8775:8914   */\n      swap1\n      pop\n        /* \"#utility.yul\":8502:8921   */\n      swap2\n      swap1\n      pop\n      jump\t// out\n        /* \"#utility.yul\":8927:9099   */\n    tag_132:\n        /* \"#utility.yul\":9067:9091   */\n      0x546172676574206973206e6f7420726561636865642e00000000000000000000\n        /* \"#utility.yul\":9063:9064   */\n      0x00\n        /* \"#utility.yul\":9055:9061   */\n      dup3\n        /* \"#utility.yul\":9051:9065   */\n      add\n        /* \"#utility.yul\":9044:9092   */\n      mstore\n        /* \"#utility.yul\":8927:9099   */\n      pop\n      jump\t// out\n        /* \"#utility.yul\":9105:9471   */\n    tag_133:\n        /* \"#utility.yul\":9247:9250   */\n      0x00\n        /* \"#utility.yul\":9268:9335   */\n      tag_222\n        /* \"#utility.yul\":9332:9334   */\n      0x16\n        /* \"#utility.yul\":9327:9330   */\n      dup4\n        /* \"#utility.yul\":9268:9335   */\n      tag_118\n      jump\t// in\n    tag_222:\n        /* \"#utility.yul\":9261:9335   */\n      swap2\n      pop\n        /* \"#utility.yul\":9344:9437   */\n      tag_223\n        /* \"#utility.yul\":9433:9436   */\n      dup3\n        /* \"#utility.yul\":9344:9437   */\n      tag_132\n      jump\t// in\n    tag_223:\n        /* \"#utility.yul\":9462:9464   */\n      0x20\n        /* \"#utility.yul\":9457:9460   */\n      dup3\n        /* \"#utility.yul\":9453:9465   */\n      add\n        /* \"#utility.yul\":9446:9465   */\n      swap1\n      pop\n        /* \"#utility.yul\":9105:9471   */\n      swap2\n      swap1\n      pop\n      jump\t// out\n        /* \"#utility.yul\":9477:9896   */\n    tag_78:\n        /* \"#utility.yul\":9643:9647   */\n      0x00\n        /* \"#utility.yul\":9681:9683   */\n      0x20\n        /* \"#utility.yul\":9670:9679   */\n      dup3\n        /* \"#utility.yul\":9666:9684   */\n      add\n        /* \"#utility.yul\":9658:9684   */\n      swap1\n      pop\n        /* \"#utility.yul\":9730:9739   */\n      dup2\n        /* \"#utility.yul\":9724:9728   */\n      dup2\n        /* \"#utility.yul\":9720:9740   */\n      sub\n        /* \"#utility.yul\":9716:9717   */\n      0x00\n        /* \"#utility.yul\":9705:9714   */\n      dup4\n        /* \"#utility.yul\":9701:9718   */\n      add\n        /* \"#utility.yul\":9694:9741   */\n      mstore\n        /* \"#utility.yul\":9758:9889   */\n      tag_225\n        /* \"#utility.yul\":9884:9888   */\n      dup2\n        /* \"#utility.yul\":9758:9889   */\n      tag_133\n      jump\t// in\n    tag_225:\n        /* \"#utility.yul\":9750:9889   */\n      swap1\n      pop\n        /* \"#utility.yul\":9477:9896   */\n      swap2\n      swap1\n      pop\n      jump\t// out\n        /* \"#utility.yul\":9902:10065   */\n    tag_134:\n        /* \"#utility.yul\":10042:10057   */\n      0x53656e64206d6f72652045544800000000000000000000000000000000000000\n        /* \"#utility.yul\":10038:10039   */\n      0x00\n        /* \"#utility.yul\":10030:10036   */\n      dup3\n        /* \"#utility.yul\":10026:10040   */\n      add\n        /* \"#utility.yul\":10019:10058   */\n      mstore\n        /* \"#utility.yul\":9902:10065   */\n      pop\n      jump\t// out\n        /* \"#utility.yul\":10071:10437   */\n    tag_135:\n        /* \"#utility.yul\":10213:10216   */\n      0x00\n        /* \"#utility.yul\":10234:10301   */\n      tag_228\n        /* \"#utility.yul\":10298:10300   */\n      0x0d\n        /* \"#utility.yul\":10293:10296   */\n      dup4\n        /* \"#utility.yul\":10234:10301   */\n      tag_118\n      jump\t// in\n    tag_228:\n        /* \"#utility.yul\":10227:10301   */\n      swap2\n      pop\n        /* \"#utility.yul\":10310:10403   */\n      tag_229\n        /* \"#utility.yul\":10399:10402   */\n      dup3\n        /* \"#utility.yul\":10310:10403   */\n      tag_134\n      jump\t// in\n    tag_229:\n        /* \"#utility.yul\":10428:10430   */\n      0x20\n        /* \"#utility.yul\":10423:10426   */\n      dup3\n        /* \"#utility.yul\":10419:10431   */\n      add\n        /* \"#utility.yul\":10412:10431   */\n      swap1\n      pop\n        /* \"#utility.yul\":10071:10437   */\n      swap2\n      swap1\n      pop\n      jump\t// out\n        /* \"#utility.yul\":10443:10862   */\n    tag_89:\n        /* \"#utility.yul\":10609:10613   */\n      0x00\n        /* \"#utility.yul\":10647:10649   */\n      0x20\n        /* \"#utility.yul\":10636:10645   */\n      dup3\n        /* \"#utility.yul\":10632:10650   */\n      add\n        /* \"#utility.yul\":10624:10650   */\n      swap1\n      pop\n        /* \"#utility.yul\":10696:10705   */\n      dup2\n        /* \"#utility.yul\":10690:10694   */\n      dup2\n        /* \"#utility.yul\":10686:10706   */\n      sub\n        /* \"#utility.yul\":10682:10683   */\n      0x00\n        /* \"#utility.yul\":10671:10680   */\n      dup4\n        /* \"#utility.yul\":10667:10684   */\n      add\n        /* \"#utility.yul\":10660:10707   */\n      mstore\n        /* \"#utility.yul\":10724:10855   */\n      tag_231\n        /* \"#utility.yul\":10850:10854   */\n      dup2\n        /* \"#utility.yul\":10724:10855   */\n      tag_135\n      jump\t// in\n    tag_231:\n        /* \"#utility.yul\":10716:10855   */\n      swap1\n      pop\n        /* \"#utility.yul\":10443:10862   */\n      swap2\n      swap1\n      pop\n      jump\t// out\n        /* \"#utility.yul\":10868:11035   */\n    tag_136:\n        /* \"#utility.yul\":11008:11027   */\n      0x57696e646f7720697320636c6f7365642e000000000000000000000000000000\n        /* \"#utility.yul\":11004:11005   */\n      0x00\n        /* \"#utility.yul\":10996:11002   */\n      dup3\n        /* \"#utility.yul\":10992:11006   */\n      add\n        /* \"#utility.yul\":10985:11028   */\n      mstore\n        /* \"#utility.yul\":10868:11035   */\n      pop\n      jump\t// out\n        /* \"#utility.yul\":11041:11407   */\n    tag_137:\n        /* \"#utility.yul\":11183:11186   */\n      0x00\n        /* \"#utility.yul\":11204:11271   */\n      tag_234\n        /* \"#utility.yul\":11268:11270   */\n      0x11\n        /* \"#utility.yul\":11263:11266   */\n      dup4\n        /* \"#utility.yul\":11204:11271   */\n      tag_118\n      jump\t// in\n    tag_234:\n        /* \"#utility.yul\":11197:11271   */\n      swap2\n      pop\n        /* \"#utility.yul\":11280:11373   */\n      tag_235\n        /* \"#utility.yul\":11369:11372   */\n      dup3\n        /* \"#utility.yul\":11280:11373   */\n      tag_136\n      jump\t// in\n    tag_235:\n        /* \"#utility.yul\":11398:11400   */\n      0x20\n        /* \"#utility.yul\":11393:11396   */\n      dup3\n        /* \"#utility.yul\":11389:11401   */\n      add\n        /* \"#utility.yul\":11382:11401   */\n      swap1\n      pop\n        /* \"#utility.yul\":11041:11407   */\n      swap2\n      swap1\n      pop\n      jump\t// out\n        /* \"#utility.yul\":11413:11832   */\n    tag_93:\n        /* \"#utility.yul\":11579:11583   */\n      0x00\n        /* \"#utility.yul\":11617:11619   */\n      0x20\n        /* \"#utility.yul\":11606:11615   */\n      dup3\n        /* \"#utility.yul\":11602:11620   */\n      add\n        /* \"#utility.yul\":11594:11620   */\n      swap1\n      pop\n        /* \"#utility.yul\":11666:11675   */\n      dup2\n        /* \"#utility.yul\":11660:11664   */\n      dup2\n        /* \"#utility.yul\":11656:11676   */\n      sub\n        /* \"#utility.yul\":11652:11653   */\n      0x00\n        /* \"#utility.yul\":11641:11650   */\n      dup4\n        /* \"#utility.yul\":11637:11654   */\n      add\n        /* \"#utility.yul\":11630:11677   */\n      mstore\n        /* \"#utility.yul\":11694:11825   */\n      tag_237\n        /* \"#utility.yul\":11820:11824   */\n      dup2\n        /* \"#utility.yul\":11694:11825   */\n      tag_137\n      jump\t// in\n    tag_237:\n        /* \"#utility.yul\":11686:11825   */\n      swap1\n      pop\n        /* \"#utility.yul\":11413:11832   */\n      swap2\n      swap1\n      pop\n      jump\t// out\n        /* \"#utility.yul\":11838:11943   */\n    tag_138:\n        /* \"#utility.yul\":11874:11881   */\n      0x00\n        /* \"#utility.yul\":11914:11936   */\n      0xffffffffffffffffffff\n        /* \"#utility.yul\":11907:11912   */\n      dup3\n        /* \"#utility.yul\":11903:11937   */\n      and\n        /* \"#utility.yul\":11892:11937   */\n      swap1\n      pop\n        /* \"#utility.yul\":11838:11943   */\n      swap2\n      swap1\n      pop\n      jump\t// out\n        /* \"#utility.yul\":11949:12069   */\n    tag_139:\n        /* \"#utility.yul\":12021:12044   */\n      tag_240\n        /* \"#utility.yul\":12038:12043   */\n      dup2\n        /* \"#utility.yul\":12021:12044   */\n      tag_138\n      jump\t// in\n    tag_240:\n        /* \"#utility.yul\":12014:12019   */\n      dup2\n        /* \"#utility.yul\":12011:12045   */\n      eq\n        /* \"#utility.yul\":12001:12063   */\n      tag_241\n      jumpi\n        /* \"#utility.yul\":12059:12060   */\n      0x00\n        /* \"#utility.yul\":12056:12057   */\n      0x00\n        /* \"#utility.yul\":12049:12061   */\n      revert\n        /* \"#utility.yul\":12001:12063   */\n    tag_241:\n        /* \"#utility.yul\":11949:12069   */\n      pop\n      jump\t// out\n        /* \"#utility.yul\":12075:12216   */\n    tag_140:\n        /* \"#utility.yul\":12131:12136   */\n      0x00\n        /* \"#utility.yul\":12162:12168   */\n      dup2\n        /* \"#utility.yul\":12156:12169   */\n      mload\n        /* \"#utility.yul\":12147:12169   */\n      swap1\n      pop\n        /* \"#utility.yul\":12178:12210   */\n      tag_243\n        /* \"#utility.yul\":12204:12209   */\n      dup2\n        /* \"#utility.yul\":12178:12210   */\n      tag_139\n      jump\t// in\n    tag_243:\n        /* \"#utility.yul\":12075:12216   */\n      swap3\n      swap2\n      pop\n      pop\n      jump\t// out\n        /* \"#utility.yul\":12222:12342   */\n    tag_141:\n        /* \"#utility.yul\":12294:12317   */\n      tag_245\n        /* \"#utility.yul\":12311:12316   */\n      dup2\n        /* \"#utility.yul\":12294:12317   */\n      tag_115\n      jump\t// in\n    tag_245:\n        /* \"#utility.yul\":12287:12292   */\n      dup2\n        /* \"#utility.yul\":12284:12318   */\n      eq\n        /* \"#utility.yul\":12274:12336   */\n      tag_246\n      jumpi\n        /* \"#utility.yul\":12332:12333   */\n      0x00\n        /* \"#utility.yul\":12329:12330   */\n      0x00\n        /* \"#utility.yul\":12322:12334   */\n      revert\n        /* \"#utility.yul\":12274:12336   */\n    tag_246:\n        /* \"#utility.yul\":12222:12342   */\n      pop\n      jump\t// out\n        /* \"#utility.yul\":12348:12489   */\n    tag_142:\n        /* \"#utility.yul\":12404:12409   */\n      0x00\n        /* \"#utility.yul\":12435:12441   */\n      dup2\n        /* \"#utility.yul\":12429:12442   */\n      mload\n        /* \"#utility.yul\":12420:12442   */\n      swap1\n      pop\n        /* \"#utility.yul\":12451:12483   */\n      tag_248\n        /* \"#utility.yul\":12477:12482   */\n      dup2\n        /* \"#utility.yul\":12451:12483   */\n      tag_141\n      jump\t// in\n    tag_248:\n        /* \"#utility.yul\":12348:12489   */\n      swap3\n      swap2\n      pop\n      pop\n      jump\t// out\n        /* \"#utility.yul\":12495:12617   */\n    tag_143:\n        /* \"#utility.yul\":12568:12592   */\n      tag_250\n        /* \"#utility.yul\":12586:12591   */\n      dup2\n        /* \"#utility.yul\":12568:12592   */\n      tag_113\n      jump\t// in\n    tag_250:\n        /* \"#utility.yul\":12561:12566   */\n      dup2\n        /* \"#utility.yul\":12558:12593   */\n      eq\n        /* \"#utility.yul\":12548:12611   */\n      tag_251\n      jumpi\n        /* \"#utility.yul\":12607:12608   */\n      0x00\n        /* \"#utility.yul\":12604:12605   */\n      0x00\n        /* \"#utility.yul\":12597:12609   */\n      revert\n        /* \"#utility.yul\":12548:12611   */\n    tag_251:\n        /* \"#utility.yul\":12495:12617   */\n      pop\n      jump\t// out\n        /* \"#utility.yul\":12623:12766   */\n    tag_144:\n        /* \"#utility.yul\":12680:12685   */\n      0x00\n        /* \"#utility.yul\":12711:12717   */\n      dup2\n        /* \"#utility.yul\":12705:12718   */\n      mload\n        /* \"#utility.yul\":12696:12718   */\n      swap1\n      pop\n        /* \"#utility.yul\":12727:12760   */\n      tag_253\n        /* \"#utility.yul\":12754:12759   */\n      dup2\n        /* \"#utility.yul\":12727:12760   */\n      tag_143\n      jump\t// in\n    tag_253:\n        /* \"#utility.yul\":12623:12766   */\n      swap3\n      swap2\n      pop\n      pop\n      jump\t// out\n        /* \"#utility.yul\":12772:13743   */\n    tag_98:\n        /* \"#utility.yul\":12875:12881   */\n      0x00\n        /* \"#utility.yul\":12883:12889   */\n      0x00\n        /* \"#utility.yul\":12891:12897   */\n      0x00\n        /* \"#utility.yul\":12899:12905   */\n      0x00\n        /* \"#utility.yul\":12907:12913   */\n      0x00\n        /* \"#utility.yul\":12956:12959   */\n      0xa0\n        /* \"#utility.yul\":12944:12953   */\n      dup7\n        /* \"#utility.yul\":12935:12942   */\n      dup9\n        /* \"#utility.yul\":12931:12954   */\n      sub\n        /* \"#utility.yul\":12927:12960   */\n      slt\n        /* \"#utility.yul\":12924:13044   */\n      iszero\n      tag_255\n      jumpi\n        /* \"#utility.yul\":12963:13042   */\n      tag_256\n      tag_106\n      jump\t// in\n    tag_256:\n        /* \"#utility.yul\":12924:13044   */\n    tag_255:\n        /* \"#utility.yul\":13083:13084   */\n      0x00\n        /* \"#utility.yul\":13108:13171   */\n      tag_257\n        /* \"#utility.yul\":13163:13170   */\n      dup9\n        /* \"#utility.yul\":13154:13160   */\n      dup3\n        /* \"#utility.yul\":13143:13152   */\n      dup10\n        /* \"#utility.yul\":13139:13161   */\n      add\n        /* \"#utility.yul\":13108:13171   */\n      tag_140\n      jump\t// in\n    tag_257:\n        /* \"#utility.yul\":13098:13171   */\n      swap6\n      pop\n        /* \"#utility.yul\":13054:13181   */\n      pop\n        /* \"#utility.yul\":13220:13222   */\n      0x20\n        /* \"#utility.yul\":13246:13309   */\n      tag_258\n        /* \"#utility.yul\":13301:13308   */\n      dup9\n        /* \"#utility.yul\":13292:13298   */\n      dup3\n        /* \"#utility.yul\":13281:13290   */\n      dup10\n        /* \"#utility.yul\":13277:13299   */\n      add\n        /* \"#utility.yul\":13246:13309   */\n      tag_142\n      jump\t// in\n    tag_258:\n        /* \"#utility.yul\":13236:13309   */\n      swap5\n      pop\n        /* \"#utility.yul\":13191:13319   */\n      pop\n        /* \"#utility.yul\":13358:13360   */\n      0x40\n        /* \"#utility.yul\":13384:13448   */\n      tag_259\n        /* \"#utility.yul\":13440:13447   */\n      dup9\n        /* \"#utility.yul\":13431:13437   */\n      dup3\n        /* \"#utility.yul\":13420:13429   */\n      dup10\n        /* \"#utility.yul\":13416:13438   */\n      add\n        /* \"#utility.yul\":13384:13448   */\n      tag_144\n      jump\t// in\n    tag_259:\n        /* \"#utility.yul\":13374:13448   */\n      swap4\n      pop\n        /* \"#utility.yul\":13329:13458   */\n      pop\n        /* \"#utility.yul\":13497:13499   */\n      0x60\n        /* \"#utility.yul\":13523:13587   */\n      tag_260\n        /* \"#utility.yul\":13579:13586   */\n      dup9\n        /* \"#utility.yul\":13570:13576   */\n      dup3\n        /* \"#utility.yul\":13559:13568   */\n      dup10\n        /* \"#utility.yul\":13555:13577   */\n      add\n        /* \"#utility.yul\":13523:13587   */\n      tag_144\n      jump\t// in\n    tag_260:\n        /* \"#utility.yul\":13513:13587   */\n      swap3\n      pop\n        /* \"#utility.yul\":13468:13597   */\n      pop\n        /* \"#utility.yul\":13636:13639   */\n      0x80\n        /* \"#utility.yul\":13663:13726   */\n      tag_261\n        /* \"#utility.yul\":13718:13725   */\n      dup9\n        /* \"#utility.yul\":13709:13715   */\n      dup3\n        /* \"#utility.yul\":13698:13707   */\n      dup10\n        /* \"#utility.yul\":13694:13716   */\n      add\n        /* \"#utility.yul\":13663:13726   */\n      tag_140\n      jump\t// in\n    tag_261:\n        /* \"#utility.yul\":13653:13726   */\n      swap2\n      pop\n        /* \"#utility.yul\":13607:13736   */\n      pop\n        /* \"#utility.yul\":12772:13743   */\n      swap3\n      swap6\n      pop\n      swap3\n      swap6\n      swap1\n      swap4\n      pop\n      jump\t// out\n        /* \"#utility.yul\":13749:14159   */\n    tag_102:\n        /* \"#utility.yul\":13789:13796   */\n      0x00\n        /* \"#utility.yul\":13812:13832   */\n      tag_263\n        /* \"#utility.yul\":13830:13831   */\n      dup3\n        /* \"#utility.yul\":13812:13832   */\n      tag_113\n      jump\t// in\n    tag_263:\n        /* \"#utility.yul\":13807:13832   */\n      swap2\n      pop\n        /* \"#utility.yul\":13846:13866   */\n      tag_264\n        /* \"#utility.yul\":13864:13865   */\n      dup4\n        /* \"#utility.yul\":13846:13866   */\n      tag_113\n      jump\t// in\n    tag_264:\n        /* \"#utility.yul\":13841:13866   */\n      swap3\n      pop\n        /* \"#utility.yul\":13901:13902   */\n      dup3\n        /* \"#utility.yul\":13898:13899   */\n      dup3\n        /* \"#utility.yul\":13894:13903   */\n      mul\n        /* \"#utility.yul\":13923:13953   */\n      tag_265\n        /* \"#utility.yul\":13941:13952   */\n      dup2\n        /* \"#utility.yul\":13923:13953   */\n      tag_113\n      jump\t// in\n    tag_265:\n        /* \"#utility.yul\":13912:13953   */\n      swap2\n      pop\n        /* \"#utility.yul\":14102:14103   */\n      dup3\n        /* \"#utility.yul\":14093:14100   */\n      dup3\n        /* \"#utility.yul\":14089:14104   */\n      div\n        /* \"#utility.yul\":14086:14087   */\n      dup5\n        /* \"#utility.yul\":14083:14105   */\n      eq\n        /* \"#utility.yul\":14063:14064   */\n      dup4\n        /* \"#utility.yul\":14056:14065   */\n      iszero\n        /* \"#utility.yul\":14036:14119   */\n      or\n        /* \"#utility.yul\":14013:14152   */\n      tag_266\n      jumpi\n        /* \"#utility.yul\":14132:14150   */\n      tag_267\n      tag_117\n      jump\t// in\n    tag_267:\n        /* \"#utility.yul\":14013:14152   */\n    tag_266:\n        /* \"#utility.yul\":13797:14159   */\n      pop\n        /* \"#utility.yul\":13749:14159   */\n      swap3\n      swap2\n      pop\n      pop\n      jump\t// out\n        /* \"#utility.yul\":14165:14345   */\n    tag_145:\n        /* \"#utility.yul\":14213:14290   */\n      0x4e487b7100000000000000000000000000000000000000000000000000000000\n        /* \"#utility.yul\":14210:14211   */\n      0x00\n        /* \"#utility.yul\":14203:14291   */\n      mstore\n        /* \"#utility.yul\":14310:14314   */\n      0x12\n        /* \"#utility.yul\":14307:14308   */\n      0x04\n        /* \"#utility.yul\":14300:14315   */\n      mstore\n        /* \"#utility.yul\":14334:14338   */\n      0x24\n        /* \"#utility.yul\":14331:14332   */\n      0x00\n        /* \"#utility.yul\":14324:14339   */\n      revert\n        /* \"#utility.yul\":14351:14536   */\n    tag_104:\n        /* \"#utility.yul\":14391:14392   */\n      0x00\n        /* \"#utility.yul\":14408:14428   */\n      tag_270\n        /* \"#utility.yul\":14426:14427   */\n      dup3\n        /* \"#utility.yul\":14408:14428   */\n      tag_113\n      jump\t// in\n    tag_270:\n        /* \"#utility.yul\":14403:14428   */\n      swap2\n      pop\n        /* \"#utility.yul\":14442:14462   */\n      tag_271\n        /* \"#utility.yul\":14460:14461   */\n      dup4\n        /* \"#utility.yul\":14442:14462   */\n      tag_113\n      jump\t// in\n    tag_271:\n        /* \"#utility.yul\":14437:14462   */\n      swap3\n      pop\n        /* \"#utility.yul\":14481:14482   */\n      dup3\n        /* \"#utility.yul\":14471:14506   */\n      tag_272\n      jumpi\n        /* \"#utility.yul\":14486:14504   */\n      tag_273\n      tag_145\n      jump\t// in\n    tag_273:\n        /* \"#utility.yul\":14471:14506   */\n    tag_272:\n        /* \"#utility.yul\":14528:14529   */\n      dup3\n        /* \"#utility.yul\":14525:14526   */\n      dup3\n        /* \"#utility.yul\":14521:14530   */\n      div\n        /* \"#utility.yul\":14516:14530   */\n      swap1\n      pop\n        /* \"#utility.yul\":14351:14536   */\n      swap3\n      swap2\n      pop\n      pop\n      jump\t// out\n\n    auxdata: 0xa26469706673582212209844bc36b133e1d906fd0dc0be74a262ba97d4ac3351d191b3f1dc93d37938db64736f6c634300081e0033\n}\n",
				"bytecode": {
					"linkReferences": {},
					"object": "608060405234801561000f575f5ffd5b506040516110e03803806110e083398181016040528101906100319190610110565b73694aa1769357215de4fac081bf1f309adc32530660015f6101000a81548173ffffffffffffffffffffffffffffffffffffffff021916908373ffffffffffffffffffffffffffffffffffffffff1602179055503360025f6101000a81548173ffffffffffffffffffffffffffffffffffffffff021916908373ffffffffffffffffffffffffffffffffffffffff16021790555042600381905550806004819055505061013b565b5f5ffd5b5f819050919050565b6100ef816100dd565b81146100f9575f5ffd5b50565b5f8151905061010a816100e6565b92915050565b5f60208284031215610125576101246100d9565b5b5f610132848285016100fc565b91505092915050565b610f98806101485f395ff3fe60806040526004361061006f575f3560e01c80638edd6eb61161004d5780638edd6eb6146100db5780639f883a05146100f1578063b60d42881461012d578063bea4dfb5146101375761006f565b8063590e1ae3146100735780636be6c88f146100895780638da5cb5b146100b1575b5f5ffd5b34801561007e575f5ffd5b50610087610161565b005b348015610094575f5ffd5b506100af60048036038101906100aa91906108ee565b6103ae565b005b3480156100bc575f5ffd5b506100c5610480565b6040516100d29190610928565b60405180910390f35b3480156100e6575f5ffd5b506100ef6104a5565b005b3480156100fc575f5ffd5b50610117600480360381019061011291906108ee565b6106c8565b6040516101249190610959565b60405180910390f35b6101356106dc565b005b348015610142575f5ffd5b5061014b6107c4565b604051610158919061098a565b60405180910390f35b60045460035461017191906109d0565b4210156101b3576040517f08c379a00000000000000000000000000000000000000000000000000000000081526004016101aa90610a5d565b60405180910390fd5b683635c9adc5dea000006101c647610861565b10610206576040517f08c379a00000000000000000000000000000000000000000000000000000000081526004016101fd90610ac5565b60405180910390fd5b5f5f5f3373ffffffffffffffffffffffffffffffffffffffff1673ffffffffffffffffffffffffffffffffffffffff1681526020019081526020015f205403610284576040517f08c379a000000000000000000000000000000000000000000000000000000000815260040161027b90610b2d565b60405180910390fd5b5f3373ffffffffffffffffffffffffffffffffffffffff165f5f3373ffffffffffffffffffffffffffffffffffffffff1673ffffffffffffffffffffffffffffffffffffffff1681526020019081526020015f20546040516102e590610b78565b5f6040518083038185875af1925050503d805f811461031f576040519150601f19603f3d011682016040523d82523d5f602084013e610324565b606091505b5050809150508061036a576040517f08c379a000000000000000000000000000000000000000000000000000000000815260040161036190610bd6565b60405180910390fd5b5f5f5f3373ffffffffffffffffffffffffffffffffffffffff1673ffffffffffffffffffffffffffffffffffffffff1681526020019081526020015f208190555050565b60025f9054906101000a900473ffffffffffffffffffffffffffffffffffffffff1673ffffffffffffffffffffffffffffffffffffffff163373ffffffffffffffffffffffffffffffffffffffff161461043d576040517f08c379a000000000000000000000000000000000000000000000000000000000815260040161043490610c64565b60405180910390fd5b8060025f6101000a81548173ffffffffffffffffffffffffffffffffffffffff021916908373ffffffffffffffffffffffffffffffffffffffff16021790555050565b60025f9054906101000a900473ffffffffffffffffffffffffffffffffffffffff1681565b6004546003546104b591906109d0565b4210156104f7576040517f08c379a00000000000000000000000000000000000000000000000000000000081526004016104ee90610a5d565b60405180910390fd5b60025f9054906101000a900473ffffffffffffffffffffffffffffffffffffffff1673ffffffffffffffffffffffffffffffffffffffff163373ffffffffffffffffffffffffffffffffffffffff1614610586576040517f08c379a000000000000000000000000000000000000000000000000000000000815260040161057d90610c64565b60405180910390fd5b683635c9adc5dea0000061059947610861565b10156105da576040517f08c379a00000000000000000000000000000000000000000000000000000000081526004016105d190610ccc565b60405180910390fd5b5f3373ffffffffffffffffffffffffffffffffffffffff16476040516105ff90610b78565b5f6040518083038185875af1925050503d805f8114610639576040519150601f19603f3d011682016040523d82523d5f602084013e61063e565b606091505b50508091505080610684576040517f08c379a000000000000000000000000000000000000000000000000000000000815260040161067b90610bd6565b60405180910390fd5b5f5f5f3373ffffffffffffffffffffffffffffffffffffffff1673ffffffffffffffffffffffffffffffffffffffff1681526020019081526020015f208190555050565b5f602052805f5260405f205f915090505481565b68056bc75e2d631000006106ef34610861565b1015610730576040517f08c379a000000000000000000000000000000000000000000000000000000000815260040161072790610d34565b60405180910390fd5b60045460035461074091906109d0565b4210610781576040517f08c379a000000000000000000000000000000000000000000000000000000000815260040161077890610d9c565b60405180910390fd5b345f5f3373ffffffffffffffffffffffffffffffffffffffff1673ffffffffffffffffffffffffffffffffffffffff1681526020019081526020015f2081905550565b5f5f60015f9054906101000a900473ffffffffffffffffffffffffffffffffffffffff1673ffffffffffffffffffffffffffffffffffffffff1663feaf968c6040518163ffffffff1660e01b815260040160a060405180830381865afa158015610830573d5f5f3e3d5ffd5b505050506040513d601f19601f820116820180604052508101906108549190610e4d565b5050509150508091505090565b5f5f61086b6107c4565b90506305f5e100818461087e9190610ec4565b6108889190610f32565b915050919050565b5f5ffd5b5f73ffffffffffffffffffffffffffffffffffffffff82169050919050565b5f6108bd82610894565b9050919050565b6108cd816108b3565b81146108d7575f5ffd5b50565b5f813590506108e8816108c4565b92915050565b5f6020828403121561090357610902610890565b5b5f610910848285016108da565b91505092915050565b610922816108b3565b82525050565b5f60208201905061093b5f830184610919565b92915050565b5f819050919050565b61095381610941565b82525050565b5f60208201905061096c5f83018461094a565b92915050565b5f819050919050565b61098481610972565b82525050565b5f60208201905061099d5f83018461097b565b92915050565b7f4e487b71000000000000000000000000000000000000000000000000000000005f52601160045260245ffd5b5f6109da82610941565b91506109e583610941565b92508282019050808211156109fd576109fc6109a3565b5b92915050565b5f82825260208201905092915050565b7f57696e646f77206973206e6f7420636c6f7365642e00000000000000000000005f82015250565b5f610a47601583610a03565b9150610a5282610a13565b602082019050919050565b5f6020820190508181035f830152610a7481610a3b565b9050919050565b7f54617267657420697320726561636865642e00000000000000000000000000005f82015250565b5f610aaf601283610a03565b9150610aba82610a7b565b602082019050919050565b5f6020820190508181035f830152610adc81610aa3565b9050919050565b7f5468657265206973206e6f2066756e6420666f7220796f7500000000000000005f82015250565b5f610b17601883610a03565b9150610b2282610ae3565b602082019050919050565b5f6020820190508181035f830152610b4481610b0b565b9050919050565b5f81905092915050565b50565b5f610b635f83610b4b565b9150610b6e82610b55565b5f82019050919050565b5f610b8282610b58565b9150819050919050565b7f7478206661696c65642e000000000000000000000000000000000000000000005f82015250565b5f610bc0600a83610a03565b9150610bcb82610b8c565b602082019050919050565b5f6020820190508181035f830152610bed81610bb4565b9050919050565b7f546869732066756e6374696f6e2063616e206f6e6c792062652063616c6c65645f8201527f206279206f776e65722e00000000000000000000000000000000000000000000602082015250565b5f610c4e602a83610a03565b9150610c5982610bf4565b604082019050919050565b5f6020820190508181035f830152610c7b81610c42565b9050919050565b7f546172676574206973206e6f7420726561636865642e000000000000000000005f82015250565b5f610cb6601683610a03565b9150610cc182610c82565b602082019050919050565b5f6020820190508181035f830152610ce381610caa565b9050919050565b7f53656e64206d6f726520455448000000000000000000000000000000000000005f82015250565b5f610d1e600d83610a03565b9150610d2982610cea565b602082019050919050565b5f6020820190508181035f830152610d4b81610d12565b9050919050565b7f57696e646f7720697320636c6f7365642e0000000000000000000000000000005f82015250565b5f610d86601183610a03565b9150610d9182610d52565b602082019050919050565b5f6020820190508181035f830152610db381610d7a565b9050919050565b5f69ffffffffffffffffffff82169050919050565b610dd881610dba565b8114610de2575f5ffd5b50565b5f81519050610df381610dcf565b92915050565b610e0281610972565b8114610e0c575f5ffd5b50565b5f81519050610e1d81610df9565b92915050565b610e2c81610941565b8114610e36575f5ffd5b50565b5f81519050610e4781610e23565b92915050565b5f5f5f5f5f60a08688031215610e6657610e65610890565b5b5f610e7388828901610de5565b9550506020610e8488828901610e0f565b9450506040610e9588828901610e39565b9350506060610ea688828901610e39565b9250506080610eb788828901610de5565b9150509295509295909350565b5f610ece82610941565b9150610ed983610941565b9250828202610ee781610941565b91508282048414831517610efe57610efd6109a3565b5b5092915050565b7f4e487b71000000000000000000000000000000000000000000000000000000005f52601260045260245ffd5b5f610f3c82610941565b9150610f4783610941565b925082610f5757610f56610f05565b5b82820490509291505056fea26469706673582212209844bc36b133e1d906fd0dc0be74a262ba97d4ac3351d191b3f1dc93d37938db64736f6c634300081e0033",
					"opcodes": "PUSH1 0x80 PUSH1 0x40 MSTORE CALLVALUE DUP1 ISZERO PUSH2 0xF JUMPI PUSH0 PUSH0 REVERT JUMPDEST POP PUSH1 0x40 MLOAD PUSH2 0x10E0 CODESIZE SUB DUP1 PUSH2 0x10E0 DUP4 CODECOPY DUP2 DUP2 ADD PUSH1 0x40 MSTORE DUP2 ADD SWAP1 PUSH2 0x31 SWAP2 SWAP1 PUSH2 0x110 JUMP JUMPDEST PUSH20 0x694AA1769357215DE4FAC081BF1F309ADC325306 PUSH1 0x1 PUSH0 PUSH2 0x100 EXP DUP2 SLOAD DUP2 PUSH20 0xFFFFFFFFFFFFFFFFFFFFFFFFFFFFFFFFFFFFFFFF MUL NOT AND SWAP1 DUP4 PUSH20 0xFFFFFFFFFFFFFFFFFFFFFFFFFFFFFFFFFFFFFFFF AND MUL OR SWAP1 SSTORE POP CALLER PUSH1 0x2 PUSH0 PUSH2 0x100 EXP DUP2 SLOAD DUP2 PUSH20 0xFFFFFFFFFFFFFFFFFFFFFFFFFFFFFFFFFFFFFFFF MUL NOT AND SWAP1 DUP4 PUSH20 0xFFFFFFFFFFFFFFFFFFFFFFFFFFFFFFFFFFFFFFFF AND MUL OR SWAP1 SSTORE POP TIMESTAMP PUSH1 0x3 DUP2 SWAP1 SSTORE POP DUP1 PUSH1 0x4 DUP2 SWAP1 SSTORE POP POP PUSH2 0x13B JUMP JUMPDEST PUSH0 PUSH0 REVERT JUMPDEST PUSH0 DUP2 SWAP1 POP SWAP2 SWAP1 POP JUMP JUMPDEST PUSH2 0xEF DUP2 PUSH2 0xDD JUMP JUMPDEST DUP2 EQ PUSH2 0xF9 JUMPI PUSH0 PUSH0 REVERT JUMPDEST POP JUMP JUMPDEST PUSH0 DUP2 MLOAD SWAP1 POP PUSH2 0x10A DUP2 PUSH2 0xE6 JUMP JUMPDEST SWAP3 SWAP2 POP POP JUMP JUMPDEST PUSH0 PUSH1 0x20 DUP3 DUP5 SUB SLT ISZERO PUSH2 0x125 JUMPI PUSH2 0x124 PUSH2 0xD9 JUMP JUMPDEST JUMPDEST PUSH0 PUSH2 0x132 DUP5 DUP3 DUP6 ADD PUSH2 0xFC JUMP JUMPDEST SWAP2 POP POP SWAP3 SWAP2 POP POP JUMP JUMPDEST PUSH2 0xF98 DUP1 PUSH2 0x148 PUSH0 CODECOPY PUSH0 RETURN INVALID PUSH1 0x80 PUSH1 0x40 MSTORE PUSH1 0x4 CALLDATASIZE LT PUSH2 0x6F JUMPI PUSH0 CALLDATALOAD PUSH1 0xE0 SHR DUP1 PUSH4 0x8EDD6EB6 GT PUSH2 0x4D JUMPI DUP1 PUSH4 0x8EDD6EB6 EQ PUSH2 0xDB JUMPI DUP1 PUSH4 0x9F883A05 EQ PUSH2 0xF1 JUMPI DUP1 PUSH4 0xB60D4288 EQ PUSH2 0x12D JUMPI DUP1 PUSH4 0xBEA4DFB5 EQ PUSH2 0x137 JUMPI PUSH2 0x6F JUMP JUMPDEST DUP1 PUSH4 0x590E1AE3 EQ PUSH2 0x73 JUMPI DUP1 PUSH4 0x6BE6C88F EQ PUSH2 0x89 JUMPI DUP1 PUSH4 0x8DA5CB5B EQ PUSH2 0xB1 JUMPI JUMPDEST PUSH0 PUSH0 REVERT JUMPDEST CALLVALUE DUP1 ISZERO PUSH2 0x7E JUMPI PUSH0 PUSH0 REVERT JUMPDEST POP PUSH2 0x87 PUSH2 0x161 JUMP JUMPDEST STOP JUMPDEST CALLVALUE DUP1 ISZERO PUSH2 0x94 JUMPI PUSH0 PUSH0 REVERT JUMPDEST POP PUSH2 0xAF PUSH1 0x4 DUP1 CALLDATASIZE SUB DUP2 ADD SWAP1 PUSH2 0xAA SWAP2 SWAP1 PUSH2 0x8EE JUMP JUMPDEST PUSH2 0x3AE JUMP JUMPDEST STOP JUMPDEST CALLVALUE DUP1 ISZERO PUSH2 0xBC JUMPI PUSH0 PUSH0 REVERT JUMPDEST POP PUSH2 0xC5 PUSH2 0x480 JUMP JUMPDEST PUSH1 0x40 MLOAD PUSH2 0xD2 SWAP2 SWAP1 PUSH2 0x928 JUMP JUMPDEST PUSH1 0x40 MLOAD DUP1 SWAP2 SUB SWAP1 RETURN JUMPDEST CALLVALUE DUP1 ISZERO PUSH2 0xE6 JUMPI PUSH0 PUSH0 REVERT JUMPDEST POP PUSH2 0xEF PUSH2 0x4A5 JUMP JUMPDEST STOP JUMPDEST CALLVALUE DUP1 ISZERO PUSH2 0xFC JUMPI PUSH0 PUSH0 REVERT JUMPDEST POP PUSH2 0x117 PUSH1 0x4 DUP1 CALLDATASIZE SUB DUP2 ADD SWAP1 PUSH2 0x112 SWAP2 SWAP1 PUSH2 0x8EE JUMP JUMPDEST PUSH2 0x6C8 JUMP JUMPDEST PUSH1 0x40 MLOAD PUSH2 0x124 SWAP2 SWAP1 PUSH2 0x959 JUMP JUMPDEST PUSH1 0x40 MLOAD DUP1 SWAP2 SUB SWAP1 RETURN JUMPDEST PUSH2 0x135 PUSH2 0x6DC JUMP JUMPDEST STOP JUMPDEST CALLVALUE DUP1 ISZERO PUSH2 0x142 JUMPI PUSH0 PUSH0 REVERT JUMPDEST POP PUSH2 0x14B PUSH2 0x7C4 JUMP JUMPDEST PUSH1 0x40 MLOAD PUSH2 0x158 SWAP2 SWAP1 PUSH2 0x98A JUMP JUMPDEST PUSH1 0x40 MLOAD DUP1 SWAP2 SUB SWAP1 RETURN JUMPDEST PUSH1 0x4 SLOAD PUSH1 0x3 SLOAD PUSH2 0x171 SWAP2 SWAP1 PUSH2 0x9D0 JUMP JUMPDEST TIMESTAMP LT ISZERO PUSH2 0x1B3 JUMPI PUSH1 0x40 MLOAD PUSH32 0x8C379A000000000000000000000000000000000000000000000000000000000 DUP2 MSTORE PUSH1 0x4 ADD PUSH2 0x1AA SWAP1 PUSH2 0xA5D JUMP JUMPDEST PUSH1 0x40 MLOAD DUP1 SWAP2 SUB SWAP1 REVERT JUMPDEST PUSH9 0x3635C9ADC5DEA00000 PUSH2 0x1C6 SELFBALANCE PUSH2 0x861 JUMP JUMPDEST LT PUSH2 0x206 JUMPI PUSH1 0x40 MLOAD PUSH32 0x8C379A000000000000000000000000000000000000000000000000000000000 DUP2 MSTORE PUSH1 0x4 ADD PUSH2 0x1FD SWAP1 PUSH2 0xAC5 JUMP JUMPDEST PUSH1 0x40 MLOAD DUP1 SWAP2 SUB SWAP1 REVERT JUMPDEST PUSH0 PUSH0 PUSH0 CALLER PUSH20 0xFFFFFFFFFFFFFFFFFFFFFFFFFFFFFFFFFFFFFFFF AND PUSH20 0xFFFFFFFFFFFFFFFFFFFFFFFFFFFFFFFFFFFFFFFF AND DUP2 MSTORE PUSH1 0x20 ADD SWAP1 DUP2 MSTORE PUSH1 0x20 ADD PUSH0 KECCAK256 SLOAD SUB PUSH2 0x284 JUMPI PUSH1 0x40 MLOAD PUSH32 0x8C379A000000000000000000000000000000000000000000000000000000000 DUP2 MSTORE PUSH1 0x4 ADD PUSH2 0x27B SWAP1 PUSH2 0xB2D JUMP JUMPDEST PUSH1 0x40 MLOAD DUP1 SWAP2 SUB SWAP1 REVERT JUMPDEST PUSH0 CALLER PUSH20 0xFFFFFFFFFFFFFFFFFFFFFFFFFFFFFFFFFFFFFFFF AND PUSH0 PUSH0 CALLER PUSH20 0xFFFFFFFFFFFFFFFFFFFFFFFFFFFFFFFFFFFFFFFF AND PUSH20 0xFFFFFFFFFFFFFFFFFFFFFFFFFFFFFFFFFFFFFFFF AND DUP2 MSTORE PUSH1 0x20 ADD SWAP1 DUP2 MSTORE PUSH1 0x20 ADD PUSH0 KECCAK256 SLOAD PUSH1 0x40 MLOAD PUSH2 0x2E5 SWAP1 PUSH2 0xB78 JUMP JUMPDEST PUSH0 PUSH1 0x40 MLOAD DUP1 DUP4 SUB DUP2 DUP6 DUP8 GAS CALL SWAP3 POP POP POP RETURNDATASIZE DUP1 PUSH0 DUP2 EQ PUSH2 0x31F JUMPI PUSH1 0x40 MLOAD SWAP2 POP PUSH1 0x1F NOT PUSH1 0x3F RETURNDATASIZE ADD AND DUP3 ADD PUSH1 0x40 MSTORE RETURNDATASIZE DUP3 MSTORE RETURNDATASIZE PUSH0 PUSH1 0x20 DUP5 ADD RETURNDATACOPY PUSH2 0x324 JUMP JUMPDEST PUSH1 0x60 SWAP2 POP JUMPDEST POP POP DUP1 SWAP2 POP POP DUP1 PUSH2 0x36A JUMPI PUSH1 0x40 MLOAD PUSH32 0x8C379A000000000000000000000000000000000000000000000000000000000 DUP2 MSTORE PUSH1 0x4 ADD PUSH2 0x361 SWAP1 PUSH2 0xBD6 JUMP JUMPDEST PUSH1 0x40 MLOAD DUP1 SWAP2 SUB SWAP1 REVERT JUMPDEST PUSH0 PUSH0 PUSH0 CALLER PUSH20 0xFFFFFFFFFFFFFFFFFFFFFFFFFFFFFFFFFFFFFFFF AND PUSH20 0xFFFFFFFFFFFFFFFFFFFFFFFFFFFFFFFFFFFFFFFF AND DUP2 MSTORE PUSH1 0x20 ADD SWAP1 DUP2 MSTORE PUSH1 0x20 ADD PUSH0 KECCAK256 DUP2 SWAP1 SSTORE POP POP JUMP JUMPDEST PUSH1 0x2 PUSH0 SWAP1 SLOAD SWAP1 PUSH2 0x100 EXP SWAP1 DIV PUSH20 0xFFFFFFFFFFFFFFFFFFFFFFFFFFFFFFFFFFFFFFFF AND PUSH20 0xFFFFFFFFFFFFFFFFFFFFFFFFFFFFFFFFFFFFFFFF AND CALLER PUSH20 0xFFFFFFFFFFFFFFFFFFFFFFFFFFFFFFFFFFFFFFFF AND EQ PUSH2 0x43D JUMPI PUSH1 0x40 MLOAD PUSH32 0x8C379A000000000000000000000000000000000000000000000000000000000 DUP2 MSTORE PUSH1 0x4 ADD PUSH2 0x434 SWAP1 PUSH2 0xC64 JUMP JUMPDEST PUSH1 0x40 MLOAD DUP1 SWAP2 SUB SWAP1 REVERT JUMPDEST DUP1 PUSH1 0x2 PUSH0 PUSH2 0x100 EXP DUP2 SLOAD DUP2 PUSH20 0xFFFFFFFFFFFFFFFFFFFFFFFFFFFFFFFFFFFFFFFF MUL NOT AND SWAP1 DUP4 PUSH20 0xFFFFFFFFFFFFFFFFFFFFFFFFFFFFFFFFFFFFFFFF AND MUL OR SWAP1 SSTORE POP POP JUMP JUMPDEST PUSH1 0x2 PUSH0 SWAP1 SLOAD SWAP1 PUSH2 0x100 EXP SWAP1 DIV PUSH20 0xFFFFFFFFFFFFFFFFFFFFFFFFFFFFFFFFFFFFFFFF AND DUP2 JUMP JUMPDEST PUSH1 0x4 SLOAD PUSH1 0x3 SLOAD PUSH2 0x4B5 SWAP2 SWAP1 PUSH2 0x9D0 JUMP JUMPDEST TIMESTAMP LT ISZERO PUSH2 0x4F7 JUMPI PUSH1 0x40 MLOAD PUSH32 0x8C379A000000000000000000000000000000000000000000000000000000000 DUP2 MSTORE PUSH1 0x4 ADD PUSH2 0x4EE SWAP1 PUSH2 0xA5D JUMP JUMPDEST PUSH1 0x40 MLOAD DUP1 SWAP2 SUB SWAP1 REVERT JUMPDEST PUSH1 0x2 PUSH0 SWAP1 SLOAD SWAP1 PUSH2 0x100 EXP SWAP1 DIV PUSH20 0xFFFFFFFFFFFFFFFFFFFFFFFFFFFFFFFFFFFFFFFF AND PUSH20 0xFFFFFFFFFFFFFFFFFFFFFFFFFFFFFFFFFFFFFFFF AND CALLER PUSH20 0xFFFFFFFFFFFFFFFFFFFFFFFFFFFFFFFFFFFFFFFF AND EQ PUSH2 0x586 JUMPI PUSH1 0x40 MLOAD PUSH32 0x8C379A000000000000000000000000000000000000000000000000000000000 DUP2 MSTORE PUSH1 0x4 ADD PUSH2 0x57D SWAP1 PUSH2 0xC64 JUMP JUMPDEST PUSH1 0x40 MLOAD DUP1 SWAP2 SUB SWAP1 REVERT JUMPDEST PUSH9 0x3635C9ADC5DEA00000 PUSH2 0x599 SELFBALANCE PUSH2 0x861 JUMP JUMPDEST LT ISZERO PUSH2 0x5DA JUMPI PUSH1 0x40 MLOAD PUSH32 0x8C379A000000000000000000000000000000000000000000000000000000000 DUP2 MSTORE PUSH1 0x4 ADD PUSH2 0x5D1 SWAP1 PUSH2 0xCCC JUMP JUMPDEST PUSH1 0x40 MLOAD DUP1 SWAP2 SUB SWAP1 REVERT JUMPDEST PUSH0 CALLER PUSH20 0xFFFFFFFFFFFFFFFFFFFFFFFFFFFFFFFFFFFFFFFF AND SELFBALANCE PUSH1 0x40 MLOAD PUSH2 0x5FF SWAP1 PUSH2 0xB78 JUMP JUMPDEST PUSH0 PUSH1 0x40 MLOAD DUP1 DUP4 SUB DUP2 DUP6 DUP8 GAS CALL SWAP3 POP POP POP RETURNDATASIZE DUP1 PUSH0 DUP2 EQ PUSH2 0x639 JUMPI PUSH1 0x40 MLOAD SWAP2 POP PUSH1 0x1F NOT PUSH1 0x3F RETURNDATASIZE ADD AND DUP3 ADD PUSH1 0x40 MSTORE RETURNDATASIZE DUP3 MSTORE RETURNDATASIZE PUSH0 PUSH1 0x20 DUP5 ADD RETURNDATACOPY PUSH2 0x63E JUMP JUMPDEST PUSH1 0x60 SWAP2 POP JUMPDEST POP POP DUP1 SWAP2 POP POP DUP1 PUSH2 0x684 JUMPI PUSH1 0x40 MLOAD PUSH32 0x8C379A000000000000000000000000000000000000000000000000000000000 DUP2 MSTORE PUSH1 0x4 ADD PUSH2 0x67B SWAP1 PUSH2 0xBD6 JUMP JUMPDEST PUSH1 0x40 MLOAD DUP1 SWAP2 SUB SWAP1 REVERT JUMPDEST PUSH0 PUSH0 PUSH0 CALLER PUSH20 0xFFFFFFFFFFFFFFFFFFFFFFFFFFFFFFFFFFFFFFFF AND PUSH20 0xFFFFFFFFFFFFFFFFFFFFFFFFFFFFFFFFFFFFFFFF AND DUP2 MSTORE PUSH1 0x20 ADD SWAP1 DUP2 MSTORE PUSH1 0x20 ADD PUSH0 KECCAK256 DUP2 SWAP1 SSTORE POP POP JUMP JUMPDEST PUSH0 PUSH1 0x20 MSTORE DUP1 PUSH0 MSTORE PUSH1 0x40 PUSH0 KECCAK256 PUSH0 SWAP2 POP SWAP1 POP SLOAD DUP2 JUMP JUMPDEST PUSH9 0x56BC75E2D63100000 PUSH2 0x6EF CALLVALUE PUSH2 0x861 JUMP JUMPDEST LT ISZERO PUSH2 0x730 JUMPI PUSH1 0x40 MLOAD PUSH32 0x8C379A000000000000000000000000000000000000000000000000000000000 DUP2 MSTORE PUSH1 0x4 ADD PUSH2 0x727 SWAP1 PUSH2 0xD34 JUMP JUMPDEST PUSH1 0x40 MLOAD DUP1 SWAP2 SUB SWAP1 REVERT JUMPDEST PUSH1 0x4 SLOAD PUSH1 0x3 SLOAD PUSH2 0x740 SWAP2 SWAP1 PUSH2 0x9D0 JUMP JUMPDEST TIMESTAMP LT PUSH2 0x781 JUMPI PUSH1 0x40 MLOAD PUSH32 0x8C379A000000000000000000000000000000000000000000000000000000000 DUP2 MSTORE PUSH1 0x4 ADD PUSH2 0x778 SWAP1 PUSH2 0xD9C JUMP JUMPDEST PUSH1 0x40 MLOAD DUP1 SWAP2 SUB SWAP1 REVERT JUMPDEST CALLVALUE PUSH0 PUSH0 CALLER PUSH20 0xFFFFFFFFFFFFFFFFFFFFFFFFFFFFFFFFFFFFFFFF AND PUSH20 0xFFFFFFFFFFFFFFFFFFFFFFFFFFFFFFFFFFFFFFFF AND DUP2 MSTORE PUSH1 0x20 ADD SWAP1 DUP2 MSTORE PUSH1 0x20 ADD PUSH0 KECCAK256 DUP2 SWAP1 SSTORE POP JUMP JUMPDEST PUSH0 PUSH0 PUSH1 0x1 PUSH0 SWAP1 SLOAD SWAP1 PUSH2 0x100 EXP SWAP1 DIV PUSH20 0xFFFFFFFFFFFFFFFFFFFFFFFFFFFFFFFFFFFFFFFF AND PUSH20 0xFFFFFFFFFFFFFFFFFFFFFFFFFFFFFFFFFFFFFFFF AND PUSH4 0xFEAF968C PUSH1 0x40 MLOAD DUP2 PUSH4 0xFFFFFFFF AND PUSH1 0xE0 SHL DUP2 MSTORE PUSH1 0x4 ADD PUSH1 0xA0 PUSH1 0x40 MLOAD DUP1 DUP4 SUB DUP2 DUP7 GAS STATICCALL ISZERO DUP1 ISZERO PUSH2 0x830 JUMPI RETURNDATASIZE PUSH0 PUSH0 RETURNDATACOPY RETURNDATASIZE PUSH0 REVERT JUMPDEST POP POP POP POP PUSH1 0x40 MLOAD RETURNDATASIZE PUSH1 0x1F NOT PUSH1 0x1F DUP3 ADD AND DUP3 ADD DUP1 PUSH1 0x40 MSTORE POP DUP2 ADD SWAP1 PUSH2 0x854 SWAP2 SWAP1 PUSH2 0xE4D JUMP JUMPDEST POP POP POP SWAP2 POP POP DUP1 SWAP2 POP POP SWAP1 JUMP JUMPDEST PUSH0 PUSH0 PUSH2 0x86B PUSH2 0x7C4 JUMP JUMPDEST SWAP1 POP PUSH4 0x5F5E100 DUP2 DUP5 PUSH2 0x87E SWAP2 SWAP1 PUSH2 0xEC4 JUMP JUMPDEST PUSH2 0x888 SWAP2 SWAP1 PUSH2 0xF32 JUMP JUMPDEST SWAP2 POP POP SWAP2 SWAP1 POP JUMP JUMPDEST PUSH0 PUSH0 REVERT JUMPDEST PUSH0 PUSH20 0xFFFFFFFFFFFFFFFFFFFFFFFFFFFFFFFFFFFFFFFF DUP3 AND SWAP1 POP SWAP2 SWAP1 POP JUMP JUMPDEST PUSH0 PUSH2 0x8BD DUP3 PUSH2 0x894 JUMP JUMPDEST SWAP1 POP SWAP2 SWAP1 POP JUMP JUMPDEST PUSH2 0x8CD DUP2 PUSH2 0x8B3 JUMP JUMPDEST DUP2 EQ PUSH2 0x8D7 JUMPI PUSH0 PUSH0 REVERT JUMPDEST POP JUMP JUMPDEST PUSH0 DUP2 CALLDATALOAD SWAP1 POP PUSH2 0x8E8 DUP2 PUSH2 0x8C4 JUMP JUMPDEST SWAP3 SWAP2 POP POP JUMP JUMPDEST PUSH0 PUSH1 0x20 DUP3 DUP5 SUB SLT ISZERO PUSH2 0x903 JUMPI PUSH2 0x902 PUSH2 0x890 JUMP JUMPDEST JUMPDEST PUSH0 PUSH2 0x910 DUP5 DUP3 DUP6 ADD PUSH2 0x8DA JUMP JUMPDEST SWAP2 POP POP SWAP3 SWAP2 POP POP JUMP JUMPDEST PUSH2 0x922 DUP2 PUSH2 0x8B3 JUMP JUMPDEST DUP3 MSTORE POP POP JUMP JUMPDEST PUSH0 PUSH1 0x20 DUP3 ADD SWAP1 POP PUSH2 0x93B PUSH0 DUP4 ADD DUP5 PUSH2 0x919 JUMP JUMPDEST SWAP3 SWAP2 POP POP JUMP JUMPDEST PUSH0 DUP2 SWAP1 POP SWAP2 SWAP1 POP JUMP JUMPDEST PUSH2 0x953 DUP2 PUSH2 0x941 JUMP JUMPDEST DUP3 MSTORE POP POP JUMP JUMPDEST PUSH0 PUSH1 0x20 DUP3 ADD SWAP1 POP PUSH2 0x96C PUSH0 DUP4 ADD DUP5 PUSH2 0x94A JUMP JUMPDEST SWAP3 SWAP2 POP POP JUMP JUMPDEST PUSH0 DUP2 SWAP1 POP SWAP2 SWAP1 POP JUMP JUMPDEST PUSH2 0x984 DUP2 PUSH2 0x972 JUMP JUMPDEST DUP3 MSTORE POP POP JUMP JUMPDEST PUSH0 PUSH1 0x20 DUP3 ADD SWAP1 POP PUSH2 0x99D PUSH0 DUP4 ADD DUP5 PUSH2 0x97B JUMP JUMPDEST SWAP3 SWAP2 POP POP JUMP JUMPDEST PUSH32 0x4E487B7100000000000000000000000000000000000000000000000000000000 PUSH0 MSTORE PUSH1 0x11 PUSH1 0x4 MSTORE PUSH1 0x24 PUSH0 REVERT JUMPDEST PUSH0 PUSH2 0x9DA DUP3 PUSH2 0x941 JUMP JUMPDEST SWAP2 POP PUSH2 0x9E5 DUP4 PUSH2 0x941 JUMP JUMPDEST SWAP3 POP DUP3 DUP3 ADD SWAP1 POP DUP1 DUP3 GT ISZERO PUSH2 0x9FD JUMPI PUSH2 0x9FC PUSH2 0x9A3 JUMP JUMPDEST JUMPDEST SWAP3 SWAP2 POP POP JUMP JUMPDEST PUSH0 DUP3 DUP3 MSTORE PUSH1 0x20 DUP3 ADD SWAP1 POP SWAP3 SWAP2 POP POP JUMP JUMPDEST PUSH32 0x57696E646F77206973206E6F7420636C6F7365642E0000000000000000000000 PUSH0 DUP3 ADD MSTORE POP JUMP JUMPDEST PUSH0 PUSH2 0xA47 PUSH1 0x15 DUP4 PUSH2 0xA03 JUMP JUMPDEST SWAP2 POP PUSH2 0xA52 DUP3 PUSH2 0xA13 JUMP JUMPDEST PUSH1 0x20 DUP3 ADD SWAP1 POP SWAP2 SWAP1 POP JUMP JUMPDEST PUSH0 PUSH1 0x20 DUP3 ADD SWAP1 POP DUP2 DUP2 SUB PUSH0 DUP4 ADD MSTORE PUSH2 0xA74 DUP2 PUSH2 0xA3B JUMP JUMPDEST SWAP1 POP SWAP2 SWAP1 POP JUMP JUMPDEST PUSH32 0x54617267657420697320726561636865642E0000000000000000000000000000 PUSH0 DUP3 ADD MSTORE POP JUMP JUMPDEST PUSH0 PUSH2 0xAAF PUSH1 0x12 DUP4 PUSH2 0xA03 JUMP JUMPDEST SWAP2 POP PUSH2 0xABA DUP3 PUSH2 0xA7B JUMP JUMPDEST PUSH1 0x20 DUP3 ADD SWAP1 POP SWAP2 SWAP1 POP JUMP JUMPDEST PUSH0 PUSH1 0x20 DUP3 ADD SWAP1 POP DUP2 DUP2 SUB PUSH0 DUP4 ADD MSTORE PUSH2 0xADC DUP2 PUSH2 0xAA3 JUMP JUMPDEST SWAP1 POP SWAP2 SWAP1 POP JUMP JUMPDEST PUSH32 0x5468657265206973206E6F2066756E6420666F7220796F750000000000000000 PUSH0 DUP3 ADD MSTORE POP JUMP JUMPDEST PUSH0 PUSH2 0xB17 PUSH1 0x18 DUP4 PUSH2 0xA03 JUMP JUMPDEST SWAP2 POP PUSH2 0xB22 DUP3 PUSH2 0xAE3 JUMP JUMPDEST PUSH1 0x20 DUP3 ADD SWAP1 POP SWAP2 SWAP1 POP JUMP JUMPDEST PUSH0 PUSH1 0x20 DUP3 ADD SWAP1 POP DUP2 DUP2 SUB PUSH0 DUP4 ADD MSTORE PUSH2 0xB44 DUP2 PUSH2 0xB0B JUMP JUMPDEST SWAP1 POP SWAP2 SWAP1 POP JUMP JUMPDEST PUSH0 DUP2 SWAP1 POP SWAP3 SWAP2 POP POP JUMP JUMPDEST POP JUMP JUMPDEST PUSH0 PUSH2 0xB63 PUSH0 DUP4 PUSH2 0xB4B JUMP JUMPDEST SWAP2 POP PUSH2 0xB6E DUP3 PUSH2 0xB55 JUMP JUMPDEST PUSH0 DUP3 ADD SWAP1 POP SWAP2 SWAP1 POP JUMP JUMPDEST PUSH0 PUSH2 0xB82 DUP3 PUSH2 0xB58 JUMP JUMPDEST SWAP2 POP DUP2 SWAP1 POP SWAP2 SWAP1 POP JUMP JUMPDEST PUSH32 0x7478206661696C65642E00000000000000000000000000000000000000000000 PUSH0 DUP3 ADD MSTORE POP JUMP JUMPDEST PUSH0 PUSH2 0xBC0 PUSH1 0xA DUP4 PUSH2 0xA03 JUMP JUMPDEST SWAP2 POP PUSH2 0xBCB DUP3 PUSH2 0xB8C JUMP JUMPDEST PUSH1 0x20 DUP3 ADD SWAP1 POP SWAP2 SWAP1 POP JUMP JUMPDEST PUSH0 PUSH1 0x20 DUP3 ADD SWAP1 POP DUP2 DUP2 SUB PUSH0 DUP4 ADD MSTORE PUSH2 0xBED DUP2 PUSH2 0xBB4 JUMP JUMPDEST SWAP1 POP SWAP2 SWAP1 POP JUMP JUMPDEST PUSH32 0x546869732066756E6374696F6E2063616E206F6E6C792062652063616C6C6564 PUSH0 DUP3 ADD MSTORE PUSH32 0x206279206F776E65722E00000000000000000000000000000000000000000000 PUSH1 0x20 DUP3 ADD MSTORE POP JUMP JUMPDEST PUSH0 PUSH2 0xC4E PUSH1 0x2A DUP4 PUSH2 0xA03 JUMP JUMPDEST SWAP2 POP PUSH2 0xC59 DUP3 PUSH2 0xBF4 JUMP JUMPDEST PUSH1 0x40 DUP3 ADD SWAP1 POP SWAP2 SWAP1 POP JUMP JUMPDEST PUSH0 PUSH1 0x20 DUP3 ADD SWAP1 POP DUP2 DUP2 SUB PUSH0 DUP4 ADD MSTORE PUSH2 0xC7B DUP2 PUSH2 0xC42 JUMP JUMPDEST SWAP1 POP SWAP2 SWAP1 POP JUMP JUMPDEST PUSH32 0x546172676574206973206E6F7420726561636865642E00000000000000000000 PUSH0 DUP3 ADD MSTORE POP JUMP JUMPDEST PUSH0 PUSH2 0xCB6 PUSH1 0x16 DUP4 PUSH2 0xA03 JUMP JUMPDEST SWAP2 POP PUSH2 0xCC1 DUP3 PUSH2 0xC82 JUMP JUMPDEST PUSH1 0x20 DUP3 ADD SWAP1 POP SWAP2 SWAP1 POP JUMP JUMPDEST PUSH0 PUSH1 0x20 DUP3 ADD SWAP1 POP DUP2 DUP2 SUB PUSH0 DUP4 ADD MSTORE PUSH2 0xCE3 DUP2 PUSH2 0xCAA JUMP JUMPDEST SWAP1 POP SWAP2 SWAP1 POP JUMP JUMPDEST PUSH32 0x53656E64206D6F72652045544800000000000000000000000000000000000000 PUSH0 DUP3 ADD MSTORE POP JUMP JUMPDEST PUSH0 PUSH2 0xD1E PUSH1 0xD DUP4 PUSH2 0xA03 JUMP JUMPDEST SWAP2 POP PUSH2 0xD29 DUP3 PUSH2 0xCEA JUMP JUMPDEST PUSH1 0x20 DUP3 ADD SWAP1 POP SWAP2 SWAP1 POP JUMP JUMPDEST PUSH0 PUSH1 0x20 DUP3 ADD SWAP1 POP DUP2 DUP2 SUB PUSH0 DUP4 ADD MSTORE PUSH2 0xD4B DUP2 PUSH2 0xD12 JUMP JUMPDEST SWAP1 POP SWAP2 SWAP1 POP JUMP JUMPDEST PUSH32 0x57696E646F7720697320636C6F7365642E000000000000000000000000000000 PUSH0 DUP3 ADD MSTORE POP JUMP JUMPDEST PUSH0 PUSH2 0xD86 PUSH1 0x11 DUP4 PUSH2 0xA03 JUMP JUMPDEST SWAP2 POP PUSH2 0xD91 DUP3 PUSH2 0xD52 JUMP JUMPDEST PUSH1 0x20 DUP3 ADD SWAP1 POP SWAP2 SWAP1 POP JUMP JUMPDEST PUSH0 PUSH1 0x20 DUP3 ADD SWAP1 POP DUP2 DUP2 SUB PUSH0 DUP4 ADD MSTORE PUSH2 0xDB3 DUP2 PUSH2 0xD7A JUMP JUMPDEST SWAP1 POP SWAP2 SWAP1 POP JUMP JUMPDEST PUSH0 PUSH10 0xFFFFFFFFFFFFFFFFFFFF DUP3 AND SWAP1 POP SWAP2 SWAP1 POP JUMP JUMPDEST PUSH2 0xDD8 DUP2 PUSH2 0xDBA JUMP JUMPDEST DUP2 EQ PUSH2 0xDE2 JUMPI PUSH0 PUSH0 REVERT JUMPDEST POP JUMP JUMPDEST PUSH0 DUP2 MLOAD SWAP1 POP PUSH2 0xDF3 DUP2 PUSH2 0xDCF JUMP JUMPDEST SWAP3 SWAP2 POP POP JUMP JUMPDEST PUSH2 0xE02 DUP2 PUSH2 0x972 JUMP JUMPDEST DUP2 EQ PUSH2 0xE0C JUMPI PUSH0 PUSH0 REVERT JUMPDEST POP JUMP JUMPDEST PUSH0 DUP2 MLOAD SWAP1 POP PUSH2 0xE1D DUP2 PUSH2 0xDF9 JUMP JUMPDEST SWAP3 SWAP2 POP POP JUMP JUMPDEST PUSH2 0xE2C DUP2 PUSH2 0x941 JUMP JUMPDEST DUP2 EQ PUSH2 0xE36 JUMPI PUSH0 PUSH0 REVERT JUMPDEST POP JUMP JUMPDEST PUSH0 DUP2 MLOAD SWAP1 POP PUSH2 0xE47 DUP2 PUSH2 0xE23 JUMP JUMPDEST SWAP3 SWAP2 POP POP JUMP JUMPDEST PUSH0 PUSH0 PUSH0 PUSH0 PUSH0 PUSH1 0xA0 DUP7 DUP9 SUB SLT ISZERO PUSH2 0xE66 JUMPI PUSH2 0xE65 PUSH2 0x890 JUMP JUMPDEST JUMPDEST PUSH0 PUSH2 0xE73 DUP9 DUP3 DUP10 ADD PUSH2 0xDE5 JUMP JUMPDEST SWAP6 POP POP PUSH1 0x20 PUSH2 0xE84 DUP9 DUP3 DUP10 ADD PUSH2 0xE0F JUMP JUMPDEST SWAP5 POP POP PUSH1 0x40 PUSH2 0xE95 DUP9 DUP3 DUP10 ADD PUSH2 0xE39 JUMP JUMPDEST SWAP4 POP POP PUSH1 0x60 PUSH2 0xEA6 DUP9 DUP3 DUP10 ADD PUSH2 0xE39 JUMP JUMPDEST SWAP3 POP POP PUSH1 0x80 PUSH2 0xEB7 DUP9 DUP3 DUP10 ADD PUSH2 0xDE5 JUMP JUMPDEST SWAP2 POP POP SWAP3 SWAP6 POP SWAP3 SWAP6 SWAP1 SWAP4 POP JUMP JUMPDEST PUSH0 PUSH2 0xECE DUP3 PUSH2 0x941 JUMP JUMPDEST SWAP2 POP PUSH2 0xED9 DUP4 PUSH2 0x941 JUMP JUMPDEST SWAP3 POP DUP3 DUP3 MUL PUSH2 0xEE7 DUP2 PUSH2 0x941 JUMP JUMPDEST SWAP2 POP DUP3 DUP3 DIV DUP5 EQ DUP4 ISZERO OR PUSH2 0xEFE JUMPI PUSH2 0xEFD PUSH2 0x9A3 JUMP JUMPDEST JUMPDEST POP SWAP3 SWAP2 POP POP JUMP JUMPDEST PUSH32 0x4E487B7100000000000000000000000000000000000000000000000000000000 PUSH0 MSTORE PUSH1 0x12 PUSH1 0x4 MSTORE PUSH1 0x24 PUSH0 REVERT JUMPDEST PUSH0 PUSH2 0xF3C DUP3 PUSH2 0x941 JUMP JUMPDEST SWAP2 POP PUSH2 0xF47 DUP4 PUSH2 0x941 JUMP JUMPDEST SWAP3 POP DUP3 PUSH2 0xF57 JUMPI PUSH2 0xF56 PUSH2 0xF05 JUMP JUMPDEST JUMPDEST DUP3 DUP3 DIV SWAP1 POP SWAP3 SWAP2 POP POP JUMP INVALID LOG2 PUSH5 0x6970667358 0x22 SLT KECCAK256 SWAP9 PREVRANDAO 0xBC CALLDATASIZE 0xB1 CALLER RJUMPI 0xD906 REVERT 0xD 0xC0 0xBE PUSH21 0xA262BA97D4AC3351D191B3F1DC93D37938DB64736F PUSH13 0x634300081E0033000000000000 "
				},
				"gasEstimates": {
					"creation": {
						"codeDepositCost": "798400",
						"executionCost": "infinite",
						"totalCost": "infinite"
					},
					"external": {
						"fund()": "infinite",
						"fundersToAmount(address)": "2823",
						"getChainlinkDataFeedLatestAnswer()": "infinite",
						"getFund()": "infinite",
						"owner()": "2553",
						"refund()": "infinite",
						"trasferOwnership(address)": "26907"
					},
					"internal": {
						"convertEthToUsd(uint256)": "infinite"
					}
				},
				"methodIdentifiers": {
					"fund()": "b60d4288",
					"fundersToAmount(address)": "9f883a05",
					"getChainlinkDataFeedLatestAnswer()": "bea4dfb5",
					"getFund()": "8edd6eb6",
					"owner()": "8da5cb5b",
					"refund()": "590e1ae3",
					"trasferOwnership(address)": "6be6c88f"
				}
			},
			"storageLayout": {
				"storage": [
					{
						"astId": 53,
						"contract": "lesson3/FundMe.sol:FundMe",
						"label": "fundersToAmount",
						"offset": 0,
						"slot": "0",
						"type": "t_mapping(t_address,t_uint256)"
					},
					{
						"astId": 63,
						"contract": "lesson3/FundMe.sol:FundMe",
						"label": "dataFeed",
						"offset": 0,
						"slot": "1",
						"type": "t_contract(AggregatorV3Interface)45"
					},
					{
						"astId": 72,
						"contract": "lesson3/FundMe.sol:FundMe",
						"label": "owner",
						"offset": 0,
						"slot": "2",
						"type": "t_address"
					},
					{
						"astId": 74,
						"contract": "lesson3/FundMe.sol:FundMe",
						"label": "deploymentTimestamp",
						"offset": 0,
						"slot": "3",
						"type": "t_uint256"
					},
					{
						"astId": 76,
						"contract": "lesson3/FundMe.sol:FundMe",
						"label": "lockTime",
						"offset": 0,
						"slot": "4",
						"type": "t_uint256"
					}
				],
				"types": {
					"t_address": {
						"encoding": "inplace",
						"label": "address",
						"numberOfBytes": "20"
					},
					"t_contract(AggregatorV3Interface)45": {
						"encoding": "inplace",
						"label": "contract AggregatorV3Interface",
						"numberOfBytes": "20"
					},
					"t_mapping(t_address,t_uint256)": {
						"encoding": "mapping",
						"key": "t_address",
						"label": "mapping(address => uint256)",
						"numberOfBytes": "32",
						"value": "t_uint256"
					},
					"t_uint256": {
						"encoding": "inplace",
						"label": "uint256",
						"numberOfBytes": "32"
					}
				}
			},
			"userdoc": {
				"kind": "user",
				"methods": {},
				"version": 1
			}
		}
	}
}