{
	"lesson3/FundToken.sol": {
		"FundToken": {
			"abi": [
				{
					"inputs": [
						{
							"internalType": "string",
							"name": "_tokenName",
							"type": "string"
						},
						{
							"internalType": "string",
							"name": "_tokenSymbol",
							"type": "string"
						}
					],
					"stateMutability": "nonpayable",
					"type": "constructor"
				},
				{
					"inputs": [
						{
							"internalType": "address",
							"name": "addr",
							"type": "address"
						}
					],
					"name": "balanceOf",
					"outputs": [
						{
							"internalType": "uint256",
							"name": "",
							"type": "uint256"
						}
					],
					"stateMutability": "view",
					"type": "function"
				},
				{
					"inputs": [
						{
							"internalType": "address",
							"name": "",
							"type": "address"
						}
					],
					"name": "balances",
					"outputs": [
						{
							"internalType": "uint256",
							"name": "",
							"type": "uint256"
						}
					],
					"stateMutability": "view",
					"type": "function"
				},
				{
					"inputs": [
						{
							"internalType": "uint256",
							"name": "amountToMint",
							"type": "uint256"
						}
					],
					"name": "mint",
					"outputs": [],
					"stateMutability": "nonpayable",
					"type": "function"
				},
				{
					"inputs": [],
					"name": "owner",
					"outputs": [
						{
							"internalType": "address",
							"name": "",
							"type": "address"
						}
					],
					"stateMutability": "view",
					"type": "function"
				},
				{
					"inputs": [],
					"name": "tokenName",
					"outputs": [
						{
							"internalType": "string",
							"name": "",
							"type": "string"
						}
					],
					"stateMutability": "view",
					"type": "function"
				},
				{
					"inputs": [],
					"name": "tokenSymbol",
					"outputs": [
						{
							"internalType": "string",
							"name": "",
							"type": "string"
						}
					],
					"stateMutability": "view",
					"type": "function"
				},
				{
					"inputs": [],
					"name": "totalSupply",
					"outputs": [
						{
							"internalType": "uint256",
							"name": "",
							"type": "uint256"
						}
					],
					"stateMutability": "view",
					"type": "function"
				},
				{
					"inputs": [
						{
							"internalType": "address",
							"name": "payee",
							"type": "address"
						},
						{
							"internalType": "uint256",
							"name": "amount",
							"type": "uint256"
						}
					],
					"name": "transfer",
					"outputs": [],
					"stateMutability": "nonpayable",
					"type": "function"
				}
			],
			"devdoc": {
				"kind": "dev",
				"methods": {},
				"version": 1
			},
			"evm": {
				"assembly": "    /* \"lesson3/FundToken.sol\":58:1210  contract FundToken {... */\n  mstore(0x40, 0x80)\n    /* \"lesson3/FundToken.sol\":405:574  constructor(string memory _tokenName, string memory _tokenSymbol) {... */\n  callvalue\n  dup1\n  iszero\n  tag_1\n  jumpi\n  0x00\n  dup1\n  revert\ntag_1:\n  pop\n  mload(0x40)\n  sub(codesize, bytecodeSize)\n  dup1\n  bytecodeSize\n  dup4\n  codecopy\n  dup2\n  dup2\n  add\n  0x40\n  mstore\n  dup2\n  add\n  swap1\n  tag_2\n  swap2\n  swap1\n  tag_3\n  jump\t// in\ntag_2:\n    /* \"lesson3/FundToken.sol\":493:503  _tokenName */\n  dup2\n    /* \"lesson3/FundToken.sol\":481:490  tokenName */\n  0x00\n    /* \"lesson3/FundToken.sol\":481:503  tokenName = _tokenName */\n  swap1\n  dup2\n  tag_6\n  swap2\n  swap1\n  tag_7\n  jump\t// in\ntag_6:\n  pop\n    /* \"lesson3/FundToken.sol\":527:539  _tokenSymbol */\n  dup1\n    /* \"lesson3/FundToken.sol\":513:524  tokenSymbol */\n  0x01\n    /* \"lesson3/FundToken.sol\":513:539  tokenSymbol = _tokenSymbol */\n  swap1\n  dup2\n  tag_8\n  swap2\n  swap1\n  tag_7\n  jump\t// in\ntag_8:\n  pop\n    /* \"lesson3/FundToken.sol\":557:567  msg.sender */\n  caller\n    /* \"lesson3/FundToken.sol\":549:554  owner */\n  0x03\n  0x00\n    /* \"lesson3/FundToken.sol\":549:567  owner = msg.sender */\n  0x0100\n  exp\n  dup2\n  sload\n  dup2\n  0xffffffffffffffffffffffffffffffffffffffff\n  mul\n  not\n  and\n  swap1\n  dup4\n  0xffffffffffffffffffffffffffffffffffffffff\n  and\n  mul\n  or\n  swap1\n  sstore\n  pop\n    /* \"lesson3/FundToken.sol\":405:574  constructor(string memory _tokenName, string memory _tokenSymbol) {... */\n  pop\n  pop\n    /* \"lesson3/FundToken.sol\":58:1210  contract FundToken {... */\n  jump(tag_9)\n    /* \"#utility.yul\":7:82   */\ntag_10:\n    /* \"#utility.yul\":40:46   */\n  0x00\n    /* \"#utility.yul\":73:75   */\n  0x40\n    /* \"#utility.yul\":67:76   */\n  mload\n    /* \"#utility.yul\":57:76   */\n  swap1\n  pop\n    /* \"#utility.yul\":7:82   */\n  swap1\n  jump\t// out\n    /* \"#utility.yul\":88:205   */\ntag_11:\n    /* \"#utility.yul\":197:198   */\n  0x00\n    /* \"#utility.yul\":194:195   */\n  dup1\n    /* \"#utility.yul\":187:199   */\n  revert\n    /* \"#utility.yul\":211:328   */\ntag_12:\n    /* \"#utility.yul\":320:321   */\n  0x00\n    /* \"#utility.yul\":317:318   */\n  dup1\n    /* \"#utility.yul\":310:322   */\n  revert\n    /* \"#utility.yul\":334:451   */\ntag_13:\n    /* \"#utility.yul\":443:444   */\n  0x00\n    /* \"#utility.yul\":440:441   */\n  dup1\n    /* \"#utility.yul\":433:445   */\n  revert\n    /* \"#utility.yul\":457:574   */\ntag_14:\n    /* \"#utility.yul\":566:567   */\n  0x00\n    /* \"#utility.yul\":563:564   */\n  dup1\n    /* \"#utility.yul\":556:568   */\n  revert\n    /* \"#utility.yul\":580:682   */\ntag_15:\n    /* \"#utility.yul\":621:627   */\n  0x00\n    /* \"#utility.yul\":672:674   */\n  0x1f\n    /* \"#utility.yul\":668:675   */\n  not\n    /* \"#utility.yul\":663:665   */\n  0x1f\n    /* \"#utility.yul\":656:661   */\n  dup4\n    /* \"#utility.yul\":652:666   */\n  add\n    /* \"#utility.yul\":648:676   */\n  and\n    /* \"#utility.yul\":638:676   */\n  swap1\n  pop\n    /* \"#utility.yul\":580:682   */\n  swap2\n  swap1\n  pop\n  jump\t// out\n    /* \"#utility.yul\":688:868   */\ntag_16:\n    /* \"#utility.yul\":736:813   */\n  0x4e487b7100000000000000000000000000000000000000000000000000000000\n    /* \"#utility.yul\":733:734   */\n  0x00\n    /* \"#utility.yul\":726:814   */\n  mstore\n    /* \"#utility.yul\":833:837   */\n  0x41\n    /* \"#utility.yul\":830:831   */\n  0x04\n    /* \"#utility.yul\":823:838   */\n  mstore\n    /* \"#utility.yul\":857:861   */\n  0x24\n    /* \"#utility.yul\":854:855   */\n  0x00\n    /* \"#utility.yul\":847:862   */\n  revert\n    /* \"#utility.yul\":874:1155   */\ntag_17:\n    /* \"#utility.yul\":957:984   */\n  tag_51\n    /* \"#utility.yul\":979:983   */\n  dup3\n    /* \"#utility.yul\":957:984   */\n  tag_15\n  jump\t// in\ntag_51:\n    /* \"#utility.yul\":949:955   */\n  dup2\n    /* \"#utility.yul\":945:985   */\n  add\n    /* \"#utility.yul\":1087:1093   */\n  dup2\n    /* \"#utility.yul\":1075:1085   */\n  dup2\n    /* \"#utility.yul\":1072:1094   */\n  lt\n    /* \"#utility.yul\":1051:1069   */\n  0xffffffffffffffff\n    /* \"#utility.yul\":1039:1049   */\n  dup3\n    /* \"#utility.yul\":1036:1070   */\n  gt\n    /* \"#utility.yul\":1033:1095   */\n  or\n    /* \"#utility.yul\":1030:1118   */\n  iszero\n  tag_52\n  jumpi\n    /* \"#utility.yul\":1098:1116   */\n  tag_53\n  tag_16\n  jump\t// in\ntag_53:\n    /* \"#utility.yul\":1030:1118   */\ntag_52:\n    /* \"#utility.yul\":1138:1148   */\n  dup1\n    /* \"#utility.yul\":1134:1136   */\n  0x40\n    /* \"#utility.yul\":1127:1149   */\n  mstore\n    /* \"#utility.yul\":917:1155   */\n  pop\n    /* \"#utility.yul\":874:1155   */\n  pop\n  pop\n  jump\t// out\n    /* \"#utility.yul\":1161:1290   */\ntag_18:\n    /* \"#utility.yul\":1195:1201   */\n  0x00\n    /* \"#utility.yul\":1222:1242   */\n  tag_55\n  tag_10\n  jump\t// in\ntag_55:\n    /* \"#utility.yul\":1212:1242   */\n  swap1\n  pop\n    /* \"#utility.yul\":1251:1284   */\n  tag_56\n    /* \"#utility.yul\":1279:1283   */\n  dup3\n    /* \"#utility.yul\":1271:1277   */\n  dup3\n    /* \"#utility.yul\":1251:1284   */\n  tag_17\n  jump\t// in\ntag_56:\n    /* \"#utility.yul\":1161:1290   */\n  swap2\n  swap1\n  pop\n  jump\t// out\n    /* \"#utility.yul\":1296:1604   */\ntag_19:\n    /* \"#utility.yul\":1358:1362   */\n  0x00\n    /* \"#utility.yul\":1448:1466   */\n  0xffffffffffffffff\n    /* \"#utility.yul\":1440:1446   */\n  dup3\n    /* \"#utility.yul\":1437:1467   */\n  gt\n    /* \"#utility.yul\":1434:1490   */\n  iszero\n  tag_58\n  jumpi\n    /* \"#utility.yul\":1470:1488   */\n  tag_59\n  tag_16\n  jump\t// in\ntag_59:\n    /* \"#utility.yul\":1434:1490   */\ntag_58:\n    /* \"#utility.yul\":1508:1537   */\n  tag_60\n    /* \"#utility.yul\":1530:1536   */\n  dup3\n    /* \"#utility.yul\":1508:1537   */\n  tag_15\n  jump\t// in\ntag_60:\n    /* \"#utility.yul\":1500:1537   */\n  swap1\n  pop\n    /* \"#utility.yul\":1592:1596   */\n  0x20\n    /* \"#utility.yul\":1586:1590   */\n  dup2\n    /* \"#utility.yul\":1582:1597   */\n  add\n    /* \"#utility.yul\":1574:1597   */\n  swap1\n  pop\n    /* \"#utility.yul\":1296:1604   */\n  swap2\n  swap1\n  pop\n  jump\t// out\n    /* \"#utility.yul\":1610:1858   */\ntag_20:\n    /* \"#utility.yul\":1692:1693   */\n  0x00\n    /* \"#utility.yul\":1702:1815   */\ntag_62:\n    /* \"#utility.yul\":1716:1722   */\n  dup4\n    /* \"#utility.yul\":1713:1714   */\n  dup2\n    /* \"#utility.yul\":1710:1723   */\n  lt\n    /* \"#utility.yul\":1702:1815   */\n  iszero\n  tag_64\n  jumpi\n    /* \"#utility.yul\":1801:1802   */\n  dup1\n    /* \"#utility.yul\":1796:1799   */\n  dup3\n    /* \"#utility.yul\":1792:1803   */\n  add\n    /* \"#utility.yul\":1786:1804   */\n  mload\n    /* \"#utility.yul\":1782:1783   */\n  dup2\n    /* \"#utility.yul\":1777:1780   */\n  dup5\n    /* \"#utility.yul\":1773:1784   */\n  add\n    /* \"#utility.yul\":1766:1805   */\n  mstore\n    /* \"#utility.yul\":1738:1740   */\n  0x20\n    /* \"#utility.yul\":1735:1736   */\n  dup2\n    /* \"#utility.yul\":1731:1741   */\n  add\n    /* \"#utility.yul\":1726:1741   */\n  swap1\n  pop\n    /* \"#utility.yul\":1702:1815   */\n  jump(tag_62)\ntag_64:\n    /* \"#utility.yul\":1849:1850   */\n  0x00\n    /* \"#utility.yul\":1840:1846   */\n  dup5\n    /* \"#utility.yul\":1835:1838   */\n  dup5\n    /* \"#utility.yul\":1831:1847   */\n  add\n    /* \"#utility.yul\":1824:1851   */\n  mstore\n    /* \"#utility.yul\":1672:1858   */\n  pop\n    /* \"#utility.yul\":1610:1858   */\n  pop\n  pop\n  pop\n  jump\t// out\n    /* \"#utility.yul\":1864:2298   */\ntag_21:\n    /* \"#utility.yul\":1953:1958   */\n  0x00\n    /* \"#utility.yul\":1978:2044   */\n  tag_66\n    /* \"#utility.yul\":1994:2043   */\n  tag_67\n    /* \"#utility.yul\":2036:2042   */\n  dup5\n    /* \"#utility.yul\":1994:2043   */\n  tag_19\n  jump\t// in\ntag_67:\n    /* \"#utility.yul\":1978:2044   */\n  tag_18\n  jump\t// in\ntag_66:\n    /* \"#utility.yul\":1969:2044   */\n  swap1\n  pop\n    /* \"#utility.yul\":2067:2073   */\n  dup3\n    /* \"#utility.yul\":2060:2065   */\n  dup2\n    /* \"#utility.yul\":2053:2074   */\n  mstore\n    /* \"#utility.yul\":2105:2109   */\n  0x20\n    /* \"#utility.yul\":2098:2103   */\n  dup2\n    /* \"#utility.yul\":2094:2110   */\n  add\n    /* \"#utility.yul\":2143:2146   */\n  dup5\n    /* \"#utility.yul\":2134:2140   */\n  dup5\n    /* \"#utility.yul\":2129:2132   */\n  dup5\n    /* \"#utility.yul\":2125:2141   */\n  add\n    /* \"#utility.yul\":2122:2147   */\n  gt\n    /* \"#utility.yul\":2119:2231   */\n  iszero\n  tag_68\n  jumpi\n    /* \"#utility.yul\":2150:2229   */\n  tag_69\n  tag_14\n  jump\t// in\ntag_69:\n    /* \"#utility.yul\":2119:2231   */\ntag_68:\n    /* \"#utility.yul\":2240:2292   */\n  tag_70\n    /* \"#utility.yul\":2285:2291   */\n  dup5\n    /* \"#utility.yul\":2280:2283   */\n  dup3\n    /* \"#utility.yul\":2275:2278   */\n  dup6\n    /* \"#utility.yul\":2240:2292   */\n  tag_20\n  jump\t// in\ntag_70:\n    /* \"#utility.yul\":1959:2298   */\n  pop\n    /* \"#utility.yul\":1864:2298   */\n  swap4\n  swap3\n  pop\n  pop\n  pop\n  jump\t// out\n    /* \"#utility.yul\":2318:2673   */\ntag_22:\n    /* \"#utility.yul\":2385:2390   */\n  0x00\n    /* \"#utility.yul\":2434:2437   */\n  dup3\n    /* \"#utility.yul\":2427:2431   */\n  0x1f\n    /* \"#utility.yul\":2419:2425   */\n  dup4\n    /* \"#utility.yul\":2415:2432   */\n  add\n    /* \"#utility.yul\":2411:2438   */\n  slt\n    /* \"#utility.yul\":2401:2523   */\n  tag_72\n  jumpi\n    /* \"#utility.yul\":2442:2521   */\n  tag_73\n  tag_13\n  jump\t// in\ntag_73:\n    /* \"#utility.yul\":2401:2523   */\ntag_72:\n    /* \"#utility.yul\":2552:2558   */\n  dup2\n    /* \"#utility.yul\":2546:2559   */\n  mload\n    /* \"#utility.yul\":2577:2667   */\n  tag_74\n    /* \"#utility.yul\":2663:2666   */\n  dup5\n    /* \"#utility.yul\":2655:2661   */\n  dup3\n    /* \"#utility.yul\":2648:2652   */\n  0x20\n    /* \"#utility.yul\":2640:2646   */\n  dup7\n    /* \"#utility.yul\":2636:2653   */\n  add\n    /* \"#utility.yul\":2577:2667   */\n  tag_21\n  jump\t// in\ntag_74:\n    /* \"#utility.yul\":2568:2667   */\n  swap2\n  pop\n    /* \"#utility.yul\":2391:2673   */\n  pop\n    /* \"#utility.yul\":2318:2673   */\n  swap3\n  swap2\n  pop\n  pop\n  jump\t// out\n    /* \"#utility.yul\":2679:3532   */\ntag_3:\n    /* \"#utility.yul\":2778:2784   */\n  0x00\n    /* \"#utility.yul\":2786:2792   */\n  dup1\n    /* \"#utility.yul\":2835:2837   */\n  0x40\n    /* \"#utility.yul\":2823:2832   */\n  dup4\n    /* \"#utility.yul\":2814:2821   */\n  dup6\n    /* \"#utility.yul\":2810:2833   */\n  sub\n    /* \"#utility.yul\":2806:2838   */\n  slt\n    /* \"#utility.yul\":2803:2922   */\n  iszero\n  tag_76\n  jumpi\n    /* \"#utility.yul\":2841:2920   */\n  tag_77\n  tag_11\n  jump\t// in\ntag_77:\n    /* \"#utility.yul\":2803:2922   */\ntag_76:\n    /* \"#utility.yul\":2982:2983   */\n  0x00\n    /* \"#utility.yul\":2971:2980   */\n  dup4\n    /* \"#utility.yul\":2967:2984   */\n  add\n    /* \"#utility.yul\":2961:2985   */\n  mload\n    /* \"#utility.yul\":3012:3030   */\n  0xffffffffffffffff\n    /* \"#utility.yul\":3004:3010   */\n  dup2\n    /* \"#utility.yul\":3001:3031   */\n  gt\n    /* \"#utility.yul\":2998:3115   */\n  iszero\n  tag_78\n  jumpi\n    /* \"#utility.yul\":3034:3113   */\n  tag_79\n  tag_12\n  jump\t// in\ntag_79:\n    /* \"#utility.yul\":2998:3115   */\ntag_78:\n    /* \"#utility.yul\":3139:3213   */\n  tag_80\n    /* \"#utility.yul\":3205:3212   */\n  dup6\n    /* \"#utility.yul\":3196:3202   */\n  dup3\n    /* \"#utility.yul\":3185:3194   */\n  dup7\n    /* \"#utility.yul\":3181:3203   */\n  add\n    /* \"#utility.yul\":3139:3213   */\n  tag_22\n  jump\t// in\ntag_80:\n    /* \"#utility.yul\":3129:3213   */\n  swap3\n  pop\n    /* \"#utility.yul\":2932:3223   */\n  pop\n    /* \"#utility.yul\":3283:3285   */\n  0x20\n    /* \"#utility.yul\":3272:3281   */\n  dup4\n    /* \"#utility.yul\":3268:3286   */\n  add\n    /* \"#utility.yul\":3262:3287   */\n  mload\n    /* \"#utility.yul\":3314:3332   */\n  0xffffffffffffffff\n    /* \"#utility.yul\":3306:3312   */\n  dup2\n    /* \"#utility.yul\":3303:3333   */\n  gt\n    /* \"#utility.yul\":3300:3417   */\n  iszero\n  tag_81\n  jumpi\n    /* \"#utility.yul\":3336:3415   */\n  tag_82\n  tag_12\n  jump\t// in\ntag_82:\n    /* \"#utility.yul\":3300:3417   */\ntag_81:\n    /* \"#utility.yul\":3441:3515   */\n  tag_83\n    /* \"#utility.yul\":3507:3514   */\n  dup6\n    /* \"#utility.yul\":3498:3504   */\n  dup3\n    /* \"#utility.yul\":3487:3496   */\n  dup7\n    /* \"#utility.yul\":3483:3505   */\n  add\n    /* \"#utility.yul\":3441:3515   */\n  tag_22\n  jump\t// in\ntag_83:\n    /* \"#utility.yul\":3431:3515   */\n  swap2\n  pop\n    /* \"#utility.yul\":3233:3525   */\n  pop\n    /* \"#utility.yul\":2679:3532   */\n  swap3\n  pop\n  swap3\n  swap1\n  pop\n  jump\t// out\n    /* \"#utility.yul\":3538:3637   */\ntag_23:\n    /* \"#utility.yul\":3590:3596   */\n  0x00\n    /* \"#utility.yul\":3624:3629   */\n  dup2\n    /* \"#utility.yul\":3618:3630   */\n  mload\n    /* \"#utility.yul\":3608:3630   */\n  swap1\n  pop\n    /* \"#utility.yul\":3538:3637   */\n  swap2\n  swap1\n  pop\n  jump\t// out\n    /* \"#utility.yul\":3643:3823   */\ntag_24:\n    /* \"#utility.yul\":3691:3768   */\n  0x4e487b7100000000000000000000000000000000000000000000000000000000\n    /* \"#utility.yul\":3688:3689   */\n  0x00\n    /* \"#utility.yul\":3681:3769   */\n  mstore\n    /* \"#utility.yul\":3788:3792   */\n  0x22\n    /* \"#utility.yul\":3785:3786   */\n  0x04\n    /* \"#utility.yul\":3778:3793   */\n  mstore\n    /* \"#utility.yul\":3812:3816   */\n  0x24\n    /* \"#utility.yul\":3809:3810   */\n  0x00\n    /* \"#utility.yul\":3802:3817   */\n  revert\n    /* \"#utility.yul\":3829:4149   */\ntag_25:\n    /* \"#utility.yul\":3873:3879   */\n  0x00\n    /* \"#utility.yul\":3910:3911   */\n  0x02\n    /* \"#utility.yul\":3904:3908   */\n  dup3\n    /* \"#utility.yul\":3900:3912   */\n  div\n    /* \"#utility.yul\":3890:3912   */\n  swap1\n  pop\n    /* \"#utility.yul\":3957:3958   */\n  0x01\n    /* \"#utility.yul\":3951:3955   */\n  dup3\n    /* \"#utility.yul\":3947:3959   */\n  and\n    /* \"#utility.yul\":3978:3996   */\n  dup1\n    /* \"#utility.yul\":3968:4049   */\n  tag_87\n  jumpi\n    /* \"#utility.yul\":4034:4038   */\n  0x7f\n    /* \"#utility.yul\":4026:4032   */\n  dup3\n    /* \"#utility.yul\":4022:4039   */\n  and\n    /* \"#utility.yul\":4012:4039   */\n  swap2\n  pop\n    /* \"#utility.yul\":3968:4049   */\ntag_87:\n    /* \"#utility.yul\":4096:4098   */\n  0x20\n    /* \"#utility.yul\":4088:4094   */\n  dup3\n    /* \"#utility.yul\":4085:4099   */\n  lt\n    /* \"#utility.yul\":4065:4083   */\n  dup2\n    /* \"#utility.yul\":4062:4100   */\n  sub\n    /* \"#utility.yul\":4059:4143   */\n  tag_88\n  jumpi\n    /* \"#utility.yul\":4115:4133   */\n  tag_89\n  tag_24\n  jump\t// in\ntag_89:\n    /* \"#utility.yul\":4059:4143   */\ntag_88:\n    /* \"#utility.yul\":3880:4149   */\n  pop\n    /* \"#utility.yul\":3829:4149   */\n  swap2\n  swap1\n  pop\n  jump\t// out\n    /* \"#utility.yul\":4155:4296   */\ntag_26:\n    /* \"#utility.yul\":4204:4208   */\n  0x00\n    /* \"#utility.yul\":4227:4230   */\n  dup2\n    /* \"#utility.yul\":4219:4230   */\n  swap1\n  pop\n    /* \"#utility.yul\":4250:4253   */\n  dup2\n    /* \"#utility.yul\":4247:4248   */\n  0x00\n    /* \"#utility.yul\":4240:4254   */\n  mstore\n    /* \"#utility.yul\":4284:4288   */\n  0x20\n    /* \"#utility.yul\":4281:4282   */\n  0x00\n    /* \"#utility.yul\":4271:4289   */\n  keccak256\n    /* \"#utility.yul\":4263:4289   */\n  swap1\n  pop\n    /* \"#utility.yul\":4155:4296   */\n  swap2\n  swap1\n  pop\n  jump\t// out\n    /* \"#utility.yul\":4302:4395   */\ntag_27:\n    /* \"#utility.yul\":4339:4345   */\n  0x00\n    /* \"#utility.yul\":4386:4388   */\n  0x20\n    /* \"#utility.yul\":4381:4383   */\n  0x1f\n    /* \"#utility.yul\":4374:4379   */\n  dup4\n    /* \"#utility.yul\":4370:4384   */\n  add\n    /* \"#utility.yul\":4366:4389   */\n  div\n    /* \"#utility.yul\":4356:4389   */\n  swap1\n  pop\n    /* \"#utility.yul\":4302:4395   */\n  swap2\n  swap1\n  pop\n  jump\t// out\n    /* \"#utility.yul\":4401:4508   */\ntag_28:\n    /* \"#utility.yul\":4445:4453   */\n  0x00\n    /* \"#utility.yul\":4495:4500   */\n  dup3\n    /* \"#utility.yul\":4489:4493   */\n  dup3\n    /* \"#utility.yul\":4485:4501   */\n  shl\n    /* \"#utility.yul\":4464:4501   */\n  swap1\n  pop\n    /* \"#utility.yul\":4401:4508   */\n  swap3\n  swap2\n  pop\n  pop\n  jump\t// out\n    /* \"#utility.yul\":4514:4907   */\ntag_29:\n    /* \"#utility.yul\":4583:4589   */\n  0x00\n    /* \"#utility.yul\":4633:4634   */\n  0x08\n    /* \"#utility.yul\":4621:4631   */\n  dup4\n    /* \"#utility.yul\":4617:4635   */\n  mul\n    /* \"#utility.yul\":4656:4753   */\n  tag_94\n    /* \"#utility.yul\":4686:4752   */\n  0xffffffffffffffffffffffffffffffffffffffffffffffffffffffffffffffff\n    /* \"#utility.yul\":4675:4684   */\n  dup3\n    /* \"#utility.yul\":4656:4753   */\n  tag_28\n  jump\t// in\ntag_94:\n    /* \"#utility.yul\":4774:4813   */\n  tag_95\n    /* \"#utility.yul\":4804:4812   */\n  dup7\n    /* \"#utility.yul\":4793:4802   */\n  dup4\n    /* \"#utility.yul\":4774:4813   */\n  tag_28\n  jump\t// in\ntag_95:\n    /* \"#utility.yul\":4762:4813   */\n  swap6\n  pop\n    /* \"#utility.yul\":4846:4850   */\n  dup1\n    /* \"#utility.yul\":4842:4851   */\n  not\n    /* \"#utility.yul\":4835:4840   */\n  dup5\n    /* \"#utility.yul\":4831:4852   */\n  and\n    /* \"#utility.yul\":4822:4852   */\n  swap4\n  pop\n    /* \"#utility.yul\":4895:4899   */\n  dup1\n    /* \"#utility.yul\":4885:4893   */\n  dup7\n    /* \"#utility.yul\":4881:4900   */\n  and\n    /* \"#utility.yul\":4874:4879   */\n  dup5\n    /* \"#utility.yul\":4871:4901   */\n  or\n    /* \"#utility.yul\":4861:4901   */\n  swap3\n  pop\n    /* \"#utility.yul\":4590:4907   */\n  pop\n  pop\n    /* \"#utility.yul\":4514:4907   */\n  swap4\n  swap3\n  pop\n  pop\n  pop\n  jump\t// out\n    /* \"#utility.yul\":4913:4990   */\ntag_30:\n    /* \"#utility.yul\":4950:4957   */\n  0x00\n    /* \"#utility.yul\":4979:4984   */\n  dup2\n    /* \"#utility.yul\":4968:4984   */\n  swap1\n  pop\n    /* \"#utility.yul\":4913:4990   */\n  swap2\n  swap1\n  pop\n  jump\t// out\n    /* \"#utility.yul\":4996:5056   */\ntag_31:\n    /* \"#utility.yul\":5024:5027   */\n  0x00\n    /* \"#utility.yul\":5045:5050   */\n  dup2\n    /* \"#utility.yul\":5038:5050   */\n  swap1\n  pop\n    /* \"#utility.yul\":4996:5056   */\n  swap2\n  swap1\n  pop\n  jump\t// out\n    /* \"#utility.yul\":5062:5204   */\ntag_32:\n    /* \"#utility.yul\":5112:5121   */\n  0x00\n    /* \"#utility.yul\":5145:5198   */\n  tag_99\n    /* \"#utility.yul\":5163:5197   */\n  tag_100\n    /* \"#utility.yul\":5172:5196   */\n  tag_101\n    /* \"#utility.yul\":5190:5195   */\n  dup5\n    /* \"#utility.yul\":5172:5196   */\n  tag_30\n  jump\t// in\ntag_101:\n    /* \"#utility.yul\":5163:5197   */\n  tag_31\n  jump\t// in\ntag_100:\n    /* \"#utility.yul\":5145:5198   */\n  tag_30\n  jump\t// in\ntag_99:\n    /* \"#utility.yul\":5132:5198   */\n  swap1\n  pop\n    /* \"#utility.yul\":5062:5204   */\n  swap2\n  swap1\n  pop\n  jump\t// out\n    /* \"#utility.yul\":5210:5285   */\ntag_33:\n    /* \"#utility.yul\":5253:5256   */\n  0x00\n    /* \"#utility.yul\":5274:5279   */\n  dup2\n    /* \"#utility.yul\":5267:5279   */\n  swap1\n  pop\n    /* \"#utility.yul\":5210:5285   */\n  swap2\n  swap1\n  pop\n  jump\t// out\n    /* \"#utility.yul\":5291:5560   */\ntag_34:\n    /* \"#utility.yul\":5401:5440   */\n  tag_104\n    /* \"#utility.yul\":5432:5439   */\n  dup4\n    /* \"#utility.yul\":5401:5440   */\n  tag_32\n  jump\t// in\ntag_104:\n    /* \"#utility.yul\":5462:5553   */\n  tag_105\n    /* \"#utility.yul\":5511:5552   */\n  tag_106\n    /* \"#utility.yul\":5535:5551   */\n  dup3\n    /* \"#utility.yul\":5511:5552   */\n  tag_33\n  jump\t// in\ntag_106:\n    /* \"#utility.yul\":5503:5509   */\n  dup5\n    /* \"#utility.yul\":5496:5500   */\n  dup5\n    /* \"#utility.yul\":5490:5501   */\n  sload\n    /* \"#utility.yul\":5462:5553   */\n  tag_29\n  jump\t// in\ntag_105:\n    /* \"#utility.yul\":5456:5460   */\n  dup3\n    /* \"#utility.yul\":5449:5554   */\n  sstore\n    /* \"#utility.yul\":5367:5560   */\n  pop\n    /* \"#utility.yul\":5291:5560   */\n  pop\n  pop\n  pop\n  jump\t// out\n    /* \"#utility.yul\":5566:5639   */\ntag_35:\n    /* \"#utility.yul\":5611:5614   */\n  0x00\n    /* \"#utility.yul\":5566:5639   */\n  swap1\n  jump\t// out\n    /* \"#utility.yul\":5645:5834   */\ntag_36:\n    /* \"#utility.yul\":5722:5754   */\n  tag_109\n  tag_35\n  jump\t// in\ntag_109:\n    /* \"#utility.yul\":5763:5828   */\n  tag_110\n    /* \"#utility.yul\":5821:5827   */\n  dup2\n    /* \"#utility.yul\":5813:5819   */\n  dup5\n    /* \"#utility.yul\":5807:5811   */\n  dup5\n    /* \"#utility.yul\":5763:5828   */\n  tag_34\n  jump\t// in\ntag_110:\n    /* \"#utility.yul\":5698:5834   */\n  pop\n    /* \"#utility.yul\":5645:5834   */\n  pop\n  pop\n  jump\t// out\n    /* \"#utility.yul\":5840:6026   */\ntag_37:\n    /* \"#utility.yul\":5900:6020   */\ntag_112:\n    /* \"#utility.yul\":5917:5920   */\n  dup2\n    /* \"#utility.yul\":5910:5915   */\n  dup2\n    /* \"#utility.yul\":5907:5921   */\n  lt\n    /* \"#utility.yul\":5900:6020   */\n  iszero\n  tag_114\n  jumpi\n    /* \"#utility.yul\":5971:6010   */\n  tag_115\n    /* \"#utility.yul\":6008:6009   */\n  0x00\n    /* \"#utility.yul\":6001:6006   */\n  dup3\n    /* \"#utility.yul\":5971:6010   */\n  tag_36\n  jump\t// in\ntag_115:\n    /* \"#utility.yul\":5944:5945   */\n  0x01\n    /* \"#utility.yul\":5937:5942   */\n  dup2\n    /* \"#utility.yul\":5933:5946   */\n  add\n    /* \"#utility.yul\":5924:5946   */\n  swap1\n  pop\n    /* \"#utility.yul\":5900:6020   */\n  jump(tag_112)\ntag_114:\n    /* \"#utility.yul\":5840:6026   */\n  pop\n  pop\n  jump\t// out\n    /* \"#utility.yul\":6032:6575   */\ntag_38:\n    /* \"#utility.yul\":6133:6135   */\n  0x1f\n    /* \"#utility.yul\":6128:6131   */\n  dup3\n    /* \"#utility.yul\":6125:6136   */\n  gt\n    /* \"#utility.yul\":6122:6568   */\n  iszero\n  tag_117\n  jumpi\n    /* \"#utility.yul\":6167:6205   */\n  tag_118\n    /* \"#utility.yul\":6199:6204   */\n  dup2\n    /* \"#utility.yul\":6167:6205   */\n  tag_26\n  jump\t// in\ntag_118:\n    /* \"#utility.yul\":6251:6280   */\n  tag_119\n    /* \"#utility.yul\":6269:6279   */\n  dup5\n    /* \"#utility.yul\":6251:6280   */\n  tag_27\n  jump\t// in\ntag_119:\n    /* \"#utility.yul\":6241:6249   */\n  dup2\n    /* \"#utility.yul\":6237:6281   */\n  add\n    /* \"#utility.yul\":6434:6436   */\n  0x20\n    /* \"#utility.yul\":6422:6432   */\n  dup6\n    /* \"#utility.yul\":6419:6437   */\n  lt\n    /* \"#utility.yul\":6416:6465   */\n  iszero\n  tag_120\n  jumpi\n    /* \"#utility.yul\":6455:6463   */\n  dup2\n    /* \"#utility.yul\":6440:6463   */\n  swap1\n  pop\n    /* \"#utility.yul\":6416:6465   */\ntag_120:\n    /* \"#utility.yul\":6478:6558   */\n  tag_121\n    /* \"#utility.yul\":6534:6556   */\n  tag_122\n    /* \"#utility.yul\":6552:6555   */\n  dup6\n    /* \"#utility.yul\":6534:6556   */\n  tag_27\n  jump\t// in\ntag_122:\n    /* \"#utility.yul\":6524:6532   */\n  dup4\n    /* \"#utility.yul\":6520:6557   */\n  add\n    /* \"#utility.yul\":6507:6518   */\n  dup3\n    /* \"#utility.yul\":6478:6558   */\n  tag_37\n  jump\t// in\ntag_121:\n    /* \"#utility.yul\":6137:6568   */\n  pop\n  pop\n    /* \"#utility.yul\":6122:6568   */\ntag_117:\n    /* \"#utility.yul\":6032:6575   */\n  pop\n  pop\n  pop\n  jump\t// out\n    /* \"#utility.yul\":6581:6698   */\ntag_39:\n    /* \"#utility.yul\":6635:6643   */\n  0x00\n    /* \"#utility.yul\":6685:6690   */\n  dup3\n    /* \"#utility.yul\":6679:6683   */\n  dup3\n    /* \"#utility.yul\":6675:6691   */\n  shr\n    /* \"#utility.yul\":6654:6691   */\n  swap1\n  pop\n    /* \"#utility.yul\":6581:6698   */\n  swap3\n  swap2\n  pop\n  pop\n  jump\t// out\n    /* \"#utility.yul\":6704:6873   */\ntag_40:\n    /* \"#utility.yul\":6748:6754   */\n  0x00\n    /* \"#utility.yul\":6781:6832   */\n  tag_125\n    /* \"#utility.yul\":6829:6830   */\n  0x00\n    /* \"#utility.yul\":6825:6831   */\n  not\n    /* \"#utility.yul\":6817:6822   */\n  dup5\n    /* \"#utility.yul\":6814:6815   */\n  0x08\n    /* \"#utility.yul\":6810:6823   */\n  mul\n    /* \"#utility.yul\":6781:6832   */\n  tag_39\n  jump\t// in\ntag_125:\n    /* \"#utility.yul\":6777:6833   */\n  not\n    /* \"#utility.yul\":6862:6866   */\n  dup1\n    /* \"#utility.yul\":6856:6860   */\n  dup4\n    /* \"#utility.yul\":6852:6867   */\n  and\n    /* \"#utility.yul\":6842:6867   */\n  swap2\n  pop\n    /* \"#utility.yul\":6755:6873   */\n  pop\n    /* \"#utility.yul\":6704:6873   */\n  swap3\n  swap2\n  pop\n  pop\n  jump\t// out\n    /* \"#utility.yul\":6878:7173   */\ntag_41:\n    /* \"#utility.yul\":6954:6958   */\n  0x00\n    /* \"#utility.yul\":7100:7129   */\n  tag_127\n    /* \"#utility.yul\":7125:7128   */\n  dup4\n    /* \"#utility.yul\":7119:7123   */\n  dup4\n    /* \"#utility.yul\":7100:7129   */\n  tag_40\n  jump\t// in\ntag_127:\n    /* \"#utility.yul\":7092:7129   */\n  swap2\n  pop\n    /* \"#utility.yul\":7162:7165   */\n  dup3\n    /* \"#utility.yul\":7159:7160   */\n  0x02\n    /* \"#utility.yul\":7155:7166   */\n  mul\n    /* \"#utility.yul\":7149:7153   */\n  dup3\n    /* \"#utility.yul\":7146:7167   */\n  or\n    /* \"#utility.yul\":7138:7167   */\n  swap1\n  pop\n    /* \"#utility.yul\":6878:7173   */\n  swap3\n  swap2\n  pop\n  pop\n  jump\t// out\n    /* \"#utility.yul\":7178:8573   */\ntag_7:\n    /* \"#utility.yul\":7295:7332   */\n  tag_129\n    /* \"#utility.yul\":7328:7331   */\n  dup3\n    /* \"#utility.yul\":7295:7332   */\n  tag_23\n  jump\t// in\ntag_129:\n    /* \"#utility.yul\":7397:7415   */\n  0xffffffffffffffff\n    /* \"#utility.yul\":7389:7395   */\n  dup2\n    /* \"#utility.yul\":7386:7416   */\n  gt\n    /* \"#utility.yul\":7383:7439   */\n  iszero\n  tag_130\n  jumpi\n    /* \"#utility.yul\":7419:7437   */\n  tag_131\n  tag_16\n  jump\t// in\ntag_131:\n    /* \"#utility.yul\":7383:7439   */\ntag_130:\n    /* \"#utility.yul\":7463:7501   */\n  tag_132\n    /* \"#utility.yul\":7495:7499   */\n  dup3\n    /* \"#utility.yul\":7489:7500   */\n  sload\n    /* \"#utility.yul\":7463:7501   */\n  tag_25\n  jump\t// in\ntag_132:\n    /* \"#utility.yul\":7548:7615   */\n  tag_133\n    /* \"#utility.yul\":7608:7614   */\n  dup3\n    /* \"#utility.yul\":7600:7606   */\n  dup3\n    /* \"#utility.yul\":7594:7598   */\n  dup6\n    /* \"#utility.yul\":7548:7615   */\n  tag_38\n  jump\t// in\ntag_133:\n    /* \"#utility.yul\":7642:7643   */\n  0x00\n    /* \"#utility.yul\":7666:7670   */\n  0x20\n    /* \"#utility.yul\":7653:7670   */\n  swap1\n  pop\n    /* \"#utility.yul\":7698:7700   */\n  0x1f\n    /* \"#utility.yul\":7690:7696   */\n  dup4\n    /* \"#utility.yul\":7687:7701   */\n  gt\n    /* \"#utility.yul\":7715:7716   */\n  0x01\n    /* \"#utility.yul\":7710:8328   */\n  dup2\n  eq\n  tag_135\n  jumpi\n    /* \"#utility.yul\":8372:8373   */\n  0x00\n    /* \"#utility.yul\":8389:8395   */\n  dup5\n    /* \"#utility.yul\":8386:8463   */\n  iszero\n  tag_136\n  jumpi\n    /* \"#utility.yul\":8438:8447   */\n  dup3\n    /* \"#utility.yul\":8433:8436   */\n  dup8\n    /* \"#utility.yul\":8429:8448   */\n  add\n    /* \"#utility.yul\":8423:8449   */\n  mload\n    /* \"#utility.yul\":8414:8449   */\n  swap1\n  pop\n    /* \"#utility.yul\":8386:8463   */\ntag_136:\n    /* \"#utility.yul\":8489:8556   */\n  tag_137\n    /* \"#utility.yul\":8549:8555   */\n  dup6\n    /* \"#utility.yul\":8542:8547   */\n  dup3\n    /* \"#utility.yul\":8489:8556   */\n  tag_41\n  jump\t// in\ntag_137:\n    /* \"#utility.yul\":8483:8487   */\n  dup7\n    /* \"#utility.yul\":8476:8557   */\n  sstore\n    /* \"#utility.yul\":8345:8567   */\n  pop\n    /* \"#utility.yul\":7680:8567   */\n  jump(tag_134)\n    /* \"#utility.yul\":7710:8328   */\ntag_135:\n    /* \"#utility.yul\":7762:7766   */\n  0x1f\n    /* \"#utility.yul\":7758:7767   */\n  not\n    /* \"#utility.yul\":7750:7756   */\n  dup5\n    /* \"#utility.yul\":7746:7768   */\n  and\n    /* \"#utility.yul\":7796:7833   */\n  tag_138\n    /* \"#utility.yul\":7828:7832   */\n  dup7\n    /* \"#utility.yul\":7796:7833   */\n  tag_26\n  jump\t// in\ntag_138:\n    /* \"#utility.yul\":7855:7856   */\n  0x00\n    /* \"#utility.yul\":7869:8077   */\ntag_139:\n    /* \"#utility.yul\":7883:7890   */\n  dup3\n    /* \"#utility.yul\":7880:7881   */\n  dup2\n    /* \"#utility.yul\":7877:7891   */\n  lt\n    /* \"#utility.yul\":7869:8077   */\n  iszero\n  tag_141\n  jumpi\n    /* \"#utility.yul\":7962:7971   */\n  dup5\n    /* \"#utility.yul\":7957:7960   */\n  dup10\n    /* \"#utility.yul\":7953:7972   */\n  add\n    /* \"#utility.yul\":7947:7973   */\n  mload\n    /* \"#utility.yul\":7939:7945   */\n  dup3\n    /* \"#utility.yul\":7932:7974   */\n  sstore\n    /* \"#utility.yul\":8013:8014   */\n  0x01\n    /* \"#utility.yul\":8005:8011   */\n  dup3\n    /* \"#utility.yul\":8001:8015   */\n  add\n    /* \"#utility.yul\":7991:8015   */\n  swap2\n  pop\n    /* \"#utility.yul\":8060:8062   */\n  0x20\n    /* \"#utility.yul\":8049:8058   */\n  dup6\n    /* \"#utility.yul\":8045:8063   */\n  add\n    /* \"#utility.yul\":8032:8063   */\n  swap5\n  pop\n    /* \"#utility.yul\":7906:7910   */\n  0x20\n    /* \"#utility.yul\":7903:7904   */\n  dup2\n    /* \"#utility.yul\":7899:7911   */\n  add\n    /* \"#utility.yul\":7894:7911   */\n  swap1\n  pop\n    /* \"#utility.yul\":7869:8077   */\n  jump(tag_139)\ntag_141:\n    /* \"#utility.yul\":8105:8111   */\n  dup7\n    /* \"#utility.yul\":8096:8103   */\n  dup4\n    /* \"#utility.yul\":8093:8112   */\n  lt\n    /* \"#utility.yul\":8090:8269   */\n  iszero\n  tag_142\n  jumpi\n    /* \"#utility.yul\":8163:8172   */\n  dup5\n    /* \"#utility.yul\":8158:8161   */\n  dup10\n    /* \"#utility.yul\":8154:8173   */\n  add\n    /* \"#utility.yul\":8148:8174   */\n  mload\n    /* \"#utility.yul\":8206:8254   */\n  tag_143\n    /* \"#utility.yul\":8248:8252   */\n  0x1f\n    /* \"#utility.yul\":8240:8246   */\n  dup10\n    /* \"#utility.yul\":8236:8253   */\n  and\n    /* \"#utility.yul\":8225:8234   */\n  dup3\n    /* \"#utility.yul\":8206:8254   */\n  tag_40\n  jump\t// in\ntag_143:\n    /* \"#utility.yul\":8198:8204   */\n  dup4\n    /* \"#utility.yul\":8191:8255   */\n  sstore\n    /* \"#utility.yul\":8113:8269   */\n  pop\n    /* \"#utility.yul\":8090:8269   */\ntag_142:\n    /* \"#utility.yul\":8315:8316   */\n  0x01\n    /* \"#utility.yul\":8311:8312   */\n  0x02\n    /* \"#utility.yul\":8303:8309   */\n  dup9\n    /* \"#utility.yul\":8299:8313   */\n  mul\n    /* \"#utility.yul\":8295:8317   */\n  add\n    /* \"#utility.yul\":8289:8293   */\n  dup9\n    /* \"#utility.yul\":8282:8318   */\n  sstore\n    /* \"#utility.yul\":7717:8328   */\n  pop\n  pop\n  pop\n    /* \"#utility.yul\":7680:8567   */\ntag_134:\n  pop\n    /* \"#utility.yul\":7270:8573   */\n  pop\n  pop\n  pop\n    /* \"#utility.yul\":7178:8573   */\n  pop\n  pop\n  jump\t// out\n    /* \"lesson3/FundToken.sol\":58:1210  contract FundToken {... */\ntag_9:\n  dataSize(sub_0)\n  dup1\n  dataOffset(sub_0)\n  0x00\n  codecopy\n  0x00\n  return\nstop\n\nsub_0: assembly {\n        /* \"lesson3/FundToken.sol\":58:1210  contract FundToken {... */\n      mstore(0x40, 0x80)\n      callvalue\n      dup1\n      iszero\n      tag_1\n      jumpi\n      0x00\n      dup1\n      revert\n    tag_1:\n      pop\n      jumpi(tag_2, lt(calldatasize, 0x04))\n      shr(0xe0, calldataload(0x00))\n      dup1\n      0x7b61c320\n      gt\n      tag_11\n      jumpi\n      dup1\n      0x7b61c320\n      eq\n      tag_7\n      jumpi\n      dup1\n      0x8da5cb5b\n      eq\n      tag_8\n      jumpi\n      dup1\n      0xa0712d68\n      eq\n      tag_9\n      jumpi\n      dup1\n      0xa9059cbb\n      eq\n      tag_10\n      jumpi\n      jump(tag_2)\n    tag_11:\n      dup1\n      0x18160ddd\n      eq\n      tag_3\n      jumpi\n      dup1\n      0x27e235e3\n      eq\n      tag_4\n      jumpi\n      dup1\n      0x6c02a931\n      eq\n      tag_5\n      jumpi\n      dup1\n      0x70a08231\n      eq\n      tag_6\n      jumpi\n    tag_2:\n      0x00\n      dup1\n      revert\n        /* \"lesson3/FundToken.sol\":297:323  uint256 public totalSupply */\n    tag_3:\n      tag_12\n      tag_13\n      jump\t// in\n    tag_12:\n      mload(0x40)\n      tag_14\n      swap2\n      swap1\n      tag_15\n      jump\t// in\n    tag_14:\n      mload(0x40)\n      dup1\n      swap2\n      sub\n      swap1\n      return\n        /* \"lesson3/FundToken.sol\":355:398  mapping(address => uint256) public balances */\n    tag_4:\n      tag_16\n      0x04\n      dup1\n      calldatasize\n      sub\n      dup2\n      add\n      swap1\n      tag_17\n      swap2\n      swap1\n      tag_18\n      jump\t// in\n    tag_17:\n      tag_19\n      jump\t// in\n    tag_16:\n      mload(0x40)\n      tag_20\n      swap2\n      swap1\n      tag_15\n      jump\t// in\n    tag_20:\n      mload(0x40)\n      dup1\n      swap2\n      sub\n      swap1\n      return\n        /* \"lesson3/FundToken.sol\":237:260  string public tokenName */\n    tag_5:\n      tag_21\n      tag_22\n      jump\t// in\n    tag_21:\n      mload(0x40)\n      tag_23\n      swap2\n      swap1\n      tag_24\n      jump\t// in\n    tag_23:\n      mload(0x40)\n      dup1\n      swap2\n      sub\n      swap1\n      return\n        /* \"lesson3/FundToken.sol\":1107:1208  function balanceOf(address addr) public view returns (uint256) {... */\n    tag_6:\n      tag_25\n      0x04\n      dup1\n      calldatasize\n      sub\n      dup2\n      add\n      swap1\n      tag_26\n      swap2\n      swap1\n      tag_18\n      jump\t// in\n    tag_26:\n      tag_27\n      jump\t// in\n    tag_25:\n      mload(0x40)\n      tag_28\n      swap2\n      swap1\n      tag_15\n      jump\t// in\n    tag_28:\n      mload(0x40)\n      dup1\n      swap2\n      sub\n      swap1\n      return\n        /* \"lesson3/FundToken.sol\":266:291  string public tokenSymbol */\n    tag_7:\n      tag_29\n      tag_30\n      jump\t// in\n    tag_29:\n      mload(0x40)\n      tag_31\n      swap2\n      swap1\n      tag_24\n      jump\t// in\n    tag_31:\n      mload(0x40)\n      dup1\n      swap2\n      sub\n      swap1\n      return\n        /* \"lesson3/FundToken.sol\":329:349  address public owner */\n    tag_8:\n      tag_32\n      tag_33\n      jump\t// in\n    tag_32:\n      mload(0x40)\n      tag_34\n      swap2\n      swap1\n      tag_35\n      jump\t// in\n    tag_34:\n      mload(0x40)\n      dup1\n      swap2\n      sub\n      swap1\n      return\n        /* \"lesson3/FundToken.sol\":607:740  function mint(uint256 amountToMint) public {... */\n    tag_9:\n      tag_36\n      0x04\n      dup1\n      calldatasize\n      sub\n      dup2\n      add\n      swap1\n      tag_37\n      swap2\n      swap1\n      tag_38\n      jump\t// in\n    tag_37:\n      tag_39\n      jump\t// in\n    tag_36:\n      stop\n        /* \"lesson3/FundToken.sol\":778:1046  function transfer(address payee, uint256 amount) public {... */\n    tag_10:\n      tag_40\n      0x04\n      dup1\n      calldatasize\n      sub\n      dup2\n      add\n      swap1\n      tag_41\n      swap2\n      swap1\n      tag_42\n      jump\t// in\n    tag_41:\n      tag_43\n      jump\t// in\n    tag_40:\n      stop\n        /* \"lesson3/FundToken.sol\":297:323  uint256 public totalSupply */\n    tag_13:\n      sload(0x02)\n      dup2\n      jump\t// out\n        /* \"lesson3/FundToken.sol\":355:398  mapping(address => uint256) public balances */\n    tag_19:\n      mstore(0x20, 0x04)\n      dup1\n      0x00\n      mstore\n      keccak256(0x00, 0x40)\n      0x00\n      swap2\n      pop\n      swap1\n      pop\n      sload\n      dup2\n      jump\t// out\n        /* \"lesson3/FundToken.sol\":237:260  string public tokenName */\n    tag_22:\n      0x00\n      dup1\n      sload\n      tag_44\n      swap1\n      tag_45\n      jump\t// in\n    tag_44:\n      dup1\n      0x1f\n      add\n      0x20\n      dup1\n      swap2\n      div\n      mul\n      0x20\n      add\n      mload(0x40)\n      swap1\n      dup2\n      add\n      0x40\n      mstore\n      dup1\n      swap3\n      swap2\n      swap1\n      dup2\n      dup2\n      mstore\n      0x20\n      add\n      dup3\n      dup1\n      sload\n      tag_46\n      swap1\n      tag_45\n      jump\t// in\n    tag_46:\n      dup1\n      iszero\n      tag_47\n      jumpi\n      dup1\n      0x1f\n      lt\n      tag_48\n      jumpi\n      0x0100\n      dup1\n      dup4\n      sload\n      div\n      mul\n      dup4\n      mstore\n      swap2\n      0x20\n      add\n      swap2\n      jump(tag_47)\n    tag_48:\n      dup3\n      add\n      swap2\n      swap1\n      0x00\n      mstore\n      keccak256(0x00, 0x20)\n      swap1\n    tag_49:\n      dup2\n      sload\n      dup2\n      mstore\n      swap1\n      0x01\n      add\n      swap1\n      0x20\n      add\n      dup1\n      dup4\n      gt\n      tag_49\n      jumpi\n      dup3\n      swap1\n      sub\n      0x1f\n      and\n      dup3\n      add\n      swap2\n    tag_47:\n      pop\n      pop\n      pop\n      pop\n      pop\n      dup2\n      jump\t// out\n        /* \"lesson3/FundToken.sol\":1107:1208  function balanceOf(address addr) public view returns (uint256) {... */\n    tag_27:\n        /* \"lesson3/FundToken.sol\":1161:1168  uint256 */\n      0x00\n        /* \"lesson3/FundToken.sol\":1187:1195  balances */\n      0x04\n        /* \"lesson3/FundToken.sol\":1187:1201  balances[addr] */\n      0x00\n        /* \"lesson3/FundToken.sol\":1196:1200  addr */\n      dup4\n        /* \"lesson3/FundToken.sol\":1187:1201  balances[addr] */\n      0xffffffffffffffffffffffffffffffffffffffff\n      and\n      0xffffffffffffffffffffffffffffffffffffffff\n      and\n      dup2\n      mstore\n      0x20\n      add\n      swap1\n      dup2\n      mstore\n      0x20\n      add\n      0x00\n      keccak256\n      sload\n        /* \"lesson3/FundToken.sol\":1180:1201  return balances[addr] */\n      swap1\n      pop\n        /* \"lesson3/FundToken.sol\":1107:1208  function balanceOf(address addr) public view returns (uint256) {... */\n      swap2\n      swap1\n      pop\n      jump\t// out\n        /* \"lesson3/FundToken.sol\":266:291  string public tokenSymbol */\n    tag_30:\n      0x01\n      dup1\n      sload\n      tag_51\n      swap1\n      tag_45\n      jump\t// in\n    tag_51:\n      dup1\n      0x1f\n      add\n      0x20\n      dup1\n      swap2\n      div\n      mul\n      0x20\n      add\n      mload(0x40)\n      swap1\n      dup2\n      add\n      0x40\n      mstore\n      dup1\n      swap3\n      swap2\n      swap1\n      dup2\n      dup2\n      mstore\n      0x20\n      add\n      dup3\n      dup1\n      sload\n      tag_52\n      swap1\n      tag_45\n      jump\t// in\n    tag_52:\n      dup1\n      iszero\n      tag_53\n      jumpi\n      dup1\n      0x1f\n      lt\n      tag_54\n      jumpi\n      0x0100\n      dup1\n      dup4\n      sload\n      div\n      mul\n      dup4\n      mstore\n      swap2\n      0x20\n      add\n      swap2\n      jump(tag_53)\n    tag_54:\n      dup3\n      add\n      swap2\n      swap1\n      0x00\n      mstore\n      keccak256(0x00, 0x20)\n      swap1\n    tag_55:\n      dup2\n      sload\n      dup2\n      mstore\n      swap1\n      0x01\n      add\n      swap1\n      0x20\n      add\n      dup1\n      dup4\n      gt\n      tag_55\n      jumpi\n      dup3\n      swap1\n      sub\n      0x1f\n      and\n      dup3\n      add\n      swap2\n    tag_53:\n      pop\n      pop\n      pop\n      pop\n      pop\n      dup2\n      jump\t// out\n        /* \"lesson3/FundToken.sol\":329:349  address public owner */\n    tag_33:\n      0x03\n      0x00\n      swap1\n      sload\n      swap1\n      0x0100\n      exp\n      swap1\n      div\n      0xffffffffffffffffffffffffffffffffffffffff\n      and\n      dup2\n      jump\t// out\n        /* \"lesson3/FundToken.sol\":607:740  function mint(uint256 amountToMint) public {... */\n    tag_39:\n        /* \"lesson3/FundToken.sol\":684:696  amountToMint */\n      dup1\n        /* \"lesson3/FundToken.sol\":660:668  balances */\n      0x04\n        /* \"lesson3/FundToken.sol\":660:680  balances[msg.sender] */\n      0x00\n        /* \"lesson3/FundToken.sol\":669:679  msg.sender */\n      caller\n        /* \"lesson3/FundToken.sol\":660:680  balances[msg.sender] */\n      0xffffffffffffffffffffffffffffffffffffffff\n      and\n      0xffffffffffffffffffffffffffffffffffffffff\n      and\n      dup2\n      mstore\n      0x20\n      add\n      swap1\n      dup2\n      mstore\n      0x20\n      add\n      0x00\n      keccak256\n      0x00\n        /* \"lesson3/FundToken.sol\":660:696  balances[msg.sender] += amountToMint */\n      dup3\n      dup3\n      sload\n      tag_57\n      swap2\n      swap1\n      tag_58\n      jump\t// in\n    tag_57:\n      swap3\n      pop\n      pop\n      dup2\n      swap1\n      sstore\n      pop\n        /* \"lesson3/FundToken.sol\":721:733  amountToMint */\n      dup1\n        /* \"lesson3/FundToken.sol\":706:717  totalSupply */\n      0x02\n      0x00\n        /* \"lesson3/FundToken.sol\":706:733  totalSupply += amountToMint */\n      dup3\n      dup3\n      sload\n      tag_59\n      swap2\n      swap1\n      tag_58\n      jump\t// in\n    tag_59:\n      swap3\n      pop\n      pop\n      dup2\n      swap1\n      sstore\n      pop\n        /* \"lesson3/FundToken.sol\":607:740  function mint(uint256 amountToMint) public {... */\n      pop\n      jump\t// out\n        /* \"lesson3/FundToken.sol\":778:1046  function transfer(address payee, uint256 amount) public {... */\n    tag_43:\n        /* \"lesson3/FundToken.sol\":889:895  amount */\n      dup1\n        /* \"lesson3/FundToken.sol\":865:873  balances */\n      0x04\n        /* \"lesson3/FundToken.sol\":865:885  balances[msg.sender] */\n      0x00\n        /* \"lesson3/FundToken.sol\":874:884  msg.sender */\n      caller\n        /* \"lesson3/FundToken.sol\":865:885  balances[msg.sender] */\n      0xffffffffffffffffffffffffffffffffffffffff\n      and\n      0xffffffffffffffffffffffffffffffffffffffff\n      and\n      dup2\n      mstore\n      0x20\n      add\n      swap1\n      dup2\n      mstore\n      0x20\n      add\n      0x00\n      keccak256\n      sload\n        /* \"lesson3/FundToken.sol\":865:895  balances[msg.sender] >= amount */\n      lt\n      iszero\n        /* \"lesson3/FundToken.sol\":844:964  require(... */\n      tag_61\n      jumpi\n      mload(0x40)\n      0x08c379a000000000000000000000000000000000000000000000000000000000\n      dup2\n      mstore\n      0x04\n      add\n      tag_62\n      swap1\n      tag_63\n      jump\t// in\n    tag_62:\n      mload(0x40)\n      dup1\n      swap2\n      sub\n      swap1\n      revert\n    tag_61:\n        /* \"lesson3/FundToken.sol\":998:1004  amount */\n      dup1\n        /* \"lesson3/FundToken.sol\":974:982  balances */\n      0x04\n        /* \"lesson3/FundToken.sol\":974:994  balances[msg.sender] */\n      0x00\n        /* \"lesson3/FundToken.sol\":983:993  msg.sender */\n      caller\n        /* \"lesson3/FundToken.sol\":974:994  balances[msg.sender] */\n      0xffffffffffffffffffffffffffffffffffffffff\n      and\n      0xffffffffffffffffffffffffffffffffffffffff\n      and\n      dup2\n      mstore\n      0x20\n      add\n      swap1\n      dup2\n      mstore\n      0x20\n      add\n      0x00\n      keccak256\n      0x00\n        /* \"lesson3/FundToken.sol\":974:1004  balances[msg.sender] -= amount */\n      dup3\n      dup3\n      sload\n      tag_64\n      swap2\n      swap1\n      tag_65\n      jump\t// in\n    tag_64:\n      swap3\n      pop\n      pop\n      dup2\n      swap1\n      sstore\n      pop\n        /* \"lesson3/FundToken.sol\":1033:1039  amount */\n      dup1\n        /* \"lesson3/FundToken.sol\":1014:1022  balances */\n      0x04\n        /* \"lesson3/FundToken.sol\":1014:1029  balances[payee] */\n      0x00\n        /* \"lesson3/FundToken.sol\":1023:1028  payee */\n      dup5\n        /* \"lesson3/FundToken.sol\":1014:1029  balances[payee] */\n      0xffffffffffffffffffffffffffffffffffffffff\n      and\n      0xffffffffffffffffffffffffffffffffffffffff\n      and\n      dup2\n      mstore\n      0x20\n      add\n      swap1\n      dup2\n      mstore\n      0x20\n      add\n      0x00\n      keccak256\n      0x00\n        /* \"lesson3/FundToken.sol\":1014:1039  balances[payee] += amount */\n      dup3\n      dup3\n      sload\n      tag_66\n      swap2\n      swap1\n      tag_58\n      jump\t// in\n    tag_66:\n      swap3\n      pop\n      pop\n      dup2\n      swap1\n      sstore\n      pop\n        /* \"lesson3/FundToken.sol\":778:1046  function transfer(address payee, uint256 amount) public {... */\n      pop\n      pop\n      jump\t// out\n        /* \"#utility.yul\":7:84   */\n    tag_67:\n        /* \"#utility.yul\":44:51   */\n      0x00\n        /* \"#utility.yul\":73:78   */\n      dup2\n        /* \"#utility.yul\":62:78   */\n      swap1\n      pop\n        /* \"#utility.yul\":7:84   */\n      swap2\n      swap1\n      pop\n      jump\t// out\n        /* \"#utility.yul\":90:208   */\n    tag_68:\n        /* \"#utility.yul\":177:201   */\n      tag_91\n        /* \"#utility.yul\":195:200   */\n      dup2\n        /* \"#utility.yul\":177:201   */\n      tag_67\n      jump\t// in\n    tag_91:\n        /* \"#utility.yul\":172:175   */\n      dup3\n        /* \"#utility.yul\":165:202   */\n      mstore\n        /* \"#utility.yul\":90:208   */\n      pop\n      pop\n      jump\t// out\n        /* \"#utility.yul\":214:436   */\n    tag_15:\n        /* \"#utility.yul\":307:311   */\n      0x00\n        /* \"#utility.yul\":345:347   */\n      0x20\n        /* \"#utility.yul\":334:343   */\n      dup3\n        /* \"#utility.yul\":330:348   */\n      add\n        /* \"#utility.yul\":322:348   */\n      swap1\n      pop\n        /* \"#utility.yul\":358:429   */\n      tag_93\n        /* \"#utility.yul\":426:427   */\n      0x00\n        /* \"#utility.yul\":415:424   */\n      dup4\n        /* \"#utility.yul\":411:428   */\n      add\n        /* \"#utility.yul\":402:408   */\n      dup5\n        /* \"#utility.yul\":358:429   */\n      tag_68\n      jump\t// in\n    tag_93:\n        /* \"#utility.yul\":214:436   */\n      swap3\n      swap2\n      pop\n      pop\n      jump\t// out\n        /* \"#utility.yul\":523:640   */\n    tag_70:\n        /* \"#utility.yul\":632:633   */\n      0x00\n        /* \"#utility.yul\":629:630   */\n      dup1\n        /* \"#utility.yul\":622:634   */\n      revert\n        /* \"#utility.yul\":769:895   */\n    tag_72:\n        /* \"#utility.yul\":806:813   */\n      0x00\n        /* \"#utility.yul\":846:888   */\n      0xffffffffffffffffffffffffffffffffffffffff\n        /* \"#utility.yul\":839:844   */\n      dup3\n        /* \"#utility.yul\":835:889   */\n      and\n        /* \"#utility.yul\":824:889   */\n      swap1\n      pop\n        /* \"#utility.yul\":769:895   */\n      swap2\n      swap1\n      pop\n      jump\t// out\n        /* \"#utility.yul\":901:997   */\n    tag_73:\n        /* \"#utility.yul\":938:945   */\n      0x00\n        /* \"#utility.yul\":967:991   */\n      tag_99\n        /* \"#utility.yul\":985:990   */\n      dup3\n        /* \"#utility.yul\":967:991   */\n      tag_72\n      jump\t// in\n    tag_99:\n        /* \"#utility.yul\":956:991   */\n      swap1\n      pop\n        /* \"#utility.yul\":901:997   */\n      swap2\n      swap1\n      pop\n      jump\t// out\n        /* \"#utility.yul\":1003:1125   */\n    tag_74:\n        /* \"#utility.yul\":1076:1100   */\n      tag_101\n        /* \"#utility.yul\":1094:1099   */\n      dup2\n        /* \"#utility.yul\":1076:1100   */\n      tag_73\n      jump\t// in\n    tag_101:\n        /* \"#utility.yul\":1069:1074   */\n      dup2\n        /* \"#utility.yul\":1066:1101   */\n      eq\n        /* \"#utility.yul\":1056:1119   */\n      tag_102\n      jumpi\n        /* \"#utility.yul\":1115:1116   */\n      0x00\n        /* \"#utility.yul\":1112:1113   */\n      dup1\n        /* \"#utility.yul\":1105:1117   */\n      revert\n        /* \"#utility.yul\":1056:1119   */\n    tag_102:\n        /* \"#utility.yul\":1003:1125   */\n      pop\n      jump\t// out\n        /* \"#utility.yul\":1131:1270   */\n    tag_75:\n        /* \"#utility.yul\":1177:1182   */\n      0x00\n        /* \"#utility.yul\":1215:1221   */\n      dup2\n        /* \"#utility.yul\":1202:1222   */\n      calldataload\n        /* \"#utility.yul\":1193:1222   */\n      swap1\n      pop\n        /* \"#utility.yul\":1231:1264   */\n      tag_104\n        /* \"#utility.yul\":1258:1263   */\n      dup2\n        /* \"#utility.yul\":1231:1264   */\n      tag_74\n      jump\t// in\n    tag_104:\n        /* \"#utility.yul\":1131:1270   */\n      swap3\n      swap2\n      pop\n      pop\n      jump\t// out\n        /* \"#utility.yul\":1276:1605   */\n    tag_18:\n        /* \"#utility.yul\":1335:1341   */\n      0x00\n        /* \"#utility.yul\":1384:1386   */\n      0x20\n        /* \"#utility.yul\":1372:1381   */\n      dup3\n        /* \"#utility.yul\":1363:1370   */\n      dup5\n        /* \"#utility.yul\":1359:1382   */\n      sub\n        /* \"#utility.yul\":1355:1387   */\n      slt\n        /* \"#utility.yul\":1352:1471   */\n      iszero\n      tag_106\n      jumpi\n        /* \"#utility.yul\":1390:1469   */\n      tag_107\n      tag_70\n      jump\t// in\n    tag_107:\n        /* \"#utility.yul\":1352:1471   */\n    tag_106:\n        /* \"#utility.yul\":1510:1511   */\n      0x00\n        /* \"#utility.yul\":1535:1588   */\n      tag_108\n        /* \"#utility.yul\":1580:1587   */\n      dup5\n        /* \"#utility.yul\":1571:1577   */\n      dup3\n        /* \"#utility.yul\":1560:1569   */\n      dup6\n        /* \"#utility.yul\":1556:1578   */\n      add\n        /* \"#utility.yul\":1535:1588   */\n      tag_75\n      jump\t// in\n    tag_108:\n        /* \"#utility.yul\":1525:1588   */\n      swap2\n      pop\n        /* \"#utility.yul\":1481:1598   */\n      pop\n        /* \"#utility.yul\":1276:1605   */\n      swap3\n      swap2\n      pop\n      pop\n      jump\t// out\n        /* \"#utility.yul\":1611:1710   */\n    tag_76:\n        /* \"#utility.yul\":1663:1669   */\n      0x00\n        /* \"#utility.yul\":1697:1702   */\n      dup2\n        /* \"#utility.yul\":1691:1703   */\n      mload\n        /* \"#utility.yul\":1681:1703   */\n      swap1\n      pop\n        /* \"#utility.yul\":1611:1710   */\n      swap2\n      swap1\n      pop\n      jump\t// out\n        /* \"#utility.yul\":1716:1885   */\n    tag_77:\n        /* \"#utility.yul\":1800:1811   */\n      0x00\n        /* \"#utility.yul\":1834:1840   */\n      dup3\n        /* \"#utility.yul\":1829:1832   */\n      dup3\n        /* \"#utility.yul\":1822:1841   */\n      mstore\n        /* \"#utility.yul\":1874:1878   */\n      0x20\n        /* \"#utility.yul\":1869:1872   */\n      dup3\n        /* \"#utility.yul\":1865:1879   */\n      add\n        /* \"#utility.yul\":1850:1879   */\n      swap1\n      pop\n        /* \"#utility.yul\":1716:1885   */\n      swap3\n      swap2\n      pop\n      pop\n      jump\t// out\n        /* \"#utility.yul\":1891:2139   */\n    tag_78:\n        /* \"#utility.yul\":1973:1974   */\n      0x00\n        /* \"#utility.yul\":1983:2096   */\n    tag_112:\n        /* \"#utility.yul\":1997:2003   */\n      dup4\n        /* \"#utility.yul\":1994:1995   */\n      dup2\n        /* \"#utility.yul\":1991:2004   */\n      lt\n        /* \"#utility.yul\":1983:2096   */\n      iszero\n      tag_114\n      jumpi\n        /* \"#utility.yul\":2082:2083   */\n      dup1\n        /* \"#utility.yul\":2077:2080   */\n      dup3\n        /* \"#utility.yul\":2073:2084   */\n      add\n        /* \"#utility.yul\":2067:2085   */\n      mload\n        /* \"#utility.yul\":2063:2064   */\n      dup2\n        /* \"#utility.yul\":2058:2061   */\n      dup5\n        /* \"#utility.yul\":2054:2065   */\n      add\n        /* \"#utility.yul\":2047:2086   */\n      mstore\n        /* \"#utility.yul\":2019:2021   */\n      0x20\n        /* \"#utility.yul\":2016:2017   */\n      dup2\n        /* \"#utility.yul\":2012:2022   */\n      add\n        /* \"#utility.yul\":2007:2022   */\n      swap1\n      pop\n        /* \"#utility.yul\":1983:2096   */\n      jump(tag_112)\n    tag_114:\n        /* \"#utility.yul\":2130:2131   */\n      0x00\n        /* \"#utility.yul\":2121:2127   */\n      dup5\n        /* \"#utility.yul\":2116:2119   */\n      dup5\n        /* \"#utility.yul\":2112:2128   */\n      add\n        /* \"#utility.yul\":2105:2132   */\n      mstore\n        /* \"#utility.yul\":1953:2139   */\n      pop\n        /* \"#utility.yul\":1891:2139   */\n      pop\n      pop\n      pop\n      jump\t// out\n        /* \"#utility.yul\":2145:2247   */\n    tag_79:\n        /* \"#utility.yul\":2186:2192   */\n      0x00\n        /* \"#utility.yul\":2237:2239   */\n      0x1f\n        /* \"#utility.yul\":2233:2240   */\n      not\n        /* \"#utility.yul\":2228:2230   */\n      0x1f\n        /* \"#utility.yul\":2221:2226   */\n      dup4\n        /* \"#utility.yul\":2217:2231   */\n      add\n        /* \"#utility.yul\":2213:2241   */\n      and\n        /* \"#utility.yul\":2203:2241   */\n      swap1\n      pop\n        /* \"#utility.yul\":2145:2247   */\n      swap2\n      swap1\n      pop\n      jump\t// out\n        /* \"#utility.yul\":2253:2630   */\n    tag_80:\n        /* \"#utility.yul\":2341:2344   */\n      0x00\n        /* \"#utility.yul\":2369:2408   */\n      tag_117\n        /* \"#utility.yul\":2402:2407   */\n      dup3\n        /* \"#utility.yul\":2369:2408   */\n      tag_76\n      jump\t// in\n    tag_117:\n        /* \"#utility.yul\":2424:2495   */\n      tag_118\n        /* \"#utility.yul\":2488:2494   */\n      dup2\n        /* \"#utility.yul\":2483:2486   */\n      dup6\n        /* \"#utility.yul\":2424:2495   */\n      tag_77\n      jump\t// in\n    tag_118:\n        /* \"#utility.yul\":2417:2495   */\n      swap4\n      pop\n        /* \"#utility.yul\":2504:2569   */\n      tag_119\n        /* \"#utility.yul\":2562:2568   */\n      dup2\n        /* \"#utility.yul\":2557:2560   */\n      dup6\n        /* \"#utility.yul\":2550:2554   */\n      0x20\n        /* \"#utility.yul\":2543:2548   */\n      dup7\n        /* \"#utility.yul\":2539:2555   */\n      add\n        /* \"#utility.yul\":2504:2569   */\n      tag_78\n      jump\t// in\n    tag_119:\n        /* \"#utility.yul\":2594:2623   */\n      tag_120\n        /* \"#utility.yul\":2616:2622   */\n      dup2\n        /* \"#utility.yul\":2594:2623   */\n      tag_79\n      jump\t// in\n    tag_120:\n        /* \"#utility.yul\":2589:2592   */\n      dup5\n        /* \"#utility.yul\":2585:2624   */\n      add\n        /* \"#utility.yul\":2578:2624   */\n      swap2\n      pop\n        /* \"#utility.yul\":2345:2630   */\n      pop\n        /* \"#utility.yul\":2253:2630   */\n      swap3\n      swap2\n      pop\n      pop\n      jump\t// out\n        /* \"#utility.yul\":2636:2949   */\n    tag_24:\n        /* \"#utility.yul\":2749:2753   */\n      0x00\n        /* \"#utility.yul\":2787:2789   */\n      0x20\n        /* \"#utility.yul\":2776:2785   */\n      dup3\n        /* \"#utility.yul\":2772:2790   */\n      add\n        /* \"#utility.yul\":2764:2790   */\n      swap1\n      pop\n        /* \"#utility.yul\":2836:2845   */\n      dup2\n        /* \"#utility.yul\":2830:2834   */\n      dup2\n        /* \"#utility.yul\":2826:2846   */\n      sub\n        /* \"#utility.yul\":2822:2823   */\n      0x00\n        /* \"#utility.yul\":2811:2820   */\n      dup4\n        /* \"#utility.yul\":2807:2824   */\n      add\n        /* \"#utility.yul\":2800:2847   */\n      mstore\n        /* \"#utility.yul\":2864:2942   */\n      tag_122\n        /* \"#utility.yul\":2937:2941   */\n      dup2\n        /* \"#utility.yul\":2928:2934   */\n      dup5\n        /* \"#utility.yul\":2864:2942   */\n      tag_80\n      jump\t// in\n    tag_122:\n        /* \"#utility.yul\":2856:2942   */\n      swap1\n      pop\n        /* \"#utility.yul\":2636:2949   */\n      swap3\n      swap2\n      pop\n      pop\n      jump\t// out\n        /* \"#utility.yul\":2955:3073   */\n    tag_81:\n        /* \"#utility.yul\":3042:3066   */\n      tag_124\n        /* \"#utility.yul\":3060:3065   */\n      dup2\n        /* \"#utility.yul\":3042:3066   */\n      tag_73\n      jump\t// in\n    tag_124:\n        /* \"#utility.yul\":3037:3040   */\n      dup3\n        /* \"#utility.yul\":3030:3067   */\n      mstore\n        /* \"#utility.yul\":2955:3073   */\n      pop\n      pop\n      jump\t// out\n        /* \"#utility.yul\":3079:3301   */\n    tag_35:\n        /* \"#utility.yul\":3172:3176   */\n      0x00\n        /* \"#utility.yul\":3210:3212   */\n      0x20\n        /* \"#utility.yul\":3199:3208   */\n      dup3\n        /* \"#utility.yul\":3195:3213   */\n      add\n        /* \"#utility.yul\":3187:3213   */\n      swap1\n      pop\n        /* \"#utility.yul\":3223:3294   */\n      tag_126\n        /* \"#utility.yul\":3291:3292   */\n      0x00\n        /* \"#utility.yul\":3280:3289   */\n      dup4\n        /* \"#utility.yul\":3276:3293   */\n      add\n        /* \"#utility.yul\":3267:3273   */\n      dup5\n        /* \"#utility.yul\":3223:3294   */\n      tag_81\n      jump\t// in\n    tag_126:\n        /* \"#utility.yul\":3079:3301   */\n      swap3\n      swap2\n      pop\n      pop\n      jump\t// out\n        /* \"#utility.yul\":3307:3429   */\n    tag_82:\n        /* \"#utility.yul\":3380:3404   */\n      tag_128\n        /* \"#utility.yul\":3398:3403   */\n      dup2\n        /* \"#utility.yul\":3380:3404   */\n      tag_67\n      jump\t// in\n    tag_128:\n        /* \"#utility.yul\":3373:3378   */\n      dup2\n        /* \"#utility.yul\":3370:3405   */\n      eq\n        /* \"#utility.yul\":3360:3423   */\n      tag_129\n      jumpi\n        /* \"#utility.yul\":3419:3420   */\n      0x00\n        /* \"#utility.yul\":3416:3417   */\n      dup1\n        /* \"#utility.yul\":3409:3421   */\n      revert\n        /* \"#utility.yul\":3360:3423   */\n    tag_129:\n        /* \"#utility.yul\":3307:3429   */\n      pop\n      jump\t// out\n        /* \"#utility.yul\":3435:3574   */\n    tag_83:\n        /* \"#utility.yul\":3481:3486   */\n      0x00\n        /* \"#utility.yul\":3519:3525   */\n      dup2\n        /* \"#utility.yul\":3506:3526   */\n      calldataload\n        /* \"#utility.yul\":3497:3526   */\n      swap1\n      pop\n        /* \"#utility.yul\":3535:3568   */\n      tag_131\n        /* \"#utility.yul\":3562:3567   */\n      dup2\n        /* \"#utility.yul\":3535:3568   */\n      tag_82\n      jump\t// in\n    tag_131:\n        /* \"#utility.yul\":3435:3574   */\n      swap3\n      swap2\n      pop\n      pop\n      jump\t// out\n        /* \"#utility.yul\":3580:3909   */\n    tag_38:\n        /* \"#utility.yul\":3639:3645   */\n      0x00\n        /* \"#utility.yul\":3688:3690   */\n      0x20\n        /* \"#utility.yul\":3676:3685   */\n      dup3\n        /* \"#utility.yul\":3667:3674   */\n      dup5\n        /* \"#utility.yul\":3663:3686   */\n      sub\n        /* \"#utility.yul\":3659:3691   */\n      slt\n        /* \"#utility.yul\":3656:3775   */\n      iszero\n      tag_133\n      jumpi\n        /* \"#utility.yul\":3694:3773   */\n      tag_134\n      tag_70\n      jump\t// in\n    tag_134:\n        /* \"#utility.yul\":3656:3775   */\n    tag_133:\n        /* \"#utility.yul\":3814:3815   */\n      0x00\n        /* \"#utility.yul\":3839:3892   */\n      tag_135\n        /* \"#utility.yul\":3884:3891   */\n      dup5\n        /* \"#utility.yul\":3875:3881   */\n      dup3\n        /* \"#utility.yul\":3864:3873   */\n      dup6\n        /* \"#utility.yul\":3860:3882   */\n      add\n        /* \"#utility.yul\":3839:3892   */\n      tag_83\n      jump\t// in\n    tag_135:\n        /* \"#utility.yul\":3829:3892   */\n      swap2\n      pop\n        /* \"#utility.yul\":3785:3902   */\n      pop\n        /* \"#utility.yul\":3580:3909   */\n      swap3\n      swap2\n      pop\n      pop\n      jump\t// out\n        /* \"#utility.yul\":3915:4389   */\n    tag_42:\n        /* \"#utility.yul\":3983:3989   */\n      0x00\n        /* \"#utility.yul\":3991:3997   */\n      dup1\n        /* \"#utility.yul\":4040:4042   */\n      0x40\n        /* \"#utility.yul\":4028:4037   */\n      dup4\n        /* \"#utility.yul\":4019:4026   */\n      dup6\n        /* \"#utility.yul\":4015:4038   */\n      sub\n        /* \"#utility.yul\":4011:4043   */\n      slt\n        /* \"#utility.yul\":4008:4127   */\n      iszero\n      tag_137\n      jumpi\n        /* \"#utility.yul\":4046:4125   */\n      tag_138\n      tag_70\n      jump\t// in\n    tag_138:\n        /* \"#utility.yul\":4008:4127   */\n    tag_137:\n        /* \"#utility.yul\":4166:4167   */\n      0x00\n        /* \"#utility.yul\":4191:4244   */\n      tag_139\n        /* \"#utility.yul\":4236:4243   */\n      dup6\n        /* \"#utility.yul\":4227:4233   */\n      dup3\n        /* \"#utility.yul\":4216:4225   */\n      dup7\n        /* \"#utility.yul\":4212:4234   */\n      add\n        /* \"#utility.yul\":4191:4244   */\n      tag_75\n      jump\t// in\n    tag_139:\n        /* \"#utility.yul\":4181:4244   */\n      swap3\n      pop\n        /* \"#utility.yul\":4137:4254   */\n      pop\n        /* \"#utility.yul\":4293:4295   */\n      0x20\n        /* \"#utility.yul\":4319:4372   */\n      tag_140\n        /* \"#utility.yul\":4364:4371   */\n      dup6\n        /* \"#utility.yul\":4355:4361   */\n      dup3\n        /* \"#utility.yul\":4344:4353   */\n      dup7\n        /* \"#utility.yul\":4340:4362   */\n      add\n        /* \"#utility.yul\":4319:4372   */\n      tag_83\n      jump\t// in\n    tag_140:\n        /* \"#utility.yul\":4309:4372   */\n      swap2\n      pop\n        /* \"#utility.yul\":4264:4382   */\n      pop\n        /* \"#utility.yul\":3915:4389   */\n      swap3\n      pop\n      swap3\n      swap1\n      pop\n      jump\t// out\n        /* \"#utility.yul\":4395:4575   */\n    tag_84:\n        /* \"#utility.yul\":4443:4520   */\n      0x4e487b7100000000000000000000000000000000000000000000000000000000\n        /* \"#utility.yul\":4440:4441   */\n      0x00\n        /* \"#utility.yul\":4433:4521   */\n      mstore\n        /* \"#utility.yul\":4540:4544   */\n      0x22\n        /* \"#utility.yul\":4537:4538   */\n      0x04\n        /* \"#utility.yul\":4530:4545   */\n      mstore\n        /* \"#utility.yul\":4564:4568   */\n      0x24\n        /* \"#utility.yul\":4561:4562   */\n      0x00\n        /* \"#utility.yul\":4554:4569   */\n      revert\n        /* \"#utility.yul\":4581:4901   */\n    tag_45:\n        /* \"#utility.yul\":4625:4631   */\n      0x00\n        /* \"#utility.yul\":4662:4663   */\n      0x02\n        /* \"#utility.yul\":4656:4660   */\n      dup3\n        /* \"#utility.yul\":4652:4664   */\n      div\n        /* \"#utility.yul\":4642:4664   */\n      swap1\n      pop\n        /* \"#utility.yul\":4709:4710   */\n      0x01\n        /* \"#utility.yul\":4703:4707   */\n      dup3\n        /* \"#utility.yul\":4699:4711   */\n      and\n        /* \"#utility.yul\":4730:4748   */\n      dup1\n        /* \"#utility.yul\":4720:4801   */\n      tag_143\n      jumpi\n        /* \"#utility.yul\":4786:4790   */\n      0x7f\n        /* \"#utility.yul\":4778:4784   */\n      dup3\n        /* \"#utility.yul\":4774:4791   */\n      and\n        /* \"#utility.yul\":4764:4791   */\n      swap2\n      pop\n        /* \"#utility.yul\":4720:4801   */\n    tag_143:\n        /* \"#utility.yul\":4848:4850   */\n      0x20\n        /* \"#utility.yul\":4840:4846   */\n      dup3\n        /* \"#utility.yul\":4837:4851   */\n      lt\n        /* \"#utility.yul\":4817:4835   */\n      dup2\n        /* \"#utility.yul\":4814:4852   */\n      sub\n        /* \"#utility.yul\":4811:4895   */\n      tag_144\n      jumpi\n        /* \"#utility.yul\":4867:4885   */\n      tag_145\n      tag_84\n      jump\t// in\n    tag_145:\n        /* \"#utility.yul\":4811:4895   */\n    tag_144:\n        /* \"#utility.yul\":4632:4901   */\n      pop\n        /* \"#utility.yul\":4581:4901   */\n      swap2\n      swap1\n      pop\n      jump\t// out\n        /* \"#utility.yul\":4907:5087   */\n    tag_85:\n        /* \"#utility.yul\":4955:5032   */\n      0x4e487b7100000000000000000000000000000000000000000000000000000000\n        /* \"#utility.yul\":4952:4953   */\n      0x00\n        /* \"#utility.yul\":4945:5033   */\n      mstore\n        /* \"#utility.yul\":5052:5056   */\n      0x11\n        /* \"#utility.yul\":5049:5050   */\n      0x04\n        /* \"#utility.yul\":5042:5057   */\n      mstore\n        /* \"#utility.yul\":5076:5080   */\n      0x24\n        /* \"#utility.yul\":5073:5074   */\n      0x00\n        /* \"#utility.yul\":5066:5081   */\n      revert\n        /* \"#utility.yul\":5093:5284   */\n    tag_58:\n        /* \"#utility.yul\":5133:5136   */\n      0x00\n        /* \"#utility.yul\":5152:5172   */\n      tag_148\n        /* \"#utility.yul\":5170:5171   */\n      dup3\n        /* \"#utility.yul\":5152:5172   */\n      tag_67\n      jump\t// in\n    tag_148:\n        /* \"#utility.yul\":5147:5172   */\n      swap2\n      pop\n        /* \"#utility.yul\":5186:5206   */\n      tag_149\n        /* \"#utility.yul\":5204:5205   */\n      dup4\n        /* \"#utility.yul\":5186:5206   */\n      tag_67\n      jump\t// in\n    tag_149:\n        /* \"#utility.yul\":5181:5206   */\n      swap3\n      pop\n        /* \"#utility.yul\":5229:5230   */\n      dup3\n        /* \"#utility.yul\":5226:5227   */\n      dup3\n        /* \"#utility.yul\":5222:5231   */\n      add\n        /* \"#utility.yul\":5215:5231   */\n      swap1\n      pop\n        /* \"#utility.yul\":5250:5253   */\n      dup1\n        /* \"#utility.yul\":5247:5248   */\n      dup3\n        /* \"#utility.yul\":5244:5254   */\n      gt\n        /* \"#utility.yul\":5241:5277   */\n      iszero\n      tag_150\n      jumpi\n        /* \"#utility.yul\":5257:5275   */\n      tag_151\n      tag_85\n      jump\t// in\n    tag_151:\n        /* \"#utility.yul\":5241:5277   */\n    tag_150:\n        /* \"#utility.yul\":5093:5284   */\n      swap3\n      swap2\n      pop\n      pop\n      jump\t// out\n        /* \"#utility.yul\":5290:5520   */\n    tag_86:\n        /* \"#utility.yul\":5430:5464   */\n      0x596f7520646f206e6f74206861766520656e6f7567682062616c616e63652074\n        /* \"#utility.yul\":5426:5427   */\n      0x00\n        /* \"#utility.yul\":5418:5424   */\n      dup3\n        /* \"#utility.yul\":5414:5428   */\n      add\n        /* \"#utility.yul\":5407:5465   */\n      mstore\n        /* \"#utility.yul\":5499:5512   */\n      0x6f207472616e736665722e000000000000000000000000000000000000000000\n        /* \"#utility.yul\":5494:5496   */\n      0x20\n        /* \"#utility.yul\":5486:5492   */\n      dup3\n        /* \"#utility.yul\":5482:5497   */\n      add\n        /* \"#utility.yul\":5475:5513   */\n      mstore\n        /* \"#utility.yul\":5290:5520   */\n      pop\n      jump\t// out\n        /* \"#utility.yul\":5526:5892   */\n    tag_87:\n        /* \"#utility.yul\":5668:5671   */\n      0x00\n        /* \"#utility.yul\":5689:5756   */\n      tag_154\n        /* \"#utility.yul\":5753:5755   */\n      0x2b\n        /* \"#utility.yul\":5748:5751   */\n      dup4\n        /* \"#utility.yul\":5689:5756   */\n      tag_77\n      jump\t// in\n    tag_154:\n        /* \"#utility.yul\":5682:5756   */\n      swap2\n      pop\n        /* \"#utility.yul\":5765:5858   */\n      tag_155\n        /* \"#utility.yul\":5854:5857   */\n      dup3\n        /* \"#utility.yul\":5765:5858   */\n      tag_86\n      jump\t// in\n    tag_155:\n        /* \"#utility.yul\":5883:5885   */\n      0x40\n        /* \"#utility.yul\":5878:5881   */\n      dup3\n        /* \"#utility.yul\":5874:5886   */\n      add\n        /* \"#utility.yul\":5867:5886   */\n      swap1\n      pop\n        /* \"#utility.yul\":5526:5892   */\n      swap2\n      swap1\n      pop\n      jump\t// out\n        /* \"#utility.yul\":5898:6317   */\n    tag_63:\n        /* \"#utility.yul\":6064:6068   */\n      0x00\n        /* \"#utility.yul\":6102:6104   */\n      0x20\n        /* \"#utility.yul\":6091:6100   */\n      dup3\n        /* \"#utility.yul\":6087:6105   */\n      add\n        /* \"#utility.yul\":6079:6105   */\n      swap1\n      pop\n        /* \"#utility.yul\":6151:6160   */\n      dup2\n        /* \"#utility.yul\":6145:6149   */\n      dup2\n        /* \"#utility.yul\":6141:6161   */\n      sub\n        /* \"#utility.yul\":6137:6138   */\n      0x00\n        /* \"#utility.yul\":6126:6135   */\n      dup4\n        /* \"#utility.yul\":6122:6139   */\n      add\n        /* \"#utility.yul\":6115:6162   */\n      mstore\n        /* \"#utility.yul\":6179:6310   */\n      tag_157\n        /* \"#utility.yul\":6305:6309   */\n      dup2\n        /* \"#utility.yul\":6179:6310   */\n      tag_87\n      jump\t// in\n    tag_157:\n        /* \"#utility.yul\":6171:6310   */\n      swap1\n      pop\n        /* \"#utility.yul\":5898:6317   */\n      swap2\n      swap1\n      pop\n      jump\t// out\n        /* \"#utility.yul\":6323:6517   */\n    tag_65:\n        /* \"#utility.yul\":6363:6367   */\n      0x00\n        /* \"#utility.yul\":6383:6403   */\n      tag_159\n        /* \"#utility.yul\":6401:6402   */\n      dup3\n        /* \"#utility.yul\":6383:6403   */\n      tag_67\n      jump\t// in\n    tag_159:\n        /* \"#utility.yul\":6378:6403   */\n      swap2\n      pop\n        /* \"#utility.yul\":6417:6437   */\n      tag_160\n        /* \"#utility.yul\":6435:6436   */\n      dup4\n        /* \"#utility.yul\":6417:6437   */\n      tag_67\n      jump\t// in\n    tag_160:\n        /* \"#utility.yul\":6412:6437   */\n      swap3\n      pop\n        /* \"#utility.yul\":6461:6462   */\n      dup3\n        /* \"#utility.yul\":6458:6459   */\n      dup3\n        /* \"#utility.yul\":6454:6463   */\n      sub\n        /* \"#utility.yul\":6446:6463   */\n      swap1\n      pop\n        /* \"#utility.yul\":6485:6486   */\n      dup2\n        /* \"#utility.yul\":6479:6483   */\n      dup2\n        /* \"#utility.yul\":6476:6487   */\n      gt\n        /* \"#utility.yul\":6473:6510   */\n      iszero\n      tag_161\n      jumpi\n        /* \"#utility.yul\":6490:6508   */\n      tag_162\n      tag_85\n      jump\t// in\n    tag_162:\n        /* \"#utility.yul\":6473:6510   */\n    tag_161:\n        /* \"#utility.yul\":6323:6517   */\n      swap3\n      swap2\n      pop\n      pop\n      jump\t// out\n\n    auxdata: 0xa2646970667358221220c9db9010321a9dcf8806f4fad36b69a053bf39383158c0d91c76706e501381fb64736f6c634300081a0033\n}\n",
				"bytecode": {
					"linkReferences": {},
					"object": "608060405234801561000f575f80fd5b50604051610dff380380610dff833981810160405281019061003191906101fe565b815f908161003f9190610481565b50806001908161004f9190610481565b503360035f6101000a81548173ffffffffffffffffffffffffffffffffffffffff021916908373ffffffffffffffffffffffffffffffffffffffff1602179055505050610550565b5f604051905090565b5f80fd5b5f80fd5b5f80fd5b5f80fd5b5f601f19601f8301169050919050565b7f4e487b71000000000000000000000000000000000000000000000000000000005f52604160045260245ffd5b6100f6826100b0565b810181811067ffffffffffffffff82111715610115576101146100c0565b5b80604052505050565b5f610127610097565b905061013382826100ed565b919050565b5f67ffffffffffffffff821115610152576101516100c0565b5b61015b826100b0565b9050602081019050919050565b5f5b8381101561018557808201518184015260208101905061016a565b5f8484015250505050565b5f6101a261019d84610138565b61011e565b9050828152602081018484840111156101be576101bd6100ac565b5b6101c9848285610168565b509392505050565b5f82601f8301126101e5576101e46100a8565b5b81516101f5848260208601610190565b91505092915050565b5f8060408385031215610214576102136100a0565b5b5f83015167ffffffffffffffff811115610231576102306100a4565b5b61023d858286016101d1565b925050602083015167ffffffffffffffff81111561025e5761025d6100a4565b5b61026a858286016101d1565b9150509250929050565b5f81519050919050565b7f4e487b71000000000000000000000000000000000000000000000000000000005f52602260045260245ffd5b5f60028204905060018216806102c257607f821691505b6020821081036102d5576102d461027e565b5b50919050565b5f819050815f5260205f209050919050565b5f6020601f8301049050919050565b5f82821b905092915050565b5f600883026103377fffffffffffffffffffffffffffffffffffffffffffffffffffffffffffffffff826102fc565b61034186836102fc565b95508019841693508086168417925050509392505050565b5f819050919050565b5f819050919050565b5f61038561038061037b84610359565b610362565b610359565b9050919050565b5f819050919050565b61039e8361036b565b6103b26103aa8261038c565b848454610308565b825550505050565b5f90565b6103c66103ba565b6103d1818484610395565b505050565b5b818110156103f4576103e95f826103be565b6001810190506103d7565b5050565b601f8211156104395761040a816102db565b610413846102ed565b81016020851015610422578190505b61043661042e856102ed565b8301826103d6565b50505b505050565b5f82821c905092915050565b5f6104595f198460080261043e565b1980831691505092915050565b5f610471838361044a565b9150826002028217905092915050565b61048a82610274565b67ffffffffffffffff8111156104a3576104a26100c0565b5b6104ad82546102ab565b6104b88282856103f8565b5f60209050601f8311600181146104e9575f84156104d7578287015190505b6104e18582610466565b865550610548565b601f1984166104f7866102db565b5f5b8281101561051e578489015182556001820191506020850194506020810190506104f9565b8683101561053b5784890151610537601f89168261044a565b8355505b6001600288020188555050505b505050505050565b6108a28061055d5f395ff3fe608060405234801561000f575f80fd5b5060043610610086575f3560e01c80637b61c320116100595780637b61c320146101265780638da5cb5b14610144578063a0712d6814610162578063a9059cbb1461017e57610086565b806318160ddd1461008a57806327e235e3146100a85780636c02a931146100d857806370a08231146100f6575b5f80fd5b61009261019a565b60405161009f91906104e7565b60405180910390f35b6100c260048036038101906100bd919061055e565b6101a0565b6040516100cf91906104e7565b60405180910390f35b6100e06101b5565b6040516100ed9190610613565b60405180910390f35b610110600480360381019061010b919061055e565b610240565b60405161011d91906104e7565b60405180910390f35b61012e610286565b60405161013b9190610613565b60405180910390f35b61014c610312565b6040516101599190610642565b60405180910390f35b61017c60048036038101906101779190610685565b610337565b005b610198600480360381019061019391906106b0565b6103a5565b005b60025481565b6004602052805f5260405f205f915090505481565b5f80546101c19061071b565b80601f01602080910402602001604051908101604052809291908181526020018280546101ed9061071b565b80156102385780601f1061020f57610100808354040283529160200191610238565b820191905f5260205f20905b81548152906001019060200180831161021b57829003601f168201915b505050505081565b5f60045f8373ffffffffffffffffffffffffffffffffffffffff1673ffffffffffffffffffffffffffffffffffffffff1681526020019081526020015f20549050919050565b600180546102939061071b565b80601f01602080910402602001604051908101604052809291908181526020018280546102bf9061071b565b801561030a5780601f106102e15761010080835404028352916020019161030a565b820191905f5260205f20905b8154815290600101906020018083116102ed57829003601f168201915b505050505081565b60035f9054906101000a900473ffffffffffffffffffffffffffffffffffffffff1681565b8060045f3373ffffffffffffffffffffffffffffffffffffffff1673ffffffffffffffffffffffffffffffffffffffff1681526020019081526020015f205f8282546103839190610778565b925050819055508060025f82825461039b9190610778565b9250508190555050565b8060045f3373ffffffffffffffffffffffffffffffffffffffff1673ffffffffffffffffffffffffffffffffffffffff1681526020019081526020015f20541015610425576040517f08c379a000000000000000000000000000000000000000000000000000000000815260040161041c9061081b565b60405180910390fd5b8060045f3373ffffffffffffffffffffffffffffffffffffffff1673ffffffffffffffffffffffffffffffffffffffff1681526020019081526020015f205f8282546104719190610839565b925050819055508060045f8473ffffffffffffffffffffffffffffffffffffffff1673ffffffffffffffffffffffffffffffffffffffff1681526020019081526020015f205f8282546104c49190610778565b925050819055505050565b5f819050919050565b6104e1816104cf565b82525050565b5f6020820190506104fa5f8301846104d8565b92915050565b5f80fd5b5f73ffffffffffffffffffffffffffffffffffffffff82169050919050565b5f61052d82610504565b9050919050565b61053d81610523565b8114610547575f80fd5b50565b5f8135905061055881610534565b92915050565b5f6020828403121561057357610572610500565b5b5f6105808482850161054a565b91505092915050565b5f81519050919050565b5f82825260208201905092915050565b5f5b838110156105c05780820151818401526020810190506105a5565b5f8484015250505050565b5f601f19601f8301169050919050565b5f6105e582610589565b6105ef8185610593565b93506105ff8185602086016105a3565b610608816105cb565b840191505092915050565b5f6020820190508181035f83015261062b81846105db565b905092915050565b61063c81610523565b82525050565b5f6020820190506106555f830184610633565b92915050565b610664816104cf565b811461066e575f80fd5b50565b5f8135905061067f8161065b565b92915050565b5f6020828403121561069a57610699610500565b5b5f6106a784828501610671565b91505092915050565b5f80604083850312156106c6576106c5610500565b5b5f6106d38582860161054a565b92505060206106e485828601610671565b9150509250929050565b7f4e487b71000000000000000000000000000000000000000000000000000000005f52602260045260245ffd5b5f600282049050600182168061073257607f821691505b602082108103610745576107446106ee565b5b50919050565b7f4e487b71000000000000000000000000000000000000000000000000000000005f52601160045260245ffd5b5f610782826104cf565b915061078d836104cf565b92508282019050808211156107a5576107a461074b565b5b92915050565b7f596f7520646f206e6f74206861766520656e6f7567682062616c616e636520745f8201527f6f207472616e736665722e000000000000000000000000000000000000000000602082015250565b5f610805602b83610593565b9150610810826107ab565b604082019050919050565b5f6020820190508181035f830152610832816107f9565b9050919050565b5f610843826104cf565b915061084e836104cf565b92508282039050818111156108665761086561074b565b5b9291505056fea2646970667358221220c9db9010321a9dcf8806f4fad36b69a053bf39383158c0d91c76706e501381fb64736f6c634300081a0033",
					"opcodes": "PUSH1 0x80 PUSH1 0x40 MSTORE CALLVALUE DUP1 ISZERO PUSH2 0xF JUMPI PUSH0 DUP1 REVERT JUMPDEST POP PUSH1 0x40 MLOAD PUSH2 0xDFF CODESIZE SUB DUP1 PUSH2 0xDFF DUP4 CODECOPY DUP2 DUP2 ADD PUSH1 0x40 MSTORE DUP2 ADD SWAP1 PUSH2 0x31 SWAP2 SWAP1 PUSH2 0x1FE JUMP JUMPDEST DUP2 PUSH0 SWAP1 DUP2 PUSH2 0x3F SWAP2 SWAP1 PUSH2 0x481 JUMP JUMPDEST POP DUP1 PUSH1 0x1 SWAP1 DUP2 PUSH2 0x4F SWAP2 SWAP1 PUSH2 0x481 JUMP JUMPDEST POP CALLER PUSH1 0x3 PUSH0 PUSH2 0x100 EXP DUP2 SLOAD DUP2 PUSH20 0xFFFFFFFFFFFFFFFFFFFFFFFFFFFFFFFFFFFFFFFF MUL NOT AND SWAP1 DUP4 PUSH20 0xFFFFFFFFFFFFFFFFFFFFFFFFFFFFFFFFFFFFFFFF AND MUL OR SWAP1 SSTORE POP POP POP PUSH2 0x550 JUMP JUMPDEST PUSH0 PUSH1 0x40 MLOAD SWAP1 POP SWAP1 JUMP JUMPDEST PUSH0 DUP1 REVERT JUMPDEST PUSH0 DUP1 REVERT JUMPDEST PUSH0 DUP1 REVERT JUMPDEST PUSH0 DUP1 REVERT JUMPDEST PUSH0 PUSH1 0x1F NOT PUSH1 0x1F DUP4 ADD AND SWAP1 POP SWAP2 SWAP1 POP JUMP JUMPDEST PUSH32 0x4E487B7100000000000000000000000000000000000000000000000000000000 PUSH0 MSTORE PUSH1 0x41 PUSH1 0x4 MSTORE PUSH1 0x24 PUSH0 REVERT JUMPDEST PUSH2 0xF6 DUP3 PUSH2 0xB0 JUMP JUMPDEST DUP2 ADD DUP2 DUP2 LT PUSH8 0xFFFFFFFFFFFFFFFF DUP3 GT OR ISZERO PUSH2 0x115 JUMPI PUSH2 0x114 PUSH2 0xC0 JUMP JUMPDEST JUMPDEST DUP1 PUSH1 0x40 MSTORE POP POP POP JUMP JUMPDEST PUSH0 PUSH2 0x127 PUSH2 0x97 JUMP JUMPDEST SWAP1 POP PUSH2 0x133 DUP3 DUP3 PUSH2 0xED JUMP JUMPDEST SWAP2 SWAP1 POP JUMP JUMPDEST PUSH0 PUSH8 0xFFFFFFFFFFFFFFFF DUP3 GT ISZERO PUSH2 0x152 JUMPI PUSH2 0x151 PUSH2 0xC0 JUMP JUMPDEST JUMPDEST PUSH2 0x15B DUP3 PUSH2 0xB0 JUMP JUMPDEST SWAP1 POP PUSH1 0x20 DUP2 ADD SWAP1 POP SWAP2 SWAP1 POP JUMP JUMPDEST PUSH0 JUMPDEST DUP4 DUP2 LT ISZERO PUSH2 0x185 JUMPI DUP1 DUP3 ADD MLOAD DUP2 DUP5 ADD MSTORE PUSH1 0x20 DUP2 ADD SWAP1 POP PUSH2 0x16A JUMP JUMPDEST PUSH0 DUP5 DUP5 ADD MSTORE POP POP POP POP JUMP JUMPDEST PUSH0 PUSH2 0x1A2 PUSH2 0x19D DUP5 PUSH2 0x138 JUMP JUMPDEST PUSH2 0x11E JUMP JUMPDEST SWAP1 POP DUP3 DUP2 MSTORE PUSH1 0x20 DUP2 ADD DUP5 DUP5 DUP5 ADD GT ISZERO PUSH2 0x1BE JUMPI PUSH2 0x1BD PUSH2 0xAC JUMP JUMPDEST JUMPDEST PUSH2 0x1C9 DUP5 DUP3 DUP6 PUSH2 0x168 JUMP JUMPDEST POP SWAP4 SWAP3 POP POP POP JUMP JUMPDEST PUSH0 DUP3 PUSH1 0x1F DUP4 ADD SLT PUSH2 0x1E5 JUMPI PUSH2 0x1E4 PUSH2 0xA8 JUMP JUMPDEST JUMPDEST DUP2 MLOAD PUSH2 0x1F5 DUP5 DUP3 PUSH1 0x20 DUP7 ADD PUSH2 0x190 JUMP JUMPDEST SWAP2 POP POP SWAP3 SWAP2 POP POP JUMP JUMPDEST PUSH0 DUP1 PUSH1 0x40 DUP4 DUP6 SUB SLT ISZERO PUSH2 0x214 JUMPI PUSH2 0x213 PUSH2 0xA0 JUMP JUMPDEST JUMPDEST PUSH0 DUP4 ADD MLOAD PUSH8 0xFFFFFFFFFFFFFFFF DUP2 GT ISZERO PUSH2 0x231 JUMPI PUSH2 0x230 PUSH2 0xA4 JUMP JUMPDEST JUMPDEST PUSH2 0x23D DUP6 DUP3 DUP7 ADD PUSH2 0x1D1 JUMP JUMPDEST SWAP3 POP POP PUSH1 0x20 DUP4 ADD MLOAD PUSH8 0xFFFFFFFFFFFFFFFF DUP2 GT ISZERO PUSH2 0x25E JUMPI PUSH2 0x25D PUSH2 0xA4 JUMP JUMPDEST JUMPDEST PUSH2 0x26A DUP6 DUP3 DUP7 ADD PUSH2 0x1D1 JUMP JUMPDEST SWAP2 POP POP SWAP3 POP SWAP3 SWAP1 POP JUMP JUMPDEST PUSH0 DUP2 MLOAD SWAP1 POP SWAP2 SWAP1 POP JUMP JUMPDEST PUSH32 0x4E487B7100000000000000000000000000000000000000000000000000000000 PUSH0 MSTORE PUSH1 0x22 PUSH1 0x4 MSTORE PUSH1 0x24 PUSH0 REVERT JUMPDEST PUSH0 PUSH1 0x2 DUP3 DIV SWAP1 POP PUSH1 0x1 DUP3 AND DUP1 PUSH2 0x2C2 JUMPI PUSH1 0x7F DUP3 AND SWAP2 POP JUMPDEST PUSH1 0x20 DUP3 LT DUP2 SUB PUSH2 0x2D5 JUMPI PUSH2 0x2D4 PUSH2 0x27E JUMP JUMPDEST JUMPDEST POP SWAP2 SWAP1 POP JUMP JUMPDEST PUSH0 DUP2 SWAP1 POP DUP2 PUSH0 MSTORE PUSH1 0x20 PUSH0 KECCAK256 SWAP1 POP SWAP2 SWAP1 POP JUMP JUMPDEST PUSH0 PUSH1 0x20 PUSH1 0x1F DUP4 ADD DIV SWAP1 POP SWAP2 SWAP1 POP JUMP JUMPDEST PUSH0 DUP3 DUP3 SHL SWAP1 POP SWAP3 SWAP2 POP POP JUMP JUMPDEST PUSH0 PUSH1 0x8 DUP4 MUL PUSH2 0x337 PUSH32 0xFFFFFFFFFFFFFFFFFFFFFFFFFFFFFFFFFFFFFFFFFFFFFFFFFFFFFFFFFFFFFFFF DUP3 PUSH2 0x2FC JUMP JUMPDEST PUSH2 0x341 DUP7 DUP4 PUSH2 0x2FC JUMP JUMPDEST SWAP6 POP DUP1 NOT DUP5 AND SWAP4 POP DUP1 DUP7 AND DUP5 OR SWAP3 POP POP POP SWAP4 SWAP3 POP POP POP JUMP JUMPDEST PUSH0 DUP2 SWAP1 POP SWAP2 SWAP1 POP JUMP JUMPDEST PUSH0 DUP2 SWAP1 POP SWAP2 SWAP1 POP JUMP JUMPDEST PUSH0 PUSH2 0x385 PUSH2 0x380 PUSH2 0x37B DUP5 PUSH2 0x359 JUMP JUMPDEST PUSH2 0x362 JUMP JUMPDEST PUSH2 0x359 JUMP JUMPDEST SWAP1 POP SWAP2 SWAP1 POP JUMP JUMPDEST PUSH0 DUP2 SWAP1 POP SWAP2 SWAP1 POP JUMP JUMPDEST PUSH2 0x39E DUP4 PUSH2 0x36B JUMP JUMPDEST PUSH2 0x3B2 PUSH2 0x3AA DUP3 PUSH2 0x38C JUMP JUMPDEST DUP5 DUP5 SLOAD PUSH2 0x308 JUMP JUMPDEST DUP3 SSTORE POP POP POP POP JUMP JUMPDEST PUSH0 SWAP1 JUMP JUMPDEST PUSH2 0x3C6 PUSH2 0x3BA JUMP JUMPDEST PUSH2 0x3D1 DUP2 DUP5 DUP5 PUSH2 0x395 JUMP JUMPDEST POP POP POP JUMP JUMPDEST JUMPDEST DUP2 DUP2 LT ISZERO PUSH2 0x3F4 JUMPI PUSH2 0x3E9 PUSH0 DUP3 PUSH2 0x3BE JUMP JUMPDEST PUSH1 0x1 DUP2 ADD SWAP1 POP PUSH2 0x3D7 JUMP JUMPDEST POP POP JUMP JUMPDEST PUSH1 0x1F DUP3 GT ISZERO PUSH2 0x439 JUMPI PUSH2 0x40A DUP2 PUSH2 0x2DB JUMP JUMPDEST PUSH2 0x413 DUP5 PUSH2 0x2ED JUMP JUMPDEST DUP2 ADD PUSH1 0x20 DUP6 LT ISZERO PUSH2 0x422 JUMPI DUP2 SWAP1 POP JUMPDEST PUSH2 0x436 PUSH2 0x42E DUP6 PUSH2 0x2ED JUMP JUMPDEST DUP4 ADD DUP3 PUSH2 0x3D6 JUMP JUMPDEST POP POP JUMPDEST POP POP POP JUMP JUMPDEST PUSH0 DUP3 DUP3 SHR SWAP1 POP SWAP3 SWAP2 POP POP JUMP JUMPDEST PUSH0 PUSH2 0x459 PUSH0 NOT DUP5 PUSH1 0x8 MUL PUSH2 0x43E JUMP JUMPDEST NOT DUP1 DUP4 AND SWAP2 POP POP SWAP3 SWAP2 POP POP JUMP JUMPDEST PUSH0 PUSH2 0x471 DUP4 DUP4 PUSH2 0x44A JUMP JUMPDEST SWAP2 POP DUP3 PUSH1 0x2 MUL DUP3 OR SWAP1 POP SWAP3 SWAP2 POP POP JUMP JUMPDEST PUSH2 0x48A DUP3 PUSH2 0x274 JUMP JUMPDEST PUSH8 0xFFFFFFFFFFFFFFFF DUP2 GT ISZERO PUSH2 0x4A3 JUMPI PUSH2 0x4A2 PUSH2 0xC0 JUMP JUMPDEST JUMPDEST PUSH2 0x4AD DUP3 SLOAD PUSH2 0x2AB JUMP JUMPDEST PUSH2 0x4B8 DUP3 DUP3 DUP6 PUSH2 0x3F8 JUMP JUMPDEST PUSH0 PUSH1 0x20 SWAP1 POP PUSH1 0x1F DUP4 GT PUSH1 0x1 DUP2 EQ PUSH2 0x4E9 JUMPI PUSH0 DUP5 ISZERO PUSH2 0x4D7 JUMPI DUP3 DUP8 ADD MLOAD SWAP1 POP JUMPDEST PUSH2 0x4E1 DUP6 DUP3 PUSH2 0x466 JUMP JUMPDEST DUP7 SSTORE POP PUSH2 0x548 JUMP JUMPDEST PUSH1 0x1F NOT DUP5 AND PUSH2 0x4F7 DUP7 PUSH2 0x2DB JUMP JUMPDEST PUSH0 JUMPDEST DUP3 DUP2 LT ISZERO PUSH2 0x51E JUMPI DUP5 DUP10 ADD MLOAD DUP3 SSTORE PUSH1 0x1 DUP3 ADD SWAP2 POP PUSH1 0x20 DUP6 ADD SWAP5 POP PUSH1 0x20 DUP2 ADD SWAP1 POP PUSH2 0x4F9 JUMP JUMPDEST DUP7 DUP4 LT ISZERO PUSH2 0x53B JUMPI DUP5 DUP10 ADD MLOAD PUSH2 0x537 PUSH1 0x1F DUP10 AND DUP3 PUSH2 0x44A JUMP JUMPDEST DUP4 SSTORE POP JUMPDEST PUSH1 0x1 PUSH1 0x2 DUP9 MUL ADD DUP9 SSTORE POP POP POP JUMPDEST POP POP POP POP POP POP JUMP JUMPDEST PUSH2 0x8A2 DUP1 PUSH2 0x55D PUSH0 CODECOPY PUSH0 RETURN INVALID PUSH1 0x80 PUSH1 0x40 MSTORE CALLVALUE DUP1 ISZERO PUSH2 0xF JUMPI PUSH0 DUP1 REVERT JUMPDEST POP PUSH1 0x4 CALLDATASIZE LT PUSH2 0x86 JUMPI PUSH0 CALLDATALOAD PUSH1 0xE0 SHR DUP1 PUSH4 0x7B61C320 GT PUSH2 0x59 JUMPI DUP1 PUSH4 0x7B61C320 EQ PUSH2 0x126 JUMPI DUP1 PUSH4 0x8DA5CB5B EQ PUSH2 0x144 JUMPI DUP1 PUSH4 0xA0712D68 EQ PUSH2 0x162 JUMPI DUP1 PUSH4 0xA9059CBB EQ PUSH2 0x17E JUMPI PUSH2 0x86 JUMP JUMPDEST DUP1 PUSH4 0x18160DDD EQ PUSH2 0x8A JUMPI DUP1 PUSH4 0x27E235E3 EQ PUSH2 0xA8 JUMPI DUP1 PUSH4 0x6C02A931 EQ PUSH2 0xD8 JUMPI DUP1 PUSH4 0x70A08231 EQ PUSH2 0xF6 JUMPI JUMPDEST PUSH0 DUP1 REVERT JUMPDEST PUSH2 0x92 PUSH2 0x19A JUMP JUMPDEST PUSH1 0x40 MLOAD PUSH2 0x9F SWAP2 SWAP1 PUSH2 0x4E7 JUMP JUMPDEST PUSH1 0x40 MLOAD DUP1 SWAP2 SUB SWAP1 RETURN JUMPDEST PUSH2 0xC2 PUSH1 0x4 DUP1 CALLDATASIZE SUB DUP2 ADD SWAP1 PUSH2 0xBD SWAP2 SWAP1 PUSH2 0x55E JUMP JUMPDEST PUSH2 0x1A0 JUMP JUMPDEST PUSH1 0x40 MLOAD PUSH2 0xCF SWAP2 SWAP1 PUSH2 0x4E7 JUMP JUMPDEST PUSH1 0x40 MLOAD DUP1 SWAP2 SUB SWAP1 RETURN JUMPDEST PUSH2 0xE0 PUSH2 0x1B5 JUMP JUMPDEST PUSH1 0x40 MLOAD PUSH2 0xED SWAP2 SWAP1 PUSH2 0x613 JUMP JUMPDEST PUSH1 0x40 MLOAD DUP1 SWAP2 SUB SWAP1 RETURN JUMPDEST PUSH2 0x110 PUSH1 0x4 DUP1 CALLDATASIZE SUB DUP2 ADD SWAP1 PUSH2 0x10B SWAP2 SWAP1 PUSH2 0x55E JUMP JUMPDEST PUSH2 0x240 JUMP JUMPDEST PUSH1 0x40 MLOAD PUSH2 0x11D SWAP2 SWAP1 PUSH2 0x4E7 JUMP JUMPDEST PUSH1 0x40 MLOAD DUP1 SWAP2 SUB SWAP1 RETURN JUMPDEST PUSH2 0x12E PUSH2 0x286 JUMP JUMPDEST PUSH1 0x40 MLOAD PUSH2 0x13B SWAP2 SWAP1 PUSH2 0x613 JUMP JUMPDEST PUSH1 0x40 MLOAD DUP1 SWAP2 SUB SWAP1 RETURN JUMPDEST PUSH2 0x14C PUSH2 0x312 JUMP JUMPDEST PUSH1 0x40 MLOAD PUSH2 0x159 SWAP2 SWAP1 PUSH2 0x642 JUMP JUMPDEST PUSH1 0x40 MLOAD DUP1 SWAP2 SUB SWAP1 RETURN JUMPDEST PUSH2 0x17C PUSH1 0x4 DUP1 CALLDATASIZE SUB DUP2 ADD SWAP1 PUSH2 0x177 SWAP2 SWAP1 PUSH2 0x685 JUMP JUMPDEST PUSH2 0x337 JUMP JUMPDEST STOP JUMPDEST PUSH2 0x198 PUSH1 0x4 DUP1 CALLDATASIZE SUB DUP2 ADD SWAP1 PUSH2 0x193 SWAP2 SWAP1 PUSH2 0x6B0 JUMP JUMPDEST PUSH2 0x3A5 JUMP JUMPDEST STOP JUMPDEST PUSH1 0x2 SLOAD DUP2 JUMP JUMPDEST PUSH1 0x4 PUSH1 0x20 MSTORE DUP1 PUSH0 MSTORE PUSH1 0x40 PUSH0 KECCAK256 PUSH0 SWAP2 POP SWAP1 POP SLOAD DUP2 JUMP JUMPDEST PUSH0 DUP1 SLOAD PUSH2 0x1C1 SWAP1 PUSH2 0x71B JUMP JUMPDEST DUP1 PUSH1 0x1F ADD PUSH1 0x20 DUP1 SWAP2 DIV MUL PUSH1 0x20 ADD PUSH1 0x40 MLOAD SWAP1 DUP2 ADD PUSH1 0x40 MSTORE DUP1 SWAP3 SWAP2 SWAP1 DUP2 DUP2 MSTORE PUSH1 0x20 ADD DUP3 DUP1 SLOAD PUSH2 0x1ED SWAP1 PUSH2 0x71B JUMP JUMPDEST DUP1 ISZERO PUSH2 0x238 JUMPI DUP1 PUSH1 0x1F LT PUSH2 0x20F JUMPI PUSH2 0x100 DUP1 DUP4 SLOAD DIV MUL DUP4 MSTORE SWAP2 PUSH1 0x20 ADD SWAP2 PUSH2 0x238 JUMP JUMPDEST DUP3 ADD SWAP2 SWAP1 PUSH0 MSTORE PUSH1 0x20 PUSH0 KECCAK256 SWAP1 JUMPDEST DUP2 SLOAD DUP2 MSTORE SWAP1 PUSH1 0x1 ADD SWAP1 PUSH1 0x20 ADD DUP1 DUP4 GT PUSH2 0x21B JUMPI DUP3 SWAP1 SUB PUSH1 0x1F AND DUP3 ADD SWAP2 JUMPDEST POP POP POP POP POP DUP2 JUMP JUMPDEST PUSH0 PUSH1 0x4 PUSH0 DUP4 PUSH20 0xFFFFFFFFFFFFFFFFFFFFFFFFFFFFFFFFFFFFFFFF AND PUSH20 0xFFFFFFFFFFFFFFFFFFFFFFFFFFFFFFFFFFFFFFFF AND DUP2 MSTORE PUSH1 0x20 ADD SWAP1 DUP2 MSTORE PUSH1 0x20 ADD PUSH0 KECCAK256 SLOAD SWAP1 POP SWAP2 SWAP1 POP JUMP JUMPDEST PUSH1 0x1 DUP1 SLOAD PUSH2 0x293 SWAP1 PUSH2 0x71B JUMP JUMPDEST DUP1 PUSH1 0x1F ADD PUSH1 0x20 DUP1 SWAP2 DIV MUL PUSH1 0x20 ADD PUSH1 0x40 MLOAD SWAP1 DUP2 ADD PUSH1 0x40 MSTORE DUP1 SWAP3 SWAP2 SWAP1 DUP2 DUP2 MSTORE PUSH1 0x20 ADD DUP3 DUP1 SLOAD PUSH2 0x2BF SWAP1 PUSH2 0x71B JUMP JUMPDEST DUP1 ISZERO PUSH2 0x30A JUMPI DUP1 PUSH1 0x1F LT PUSH2 0x2E1 JUMPI PUSH2 0x100 DUP1 DUP4 SLOAD DIV MUL DUP4 MSTORE SWAP2 PUSH1 0x20 ADD SWAP2 PUSH2 0x30A JUMP JUMPDEST DUP3 ADD SWAP2 SWAP1 PUSH0 MSTORE PUSH1 0x20 PUSH0 KECCAK256 SWAP1 JUMPDEST DUP2 SLOAD DUP2 MSTORE SWAP1 PUSH1 0x1 ADD SWAP1 PUSH1 0x20 ADD DUP1 DUP4 GT PUSH2 0x2ED JUMPI DUP3 SWAP1 SUB PUSH1 0x1F AND DUP3 ADD SWAP2 JUMPDEST POP POP POP POP POP DUP2 JUMP JUMPDEST PUSH1 0x3 PUSH0 SWAP1 SLOAD SWAP1 PUSH2 0x100 EXP SWAP1 DIV PUSH20 0xFFFFFFFFFFFFFFFFFFFFFFFFFFFFFFFFFFFFFFFF AND DUP2 JUMP JUMPDEST DUP1 PUSH1 0x4 PUSH0 CALLER PUSH20 0xFFFFFFFFFFFFFFFFFFFFFFFFFFFFFFFFFFFFFFFF AND PUSH20 0xFFFFFFFFFFFFFFFFFFFFFFFFFFFFFFFFFFFFFFFF AND DUP2 MSTORE PUSH1 0x20 ADD SWAP1 DUP2 MSTORE PUSH1 0x20 ADD PUSH0 KECCAK256 PUSH0 DUP3 DUP3 SLOAD PUSH2 0x383 SWAP2 SWAP1 PUSH2 0x778 JUMP JUMPDEST SWAP3 POP POP DUP2 SWAP1 SSTORE POP DUP1 PUSH1 0x2 PUSH0 DUP3 DUP3 SLOAD PUSH2 0x39B SWAP2 SWAP1 PUSH2 0x778 JUMP JUMPDEST SWAP3 POP POP DUP2 SWAP1 SSTORE POP POP JUMP JUMPDEST DUP1 PUSH1 0x4 PUSH0 CALLER PUSH20 0xFFFFFFFFFFFFFFFFFFFFFFFFFFFFFFFFFFFFFFFF AND PUSH20 0xFFFFFFFFFFFFFFFFFFFFFFFFFFFFFFFFFFFFFFFF AND DUP2 MSTORE PUSH1 0x20 ADD SWAP1 DUP2 MSTORE PUSH1 0x20 ADD PUSH0 KECCAK256 SLOAD LT ISZERO PUSH2 0x425 JUMPI PUSH1 0x40 MLOAD PUSH32 0x8C379A000000000000000000000000000000000000000000000000000000000 DUP2 MSTORE PUSH1 0x4 ADD PUSH2 0x41C SWAP1 PUSH2 0x81B JUMP JUMPDEST PUSH1 0x40 MLOAD DUP1 SWAP2 SUB SWAP1 REVERT JUMPDEST DUP1 PUSH1 0x4 PUSH0 CALLER PUSH20 0xFFFFFFFFFFFFFFFFFFFFFFFFFFFFFFFFFFFFFFFF AND PUSH20 0xFFFFFFFFFFFFFFFFFFFFFFFFFFFFFFFFFFFFFFFF AND DUP2 MSTORE PUSH1 0x20 ADD SWAP1 DUP2 MSTORE PUSH1 0x20 ADD PUSH0 KECCAK256 PUSH0 DUP3 DUP3 SLOAD PUSH2 0x471 SWAP2 SWAP1 PUSH2 0x839 JUMP JUMPDEST SWAP3 POP POP DUP2 SWAP1 SSTORE POP DUP1 PUSH1 0x4 PUSH0 DUP5 PUSH20 0xFFFFFFFFFFFFFFFFFFFFFFFFFFFFFFFFFFFFFFFF AND PUSH20 0xFFFFFFFFFFFFFFFFFFFFFFFFFFFFFFFFFFFFFFFF AND DUP2 MSTORE PUSH1 0x20 ADD SWAP1 DUP2 MSTORE PUSH1 0x20 ADD PUSH0 KECCAK256 PUSH0 DUP3 DUP3 SLOAD PUSH2 0x4C4 SWAP2 SWAP1 PUSH2 0x778 JUMP JUMPDEST SWAP3 POP POP DUP2 SWAP1 SSTORE POP POP POP JUMP JUMPDEST PUSH0 DUP2 SWAP1 POP SWAP2 SWAP1 POP JUMP JUMPDEST PUSH2 0x4E1 DUP2 PUSH2 0x4CF JUMP JUMPDEST DUP3 MSTORE POP POP JUMP JUMPDEST PUSH0 PUSH1 0x20 DUP3 ADD SWAP1 POP PUSH2 0x4FA PUSH0 DUP4 ADD DUP5 PUSH2 0x4D8 JUMP JUMPDEST SWAP3 SWAP2 POP POP JUMP JUMPDEST PUSH0 DUP1 REVERT JUMPDEST PUSH0 PUSH20 0xFFFFFFFFFFFFFFFFFFFFFFFFFFFFFFFFFFFFFFFF DUP3 AND SWAP1 POP SWAP2 SWAP1 POP JUMP JUMPDEST PUSH0 PUSH2 0x52D DUP3 PUSH2 0x504 JUMP JUMPDEST SWAP1 POP SWAP2 SWAP1 POP JUMP JUMPDEST PUSH2 0x53D DUP2 PUSH2 0x523 JUMP JUMPDEST DUP2 EQ PUSH2 0x547 JUMPI PUSH0 DUP1 REVERT JUMPDEST POP JUMP JUMPDEST PUSH0 DUP2 CALLDATALOAD SWAP1 POP PUSH2 0x558 DUP2 PUSH2 0x534 JUMP JUMPDEST SWAP3 SWAP2 POP POP JUMP JUMPDEST PUSH0 PUSH1 0x20 DUP3 DUP5 SUB SLT ISZERO PUSH2 0x573 JUMPI PUSH2 0x572 PUSH2 0x500 JUMP JUMPDEST JUMPDEST PUSH0 PUSH2 0x580 DUP5 DUP3 DUP6 ADD PUSH2 0x54A JUMP JUMPDEST SWAP2 POP POP SWAP3 SWAP2 POP POP JUMP JUMPDEST PUSH0 DUP2 MLOAD SWAP1 POP SWAP2 SWAP1 POP JUMP JUMPDEST PUSH0 DUP3 DUP3 MSTORE PUSH1 0x20 DUP3 ADD SWAP1 POP SWAP3 SWAP2 POP POP JUMP JUMPDEST PUSH0 JUMPDEST DUP4 DUP2 LT ISZERO PUSH2 0x5C0 JUMPI DUP1 DUP3 ADD MLOAD DUP2 DUP5 ADD MSTORE PUSH1 0x20 DUP2 ADD SWAP1 POP PUSH2 0x5A5 JUMP JUMPDEST PUSH0 DUP5 DUP5 ADD MSTORE POP POP POP POP JUMP JUMPDEST PUSH0 PUSH1 0x1F NOT PUSH1 0x1F DUP4 ADD AND SWAP1 POP SWAP2 SWAP1 POP JUMP JUMPDEST PUSH0 PUSH2 0x5E5 DUP3 PUSH2 0x589 JUMP JUMPDEST PUSH2 0x5EF DUP2 DUP6 PUSH2 0x593 JUMP JUMPDEST SWAP4 POP PUSH2 0x5FF DUP2 DUP6 PUSH1 0x20 DUP7 ADD PUSH2 0x5A3 JUMP JUMPDEST PUSH2 0x608 DUP2 PUSH2 0x5CB JUMP JUMPDEST DUP5 ADD SWAP2 POP POP SWAP3 SWAP2 POP POP JUMP JUMPDEST PUSH0 PUSH1 0x20 DUP3 ADD SWAP1 POP DUP2 DUP2 SUB PUSH0 DUP4 ADD MSTORE PUSH2 0x62B DUP2 DUP5 PUSH2 0x5DB JUMP JUMPDEST SWAP1 POP SWAP3 SWAP2 POP POP JUMP JUMPDEST PUSH2 0x63C DUP2 PUSH2 0x523 JUMP JUMPDEST DUP3 MSTORE POP POP JUMP JUMPDEST PUSH0 PUSH1 0x20 DUP3 ADD SWAP1 POP PUSH2 0x655 PUSH0 DUP4 ADD DUP5 PUSH2 0x633 JUMP JUMPDEST SWAP3 SWAP2 POP POP JUMP JUMPDEST PUSH2 0x664 DUP2 PUSH2 0x4CF JUMP JUMPDEST DUP2 EQ PUSH2 0x66E JUMPI PUSH0 DUP1 REVERT JUMPDEST POP JUMP JUMPDEST PUSH0 DUP2 CALLDATALOAD SWAP1 POP PUSH2 0x67F DUP2 PUSH2 0x65B JUMP JUMPDEST SWAP3 SWAP2 POP POP JUMP JUMPDEST PUSH0 PUSH1 0x20 DUP3 DUP5 SUB SLT ISZERO PUSH2 0x69A JUMPI PUSH2 0x699 PUSH2 0x500 JUMP JUMPDEST JUMPDEST PUSH0 PUSH2 0x6A7 DUP5 DUP3 DUP6 ADD PUSH2 0x671 JUMP JUMPDEST SWAP2 POP POP SWAP3 SWAP2 POP POP JUMP JUMPDEST PUSH0 DUP1 PUSH1 0x40 DUP4 DUP6 SUB SLT ISZERO PUSH2 0x6C6 JUMPI PUSH2 0x6C5 PUSH2 0x500 JUMP JUMPDEST JUMPDEST PUSH0 PUSH2 0x6D3 DUP6 DUP3 DUP7 ADD PUSH2 0x54A JUMP JUMPDEST SWAP3 POP POP PUSH1 0x20 PUSH2 0x6E4 DUP6 DUP3 DUP7 ADD PUSH2 0x671 JUMP JUMPDEST SWAP2 POP POP SWAP3 POP SWAP3 SWAP1 POP JUMP JUMPDEST PUSH32 0x4E487B7100000000000000000000000000000000000000000000000000000000 PUSH0 MSTORE PUSH1 0x22 PUSH1 0x4 MSTORE PUSH1 0x24 PUSH0 REVERT JUMPDEST PUSH0 PUSH1 0x2 DUP3 DIV SWAP1 POP PUSH1 0x1 DUP3 AND DUP1 PUSH2 0x732 JUMPI PUSH1 0x7F DUP3 AND SWAP2 POP JUMPDEST PUSH1 0x20 DUP3 LT DUP2 SUB PUSH2 0x745 JUMPI PUSH2 0x744 PUSH2 0x6EE JUMP JUMPDEST JUMPDEST POP SWAP2 SWAP1 POP JUMP JUMPDEST PUSH32 0x4E487B7100000000000000000000000000000000000000000000000000000000 PUSH0 MSTORE PUSH1 0x11 PUSH1 0x4 MSTORE PUSH1 0x24 PUSH0 REVERT JUMPDEST PUSH0 PUSH2 0x782 DUP3 PUSH2 0x4CF JUMP JUMPDEST SWAP2 POP PUSH2 0x78D DUP4 PUSH2 0x4CF JUMP JUMPDEST SWAP3 POP DUP3 DUP3 ADD SWAP1 POP DUP1 DUP3 GT ISZERO PUSH2 0x7A5 JUMPI PUSH2 0x7A4 PUSH2 0x74B JUMP JUMPDEST JUMPDEST SWAP3 SWAP2 POP POP JUMP JUMPDEST PUSH32 0x596F7520646F206E6F74206861766520656E6F7567682062616C616E63652074 PUSH0 DUP3 ADD MSTORE PUSH32 0x6F207472616E736665722E000000000000000000000000000000000000000000 PUSH1 0x20 DUP3 ADD MSTORE POP JUMP JUMPDEST PUSH0 PUSH2 0x805 PUSH1 0x2B DUP4 PUSH2 0x593 JUMP JUMPDEST SWAP2 POP PUSH2 0x810 DUP3 PUSH2 0x7AB JUMP JUMPDEST PUSH1 0x40 DUP3 ADD SWAP1 POP SWAP2 SWAP1 POP JUMP JUMPDEST PUSH0 PUSH1 0x20 DUP3 ADD SWAP1 POP DUP2 DUP2 SUB PUSH0 DUP4 ADD MSTORE PUSH2 0x832 DUP2 PUSH2 0x7F9 JUMP JUMPDEST SWAP1 POP SWAP2 SWAP1 POP JUMP JUMPDEST PUSH0 PUSH2 0x843 DUP3 PUSH2 0x4CF JUMP JUMPDEST SWAP2 POP PUSH2 0x84E DUP4 PUSH2 0x4CF JUMP JUMPDEST SWAP3 POP DUP3 DUP3 SUB SWAP1 POP DUP2 DUP2 GT ISZERO PUSH2 0x866 JUMPI PUSH2 0x865 PUSH2 0x74B JUMP JUMPDEST JUMPDEST SWAP3 SWAP2 POP POP JUMP INVALID LOG2 PUSH5 0x6970667358 0x22 SLT KECCAK256 0xC9 0xDB SWAP1 LT ORIGIN BYTE SWAP14 0xCF DUP9 MOD DELEGATECALL STATICCALL 0xD3 PUSH12 0x69A053BF39383158C0D91C76 PUSH17 0x6E501381FB64736F6C634300081A003300 "
				},
				"gasEstimates": {
					"creation": {
						"codeDepositCost": "442000",
						"executionCost": "infinite",
						"totalCost": "infinite"
					},
					"external": {
						"balanceOf(address)": "2896",
						"balances(address)": "2825",
						"mint(uint256)": "infinite",
						"owner()": "2530",
						"tokenName()": "infinite",
						"tokenSymbol()": "infinite",
						"totalSupply()": "2426",
						"transfer(address,uint256)": "infinite"
					}
				},
				"methodIdentifiers": {
					"balanceOf(address)": "70a08231",
					"balances(address)": "27e235e3",
					"mint(uint256)": "a0712d68",
					"owner()": "8da5cb5b",
					"tokenName()": "6c02a931",
					"tokenSymbol()": "7b61c320",
					"totalSupply()": "18160ddd",
					"transfer(address,uint256)": "a9059cbb"
				}
			},
			"storageLayout": {
				"storage": [
					{
						"astId": 3,
						"contract": "lesson3/FundToken.sol:FundToken",
						"label": "tokenName",
						"offset": 0,
						"slot": "0",
						"type": "t_string_storage"
					},
					{
						"astId": 5,
						"contract": "lesson3/FundToken.sol:FundToken",
						"label": "tokenSymbol",
						"offset": 0,
						"slot": "1",
						"type": "t_string_storage"
					},
					{
						"astId": 7,
						"contract": "lesson3/FundToken.sol:FundToken",
						"label": "totalSupply",
						"offset": 0,
						"slot": "2",
						"type": "t_uint256"
					},
					{
						"astId": 9,
						"contract": "lesson3/FundToken.sol:FundToken",
						"label": "owner",
						"offset": 0,
						"slot": "3",
						"type": "t_address"
					},
					{
						"astId": 13,
						"contract": "lesson3/FundToken.sol:FundToken",
						"label": "balances",
						"offset": 0,
						"slot": "4",
						"type": "t_mapping(t_address,t_uint256)"
					}
				],
				"types": {
					"t_address": {
						"encoding": "inplace",
						"label": "address",
						"numberOfBytes": "20"
					},
					"t_mapping(t_address,t_uint256)": {
						"encoding": "mapping",
						"key": "t_address",
						"label": "mapping(address => uint256)",
						"numberOfBytes": "32",
						"value": "t_uint256"
					},
					"t_string_storage": {
						"encoding": "bytes",
						"label": "string",
						"numberOfBytes": "32"
					},
					"t_uint256": {
						"encoding": "inplace",
						"label": "uint256",
						"numberOfBytes": "32"
					}
				}
			},
			"userdoc": {
				"kind": "user",
				"methods": {},
				"version": 1
			}
		}
	}
}