{
	"hello.sol": {
		"Hello3Dot0": {
			"abi": [
				{
					"inputs": [
						{
							"internalType": "string",
							"name": "base",
							"type": "string"
						},
						{
							"internalType": "string",
							"name": "name",
							"type": "string"
						}
					],
					"name": "fn",
					"outputs": [
						{
							"internalType": "string",
							"name": "",
							"type": "string"
						}
					],
					"stateMutability": "pure",
					"type": "function"
				},
				{
					"inputs": [
						{
							"internalType": "string",
							"name": "name",
							"type": "string"
						}
					],
					"name": "sayHello",
					"outputs": [
						{
							"internalType": "string",
							"name": "",
							"type": "string"
						}
					],
					"stateMutability": "view",
					"type": "function"
				},
				{
					"inputs": [
						{
							"internalType": "string",
							"name": "str",
							"type": "string"
						}
					],
					"name": "setHello",
					"outputs": [],
					"stateMutability": "nonpayable",
					"type": "function"
				}
			],
			"devdoc": {
				"kind": "dev",
				"methods": {},
				"version": 1
			},
			"evm": {
				"assembly": "    /* \"hello.sol\":64:1544  contract Hello3Dot0 {... */\n  mstore(0x40, 0x80)\n    /* \"hello.sol\":1002:1032  string private hello = \"hello\" */\n  mload(0x40)\n  dup1\n  0x40\n  add\n  0x40\n  mstore\n  dup1\n  0x05\n  dup2\n  mstore\n  0x20\n  add\n  0x68656c6c6f000000000000000000000000000000000000000000000000000000\n  dup2\n  mstore\n  pop\n  0x00\n  swap1\n  dup2\n  tag_1\n  swap2\n  swap1\n  tag_2\n  jump\t// in\ntag_1:\n  pop\n    /* \"hello.sol\":64:1544  contract Hello3Dot0 {... */\n  callvalue\n  dup1\n  iszero\n  tag_3\n  jumpi\n  0x00\n  dup1\n  revert\ntag_3:\n  pop\n  jump(tag_4)\n    /* \"#utility.yul\":7:106   */\ntag_5:\n    /* \"#utility.yul\":59:65   */\n  0x00\n    /* \"#utility.yul\":93:98   */\n  dup2\n    /* \"#utility.yul\":87:99   */\n  mload\n    /* \"#utility.yul\":77:99   */\n  swap1\n  pop\n    /* \"#utility.yul\":7:106   */\n  swap2\n  swap1\n  pop\n  jump\t// out\n    /* \"#utility.yul\":112:292   */\ntag_6:\n    /* \"#utility.yul\":160:237   */\n  0x4e487b7100000000000000000000000000000000000000000000000000000000\n    /* \"#utility.yul\":157:158   */\n  0x00\n    /* \"#utility.yul\":150:238   */\n  mstore\n    /* \"#utility.yul\":257:261   */\n  0x41\n    /* \"#utility.yul\":254:255   */\n  0x04\n    /* \"#utility.yul\":247:262   */\n  mstore\n    /* \"#utility.yul\":281:285   */\n  0x24\n    /* \"#utility.yul\":278:279   */\n  0x00\n    /* \"#utility.yul\":271:286   */\n  revert\n    /* \"#utility.yul\":298:478   */\ntag_7:\n    /* \"#utility.yul\":346:423   */\n  0x4e487b7100000000000000000000000000000000000000000000000000000000\n    /* \"#utility.yul\":343:344   */\n  0x00\n    /* \"#utility.yul\":336:424   */\n  mstore\n    /* \"#utility.yul\":443:447   */\n  0x22\n    /* \"#utility.yul\":440:441   */\n  0x04\n    /* \"#utility.yul\":433:448   */\n  mstore\n    /* \"#utility.yul\":467:471   */\n  0x24\n    /* \"#utility.yul\":464:465   */\n  0x00\n    /* \"#utility.yul\":457:472   */\n  revert\n    /* \"#utility.yul\":484:804   */\ntag_8:\n    /* \"#utility.yul\":528:534   */\n  0x00\n    /* \"#utility.yul\":565:566   */\n  0x02\n    /* \"#utility.yul\":559:563   */\n  dup3\n    /* \"#utility.yul\":555:567   */\n  div\n    /* \"#utility.yul\":545:567   */\n  swap1\n  pop\n    /* \"#utility.yul\":612:613   */\n  0x01\n    /* \"#utility.yul\":606:610   */\n  dup3\n    /* \"#utility.yul\":602:614   */\n  and\n    /* \"#utility.yul\":633:651   */\n  dup1\n    /* \"#utility.yul\":623:704   */\n  tag_30\n  jumpi\n    /* \"#utility.yul\":689:693   */\n  0x7f\n    /* \"#utility.yul\":681:687   */\n  dup3\n    /* \"#utility.yul\":677:694   */\n  and\n    /* \"#utility.yul\":667:694   */\n  swap2\n  pop\n    /* \"#utility.yul\":623:704   */\ntag_30:\n    /* \"#utility.yul\":751:753   */\n  0x20\n    /* \"#utility.yul\":743:749   */\n  dup3\n    /* \"#utility.yul\":740:754   */\n  lt\n    /* \"#utility.yul\":720:738   */\n  dup2\n    /* \"#utility.yul\":717:755   */\n  sub\n    /* \"#utility.yul\":714:798   */\n  tag_31\n  jumpi\n    /* \"#utility.yul\":770:788   */\n  tag_32\n  tag_7\n  jump\t// in\ntag_32:\n    /* \"#utility.yul\":714:798   */\ntag_31:\n    /* \"#utility.yul\":535:804   */\n  pop\n    /* \"#utility.yul\":484:804   */\n  swap2\n  swap1\n  pop\n  jump\t// out\n    /* \"#utility.yul\":810:951   */\ntag_9:\n    /* \"#utility.yul\":859:863   */\n  0x00\n    /* \"#utility.yul\":882:885   */\n  dup2\n    /* \"#utility.yul\":874:885   */\n  swap1\n  pop\n    /* \"#utility.yul\":905:908   */\n  dup2\n    /* \"#utility.yul\":902:903   */\n  0x00\n    /* \"#utility.yul\":895:909   */\n  mstore\n    /* \"#utility.yul\":939:943   */\n  0x20\n    /* \"#utility.yul\":936:937   */\n  0x00\n    /* \"#utility.yul\":926:944   */\n  keccak256\n    /* \"#utility.yul\":918:944   */\n  swap1\n  pop\n    /* \"#utility.yul\":810:951   */\n  swap2\n  swap1\n  pop\n  jump\t// out\n    /* \"#utility.yul\":957:1050   */\ntag_10:\n    /* \"#utility.yul\":994:1000   */\n  0x00\n    /* \"#utility.yul\":1041:1043   */\n  0x20\n    /* \"#utility.yul\":1036:1038   */\n  0x1f\n    /* \"#utility.yul\":1029:1034   */\n  dup4\n    /* \"#utility.yul\":1025:1039   */\n  add\n    /* \"#utility.yul\":1021:1044   */\n  div\n    /* \"#utility.yul\":1011:1044   */\n  swap1\n  pop\n    /* \"#utility.yul\":957:1050   */\n  swap2\n  swap1\n  pop\n  jump\t// out\n    /* \"#utility.yul\":1056:1163   */\ntag_11:\n    /* \"#utility.yul\":1100:1108   */\n  0x00\n    /* \"#utility.yul\":1150:1155   */\n  dup3\n    /* \"#utility.yul\":1144:1148   */\n  dup3\n    /* \"#utility.yul\":1140:1156   */\n  shl\n    /* \"#utility.yul\":1119:1156   */\n  swap1\n  pop\n    /* \"#utility.yul\":1056:1163   */\n  swap3\n  swap2\n  pop\n  pop\n  jump\t// out\n    /* \"#utility.yul\":1169:1562   */\ntag_12:\n    /* \"#utility.yul\":1238:1244   */\n  0x00\n    /* \"#utility.yul\":1288:1289   */\n  0x08\n    /* \"#utility.yul\":1276:1286   */\n  dup4\n    /* \"#utility.yul\":1272:1290   */\n  mul\n    /* \"#utility.yul\":1311:1408   */\n  tag_37\n    /* \"#utility.yul\":1341:1407   */\n  0xffffffffffffffffffffffffffffffffffffffffffffffffffffffffffffffff\n    /* \"#utility.yul\":1330:1339   */\n  dup3\n    /* \"#utility.yul\":1311:1408   */\n  tag_11\n  jump\t// in\ntag_37:\n    /* \"#utility.yul\":1429:1468   */\n  tag_38\n    /* \"#utility.yul\":1459:1467   */\n  dup7\n    /* \"#utility.yul\":1448:1457   */\n  dup4\n    /* \"#utility.yul\":1429:1468   */\n  tag_11\n  jump\t// in\ntag_38:\n    /* \"#utility.yul\":1417:1468   */\n  swap6\n  pop\n    /* \"#utility.yul\":1501:1505   */\n  dup1\n    /* \"#utility.yul\":1497:1506   */\n  not\n    /* \"#utility.yul\":1490:1495   */\n  dup5\n    /* \"#utility.yul\":1486:1507   */\n  and\n    /* \"#utility.yul\":1477:1507   */\n  swap4\n  pop\n    /* \"#utility.yul\":1550:1554   */\n  dup1\n    /* \"#utility.yul\":1540:1548   */\n  dup7\n    /* \"#utility.yul\":1536:1555   */\n  and\n    /* \"#utility.yul\":1529:1534   */\n  dup5\n    /* \"#utility.yul\":1526:1556   */\n  or\n    /* \"#utility.yul\":1516:1556   */\n  swap3\n  pop\n    /* \"#utility.yul\":1245:1562   */\n  pop\n  pop\n    /* \"#utility.yul\":1169:1562   */\n  swap4\n  swap3\n  pop\n  pop\n  pop\n  jump\t// out\n    /* \"#utility.yul\":1568:1645   */\ntag_13:\n    /* \"#utility.yul\":1605:1612   */\n  0x00\n    /* \"#utility.yul\":1634:1639   */\n  dup2\n    /* \"#utility.yul\":1623:1639   */\n  swap1\n  pop\n    /* \"#utility.yul\":1568:1645   */\n  swap2\n  swap1\n  pop\n  jump\t// out\n    /* \"#utility.yul\":1651:1711   */\ntag_14:\n    /* \"#utility.yul\":1679:1682   */\n  0x00\n    /* \"#utility.yul\":1700:1705   */\n  dup2\n    /* \"#utility.yul\":1693:1705   */\n  swap1\n  pop\n    /* \"#utility.yul\":1651:1711   */\n  swap2\n  swap1\n  pop\n  jump\t// out\n    /* \"#utility.yul\":1717:1859   */\ntag_15:\n    /* \"#utility.yul\":1767:1776   */\n  0x00\n    /* \"#utility.yul\":1800:1853   */\n  tag_42\n    /* \"#utility.yul\":1818:1852   */\n  tag_43\n    /* \"#utility.yul\":1827:1851   */\n  tag_44\n    /* \"#utility.yul\":1845:1850   */\n  dup5\n    /* \"#utility.yul\":1827:1851   */\n  tag_13\n  jump\t// in\ntag_44:\n    /* \"#utility.yul\":1818:1852   */\n  tag_14\n  jump\t// in\ntag_43:\n    /* \"#utility.yul\":1800:1853   */\n  tag_13\n  jump\t// in\ntag_42:\n    /* \"#utility.yul\":1787:1853   */\n  swap1\n  pop\n    /* \"#utility.yul\":1717:1859   */\n  swap2\n  swap1\n  pop\n  jump\t// out\n    /* \"#utility.yul\":1865:1940   */\ntag_16:\n    /* \"#utility.yul\":1908:1911   */\n  0x00\n    /* \"#utility.yul\":1929:1934   */\n  dup2\n    /* \"#utility.yul\":1922:1934   */\n  swap1\n  pop\n    /* \"#utility.yul\":1865:1940   */\n  swap2\n  swap1\n  pop\n  jump\t// out\n    /* \"#utility.yul\":1946:2215   */\ntag_17:\n    /* \"#utility.yul\":2056:2095   */\n  tag_47\n    /* \"#utility.yul\":2087:2094   */\n  dup4\n    /* \"#utility.yul\":2056:2095   */\n  tag_15\n  jump\t// in\ntag_47:\n    /* \"#utility.yul\":2117:2208   */\n  tag_48\n    /* \"#utility.yul\":2166:2207   */\n  tag_49\n    /* \"#utility.yul\":2190:2206   */\n  dup3\n    /* \"#utility.yul\":2166:2207   */\n  tag_16\n  jump\t// in\ntag_49:\n    /* \"#utility.yul\":2158:2164   */\n  dup5\n    /* \"#utility.yul\":2151:2155   */\n  dup5\n    /* \"#utility.yul\":2145:2156   */\n  sload\n    /* \"#utility.yul\":2117:2208   */\n  tag_12\n  jump\t// in\ntag_48:\n    /* \"#utility.yul\":2111:2115   */\n  dup3\n    /* \"#utility.yul\":2104:2209   */\n  sstore\n    /* \"#utility.yul\":2022:2215   */\n  pop\n    /* \"#utility.yul\":1946:2215   */\n  pop\n  pop\n  pop\n  jump\t// out\n    /* \"#utility.yul\":2221:2294   */\ntag_18:\n    /* \"#utility.yul\":2266:2269   */\n  0x00\n    /* \"#utility.yul\":2221:2294   */\n  swap1\n  jump\t// out\n    /* \"#utility.yul\":2300:2489   */\ntag_19:\n    /* \"#utility.yul\":2377:2409   */\n  tag_52\n  tag_18\n  jump\t// in\ntag_52:\n    /* \"#utility.yul\":2418:2483   */\n  tag_53\n    /* \"#utility.yul\":2476:2482   */\n  dup2\n    /* \"#utility.yul\":2468:2474   */\n  dup5\n    /* \"#utility.yul\":2462:2466   */\n  dup5\n    /* \"#utility.yul\":2418:2483   */\n  tag_17\n  jump\t// in\ntag_53:\n    /* \"#utility.yul\":2353:2489   */\n  pop\n    /* \"#utility.yul\":2300:2489   */\n  pop\n  pop\n  jump\t// out\n    /* \"#utility.yul\":2495:2681   */\ntag_20:\n    /* \"#utility.yul\":2555:2675   */\ntag_55:\n    /* \"#utility.yul\":2572:2575   */\n  dup2\n    /* \"#utility.yul\":2565:2570   */\n  dup2\n    /* \"#utility.yul\":2562:2576   */\n  lt\n    /* \"#utility.yul\":2555:2675   */\n  iszero\n  tag_57\n  jumpi\n    /* \"#utility.yul\":2626:2665   */\n  tag_58\n    /* \"#utility.yul\":2663:2664   */\n  0x00\n    /* \"#utility.yul\":2656:2661   */\n  dup3\n    /* \"#utility.yul\":2626:2665   */\n  tag_19\n  jump\t// in\ntag_58:\n    /* \"#utility.yul\":2599:2600   */\n  0x01\n    /* \"#utility.yul\":2592:2597   */\n  dup2\n    /* \"#utility.yul\":2588:2601   */\n  add\n    /* \"#utility.yul\":2579:2601   */\n  swap1\n  pop\n    /* \"#utility.yul\":2555:2675   */\n  jump(tag_55)\ntag_57:\n    /* \"#utility.yul\":2495:2681   */\n  pop\n  pop\n  jump\t// out\n    /* \"#utility.yul\":2687:3230   */\ntag_21:\n    /* \"#utility.yul\":2788:2790   */\n  0x1f\n    /* \"#utility.yul\":2783:2786   */\n  dup3\n    /* \"#utility.yul\":2780:2791   */\n  gt\n    /* \"#utility.yul\":2777:3223   */\n  iszero\n  tag_60\n  jumpi\n    /* \"#utility.yul\":2822:2860   */\n  tag_61\n    /* \"#utility.yul\":2854:2859   */\n  dup2\n    /* \"#utility.yul\":2822:2860   */\n  tag_9\n  jump\t// in\ntag_61:\n    /* \"#utility.yul\":2906:2935   */\n  tag_62\n    /* \"#utility.yul\":2924:2934   */\n  dup5\n    /* \"#utility.yul\":2906:2935   */\n  tag_10\n  jump\t// in\ntag_62:\n    /* \"#utility.yul\":2896:2904   */\n  dup2\n    /* \"#utility.yul\":2892:2936   */\n  add\n    /* \"#utility.yul\":3089:3091   */\n  0x20\n    /* \"#utility.yul\":3077:3087   */\n  dup6\n    /* \"#utility.yul\":3074:3092   */\n  lt\n    /* \"#utility.yul\":3071:3120   */\n  iszero\n  tag_63\n  jumpi\n    /* \"#utility.yul\":3110:3118   */\n  dup2\n    /* \"#utility.yul\":3095:3118   */\n  swap1\n  pop\n    /* \"#utility.yul\":3071:3120   */\ntag_63:\n    /* \"#utility.yul\":3133:3213   */\n  tag_64\n    /* \"#utility.yul\":3189:3211   */\n  tag_65\n    /* \"#utility.yul\":3207:3210   */\n  dup6\n    /* \"#utility.yul\":3189:3211   */\n  tag_10\n  jump\t// in\ntag_65:\n    /* \"#utility.yul\":3179:3187   */\n  dup4\n    /* \"#utility.yul\":3175:3212   */\n  add\n    /* \"#utility.yul\":3162:3173   */\n  dup3\n    /* \"#utility.yul\":3133:3213   */\n  tag_20\n  jump\t// in\ntag_64:\n    /* \"#utility.yul\":2792:3223   */\n  pop\n  pop\n    /* \"#utility.yul\":2777:3223   */\ntag_60:\n    /* \"#utility.yul\":2687:3230   */\n  pop\n  pop\n  pop\n  jump\t// out\n    /* \"#utility.yul\":3236:3353   */\ntag_22:\n    /* \"#utility.yul\":3290:3298   */\n  0x00\n    /* \"#utility.yul\":3340:3345   */\n  dup3\n    /* \"#utility.yul\":3334:3338   */\n  dup3\n    /* \"#utility.yul\":3330:3346   */\n  shr\n    /* \"#utility.yul\":3309:3346   */\n  swap1\n  pop\n    /* \"#utility.yul\":3236:3353   */\n  swap3\n  swap2\n  pop\n  pop\n  jump\t// out\n    /* \"#utility.yul\":3359:3528   */\ntag_23:\n    /* \"#utility.yul\":3403:3409   */\n  0x00\n    /* \"#utility.yul\":3436:3487   */\n  tag_68\n    /* \"#utility.yul\":3484:3485   */\n  0x00\n    /* \"#utility.yul\":3480:3486   */\n  not\n    /* \"#utility.yul\":3472:3477   */\n  dup5\n    /* \"#utility.yul\":3469:3470   */\n  0x08\n    /* \"#utility.yul\":3465:3478   */\n  mul\n    /* \"#utility.yul\":3436:3487   */\n  tag_22\n  jump\t// in\ntag_68:\n    /* \"#utility.yul\":3432:3488   */\n  not\n    /* \"#utility.yul\":3517:3521   */\n  dup1\n    /* \"#utility.yul\":3511:3515   */\n  dup4\n    /* \"#utility.yul\":3507:3522   */\n  and\n    /* \"#utility.yul\":3497:3522   */\n  swap2\n  pop\n    /* \"#utility.yul\":3410:3528   */\n  pop\n    /* \"#utility.yul\":3359:3528   */\n  swap3\n  swap2\n  pop\n  pop\n  jump\t// out\n    /* \"#utility.yul\":3533:3828   */\ntag_24:\n    /* \"#utility.yul\":3609:3613   */\n  0x00\n    /* \"#utility.yul\":3755:3784   */\n  tag_70\n    /* \"#utility.yul\":3780:3783   */\n  dup4\n    /* \"#utility.yul\":3774:3778   */\n  dup4\n    /* \"#utility.yul\":3755:3784   */\n  tag_23\n  jump\t// in\ntag_70:\n    /* \"#utility.yul\":3747:3784   */\n  swap2\n  pop\n    /* \"#utility.yul\":3817:3820   */\n  dup3\n    /* \"#utility.yul\":3814:3815   */\n  0x02\n    /* \"#utility.yul\":3810:3821   */\n  mul\n    /* \"#utility.yul\":3804:3808   */\n  dup3\n    /* \"#utility.yul\":3801:3822   */\n  or\n    /* \"#utility.yul\":3793:3822   */\n  swap1\n  pop\n    /* \"#utility.yul\":3533:3828   */\n  swap3\n  swap2\n  pop\n  pop\n  jump\t// out\n    /* \"#utility.yul\":3833:5228   */\ntag_2:\n    /* \"#utility.yul\":3950:3987   */\n  tag_72\n    /* \"#utility.yul\":3983:3986   */\n  dup3\n    /* \"#utility.yul\":3950:3987   */\n  tag_5\n  jump\t// in\ntag_72:\n    /* \"#utility.yul\":4052:4070   */\n  0xffffffffffffffff\n    /* \"#utility.yul\":4044:4050   */\n  dup2\n    /* \"#utility.yul\":4041:4071   */\n  gt\n    /* \"#utility.yul\":4038:4094   */\n  iszero\n  tag_73\n  jumpi\n    /* \"#utility.yul\":4074:4092   */\n  tag_74\n  tag_6\n  jump\t// in\ntag_74:\n    /* \"#utility.yul\":4038:4094   */\ntag_73:\n    /* \"#utility.yul\":4118:4156   */\n  tag_75\n    /* \"#utility.yul\":4150:4154   */\n  dup3\n    /* \"#utility.yul\":4144:4155   */\n  sload\n    /* \"#utility.yul\":4118:4156   */\n  tag_8\n  jump\t// in\ntag_75:\n    /* \"#utility.yul\":4203:4270   */\n  tag_76\n    /* \"#utility.yul\":4263:4269   */\n  dup3\n    /* \"#utility.yul\":4255:4261   */\n  dup3\n    /* \"#utility.yul\":4249:4253   */\n  dup6\n    /* \"#utility.yul\":4203:4270   */\n  tag_21\n  jump\t// in\ntag_76:\n    /* \"#utility.yul\":4297:4298   */\n  0x00\n    /* \"#utility.yul\":4321:4325   */\n  0x20\n    /* \"#utility.yul\":4308:4325   */\n  swap1\n  pop\n    /* \"#utility.yul\":4353:4355   */\n  0x1f\n    /* \"#utility.yul\":4345:4351   */\n  dup4\n    /* \"#utility.yul\":4342:4356   */\n  gt\n    /* \"#utility.yul\":4370:4371   */\n  0x01\n    /* \"#utility.yul\":4365:4983   */\n  dup2\n  eq\n  tag_78\n  jumpi\n    /* \"#utility.yul\":5027:5028   */\n  0x00\n    /* \"#utility.yul\":5044:5050   */\n  dup5\n    /* \"#utility.yul\":5041:5118   */\n  iszero\n  tag_79\n  jumpi\n    /* \"#utility.yul\":5093:5102   */\n  dup3\n    /* \"#utility.yul\":5088:5091   */\n  dup8\n    /* \"#utility.yul\":5084:5103   */\n  add\n    /* \"#utility.yul\":5078:5104   */\n  mload\n    /* \"#utility.yul\":5069:5104   */\n  swap1\n  pop\n    /* \"#utility.yul\":5041:5118   */\ntag_79:\n    /* \"#utility.yul\":5144:5211   */\n  tag_80\n    /* \"#utility.yul\":5204:5210   */\n  dup6\n    /* \"#utility.yul\":5197:5202   */\n  dup3\n    /* \"#utility.yul\":5144:5211   */\n  tag_24\n  jump\t// in\ntag_80:\n    /* \"#utility.yul\":5138:5142   */\n  dup7\n    /* \"#utility.yul\":5131:5212   */\n  sstore\n    /* \"#utility.yul\":5000:5222   */\n  pop\n    /* \"#utility.yul\":4335:5222   */\n  jump(tag_77)\n    /* \"#utility.yul\":4365:4983   */\ntag_78:\n    /* \"#utility.yul\":4417:4421   */\n  0x1f\n    /* \"#utility.yul\":4413:4422   */\n  not\n    /* \"#utility.yul\":4405:4411   */\n  dup5\n    /* \"#utility.yul\":4401:4423   */\n  and\n    /* \"#utility.yul\":4451:4488   */\n  tag_81\n    /* \"#utility.yul\":4483:4487   */\n  dup7\n    /* \"#utility.yul\":4451:4488   */\n  tag_9\n  jump\t// in\ntag_81:\n    /* \"#utility.yul\":4510:4511   */\n  0x00\n    /* \"#utility.yul\":4524:4732   */\ntag_82:\n    /* \"#utility.yul\":4538:4545   */\n  dup3\n    /* \"#utility.yul\":4535:4536   */\n  dup2\n    /* \"#utility.yul\":4532:4546   */\n  lt\n    /* \"#utility.yul\":4524:4732   */\n  iszero\n  tag_84\n  jumpi\n    /* \"#utility.yul\":4617:4626   */\n  dup5\n    /* \"#utility.yul\":4612:4615   */\n  dup10\n    /* \"#utility.yul\":4608:4627   */\n  add\n    /* \"#utility.yul\":4602:4628   */\n  mload\n    /* \"#utility.yul\":4594:4600   */\n  dup3\n    /* \"#utility.yul\":4587:4629   */\n  sstore\n    /* \"#utility.yul\":4668:4669   */\n  0x01\n    /* \"#utility.yul\":4660:4666   */\n  dup3\n    /* \"#utility.yul\":4656:4670   */\n  add\n    /* \"#utility.yul\":4646:4670   */\n  swap2\n  pop\n    /* \"#utility.yul\":4715:4717   */\n  0x20\n    /* \"#utility.yul\":4704:4713   */\n  dup6\n    /* \"#utility.yul\":4700:4718   */\n  add\n    /* \"#utility.yul\":4687:4718   */\n  swap5\n  pop\n    /* \"#utility.yul\":4561:4565   */\n  0x20\n    /* \"#utility.yul\":4558:4559   */\n  dup2\n    /* \"#utility.yul\":4554:4566   */\n  add\n    /* \"#utility.yul\":4549:4566   */\n  swap1\n  pop\n    /* \"#utility.yul\":4524:4732   */\n  jump(tag_82)\ntag_84:\n    /* \"#utility.yul\":4760:4766   */\n  dup7\n    /* \"#utility.yul\":4751:4758   */\n  dup4\n    /* \"#utility.yul\":4748:4767   */\n  lt\n    /* \"#utility.yul\":4745:4924   */\n  iszero\n  tag_85\n  jumpi\n    /* \"#utility.yul\":4818:4827   */\n  dup5\n    /* \"#utility.yul\":4813:4816   */\n  dup10\n    /* \"#utility.yul\":4809:4828   */\n  add\n    /* \"#utility.yul\":4803:4829   */\n  mload\n    /* \"#utility.yul\":4861:4909   */\n  tag_86\n    /* \"#utility.yul\":4903:4907   */\n  0x1f\n    /* \"#utility.yul\":4895:4901   */\n  dup10\n    /* \"#utility.yul\":4891:4908   */\n  and\n    /* \"#utility.yul\":4880:4889   */\n  dup3\n    /* \"#utility.yul\":4861:4909   */\n  tag_23\n  jump\t// in\ntag_86:\n    /* \"#utility.yul\":4853:4859   */\n  dup4\n    /* \"#utility.yul\":4846:4910   */\n  sstore\n    /* \"#utility.yul\":4768:4924   */\n  pop\n    /* \"#utility.yul\":4745:4924   */\ntag_85:\n    /* \"#utility.yul\":4970:4971   */\n  0x01\n    /* \"#utility.yul\":4966:4967   */\n  0x02\n    /* \"#utility.yul\":4958:4964   */\n  dup9\n    /* \"#utility.yul\":4954:4968   */\n  mul\n    /* \"#utility.yul\":4950:4972   */\n  add\n    /* \"#utility.yul\":4944:4948   */\n  dup9\n    /* \"#utility.yul\":4937:4973   */\n  sstore\n    /* \"#utility.yul\":4372:4983   */\n  pop\n  pop\n  pop\n    /* \"#utility.yul\":4335:5222   */\ntag_77:\n  pop\n    /* \"#utility.yul\":3925:5228   */\n  pop\n  pop\n  pop\n    /* \"#utility.yul\":3833:5228   */\n  pop\n  pop\n  jump\t// out\n    /* \"hello.sol\":64:1544  contract Hello3Dot0 {... */\ntag_4:\n  dataSize(sub_0)\n  dup1\n  dataOffset(sub_0)\n  0x00\n  codecopy\n  0x00\n  return\nstop\n\nsub_0: assembly {\n        /* \"hello.sol\":64:1544  contract Hello3Dot0 {... */\n      mstore(0x40, 0x80)\n      callvalue\n      dup1\n      iszero\n      tag_1\n      jumpi\n      0x00\n      dup1\n      revert\n    tag_1:\n      pop\n      jumpi(tag_2, lt(calldatasize, 0x04))\n      shr(0xe0, calldataload(0x00))\n      dup1\n      0x435ffe94\n      eq\n      tag_3\n      jumpi\n      dup1\n      0xc3a9b1c5\n      eq\n      tag_4\n      jumpi\n      dup1\n      0xc817d7b3\n      eq\n      tag_5\n      jumpi\n    tag_2:\n      0x00\n      dup1\n      revert\n        /* \"hello.sol\":1470:1542  function setHello(string memory str) public {... */\n    tag_3:\n      tag_6\n      0x04\n      dup1\n      calldatasize\n      sub\n      dup2\n      add\n      swap1\n      tag_7\n      swap2\n      swap1\n      tag_8\n      jump\t// in\n    tag_7:\n      tag_9\n      jump\t// in\n    tag_6:\n      stop\n        /* \"hello.sol\":1039:1152  function sayHello(string memory name) public view returns (string memory) {... */\n    tag_4:\n      tag_10\n      0x04\n      dup1\n      calldatasize\n      sub\n      dup2\n      add\n      swap1\n      tag_11\n      swap2\n      swap1\n      tag_8\n      jump\t// in\n    tag_11:\n      tag_12\n      jump\t// in\n    tag_10:\n      mload(0x40)\n      tag_13\n      swap2\n      swap1\n      tag_14\n      jump\t// in\n    tag_13:\n      mload(0x40)\n      dup1\n      swap2\n      sub\n      swap1\n      return\n        /* \"hello.sol\":1305:1464  function fn(... */\n    tag_5:\n      tag_15\n      0x04\n      dup1\n      calldatasize\n      sub\n      dup2\n      add\n      swap1\n      tag_16\n      swap2\n      swap1\n      tag_17\n      jump\t// in\n    tag_16:\n      tag_18\n      jump\t// in\n    tag_15:\n      mload(0x40)\n      tag_19\n      swap2\n      swap1\n      tag_14\n      jump\t// in\n    tag_19:\n      mload(0x40)\n      dup1\n      swap2\n      sub\n      swap1\n      return\n        /* \"hello.sol\":1470:1542  function setHello(string memory str) public {... */\n    tag_9:\n        /* \"hello.sol\":1532:1535  str */\n      dup1\n        /* \"hello.sol\":1524:1529  hello */\n      0x00\n        /* \"hello.sol\":1524:1535  hello = str */\n      swap1\n      dup2\n      tag_21\n      swap2\n      swap1\n      tag_22\n      jump\t// in\n    tag_21:\n      pop\n        /* \"hello.sol\":1470:1542  function setHello(string memory str) public {... */\n      pop\n      jump\t// out\n        /* \"hello.sol\":1039:1152  function sayHello(string memory name) public view returns (string memory) {... */\n    tag_12:\n        /* \"hello.sol\":1098:1111  string memory */\n      0x60\n        /* \"hello.sol\":1130:1145  sayHello2(name) */\n      tag_24\n        /* \"hello.sol\":1140:1144  name */\n      dup3\n        /* \"hello.sol\":1130:1139  sayHello2 */\n      tag_25\n        /* \"hello.sol\":1130:1145  sayHello2(name) */\n      jump\t// in\n    tag_24:\n        /* \"hello.sol\":1123:1145  return sayHello2(name) */\n      swap1\n      pop\n        /* \"hello.sol\":1039:1152  function sayHello(string memory name) public view returns (string memory) {... */\n      swap2\n      swap1\n      pop\n      jump\t// out\n        /* \"hello.sol\":1305:1464  function fn(... */\n    tag_18:\n        /* \"hello.sol\":1400:1413  string memory */\n      0x60\n        /* \"hello.sol\":1446:1450  base */\n      dup3\n        /* \"hello.sol\":1452:1456  name */\n      dup3\n        /* \"hello.sol\":1432:1457  string.concat(base, name) */\n      add(0x20, mload(0x40))\n      tag_27\n      swap3\n      swap2\n      swap1\n      tag_28\n      jump\t// in\n    tag_27:\n      mload(0x40)\n      0x20\n      dup2\n      dup4\n      sub\n      sub\n      dup2\n      mstore\n      swap1\n      0x40\n      mstore\n        /* \"hello.sol\":1425:1457  return string.concat(base, name) */\n      swap1\n      pop\n        /* \"hello.sol\":1305:1464  function fn(... */\n      swap3\n      swap2\n      pop\n      pop\n      jump\t// out\n        /* \"hello.sol\":1158:1299  function sayHello2(... */\n    tag_25:\n        /* \"hello.sol\":1234:1247  string memory */\n      0x60\n        /* \"hello.sol\":1280:1285  hello */\n      0x00\n        /* \"hello.sol\":1287:1291  name */\n      dup3\n        /* \"hello.sol\":1266:1292  string.concat(hello, name) */\n      add(0x20, mload(0x40))\n      tag_30\n      swap3\n      swap2\n      swap1\n      tag_31\n      jump\t// in\n    tag_30:\n      mload(0x40)\n      0x20\n      dup2\n      dup4\n      sub\n      sub\n      dup2\n      mstore\n      swap1\n      0x40\n      mstore\n        /* \"hello.sol\":1259:1292  return string.concat(hello, name) */\n      swap1\n      pop\n        /* \"hello.sol\":1158:1299  function sayHello2(... */\n      swap2\n      swap1\n      pop\n      jump\t// out\n        /* \"#utility.yul\":7:82   */\n    tag_32:\n        /* \"#utility.yul\":40:46   */\n      0x00\n        /* \"#utility.yul\":73:75   */\n      0x40\n        /* \"#utility.yul\":67:76   */\n      mload\n        /* \"#utility.yul\":57:76   */\n      swap1\n      pop\n        /* \"#utility.yul\":7:82   */\n      swap1\n      jump\t// out\n        /* \"#utility.yul\":88:205   */\n    tag_33:\n        /* \"#utility.yul\":197:198   */\n      0x00\n        /* \"#utility.yul\":194:195   */\n      dup1\n        /* \"#utility.yul\":187:199   */\n      revert\n        /* \"#utility.yul\":211:328   */\n    tag_34:\n        /* \"#utility.yul\":320:321   */\n      0x00\n        /* \"#utility.yul\":317:318   */\n      dup1\n        /* \"#utility.yul\":310:322   */\n      revert\n        /* \"#utility.yul\":334:451   */\n    tag_35:\n        /* \"#utility.yul\":443:444   */\n      0x00\n        /* \"#utility.yul\":440:441   */\n      dup1\n        /* \"#utility.yul\":433:445   */\n      revert\n        /* \"#utility.yul\":457:574   */\n    tag_36:\n        /* \"#utility.yul\":566:567   */\n      0x00\n        /* \"#utility.yul\":563:564   */\n      dup1\n        /* \"#utility.yul\":556:568   */\n      revert\n        /* \"#utility.yul\":580:682   */\n    tag_37:\n        /* \"#utility.yul\":621:627   */\n      0x00\n        /* \"#utility.yul\":672:674   */\n      0x1f\n        /* \"#utility.yul\":668:675   */\n      not\n        /* \"#utility.yul\":663:665   */\n      0x1f\n        /* \"#utility.yul\":656:661   */\n      dup4\n        /* \"#utility.yul\":652:666   */\n      add\n        /* \"#utility.yul\":648:676   */\n      and\n        /* \"#utility.yul\":638:676   */\n      swap1\n      pop\n        /* \"#utility.yul\":580:682   */\n      swap2\n      swap1\n      pop\n      jump\t// out\n        /* \"#utility.yul\":688:868   */\n    tag_38:\n        /* \"#utility.yul\":736:813   */\n      0x4e487b7100000000000000000000000000000000000000000000000000000000\n        /* \"#utility.yul\":733:734   */\n      0x00\n        /* \"#utility.yul\":726:814   */\n      mstore\n        /* \"#utility.yul\":833:837   */\n      0x41\n        /* \"#utility.yul\":830:831   */\n      0x04\n        /* \"#utility.yul\":823:838   */\n      mstore\n        /* \"#utility.yul\":857:861   */\n      0x24\n        /* \"#utility.yul\":854:855   */\n      0x00\n        /* \"#utility.yul\":847:862   */\n      revert\n        /* \"#utility.yul\":874:1155   */\n    tag_39:\n        /* \"#utility.yul\":957:984   */\n      tag_79\n        /* \"#utility.yul\":979:983   */\n      dup3\n        /* \"#utility.yul\":957:984   */\n      tag_37\n      jump\t// in\n    tag_79:\n        /* \"#utility.yul\":949:955   */\n      dup2\n        /* \"#utility.yul\":945:985   */\n      add\n        /* \"#utility.yul\":1087:1093   */\n      dup2\n        /* \"#utility.yul\":1075:1085   */\n      dup2\n        /* \"#utility.yul\":1072:1094   */\n      lt\n        /* \"#utility.yul\":1051:1069   */\n      0xffffffffffffffff\n        /* \"#utility.yul\":1039:1049   */\n      dup3\n        /* \"#utility.yul\":1036:1070   */\n      gt\n        /* \"#utility.yul\":1033:1095   */\n      or\n        /* \"#utility.yul\":1030:1118   */\n      iszero\n      tag_80\n      jumpi\n        /* \"#utility.yul\":1098:1116   */\n      tag_81\n      tag_38\n      jump\t// in\n    tag_81:\n        /* \"#utility.yul\":1030:1118   */\n    tag_80:\n        /* \"#utility.yul\":1138:1148   */\n      dup1\n        /* \"#utility.yul\":1134:1136   */\n      0x40\n        /* \"#utility.yul\":1127:1149   */\n      mstore\n        /* \"#utility.yul\":917:1155   */\n      pop\n        /* \"#utility.yul\":874:1155   */\n      pop\n      pop\n      jump\t// out\n        /* \"#utility.yul\":1161:1290   */\n    tag_40:\n        /* \"#utility.yul\":1195:1201   */\n      0x00\n        /* \"#utility.yul\":1222:1242   */\n      tag_83\n      tag_32\n      jump\t// in\n    tag_83:\n        /* \"#utility.yul\":1212:1242   */\n      swap1\n      pop\n        /* \"#utility.yul\":1251:1284   */\n      tag_84\n        /* \"#utility.yul\":1279:1283   */\n      dup3\n        /* \"#utility.yul\":1271:1277   */\n      dup3\n        /* \"#utility.yul\":1251:1284   */\n      tag_39\n      jump\t// in\n    tag_84:\n        /* \"#utility.yul\":1161:1290   */\n      swap2\n      swap1\n      pop\n      jump\t// out\n        /* \"#utility.yul\":1296:1604   */\n    tag_41:\n        /* \"#utility.yul\":1358:1362   */\n      0x00\n        /* \"#utility.yul\":1448:1466   */\n      0xffffffffffffffff\n        /* \"#utility.yul\":1440:1446   */\n      dup3\n        /* \"#utility.yul\":1437:1467   */\n      gt\n        /* \"#utility.yul\":1434:1490   */\n      iszero\n      tag_86\n      jumpi\n        /* \"#utility.yul\":1470:1488   */\n      tag_87\n      tag_38\n      jump\t// in\n    tag_87:\n        /* \"#utility.yul\":1434:1490   */\n    tag_86:\n        /* \"#utility.yul\":1508:1537   */\n      tag_88\n        /* \"#utility.yul\":1530:1536   */\n      dup3\n        /* \"#utility.yul\":1508:1537   */\n      tag_37\n      jump\t// in\n    tag_88:\n        /* \"#utility.yul\":1500:1537   */\n      swap1\n      pop\n        /* \"#utility.yul\":1592:1596   */\n      0x20\n        /* \"#utility.yul\":1586:1590   */\n      dup2\n        /* \"#utility.yul\":1582:1597   */\n      add\n        /* \"#utility.yul\":1574:1597   */\n      swap1\n      pop\n        /* \"#utility.yul\":1296:1604   */\n      swap2\n      swap1\n      pop\n      jump\t// out\n        /* \"#utility.yul\":1610:1758   */\n    tag_42:\n        /* \"#utility.yul\":1708:1714   */\n      dup3\n        /* \"#utility.yul\":1703:1706   */\n      dup2\n        /* \"#utility.yul\":1698:1701   */\n      dup4\n        /* \"#utility.yul\":1685:1715   */\n      calldatacopy\n        /* \"#utility.yul\":1749:1750   */\n      0x00\n        /* \"#utility.yul\":1740:1746   */\n      dup4\n        /* \"#utility.yul\":1735:1738   */\n      dup4\n        /* \"#utility.yul\":1731:1747   */\n      add\n        /* \"#utility.yul\":1724:1751   */\n      mstore\n        /* \"#utility.yul\":1610:1758   */\n      pop\n      pop\n      pop\n      jump\t// out\n        /* \"#utility.yul\":1764:2189   */\n    tag_43:\n        /* \"#utility.yul\":1842:1847   */\n      0x00\n        /* \"#utility.yul\":1867:1933   */\n      tag_91\n        /* \"#utility.yul\":1883:1932   */\n      tag_92\n        /* \"#utility.yul\":1925:1931   */\n      dup5\n        /* \"#utility.yul\":1883:1932   */\n      tag_41\n      jump\t// in\n    tag_92:\n        /* \"#utility.yul\":1867:1933   */\n      tag_40\n      jump\t// in\n    tag_91:\n        /* \"#utility.yul\":1858:1933   */\n      swap1\n      pop\n        /* \"#utility.yul\":1956:1962   */\n      dup3\n        /* \"#utility.yul\":1949:1954   */\n      dup2\n        /* \"#utility.yul\":1942:1963   */\n      mstore\n        /* \"#utility.yul\":1994:1998   */\n      0x20\n        /* \"#utility.yul\":1987:1992   */\n      dup2\n        /* \"#utility.yul\":1983:1999   */\n      add\n        /* \"#utility.yul\":2032:2035   */\n      dup5\n        /* \"#utility.yul\":2023:2029   */\n      dup5\n        /* \"#utility.yul\":2018:2021   */\n      dup5\n        /* \"#utility.yul\":2014:2030   */\n      add\n        /* \"#utility.yul\":2011:2036   */\n      gt\n        /* \"#utility.yul\":2008:2120   */\n      iszero\n      tag_93\n      jumpi\n        /* \"#utility.yul\":2039:2118   */\n      tag_94\n      tag_36\n      jump\t// in\n    tag_94:\n        /* \"#utility.yul\":2008:2120   */\n    tag_93:\n        /* \"#utility.yul\":2129:2183   */\n      tag_95\n        /* \"#utility.yul\":2176:2182   */\n      dup5\n        /* \"#utility.yul\":2171:2174   */\n      dup3\n        /* \"#utility.yul\":2166:2169   */\n      dup6\n        /* \"#utility.yul\":2129:2183   */\n      tag_42\n      jump\t// in\n    tag_95:\n        /* \"#utility.yul\":1848:2189   */\n      pop\n        /* \"#utility.yul\":1764:2189   */\n      swap4\n      swap3\n      pop\n      pop\n      pop\n      jump\t// out\n        /* \"#utility.yul\":2209:2549   */\n    tag_44:\n        /* \"#utility.yul\":2265:2270   */\n      0x00\n        /* \"#utility.yul\":2314:2317   */\n      dup3\n        /* \"#utility.yul\":2307:2311   */\n      0x1f\n        /* \"#utility.yul\":2299:2305   */\n      dup4\n        /* \"#utility.yul\":2295:2312   */\n      add\n        /* \"#utility.yul\":2291:2318   */\n      slt\n        /* \"#utility.yul\":2281:2403   */\n      tag_97\n      jumpi\n        /* \"#utility.yul\":2322:2401   */\n      tag_98\n      tag_35\n      jump\t// in\n    tag_98:\n        /* \"#utility.yul\":2281:2403   */\n    tag_97:\n        /* \"#utility.yul\":2439:2445   */\n      dup2\n        /* \"#utility.yul\":2426:2446   */\n      calldataload\n        /* \"#utility.yul\":2464:2543   */\n      tag_99\n        /* \"#utility.yul\":2539:2542   */\n      dup5\n        /* \"#utility.yul\":2531:2537   */\n      dup3\n        /* \"#utility.yul\":2524:2528   */\n      0x20\n        /* \"#utility.yul\":2516:2522   */\n      dup7\n        /* \"#utility.yul\":2512:2529   */\n      add\n        /* \"#utility.yul\":2464:2543   */\n      tag_43\n      jump\t// in\n    tag_99:\n        /* \"#utility.yul\":2455:2543   */\n      swap2\n      pop\n        /* \"#utility.yul\":2271:2549   */\n      pop\n        /* \"#utility.yul\":2209:2549   */\n      swap3\n      swap2\n      pop\n      pop\n      jump\t// out\n        /* \"#utility.yul\":2555:3064   */\n    tag_8:\n        /* \"#utility.yul\":2624:2630   */\n      0x00\n        /* \"#utility.yul\":2673:2675   */\n      0x20\n        /* \"#utility.yul\":2661:2670   */\n      dup3\n        /* \"#utility.yul\":2652:2659   */\n      dup5\n        /* \"#utility.yul\":2648:2671   */\n      sub\n        /* \"#utility.yul\":2644:2676   */\n      slt\n        /* \"#utility.yul\":2641:2760   */\n      iszero\n      tag_101\n      jumpi\n        /* \"#utility.yul\":2679:2758   */\n      tag_102\n      tag_33\n      jump\t// in\n    tag_102:\n        /* \"#utility.yul\":2641:2760   */\n    tag_101:\n        /* \"#utility.yul\":2827:2828   */\n      0x00\n        /* \"#utility.yul\":2816:2825   */\n      dup3\n        /* \"#utility.yul\":2812:2829   */\n      add\n        /* \"#utility.yul\":2799:2830   */\n      calldataload\n        /* \"#utility.yul\":2857:2875   */\n      0xffffffffffffffff\n        /* \"#utility.yul\":2849:2855   */\n      dup2\n        /* \"#utility.yul\":2846:2876   */\n      gt\n        /* \"#utility.yul\":2843:2960   */\n      iszero\n      tag_103\n      jumpi\n        /* \"#utility.yul\":2879:2958   */\n      tag_104\n      tag_34\n      jump\t// in\n    tag_104:\n        /* \"#utility.yul\":2843:2960   */\n    tag_103:\n        /* \"#utility.yul\":2984:3047   */\n      tag_105\n        /* \"#utility.yul\":3039:3046   */\n      dup5\n        /* \"#utility.yul\":3030:3036   */\n      dup3\n        /* \"#utility.yul\":3019:3028   */\n      dup6\n        /* \"#utility.yul\":3015:3037   */\n      add\n        /* \"#utility.yul\":2984:3047   */\n      tag_44\n      jump\t// in\n    tag_105:\n        /* \"#utility.yul\":2974:3047   */\n      swap2\n      pop\n        /* \"#utility.yul\":2770:3057   */\n      pop\n        /* \"#utility.yul\":2555:3064   */\n      swap3\n      swap2\n      pop\n      pop\n      jump\t// out\n        /* \"#utility.yul\":3070:3169   */\n    tag_45:\n        /* \"#utility.yul\":3122:3128   */\n      0x00\n        /* \"#utility.yul\":3156:3161   */\n      dup2\n        /* \"#utility.yul\":3150:3162   */\n      mload\n        /* \"#utility.yul\":3140:3162   */\n      swap1\n      pop\n        /* \"#utility.yul\":3070:3169   */\n      swap2\n      swap1\n      pop\n      jump\t// out\n        /* \"#utility.yul\":3175:3344   */\n    tag_46:\n        /* \"#utility.yul\":3259:3270   */\n      0x00\n        /* \"#utility.yul\":3293:3299   */\n      dup3\n        /* \"#utility.yul\":3288:3291   */\n      dup3\n        /* \"#utility.yul\":3281:3300   */\n      mstore\n        /* \"#utility.yul\":3333:3337   */\n      0x20\n        /* \"#utility.yul\":3328:3331   */\n      dup3\n        /* \"#utility.yul\":3324:3338   */\n      add\n        /* \"#utility.yul\":3309:3338   */\n      swap1\n      pop\n        /* \"#utility.yul\":3175:3344   */\n      swap3\n      swap2\n      pop\n      pop\n      jump\t// out\n        /* \"#utility.yul\":3350:3598   */\n    tag_47:\n        /* \"#utility.yul\":3432:3433   */\n      0x00\n        /* \"#utility.yul\":3442:3555   */\n    tag_109:\n        /* \"#utility.yul\":3456:3462   */\n      dup4\n        /* \"#utility.yul\":3453:3454   */\n      dup2\n        /* \"#utility.yul\":3450:3463   */\n      lt\n        /* \"#utility.yul\":3442:3555   */\n      iszero\n      tag_111\n      jumpi\n        /* \"#utility.yul\":3541:3542   */\n      dup1\n        /* \"#utility.yul\":3536:3539   */\n      dup3\n        /* \"#utility.yul\":3532:3543   */\n      add\n        /* \"#utility.yul\":3526:3544   */\n      mload\n        /* \"#utility.yul\":3522:3523   */\n      dup2\n        /* \"#utility.yul\":3517:3520   */\n      dup5\n        /* \"#utility.yul\":3513:3524   */\n      add\n        /* \"#utility.yul\":3506:3545   */\n      mstore\n        /* \"#utility.yul\":3478:3480   */\n      0x20\n        /* \"#utility.yul\":3475:3476   */\n      dup2\n        /* \"#utility.yul\":3471:3481   */\n      add\n        /* \"#utility.yul\":3466:3481   */\n      swap1\n      pop\n        /* \"#utility.yul\":3442:3555   */\n      jump(tag_109)\n    tag_111:\n        /* \"#utility.yul\":3589:3590   */\n      0x00\n        /* \"#utility.yul\":3580:3586   */\n      dup5\n        /* \"#utility.yul\":3575:3578   */\n      dup5\n        /* \"#utility.yul\":3571:3587   */\n      add\n        /* \"#utility.yul\":3564:3591   */\n      mstore\n        /* \"#utility.yul\":3412:3598   */\n      pop\n        /* \"#utility.yul\":3350:3598   */\n      pop\n      pop\n      pop\n      jump\t// out\n        /* \"#utility.yul\":3604:3981   */\n    tag_48:\n        /* \"#utility.yul\":3692:3695   */\n      0x00\n        /* \"#utility.yul\":3720:3759   */\n      tag_113\n        /* \"#utility.yul\":3753:3758   */\n      dup3\n        /* \"#utility.yul\":3720:3759   */\n      tag_45\n      jump\t// in\n    tag_113:\n        /* \"#utility.yul\":3775:3846   */\n      tag_114\n        /* \"#utility.yul\":3839:3845   */\n      dup2\n        /* \"#utility.yul\":3834:3837   */\n      dup6\n        /* \"#utility.yul\":3775:3846   */\n      tag_46\n      jump\t// in\n    tag_114:\n        /* \"#utility.yul\":3768:3846   */\n      swap4\n      pop\n        /* \"#utility.yul\":3855:3920   */\n      tag_115\n        /* \"#utility.yul\":3913:3919   */\n      dup2\n        /* \"#utility.yul\":3908:3911   */\n      dup6\n        /* \"#utility.yul\":3901:3905   */\n      0x20\n        /* \"#utility.yul\":3894:3899   */\n      dup7\n        /* \"#utility.yul\":3890:3906   */\n      add\n        /* \"#utility.yul\":3855:3920   */\n      tag_47\n      jump\t// in\n    tag_115:\n        /* \"#utility.yul\":3945:3974   */\n      tag_116\n        /* \"#utility.yul\":3967:3973   */\n      dup2\n        /* \"#utility.yul\":3945:3974   */\n      tag_37\n      jump\t// in\n    tag_116:\n        /* \"#utility.yul\":3940:3943   */\n      dup5\n        /* \"#utility.yul\":3936:3975   */\n      add\n        /* \"#utility.yul\":3929:3975   */\n      swap2\n      pop\n        /* \"#utility.yul\":3696:3981   */\n      pop\n        /* \"#utility.yul\":3604:3981   */\n      swap3\n      swap2\n      pop\n      pop\n      jump\t// out\n        /* \"#utility.yul\":3987:4300   */\n    tag_14:\n        /* \"#utility.yul\":4100:4104   */\n      0x00\n        /* \"#utility.yul\":4138:4140   */\n      0x20\n        /* \"#utility.yul\":4127:4136   */\n      dup3\n        /* \"#utility.yul\":4123:4141   */\n      add\n        /* \"#utility.yul\":4115:4141   */\n      swap1\n      pop\n        /* \"#utility.yul\":4187:4196   */\n      dup2\n        /* \"#utility.yul\":4181:4185   */\n      dup2\n        /* \"#utility.yul\":4177:4197   */\n      sub\n        /* \"#utility.yul\":4173:4174   */\n      0x00\n        /* \"#utility.yul\":4162:4171   */\n      dup4\n        /* \"#utility.yul\":4158:4175   */\n      add\n        /* \"#utility.yul\":4151:4198   */\n      mstore\n        /* \"#utility.yul\":4215:4293   */\n      tag_118\n        /* \"#utility.yul\":4288:4292   */\n      dup2\n        /* \"#utility.yul\":4279:4285   */\n      dup5\n        /* \"#utility.yul\":4215:4293   */\n      tag_48\n      jump\t// in\n    tag_118:\n        /* \"#utility.yul\":4207:4293   */\n      swap1\n      pop\n        /* \"#utility.yul\":3987:4300   */\n      swap3\n      swap2\n      pop\n      pop\n      jump\t// out\n        /* \"#utility.yul\":4306:5140   */\n    tag_17:\n        /* \"#utility.yul\":4394:4400   */\n      0x00\n        /* \"#utility.yul\":4402:4408   */\n      dup1\n        /* \"#utility.yul\":4451:4453   */\n      0x40\n        /* \"#utility.yul\":4439:4448   */\n      dup4\n        /* \"#utility.yul\":4430:4437   */\n      dup6\n        /* \"#utility.yul\":4426:4449   */\n      sub\n        /* \"#utility.yul\":4422:4454   */\n      slt\n        /* \"#utility.yul\":4419:4538   */\n      iszero\n      tag_120\n      jumpi\n        /* \"#utility.yul\":4457:4536   */\n      tag_121\n      tag_33\n      jump\t// in\n    tag_121:\n        /* \"#utility.yul\":4419:4538   */\n    tag_120:\n        /* \"#utility.yul\":4605:4606   */\n      0x00\n        /* \"#utility.yul\":4594:4603   */\n      dup4\n        /* \"#utility.yul\":4590:4607   */\n      add\n        /* \"#utility.yul\":4577:4608   */\n      calldataload\n        /* \"#utility.yul\":4635:4653   */\n      0xffffffffffffffff\n        /* \"#utility.yul\":4627:4633   */\n      dup2\n        /* \"#utility.yul\":4624:4654   */\n      gt\n        /* \"#utility.yul\":4621:4738   */\n      iszero\n      tag_122\n      jumpi\n        /* \"#utility.yul\":4657:4736   */\n      tag_123\n      tag_34\n      jump\t// in\n    tag_123:\n        /* \"#utility.yul\":4621:4738   */\n    tag_122:\n        /* \"#utility.yul\":4762:4825   */\n      tag_124\n        /* \"#utility.yul\":4817:4824   */\n      dup6\n        /* \"#utility.yul\":4808:4814   */\n      dup3\n        /* \"#utility.yul\":4797:4806   */\n      dup7\n        /* \"#utility.yul\":4793:4815   */\n      add\n        /* \"#utility.yul\":4762:4825   */\n      tag_44\n      jump\t// in\n    tag_124:\n        /* \"#utility.yul\":4752:4825   */\n      swap3\n      pop\n        /* \"#utility.yul\":4548:4835   */\n      pop\n        /* \"#utility.yul\":4902:4904   */\n      0x20\n        /* \"#utility.yul\":4891:4900   */\n      dup4\n        /* \"#utility.yul\":4887:4905   */\n      add\n        /* \"#utility.yul\":4874:4906   */\n      calldataload\n        /* \"#utility.yul\":4933:4951   */\n      0xffffffffffffffff\n        /* \"#utility.yul\":4925:4931   */\n      dup2\n        /* \"#utility.yul\":4922:4952   */\n      gt\n        /* \"#utility.yul\":4919:5036   */\n      iszero\n      tag_125\n      jumpi\n        /* \"#utility.yul\":4955:5034   */\n      tag_126\n      tag_34\n      jump\t// in\n    tag_126:\n        /* \"#utility.yul\":4919:5036   */\n    tag_125:\n        /* \"#utility.yul\":5060:5123   */\n      tag_127\n        /* \"#utility.yul\":5115:5122   */\n      dup6\n        /* \"#utility.yul\":5106:5112   */\n      dup3\n        /* \"#utility.yul\":5095:5104   */\n      dup7\n        /* \"#utility.yul\":5091:5113   */\n      add\n        /* \"#utility.yul\":5060:5123   */\n      tag_44\n      jump\t// in\n    tag_127:\n        /* \"#utility.yul\":5050:5123   */\n      swap2\n      pop\n        /* \"#utility.yul\":4845:5133   */\n      pop\n        /* \"#utility.yul\":4306:5140   */\n      swap3\n      pop\n      swap3\n      swap1\n      pop\n      jump\t// out\n        /* \"#utility.yul\":5146:5326   */\n    tag_49:\n        /* \"#utility.yul\":5194:5271   */\n      0x4e487b7100000000000000000000000000000000000000000000000000000000\n        /* \"#utility.yul\":5191:5192   */\n      0x00\n        /* \"#utility.yul\":5184:5272   */\n      mstore\n        /* \"#utility.yul\":5291:5295   */\n      0x22\n        /* \"#utility.yul\":5288:5289   */\n      0x04\n        /* \"#utility.yul\":5281:5296   */\n      mstore\n        /* \"#utility.yul\":5315:5319   */\n      0x24\n        /* \"#utility.yul\":5312:5313   */\n      0x00\n        /* \"#utility.yul\":5305:5320   */\n      revert\n        /* \"#utility.yul\":5332:5652   */\n    tag_50:\n        /* \"#utility.yul\":5376:5382   */\n      0x00\n        /* \"#utility.yul\":5413:5414   */\n      0x02\n        /* \"#utility.yul\":5407:5411   */\n      dup3\n        /* \"#utility.yul\":5403:5415   */\n      div\n        /* \"#utility.yul\":5393:5415   */\n      swap1\n      pop\n        /* \"#utility.yul\":5460:5461   */\n      0x01\n        /* \"#utility.yul\":5454:5458   */\n      dup3\n        /* \"#utility.yul\":5450:5462   */\n      and\n        /* \"#utility.yul\":5481:5499   */\n      dup1\n        /* \"#utility.yul\":5471:5552   */\n      tag_130\n      jumpi\n        /* \"#utility.yul\":5537:5541   */\n      0x7f\n        /* \"#utility.yul\":5529:5535   */\n      dup3\n        /* \"#utility.yul\":5525:5542   */\n      and\n        /* \"#utility.yul\":5515:5542   */\n      swap2\n      pop\n        /* \"#utility.yul\":5471:5552   */\n    tag_130:\n        /* \"#utility.yul\":5599:5601   */\n      0x20\n        /* \"#utility.yul\":5591:5597   */\n      dup3\n        /* \"#utility.yul\":5588:5602   */\n      lt\n        /* \"#utility.yul\":5568:5586   */\n      dup2\n        /* \"#utility.yul\":5565:5603   */\n      sub\n        /* \"#utility.yul\":5562:5646   */\n      tag_131\n      jumpi\n        /* \"#utility.yul\":5618:5636   */\n      tag_132\n      tag_49\n      jump\t// in\n    tag_132:\n        /* \"#utility.yul\":5562:5646   */\n    tag_131:\n        /* \"#utility.yul\":5383:5652   */\n      pop\n        /* \"#utility.yul\":5332:5652   */\n      swap2\n      swap1\n      pop\n      jump\t// out\n        /* \"#utility.yul\":5658:5799   */\n    tag_51:\n        /* \"#utility.yul\":5707:5711   */\n      0x00\n        /* \"#utility.yul\":5730:5733   */\n      dup2\n        /* \"#utility.yul\":5722:5733   */\n      swap1\n      pop\n        /* \"#utility.yul\":5753:5756   */\n      dup2\n        /* \"#utility.yul\":5750:5751   */\n      0x00\n        /* \"#utility.yul\":5743:5757   */\n      mstore\n        /* \"#utility.yul\":5787:5791   */\n      0x20\n        /* \"#utility.yul\":5784:5785   */\n      0x00\n        /* \"#utility.yul\":5774:5792   */\n      keccak256\n        /* \"#utility.yul\":5766:5792   */\n      swap1\n      pop\n        /* \"#utility.yul\":5658:5799   */\n      swap2\n      swap1\n      pop\n      jump\t// out\n        /* \"#utility.yul\":5805:5898   */\n    tag_52:\n        /* \"#utility.yul\":5842:5848   */\n      0x00\n        /* \"#utility.yul\":5889:5891   */\n      0x20\n        /* \"#utility.yul\":5884:5886   */\n      0x1f\n        /* \"#utility.yul\":5877:5882   */\n      dup4\n        /* \"#utility.yul\":5873:5887   */\n      add\n        /* \"#utility.yul\":5869:5892   */\n      div\n        /* \"#utility.yul\":5859:5892   */\n      swap1\n      pop\n        /* \"#utility.yul\":5805:5898   */\n      swap2\n      swap1\n      pop\n      jump\t// out\n        /* \"#utility.yul\":5904:6011   */\n    tag_53:\n        /* \"#utility.yul\":5948:5956   */\n      0x00\n        /* \"#utility.yul\":5998:6003   */\n      dup3\n        /* \"#utility.yul\":5992:5996   */\n      dup3\n        /* \"#utility.yul\":5988:6004   */\n      shl\n        /* \"#utility.yul\":5967:6004   */\n      swap1\n      pop\n        /* \"#utility.yul\":5904:6011   */\n      swap3\n      swap2\n      pop\n      pop\n      jump\t// out\n        /* \"#utility.yul\":6017:6410   */\n    tag_54:\n        /* \"#utility.yul\":6086:6092   */\n      0x00\n        /* \"#utility.yul\":6136:6137   */\n      0x08\n        /* \"#utility.yul\":6124:6134   */\n      dup4\n        /* \"#utility.yul\":6120:6138   */\n      mul\n        /* \"#utility.yul\":6159:6256   */\n      tag_137\n        /* \"#utility.yul\":6189:6255   */\n      0xffffffffffffffffffffffffffffffffffffffffffffffffffffffffffffffff\n        /* \"#utility.yul\":6178:6187   */\n      dup3\n        /* \"#utility.yul\":6159:6256   */\n      tag_53\n      jump\t// in\n    tag_137:\n        /* \"#utility.yul\":6277:6316   */\n      tag_138\n        /* \"#utility.yul\":6307:6315   */\n      dup7\n        /* \"#utility.yul\":6296:6305   */\n      dup4\n        /* \"#utility.yul\":6277:6316   */\n      tag_53\n      jump\t// in\n    tag_138:\n        /* \"#utility.yul\":6265:6316   */\n      swap6\n      pop\n        /* \"#utility.yul\":6349:6353   */\n      dup1\n        /* \"#utility.yul\":6345:6354   */\n      not\n        /* \"#utility.yul\":6338:6343   */\n      dup5\n        /* \"#utility.yul\":6334:6355   */\n      and\n        /* \"#utility.yul\":6325:6355   */\n      swap4\n      pop\n        /* \"#utility.yul\":6398:6402   */\n      dup1\n        /* \"#utility.yul\":6388:6396   */\n      dup7\n        /* \"#utility.yul\":6384:6403   */\n      and\n        /* \"#utility.yul\":6377:6382   */\n      dup5\n        /* \"#utility.yul\":6374:6404   */\n      or\n        /* \"#utility.yul\":6364:6404   */\n      swap3\n      pop\n        /* \"#utility.yul\":6093:6410   */\n      pop\n      pop\n        /* \"#utility.yul\":6017:6410   */\n      swap4\n      swap3\n      pop\n      pop\n      pop\n      jump\t// out\n        /* \"#utility.yul\":6416:6493   */\n    tag_55:\n        /* \"#utility.yul\":6453:6460   */\n      0x00\n        /* \"#utility.yul\":6482:6487   */\n      dup2\n        /* \"#utility.yul\":6471:6487   */\n      swap1\n      pop\n        /* \"#utility.yul\":6416:6493   */\n      swap2\n      swap1\n      pop\n      jump\t// out\n        /* \"#utility.yul\":6499:6559   */\n    tag_56:\n        /* \"#utility.yul\":6527:6530   */\n      0x00\n        /* \"#utility.yul\":6548:6553   */\n      dup2\n        /* \"#utility.yul\":6541:6553   */\n      swap1\n      pop\n        /* \"#utility.yul\":6499:6559   */\n      swap2\n      swap1\n      pop\n      jump\t// out\n        /* \"#utility.yul\":6565:6707   */\n    tag_57:\n        /* \"#utility.yul\":6615:6624   */\n      0x00\n        /* \"#utility.yul\":6648:6701   */\n      tag_142\n        /* \"#utility.yul\":6666:6700   */\n      tag_143\n        /* \"#utility.yul\":6675:6699   */\n      tag_144\n        /* \"#utility.yul\":6693:6698   */\n      dup5\n        /* \"#utility.yul\":6675:6699   */\n      tag_55\n      jump\t// in\n    tag_144:\n        /* \"#utility.yul\":6666:6700   */\n      tag_56\n      jump\t// in\n    tag_143:\n        /* \"#utility.yul\":6648:6701   */\n      tag_55\n      jump\t// in\n    tag_142:\n        /* \"#utility.yul\":6635:6701   */\n      swap1\n      pop\n        /* \"#utility.yul\":6565:6707   */\n      swap2\n      swap1\n      pop\n      jump\t// out\n        /* \"#utility.yul\":6713:6788   */\n    tag_58:\n        /* \"#utility.yul\":6756:6759   */\n      0x00\n        /* \"#utility.yul\":6777:6782   */\n      dup2\n        /* \"#utility.yul\":6770:6782   */\n      swap1\n      pop\n        /* \"#utility.yul\":6713:6788   */\n      swap2\n      swap1\n      pop\n      jump\t// out\n        /* \"#utility.yul\":6794:7063   */\n    tag_59:\n        /* \"#utility.yul\":6904:6943   */\n      tag_147\n        /* \"#utility.yul\":6935:6942   */\n      dup4\n        /* \"#utility.yul\":6904:6943   */\n      tag_57\n      jump\t// in\n    tag_147:\n        /* \"#utility.yul\":6965:7056   */\n      tag_148\n        /* \"#utility.yul\":7014:7055   */\n      tag_149\n        /* \"#utility.yul\":7038:7054   */\n      dup3\n        /* \"#utility.yul\":7014:7055   */\n      tag_58\n      jump\t// in\n    tag_149:\n        /* \"#utility.yul\":7006:7012   */\n      dup5\n        /* \"#utility.yul\":6999:7003   */\n      dup5\n        /* \"#utility.yul\":6993:7004   */\n      sload\n        /* \"#utility.yul\":6965:7056   */\n      tag_54\n      jump\t// in\n    tag_148:\n        /* \"#utility.yul\":6959:6963   */\n      dup3\n        /* \"#utility.yul\":6952:7057   */\n      sstore\n        /* \"#utility.yul\":6870:7063   */\n      pop\n        /* \"#utility.yul\":6794:7063   */\n      pop\n      pop\n      pop\n      jump\t// out\n        /* \"#utility.yul\":7069:7142   */\n    tag_60:\n        /* \"#utility.yul\":7114:7117   */\n      0x00\n        /* \"#utility.yul\":7069:7142   */\n      swap1\n      jump\t// out\n        /* \"#utility.yul\":7148:7337   */\n    tag_61:\n        /* \"#utility.yul\":7225:7257   */\n      tag_152\n      tag_60\n      jump\t// in\n    tag_152:\n        /* \"#utility.yul\":7266:7331   */\n      tag_153\n        /* \"#utility.yul\":7324:7330   */\n      dup2\n        /* \"#utility.yul\":7316:7322   */\n      dup5\n        /* \"#utility.yul\":7310:7314   */\n      dup5\n        /* \"#utility.yul\":7266:7331   */\n      tag_59\n      jump\t// in\n    tag_153:\n        /* \"#utility.yul\":7201:7337   */\n      pop\n        /* \"#utility.yul\":7148:7337   */\n      pop\n      pop\n      jump\t// out\n        /* \"#utility.yul\":7343:7529   */\n    tag_62:\n        /* \"#utility.yul\":7403:7523   */\n    tag_155:\n        /* \"#utility.yul\":7420:7423   */\n      dup2\n        /* \"#utility.yul\":7413:7418   */\n      dup2\n        /* \"#utility.yul\":7410:7424   */\n      lt\n        /* \"#utility.yul\":7403:7523   */\n      iszero\n      tag_157\n      jumpi\n        /* \"#utility.yul\":7474:7513   */\n      tag_158\n        /* \"#utility.yul\":7511:7512   */\n      0x00\n        /* \"#utility.yul\":7504:7509   */\n      dup3\n        /* \"#utility.yul\":7474:7513   */\n      tag_61\n      jump\t// in\n    tag_158:\n        /* \"#utility.yul\":7447:7448   */\n      0x01\n        /* \"#utility.yul\":7440:7445   */\n      dup2\n        /* \"#utility.yul\":7436:7449   */\n      add\n        /* \"#utility.yul\":7427:7449   */\n      swap1\n      pop\n        /* \"#utility.yul\":7403:7523   */\n      jump(tag_155)\n    tag_157:\n        /* \"#utility.yul\":7343:7529   */\n      pop\n      pop\n      jump\t// out\n        /* \"#utility.yul\":7535:8078   */\n    tag_63:\n        /* \"#utility.yul\":7636:7638   */\n      0x1f\n        /* \"#utility.yul\":7631:7634   */\n      dup3\n        /* \"#utility.yul\":7628:7639   */\n      gt\n        /* \"#utility.yul\":7625:8071   */\n      iszero\n      tag_160\n      jumpi\n        /* \"#utility.yul\":7670:7708   */\n      tag_161\n        /* \"#utility.yul\":7702:7707   */\n      dup2\n        /* \"#utility.yul\":7670:7708   */\n      tag_51\n      jump\t// in\n    tag_161:\n        /* \"#utility.yul\":7754:7783   */\n      tag_162\n        /* \"#utility.yul\":7772:7782   */\n      dup5\n        /* \"#utility.yul\":7754:7783   */\n      tag_52\n      jump\t// in\n    tag_162:\n        /* \"#utility.yul\":7744:7752   */\n      dup2\n        /* \"#utility.yul\":7740:7784   */\n      add\n        /* \"#utility.yul\":7937:7939   */\n      0x20\n        /* \"#utility.yul\":7925:7935   */\n      dup6\n        /* \"#utility.yul\":7922:7940   */\n      lt\n        /* \"#utility.yul\":7919:7968   */\n      iszero\n      tag_163\n      jumpi\n        /* \"#utility.yul\":7958:7966   */\n      dup2\n        /* \"#utility.yul\":7943:7966   */\n      swap1\n      pop\n        /* \"#utility.yul\":7919:7968   */\n    tag_163:\n        /* \"#utility.yul\":7981:8061   */\n      tag_164\n        /* \"#utility.yul\":8037:8059   */\n      tag_165\n        /* \"#utility.yul\":8055:8058   */\n      dup6\n        /* \"#utility.yul\":8037:8059   */\n      tag_52\n      jump\t// in\n    tag_165:\n        /* \"#utility.yul\":8027:8035   */\n      dup4\n        /* \"#utility.yul\":8023:8060   */\n      add\n        /* \"#utility.yul\":8010:8021   */\n      dup3\n        /* \"#utility.yul\":7981:8061   */\n      tag_62\n      jump\t// in\n    tag_164:\n        /* \"#utility.yul\":7640:8071   */\n      pop\n      pop\n        /* \"#utility.yul\":7625:8071   */\n    tag_160:\n        /* \"#utility.yul\":7535:8078   */\n      pop\n      pop\n      pop\n      jump\t// out\n        /* \"#utility.yul\":8084:8201   */\n    tag_64:\n        /* \"#utility.yul\":8138:8146   */\n      0x00\n        /* \"#utility.yul\":8188:8193   */\n      dup3\n        /* \"#utility.yul\":8182:8186   */\n      dup3\n        /* \"#utility.yul\":8178:8194   */\n      shr\n        /* \"#utility.yul\":8157:8194   */\n      swap1\n      pop\n        /* \"#utility.yul\":8084:8201   */\n      swap3\n      swap2\n      pop\n      pop\n      jump\t// out\n        /* \"#utility.yul\":8207:8376   */\n    tag_65:\n        /* \"#utility.yul\":8251:8257   */\n      0x00\n        /* \"#utility.yul\":8284:8335   */\n      tag_168\n        /* \"#utility.yul\":8332:8333   */\n      0x00\n        /* \"#utility.yul\":8328:8334   */\n      not\n        /* \"#utility.yul\":8320:8325   */\n      dup5\n        /* \"#utility.yul\":8317:8318   */\n      0x08\n        /* \"#utility.yul\":8313:8326   */\n      mul\n        /* \"#utility.yul\":8284:8335   */\n      tag_64\n      jump\t// in\n    tag_168:\n        /* \"#utility.yul\":8280:8336   */\n      not\n        /* \"#utility.yul\":8365:8369   */\n      dup1\n        /* \"#utility.yul\":8359:8363   */\n      dup4\n        /* \"#utility.yul\":8355:8370   */\n      and\n        /* \"#utility.yul\":8345:8370   */\n      swap2\n      pop\n        /* \"#utility.yul\":8258:8376   */\n      pop\n        /* \"#utility.yul\":8207:8376   */\n      swap3\n      swap2\n      pop\n      pop\n      jump\t// out\n        /* \"#utility.yul\":8381:8676   */\n    tag_66:\n        /* \"#utility.yul\":8457:8461   */\n      0x00\n        /* \"#utility.yul\":8603:8632   */\n      tag_170\n        /* \"#utility.yul\":8628:8631   */\n      dup4\n        /* \"#utility.yul\":8622:8626   */\n      dup4\n        /* \"#utility.yul\":8603:8632   */\n      tag_65\n      jump\t// in\n    tag_170:\n        /* \"#utility.yul\":8595:8632   */\n      swap2\n      pop\n        /* \"#utility.yul\":8665:8668   */\n      dup3\n        /* \"#utility.yul\":8662:8663   */\n      0x02\n        /* \"#utility.yul\":8658:8669   */\n      mul\n        /* \"#utility.yul\":8652:8656   */\n      dup3\n        /* \"#utility.yul\":8649:8670   */\n      or\n        /* \"#utility.yul\":8641:8670   */\n      swap1\n      pop\n        /* \"#utility.yul\":8381:8676   */\n      swap3\n      swap2\n      pop\n      pop\n      jump\t// out\n        /* \"#utility.yul\":8681:10076   */\n    tag_22:\n        /* \"#utility.yul\":8798:8835   */\n      tag_172\n        /* \"#utility.yul\":8831:8834   */\n      dup3\n        /* \"#utility.yul\":8798:8835   */\n      tag_45\n      jump\t// in\n    tag_172:\n        /* \"#utility.yul\":8900:8918   */\n      0xffffffffffffffff\n        /* \"#utility.yul\":8892:8898   */\n      dup2\n        /* \"#utility.yul\":8889:8919   */\n      gt\n        /* \"#utility.yul\":8886:8942   */\n      iszero\n      tag_173\n      jumpi\n        /* \"#utility.yul\":8922:8940   */\n      tag_174\n      tag_38\n      jump\t// in\n    tag_174:\n        /* \"#utility.yul\":8886:8942   */\n    tag_173:\n        /* \"#utility.yul\":8966:9004   */\n      tag_175\n        /* \"#utility.yul\":8998:9002   */\n      dup3\n        /* \"#utility.yul\":8992:9003   */\n      sload\n        /* \"#utility.yul\":8966:9004   */\n      tag_50\n      jump\t// in\n    tag_175:\n        /* \"#utility.yul\":9051:9118   */\n      tag_176\n        /* \"#utility.yul\":9111:9117   */\n      dup3\n        /* \"#utility.yul\":9103:9109   */\n      dup3\n        /* \"#utility.yul\":9097:9101   */\n      dup6\n        /* \"#utility.yul\":9051:9118   */\n      tag_63\n      jump\t// in\n    tag_176:\n        /* \"#utility.yul\":9145:9146   */\n      0x00\n        /* \"#utility.yul\":9169:9173   */\n      0x20\n        /* \"#utility.yul\":9156:9173   */\n      swap1\n      pop\n        /* \"#utility.yul\":9201:9203   */\n      0x1f\n        /* \"#utility.yul\":9193:9199   */\n      dup4\n        /* \"#utility.yul\":9190:9204   */\n      gt\n        /* \"#utility.yul\":9218:9219   */\n      0x01\n        /* \"#utility.yul\":9213:9831   */\n      dup2\n      eq\n      tag_178\n      jumpi\n        /* \"#utility.yul\":9875:9876   */\n      0x00\n        /* \"#utility.yul\":9892:9898   */\n      dup5\n        /* \"#utility.yul\":9889:9966   */\n      iszero\n      tag_179\n      jumpi\n        /* \"#utility.yul\":9941:9950   */\n      dup3\n        /* \"#utility.yul\":9936:9939   */\n      dup8\n        /* \"#utility.yul\":9932:9951   */\n      add\n        /* \"#utility.yul\":9926:9952   */\n      mload\n        /* \"#utility.yul\":9917:9952   */\n      swap1\n      pop\n        /* \"#utility.yul\":9889:9966   */\n    tag_179:\n        /* \"#utility.yul\":9992:10059   */\n      tag_180\n        /* \"#utility.yul\":10052:10058   */\n      dup6\n        /* \"#utility.yul\":10045:10050   */\n      dup3\n        /* \"#utility.yul\":9992:10059   */\n      tag_66\n      jump\t// in\n    tag_180:\n        /* \"#utility.yul\":9986:9990   */\n      dup7\n        /* \"#utility.yul\":9979:10060   */\n      sstore\n        /* \"#utility.yul\":9848:10070   */\n      pop\n        /* \"#utility.yul\":9183:10070   */\n      jump(tag_177)\n        /* \"#utility.yul\":9213:9831   */\n    tag_178:\n        /* \"#utility.yul\":9265:9269   */\n      0x1f\n        /* \"#utility.yul\":9261:9270   */\n      not\n        /* \"#utility.yul\":9253:9259   */\n      dup5\n        /* \"#utility.yul\":9249:9271   */\n      and\n        /* \"#utility.yul\":9299:9336   */\n      tag_181\n        /* \"#utility.yul\":9331:9335   */\n      dup7\n        /* \"#utility.yul\":9299:9336   */\n      tag_51\n      jump\t// in\n    tag_181:\n        /* \"#utility.yul\":9358:9359   */\n      0x00\n        /* \"#utility.yul\":9372:9580   */\n    tag_182:\n        /* \"#utility.yul\":9386:9393   */\n      dup3\n        /* \"#utility.yul\":9383:9384   */\n      dup2\n        /* \"#utility.yul\":9380:9394   */\n      lt\n        /* \"#utility.yul\":9372:9580   */\n      iszero\n      tag_184\n      jumpi\n        /* \"#utility.yul\":9465:9474   */\n      dup5\n        /* \"#utility.yul\":9460:9463   */\n      dup10\n        /* \"#utility.yul\":9456:9475   */\n      add\n        /* \"#utility.yul\":9450:9476   */\n      mload\n        /* \"#utility.yul\":9442:9448   */\n      dup3\n        /* \"#utility.yul\":9435:9477   */\n      sstore\n        /* \"#utility.yul\":9516:9517   */\n      0x01\n        /* \"#utility.yul\":9508:9514   */\n      dup3\n        /* \"#utility.yul\":9504:9518   */\n      add\n        /* \"#utility.yul\":9494:9518   */\n      swap2\n      pop\n        /* \"#utility.yul\":9563:9565   */\n      0x20\n        /* \"#utility.yul\":9552:9561   */\n      dup6\n        /* \"#utility.yul\":9548:9566   */\n      add\n        /* \"#utility.yul\":9535:9566   */\n      swap5\n      pop\n        /* \"#utility.yul\":9409:9413   */\n      0x20\n        /* \"#utility.yul\":9406:9407   */\n      dup2\n        /* \"#utility.yul\":9402:9414   */\n      add\n        /* \"#utility.yul\":9397:9414   */\n      swap1\n      pop\n        /* \"#utility.yul\":9372:9580   */\n      jump(tag_182)\n    tag_184:\n        /* \"#utility.yul\":9608:9614   */\n      dup7\n        /* \"#utility.yul\":9599:9606   */\n      dup4\n        /* \"#utility.yul\":9596:9615   */\n      lt\n        /* \"#utility.yul\":9593:9772   */\n      iszero\n      tag_185\n      jumpi\n        /* \"#utility.yul\":9666:9675   */\n      dup5\n        /* \"#utility.yul\":9661:9664   */\n      dup10\n        /* \"#utility.yul\":9657:9676   */\n      add\n        /* \"#utility.yul\":9651:9677   */\n      mload\n        /* \"#utility.yul\":9709:9757   */\n      tag_186\n        /* \"#utility.yul\":9751:9755   */\n      0x1f\n        /* \"#utility.yul\":9743:9749   */\n      dup10\n        /* \"#utility.yul\":9739:9756   */\n      and\n        /* \"#utility.yul\":9728:9737   */\n      dup3\n        /* \"#utility.yul\":9709:9757   */\n      tag_65\n      jump\t// in\n    tag_186:\n        /* \"#utility.yul\":9701:9707   */\n      dup4\n        /* \"#utility.yul\":9694:9758   */\n      sstore\n        /* \"#utility.yul\":9616:9772   */\n      pop\n        /* \"#utility.yul\":9593:9772   */\n    tag_185:\n        /* \"#utility.yul\":9818:9819   */\n      0x01\n        /* \"#utility.yul\":9814:9815   */\n      0x02\n        /* \"#utility.yul\":9806:9812   */\n      dup9\n        /* \"#utility.yul\":9802:9816   */\n      mul\n        /* \"#utility.yul\":9798:9820   */\n      add\n        /* \"#utility.yul\":9792:9796   */\n      dup9\n        /* \"#utility.yul\":9785:9821   */\n      sstore\n        /* \"#utility.yul\":9220:9831   */\n      pop\n      pop\n      pop\n        /* \"#utility.yul\":9183:10070   */\n    tag_177:\n      pop\n        /* \"#utility.yul\":8773:10076   */\n      pop\n      pop\n      pop\n        /* \"#utility.yul\":8681:10076   */\n      pop\n      pop\n      jump\t// out\n        /* \"#utility.yul\":10082:10230   */\n    tag_67:\n        /* \"#utility.yul\":10184:10195   */\n      0x00\n        /* \"#utility.yul\":10221:10224   */\n      dup2\n        /* \"#utility.yul\":10206:10224   */\n      swap1\n      pop\n        /* \"#utility.yul\":10082:10230   */\n      swap3\n      swap2\n      pop\n      pop\n      jump\t// out\n        /* \"#utility.yul\":10236:10626   */\n    tag_68:\n        /* \"#utility.yul\":10342:10345   */\n      0x00\n        /* \"#utility.yul\":10370:10409   */\n      tag_189\n        /* \"#utility.yul\":10403:10408   */\n      dup3\n        /* \"#utility.yul\":10370:10409   */\n      tag_45\n      jump\t// in\n    tag_189:\n        /* \"#utility.yul\":10425:10514   */\n      tag_190\n        /* \"#utility.yul\":10507:10513   */\n      dup2\n        /* \"#utility.yul\":10502:10505   */\n      dup6\n        /* \"#utility.yul\":10425:10514   */\n      tag_67\n      jump\t// in\n    tag_190:\n        /* \"#utility.yul\":10418:10514   */\n      swap4\n      pop\n        /* \"#utility.yul\":10523:10588   */\n      tag_191\n        /* \"#utility.yul\":10581:10587   */\n      dup2\n        /* \"#utility.yul\":10576:10579   */\n      dup6\n        /* \"#utility.yul\":10569:10573   */\n      0x20\n        /* \"#utility.yul\":10562:10567   */\n      dup7\n        /* \"#utility.yul\":10558:10574   */\n      add\n        /* \"#utility.yul\":10523:10588   */\n      tag_47\n      jump\t// in\n    tag_191:\n        /* \"#utility.yul\":10613:10619   */\n      dup1\n        /* \"#utility.yul\":10608:10611   */\n      dup5\n        /* \"#utility.yul\":10604:10620   */\n      add\n        /* \"#utility.yul\":10597:10620   */\n      swap2\n      pop\n        /* \"#utility.yul\":10346:10626   */\n      pop\n        /* \"#utility.yul\":10236:10626   */\n      swap3\n      swap2\n      pop\n      pop\n      jump\t// out\n        /* \"#utility.yul\":10632:11067   */\n    tag_28:\n        /* \"#utility.yul\":10812:10815   */\n      0x00\n        /* \"#utility.yul\":10834:10929   */\n      tag_193\n        /* \"#utility.yul\":10925:10928   */\n      dup3\n        /* \"#utility.yul\":10916:10922   */\n      dup6\n        /* \"#utility.yul\":10834:10929   */\n      tag_68\n      jump\t// in\n    tag_193:\n        /* \"#utility.yul\":10827:10929   */\n      swap2\n      pop\n        /* \"#utility.yul\":10946:11041   */\n      tag_194\n        /* \"#utility.yul\":11037:11040   */\n      dup3\n        /* \"#utility.yul\":11028:11034   */\n      dup5\n        /* \"#utility.yul\":10946:11041   */\n      tag_68\n      jump\t// in\n    tag_194:\n        /* \"#utility.yul\":10939:11041   */\n      swap2\n      pop\n        /* \"#utility.yul\":11058:11061   */\n      dup2\n        /* \"#utility.yul\":11051:11061   */\n      swap1\n      pop\n        /* \"#utility.yul\":10632:11067   */\n      swap4\n      swap3\n      pop\n      pop\n      pop\n      jump\t// out\n        /* \"#utility.yul\":11097:11971   */\n    tag_69:\n        /* \"#utility.yul\":11200:11203   */\n      0x00\n        /* \"#utility.yul\":11237:11242   */\n      dup2\n        /* \"#utility.yul\":11231:11243   */\n      sload\n        /* \"#utility.yul\":11266:11302   */\n      tag_196\n        /* \"#utility.yul\":11292:11301   */\n      dup2\n        /* \"#utility.yul\":11266:11302   */\n      tag_50\n      jump\t// in\n    tag_196:\n        /* \"#utility.yul\":11318:11407   */\n      tag_197\n        /* \"#utility.yul\":11400:11406   */\n      dup2\n        /* \"#utility.yul\":11395:11398   */\n      dup7\n        /* \"#utility.yul\":11318:11407   */\n      tag_67\n      jump\t// in\n    tag_197:\n        /* \"#utility.yul\":11311:11407   */\n      swap5\n      pop\n        /* \"#utility.yul\":11438:11439   */\n      0x01\n        /* \"#utility.yul\":11427:11436   */\n      dup3\n        /* \"#utility.yul\":11423:11440   */\n      and\n        /* \"#utility.yul\":11454:11455   */\n      0x00\n        /* \"#utility.yul\":11449:11615   */\n      dup2\n      eq\n      tag_199\n      jumpi\n        /* \"#utility.yul\":11629:11630   */\n      0x01\n        /* \"#utility.yul\":11624:11965   */\n      dup2\n      eq\n      tag_200\n      jumpi\n        /* \"#utility.yul\":11416:11965   */\n      jump(tag_198)\n        /* \"#utility.yul\":11449:11615   */\n    tag_199:\n        /* \"#utility.yul\":11533:11537   */\n      0xff\n        /* \"#utility.yul\":11529:11538   */\n      not\n        /* \"#utility.yul\":11518:11527   */\n      dup4\n        /* \"#utility.yul\":11514:11539   */\n      and\n        /* \"#utility.yul\":11509:11512   */\n      dup7\n        /* \"#utility.yul\":11502:11540   */\n      mstore\n        /* \"#utility.yul\":11595:11601   */\n      dup2\n        /* \"#utility.yul\":11588:11602   */\n      iszero\n        /* \"#utility.yul\":11581:11603   */\n      iszero\n        /* \"#utility.yul\":11573:11579   */\n      dup3\n        /* \"#utility.yul\":11569:11604   */\n      mul\n        /* \"#utility.yul\":11564:11567   */\n      dup7\n        /* \"#utility.yul\":11560:11605   */\n      add\n        /* \"#utility.yul\":11553:11605   */\n      swap4\n      pop\n        /* \"#utility.yul\":11449:11615   */\n      jump(tag_198)\n        /* \"#utility.yul\":11624:11965   */\n    tag_200:\n        /* \"#utility.yul\":11691:11729   */\n      tag_201\n        /* \"#utility.yul\":11723:11728   */\n      dup6\n        /* \"#utility.yul\":11691:11729   */\n      tag_51\n      jump\t// in\n    tag_201:\n        /* \"#utility.yul\":11751:11752   */\n      0x00\n        /* \"#utility.yul\":11765:11919   */\n    tag_202:\n        /* \"#utility.yul\":11779:11785   */\n      dup4\n        /* \"#utility.yul\":11776:11777   */\n      dup2\n        /* \"#utility.yul\":11773:11786   */\n      lt\n        /* \"#utility.yul\":11765:11919   */\n      iszero\n      tag_204\n      jumpi\n        /* \"#utility.yul\":11853:11860   */\n      dup2\n        /* \"#utility.yul\":11847:11861   */\n      sload\n        /* \"#utility.yul\":11843:11844   */\n      dup2\n        /* \"#utility.yul\":11838:11841   */\n      dup10\n        /* \"#utility.yul\":11834:11845   */\n      add\n        /* \"#utility.yul\":11827:11862   */\n      mstore\n        /* \"#utility.yul\":11903:11904   */\n      0x01\n        /* \"#utility.yul\":11894:11901   */\n      dup3\n        /* \"#utility.yul\":11890:11905   */\n      add\n        /* \"#utility.yul\":11879:11905   */\n      swap2\n      pop\n        /* \"#utility.yul\":11801:11805   */\n      0x20\n        /* \"#utility.yul\":11798:11799   */\n      dup2\n        /* \"#utility.yul\":11794:11806   */\n      add\n        /* \"#utility.yul\":11789:11806   */\n      swap1\n      pop\n        /* \"#utility.yul\":11765:11919   */\n      jump(tag_202)\n    tag_204:\n        /* \"#utility.yul\":11948:11954   */\n      dup4\n        /* \"#utility.yul\":11943:11946   */\n      dup9\n        /* \"#utility.yul\":11939:11955   */\n      add\n        /* \"#utility.yul\":11932:11955   */\n      swap6\n      pop\n        /* \"#utility.yul\":11631:11965   */\n      pop\n      pop\n        /* \"#utility.yul\":11416:11965   */\n    tag_198:\n      pop\n        /* \"#utility.yul\":11204:11971   */\n      pop\n      pop\n        /* \"#utility.yul\":11097:11971   */\n      swap3\n      swap2\n      pop\n      pop\n      jump\t// out\n        /* \"#utility.yul\":11977:12406   */\n    tag_31:\n        /* \"#utility.yul\":12154:12157   */\n      0x00\n        /* \"#utility.yul\":12176:12268   */\n      tag_206\n        /* \"#utility.yul\":12264:12267   */\n      dup3\n        /* \"#utility.yul\":12255:12261   */\n      dup6\n        /* \"#utility.yul\":12176:12268   */\n      tag_69\n      jump\t// in\n    tag_206:\n        /* \"#utility.yul\":12169:12268   */\n      swap2\n      pop\n        /* \"#utility.yul\":12285:12380   */\n      tag_207\n        /* \"#utility.yul\":12376:12379   */\n      dup3\n        /* \"#utility.yul\":12367:12373   */\n      dup5\n        /* \"#utility.yul\":12285:12380   */\n      tag_68\n      jump\t// in\n    tag_207:\n        /* \"#utility.yul\":12278:12380   */\n      swap2\n      pop\n        /* \"#utility.yul\":12397:12400   */\n      dup2\n        /* \"#utility.yul\":12390:12400   */\n      swap1\n      pop\n        /* \"#utility.yul\":11977:12406   */\n      swap4\n      swap3\n      pop\n      pop\n      pop\n      jump\t// out\n\n    auxdata: 0xa2646970667358221220e4d704bd39ad9aa3950e7279e45f64d72be8ae5b26eb6a05f26b9409da6f313f64736f6c634300081a0033\n}\n",
				"bytecode": {
					"linkReferences": {},
					"object": "60806040526040518060400160405280600581526020017f68656c6c6f0000000000000000000000000000000000000000000000000000008152505f90816100479190610293565b50348015610053575f80fd5b50610362565b5f81519050919050565b7f4e487b71000000000000000000000000000000000000000000000000000000005f52604160045260245ffd5b7f4e487b71000000000000000000000000000000000000000000000000000000005f52602260045260245ffd5b5f60028204905060018216806100d457607f821691505b6020821081036100e7576100e6610090565b5b50919050565b5f819050815f5260205f209050919050565b5f6020601f8301049050919050565b5f82821b905092915050565b5f600883026101497fffffffffffffffffffffffffffffffffffffffffffffffffffffffffffffffff8261010e565b610153868361010e565b95508019841693508086168417925050509392505050565b5f819050919050565b5f819050919050565b5f61019761019261018d8461016b565b610174565b61016b565b9050919050565b5f819050919050565b6101b08361017d565b6101c46101bc8261019e565b84845461011a565b825550505050565b5f90565b6101d86101cc565b6101e38184846101a7565b505050565b5b81811015610206576101fb5f826101d0565b6001810190506101e9565b5050565b601f82111561024b5761021c816100ed565b610225846100ff565b81016020851015610234578190505b610248610240856100ff565b8301826101e8565b50505b505050565b5f82821c905092915050565b5f61026b5f1984600802610250565b1980831691505092915050565b5f610283838361025c565b9150826002028217905092915050565b61029c82610059565b67ffffffffffffffff8111156102b5576102b4610063565b5b6102bf82546100bd565b6102ca82828561020a565b5f60209050601f8311600181146102fb575f84156102e9578287015190505b6102f38582610278565b86555061035a565b601f198416610309866100ed565b5f5b828110156103305784890151825560018201915060208501945060208101905061030b565b8683101561034d5784890151610349601f89168261025c565b8355505b6001600288020188555050505b505050505050565b6107e68061036f5f395ff3fe608060405234801561000f575f80fd5b506004361061003f575f3560e01c8063435ffe9414610043578063c3a9b1c51461005f578063c817d7b31461008f575b5f80fd5b61005d60048036038101906100589190610287565b6100bf565b005b61007960048036038101906100749190610287565b6100d1565b6040516100869190610348565b60405180910390f35b6100a960048036038101906100a49190610368565b6100e3565b6040516100b69190610348565b60405180910390f35b805f90816100cd91906105e1565b5050565b60606100dc8261010f565b9050919050565b606082826040516020016100f89291906106ea565b604051602081830303815290604052905092915050565b60605f8260405160200161012492919061078d565b6040516020818303038152906040529050919050565b5f604051905090565b5f80fd5b5f80fd5b5f80fd5b5f80fd5b5f601f19601f8301169050919050565b7f4e487b71000000000000000000000000000000000000000000000000000000005f52604160045260245ffd5b61019982610153565b810181811067ffffffffffffffff821117156101b8576101b7610163565b5b80604052505050565b5f6101ca61013a565b90506101d68282610190565b919050565b5f67ffffffffffffffff8211156101f5576101f4610163565b5b6101fe82610153565b9050602081019050919050565b828183375f83830152505050565b5f61022b610226846101db565b6101c1565b9050828152602081018484840111156102475761024661014f565b5b61025284828561020b565b509392505050565b5f82601f83011261026e5761026d61014b565b5b813561027e848260208601610219565b91505092915050565b5f6020828403121561029c5761029b610143565b5b5f82013567ffffffffffffffff8111156102b9576102b8610147565b5b6102c58482850161025a565b91505092915050565b5f81519050919050565b5f82825260208201905092915050565b5f5b838110156103055780820151818401526020810190506102ea565b5f8484015250505050565b5f61031a826102ce565b61032481856102d8565b93506103348185602086016102e8565b61033d81610153565b840191505092915050565b5f6020820190508181035f8301526103608184610310565b905092915050565b5f806040838503121561037e5761037d610143565b5b5f83013567ffffffffffffffff81111561039b5761039a610147565b5b6103a78582860161025a565b925050602083013567ffffffffffffffff8111156103c8576103c7610147565b5b6103d48582860161025a565b9150509250929050565b7f4e487b71000000000000000000000000000000000000000000000000000000005f52602260045260245ffd5b5f600282049050600182168061042257607f821691505b602082108103610435576104346103de565b5b50919050565b5f819050815f5260205f209050919050565b5f6020601f8301049050919050565b5f82821b905092915050565b5f600883026104977fffffffffffffffffffffffffffffffffffffffffffffffffffffffffffffffff8261045c565b6104a1868361045c565b95508019841693508086168417925050509392505050565b5f819050919050565b5f819050919050565b5f6104e56104e06104db846104b9565b6104c2565b6104b9565b9050919050565b5f819050919050565b6104fe836104cb565b61051261050a826104ec565b848454610468565b825550505050565b5f90565b61052661051a565b6105318184846104f5565b505050565b5b81811015610554576105495f8261051e565b600181019050610537565b5050565b601f8211156105995761056a8161043b565b6105738461044d565b81016020851015610582578190505b61059661058e8561044d565b830182610536565b50505b505050565b5f82821c905092915050565b5f6105b95f198460080261059e565b1980831691505092915050565b5f6105d183836105aa565b9150826002028217905092915050565b6105ea826102ce565b67ffffffffffffffff81111561060357610602610163565b5b61060d825461040b565b610618828285610558565b5f60209050601f831160018114610649575f8415610637578287015190505b61064185826105c6565b8655506106a8565b601f1984166106578661043b565b5f5b8281101561067e57848901518255600182019150602085019450602081019050610659565b8683101561069b5784890151610697601f8916826105aa565b8355505b6001600288020188555050505b505050505050565b5f81905092915050565b5f6106c4826102ce565b6106ce81856106b0565b93506106de8185602086016102e8565b80840191505092915050565b5f6106f582856106ba565b915061070182846106ba565b91508190509392505050565b5f81546107198161040b565b61072381866106b0565b9450600182165f811461073d576001811461075257610784565b60ff1983168652811515820286019350610784565b61075b8561043b565b5f5b8381101561077c5781548189015260018201915060208101905061075d565b838801955050505b50505092915050565b5f610798828561070d565b91506107a482846106ba565b9150819050939250505056fea2646970667358221220e4d704bd39ad9aa3950e7279e45f64d72be8ae5b26eb6a05f26b9409da6f313f64736f6c634300081a0033",
					"opcodes": "PUSH1 0x80 PUSH1 0x40 MSTORE PUSH1 0x40 MLOAD DUP1 PUSH1 0x40 ADD PUSH1 0x40 MSTORE DUP1 PUSH1 0x5 DUP2 MSTORE PUSH1 0x20 ADD PUSH32 0x68656C6C6F000000000000000000000000000000000000000000000000000000 DUP2 MSTORE POP PUSH0 SWAP1 DUP2 PUSH2 0x47 SWAP2 SWAP1 PUSH2 0x293 JUMP JUMPDEST POP CALLVALUE DUP1 ISZERO PUSH2 0x53 JUMPI PUSH0 DUP1 REVERT JUMPDEST POP PUSH2 0x362 JUMP JUMPDEST PUSH0 DUP2 MLOAD SWAP1 POP SWAP2 SWAP1 POP JUMP JUMPDEST PUSH32 0x4E487B7100000000000000000000000000000000000000000000000000000000 PUSH0 MSTORE PUSH1 0x41 PUSH1 0x4 MSTORE PUSH1 0x24 PUSH0 REVERT JUMPDEST PUSH32 0x4E487B7100000000000000000000000000000000000000000000000000000000 PUSH0 MSTORE PUSH1 0x22 PUSH1 0x4 MSTORE PUSH1 0x24 PUSH0 REVERT JUMPDEST PUSH0 PUSH1 0x2 DUP3 DIV SWAP1 POP PUSH1 0x1 DUP3 AND DUP1 PUSH2 0xD4 JUMPI PUSH1 0x7F DUP3 AND SWAP2 POP JUMPDEST PUSH1 0x20 DUP3 LT DUP2 SUB PUSH2 0xE7 JUMPI PUSH2 0xE6 PUSH2 0x90 JUMP JUMPDEST JUMPDEST POP SWAP2 SWAP1 POP JUMP JUMPDEST PUSH0 DUP2 SWAP1 POP DUP2 PUSH0 MSTORE PUSH1 0x20 PUSH0 KECCAK256 SWAP1 POP SWAP2 SWAP1 POP JUMP JUMPDEST PUSH0 PUSH1 0x20 PUSH1 0x1F DUP4 ADD DIV SWAP1 POP SWAP2 SWAP1 POP JUMP JUMPDEST PUSH0 DUP3 DUP3 SHL SWAP1 POP SWAP3 SWAP2 POP POP JUMP JUMPDEST PUSH0 PUSH1 0x8 DUP4 MUL PUSH2 0x149 PUSH32 0xFFFFFFFFFFFFFFFFFFFFFFFFFFFFFFFFFFFFFFFFFFFFFFFFFFFFFFFFFFFFFFFF DUP3 PUSH2 0x10E JUMP JUMPDEST PUSH2 0x153 DUP7 DUP4 PUSH2 0x10E JUMP JUMPDEST SWAP6 POP DUP1 NOT DUP5 AND SWAP4 POP DUP1 DUP7 AND DUP5 OR SWAP3 POP POP POP SWAP4 SWAP3 POP POP POP JUMP JUMPDEST PUSH0 DUP2 SWAP1 POP SWAP2 SWAP1 POP JUMP JUMPDEST PUSH0 DUP2 SWAP1 POP SWAP2 SWAP1 POP JUMP JUMPDEST PUSH0 PUSH2 0x197 PUSH2 0x192 PUSH2 0x18D DUP5 PUSH2 0x16B JUMP JUMPDEST PUSH2 0x174 JUMP JUMPDEST PUSH2 0x16B JUMP JUMPDEST SWAP1 POP SWAP2 SWAP1 POP JUMP JUMPDEST PUSH0 DUP2 SWAP1 POP SWAP2 SWAP1 POP JUMP JUMPDEST PUSH2 0x1B0 DUP4 PUSH2 0x17D JUMP JUMPDEST PUSH2 0x1C4 PUSH2 0x1BC DUP3 PUSH2 0x19E JUMP JUMPDEST DUP5 DUP5 SLOAD PUSH2 0x11A JUMP JUMPDEST DUP3 SSTORE POP POP POP POP JUMP JUMPDEST PUSH0 SWAP1 JUMP JUMPDEST PUSH2 0x1D8 PUSH2 0x1CC JUMP JUMPDEST PUSH2 0x1E3 DUP2 DUP5 DUP5 PUSH2 0x1A7 JUMP JUMPDEST POP POP POP JUMP JUMPDEST JUMPDEST DUP2 DUP2 LT ISZERO PUSH2 0x206 JUMPI PUSH2 0x1FB PUSH0 DUP3 PUSH2 0x1D0 JUMP JUMPDEST PUSH1 0x1 DUP2 ADD SWAP1 POP PUSH2 0x1E9 JUMP JUMPDEST POP POP JUMP JUMPDEST PUSH1 0x1F DUP3 GT ISZERO PUSH2 0x24B JUMPI PUSH2 0x21C DUP2 PUSH2 0xED JUMP JUMPDEST PUSH2 0x225 DUP5 PUSH2 0xFF JUMP JUMPDEST DUP2 ADD PUSH1 0x20 DUP6 LT ISZERO PUSH2 0x234 JUMPI DUP2 SWAP1 POP JUMPDEST PUSH2 0x248 PUSH2 0x240 DUP6 PUSH2 0xFF JUMP JUMPDEST DUP4 ADD DUP3 PUSH2 0x1E8 JUMP JUMPDEST POP POP JUMPDEST POP POP POP JUMP JUMPDEST PUSH0 DUP3 DUP3 SHR SWAP1 POP SWAP3 SWAP2 POP POP JUMP JUMPDEST PUSH0 PUSH2 0x26B PUSH0 NOT DUP5 PUSH1 0x8 MUL PUSH2 0x250 JUMP JUMPDEST NOT DUP1 DUP4 AND SWAP2 POP POP SWAP3 SWAP2 POP POP JUMP JUMPDEST PUSH0 PUSH2 0x283 DUP4 DUP4 PUSH2 0x25C JUMP JUMPDEST SWAP2 POP DUP3 PUSH1 0x2 MUL DUP3 OR SWAP1 POP SWAP3 SWAP2 POP POP JUMP JUMPDEST PUSH2 0x29C DUP3 PUSH2 0x59 JUMP JUMPDEST PUSH8 0xFFFFFFFFFFFFFFFF DUP2 GT ISZERO PUSH2 0x2B5 JUMPI PUSH2 0x2B4 PUSH2 0x63 JUMP JUMPDEST JUMPDEST PUSH2 0x2BF DUP3 SLOAD PUSH2 0xBD JUMP JUMPDEST PUSH2 0x2CA DUP3 DUP3 DUP6 PUSH2 0x20A JUMP JUMPDEST PUSH0 PUSH1 0x20 SWAP1 POP PUSH1 0x1F DUP4 GT PUSH1 0x1 DUP2 EQ PUSH2 0x2FB JUMPI PUSH0 DUP5 ISZERO PUSH2 0x2E9 JUMPI DUP3 DUP8 ADD MLOAD SWAP1 POP JUMPDEST PUSH2 0x2F3 DUP6 DUP3 PUSH2 0x278 JUMP JUMPDEST DUP7 SSTORE POP PUSH2 0x35A JUMP JUMPDEST PUSH1 0x1F NOT DUP5 AND PUSH2 0x309 DUP7 PUSH2 0xED JUMP JUMPDEST PUSH0 JUMPDEST DUP3 DUP2 LT ISZERO PUSH2 0x330 JUMPI DUP5 DUP10 ADD MLOAD DUP3 SSTORE PUSH1 0x1 DUP3 ADD SWAP2 POP PUSH1 0x20 DUP6 ADD SWAP5 POP PUSH1 0x20 DUP2 ADD SWAP1 POP PUSH2 0x30B JUMP JUMPDEST DUP7 DUP4 LT ISZERO PUSH2 0x34D JUMPI DUP5 DUP10 ADD MLOAD PUSH2 0x349 PUSH1 0x1F DUP10 AND DUP3 PUSH2 0x25C JUMP JUMPDEST DUP4 SSTORE POP JUMPDEST PUSH1 0x1 PUSH1 0x2 DUP9 MUL ADD DUP9 SSTORE POP POP POP JUMPDEST POP POP POP POP POP POP JUMP JUMPDEST PUSH2 0x7E6 DUP1 PUSH2 0x36F PUSH0 CODECOPY PUSH0 RETURN INVALID PUSH1 0x80 PUSH1 0x40 MSTORE CALLVALUE DUP1 ISZERO PUSH2 0xF JUMPI PUSH0 DUP1 REVERT JUMPDEST POP PUSH1 0x4 CALLDATASIZE LT PUSH2 0x3F JUMPI PUSH0 CALLDATALOAD PUSH1 0xE0 SHR DUP1 PUSH4 0x435FFE94 EQ PUSH2 0x43 JUMPI DUP1 PUSH4 0xC3A9B1C5 EQ PUSH2 0x5F JUMPI DUP1 PUSH4 0xC817D7B3 EQ PUSH2 0x8F JUMPI JUMPDEST PUSH0 DUP1 REVERT JUMPDEST PUSH2 0x5D PUSH1 0x4 DUP1 CALLDATASIZE SUB DUP2 ADD SWAP1 PUSH2 0x58 SWAP2 SWAP1 PUSH2 0x287 JUMP JUMPDEST PUSH2 0xBF JUMP JUMPDEST STOP JUMPDEST PUSH2 0x79 PUSH1 0x4 DUP1 CALLDATASIZE SUB DUP2 ADD SWAP1 PUSH2 0x74 SWAP2 SWAP1 PUSH2 0x287 JUMP JUMPDEST PUSH2 0xD1 JUMP JUMPDEST PUSH1 0x40 MLOAD PUSH2 0x86 SWAP2 SWAP1 PUSH2 0x348 JUMP JUMPDEST PUSH1 0x40 MLOAD DUP1 SWAP2 SUB SWAP1 RETURN JUMPDEST PUSH2 0xA9 PUSH1 0x4 DUP1 CALLDATASIZE SUB DUP2 ADD SWAP1 PUSH2 0xA4 SWAP2 SWAP1 PUSH2 0x368 JUMP JUMPDEST PUSH2 0xE3 JUMP JUMPDEST PUSH1 0x40 MLOAD PUSH2 0xB6 SWAP2 SWAP1 PUSH2 0x348 JUMP JUMPDEST PUSH1 0x40 MLOAD DUP1 SWAP2 SUB SWAP1 RETURN JUMPDEST DUP1 PUSH0 SWAP1 DUP2 PUSH2 0xCD SWAP2 SWAP1 PUSH2 0x5E1 JUMP JUMPDEST POP POP JUMP JUMPDEST PUSH1 0x60 PUSH2 0xDC DUP3 PUSH2 0x10F JUMP JUMPDEST SWAP1 POP SWAP2 SWAP1 POP JUMP JUMPDEST PUSH1 0x60 DUP3 DUP3 PUSH1 0x40 MLOAD PUSH1 0x20 ADD PUSH2 0xF8 SWAP3 SWAP2 SWAP1 PUSH2 0x6EA JUMP JUMPDEST PUSH1 0x40 MLOAD PUSH1 0x20 DUP2 DUP4 SUB SUB DUP2 MSTORE SWAP1 PUSH1 0x40 MSTORE SWAP1 POP SWAP3 SWAP2 POP POP JUMP JUMPDEST PUSH1 0x60 PUSH0 DUP3 PUSH1 0x40 MLOAD PUSH1 0x20 ADD PUSH2 0x124 SWAP3 SWAP2 SWAP1 PUSH2 0x78D JUMP JUMPDEST PUSH1 0x40 MLOAD PUSH1 0x20 DUP2 DUP4 SUB SUB DUP2 MSTORE SWAP1 PUSH1 0x40 MSTORE SWAP1 POP SWAP2 SWAP1 POP JUMP JUMPDEST PUSH0 PUSH1 0x40 MLOAD SWAP1 POP SWAP1 JUMP JUMPDEST PUSH0 DUP1 REVERT JUMPDEST PUSH0 DUP1 REVERT JUMPDEST PUSH0 DUP1 REVERT JUMPDEST PUSH0 DUP1 REVERT JUMPDEST PUSH0 PUSH1 0x1F NOT PUSH1 0x1F DUP4 ADD AND SWAP1 POP SWAP2 SWAP1 POP JUMP JUMPDEST PUSH32 0x4E487B7100000000000000000000000000000000000000000000000000000000 PUSH0 MSTORE PUSH1 0x41 PUSH1 0x4 MSTORE PUSH1 0x24 PUSH0 REVERT JUMPDEST PUSH2 0x199 DUP3 PUSH2 0x153 JUMP JUMPDEST DUP2 ADD DUP2 DUP2 LT PUSH8 0xFFFFFFFFFFFFFFFF DUP3 GT OR ISZERO PUSH2 0x1B8 JUMPI PUSH2 0x1B7 PUSH2 0x163 JUMP JUMPDEST JUMPDEST DUP1 PUSH1 0x40 MSTORE POP POP POP JUMP JUMPDEST PUSH0 PUSH2 0x1CA PUSH2 0x13A JUMP JUMPDEST SWAP1 POP PUSH2 0x1D6 DUP3 DUP3 PUSH2 0x190 JUMP JUMPDEST SWAP2 SWAP1 POP JUMP JUMPDEST PUSH0 PUSH8 0xFFFFFFFFFFFFFFFF DUP3 GT ISZERO PUSH2 0x1F5 JUMPI PUSH2 0x1F4 PUSH2 0x163 JUMP JUMPDEST JUMPDEST PUSH2 0x1FE DUP3 PUSH2 0x153 JUMP JUMPDEST SWAP1 POP PUSH1 0x20 DUP2 ADD SWAP1 POP SWAP2 SWAP1 POP JUMP JUMPDEST DUP3 DUP2 DUP4 CALLDATACOPY PUSH0 DUP4 DUP4 ADD MSTORE POP POP POP JUMP JUMPDEST PUSH0 PUSH2 0x22B PUSH2 0x226 DUP5 PUSH2 0x1DB JUMP JUMPDEST PUSH2 0x1C1 JUMP JUMPDEST SWAP1 POP DUP3 DUP2 MSTORE PUSH1 0x20 DUP2 ADD DUP5 DUP5 DUP5 ADD GT ISZERO PUSH2 0x247 JUMPI PUSH2 0x246 PUSH2 0x14F JUMP JUMPDEST JUMPDEST PUSH2 0x252 DUP5 DUP3 DUP6 PUSH2 0x20B JUMP JUMPDEST POP SWAP4 SWAP3 POP POP POP JUMP JUMPDEST PUSH0 DUP3 PUSH1 0x1F DUP4 ADD SLT PUSH2 0x26E JUMPI PUSH2 0x26D PUSH2 0x14B JUMP JUMPDEST JUMPDEST DUP2 CALLDATALOAD PUSH2 0x27E DUP5 DUP3 PUSH1 0x20 DUP7 ADD PUSH2 0x219 JUMP JUMPDEST SWAP2 POP POP SWAP3 SWAP2 POP POP JUMP JUMPDEST PUSH0 PUSH1 0x20 DUP3 DUP5 SUB SLT ISZERO PUSH2 0x29C JUMPI PUSH2 0x29B PUSH2 0x143 JUMP JUMPDEST JUMPDEST PUSH0 DUP3 ADD CALLDATALOAD PUSH8 0xFFFFFFFFFFFFFFFF DUP2 GT ISZERO PUSH2 0x2B9 JUMPI PUSH2 0x2B8 PUSH2 0x147 JUMP JUMPDEST JUMPDEST PUSH2 0x2C5 DUP5 DUP3 DUP6 ADD PUSH2 0x25A JUMP JUMPDEST SWAP2 POP POP SWAP3 SWAP2 POP POP JUMP JUMPDEST PUSH0 DUP2 MLOAD SWAP1 POP SWAP2 SWAP1 POP JUMP JUMPDEST PUSH0 DUP3 DUP3 MSTORE PUSH1 0x20 DUP3 ADD SWAP1 POP SWAP3 SWAP2 POP POP JUMP JUMPDEST PUSH0 JUMPDEST DUP4 DUP2 LT ISZERO PUSH2 0x305 JUMPI DUP1 DUP3 ADD MLOAD DUP2 DUP5 ADD MSTORE PUSH1 0x20 DUP2 ADD SWAP1 POP PUSH2 0x2EA JUMP JUMPDEST PUSH0 DUP5 DUP5 ADD MSTORE POP POP POP POP JUMP JUMPDEST PUSH0 PUSH2 0x31A DUP3 PUSH2 0x2CE JUMP JUMPDEST PUSH2 0x324 DUP2 DUP6 PUSH2 0x2D8 JUMP JUMPDEST SWAP4 POP PUSH2 0x334 DUP2 DUP6 PUSH1 0x20 DUP7 ADD PUSH2 0x2E8 JUMP JUMPDEST PUSH2 0x33D DUP2 PUSH2 0x153 JUMP JUMPDEST DUP5 ADD SWAP2 POP POP SWAP3 SWAP2 POP POP JUMP JUMPDEST PUSH0 PUSH1 0x20 DUP3 ADD SWAP1 POP DUP2 DUP2 SUB PUSH0 DUP4 ADD MSTORE PUSH2 0x360 DUP2 DUP5 PUSH2 0x310 JUMP JUMPDEST SWAP1 POP SWAP3 SWAP2 POP POP JUMP JUMPDEST PUSH0 DUP1 PUSH1 0x40 DUP4 DUP6 SUB SLT ISZERO PUSH2 0x37E JUMPI PUSH2 0x37D PUSH2 0x143 JUMP JUMPDEST JUMPDEST PUSH0 DUP4 ADD CALLDATALOAD PUSH8 0xFFFFFFFFFFFFFFFF DUP2 GT ISZERO PUSH2 0x39B JUMPI PUSH2 0x39A PUSH2 0x147 JUMP JUMPDEST JUMPDEST PUSH2 0x3A7 DUP6 DUP3 DUP7 ADD PUSH2 0x25A JUMP JUMPDEST SWAP3 POP POP PUSH1 0x20 DUP4 ADD CALLDATALOAD PUSH8 0xFFFFFFFFFFFFFFFF DUP2 GT ISZERO PUSH2 0x3C8 JUMPI PUSH2 0x3C7 PUSH2 0x147 JUMP JUMPDEST JUMPDEST PUSH2 0x3D4 DUP6 DUP3 DUP7 ADD PUSH2 0x25A JUMP JUMPDEST SWAP2 POP POP SWAP3 POP SWAP3 SWAP1 POP JUMP JUMPDEST PUSH32 0x4E487B7100000000000000000000000000000000000000000000000000000000 PUSH0 MSTORE PUSH1 0x22 PUSH1 0x4 MSTORE PUSH1 0x24 PUSH0 REVERT JUMPDEST PUSH0 PUSH1 0x2 DUP3 DIV SWAP1 POP PUSH1 0x1 DUP3 AND DUP1 PUSH2 0x422 JUMPI PUSH1 0x7F DUP3 AND SWAP2 POP JUMPDEST PUSH1 0x20 DUP3 LT DUP2 SUB PUSH2 0x435 JUMPI PUSH2 0x434 PUSH2 0x3DE JUMP JUMPDEST JUMPDEST POP SWAP2 SWAP1 POP JUMP JUMPDEST PUSH0 DUP2 SWAP1 POP DUP2 PUSH0 MSTORE PUSH1 0x20 PUSH0 KECCAK256 SWAP1 POP SWAP2 SWAP1 POP JUMP JUMPDEST PUSH0 PUSH1 0x20 PUSH1 0x1F DUP4 ADD DIV SWAP1 POP SWAP2 SWAP1 POP JUMP JUMPDEST PUSH0 DUP3 DUP3 SHL SWAP1 POP SWAP3 SWAP2 POP POP JUMP JUMPDEST PUSH0 PUSH1 0x8 DUP4 MUL PUSH2 0x497 PUSH32 0xFFFFFFFFFFFFFFFFFFFFFFFFFFFFFFFFFFFFFFFFFFFFFFFFFFFFFFFFFFFFFFFF DUP3 PUSH2 0x45C JUMP JUMPDEST PUSH2 0x4A1 DUP7 DUP4 PUSH2 0x45C JUMP JUMPDEST SWAP6 POP DUP1 NOT DUP5 AND SWAP4 POP DUP1 DUP7 AND DUP5 OR SWAP3 POP POP POP SWAP4 SWAP3 POP POP POP JUMP JUMPDEST PUSH0 DUP2 SWAP1 POP SWAP2 SWAP1 POP JUMP JUMPDEST PUSH0 DUP2 SWAP1 POP SWAP2 SWAP1 POP JUMP JUMPDEST PUSH0 PUSH2 0x4E5 PUSH2 0x4E0 PUSH2 0x4DB DUP5 PUSH2 0x4B9 JUMP JUMPDEST PUSH2 0x4C2 JUMP JUMPDEST PUSH2 0x4B9 JUMP JUMPDEST SWAP1 POP SWAP2 SWAP1 POP JUMP JUMPDEST PUSH0 DUP2 SWAP1 POP SWAP2 SWAP1 POP JUMP JUMPDEST PUSH2 0x4FE DUP4 PUSH2 0x4CB JUMP JUMPDEST PUSH2 0x512 PUSH2 0x50A DUP3 PUSH2 0x4EC JUMP JUMPDEST DUP5 DUP5 SLOAD PUSH2 0x468 JUMP JUMPDEST DUP3 SSTORE POP POP POP POP JUMP JUMPDEST PUSH0 SWAP1 JUMP JUMPDEST PUSH2 0x526 PUSH2 0x51A JUMP JUMPDEST PUSH2 0x531 DUP2 DUP5 DUP5 PUSH2 0x4F5 JUMP JUMPDEST POP POP POP JUMP JUMPDEST JUMPDEST DUP2 DUP2 LT ISZERO PUSH2 0x554 JUMPI PUSH2 0x549 PUSH0 DUP3 PUSH2 0x51E JUMP JUMPDEST PUSH1 0x1 DUP2 ADD SWAP1 POP PUSH2 0x537 JUMP JUMPDEST POP POP JUMP JUMPDEST PUSH1 0x1F DUP3 GT ISZERO PUSH2 0x599 JUMPI PUSH2 0x56A DUP2 PUSH2 0x43B JUMP JUMPDEST PUSH2 0x573 DUP5 PUSH2 0x44D JUMP JUMPDEST DUP2 ADD PUSH1 0x20 DUP6 LT ISZERO PUSH2 0x582 JUMPI DUP2 SWAP1 POP JUMPDEST PUSH2 0x596 PUSH2 0x58E DUP6 PUSH2 0x44D JUMP JUMPDEST DUP4 ADD DUP3 PUSH2 0x536 JUMP JUMPDEST POP POP JUMPDEST POP POP POP JUMP JUMPDEST PUSH0 DUP3 DUP3 SHR SWAP1 POP SWAP3 SWAP2 POP POP JUMP JUMPDEST PUSH0 PUSH2 0x5B9 PUSH0 NOT DUP5 PUSH1 0x8 MUL PUSH2 0x59E JUMP JUMPDEST NOT DUP1 DUP4 AND SWAP2 POP POP SWAP3 SWAP2 POP POP JUMP JUMPDEST PUSH0 PUSH2 0x5D1 DUP4 DUP4 PUSH2 0x5AA JUMP JUMPDEST SWAP2 POP DUP3 PUSH1 0x2 MUL DUP3 OR SWAP1 POP SWAP3 SWAP2 POP POP JUMP JUMPDEST PUSH2 0x5EA DUP3 PUSH2 0x2CE JUMP JUMPDEST PUSH8 0xFFFFFFFFFFFFFFFF DUP2 GT ISZERO PUSH2 0x603 JUMPI PUSH2 0x602 PUSH2 0x163 JUMP JUMPDEST JUMPDEST PUSH2 0x60D DUP3 SLOAD PUSH2 0x40B JUMP JUMPDEST PUSH2 0x618 DUP3 DUP3 DUP6 PUSH2 0x558 JUMP JUMPDEST PUSH0 PUSH1 0x20 SWAP1 POP PUSH1 0x1F DUP4 GT PUSH1 0x1 DUP2 EQ PUSH2 0x649 JUMPI PUSH0 DUP5 ISZERO PUSH2 0x637 JUMPI DUP3 DUP8 ADD MLOAD SWAP1 POP JUMPDEST PUSH2 0x641 DUP6 DUP3 PUSH2 0x5C6 JUMP JUMPDEST DUP7 SSTORE POP PUSH2 0x6A8 JUMP JUMPDEST PUSH1 0x1F NOT DUP5 AND PUSH2 0x657 DUP7 PUSH2 0x43B JUMP JUMPDEST PUSH0 JUMPDEST DUP3 DUP2 LT ISZERO PUSH2 0x67E JUMPI DUP5 DUP10 ADD MLOAD DUP3 SSTORE PUSH1 0x1 DUP3 ADD SWAP2 POP PUSH1 0x20 DUP6 ADD SWAP5 POP PUSH1 0x20 DUP2 ADD SWAP1 POP PUSH2 0x659 JUMP JUMPDEST DUP7 DUP4 LT ISZERO PUSH2 0x69B JUMPI DUP5 DUP10 ADD MLOAD PUSH2 0x697 PUSH1 0x1F DUP10 AND DUP3 PUSH2 0x5AA JUMP JUMPDEST DUP4 SSTORE POP JUMPDEST PUSH1 0x1 PUSH1 0x2 DUP9 MUL ADD DUP9 SSTORE POP POP POP JUMPDEST POP POP POP POP POP POP JUMP JUMPDEST PUSH0 DUP2 SWAP1 POP SWAP3 SWAP2 POP POP JUMP JUMPDEST PUSH0 PUSH2 0x6C4 DUP3 PUSH2 0x2CE JUMP JUMPDEST PUSH2 0x6CE DUP2 DUP6 PUSH2 0x6B0 JUMP JUMPDEST SWAP4 POP PUSH2 0x6DE DUP2 DUP6 PUSH1 0x20 DUP7 ADD PUSH2 0x2E8 JUMP JUMPDEST DUP1 DUP5 ADD SWAP2 POP POP SWAP3 SWAP2 POP POP JUMP JUMPDEST PUSH0 PUSH2 0x6F5 DUP3 DUP6 PUSH2 0x6BA JUMP JUMPDEST SWAP2 POP PUSH2 0x701 DUP3 DUP5 PUSH2 0x6BA JUMP JUMPDEST SWAP2 POP DUP2 SWAP1 POP SWAP4 SWAP3 POP POP POP JUMP JUMPDEST PUSH0 DUP2 SLOAD PUSH2 0x719 DUP2 PUSH2 0x40B JUMP JUMPDEST PUSH2 0x723 DUP2 DUP7 PUSH2 0x6B0 JUMP JUMPDEST SWAP5 POP PUSH1 0x1 DUP3 AND PUSH0 DUP2 EQ PUSH2 0x73D JUMPI PUSH1 0x1 DUP2 EQ PUSH2 0x752 JUMPI PUSH2 0x784 JUMP JUMPDEST PUSH1 0xFF NOT DUP4 AND DUP7 MSTORE DUP2 ISZERO ISZERO DUP3 MUL DUP7 ADD SWAP4 POP PUSH2 0x784 JUMP JUMPDEST PUSH2 0x75B DUP6 PUSH2 0x43B JUMP JUMPDEST PUSH0 JUMPDEST DUP4 DUP2 LT ISZERO PUSH2 0x77C JUMPI DUP2 SLOAD DUP2 DUP10 ADD MSTORE PUSH1 0x1 DUP3 ADD SWAP2 POP PUSH1 0x20 DUP2 ADD SWAP1 POP PUSH2 0x75D JUMP JUMPDEST DUP4 DUP9 ADD SWAP6 POP POP POP JUMPDEST POP POP POP SWAP3 SWAP2 POP POP JUMP JUMPDEST PUSH0 PUSH2 0x798 DUP3 DUP6 PUSH2 0x70D JUMP JUMPDEST SWAP2 POP PUSH2 0x7A4 DUP3 DUP5 PUSH2 0x6BA JUMP JUMPDEST SWAP2 POP DUP2 SWAP1 POP SWAP4 SWAP3 POP POP POP JUMP INVALID LOG2 PUSH5 0x6970667358 0x22 SLT KECCAK256 0xE4 0xD7 DIV 0xBD CODECOPY 0xAD SWAP11 LOG3 SWAP6 0xE PUSH19 0x79E45F64D72BE8AE5B26EB6A05F26B9409DA6F BALANCE EXTCODEHASH PUSH5 0x736F6C6343 STOP ADDMOD BYTE STOP CALLER "
				},
				"gasEstimates": {
					"creation": {
						"codeDepositCost": "404400",
						"executionCost": "infinite",
						"totalCost": "infinite"
					},
					"external": {
						"fn(string,string)": "infinite",
						"sayHello(string)": "infinite",
						"setHello(string)": "infinite"
					},
					"internal": {
						"sayHello2(string memory)": "infinite"
					}
				},
				"methodIdentifiers": {
					"fn(string,string)": "c817d7b3",
					"sayHello(string)": "c3a9b1c5",
					"setHello(string)": "435ffe94"
				}
			},
			"storageLayout": {
				"storage": [
					{
						"astId": 4,
						"contract": "hello.sol:Hello3Dot0",
						"label": "hello",
						"offset": 0,
						"slot": "0",
						"type": "t_string_storage"
					}
				],
				"types": {
					"t_string_storage": {
						"encoding": "bytes",
						"label": "string",
						"numberOfBytes": "32"
					}
				}
			},
			"userdoc": {
				"kind": "user",
				"methods": {},
				"version": 1
			}
		}
	}
}