{
  "address": "0x8eAbBC228D84183C9282FD56Da48BAF51d32eC9B",
  "abi": [
    {
      "inputs": [
        {
          "internalType": "string",
          "name": "tokenName",
          "type": "string"
        },
        {
          "internalType": "string",
          "name": "tokenSymbol",
          "type": "string"
        }
      ],
      "stateMutability": "nonpayable",
      "type": "constructor"
    },
    {
      "inputs": [],
      "name": "ERC721EnumerableForbiddenBatchMint",
      "type": "error"
    },
    {
      "inputs": [
        {
          "internalType": "address",
          "name": "sender",
          "type": "address"
        },
        {
          "internalType": "uint256",
          "name": "tokenId",
          "type": "uint256"
        },
        {
          "internalType": "address",
          "name": "owner",
          "type": "address"
        }
      ],
      "name": "ERC721IncorrectOwner",
      "type": "error"
    },
    {
      "inputs": [
        {
          "internalType": "address",
          "name": "operator",
          "type": "address"
        },
        {
          "internalType": "uint256",
          "name": "tokenId",
          "type": "uint256"
        }
      ],
      "name": "ERC721InsufficientApproval",
      "type": "error"
    },
    {
      "inputs": [
        {
          "internalType": "address",
          "name": "approver",
          "type": "address"
        }
      ],
      "name": "ERC721InvalidApprover",
      "type": "error"
    },
    {
      "inputs": [
        {
          "internalType": "address",
          "name": "operator",
          "type": "address"
        }
      ],
      "name": "ERC721InvalidOperator",
      "type": "error"
    },
    {
      "inputs": [
        {
          "internalType": "address",
          "name": "owner",
          "type": "address"
        }
      ],
      "name": "ERC721InvalidOwner",
      "type": "error"
    },
    {
      "inputs": [
        {
          "internalType": "address",
          "name": "receiver",
          "type": "address"
        }
      ],
      "name": "ERC721InvalidReceiver",
      "type": "error"
    },
    {
      "inputs": [
        {
          "internalType": "address",
          "name": "sender",
          "type": "address"
        }
      ],
      "name": "ERC721InvalidSender",
      "type": "error"
    },
    {
      "inputs": [
        {
          "internalType": "uint256",
          "name": "tokenId",
          "type": "uint256"
        }
      ],
      "name": "ERC721NonexistentToken",
      "type": "error"
    },
    {
      "inputs": [
        {
          "internalType": "address",
          "name": "owner",
          "type": "address"
        },
        {
          "internalType": "uint256",
          "name": "index",
          "type": "uint256"
        }
      ],
      "name": "ERC721OutOfBoundsIndex",
      "type": "error"
    },
    {
      "inputs": [
        {
          "internalType": "address",
          "name": "owner",
          "type": "address"
        }
      ],
      "name": "OwnableInvalidOwner",
      "type": "error"
    },
    {
      "inputs": [
        {
          "internalType": "address",
          "name": "account",
          "type": "address"
        }
      ],
      "name": "OwnableUnauthorizedAccount",
      "type": "error"
    },
    {
      "anonymous": false,
      "inputs": [
        {
          "indexed": true,
          "internalType": "address",
          "name": "owner",
          "type": "address"
        },
        {
          "indexed": true,
          "internalType": "address",
          "name": "approved",
          "type": "address"
        },
        {
          "indexed": true,
          "internalType": "uint256",
          "name": "tokenId",
          "type": "uint256"
        }
      ],
      "name": "Approval",
      "type": "event"
    },
    {
      "anonymous": false,
      "inputs": [
        {
          "indexed": true,
          "internalType": "address",
          "name": "owner",
          "type": "address"
        },
        {
          "indexed": true,
          "internalType": "address",
          "name": "operator",
          "type": "address"
        },
        {
          "indexed": false,
          "internalType": "bool",
          "name": "approved",
          "type": "bool"
        }
      ],
      "name": "ApprovalForAll",
      "type": "event"
    },
    {
      "anonymous": false,
      "inputs": [
        {
          "indexed": false,
          "internalType": "uint256",
          "name": "_fromTokenId",
          "type": "uint256"
        },
        {
          "indexed": false,
          "internalType": "uint256",
          "name": "_toTokenId",
          "type": "uint256"
        }
      ],
      "name": "BatchMetadataUpdate",
      "type": "event"
    },
    {
      "anonymous": false,
      "inputs": [
        {
          "indexed": false,
          "internalType": "uint256",
          "name": "_tokenId",
          "type": "uint256"
        }
      ],
      "name": "MetadataUpdate",
      "type": "event"
    },
    {
      "anonymous": false,
      "inputs": [
        {
          "indexed": true,
          "internalType": "address",
          "name": "previousOwner",
          "type": "address"
        },
        {
          "indexed": true,
          "internalType": "address",
          "name": "newOwner",
          "type": "address"
        }
      ],
      "name": "OwnershipTransferred",
      "type": "event"
    },
    {
      "anonymous": false,
      "inputs": [
        {
          "indexed": true,
          "internalType": "address",
          "name": "from",
          "type": "address"
        },
        {
          "indexed": true,
          "internalType": "address",
          "name": "to",
          "type": "address"
        },
        {
          "indexed": true,
          "internalType": "uint256",
          "name": "tokenId",
          "type": "uint256"
        }
      ],
      "name": "Transfer",
      "type": "event"
    },
    {
      "inputs": [
        {
          "internalType": "address",
          "name": "to",
          "type": "address"
        },
        {
          "internalType": "uint256",
          "name": "tokenId",
          "type": "uint256"
        }
      ],
      "name": "approve",
      "outputs": [],
      "stateMutability": "nonpayable",
      "type": "function"
    },
    {
      "inputs": [
        {
          "internalType": "address",
          "name": "owner",
          "type": "address"
        }
      ],
      "name": "balanceOf",
      "outputs": [
        {
          "internalType": "uint256",
          "name": "",
          "type": "uint256"
        }
      ],
      "stateMutability": "view",
      "type": "function"
    },
    {
      "inputs": [
        {
          "internalType": "uint256",
          "name": "tokenId",
          "type": "uint256"
        }
      ],
      "name": "burn",
      "outputs": [],
      "stateMutability": "nonpayable",
      "type": "function"
    },
    {
      "inputs": [
        {
          "internalType": "uint256",
          "name": "tokenId",
          "type": "uint256"
        }
      ],
      "name": "getApproved",
      "outputs": [
        {
          "internalType": "address",
          "name": "",
          "type": "address"
        }
      ],
      "stateMutability": "view",
      "type": "function"
    },
    {
      "inputs": [
        {
          "internalType": "address",
          "name": "owner",
          "type": "address"
        },
        {
          "internalType": "address",
          "name": "operator",
          "type": "address"
        }
      ],
      "name": "isApprovedForAll",
      "outputs": [
        {
          "internalType": "bool",
          "name": "",
          "type": "bool"
        }
      ],
      "stateMutability": "view",
      "type": "function"
    },
    {
      "inputs": [
        {
          "internalType": "address",
          "name": "to",
          "type": "address"
        },
        {
          "internalType": "uint256",
          "name": "tokenId",
          "type": "uint256"
        }
      ],
      "name": "mintTokenWithSpecificTokenId",
      "outputs": [],
      "stateMutability": "nonpayable",
      "type": "function"
    },
    {
      "inputs": [],
      "name": "name",
      "outputs": [
        {
          "internalType": "string",
          "name": "",
          "type": "string"
        }
      ],
      "stateMutability": "view",
      "type": "function"
    },
    {
      "inputs": [],
      "name": "owner",
      "outputs": [
        {
          "internalType": "address",
          "name": "",
          "type": "address"
        }
      ],
      "stateMutability": "view",
      "type": "function"
    },
    {
      "inputs": [
        {
          "internalType": "uint256",
          "name": "tokenId",
          "type": "uint256"
        }
      ],
      "name": "ownerOf",
      "outputs": [
        {
          "internalType": "address",
          "name": "",
          "type": "address"
        }
      ],
      "stateMutability": "view",
      "type": "function"
    },
    {
      "inputs": [],
      "name": "renounceOwnership",
      "outputs": [],
      "stateMutability": "nonpayable",
      "type": "function"
    },
    {
      "inputs": [
        {
          "internalType": "address",
          "name": "to",
          "type": "address"
        }
      ],
      "name": "safeMint",
      "outputs": [
        {
          "internalType": "uint256",
          "name": "",
          "type": "uint256"
        }
      ],
      "stateMutability": "nonpayable",
      "type": "function"
    },
    {
      "inputs": [
        {
          "internalType": "address",
          "name": "from",
          "type": "address"
        },
        {
          "internalType": "address",
          "name": "to",
          "type": "address"
        },
        {
          "internalType": "uint256",
          "name": "tokenId",
          "type": "uint256"
        }
      ],
      "name": "safeTransferFrom",
      "outputs": [],
      "stateMutability": "nonpayable",
      "type": "function"
    },
    {
      "inputs": [
        {
          "internalType": "address",
          "name": "from",
          "type": "address"
        },
        {
          "internalType": "address",
          "name": "to",
          "type": "address"
        },
        {
          "internalType": "uint256",
          "name": "tokenId",
          "type": "uint256"
        },
        {
          "internalType": "bytes",
          "name": "data",
          "type": "bytes"
        }
      ],
      "name": "safeTransferFrom",
      "outputs": [],
      "stateMutability": "nonpayable",
      "type": "function"
    },
    {
      "inputs": [
        {
          "internalType": "address",
          "name": "operator",
          "type": "address"
        },
        {
          "internalType": "bool",
          "name": "approved",
          "type": "bool"
        }
      ],
      "name": "setApprovalForAll",
      "outputs": [],
      "stateMutability": "nonpayable",
      "type": "function"
    },
    {
      "inputs": [
        {
          "internalType": "bytes4",
          "name": "interfaceId",
          "type": "bytes4"
        }
      ],
      "name": "supportsInterface",
      "outputs": [
        {
          "internalType": "bool",
          "name": "",
          "type": "bool"
        }
      ],
      "stateMutability": "view",
      "type": "function"
    },
    {
      "inputs": [],
      "name": "symbol",
      "outputs": [
        {
          "internalType": "string",
          "name": "",
          "type": "string"
        }
      ],
      "stateMutability": "view",
      "type": "function"
    },
    {
      "inputs": [
        {
          "internalType": "uint256",
          "name": "index",
          "type": "uint256"
        }
      ],
      "name": "tokenByIndex",
      "outputs": [
        {
          "internalType": "uint256",
          "name": "",
          "type": "uint256"
        }
      ],
      "stateMutability": "view",
      "type": "function"
    },
    {
      "inputs": [
        {
          "internalType": "address",
          "name": "owner",
          "type": "address"
        },
        {
          "internalType": "uint256",
          "name": "index",
          "type": "uint256"
        }
      ],
      "name": "tokenOfOwnerByIndex",
      "outputs": [
        {
          "internalType": "uint256",
          "name": "",
          "type": "uint256"
        }
      ],
      "stateMutability": "view",
      "type": "function"
    },
    {
      "inputs": [
        {
          "internalType": "uint256",
          "name": "tokenId",
          "type": "uint256"
        }
      ],
      "name": "tokenURI",
      "outputs": [
        {
          "internalType": "string",
          "name": "",
          "type": "string"
        }
      ],
      "stateMutability": "view",
      "type": "function"
    },
    {
      "inputs": [],
      "name": "totalSupply",
      "outputs": [
        {
          "internalType": "uint256",
          "name": "",
          "type": "uint256"
        }
      ],
      "stateMutability": "view",
      "type": "function"
    },
    {
      "inputs": [
        {
          "internalType": "address",
          "name": "from",
          "type": "address"
        },
        {
          "internalType": "address",
          "name": "to",
          "type": "address"
        },
        {
          "internalType": "uint256",
          "name": "tokenId",
          "type": "uint256"
        }
      ],
      "name": "transferFrom",
      "outputs": [],
      "stateMutability": "nonpayable",
      "type": "function"
    },
    {
      "inputs": [
        {
          "internalType": "address",
          "name": "newOwner",
          "type": "address"
        }
      ],
      "name": "transferOwnership",
      "outputs": [],
      "stateMutability": "nonpayable",
      "type": "function"
    }
  ],
  "transactionHash": "0xb42a71a4ba3ffe71a59ec98897dff0760f2ef18a77c22bfa0915bf0105066069",
  "args": [
    "WrappedMyToken",
    "WMT"
  ],
  "numDeployments": 1,
  "solcInputHash": "b65a5d3be7dcceac082df75739d481e4",
  "bytecode": "0x60806040523480156200001157600080fd5b50604051620034d7380380620034d783398181016040528101906200003791906200034c565b818133828281600090816200004d91906200061c565b5080600190816200005f91906200061c565b505050600073ffffffffffffffffffffffffffffffffffffffff168173ffffffffffffffffffffffffffffffffffffffff1603620000d75760006040517f1e4fbdf7000000000000000000000000000000000000000000000000000000008152600401620000ce919062000748565b60405180910390fd5b620000e881620000f360201b60201c565b505050505062000765565b6000600b60009054906101000a900473ffffffffffffffffffffffffffffffffffffffff16905081600b60006101000a81548173ffffffffffffffffffffffffffffffffffffffff021916908373ffffffffffffffffffffffffffffffffffffffff1602179055508173ffffffffffffffffffffffffffffffffffffffff168173ffffffffffffffffffffffffffffffffffffffff167f8be0079c531659141344cd1fd0a4f28419497f9722a3daafe3b4186f6b6457e060405160405180910390a35050565b6000604051905090565b600080fd5b600080fd5b600080fd5b600080fd5b6000601f19601f8301169050919050565b7f4e487b7100000000000000000000000000000000000000000000000000000000600052604160045260246000fd5b6200022282620001d7565b810181811067ffffffffffffffff82111715620002445762000243620001e8565b5b80604052505050565b600062000259620001b9565b905062000267828262000217565b919050565b600067ffffffffffffffff8211156200028a5762000289620001e8565b5b6200029582620001d7565b9050602081019050919050565b60005b83811015620002c2578082015181840152602081019050620002a5565b60008484015250505050565b6000620002e5620002df846200026c565b6200024d565b905082815260208101848484011115620003045762000303620001d2565b5b62000311848285620002a2565b509392505050565b600082601f830112620003315762000330620001cd565b5b815162000343848260208601620002ce565b91505092915050565b60008060408385031215620003665762000365620001c3565b5b600083015167ffffffffffffffff811115620003875762000386620001c8565b5b620003958582860162000319565b925050602083015167ffffffffffffffff811115620003b957620003b8620001c8565b5b620003c78582860162000319565b9150509250929050565b600081519050919050565b7f4e487b7100000000000000000000000000000000000000000000000000000000600052602260045260246000fd5b600060028204905060018216806200042457607f821691505b6020821081036200043a5762000439620003dc565b5b50919050565b60008190508160005260206000209050919050565b60006020601f8301049050919050565b600082821b905092915050565b600060088302620004a47fffffffffffffffffffffffffffffffffffffffffffffffffffffffffffffffff8262000465565b620004b0868362000465565b95508019841693508086168417925050509392505050565b6000819050919050565b6000819050919050565b6000620004fd620004f7620004f184620004c8565b620004d2565b620004c8565b9050919050565b6000819050919050565b6200051983620004dc565b62000531620005288262000504565b84845462000472565b825550505050565b600090565b6200054862000539565b620005558184846200050e565b505050565b5b818110156200057d57620005716000826200053e565b6001810190506200055b565b5050565b601f821115620005cc57620005968162000440565b620005a18462000455565b81016020851015620005b1578190505b620005c9620005c08562000455565b8301826200055a565b50505b505050565b600082821c905092915050565b6000620005f160001984600802620005d1565b1980831691505092915050565b60006200060c8383620005de565b9150826002028217905092915050565b6200062782620003d1565b67ffffffffffffffff811115620006435762000642620001e8565b5b6200064f82546200040b565b6200065c82828562000581565b600060209050601f8311600181146200069457600084156200067f578287015190505b6200068b8582620005fe565b865550620006fb565b601f198416620006a48662000440565b60005b82811015620006ce57848901518255600182019150602085019450602081019050620006a7565b86831015620006ee5784890151620006ea601f891682620005de565b8355505b6001600288020188555050505b505050505050565b600073ffffffffffffffffffffffffffffffffffffffff82169050919050565b6000620007308262000703565b9050919050565b620007428162000723565b82525050565b60006020820190506200075f600083018462000737565b92915050565b612d6280620007756000396000f3fe608060405234801561001057600080fd5b50600436106101425760003560e01c80636352211e116100b857806395d89b411161007c57806395d89b4114610387578063a22cb465146103a5578063b88d4fde146103c1578063c87b56dd146103dd578063e985e9c51461040d578063f2fde38b1461043d57610142565b80636352211e146102e357806370a0823114610313578063715018a6146103435780638a7fea821461034d5780638da5cb5b1461036957610142565b806323b872dd1161010a57806323b872dd146101ff5780632f745c591461021b57806340d097c31461024b57806342842e0e1461027b57806342966c68146102975780634f6ccce7146102b357610142565b806301ffc9a71461014757806306fdde0314610177578063081812fc14610195578063095ea7b3146101c557806318160ddd146101e1575b600080fd5b610161600480360381019061015c91906121f0565b610459565b60405161016e9190612238565b60405180910390f35b61017f61046b565b60405161018c91906122e3565b60405180910390f35b6101af60048036038101906101aa919061233b565b6104fd565b6040516101bc91906123a9565b60405180910390f35b6101df60048036038101906101da91906123f0565b610519565b005b6101e961052f565b6040516101f6919061243f565b60405180910390f35b6102196004803603810190610214919061245a565b61053c565b005b610235600480360381019061023091906123f0565b61063e565b604051610242919061243f565b60405180910390f35b610265600480360381019061026091906124ad565b6106e7565b604051610272919061243f565b60405180910390f35b6102956004803603810190610290919061245a565b610738565b005b6102b160048036038101906102ac919061233b565b610758565b005b6102cd60048036038101906102c8919061233b565b61076f565b6040516102da919061243f565b60405180910390f35b6102fd60048036038101906102f8919061233b565b6107e5565b60405161030a91906123a9565b60405180910390f35b61032d600480360381019061032891906124ad565b6107f7565b60405161033a919061243f565b60405180910390f35b61034b6108b1565b005b610367600480360381019061036291906123f0565b6108c5565b005b6103716108d3565b60405161037e91906123a9565b60405180910390f35b61038f6108fd565b60405161039c91906122e3565b60405180910390f35b6103bf60048036038101906103ba9190612506565b61098f565b005b6103db60048036038101906103d6919061267b565b6109a5565b005b6103f760048036038101906103f2919061233b565b6109c2565b60405161040491906122e3565b60405180910390f35b610427600480360381019061042291906126fe565b6109d4565b6040516104349190612238565b60405180910390f35b610457600480360381019061045291906124ad565b610a68565b005b600061046482610aee565b9050919050565b60606000805461047a9061276d565b80601f01602080910402602001604051908101604052809291908181526020018280546104a69061276d565b80156104f35780601f106104c8576101008083540402835291602001916104f3565b820191906000526020600020905b8154815290600101906020018083116104d657829003601f168201915b5050505050905090565b600061050882610b4f565b5061051282610bd7565b9050919050565b61052b8282610526610c14565b610c1c565b5050565b6000600880549050905090565b600073ffffffffffffffffffffffffffffffffffffffff168273ffffffffffffffffffffffffffffffffffffffff16036105ae5760006040517f64a0ae920000000000000000000000000000000000000000000000000000000081526004016105a591906123a9565b60405180910390fd5b60006105c283836105bd610c14565b610c2e565b90508373ffffffffffffffffffffffffffffffffffffffff168173ffffffffffffffffffffffffffffffffffffffff1614610638578382826040517f64283d7b00000000000000000000000000000000000000000000000000000000815260040161062f9392919061279e565b60405180910390fd5b50505050565b6000610649836107f7565b821061068e5782826040517fa57d13dc0000000000000000000000000000000000000000000000000000000081526004016106859291906127d5565b60405180910390fd5b600660008473ffffffffffffffffffffffffffffffffffffffff1673ffffffffffffffffffffffffffffffffffffffff168152602001908152602001600020600083815260200190815260200160002054905092915050565b600080600c60008154809291906106fd9061282d565b91905055905061070d8382610c44565b61072f81604051806060016040528060358152602001612cf860359139610c62565b80915050919050565b610753838383604051806020016040528060008152506109a5565b505050565b61076b600082610766610c14565b610c2e565b5050565b600061077961052f565b82106107bf576000826040517fa57d13dc0000000000000000000000000000000000000000000000000000000081526004016107b69291906127d5565b60405180910390fd5b600882815481106107d3576107d2612875565b5b90600052602060002001549050919050565b60006107f082610b4f565b9050919050565b60008073ffffffffffffffffffffffffffffffffffffffff168273ffffffffffffffffffffffffffffffffffffffff160361086a5760006040517f89c62b6400000000000000000000000000000000000000000000000000000000815260040161086191906123a9565b60405180910390fd5b600360008373ffffffffffffffffffffffffffffffffffffffff1673ffffffffffffffffffffffffffffffffffffffff168152602001908152602001600020549050919050565b6108b9610cbe565b6108c36000610d45565b565b6108cf8282610c44565b5050565b6000600b60009054906101000a900473ffffffffffffffffffffffffffffffffffffffff16905090565b60606001805461090c9061276d565b80601f01602080910402602001604051908101604052809291908181526020018280546109389061276d565b80156109855780601f1061095a57610100808354040283529160200191610985565b820191906000526020600020905b81548152906001019060200180831161096857829003601f168201915b5050505050905090565b6109a161099a610c14565b8383610e0b565b5050565b6109b084848461053c565b6109bc84848484610f7a565b50505050565b60606109cd82611131565b9050919050565b6000600560008473ffffffffffffffffffffffffffffffffffffffff1673ffffffffffffffffffffffffffffffffffffffff16815260200190815260200160002060008373ffffffffffffffffffffffffffffffffffffffff1673ffffffffffffffffffffffffffffffffffffffff16815260200190815260200160002060009054906101000a900460ff16905092915050565b610a70610cbe565b600073ffffffffffffffffffffffffffffffffffffffff168173ffffffffffffffffffffffffffffffffffffffff1603610ae25760006040517f1e4fbdf7000000000000000000000000000000000000000000000000000000008152600401610ad991906123a9565b60405180910390fd5b610aeb81610d45565b50565b6000634906490660e01b7bffffffffffffffffffffffffffffffffffffffffffffffffffffffff1916827bffffffffffffffffffffffffffffffffffffffffffffffffffffffff19161480610b485750610b4782611244565b5b9050919050565b600080610b5b836112be565b9050600073ffffffffffffffffffffffffffffffffffffffff168173ffffffffffffffffffffffffffffffffffffffff1603610bce57826040517f7e273289000000000000000000000000000000000000000000000000000000008152600401610bc5919061243f565b60405180910390fd5b80915050919050565b60006004600083815260200190815260200160002060009054906101000a900473ffffffffffffffffffffffffffffffffffffffff169050919050565b600033905090565b610c2983838360016112fb565b505050565b6000610c3b8484846114c0565b90509392505050565b610c5e8282604051806020016040528060008152506115dd565b5050565b80600a60008481526020019081526020016000209081610c829190612a50565b507ff8e1a15aba9398e019f0b49df1a4fde98ee17ae345cb5f6b5e2c27f5033e8ce782604051610cb2919061243f565b60405180910390a15050565b610cc6610c14565b73ffffffffffffffffffffffffffffffffffffffff16610ce46108d3565b73ffffffffffffffffffffffffffffffffffffffff1614610d4357610d07610c14565b6040517f118cdaa7000000000000000000000000000000000000000000000000000000008152600401610d3a91906123a9565b60405180910390fd5b565b6000600b60009054906101000a900473ffffffffffffffffffffffffffffffffffffffff16905081600b60006101000a81548173ffffffffffffffffffffffffffffffffffffffff021916908373ffffffffffffffffffffffffffffffffffffffff1602179055508173ffffffffffffffffffffffffffffffffffffffff168173ffffffffffffffffffffffffffffffffffffffff167f8be0079c531659141344cd1fd0a4f28419497f9722a3daafe3b4186f6b6457e060405160405180910390a35050565b600073ffffffffffffffffffffffffffffffffffffffff168273ffffffffffffffffffffffffffffffffffffffff1603610e7c57816040517f5b08ba18000000000000000000000000000000000000000000000000000000008152600401610e7391906123a9565b60405180910390fd5b80600560008573ffffffffffffffffffffffffffffffffffffffff1673ffffffffffffffffffffffffffffffffffffffff16815260200190815260200160002060008473ffffffffffffffffffffffffffffffffffffffff1673ffffffffffffffffffffffffffffffffffffffff16815260200190815260200160002060006101000a81548160ff0219169083151502179055508173ffffffffffffffffffffffffffffffffffffffff168373ffffffffffffffffffffffffffffffffffffffff167f17307eab39ab6107e8899845ad3d59bd9653f200f220920489ca2b5937696c3183604051610f6d9190612238565b60405180910390a3505050565b60008373ffffffffffffffffffffffffffffffffffffffff163b111561112b578273ffffffffffffffffffffffffffffffffffffffff1663150b7a02610fbe610c14565b8685856040518563ffffffff1660e01b8152600401610fe09493929190612b77565b6020604051808303816000875af192505050801561101c57506040513d601f19601f820116820180604052508101906110199190612bd8565b60015b6110a0573d806000811461104c576040519150601f19603f3d011682016040523d82523d6000602084013e611051565b606091505b50600081510361109857836040517f64a0ae9200000000000000000000000000000000000000000000000000000000815260040161108f91906123a9565b60405180910390fd5b805181602001fd5b63150b7a0260e01b7bffffffffffffffffffffffffffffffffffffffffffffffffffffffff1916817bffffffffffffffffffffffffffffffffffffffffffffffffffffffff19161461112957836040517f64a0ae9200000000000000000000000000000000000000000000000000000000815260040161112091906123a9565b60405180910390fd5b505b50505050565b606061113c82610b4f565b506000600a6000848152602001908152602001600020805461115d9061276d565b80601f01602080910402602001604051908101604052809291908181526020018280546111899061276d565b80156111d65780601f106111ab576101008083540402835291602001916111d6565b820191906000526020600020905b8154815290600101906020018083116111b957829003601f168201915b5050505050905060006111e76115f9565b905060008151036111fc57819250505061123f565b600082511115611231578082604051602001611219929190612c41565b6040516020818303038152906040529250505061123f565b61123a84611610565b925050505b919050565b60007f780e9d63000000000000000000000000000000000000000000000000000000007bffffffffffffffffffffffffffffffffffffffffffffffffffffffff1916827bffffffffffffffffffffffffffffffffffffffffffffffffffffffff191614806112b757506112b682611679565b5b9050919050565b60006002600083815260200190815260200160002060009054906101000a900473ffffffffffffffffffffffffffffffffffffffff169050919050565b80806113345750600073ffffffffffffffffffffffffffffffffffffffff168273ffffffffffffffffffffffffffffffffffffffff1614155b1561146857600061134484610b4f565b9050600073ffffffffffffffffffffffffffffffffffffffff168373ffffffffffffffffffffffffffffffffffffffff16141580156113af57508273ffffffffffffffffffffffffffffffffffffffff168173ffffffffffffffffffffffffffffffffffffffff1614155b80156113c257506113c081846109d4565b155b1561140457826040517fa9fbf51f0000000000000000000000000000000000000000000000000000000081526004016113fb91906123a9565b60405180910390fd5b811561146657838573ffffffffffffffffffffffffffffffffffffffff168273ffffffffffffffffffffffffffffffffffffffff167f8c5be1e5ebec7d5bd14f71427d1e84f3dd0314c0f7b2291e5b200ac8c7c3b92560405160405180910390a45b505b836004600085815260200190815260200160002060006101000a81548173ffffffffffffffffffffffffffffffffffffffff021916908373ffffffffffffffffffffffffffffffffffffffff16021790555050505050565b6000806114ce85858561175b565b9050600073ffffffffffffffffffffffffffffffffffffffff168173ffffffffffffffffffffffffffffffffffffffff16036115125761150d84611975565b611551565b8473ffffffffffffffffffffffffffffffffffffffff168173ffffffffffffffffffffffffffffffffffffffff16146115505761154f81856119be565b5b5b600073ffffffffffffffffffffffffffffffffffffffff168573ffffffffffffffffffffffffffffffffffffffff16036115935761158e84611b1f565b6115d2565b8473ffffffffffffffffffffffffffffffffffffffff168173ffffffffffffffffffffffffffffffffffffffff16146115d1576115d08585611bf0565b5b5b809150509392505050565b6115e78383611c7b565b6115f46000848484610f7a565b505050565b606060405180602001604052806000815250905090565b606061161b82610b4f565b5060006116266115f9565b905060008151116116465760405180602001604052806000815250611671565b8061165084611d74565b604051602001611661929190612c41565b6040516020818303038152906040525b915050919050565b60007f80ac58cd000000000000000000000000000000000000000000000000000000007bffffffffffffffffffffffffffffffffffffffffffffffffffffffff1916827bffffffffffffffffffffffffffffffffffffffffffffffffffffffff1916148061174457507f5b5e139f000000000000000000000000000000000000000000000000000000007bffffffffffffffffffffffffffffffffffffffffffffffffffffffff1916827bffffffffffffffffffffffffffffffffffffffffffffffffffffffff1916145b80611754575061175382611e42565b5b9050919050565b600080611767846112be565b9050600073ffffffffffffffffffffffffffffffffffffffff168373ffffffffffffffffffffffffffffffffffffffff16146117a9576117a8818486611eac565b5b600073ffffffffffffffffffffffffffffffffffffffff168173ffffffffffffffffffffffffffffffffffffffff161461183a576117eb6000856000806112fb565b6001600360008373ffffffffffffffffffffffffffffffffffffffff1673ffffffffffffffffffffffffffffffffffffffff168152602001908152602001600020600082825403925050819055505b600073ffffffffffffffffffffffffffffffffffffffff168573ffffffffffffffffffffffffffffffffffffffff16146118bd576001600360008773ffffffffffffffffffffffffffffffffffffffff1673ffffffffffffffffffffffffffffffffffffffff168152602001908152602001600020600082825401925050819055505b846002600086815260200190815260200160002060006101000a81548173ffffffffffffffffffffffffffffffffffffffff021916908373ffffffffffffffffffffffffffffffffffffffff160217905550838573ffffffffffffffffffffffffffffffffffffffff168273ffffffffffffffffffffffffffffffffffffffff167fddf252ad1be2c89b69c2b068fc378daa952ba7f163c4a11628f55a4df523b3ef60405160405180910390a4809150509392505050565b6008805490506009600083815260200190815260200160002081905550600881908060018154018082558091505060019003906000526020600020016000909190919091505550565b60006119c9836107f7565b9050600060076000848152602001908152602001600020549050818114611aae576000600660008673ffffffffffffffffffffffffffffffffffffffff1673ffffffffffffffffffffffffffffffffffffffff168152602001908152602001600020600084815260200190815260200160002054905080600660008773ffffffffffffffffffffffffffffffffffffffff1673ffffffffffffffffffffffffffffffffffffffff168152602001908152602001600020600084815260200190815260200160002081905550816007600083815260200190815260200160002081905550505b6007600084815260200190815260200160002060009055600660008573ffffffffffffffffffffffffffffffffffffffff1673ffffffffffffffffffffffffffffffffffffffff16815260200190815260200160002060008381526020019081526020016000206000905550505050565b60006001600880549050611b339190612c65565b9050600060096000848152602001908152602001600020549050600060088381548110611b6357611b62612875565b5b906000526020600020015490508060088381548110611b8557611b84612875565b5b906000526020600020018190555081600960008381526020019081526020016000208190555060096000858152602001908152602001600020600090556008805480611bd457611bd3612c99565b5b6001900381819060005260206000200160009055905550505050565b60006001611bfd846107f7565b611c079190612c65565b905081600660008573ffffffffffffffffffffffffffffffffffffffff1673ffffffffffffffffffffffffffffffffffffffff168152602001908152602001600020600083815260200190815260200160002081905550806007600084815260200190815260200160002081905550505050565b600073ffffffffffffffffffffffffffffffffffffffff168273ffffffffffffffffffffffffffffffffffffffff1603611ced5760006040517f64a0ae92000000000000000000000000000000000000000000000000000000008152600401611ce491906123a9565b60405180910390fd5b6000611cfb83836000610c2e565b9050600073ffffffffffffffffffffffffffffffffffffffff168173ffffffffffffffffffffffffffffffffffffffff1614611d6f5760006040517f73c6ac6e000000000000000000000000000000000000000000000000000000008152600401611d6691906123a9565b60405180910390fd5b505050565b606060006001611d8384611f70565b01905060008167ffffffffffffffff811115611da257611da1612550565b5b6040519080825280601f01601f191660200182016040528015611dd45781602001600182028036833780820191505090505b509050600082602001820190505b600115611e37578080600190039150507f3031323334353637383961626364656600000000000000000000000000000000600a86061a8153600a8581611e2b57611e2a612cc8565b5b04945060008503611de2575b819350505050919050565b60007f01ffc9a7000000000000000000000000000000000000000000000000000000007bffffffffffffffffffffffffffffffffffffffffffffffffffffffff1916827bffffffffffffffffffffffffffffffffffffffffffffffffffffffff1916149050919050565b611eb78383836120c3565b611f6b57600073ffffffffffffffffffffffffffffffffffffffff168373ffffffffffffffffffffffffffffffffffffffff1603611f2c57806040517f7e273289000000000000000000000000000000000000000000000000000000008152600401611f23919061243f565b60405180910390fd5b81816040517f177e802f000000000000000000000000000000000000000000000000000000008152600401611f629291906127d5565b60405180910390fd5b505050565b600080600090507a184f03e93ff9f4daa797ed6e38ed64bf6a1f0100000000000000008310611fce577a184f03e93ff9f4daa797ed6e38ed64bf6a1f0100000000000000008381611fc457611fc3612cc8565b5b0492506040810190505b6d04ee2d6d415b85acef8100000000831061200b576d04ee2d6d415b85acef8100000000838161200157612000612cc8565b5b0492506020810190505b662386f26fc10000831061203a57662386f26fc1000083816120305761202f612cc8565b5b0492506010810190505b6305f5e1008310612063576305f5e100838161205957612058612cc8565b5b0492506008810190505b612710831061208857612710838161207e5761207d612cc8565b5b0492506004810190505b606483106120ab57606483816120a1576120a0612cc8565b5b0492506002810190505b600a83106120ba576001810190505b80915050919050565b60008073ffffffffffffffffffffffffffffffffffffffff168373ffffffffffffffffffffffffffffffffffffffff161415801561217b57508273ffffffffffffffffffffffffffffffffffffffff168473ffffffffffffffffffffffffffffffffffffffff16148061213c575061213b84846109d4565b5b8061217a57508273ffffffffffffffffffffffffffffffffffffffff1661216283610bd7565b73ffffffffffffffffffffffffffffffffffffffff16145b5b90509392505050565b6000604051905090565b600080fd5b600080fd5b60007fffffffff0000000000000000000000000000000000000000000000000000000082169050919050565b6121cd81612198565b81146121d857600080fd5b50565b6000813590506121ea816121c4565b92915050565b6000602082840312156122065761220561218e565b5b6000612214848285016121db565b91505092915050565b60008115159050919050565b6122328161221d565b82525050565b600060208201905061224d6000830184612229565b92915050565b600081519050919050565b600082825260208201905092915050565b60005b8381101561228d578082015181840152602081019050612272565b60008484015250505050565b6000601f19601f8301169050919050565b60006122b582612253565b6122bf818561225e565b93506122cf81856020860161226f565b6122d881612299565b840191505092915050565b600060208201905081810360008301526122fd81846122aa565b905092915050565b6000819050919050565b61231881612305565b811461232357600080fd5b50565b6000813590506123358161230f565b92915050565b6000602082840312156123515761235061218e565b5b600061235f84828501612326565b91505092915050565b600073ffffffffffffffffffffffffffffffffffffffff82169050919050565b600061239382612368565b9050919050565b6123a381612388565b82525050565b60006020820190506123be600083018461239a565b92915050565b6123cd81612388565b81146123d857600080fd5b50565b6000813590506123ea816123c4565b92915050565b600080604083850312156124075761240661218e565b5b6000612415858286016123db565b925050602061242685828601612326565b9150509250929050565b61243981612305565b82525050565b60006020820190506124546000830184612430565b92915050565b6000806000606084860312156124735761247261218e565b5b6000612481868287016123db565b9350506020612492868287016123db565b92505060406124a386828701612326565b9150509250925092565b6000602082840312156124c3576124c261218e565b5b60006124d1848285016123db565b91505092915050565b6124e38161221d565b81146124ee57600080fd5b50565b600081359050612500816124da565b92915050565b6000806040838503121561251d5761251c61218e565b5b600061252b858286016123db565b925050602061253c858286016124f1565b9150509250929050565b600080fd5b600080fd5b7f4e487b7100000000000000000000000000000000000000000000000000000000600052604160045260246000fd5b61258882612299565b810181811067ffffffffffffffff821117156125a7576125a6612550565b5b80604052505050565b60006125ba612184565b90506125c6828261257f565b919050565b600067ffffffffffffffff8211156125e6576125e5612550565b5b6125ef82612299565b9050602081019050919050565b82818337600083830152505050565b600061261e612619846125cb565b6125b0565b90508281526020810184848401111561263a5761263961254b565b5b6126458482856125fc565b509392505050565b600082601f83011261266257612661612546565b5b813561267284826020860161260b565b91505092915050565b600080600080608085870312156126955761269461218e565b5b60006126a3878288016123db565b94505060206126b4878288016123db565b93505060406126c587828801612326565b925050606085013567ffffffffffffffff8111156126e6576126e5612193565b5b6126f28782880161264d565b91505092959194509250565b600080604083850312156127155761271461218e565b5b6000612723858286016123db565b9250506020612734858286016123db565b9150509250929050565b7f4e487b7100000000000000000000000000000000000000000000000000000000600052602260045260246000fd5b6000600282049050600182168061278557607f821691505b6020821081036127985761279761273e565b5b50919050565b60006060820190506127b3600083018661239a565b6127c06020830185612430565b6127cd604083018461239a565b949350505050565b60006040820190506127ea600083018561239a565b6127f76020830184612430565b9392505050565b7f4e487b7100000000000000000000000000000000000000000000000000000000600052601160045260246000fd5b600061283882612305565b91507fffffffffffffffffffffffffffffffffffffffffffffffffffffffffffffffff820361286a576128696127fe565b5b600182019050919050565b7f4e487b7100000000000000000000000000000000000000000000000000000000600052603260045260246000fd5b60008190508160005260206000209050919050565b60006020601f8301049050919050565b600082821b905092915050565b6000600883026129067fffffffffffffffffffffffffffffffffffffffffffffffffffffffffffffffff826128c9565b61291086836128c9565b95508019841693508086168417925050509392505050565b6000819050919050565b600061294d61294861294384612305565b612928565b612305565b9050919050565b6000819050919050565b61296783612932565b61297b61297382612954565b8484546128d6565b825550505050565b600090565b612990612983565b61299b81848461295e565b505050565b5b818110156129bf576129b4600082612988565b6001810190506129a1565b5050565b601f821115612a04576129d5816128a4565b6129de846128b9565b810160208510156129ed578190505b612a016129f9856128b9565b8301826129a0565b50505b505050565b600082821c905092915050565b6000612a2760001984600802612a09565b1980831691505092915050565b6000612a408383612a16565b9150826002028217905092915050565b612a5982612253565b67ffffffffffffffff811115612a7257612a71612550565b5b612a7c825461276d565b612a878282856129c3565b600060209050601f831160018114612aba5760008415612aa8578287015190505b612ab28582612a34565b865550612b1a565b601f198416612ac8866128a4565b60005b82811015612af057848901518255600182019150602085019450602081019050612acb565b86831015612b0d5784890151612b09601f891682612a16565b8355505b6001600288020188555050505b505050505050565b600081519050919050565b600082825260208201905092915050565b6000612b4982612b22565b612b538185612b2d565b9350612b6381856020860161226f565b612b6c81612299565b840191505092915050565b6000608082019050612b8c600083018761239a565b612b99602083018661239a565b612ba66040830185612430565b8181036060830152612bb88184612b3e565b905095945050505050565b600081519050612bd2816121c4565b92915050565b600060208284031215612bee57612bed61218e565b5b6000612bfc84828501612bc3565b91505092915050565b600081905092915050565b6000612c1b82612253565b612c258185612c05565b9350612c3581856020860161226f565b80840191505092915050565b6000612c4d8285612c10565b9150612c598284612c10565b91508190509392505050565b6000612c7082612305565b9150612c7b83612305565b9250828203905081811115612c9357612c926127fe565b5b92915050565b7f4e487b7100000000000000000000000000000000000000000000000000000000600052603160045260246000fd5b7f4e487b7100000000000000000000000000000000000000000000000000000000600052601260045260246000fdfe697066733a2f2f516d594a4a50777539767954576231664d3438584c5255726e564432674a76476231726f4e41456958397a6e3252a2646970667358221220d1d3f4cf5f61a6b5e65199cd1a3846fe0727d90854c8e8eec3dc625bb6e920ad64736f6c63430008180033",
  "devdoc": {
    "errors": {
      "ERC721EnumerableForbiddenBatchMint()": [
        {
          "details": "Batch mint is not allowed."
        }
      ],
      "ERC721IncorrectOwner(address,uint256,address)": [
        {
          "details": "Indicates an error related to the ownership over a particular token. Used in transfers.",
          "params": {
            "owner": "Address of the current owner of a token.",
            "sender": "Address whose tokens are being transferred.",
            "tokenId": "Identifier number of a token."
          }
        }
      ],
      "ERC721InsufficientApproval(address,uint256)": [
        {
          "details": "Indicates a failure with the `operator`s approval. Used in transfers.",
          "params": {
            "operator": "Address that may be allowed to operate on tokens without being their owner.",
            "tokenId": "Identifier number of a token."
          }
        }
      ],
      "ERC721InvalidApprover(address)": [
        {
          "details": "Indicates a failure with the `approver` of a token to be approved. Used in approvals.",
          "params": {
            "approver": "Address initiating an approval operation."
          }
        }
      ],
      "ERC721InvalidOperator(address)": [
        {
          "details": "Indicates a failure with the `operator` to be approved. Used in approvals.",
          "params": {
            "operator": "Address that may be allowed to operate on tokens without being their owner."
          }
        }
      ],
      "ERC721InvalidOwner(address)": [
        {
          "details": "Indicates that an address can't be an owner. For example, `address(0)` is a forbidden owner in EIP-20. Used in balance queries.",
          "params": {
            "owner": "Address of the current owner of a token."
          }
        }
      ],
      "ERC721InvalidReceiver(address)": [
        {
          "details": "Indicates a failure with the token `receiver`. Used in transfers.",
          "params": {
            "receiver": "Address to which tokens are being transferred."
          }
        }
      ],
      "ERC721InvalidSender(address)": [
        {
          "details": "Indicates a failure with the token `sender`. Used in transfers.",
          "params": {
            "sender": "Address whose tokens are being transferred."
          }
        }
      ],
      "ERC721NonexistentToken(uint256)": [
        {
          "details": "Indicates a `tokenId` whose `owner` is the zero address.",
          "params": {
            "tokenId": "Identifier number of a token."
          }
        }
      ],
      "ERC721OutOfBoundsIndex(address,uint256)": [
        {
          "details": "An `owner`'s token query was out of bounds for `index`. NOTE: The owner being `address(0)` indicates a global out of bounds index."
        }
      ],
      "OwnableInvalidOwner(address)": [
        {
          "details": "The owner is not a valid owner account. (eg. `address(0)`)"
        }
      ],
      "OwnableUnauthorizedAccount(address)": [
        {
          "details": "The caller account is not authorized to perform an operation."
        }
      ]
    },
    "events": {
      "Approval(address,address,uint256)": {
        "details": "Emitted when `owner` enables `approved` to manage the `tokenId` token."
      },
      "ApprovalForAll(address,address,bool)": {
        "details": "Emitted when `owner` enables or disables (`approved`) `operator` to manage all of its assets."
      },
      "BatchMetadataUpdate(uint256,uint256)": {
        "details": "This event emits when the metadata of a range of tokens is changed. So that the third-party platforms such as NFT market could timely update the images and related attributes of the NFTs."
      },
      "MetadataUpdate(uint256)": {
        "details": "This event emits when the metadata of a token is changed. So that the third-party platforms such as NFT market could timely update the images and related attributes of the NFT."
      },
      "Transfer(address,address,uint256)": {
        "details": "Emitted when `tokenId` token is transferred from `from` to `to`."
      }
    },
    "kind": "dev",
    "methods": {
      "approve(address,uint256)": {
        "details": "See {IERC721-approve}."
      },
      "balanceOf(address)": {
        "details": "See {IERC721-balanceOf}."
      },
      "burn(uint256)": {
        "details": "Burns `tokenId`. See {ERC721-_burn}. Requirements: - The caller must own `tokenId` or be an approved operator."
      },
      "getApproved(uint256)": {
        "details": "See {IERC721-getApproved}."
      },
      "isApprovedForAll(address,address)": {
        "details": "See {IERC721-isApprovedForAll}."
      },
      "name()": {
        "details": "See {IERC721Metadata-name}."
      },
      "owner()": {
        "details": "Returns the address of the current owner."
      },
      "ownerOf(uint256)": {
        "details": "See {IERC721-ownerOf}."
      },
      "renounceOwnership()": {
        "details": "Leaves the contract without owner. It will not be possible to call `onlyOwner` functions. Can only be called by the current owner. NOTE: Renouncing ownership will leave the contract without an owner, thereby disabling any functionality that is only available to the owner."
      },
      "safeTransferFrom(address,address,uint256)": {
        "details": "See {IERC721-safeTransferFrom}."
      },
      "safeTransferFrom(address,address,uint256,bytes)": {
        "details": "See {IERC721-safeTransferFrom}."
      },
      "setApprovalForAll(address,bool)": {
        "details": "See {IERC721-setApprovalForAll}."
      },
      "symbol()": {
        "details": "See {IERC721Metadata-symbol}."
      },
      "tokenByIndex(uint256)": {
        "details": "See {IERC721Enumerable-tokenByIndex}."
      },
      "tokenOfOwnerByIndex(address,uint256)": {
        "details": "See {IERC721Enumerable-tokenOfOwnerByIndex}."
      },
      "totalSupply()": {
        "details": "See {IERC721Enumerable-totalSupply}."
      },
      "transferFrom(address,address,uint256)": {
        "details": "See {IERC721-transferFrom}."
      },
      "transferOwnership(address)": {
        "details": "Transfers ownership of the contract to a new account (`newOwner`). Can only be called by the current owner."
      }
    },
    "version": 1
  },
  "userdoc": {
    "kind": "user",
    "methods": {},
    "version": 1
  },
  "storageLayout": {
    "storage": [
      {
        "astId": 5309,
        "contract": "contracts/WrappedMyToken.sol:WrappedMyToken",
        "label": "_name",
        "offset": 0,
        "slot": "0",
        "type": "t_string_storage"
      },
      {
        "astId": 5311,
        "contract": "contracts/WrappedMyToken.sol:WrappedMyToken",
        "label": "_symbol",
        "offset": 0,
        "slot": "1",
        "type": "t_string_storage"
      },
      {
        "astId": 5315,
        "contract": "contracts/WrappedMyToken.sol:WrappedMyToken",
        "label": "_owners",
        "offset": 0,
        "slot": "2",
        "type": "t_mapping(t_uint256,t_address)"
      },
      {
        "astId": 5319,
        "contract": "contracts/WrappedMyToken.sol:WrappedMyToken",
        "label": "_balances",
        "offset": 0,
        "slot": "3",
        "type": "t_mapping(t_address,t_uint256)"
      },
      {
        "astId": 5323,
        "contract": "contracts/WrappedMyToken.sol:WrappedMyToken",
        "label": "_tokenApprovals",
        "offset": 0,
        "slot": "4",
        "type": "t_mapping(t_uint256,t_address)"
      },
      {
        "astId": 5329,
        "contract": "contracts/WrappedMyToken.sol:WrappedMyToken",
        "label": "_operatorApprovals",
        "offset": 0,
        "slot": "5",
        "type": "t_mapping(t_address,t_mapping(t_address,t_bool))"
      },
      {
        "astId": 6468,
        "contract": "contracts/WrappedMyToken.sol:WrappedMyToken",
        "label": "_ownedTokens",
        "offset": 0,
        "slot": "6",
        "type": "t_mapping(t_address,t_mapping(t_uint256,t_uint256))"
      },
      {
        "astId": 6472,
        "contract": "contracts/WrappedMyToken.sol:WrappedMyToken",
        "label": "_ownedTokensIndex",
        "offset": 0,
        "slot": "7",
        "type": "t_mapping(t_uint256,t_uint256)"
      },
      {
        "astId": 6475,
        "contract": "contracts/WrappedMyToken.sol:WrappedMyToken",
        "label": "_allTokens",
        "offset": 0,
        "slot": "8",
        "type": "t_array(t_uint256)dyn_storage"
      },
      {
        "astId": 6479,
        "contract": "contracts/WrappedMyToken.sol:WrappedMyToken",
        "label": "_allTokensIndex",
        "offset": 0,
        "slot": "9",
        "type": "t_mapping(t_uint256,t_uint256)"
      },
      {
        "astId": 6861,
        "contract": "contracts/WrappedMyToken.sol:WrappedMyToken",
        "label": "_tokenURIs",
        "offset": 0,
        "slot": "10",
        "type": "t_mapping(t_uint256,t_string_storage)"
      },
      {
        "astId": 4968,
        "contract": "contracts/WrappedMyToken.sol:WrappedMyToken",
        "label": "_owner",
        "offset": 0,
        "slot": "11",
        "type": "t_address"
      },
      {
        "astId": 8530,
        "contract": "contracts/WrappedMyToken.sol:WrappedMyToken",
        "label": "_nextTokenId",
        "offset": 0,
        "slot": "12",
        "type": "t_uint256"
      }
    ],
    "types": {
      "t_address": {
        "encoding": "inplace",
        "label": "address",
        "numberOfBytes": "20"
      },
      "t_array(t_uint256)dyn_storage": {
        "base": "t_uint256",
        "encoding": "dynamic_array",
        "label": "uint256[]",
        "numberOfBytes": "32"
      },
      "t_bool": {
        "encoding": "inplace",
        "label": "bool",
        "numberOfBytes": "1"
      },
      "t_mapping(t_address,t_bool)": {
        "encoding": "mapping",
        "key": "t_address",
        "label": "mapping(address => bool)",
        "numberOfBytes": "32",
        "value": "t_bool"
      },
      "t_mapping(t_address,t_mapping(t_address,t_bool))": {
        "encoding": "mapping",
        "key": "t_address",
        "label": "mapping(address => mapping(address => bool))",
        "numberOfBytes": "32",
        "value": "t_mapping(t_address,t_bool)"
      },
      "t_mapping(t_address,t_mapping(t_uint256,t_uint256))": {
        "encoding": "mapping",
        "key": "t_address",
        "label": "mapping(address => mapping(uint256 => uint256))",
        "numberOfBytes": "32",
        "value": "t_mapping(t_uint256,t_uint256)"
      },
      "t_mapping(t_address,t_uint256)": {
        "encoding": "mapping",
        "key": "t_address",
        "label": "mapping(address => uint256)",
        "numberOfBytes": "32",
        "value": "t_uint256"
      },
      "t_mapping(t_uint256,t_address)": {
        "encoding": "mapping",
        "key": "t_uint256",
        "label": "mapping(uint256 => address)",
        "numberOfBytes": "32",
        "value": "t_address"
      },
      "t_mapping(t_uint256,t_string_storage)": {
        "encoding": "mapping",
        "key": "t_uint256",
        "label": "mapping(uint256 => string)",
        "numberOfBytes": "32",
        "value": "t_string_storage"
      },
      "t_mapping(t_uint256,t_uint256)": {
        "encoding": "mapping",
        "key": "t_uint256",
        "label": "mapping(uint256 => uint256)",
        "numberOfBytes": "32",
        "value": "t_uint256"
      },
      "t_string_storage": {
        "encoding": "bytes",
        "label": "string",
        "numberOfBytes": "32"
      },
      "t_uint256": {
        "encoding": "inplace",
        "label": "uint256",
        "numberOfBytes": "32"
      }
    }
  }
}