{
  "address": "0x200c291ffb600b75692Ec553920cBf69accCd3Dd",
  "abi": [
    {
      "inputs": [
        {
          "internalType": "uint256",
          "name": "_lockTime",
          "type": "uint256"
        },
        {
          "internalType": "address",
          "name": "_dataFeedAddr",
          "type": "address"
        }
      ],
      "stateMutability": "nonpayable",
      "type": "constructor"
    },
    {
      "inputs": [],
      "name": "dataFeed",
      "outputs": [
        {
          "internalType": "contract AggregatorV2V3Interface",
          "name": "",
          "type": "address"
        }
      ],
      "stateMutability": "view",
      "type": "function"
    },
    {
      "inputs": [],
      "name": "fund",
      "outputs": [],
      "stateMutability": "payable",
      "type": "function"
    },
    {
      "inputs": [
        {
          "internalType": "address",
          "name": "",
          "type": "address"
        }
      ],
      "name": "fundersToAmount",
      "outputs": [
        {
          "internalType": "uint256",
          "name": "",
          "type": "uint256"
        }
      ],
      "stateMutability": "view",
      "type": "function"
    },
    {
      "inputs": [],
      "name": "getChainlinkDataFeedLatestAnswer",
      "outputs": [
        {
          "internalType": "int256",
          "name": "",
          "type": "int256"
        }
      ],
      "stateMutability": "view",
      "type": "function"
    },
    {
      "inputs": [],
      "name": "getFund",
      "outputs": [],
      "stateMutability": "nonpayable",
      "type": "function"
    },
    {
      "inputs": [],
      "name": "getFundSuccess",
      "outputs": [
        {
          "internalType": "bool",
          "name": "",
          "type": "bool"
        }
      ],
      "stateMutability": "view",
      "type": "function"
    },
    {
      "inputs": [],
      "name": "owner",
      "outputs": [
        {
          "internalType": "address",
          "name": "",
          "type": "address"
        }
      ],
      "stateMutability": "view",
      "type": "function"
    },
    {
      "inputs": [],
      "name": "refund",
      "outputs": [],
      "stateMutability": "nonpayable",
      "type": "function"
    },
    {
      "inputs": [
        {
          "internalType": "address",
          "name": "_erc20Addr",
          "type": "address"
        }
      ],
      "name": "setErc20Addr",
      "outputs": [],
      "stateMutability": "nonpayable",
      "type": "function"
    },
    {
      "inputs": [
        {
          "internalType": "address",
          "name": "_funder",
          "type": "address"
        },
        {
          "internalType": "uint256",
          "name": "_amountToUpdate",
          "type": "uint256"
        }
      ],
      "name": "setFunderToAmount",
      "outputs": [],
      "stateMutability": "nonpayable",
      "type": "function"
    },
    {
      "inputs": [
        {
          "internalType": "address",
          "name": "_newOwner",
          "type": "address"
        }
      ],
      "name": "trasferOwnership",
      "outputs": [],
      "stateMutability": "nonpayable",
      "type": "function"
    }
  ],
  "transactionHash": "0xe5d7d3756d7b783f645d026049c813b2fb87275916cfc7effd4bfbe2184b11df",
  "args": [
    240,
    "0x694AA1769357215DE4FAC081bf1f309aDC325306"
  ],
  "numDeployments": 1,
  "solcInputHash": "956407de79710c2936f91d7679409111",
  "bytecode": "0x60806040526000600560146101000a81548160ff0219169083151502179055503480156200002c57600080fd5b50604051620016593803806200165983398181016040528101906200005291906200018f565b80600160006101000a81548173ffffffffffffffffffffffffffffffffffffffff021916908373ffffffffffffffffffffffffffffffffffffffff16021790555033600260006101000a81548173ffffffffffffffffffffffffffffffffffffffff021916908373ffffffffffffffffffffffffffffffffffffffff16021790555042600381905550816004819055505050620001d6565b600080fd5b6000819050919050565b6200010481620000ef565b81146200011057600080fd5b50565b6000815190506200012481620000f9565b92915050565b600073ffffffffffffffffffffffffffffffffffffffff82169050919050565b600062000157826200012a565b9050919050565b62000169816200014a565b81146200017557600080fd5b50565b60008151905062000189816200015e565b92915050565b60008060408385031215620001a957620001a8620000ea565b5b6000620001b98582860162000113565b9250506020620001cc8582860162000178565b9150509250929050565b61147380620001e66000396000f3fe60806040526004361061009c5760003560e01c80639e42ff90116100645780639e42ff901461014c5780639f883a0514610177578063b60d4288146101b4578063bea4dfb5146101be578063d39cf006146101e9578063da4658e0146102125761009c565b806313ffff01146100a1578063590e1ae3146100ca5780636be6c88f146100e15780638da5cb5b1461010a5780638edd6eb614610135575b600080fd5b3480156100ad57600080fd5b506100c860048036038101906100c39190610bf0565b61023d565b005b3480156100d657600080fd5b506100df610311565b005b3480156100ed57600080fd5b5061010860048036038101906101039190610bf0565b61056a565b005b34801561011657600080fd5b5061011f61063e565b60405161012c9190610c2c565b60405180910390f35b34801561014157600080fd5b5061014a610664565b005b34801561015857600080fd5b506101616108aa565b60405161016e9190610ca6565b60405180910390f35b34801561018357600080fd5b5061019e60048036038101906101999190610bf0565b6108d0565b6040516101ab9190610cda565b60405180910390f35b6101bc6108e8565b005b3480156101ca57600080fd5b506101d36109d2565b6040516101e09190610d0e565b60405180910390f35b3480156101f557600080fd5b50610210600480360381019061020b9190610d55565b610a73565b005b34801561021e57600080fd5b50610227610b4a565b6040516102349190610db0565b60405180910390f35b600260009054906101000a900473ffffffffffffffffffffffffffffffffffffffff1673ffffffffffffffffffffffffffffffffffffffff163373ffffffffffffffffffffffffffffffffffffffff16146102cd576040517f08c379a00000000000000000000000000000000000000000000000000000000081526004016102c490610e4e565b60405180910390fd5b80600560006101000a81548173ffffffffffffffffffffffffffffffffffffffff021916908373ffffffffffffffffffffffffffffffffffffffff16021790555050565b6004546003546103219190610e9d565b421015610363576040517f08c379a000000000000000000000000000000000000000000000000000000000815260040161035a90610f1d565b60405180910390fd5b683635c9adc5dea0000061037647610b5d565b106103b6576040517f08c379a00000000000000000000000000000000000000000000000000000000081526004016103ad90610f89565b60405180910390fd5b60008060003373ffffffffffffffffffffffffffffffffffffffff1673ffffffffffffffffffffffffffffffffffffffff1681526020019081526020016000205403610437576040517f08c379a000000000000000000000000000000000000000000000000000000000815260040161042e90610ff5565b60405180910390fd5b60003373ffffffffffffffffffffffffffffffffffffffff166000803373ffffffffffffffffffffffffffffffffffffffff1673ffffffffffffffffffffffffffffffffffffffff1681526020019081526020016000205460405161049b90611046565b60006040518083038185875af1925050503d80600081146104d8576040519150601f19603f3d011682016040523d82523d6000602084013e6104dd565b606091505b50508091505080610523576040517f08c379a000000000000000000000000000000000000000000000000000000000815260040161051a906110a7565b60405180910390fd5b60008060003373ffffffffffffffffffffffffffffffffffffffff1673ffffffffffffffffffffffffffffffffffffffff1681526020019081526020016000208190555050565b600260009054906101000a900473ffffffffffffffffffffffffffffffffffffffff1673ffffffffffffffffffffffffffffffffffffffff163373ffffffffffffffffffffffffffffffffffffffff16146105fa576040517f08c379a00000000000000000000000000000000000000000000000000000000081526004016105f190610e4e565b60405180910390fd5b80600260006101000a81548173ffffffffffffffffffffffffffffffffffffffff021916908373ffffffffffffffffffffffffffffffffffffffff16021790555050565b600260009054906101000a900473ffffffffffffffffffffffffffffffffffffffff1681565b6004546003546106749190610e9d565b4210156106b6576040517f08c379a00000000000000000000000000000000000000000000000000000000081526004016106ad90610f1d565b60405180910390fd5b600260009054906101000a900473ffffffffffffffffffffffffffffffffffffffff1673ffffffffffffffffffffffffffffffffffffffff163373ffffffffffffffffffffffffffffffffffffffff1614610746576040517f08c379a000000000000000000000000000000000000000000000000000000000815260040161073d90610e4e565b60405180910390fd5b683635c9adc5dea0000061075947610b5d565b101561079a576040517f08c379a000000000000000000000000000000000000000000000000000000000815260040161079190611113565b60405180910390fd5b60003373ffffffffffffffffffffffffffffffffffffffff16476040516107c090611046565b60006040518083038185875af1925050503d80600081146107fd576040519150601f19603f3d011682016040523d82523d6000602084013e610802565b606091505b50508091505080610848576040517f08c379a000000000000000000000000000000000000000000000000000000000815260040161083f906110a7565b60405180910390fd5b60008060003373ffffffffffffffffffffffffffffffffffffffff1673ffffffffffffffffffffffffffffffffffffffff168152602001908152602001600020819055506001600560146101000a81548160ff02191690831515021790555050565b600160009054906101000a900473ffffffffffffffffffffffffffffffffffffffff1681565b60006020528060005260406000206000915090505481565b68056bc75e2d631000006108fb34610b5d565b101561093c576040517f08c379a00000000000000000000000000000000000000000000000000000000081526004016109339061117f565b60405180910390fd5b60045460035461094c9190610e9d565b421061098d576040517f08c379a0000000000000000000000000000000000000000000000000000000008152600401610984906111eb565b60405180910390fd5b346000803373ffffffffffffffffffffffffffffffffffffffff1673ffffffffffffffffffffffffffffffffffffffff16815260200190815260200160002081905550565b600080600160009054906101000a900473ffffffffffffffffffffffffffffffffffffffff1673ffffffffffffffffffffffffffffffffffffffff1663feaf968c6040518163ffffffff1660e01b815260040160a060405180830381865afa158015610a42573d6000803e3d6000fd5b505050506040513d601f19601f82011682018060405250810190610a66919061128e565b5050509150508091505090565b600560009054906101000a900473ffffffffffffffffffffffffffffffffffffffff1673ffffffffffffffffffffffffffffffffffffffff163373ffffffffffffffffffffffffffffffffffffffff1614610b03576040517f08c379a0000000000000000000000000000000000000000000000000000000008152600401610afa9061137b565b60405180910390fd5b806000808473ffffffffffffffffffffffffffffffffffffffff1673ffffffffffffffffffffffffffffffffffffffff168152602001908152602001600020819055505050565b600560149054906101000a900460ff1681565b600080610b686109d2565b90506305f5e1008184610b7b919061139b565b610b85919061140c565b915050919050565b600080fd5b600073ffffffffffffffffffffffffffffffffffffffff82169050919050565b6000610bbd82610b92565b9050919050565b610bcd81610bb2565b8114610bd857600080fd5b50565b600081359050610bea81610bc4565b92915050565b600060208284031215610c0657610c05610b8d565b5b6000610c1484828501610bdb565b91505092915050565b610c2681610bb2565b82525050565b6000602082019050610c416000830184610c1d565b92915050565b6000819050919050565b6000610c6c610c67610c6284610b92565b610c47565b610b92565b9050919050565b6000610c7e82610c51565b9050919050565b6000610c9082610c73565b9050919050565b610ca081610c85565b82525050565b6000602082019050610cbb6000830184610c97565b92915050565b6000819050919050565b610cd481610cc1565b82525050565b6000602082019050610cef6000830184610ccb565b92915050565b6000819050919050565b610d0881610cf5565b82525050565b6000602082019050610d236000830184610cff565b92915050565b610d3281610cc1565b8114610d3d57600080fd5b50565b600081359050610d4f81610d29565b92915050565b60008060408385031215610d6c57610d6b610b8d565b5b6000610d7a85828601610bdb565b9250506020610d8b85828601610d40565b9150509250929050565b60008115159050919050565b610daa81610d95565b82525050565b6000602082019050610dc56000830184610da1565b92915050565b600082825260208201905092915050565b7f546869732066756e6374696f6e2063616e206f6e6c792062652063616c6c656460008201527f206279206f776e65722e00000000000000000000000000000000000000000000602082015250565b6000610e38602a83610dcb565b9150610e4382610ddc565b604082019050919050565b60006020820190508181036000830152610e6781610e2b565b9050919050565b7f4e487b7100000000000000000000000000000000000000000000000000000000600052601160045260246000fd5b6000610ea882610cc1565b9150610eb383610cc1565b9250828201905080821115610ecb57610eca610e6e565b5b92915050565b7f57696e646f77206973206e6f7420636c6f7365642e0000000000000000000000600082015250565b6000610f07601583610dcb565b9150610f1282610ed1565b602082019050919050565b60006020820190508181036000830152610f3681610efa565b9050919050565b7f54617267657420697320726561636865642e0000000000000000000000000000600082015250565b6000610f73601283610dcb565b9150610f7e82610f3d565b602082019050919050565b60006020820190508181036000830152610fa281610f66565b9050919050565b7f5468657265206973206e6f2066756e6420666f7220796f750000000000000000600082015250565b6000610fdf601883610dcb565b9150610fea82610fa9565b602082019050919050565b6000602082019050818103600083015261100e81610fd2565b9050919050565b600081905092915050565b50565b6000611030600083611015565b915061103b82611020565b600082019050919050565b600061105182611023565b9150819050919050565b7f7478206661696c65642e00000000000000000000000000000000000000000000600082015250565b6000611091600a83610dcb565b915061109c8261105b565b602082019050919050565b600060208201905081810360008301526110c081611084565b9050919050565b7f546172676574206973206e6f7420726561636865642e00000000000000000000600082015250565b60006110fd601683610dcb565b9150611108826110c7565b602082019050919050565b6000602082019050818103600083015261112c816110f0565b9050919050565b7f53656e64206d6f72652045544800000000000000000000000000000000000000600082015250565b6000611169600d83610dcb565b915061117482611133565b602082019050919050565b600060208201905081810360008301526111988161115c565b9050919050565b7f57696e646f7720697320636c6f7365642e000000000000000000000000000000600082015250565b60006111d5601183610dcb565b91506111e08261119f565b602082019050919050565b60006020820190508181036000830152611204816111c8565b9050919050565b600069ffffffffffffffffffff82169050919050565b61122a8161120b565b811461123557600080fd5b50565b60008151905061124781611221565b92915050565b61125681610cf5565b811461126157600080fd5b50565b6000815190506112738161124d565b92915050565b60008151905061128881610d29565b92915050565b600080600080600060a086880312156112aa576112a9610b8d565b5b60006112b888828901611238565b95505060206112c988828901611264565b94505060406112da88828901611279565b93505060606112eb88828901611279565b92505060806112fc88828901611238565b9150509295509295909350565b7f596f7520646f206e6f7420686176652061207065726d697373696f6e20746f2060008201527f63616c6c20746869732066756e6374696f6e2e00000000000000000000000000602082015250565b6000611365603383610dcb565b915061137082611309565b604082019050919050565b6000602082019050818103600083015261139481611358565b9050919050565b60006113a682610cc1565b91506113b183610cc1565b92508282026113bf81610cc1565b915082820484148315176113d6576113d5610e6e565b5b5092915050565b7f4e487b7100000000000000000000000000000000000000000000000000000000600052601260045260246000fd5b600061141782610cc1565b915061142283610cc1565b925082611432576114316113dd565b5b82820490509291505056fea264697066735822122036dd5132173dba9ef09044d0802108883e1a3d2ed75ed53571ab89534db5ad8d64736f6c63430008180033",
  "devdoc": {
    "kind": "dev",
    "methods": {},
    "version": 1
  },
  "userdoc": {
    "kind": "user",
    "methods": {},
    "version": 1
  },
  "storageLayout": {
    "storage": [
      {
        "astId": 7,
        "contract": "contracts/FundMe.sol:FundMe",
        "label": "fundersToAmount",
        "offset": 0,
        "slot": "0",
        "type": "t_mapping(t_address,t_uint256)"
      },
      {
        "astId": 17,
        "contract": "contracts/FundMe.sol:FundMe",
        "label": "dataFeed",
        "offset": 0,
        "slot": "1",
        "type": "t_contract(AggregatorV2V3Interface)386"
      },
      {
        "astId": 26,
        "contract": "contracts/FundMe.sol:FundMe",
        "label": "owner",
        "offset": 0,
        "slot": "2",
        "type": "t_address"
      },
      {
        "astId": 28,
        "contract": "contracts/FundMe.sol:FundMe",
        "label": "deploymentTimestamp",
        "offset": 0,
        "slot": "3",
        "type": "t_uint256"
      },
      {
        "astId": 30,
        "contract": "contracts/FundMe.sol:FundMe",
        "label": "lockTime",
        "offset": 0,
        "slot": "4",
        "type": "t_uint256"
      },
      {
        "astId": 32,
        "contract": "contracts/FundMe.sol:FundMe",
        "label": "erc20Addr",
        "offset": 0,
        "slot": "5",
        "type": "t_address"
      },
      {
        "astId": 35,
        "contract": "contracts/FundMe.sol:FundMe",
        "label": "getFundSuccess",
        "offset": 20,
        "slot": "5",
        "type": "t_bool"
      }
    ],
    "types": {
      "t_address": {
        "encoding": "inplace",
        "label": "address",
        "numberOfBytes": "20"
      },
      "t_bool": {
        "encoding": "inplace",
        "label": "bool",
        "numberOfBytes": "1"
      },
      "t_contract(AggregatorV2V3Interface)386": {
        "encoding": "inplace",
        "label": "contract AggregatorV2V3Interface",
        "numberOfBytes": "20"
      },
      "t_mapping(t_address,t_uint256)": {
        "encoding": "mapping",
        "key": "t_address",
        "label": "mapping(address => uint256)",
        "numberOfBytes": "32",
        "value": "t_uint256"
      },
      "t_uint256": {
        "encoding": "inplace",
        "label": "uint256",
        "numberOfBytes": "32"
      }
    }
  }
}